{
  "contractName": "BadgeRoles",
  "abi": [
    {
      "inputs": [],
      "stateMutability": "nonpayable",
      "type": "constructor"
    },
    {
      "anonymous": false,
      "inputs": [
        {
          "indexed": true,
          "internalType": "address",
          "name": "previousOwner",
          "type": "address"
        },
        {
          "indexed": true,
          "internalType": "address",
          "name": "newOwner",
          "type": "address"
        }
      ],
      "name": "OwnershipTransferred",
      "type": "event"
    },
    {
      "anonymous": false,
      "inputs": [
        {
          "indexed": false,
          "internalType": "address",
          "name": "account",
          "type": "address"
        }
      ],
      "name": "Paused",
      "type": "event"
    },
    {
      "anonymous": false,
      "inputs": [
        {
          "indexed": true,
          "internalType": "bytes32",
          "name": "role",
          "type": "bytes32"
        },
        {
          "indexed": true,
          "internalType": "address",
          "name": "account",
          "type": "address"
        },
        {
          "indexed": true,
          "internalType": "address",
          "name": "sender",
          "type": "address"
        }
      ],
      "name": "RoleGranted",
      "type": "event"
    },
    {
      "anonymous": false,
      "inputs": [
        {
          "indexed": true,
          "internalType": "bytes32",
          "name": "role",
          "type": "bytes32"
        },
        {
          "indexed": true,
          "internalType": "address",
          "name": "account",
          "type": "address"
        },
        {
          "indexed": true,
          "internalType": "address",
          "name": "sender",
          "type": "address"
        }
      ],
      "name": "RoleRevoked",
      "type": "event"
    },
    {
      "anonymous": false,
      "inputs": [
        {
          "indexed": false,
          "internalType": "address",
          "name": "account",
          "type": "address"
        }
      ],
      "name": "Unpaused",
      "type": "event"
    },
    {
      "inputs": [],
      "name": "DEFAULT_ADMIN_ROLE",
      "outputs": [
        {
          "internalType": "bytes32",
          "name": "",
          "type": "bytes32"
        }
      ],
      "stateMutability": "view",
      "type": "function"
    },
    {
      "inputs": [],
      "name": "PAUSER_ROLE",
      "outputs": [
        {
          "internalType": "bytes32",
          "name": "",
          "type": "bytes32"
        }
      ],
      "stateMutability": "view",
      "type": "function"
    },
    {
      "inputs": [],
      "name": "TEMPLATER_ROLE",
      "outputs": [
        {
          "internalType": "bytes32",
          "name": "",
          "type": "bytes32"
        }
      ],
      "stateMutability": "view",
      "type": "function"
    },
    {
      "inputs": [
        {
          "internalType": "bytes32",
          "name": "role",
          "type": "bytes32"
        }
      ],
      "name": "getRoleAdmin",
      "outputs": [
        {
          "internalType": "bytes32",
          "name": "",
          "type": "bytes32"
        }
      ],
      "stateMutability": "view",
      "type": "function"
    },
    {
      "inputs": [
        {
          "internalType": "bytes32",
          "name": "role",
          "type": "bytes32"
        },
        {
          "internalType": "uint256",
          "name": "index",
          "type": "uint256"
        }
      ],
      "name": "getRoleMember",
      "outputs": [
        {
          "internalType": "address",
          "name": "",
          "type": "address"
        }
      ],
      "stateMutability": "view",
      "type": "function"
    },
    {
      "inputs": [
        {
          "internalType": "bytes32",
          "name": "role",
          "type": "bytes32"
        }
      ],
      "name": "getRoleMemberCount",
      "outputs": [
        {
          "internalType": "uint256",
          "name": "",
          "type": "uint256"
        }
      ],
      "stateMutability": "view",
      "type": "function"
    },
    {
      "inputs": [],
      "name": "getTrustedForwarder",
      "outputs": [
        {
          "internalType": "address",
          "name": "",
          "type": "address"
        }
      ],
      "stateMutability": "view",
      "type": "function"
    },
    {
      "inputs": [
        {
          "internalType": "bytes32",
          "name": "role",
          "type": "bytes32"
        },
        {
          "internalType": "address",
          "name": "account",
          "type": "address"
        }
      ],
      "name": "grantRole",
      "outputs": [],
      "stateMutability": "nonpayable",
      "type": "function"
    },
    {
      "inputs": [
        {
          "internalType": "bytes32",
          "name": "role",
          "type": "bytes32"
        },
        {
          "internalType": "address",
          "name": "account",
          "type": "address"
        }
      ],
      "name": "hasRole",
      "outputs": [
        {
          "internalType": "bool",
          "name": "",
          "type": "bool"
        }
      ],
      "stateMutability": "view",
      "type": "function"
    },
    {
      "inputs": [],
      "name": "owner",
      "outputs": [
        {
          "internalType": "address",
          "name": "",
          "type": "address"
        }
      ],
      "stateMutability": "view",
      "type": "function"
    },
    {
      "inputs": [],
      "name": "paused",
      "outputs": [
        {
          "internalType": "bool",
          "name": "",
          "type": "bool"
        }
      ],
      "stateMutability": "view",
      "type": "function"
    },
    {
      "inputs": [],
      "name": "renounceOwnership",
      "outputs": [],
      "stateMutability": "nonpayable",
      "type": "function"
    },
    {
      "inputs": [
        {
          "internalType": "bytes32",
          "name": "role",
          "type": "bytes32"
        },
        {
          "internalType": "address",
          "name": "account",
          "type": "address"
        }
      ],
      "name": "renounceRole",
      "outputs": [],
      "stateMutability": "nonpayable",
      "type": "function"
    },
    {
      "inputs": [
        {
          "internalType": "bytes32",
          "name": "role",
          "type": "bytes32"
        },
        {
          "internalType": "address",
          "name": "account",
          "type": "address"
        }
      ],
      "name": "revokeRole",
      "outputs": [],
      "stateMutability": "nonpayable",
      "type": "function"
    },
    {
      "inputs": [
        {
          "internalType": "address",
          "name": "newOwner",
          "type": "address"
        }
      ],
      "name": "transferOwnership",
      "outputs": [],
      "stateMutability": "nonpayable",
      "type": "function"
    },
    {
      "inputs": [
        {
          "internalType": "address",
          "name": "guy",
          "type": "address"
        }
      ],
      "name": "isAdmin",
      "outputs": [
        {
          "internalType": "bool",
          "name": "",
          "type": "bool"
        }
      ],
      "stateMutability": "view",
      "type": "function"
    },
    {
      "inputs": [
        {
          "internalType": "address",
          "name": "guy",
          "type": "address"
        }
      ],
      "name": "isTemplater",
      "outputs": [
        {
          "internalType": "bool",
          "name": "",
          "type": "bool"
        }
      ],
      "stateMutability": "view",
      "type": "function"
    },
    {
      "inputs": [
        {
          "internalType": "address",
          "name": "guy",
          "type": "address"
        }
      ],
      "name": "addTemplater",
      "outputs": [
        {
          "internalType": "bool",
          "name": "",
          "type": "bool"
        }
      ],
      "stateMutability": "nonpayable",
      "type": "function"
    },
    {
      "inputs": [],
      "name": "pause",
      "outputs": [],
      "stateMutability": "nonpayable",
      "type": "function"
    },
    {
      "inputs": [],
      "name": "unpause",
      "outputs": [],
      "stateMutability": "nonpayable",
      "type": "function"
    }
  ],
  "bytecode": "0x60806040523480156200001157600080fd5b506000620000246200020860201b60201c565b9050806000806101000a81548173ffffffffffffffffffffffffffffffffffffffff021916908373ffffffffffffffffffffffffffffffffffffffff1602179055508073ffffffffffffffffffffffffffffffffffffffff16600073ffffffffffffffffffffffffffffffffffffffff167f8be0079c531659141344cd1fd0a4f28419497f9722a3daafe3b4186f6b6457e060405160405180910390a3506000600260006101000a81548160ff021916908315150217905550620001016000801b620000f56200022460201b60201c565b6200024d60201b60201c565b6200015760405180807f54454d504c415445525f524f4c45000000000000000000000000000000000000815250600e01905060405180910390206200014b6200022460201b60201c565b6200024d60201b60201c565b620001ad60405180807f5041555345525f524f4c45000000000000000000000000000000000000000000815250600b0190506040518091039020620001a16200022460201b60201c565b6200024d60201b60201c565b736453d37248ab2c16ebd1a8f782a2cbc65860e60b600260016101000a81548173ffffffffffffffffffffffffffffffffffffffff021916908373ffffffffffffffffffffffffffffffffffffffff160217905550620005e5565b60006200021f6200026360201b62000f471760201c565b905090565b60008060009054906101000a900473ffffffffffffffffffffffffffffffffffffffff16905090565b6200025f82826200032d60201b60201c565b5050565b60006018600036905010158015620002b5575062000286620003d160201b60201c565b73ffffffffffffffffffffffffffffffffffffffff163373ffffffffffffffffffffffffffffffffffffffff16145b1562000326576200031e6000368080601f016020809104026020016040519081016040528093929190818152602001838380828437600081840152601f19601f820116905080830192505050505050506014600036905003620003fb60201b62000ff91760201c565b90506200032a565b3390505b90565b6200035c81600160008581526020019081526020016000206000016200046860201b6200104b1790919060201c565b15620003cd57620003726200020860201b60201c565b73ffffffffffffffffffffffffffffffffffffffff168173ffffffffffffffffffffffffffffffffffffffff16837f2f8788117e7eff1d82e926ec794901d17c78024a50270940304540a733656f0d60405160405180910390a45b5050565b6000600260019054906101000a900473ffffffffffffffffffffffffffffffffffffffff16905090565b600060148201835110156200043d576200043c6200042b6004855160148601620004a060201b6200107b1760201c565b6200054060201b6200111a1760201c565b5b60148201915073ffffffffffffffffffffffffffffffffffffffff8284015116905080905092915050565b600062000498836000018373ffffffffffffffffffffffffffffffffffffffff1660001b6200054860201b60201c565b905092915050565b6060632800659560e01b84848460405160240180846007811115620004c157fe5b60ff1681526020018381526020018281526020019350505050604051602081830303815290604052907bffffffffffffffffffffffffffffffffffffffffffffffffffffffff19166020820180517bffffffffffffffffffffffffffffffffffffffffffffffffffffffff838183161783525050505090509392505050565b805160208201fd5b60006200055c8383620005c260201b60201c565b620005b7578260000182908060018154018082558091505060019003906000526020600020016000909190919091505582600001805490508360010160008481526020019081526020016000208190555060019050620005bc565b600090505b92915050565b600080836001016000848152602001908152602001600020541415905092915050565b61187080620005f56000396000f3fe608060405234801561001057600080fd5b506004361061012c5760003560e01c80639010d07c116100ad578063ce1b815f11610071578063ce1b815f146104ad578063d547741f146104f7578063e63ab1e914610545578063e6c0d71414610563578063f2fde38b146105bf5761012c565b80639010d07c1461031357806391d148541461038b578063a217fddf146103f1578063ca15c8731461040f578063cc11dd4e146104515761012c565b80635c975abb116100f45780635c975abb146102755780636cdd0a1614610297578063715018a6146102b55780638456cb59146102bf5780638da5cb5b146102c95761012c565b8063248a9ca31461013157806324d7806c146101735780632f2ff15d146101cf57806336568abe1461021d5780633f4ba83a1461026b575b600080fd5b61015d6004803603602081101561014757600080fd5b8101908080359060200190929190505050610603565b6040518082815260200191505060405180910390f35b6101b56004803603602081101561018957600080fd5b81019080803573ffffffffffffffffffffffffffffffffffffffff169060200190929190505050610623565b604051808215151515815260200191505060405180910390f35b61021b600480360360408110156101e557600080fd5b8101908080359060200190929190803573ffffffffffffffffffffffffffffffffffffffff169060200190929190505050610639565b005b6102696004803603604081101561023357600080fd5b8101908080359060200190929190803573ffffffffffffffffffffffffffffffffffffffff1690602001909291905050506106c3565b005b61027361075c565b005b61027d610801565b604051808215151515815260200191505060405180910390f35b61029f610818565b6040518082815260200191505060405180910390f35b6102bd610851565b005b6102c76109d9565b005b6102d1610a7e565b604051808273ffffffffffffffffffffffffffffffffffffffff1673ffffffffffffffffffffffffffffffffffffffff16815260200191505060405180910390f35b6103496004803603604081101561032957600080fd5b810190808035906020019092919080359060200190929190505050610aa7565b604051808273ffffffffffffffffffffffffffffffffffffffff1673ffffffffffffffffffffffffffffffffffffffff16815260200191505060405180910390f35b6103d7600480360360408110156103a157600080fd5b8101908080359060200190929190803573ffffffffffffffffffffffffffffffffffffffff169060200190929190505050610ad9565b604051808215151515815260200191505060405180910390f35b6103f9610b0b565b6040518082815260200191505060405180910390f35b61043b6004803603602081101561042557600080fd5b8101908080359060200190929190505050610b12565b6040518082815260200191505060405180910390f35b6104936004803603602081101561046757600080fd5b81019080803573ffffffffffffffffffffffffffffffffffffffff169060200190929190505050610b39565b604051808215151515815260200191505060405180910390f35b6104b5610b81565b604051808273ffffffffffffffffffffffffffffffffffffffff1673ffffffffffffffffffffffffffffffffffffffff16815260200191505060405180910390f35b6105436004803603604081101561050d57600080fd5b8101908080359060200190929190803573ffffffffffffffffffffffffffffffffffffffff169060200190929190505050610bab565b005b61054d610c35565b6040518082815260200191505060405180910390f35b6105a56004803603602081101561057957600080fd5b81019080803573ffffffffffffffffffffffffffffffffffffffff169060200190929190505050610c6e565b604051808215151515815260200191505060405180910390f35b610601600480360360208110156105d557600080fd5b81019080803573ffffffffffffffffffffffffffffffffffffffff169060200190929190505050610d3a565b005b600060016000838152602001908152602001600020600201549050919050565b60006106326000801b83610ad9565b9050919050565b610660600160008481526020019081526020016000206002015461065b611122565b610ad9565b6106b5576040517f08c379a000000000000000000000000000000000000000000000000000000000815260040180806020018281038252602f81526020018061172d602f913960400191505060405180910390fd5b6106bf8282611131565b5050565b6106cb611122565b73ffffffffffffffffffffffffffffffffffffffff168173ffffffffffffffffffffffffffffffffffffffff161461074e576040517f08c379a000000000000000000000000000000000000000000000000000000000815260040180806020018281038252602f81526020018061180c602f913960400191505060405180910390fd5b61075882826111c5565b5050565b6107a260405180807f5041555345525f524f4c45000000000000000000000000000000000000000000815250600b019050604051809103902061079d611122565b610ad9565b6107f7576040517f08c379a000000000000000000000000000000000000000000000000000000000815260040180806020018281038252602e81526020018061175c602e913960400191505060405180910390fd5b6107ff611259565b565b6000600260009054906101000a900460ff16905090565b60405180807f54454d504c415445525f524f4c45000000000000000000000000000000000000815250600e019050604051809103902081565b610859611122565b73ffffffffffffffffffffffffffffffffffffffff166000809054906101000a900473ffffffffffffffffffffffffffffffffffffffff1673ffffffffffffffffffffffffffffffffffffffff161461091a576040517f08c379a00000000000000000000000000000000000000000000000000000000081526004018080602001828103825260208152602001807f4f776e61626c653a2063616c6c6572206973206e6f7420746865206f776e657281525060200191505060405180910390fd5b600073ffffffffffffffffffffffffffffffffffffffff166000809054906101000a900473ffffffffffffffffffffffffffffffffffffffff1673ffffffffffffffffffffffffffffffffffffffff167f8be0079c531659141344cd1fd0a4f28419497f9722a3daafe3b4186f6b6457e060405160405180910390a360008060006101000a81548173ffffffffffffffffffffffffffffffffffffffff021916908373ffffffffffffffffffffffffffffffffffffffff160217905550565b610a1f60405180807f5041555345525f524f4c45000000000000000000000000000000000000000000815250600b0190506040518091039020610a1a611122565b610ad9565b610a74576040517f08c379a000000000000000000000000000000000000000000000000000000000815260040180806020018281038252602c8152602001806117e0602c913960400191505060405180910390fd5b610a7c611362565b565b60008060009054906101000a900473ffffffffffffffffffffffffffffffffffffffff16905090565b6000610ad1826001600086815260200190815260200160002060000161146c90919063ffffffff16565b905092915050565b6000610b03826001600086815260200190815260200160002060000161148690919063ffffffff16565b905092915050565b6000801b81565b6000610b32600160008481526020019081526020016000206000016114b6565b9050919050565b6000610b7a60405180807f54454d504c415445525f524f4c45000000000000000000000000000000000000815250600e019050604051809103902083610ad9565b9050919050565b6000600260019054906101000a900473ffffffffffffffffffffffffffffffffffffffff16905090565b610bd26001600084815260200190815260200160002060020154610bcd611122565b610ad9565b610c27576040517f08c379a00000000000000000000000000000000000000000000000000000000081526004018080602001828103825260308152602001806117b06030913960400191505060405180910390fd5b610c3182826111c5565b5050565b60405180807f5041555345525f524f4c45000000000000000000000000000000000000000000815250600b019050604051809103902081565b6000610c80610c7b611122565b610623565b610cf2576040517f08c379a00000000000000000000000000000000000000000000000000000000081526004018080602001828103825260168152602001807f43616c6c6572206973206e6f7420616e2061646d696e0000000000000000000081525060200191505060405180910390fd5b610d3160405180807f54454d504c415445525f524f4c45000000000000000000000000000000000000815250600e019050604051809103902083610639565b60019050919050565b610d42611122565b73ffffffffffffffffffffffffffffffffffffffff166000809054906101000a900473ffffffffffffffffffffffffffffffffffffffff1673ffffffffffffffffffffffffffffffffffffffff1614610e03576040517f08c379a00000000000000000000000000000000000000000000000000000000081526004018080602001828103825260208152602001807f4f776e61626c653a2063616c6c6572206973206e6f7420746865206f776e657281525060200191505060405180910390fd5b600073ffffffffffffffffffffffffffffffffffffffff168173ffffffffffffffffffffffffffffffffffffffff161415610e89576040517f08c379a000000000000000000000000000000000000000000000000000000000815260040180806020018281038252602681526020018061178a6026913960400191505060405180910390fd5b8073ffffffffffffffffffffffffffffffffffffffff166000809054906101000a900473ffffffffffffffffffffffffffffffffffffffff1673ffffffffffffffffffffffffffffffffffffffff167f8be0079c531659141344cd1fd0a4f28419497f9722a3daafe3b4186f6b6457e060405160405180910390a3806000806101000a81548173ffffffffffffffffffffffffffffffffffffffff021916908373ffffffffffffffffffffffffffffffffffffffff16021790555050565b60006018600036905010158015610f905750610f61610b81565b73ffffffffffffffffffffffffffffffffffffffff163373ffffffffffffffffffffffffffffffffffffffff16145b15610ff257610feb6000368080601f016020809104026020016040519081016040528093929190818152602001838380828437600081840152601f19601f820116905080830192505050505050506014600036905003610ff9565b9050610ff6565b3390505b90565b600060148201835110156110205761101f61101a600485516014860161107b565b61111a565b5b60148201915073ffffffffffffffffffffffffffffffffffffffff8284015116905080905092915050565b6000611073836000018373ffffffffffffffffffffffffffffffffffffffff1660001b6114cb565b905092915050565b6060632800659560e01b8484846040516024018084600781111561109b57fe5b60ff1681526020018381526020018281526020019350505050604051602081830303815290604052907bffffffffffffffffffffffffffffffffffffffffffffffffffffffff19166020820180517bffffffffffffffffffffffffffffffffffffffffffffffffffffffff838183161783525050505090509392505050565b805160208201fd5b600061112c610f47565b905090565b611159816001600085815260200190815260200160002060000161104b90919063ffffffff16565b156111c157611166611122565b73ffffffffffffffffffffffffffffffffffffffff168173ffffffffffffffffffffffffffffffffffffffff16837f2f8788117e7eff1d82e926ec794901d17c78024a50270940304540a733656f0d60405160405180910390a45b5050565b6111ed816001600085815260200190815260200160002060000161153b90919063ffffffff16565b15611255576111fa611122565b73ffffffffffffffffffffffffffffffffffffffff168173ffffffffffffffffffffffffffffffffffffffff16837ff6391f5c32d9c69d2a47ea670b442974b53935d1edc7fd64eb21e047a839171b60405160405180910390a45b5050565b600260009054906101000a900460ff166112db576040517f08c379a00000000000000000000000000000000000000000000000000000000081526004018080602001828103825260148152602001807f5061757361626c653a206e6f742070617573656400000000000000000000000081525060200191505060405180910390fd5b6000600260006101000a81548160ff0219169083151502179055507f5db9ee0a495bf2e6ff9c91a7834c1ba4fdd244a5e8aa4e537bd38aeae4b073aa61131f611122565b604051808273ffffffffffffffffffffffffffffffffffffffff1673ffffffffffffffffffffffffffffffffffffffff16815260200191505060405180910390a1565b600260009054906101000a900460ff16156113e5576040517f08c379a00000000000000000000000000000000000000000000000000000000081526004018080602001828103825260108152602001807f5061757361626c653a207061757365640000000000000000000000000000000081525060200191505060405180910390fd5b6001600260006101000a81548160ff0219169083151502179055507f62e78cea01bee320cd4e420270b5ea74000d11b0c9f74754ebdbfc544b05a258611429611122565b604051808273ffffffffffffffffffffffffffffffffffffffff1673ffffffffffffffffffffffffffffffffffffffff16815260200191505060405180910390a1565b600061147b836000018361156b565b60001c905092915050565b60006114ae836000018373ffffffffffffffffffffffffffffffffffffffff1660001b6115ee565b905092915050565b60006114c482600001611611565b9050919050565b60006114d783836115ee565b611530578260000182908060018154018082558091505060019003906000526020600020016000909190919091505582600001805490508360010160008481526020019081526020016000208190555060019050611535565b600090505b92915050565b6000611563836000018373ffffffffffffffffffffffffffffffffffffffff1660001b611622565b905092915050565b6000818360000180549050116115cc576040517f08c379a000000000000000000000000000000000000000000000000000000000815260040180806020018281038252602281526020018061170b6022913960400191505060405180910390fd5b8260000182815481106115db57fe5b9060005260206000200154905092915050565b600080836001016000848152602001908152602001600020541415905092915050565b600081600001805490509050919050565b600080836001016000848152602001908152602001600020549050600081146116fe576000600182039050600060018660000180549050039050600086600001828154811061166d57fe5b906000526020600020015490508087600001848154811061168a57fe5b90600052602060002001819055506001830187600101600083815260200190815260200160002081905550866000018054806116c257fe5b60019003818190600052602060002001600090559055866001016000878152602001908152602001600020600090556001945050505050611704565b60009150505b9291505056fe456e756d657261626c655365743a20696e646578206f7574206f6620626f756e6473416363657373436f6e74726f6c3a2073656e646572206d75737420626520616e2061646d696e20746f206772616e744261646765466163746f72793a206d75737420686176652070617573657220726f6c6520746f20756e70617573654f776e61626c653a206e6577206f776e657220697320746865207a65726f2061646472657373416363657373436f6e74726f6c3a2073656e646572206d75737420626520616e2061646d696e20746f207265766f6b654261646765466163746f72793a206d75737420686176652070617573657220726f6c6520746f207061757365416363657373436f6e74726f6c3a2063616e206f6e6c792072656e6f756e636520726f6c657320666f722073656c66a2646970667358221220a118fc57dfced204ad659dc74a445fadbdffba1d5aa00984069d5ec488176c1c64736f6c63430006080033",
  "immutableReferences": {},
  "source": "/// SPDX-License-Identifier: GPL-3.0\npragma solidity 0.6.8;\n\n/// @title Non-transferable Badges for Maker Ecosystem Activity, issue #537\n/// @author Nazzareno Massari, Scott Herren\n/// @notice BadgeRoles Access Management for Default Admin, Templater and Pauser Role\n/// @dev see https://github.com/makerdao/community/issues/537\n/// @dev All function calls are currently implemented without side effecs through TDD approach\n/// @dev OpenZeppelin v3.0 library is used for secure contract development\n\nimport \"@openzeppelin/contracts/access/Ownable.sol\";\nimport \"@openzeppelin/contracts/access/AccessControl.sol\";\nimport \"@openzeppelin/contracts/utils/Pausable.sol\";\nimport \"@opengsn/gsn/contracts/BaseRelayRecipient.sol\";\n\n\ncontract BadgeRoles is Ownable, AccessControl, Pausable, BaseRelayRecipient {\n\n  /// Roles\n  bytes32 public constant TEMPLATER_ROLE = keccak256(\"TEMPLATER_ROLE\");\n  bytes32 public constant PAUSER_ROLE = keccak256(\"PAUSER_ROLE\");\n\n  constructor() public {\n        _setupRole(DEFAULT_ADMIN_ROLE, owner());\n\n        _setupRole(TEMPLATER_ROLE, owner());\n        _setupRole(PAUSER_ROLE, owner());\n\n        /// OpenGSN TruestedForwarder on Kovan\n        trustedForwarder =  0x6453D37248Ab2C16eBd1A8f782a2CBC65860E60B;\n  }\n\n  /// Modifiers\n  modifier onlyAdmin() {\n      require(isAdmin(_msgSender()), \"Caller is not an admin\");\n      _;\n    }\n\n  modifier onlyTemplater() {\n      require(isTemplater(_msgSender()), \"Caller is not a template owner\");\n      _;\n    }\n\n  /// Functions\n\n  /// @notice OpenGSN _msgSender()\n  /// @dev override _msgSender() in OZ Context.sol and BaseRelayRecipient\n  /// @return msg.sender after relay call\n  function _msgSender() internal override(Context, BaseRelayRecipient) virtual view returns (address payable) {\n            return BaseRelayRecipient._msgSender();\n  }\n\n  function isAdmin(address guy) public view returns (bool) {\n    return hasRole(DEFAULT_ADMIN_ROLE, guy);\n  }\n\n  function isTemplater(address guy) public view returns (bool) {\n    return hasRole(TEMPLATER_ROLE, guy);\n  }\n\n  function addTemplater(address guy) public onlyAdmin returns (bool) {\n    grantRole(TEMPLATER_ROLE, guy);\n    return true;\n  }\n\n  /// @notice Pause all the functions\n  /// @dev the caller must have the 'PAUSER_ROLE'\n  function pause() public {\n    require(hasRole(PAUSER_ROLE, _msgSender()), \"BadgeFactory: must have pauser role to pause\");\n    _pause();\n  }\n\n  /// @notice Unpause all the functions\n  /// @dev the caller must have the 'PAUSER_ROLE'\n  function unpause() public {\n        require(hasRole(PAUSER_ROLE, _msgSender()), \"BadgeFactory: must have pauser role to unpause\");\n        _unpause();\n    }\n\n\n}\n",
  "sourcePath": "/home/sencha/insigniadao/contracts/BadgeRoles.sol",
  "compiler": {
    "name": "solc",
    "version": "0.6.8+commit.0bbfe453.Emscripten.clang"
  },
  "schemaVersion": "3.1.0",
  "updatedAt": "2020-05-19T14:43:54.011Z",
  "devdoc": {
    "methods": {
      "getRoleAdmin(bytes32)": {
        "details": "Returns the admin role that controls `role`. See {grantRole} and {revokeRole}.     * To change a role's admin, use {_setRoleAdmin}."
      },
      "getRoleMember(bytes32,uint256)": {
        "details": "Returns one of the accounts that have `role`. `index` must be a value between 0 and {getRoleMemberCount}, non-inclusive.     * Role bearers are not sorted in any particular way, and their ordering may change at any point.     * WARNING: When using {getRoleMember} and {getRoleMemberCount}, make sure you perform all queries on the same block. See the following https://forum.openzeppelin.com/t/iterating-over-elements-on-enumerableset-in-openzeppelin-contracts/2296[forum post] for more information."
      },
      "getRoleMemberCount(bytes32)": {
        "details": "Returns the number of accounts that have `role`. Can be used together with {getRoleMember} to enumerate all bearers of a role."
      },
      "grantRole(bytes32,address)": {
        "details": "Grants `role` to `account`.     * If `account` had not been already granted `role`, emits a {RoleGranted} event.     * Requirements:     * - the caller must have ``role``'s admin role."
      },
      "hasRole(bytes32,address)": {
        "details": "Returns `true` if `account` has been granted `role`."
      },
      "owner()": {
        "details": "Returns the address of the current owner."
      },
      "pause()": {
        "details": "the caller must have the 'PAUSER_ROLE'"
      },
      "paused()": {
        "details": "Returns true if the contract is paused, and false otherwise."
      },
      "renounceOwnership()": {
        "details": "Leaves the contract without owner. It will not be possible to call `onlyOwner` functions anymore. Can only be called by the current owner.     * NOTE: Renouncing ownership will leave the contract without an owner, thereby removing any functionality that is only available to the owner."
      },
      "renounceRole(bytes32,address)": {
        "details": "Revokes `role` from the calling account.     * Roles are often managed via {grantRole} and {revokeRole}: this function's purpose is to provide a mechanism for accounts to lose their privileges if they are compromised (such as when a trusted device is misplaced).     * If the calling account had been granted `role`, emits a {RoleRevoked} event.     * Requirements:     * - the caller must be `account`."
      },
      "revokeRole(bytes32,address)": {
        "details": "Revokes `role` from `account`.     * If `account` had been granted `role`, emits a {RoleRevoked} event.     * Requirements:     * - the caller must have ``role``'s admin role."
      },
      "transferOwnership(address)": {
        "details": "Transfers ownership of the contract to a new account (`newOwner`). Can only be called by the current owner."
      },
      "unpause()": {
        "details": "the caller must have the 'PAUSER_ROLE'"
      }
    }
  },
  "userdoc": {
    "methods": {
      "pause()": {
        "notice": "Pause all the functions"
      },
      "unpause()": {
        "notice": "Unpause all the functions"
      }
    }
  }
}