{
  "contractName": "BadgePaymaster",
  "abi": [
    {
      "inputs": [],
      "stateMutability": "nonpayable",
      "type": "constructor"
    },
    {
      "anonymous": false,
      "inputs": [
        {
          "indexed": true,
          "internalType": "address",
          "name": "previousOwner",
          "type": "address"
        },
        {
          "indexed": true,
          "internalType": "address",
          "name": "newOwner",
          "type": "address"
        }
      ],
      "name": "OwnershipTransferred",
      "type": "event"
    },
    {
      "inputs": [],
      "name": "getGasLimits",
      "outputs": [
        {
          "components": [
            {
              "internalType": "uint256",
              "name": "acceptRelayedCallGasLimit",
              "type": "uint256"
            },
            {
              "internalType": "uint256",
              "name": "preRelayedCallGasLimit",
              "type": "uint256"
            },
            {
              "internalType": "uint256",
              "name": "postRelayedCallGasLimit",
              "type": "uint256"
            }
          ],
          "internalType": "struct GSNTypes.GasLimits",
          "name": "limits",
          "type": "tuple"
        }
      ],
      "stateMutability": "view",
      "type": "function",
      "constant": true
    },
    {
      "inputs": [],
      "name": "getHubAddr",
      "outputs": [
        {
          "internalType": "address",
          "name": "",
          "type": "address"
        }
      ],
      "stateMutability": "view",
      "type": "function",
      "constant": true
    },
    {
      "inputs": [],
      "name": "getRelayHubDeposit",
      "outputs": [
        {
          "internalType": "uint256",
          "name": "",
          "type": "uint256"
        }
      ],
      "stateMutability": "view",
      "type": "function",
      "constant": true
    },
    {
      "inputs": [],
      "name": "owner",
      "outputs": [
        {
          "internalType": "address",
          "name": "",
          "type": "address"
        }
      ],
      "stateMutability": "view",
      "type": "function",
      "constant": true
    },
    {
      "inputs": [],
      "name": "renounceOwnership",
      "outputs": [],
      "stateMutability": "nonpayable",
      "type": "function"
    },
    {
      "inputs": [
        {
          "internalType": "contract IRelayHub",
          "name": "hub",
          "type": "address"
        }
      ],
      "name": "setRelayHub",
      "outputs": [],
      "stateMutability": "nonpayable",
      "type": "function"
    },
    {
      "inputs": [
        {
          "internalType": "address",
          "name": "newOwner",
          "type": "address"
        }
      ],
      "name": "transferOwnership",
      "outputs": [],
      "stateMutability": "nonpayable",
      "type": "function"
    },
    {
      "inputs": [
        {
          "internalType": "address",
          "name": "",
          "type": "address"
        }
      ],
      "name": "whitelist",
      "outputs": [
        {
          "internalType": "bool",
          "name": "",
          "type": "bool"
        }
      ],
      "stateMutability": "view",
      "type": "function",
      "constant": true
    },
    {
      "inputs": [
        {
          "internalType": "uint256",
          "name": "amount",
          "type": "uint256"
        },
        {
          "internalType": "address payable",
          "name": "target",
          "type": "address"
        }
      ],
      "name": "withdrawRelayHubDepositTo",
      "outputs": [],
      "stateMutability": "nonpayable",
      "type": "function"
    },
    {
      "stateMutability": "payable",
      "type": "receive",
      "payable": true
    },
    {
      "inputs": [
        {
          "internalType": "address",
          "name": "_address",
          "type": "address"
        }
      ],
      "name": "addToWhitelist",
      "outputs": [],
      "stateMutability": "nonpayable",
      "type": "function"
    },
    {
      "inputs": [
        {
          "components": [
            {
              "internalType": "address",
              "name": "target",
              "type": "address"
            },
            {
              "internalType": "bytes",
              "name": "encodedFunction",
              "type": "bytes"
            },
            {
              "components": [
                {
                  "internalType": "uint256",
                  "name": "gasLimit",
                  "type": "uint256"
                },
                {
                  "internalType": "uint256",
                  "name": "gasPrice",
                  "type": "uint256"
                },
                {
                  "internalType": "uint256",
                  "name": "pctRelayFee",
                  "type": "uint256"
                },
                {
                  "internalType": "uint256",
                  "name": "baseRelayFee",
                  "type": "uint256"
                }
              ],
              "internalType": "struct GSNTypes.GasData",
              "name": "gasData",
              "type": "tuple"
            },
            {
              "components": [
                {
                  "internalType": "address",
                  "name": "senderAddress",
                  "type": "address"
                },
                {
                  "internalType": "uint256",
                  "name": "senderNonce",
                  "type": "uint256"
                },
                {
                  "internalType": "address",
                  "name": "relayWorker",
                  "type": "address"
                },
                {
                  "internalType": "address",
                  "name": "paymaster",
                  "type": "address"
                }
              ],
              "internalType": "struct GSNTypes.RelayData",
              "name": "relayData",
              "type": "tuple"
            }
          ],
          "internalType": "struct GSNTypes.RelayRequest",
          "name": "relayRequest",
          "type": "tuple"
        },
        {
          "internalType": "bytes",
          "name": "",
          "type": "bytes"
        },
        {
          "internalType": "uint256",
          "name": "",
          "type": "uint256"
        }
      ],
      "name": "acceptRelayedCall",
      "outputs": [
        {
          "internalType": "bytes",
          "name": "",
          "type": "bytes"
        }
      ],
      "stateMutability": "view",
      "type": "function",
      "constant": true
    },
    {
      "inputs": [
        {
          "internalType": "bytes",
          "name": "",
          "type": "bytes"
        }
      ],
      "name": "preRelayedCall",
      "outputs": [
        {
          "internalType": "bytes32",
          "name": "",
          "type": "bytes32"
        }
      ],
      "stateMutability": "nonpayable",
      "type": "function"
    },
    {
      "inputs": [
        {
          "internalType": "bytes",
          "name": "",
          "type": "bytes"
        },
        {
          "internalType": "bool",
          "name": "",
          "type": "bool"
        },
        {
          "internalType": "bytes32",
          "name": "",
          "type": "bytes32"
        },
        {
          "internalType": "uint256",
          "name": "",
          "type": "uint256"
        },
        {
          "components": [
            {
              "internalType": "uint256",
              "name": "gasLimit",
              "type": "uint256"
            },
            {
              "internalType": "uint256",
              "name": "gasPrice",
              "type": "uint256"
            },
            {
              "internalType": "uint256",
              "name": "pctRelayFee",
              "type": "uint256"
            },
            {
              "internalType": "uint256",
              "name": "baseRelayFee",
              "type": "uint256"
            }
          ],
          "internalType": "struct GSNTypes.GasData",
          "name": "",
          "type": "tuple"
        }
      ],
      "name": "postRelayedCall",
      "outputs": [],
      "stateMutability": "nonpayable",
      "type": "function"
    }
  ],
  "bytecode": "0x608060405234801561001057600080fd5b5060006100216100c460201b60201c565b9050806000806101000a81548173ffffffffffffffffffffffffffffffffffffffff021916908373ffffffffffffffffffffffffffffffffffffffff1602179055508073ffffffffffffffffffffffffffffffffffffffff16600073ffffffffffffffffffffffffffffffffffffffff167f8be0079c531659141344cd1fd0a4f28419497f9722a3daafe3b4186f6b6457e060405160405180910390a3506100cc565b600033905090565b61141f806100db6000396000f3fe6080604052600436106100c65760003560e01c806380274db71161007f578063b1ed031f11610059578063b1ed031f146102ef578063e43252d71461032c578063f2fde38b14610355578063fbfbd0f21461037e5761015b565b806380274db71461024a5780638da5cb5b146102875780639b19251a146102b25761015b565b80632afe31c1146101605780632d14c4b71461018b5780635ea54eee146101b4578063715018a6146101df57806374e861d6146101f65780637bb05264146102215761015b565b3661015b57600160009054906101000a900473ffffffffffffffffffffffffffffffffffffffff1673ffffffffffffffffffffffffffffffffffffffff1663aa67c91934306040518363ffffffff1660e01b81526004016101279190611110565b6000604051808303818588803b15801561014057600080fd5b505af1158015610154573d6000803e3d6000fd5b5050505050005b600080fd5b34801561016c57600080fd5b506101756103a7565b60405161018291906111fe565b60405180910390f35b34801561019757600080fd5b506101b260048036038101906101ad9190610eef565b610459565b005b3480156101c057600080fd5b506101c9610581565b6040516101d691906111e3565b60405180910390f35b3480156101eb57600080fd5b506101f46105b1565b005b34801561020257600080fd5b5061020b610706565b60405161021891906110f5565b60405180910390f35b34801561022d57600080fd5b5061024860048036038101906102439190610e19565b610730565b005b34801561025657600080fd5b50610271600480360381019061026c9190610d41565b61080a565b60405161027e9190611146565b60405180910390f35b34801561029357600080fd5b5061029c610818565b6040516102a991906110f5565b60405180910390f35b3480156102be57600080fd5b506102d960048036038101906102d49190610d18565b610841565b6040516102e6919061112b565b60405180910390f35b3480156102fb57600080fd5b5061031660048036038101906103119190610e42565b610861565b6040516103239190611161565b60405180910390f35b34801561033857600080fd5b50610353600480360381019061034e9190610d18565b61091e565b005b34801561036157600080fd5b5061037c60048036038101906103779190610d18565b610a0f565b005b34801561038a57600080fd5b506103a560048036038101906103a09190610d86565b610bd3565b005b6000600160009054906101000a900473ffffffffffffffffffffffffffffffffffffffff1673ffffffffffffffffffffffffffffffffffffffff166370a08231306040518263ffffffff1660e01b81526004016104049190611110565b60206040518083038186803b15801561041c57600080fd5b505afa158015610430573d6000803e3d6000fd5b505050506040513d601f19601f820116820180604052508101906104549190610ec6565b905090565b610461610bdb565b73ffffffffffffffffffffffffffffffffffffffff166000809054906101000a900473ffffffffffffffffffffffffffffffffffffffff1673ffffffffffffffffffffffffffffffffffffffff16146104ef576040517f08c379a00000000000000000000000000000000000000000000000000000000081526004016104e6906111a3565b60405180910390fd5b600160009054906101000a900473ffffffffffffffffffffffffffffffffffffffff1673ffffffffffffffffffffffffffffffffffffffff1662f714ce83836040518363ffffffff1660e01b815260040161054b929190611219565b600060405180830381600087803b15801561056557600080fd5b505af1158015610579573d6000803e3d6000fd5b505050505050565b610589610be3565b604051806060016040528061c3508152602001620186a081526020016201adb0815250905090565b6105b9610bdb565b73ffffffffffffffffffffffffffffffffffffffff166000809054906101000a900473ffffffffffffffffffffffffffffffffffffffff1673ffffffffffffffffffffffffffffffffffffffff1614610647576040517f08c379a000000000000000000000000000000000000000000000000000000000815260040161063e906111a3565b60405180910390fd5b600073ffffffffffffffffffffffffffffffffffffffff166000809054906101000a900473ffffffffffffffffffffffffffffffffffffffff1673ffffffffffffffffffffffffffffffffffffffff167f8be0079c531659141344cd1fd0a4f28419497f9722a3daafe3b4186f6b6457e060405160405180910390a360008060006101000a81548173ffffffffffffffffffffffffffffffffffffffff021916908373ffffffffffffffffffffffffffffffffffffffff160217905550565b6000600160009054906101000a900473ffffffffffffffffffffffffffffffffffffffff16905090565b610738610bdb565b73ffffffffffffffffffffffffffffffffffffffff166000809054906101000a900473ffffffffffffffffffffffffffffffffffffffff1673ffffffffffffffffffffffffffffffffffffffff16146107c6576040517f08c379a00000000000000000000000000000000000000000000000000000000081526004016107bd906111a3565b60405180910390fd5b80600160006101000a81548173ffffffffffffffffffffffffffffffffffffffff021916908373ffffffffffffffffffffffffffffffffffffffff16021790555050565b60008060001b905092915050565b60008060009054906101000a900473ffffffffffffffffffffffffffffffffffffffff16905090565b60026020528060005260406000206000915054906101000a900460ff1681565b6060600260008660c001600001602081019061087d9190610d18565b73ffffffffffffffffffffffffffffffffffffffff1673ffffffffffffffffffffffffffffffffffffffff16815260200190815260200160002060009054906101000a900460ff16610904576040517f08c379a00000000000000000000000000000000000000000000000000000000081526004016108fb906111c3565b60405180910390fd5b604051806020016040528060008152509050949350505050565b610926610bdb565b73ffffffffffffffffffffffffffffffffffffffff166000809054906101000a900473ffffffffffffffffffffffffffffffffffffffff1673ffffffffffffffffffffffffffffffffffffffff16146109b4576040517f08c379a00000000000000000000000000000000000000000000000000000000081526004016109ab906111a3565b60405180910390fd5b6001600260008373ffffffffffffffffffffffffffffffffffffffff1673ffffffffffffffffffffffffffffffffffffffff16815260200190815260200160002060006101000a81548160ff02191690831515021790555050565b610a17610bdb565b73ffffffffffffffffffffffffffffffffffffffff166000809054906101000a900473ffffffffffffffffffffffffffffffffffffffff1673ffffffffffffffffffffffffffffffffffffffff1614610aa5576040517f08c379a0000000000000000000000000000000000000000000000000000000008152600401610a9c906111a3565b60405180910390fd5b600073ffffffffffffffffffffffffffffffffffffffff168173ffffffffffffffffffffffffffffffffffffffff161415610b15576040517f08c379a0000000000000000000000000000000000000000000000000000000008152600401610b0c90611183565b60405180910390fd5b8073ffffffffffffffffffffffffffffffffffffffff166000809054906101000a900473ffffffffffffffffffffffffffffffffffffffff1673ffffffffffffffffffffffffffffffffffffffff167f8be0079c531659141344cd1fd0a4f28419497f9722a3daafe3b4186f6b6457e060405160405180910390a3806000806101000a81548173ffffffffffffffffffffffffffffffffffffffff021916908373ffffffffffffffffffffffffffffffffffffffff16021790555050565b505050505050565b600033905090565b60405180606001604052806000815260200160008152602001600081525090565b600081359050610c138161135f565b92915050565b600081359050610c2881611376565b92915050565b600081359050610c3d8161138d565b92915050565b600081359050610c52816113a4565b92915050565b60008083601f840112610c6a57600080fd5b8235905067ffffffffffffffff811115610c8357600080fd5b602083019150836001820283011115610c9b57600080fd5b9250929050565b600081359050610cb1816113bb565b92915050565b600060808284031215610cc957600080fd5b81905092915050565b60006101408284031215610ce557600080fd5b81905092915050565b600081359050610cfd816113d2565b92915050565b600081519050610d12816113d2565b92915050565b600060208284031215610d2a57600080fd5b6000610d3884828501610c04565b91505092915050565b60008060208385031215610d5457600080fd5b600083013567ffffffffffffffff811115610d6e57600080fd5b610d7a85828601610c58565b92509250509250929050565b6000806000806000806101008789031215610da057600080fd5b600087013567ffffffffffffffff811115610dba57600080fd5b610dc689828a01610c58565b96509650506020610dd989828a01610c2e565b9450506040610dea89828a01610c43565b9350506060610dfb89828a01610cee565b9250506080610e0c89828a01610cb7565b9150509295509295509295565b600060208284031215610e2b57600080fd5b6000610e3984828501610ca2565b91505092915050565b60008060008060608587031215610e5857600080fd5b600085013567ffffffffffffffff811115610e7257600080fd5b610e7e87828801610cd2565b945050602085013567ffffffffffffffff811115610e9b57600080fd5b610ea787828801610c58565b93509350506040610eba87828801610cee565b91505092959194509250565b600060208284031215610ed857600080fd5b6000610ee684828501610d03565b91505092915050565b60008060408385031215610f0257600080fd5b6000610f1085828601610cee565b9250506020610f2185828601610c19565b9150509250929050565b610f34816112e5565b82525050565b610f4381611281565b82525050565b610f528161126f565b82525050565b610f6181611293565b82525050565b610f708161129f565b82525050565b6000610f8182611242565b610f8b818561124d565b9350610f9b81856020860161131b565b610fa48161134e565b840191505092915050565b6000610fbc60268361125e565b91507f4f776e61626c653a206e6577206f776e657220697320746865207a65726f206160008301527f64647265737300000000000000000000000000000000000000000000000000006020830152604082019050919050565b600061102260208361125e565b91507f4f776e61626c653a2063616c6c6572206973206e6f7420746865206f776e65726000830152602082019050919050565b6000611062600f8361125e565b91507f6e6f742077686974656c697374656400000000000000000000000000000000006000830152602082019050919050565b6060820160008201516110ab60008501826110d7565b5060208201516110be60208501826110d7565b5060408201516110d160408501826110d7565b50505050565b6110e0816112db565b82525050565b6110ef816112db565b82525050565b600060208201905061110a6000830184610f49565b92915050565b60006020820190506111256000830184610f2b565b92915050565b60006020820190506111406000830184610f58565b92915050565b600060208201905061115b6000830184610f67565b92915050565b6000602082019050818103600083015261117b8184610f76565b905092915050565b6000602082019050818103600083015261119c81610faf565b9050919050565b600060208201905081810360008301526111bc81611015565b9050919050565b600060208201905081810360008301526111dc81611055565b9050919050565b60006060820190506111f86000830184611095565b92915050565b600060208201905061121360008301846110e6565b92915050565b600060408201905061122e60008301856110e6565b61123b6020830184610f3a565b9392505050565b600081519050919050565b600082825260208201905092915050565b600082825260208201905092915050565b600061127a826112bb565b9050919050565b600061128c826112bb565b9050919050565b60008115159050919050565b6000819050919050565b60006112b48261126f565b9050919050565b600073ffffffffffffffffffffffffffffffffffffffff82169050919050565b6000819050919050565b60006112f0826112f7565b9050919050565b600061130282611309565b9050919050565b6000611314826112bb565b9050919050565b60005b8381101561133957808201518184015260208101905061131e565b83811115611348576000848401525b50505050565b6000601f19601f8301169050919050565b6113688161126f565b811461137357600080fd5b50565b61137f81611281565b811461138a57600080fd5b50565b61139681611293565b81146113a157600080fd5b50565b6113ad8161129f565b81146113b857600080fd5b50565b6113c4816112a9565b81146113cf57600080fd5b50565b6113db816112db565b81146113e657600080fd5b5056fea2646970667358221220657057ea1e08be7058c0b0b356d7e855deb1185b62702b5b2044a921ae951d6964736f6c63430006080033",
  "immutableReferences": {},
  "source": "/// SPDX-License-Identifier: GPL-3.0\npragma solidity 0.6.8;\npragma experimental ABIEncoderV2;\n\n/// @title Non-transferable Badges for Maker Ecosystem Activity, issue #537\n/// @author Nazzareno Massari, Scott Herren\n/// @notice BadgePaymaster pays for user's meta-transactions\n/// @dev see https://github.com/makerdao/community/issues/537\n/// @dev All function calls are currently implemented without side effecs through TDD approach\n/// @dev OpenZeppelin v3.0 library is used for secure contract development\n\nimport \"@opengsn/gsn/contracts/BasePaymaster.sol\";\n\ncontract BadgePaymaster is BasePaymaster {\n\nconstructor() public {\n}\n\n/// Functions\n\nmapping(address => bool) public whitelist;\n\nfunction addToWhitelist(address _address) onlyOwner external {\n    whitelist[_address] = true;\n}\n\nfunction acceptRelayedCall(\n    GSNTypes.RelayRequest calldata relayRequest,\n    bytes calldata,\n    uint256\n)\noverride\nexternal\nview\nreturns (bytes memory){\n    require(whitelist[relayRequest.relayData.senderAddress], \"not whitelisted\");\n    return \"\";\n}\n\nfunction preRelayedCall(bytes calldata) override external returns (bytes32){\n    return 0;\n}\n\nfunction postRelayedCall(\n    bytes calldata,\n    bool,\n    bytes32,\n    uint256,\n    GSNTypes.GasData calldata\n)\noverride\nexternal {\n\n}\n\n}\n",
  "sourcePath": "/home/sencha/insigniadao/contracts/BadgePaymaster.sol",
  "compiler": {
    "name": "solc",
    "version": "0.6.8+commit.0bbfe453.Emscripten.clang"
  },
  "schemaVersion": "3.1.0",
  "updatedAt": "2020-05-24T16:13:08.869Z",
  "networkType": "ethereum",
  "devdoc": {
    "methods": {
      "owner()": {
        "details": "Returns the address of the current owner."
      },
      "renounceOwnership()": {
        "details": "Leaves the contract without owner. It will not be possible to call `onlyOwner` functions anymore. Can only be called by the current owner.     * NOTE: Renouncing ownership will leave the contract without an owner, thereby removing any functionality that is only available to the owner."
      },
      "transferOwnership(address)": {
        "details": "Transfers ownership of the contract to a new account (`newOwner`). Can only be called by the current owner."
      }
    }
  },
  "userdoc": {
    "methods": {
      "getRelayHubDeposit()": {
        "notice": "check current deposit on relay hub."
      },
      "withdrawRelayHubDepositTo(uint256,address)": {
        "notice": "withdraw deposit from relayHub"
      }
    }
  }
}