{
  "contractName": "BadgeRoles",
  "abi": [
    {
      "inputs": [],
      "stateMutability": "nonpayable",
      "type": "constructor"
    },
    {
      "anonymous": false,
      "inputs": [
        {
          "indexed": true,
          "internalType": "address",
          "name": "previousOwner",
          "type": "address"
        },
        {
          "indexed": true,
          "internalType": "address",
          "name": "newOwner",
          "type": "address"
        }
      ],
      "name": "OwnershipTransferred",
      "type": "event"
    },
    {
      "anonymous": false,
      "inputs": [
        {
          "indexed": false,
          "internalType": "address",
          "name": "account",
          "type": "address"
        }
      ],
      "name": "Paused",
      "type": "event"
    },
    {
      "anonymous": false,
      "inputs": [
        {
          "indexed": true,
          "internalType": "bytes32",
          "name": "role",
          "type": "bytes32"
        },
        {
          "indexed": true,
          "internalType": "address",
          "name": "account",
          "type": "address"
        },
        {
          "indexed": true,
          "internalType": "address",
          "name": "sender",
          "type": "address"
        }
      ],
      "name": "RoleGranted",
      "type": "event"
    },
    {
      "anonymous": false,
      "inputs": [
        {
          "indexed": true,
          "internalType": "bytes32",
          "name": "role",
          "type": "bytes32"
        },
        {
          "indexed": true,
          "internalType": "address",
          "name": "account",
          "type": "address"
        },
        {
          "indexed": true,
          "internalType": "address",
          "name": "sender",
          "type": "address"
        }
      ],
      "name": "RoleRevoked",
      "type": "event"
    },
    {
      "anonymous": false,
      "inputs": [
        {
          "indexed": false,
          "internalType": "address",
          "name": "account",
          "type": "address"
        }
      ],
      "name": "Unpaused",
      "type": "event"
    },
    {
      "inputs": [],
      "name": "DEFAULT_ADMIN_ROLE",
      "outputs": [
        {
          "internalType": "bytes32",
          "name": "",
          "type": "bytes32"
        }
      ],
      "stateMutability": "view",
      "type": "function"
    },
    {
      "inputs": [],
      "name": "PAUSER_ROLE",
      "outputs": [
        {
          "internalType": "bytes32",
          "name": "",
          "type": "bytes32"
        }
      ],
      "stateMutability": "view",
      "type": "function"
    },
    {
      "inputs": [],
      "name": "TEMPLATER_ROLE",
      "outputs": [
        {
          "internalType": "bytes32",
          "name": "",
          "type": "bytes32"
        }
      ],
      "stateMutability": "view",
      "type": "function"
    },
    {
      "inputs": [
        {
          "internalType": "bytes32",
          "name": "role",
          "type": "bytes32"
        }
      ],
      "name": "getRoleAdmin",
      "outputs": [
        {
          "internalType": "bytes32",
          "name": "",
          "type": "bytes32"
        }
      ],
      "stateMutability": "view",
      "type": "function"
    },
    {
      "inputs": [
        {
          "internalType": "bytes32",
          "name": "role",
          "type": "bytes32"
        },
        {
          "internalType": "uint256",
          "name": "index",
          "type": "uint256"
        }
      ],
      "name": "getRoleMember",
      "outputs": [
        {
          "internalType": "address",
          "name": "",
          "type": "address"
        }
      ],
      "stateMutability": "view",
      "type": "function"
    },
    {
      "inputs": [
        {
          "internalType": "bytes32",
          "name": "role",
          "type": "bytes32"
        }
      ],
      "name": "getRoleMemberCount",
      "outputs": [
        {
          "internalType": "uint256",
          "name": "",
          "type": "uint256"
        }
      ],
      "stateMutability": "view",
      "type": "function"
    },
    {
      "inputs": [
        {
          "internalType": "bytes32",
          "name": "role",
          "type": "bytes32"
        },
        {
          "internalType": "address",
          "name": "account",
          "type": "address"
        }
      ],
      "name": "grantRole",
      "outputs": [],
      "stateMutability": "nonpayable",
      "type": "function"
    },
    {
      "inputs": [
        {
          "internalType": "bytes32",
          "name": "role",
          "type": "bytes32"
        },
        {
          "internalType": "address",
          "name": "account",
          "type": "address"
        }
      ],
      "name": "hasRole",
      "outputs": [
        {
          "internalType": "bool",
          "name": "",
          "type": "bool"
        }
      ],
      "stateMutability": "view",
      "type": "function"
    },
    {
      "inputs": [],
      "name": "owner",
      "outputs": [
        {
          "internalType": "address",
          "name": "",
          "type": "address"
        }
      ],
      "stateMutability": "view",
      "type": "function"
    },
    {
      "inputs": [],
      "name": "paused",
      "outputs": [
        {
          "internalType": "bool",
          "name": "",
          "type": "bool"
        }
      ],
      "stateMutability": "view",
      "type": "function"
    },
    {
      "inputs": [],
      "name": "renounceOwnership",
      "outputs": [],
      "stateMutability": "nonpayable",
      "type": "function"
    },
    {
      "inputs": [
        {
          "internalType": "bytes32",
          "name": "role",
          "type": "bytes32"
        },
        {
          "internalType": "address",
          "name": "account",
          "type": "address"
        }
      ],
      "name": "renounceRole",
      "outputs": [],
      "stateMutability": "nonpayable",
      "type": "function"
    },
    {
      "inputs": [
        {
          "internalType": "bytes32",
          "name": "role",
          "type": "bytes32"
        },
        {
          "internalType": "address",
          "name": "account",
          "type": "address"
        }
      ],
      "name": "revokeRole",
      "outputs": [],
      "stateMutability": "nonpayable",
      "type": "function"
    },
    {
      "inputs": [
        {
          "internalType": "address",
          "name": "newOwner",
          "type": "address"
        }
      ],
      "name": "transferOwnership",
      "outputs": [],
      "stateMutability": "nonpayable",
      "type": "function"
    },
    {
      "inputs": [
        {
          "internalType": "address",
          "name": "guy",
          "type": "address"
        }
      ],
      "name": "isAdmin",
      "outputs": [
        {
          "internalType": "bool",
          "name": "",
          "type": "bool"
        }
      ],
      "stateMutability": "view",
      "type": "function"
    },
    {
      "inputs": [
        {
          "internalType": "address",
          "name": "guy",
          "type": "address"
        }
      ],
      "name": "isTemplater",
      "outputs": [
        {
          "internalType": "bool",
          "name": "",
          "type": "bool"
        }
      ],
      "stateMutability": "view",
      "type": "function"
    },
    {
      "inputs": [
        {
          "internalType": "address",
          "name": "guy",
          "type": "address"
        }
      ],
      "name": "addTemplater",
      "outputs": [
        {
          "internalType": "bool",
          "name": "",
          "type": "bool"
        }
      ],
      "stateMutability": "nonpayable",
      "type": "function"
    },
    {
      "inputs": [
        {
          "internalType": "address",
          "name": "guy",
          "type": "address"
        }
      ],
      "name": "removeTemplater",
      "outputs": [
        {
          "internalType": "bool",
          "name": "",
          "type": "bool"
        }
      ],
      "stateMutability": "nonpayable",
      "type": "function"
    },
    {
      "inputs": [],
      "name": "pause",
      "outputs": [],
      "stateMutability": "nonpayable",
      "type": "function"
    },
    {
      "inputs": [],
      "name": "unpause",
      "outputs": [],
      "stateMutability": "nonpayable",
      "type": "function"
    }
  ],
  "bytecode": "0x60806040523480156200001157600080fd5b50600062000024620001b360201b60201c565b9050806000806101000a81548173ffffffffffffffffffffffffffffffffffffffff021916908373ffffffffffffffffffffffffffffffffffffffff1602179055508073ffffffffffffffffffffffffffffffffffffffff16600073ffffffffffffffffffffffffffffffffffffffff167f8be0079c531659141344cd1fd0a4f28419497f9722a3daafe3b4186f6b6457e060405160405180910390a3506000600260006101000a81548160ff021916908315150217905550620001016000801b620000f5620001bb60201b60201c565b620001e460201b60201c565b6200015760405180807f54454d504c415445525f524f4c45000000000000000000000000000000000000815250600e01905060405180910390206200014b620001bb60201b60201c565b620001e460201b60201c565b620001ad60405180807f5041555345525f524f4c45000000000000000000000000000000000000000000815250600b0190506040518091039020620001a1620001bb60201b60201c565b620001e460201b60201c565b62000373565b600033905090565b60008060009054906101000a900473ffffffffffffffffffffffffffffffffffffffff16905090565b620001f68282620001fa60201b60201c565b5050565b6200022981600160008581526020019081526020016000206000016200029e60201b620010d61790919060201c565b156200029a576200023f620001b360201b60201c565b73ffffffffffffffffffffffffffffffffffffffff168173ffffffffffffffffffffffffffffffffffffffff16837f2f8788117e7eff1d82e926ec794901d17c78024a50270940304540a733656f0d60405160405180910390a45b5050565b6000620002ce836000018373ffffffffffffffffffffffffffffffffffffffff1660001b620002d660201b60201c565b905092915050565b6000620002ea83836200035060201b60201c565b620003455782600001829080600181540180825580915050600190039060005260206000200160009091909190915055826000018054905083600101600084815260200190815260200160002081905550600190506200034a565b600090505b92915050565b600080836001016000848152602001908152602001600020541415905092915050565b61184d80620003836000396000f3fe608060405234801561001057600080fd5b506004361061012c5760003560e01c80638da5cb5b116100ad578063cc11dd4e11610071578063cc11dd4e146104ad578063d547741f14610509578063e63ab1e914610557578063e6c0d71414610575578063f2fde38b146105d15761012c565b80638da5cb5b146103255780639010d07c1461036f57806391d14854146103e7578063a217fddf1461044d578063ca15c8731461046b5761012c565b80634ba360ba116100f45780634ba360ba146102755780635c975abb146102d15780636cdd0a16146102f3578063715018a6146103115780638456cb591461031b5761012c565b8063248a9ca31461013157806324d7806c146101735780632f2ff15d146101cf57806336568abe1461021d5780633f4ba83a1461026b575b600080fd5b61015d6004803603602081101561014757600080fd5b8101908080359060200190929190505050610615565b6040518082815260200191505060405180910390f35b6101b56004803603602081101561018957600080fd5b81019080803573ffffffffffffffffffffffffffffffffffffffff169060200190929190505050610635565b604051808215151515815260200191505060405180910390f35b61021b600480360360408110156101e557600080fd5b8101908080359060200190929190803573ffffffffffffffffffffffffffffffffffffffff16906020019092919050505061064b565b005b6102696004803603604081101561023357600080fd5b8101908080359060200190929190803573ffffffffffffffffffffffffffffffffffffffff1690602001909291905050506106d5565b005b61027361076e565b005b6102b76004803603602081101561028b57600080fd5b81019080803573ffffffffffffffffffffffffffffffffffffffff16906020019092919050505061080c565b604051808215151515815260200191505060405180910390f35b6102d961094c565b604051808215151515815260200191505060405180910390f35b6102fb610963565b6040518082815260200191505060405180910390f35b61031961099c565b005b610323610b24565b005b61032d610bc2565b604051808273ffffffffffffffffffffffffffffffffffffffff1673ffffffffffffffffffffffffffffffffffffffff16815260200191505060405180910390f35b6103a56004803603604081101561038557600080fd5b810190808035906020019092919080359060200190929190505050610beb565b604051808273ffffffffffffffffffffffffffffffffffffffff1673ffffffffffffffffffffffffffffffffffffffff16815260200191505060405180910390f35b610433600480360360408110156103fd57600080fd5b8101908080359060200190929190803573ffffffffffffffffffffffffffffffffffffffff169060200190929190505050610c1d565b604051808215151515815260200191505060405180910390f35b610455610c4f565b6040518082815260200191505060405180910390f35b6104976004803603602081101561048157600080fd5b8101908080359060200190929190505050610c56565b6040518082815260200191505060405180910390f35b6104ef600480360360208110156104c357600080fd5b81019080803573ffffffffffffffffffffffffffffffffffffffff169060200190929190505050610c7d565b604051808215151515815260200191505060405180910390f35b6105556004803603604081101561051f57600080fd5b8101908080359060200190929190803573ffffffffffffffffffffffffffffffffffffffff169060200190929190505050610cc5565b005b61055f610d4f565b6040518082815260200191505060405180910390f35b6105b76004803603602081101561058b57600080fd5b81019080803573ffffffffffffffffffffffffffffffffffffffff169060200190929190505050610d88565b604051808215151515815260200191505060405180910390f35b610613600480360360208110156105e757600080fd5b81019080803573ffffffffffffffffffffffffffffffffffffffff169060200190929190505050610ec9565b005b600060016000838152602001908152602001600020600201549050919050565b60006106446000801b83610c1d565b9050919050565b610672600160008481526020019081526020016000206002015461066d611106565b610c1d565b6106c7576040517f08c379a000000000000000000000000000000000000000000000000000000000815260040180806020018281038252602f81526020018061170a602f913960400191505060405180910390fd5b6106d1828261110e565b5050565b6106dd611106565b73ffffffffffffffffffffffffffffffffffffffff168173ffffffffffffffffffffffffffffffffffffffff1614610760576040517f08c379a000000000000000000000000000000000000000000000000000000000815260040180806020018281038252602f8152602001806117e9602f913960400191505060405180910390fd5b61076a82826111a2565b5050565b6107ad60405180807f5041555345525f524f4c45000000000000000000000000000000000000000000815250600b019050604051809103902033610c1d565b610802576040517f08c379a000000000000000000000000000000000000000000000000000000000815260040180806020018281038252602e815260200180611739602e913960400191505060405180910390fd5b61080a611236565b565b600061081733610635565b610889576040517f08c379a00000000000000000000000000000000000000000000000000000000081526004018080602001828103825260168152602001807f43616c6c6572206973206e6f7420616e2061646d696e0000000000000000000081525060200191505060405180910390fd5b61089282610c7d565b610904576040517f08c379a00000000000000000000000000000000000000000000000000000000081526004018080602001828103825260168152602001807f677579206973206e6f7420612074656d706c617465720000000000000000000081525060200191505060405180910390fd5b61094360405180807f54454d504c415445525f524f4c45000000000000000000000000000000000000815250600e019050604051809103902083610cc5565b60019050919050565b6000600260009054906101000a900460ff16905090565b60405180807f54454d504c415445525f524f4c45000000000000000000000000000000000000815250600e019050604051809103902081565b6109a4611106565b73ffffffffffffffffffffffffffffffffffffffff166000809054906101000a900473ffffffffffffffffffffffffffffffffffffffff1673ffffffffffffffffffffffffffffffffffffffff1614610a65576040517f08c379a00000000000000000000000000000000000000000000000000000000081526004018080602001828103825260208152602001807f4f776e61626c653a2063616c6c6572206973206e6f7420746865206f776e657281525060200191505060405180910390fd5b600073ffffffffffffffffffffffffffffffffffffffff166000809054906101000a900473ffffffffffffffffffffffffffffffffffffffff1673ffffffffffffffffffffffffffffffffffffffff167f8be0079c531659141344cd1fd0a4f28419497f9722a3daafe3b4186f6b6457e060405160405180910390a360008060006101000a81548173ffffffffffffffffffffffffffffffffffffffff021916908373ffffffffffffffffffffffffffffffffffffffff160217905550565b610b6360405180807f5041555345525f524f4c45000000000000000000000000000000000000000000815250600b019050604051809103902033610c1d565b610bb8576040517f08c379a000000000000000000000000000000000000000000000000000000000815260040180806020018281038252602c8152602001806117bd602c913960400191505060405180910390fd5b610bc061133f565b565b60008060009054906101000a900473ffffffffffffffffffffffffffffffffffffffff16905090565b6000610c15826001600086815260200190815260200160002060000161144990919063ffffffff16565b905092915050565b6000610c47826001600086815260200190815260200160002060000161146390919063ffffffff16565b905092915050565b6000801b81565b6000610c7660016000848152602001908152602001600020600001611493565b9050919050565b6000610cbe60405180807f54454d504c415445525f524f4c45000000000000000000000000000000000000815250600e019050604051809103902083610c1d565b9050919050565b610cec6001600084815260200190815260200160002060020154610ce7611106565b610c1d565b610d41576040517f08c379a000000000000000000000000000000000000000000000000000000000815260040180806020018281038252603081526020018061178d6030913960400191505060405180910390fd5b610d4b82826111a2565b5050565b60405180807f5041555345525f524f4c45000000000000000000000000000000000000000000815250600b019050604051809103902081565b6000610d9333610635565b610e05576040517f08c379a00000000000000000000000000000000000000000000000000000000081526004018080602001828103825260168152602001807f43616c6c6572206973206e6f7420616e2061646d696e0000000000000000000081525060200191505060405180910390fd5b610e0e82610c7d565b15610e81576040517f08c379a000000000000000000000000000000000000000000000000000000000815260040180806020018281038252601a8152602001807f67757920697320616c726561647920612074656d706c6174657200000000000081525060200191505060405180910390fd5b610ec060405180807f54454d504c415445525f524f4c45000000000000000000000000000000000000815250600e01905060405180910390208361064b565b60019050919050565b610ed1611106565b73ffffffffffffffffffffffffffffffffffffffff166000809054906101000a900473ffffffffffffffffffffffffffffffffffffffff1673ffffffffffffffffffffffffffffffffffffffff1614610f92576040517f08c379a00000000000000000000000000000000000000000000000000000000081526004018080602001828103825260208152602001807f4f776e61626c653a2063616c6c6572206973206e6f7420746865206f776e657281525060200191505060405180910390fd5b600073ffffffffffffffffffffffffffffffffffffffff168173ffffffffffffffffffffffffffffffffffffffff161415611018576040517f08c379a00000000000000000000000000000000000000000000000000000000081526004018080602001828103825260268152602001806117676026913960400191505060405180910390fd5b8073ffffffffffffffffffffffffffffffffffffffff166000809054906101000a900473ffffffffffffffffffffffffffffffffffffffff1673ffffffffffffffffffffffffffffffffffffffff167f8be0079c531659141344cd1fd0a4f28419497f9722a3daafe3b4186f6b6457e060405160405180910390a3806000806101000a81548173ffffffffffffffffffffffffffffffffffffffff021916908373ffffffffffffffffffffffffffffffffffffffff16021790555050565b60006110fe836000018373ffffffffffffffffffffffffffffffffffffffff1660001b6114a8565b905092915050565b600033905090565b61113681600160008581526020019081526020016000206000016110d690919063ffffffff16565b1561119e57611143611106565b73ffffffffffffffffffffffffffffffffffffffff168173ffffffffffffffffffffffffffffffffffffffff16837f2f8788117e7eff1d82e926ec794901d17c78024a50270940304540a733656f0d60405160405180910390a45b5050565b6111ca816001600085815260200190815260200160002060000161151890919063ffffffff16565b15611232576111d7611106565b73ffffffffffffffffffffffffffffffffffffffff168173ffffffffffffffffffffffffffffffffffffffff16837ff6391f5c32d9c69d2a47ea670b442974b53935d1edc7fd64eb21e047a839171b60405160405180910390a45b5050565b600260009054906101000a900460ff166112b8576040517f08c379a00000000000000000000000000000000000000000000000000000000081526004018080602001828103825260148152602001807f5061757361626c653a206e6f742070617573656400000000000000000000000081525060200191505060405180910390fd5b6000600260006101000a81548160ff0219169083151502179055507f5db9ee0a495bf2e6ff9c91a7834c1ba4fdd244a5e8aa4e537bd38aeae4b073aa6112fc611106565b604051808273ffffffffffffffffffffffffffffffffffffffff1673ffffffffffffffffffffffffffffffffffffffff16815260200191505060405180910390a1565b600260009054906101000a900460ff16156113c2576040517f08c379a00000000000000000000000000000000000000000000000000000000081526004018080602001828103825260108152602001807f5061757361626c653a207061757365640000000000000000000000000000000081525060200191505060405180910390fd5b6001600260006101000a81548160ff0219169083151502179055507f62e78cea01bee320cd4e420270b5ea74000d11b0c9f74754ebdbfc544b05a258611406611106565b604051808273ffffffffffffffffffffffffffffffffffffffff1673ffffffffffffffffffffffffffffffffffffffff16815260200191505060405180910390a1565b60006114588360000183611548565b60001c905092915050565b600061148b836000018373ffffffffffffffffffffffffffffffffffffffff1660001b6115cb565b905092915050565b60006114a1826000016115ee565b9050919050565b60006114b483836115cb565b61150d578260000182908060018154018082558091505060019003906000526020600020016000909190919091505582600001805490508360010160008481526020019081526020016000208190555060019050611512565b600090505b92915050565b6000611540836000018373ffffffffffffffffffffffffffffffffffffffff1660001b6115ff565b905092915050565b6000818360000180549050116115a9576040517f08c379a00000000000000000000000000000000000000000000000000000000081526004018080602001828103825260228152602001806116e86022913960400191505060405180910390fd5b8260000182815481106115b857fe5b9060005260206000200154905092915050565b600080836001016000848152602001908152602001600020541415905092915050565b600081600001805490509050919050565b600080836001016000848152602001908152602001600020549050600081146116db576000600182039050600060018660000180549050039050600086600001828154811061164a57fe5b906000526020600020015490508087600001848154811061166757fe5b906000526020600020018190555060018301876001016000838152602001908152602001600020819055508660000180548061169f57fe5b600190038181906000526020600020016000905590558660010160008781526020019081526020016000206000905560019450505050506116e1565b60009150505b9291505056fe456e756d657261626c655365743a20696e646578206f7574206f6620626f756e6473416363657373436f6e74726f6c3a2073656e646572206d75737420626520616e2061646d696e20746f206772616e744261646765466163746f72793a206d75737420686176652070617573657220726f6c6520746f20756e70617573654f776e61626c653a206e6577206f776e657220697320746865207a65726f2061646472657373416363657373436f6e74726f6c3a2073656e646572206d75737420626520616e2061646d696e20746f207265766f6b654261646765466163746f72793a206d75737420686176652070617573657220726f6c6520746f207061757365416363657373436f6e74726f6c3a2063616e206f6e6c792072656e6f756e636520726f6c657320666f722073656c66a26469706673582212206b0bbe3255060d3e93884bebc08ec7ed13d6cfaf2d3d4657c1e96d69839ba16d64736f6c63430006090033",
  "immutableReferences": {},
  "source": "/// SPDX-License-Identifier: GPL-3.0\npragma solidity 0.6.9;\n\n/// @title Non-transferable Badges for Maker Ecosystem Activity, issue #537\n/// @author Nazzareno Massari\n/// @notice BadgeRoles Access Management for Default Admin, Templater and Pauser Role\n/// @dev see https://github.com/makerdao/community/issues/537\n/// @dev All function calls are currently implemented without side effecs through TDD approach\n/// @dev OpenZeppelin v3.0 library is used for secure contract development\n\nimport \"@openzeppelin/contracts/access/Ownable.sol\";\nimport \"@openzeppelin/contracts/access/AccessControl.sol\";\nimport \"@openzeppelin/contracts/utils/Pausable.sol\";\n\n\ncontract BadgeRoles is Ownable, AccessControl, Pausable {\n\n  /// @dev Roles\n  bytes32 public constant TEMPLATER_ROLE = keccak256(\"TEMPLATER_ROLE\");\n  bytes32 public constant PAUSER_ROLE = keccak256(\"PAUSER_ROLE\");\n\n  constructor() public {\n        _setupRole(DEFAULT_ADMIN_ROLE, owner());\n\n        _setupRole(TEMPLATER_ROLE, owner());\n        _setupRole(PAUSER_ROLE, owner());\n\n  }\n\n  /// @dev Modifiers\n  modifier onlyAdmin() {\n      require(isAdmin(msg.sender), \"Caller is not an admin\");\n      _;\n    }\n\n  modifier onlyTemplater() {\n      require(isTemplater(msg.sender), \"Caller is not a template owner\");\n      _;\n    }\n\n  /// @dev Functions\n\n  /// @notice Check if guy is an Admin\n  /// @dev Used in onlyAdmin() modifier\n  /// @param guy Address to check\n  /// @return True If the guy is an Admin\n  function isAdmin(address guy) public view returns (bool) {\n    return hasRole(DEFAULT_ADMIN_ROLE, guy);\n  }\n\n  /// @notice Check if guy is a Templater\n  /// @dev Used in onlyTemplater() modifier\n  /// @param guy Address to check\n  /// @return True If the guy is a Templater\n  function isTemplater(address guy) public view returns (bool) {\n    return hasRole(TEMPLATER_ROLE, guy);\n  }\n\n  /// @notice Add a new Templater\n  /// @dev Access restricted only for Admins\n  /// @param guy Address of the new Templater\n  /// @return True if the guy address is added as Templater\n  function addTemplater(address guy) external onlyAdmin returns (bool) {\n    require(!isTemplater(guy), \"guy is already a templater\");\n    grantRole(TEMPLATER_ROLE, guy);\n    return true;\n  }\n\n  /// @notice Remove a Templater\n  /// @dev Access restricted only for Admins\n  /// @param guy Address of the Templater\n  /// @return True if the guy address is removed as Templater\n  function removeTemplater(address guy) external onlyAdmin returns (bool) {\n    require(isTemplater(guy), \"guy is not a templater\");\n    revokeRole(TEMPLATER_ROLE, guy);\n    return true;\n  }\n  /// @notice Pause all the functions\n  /// @dev the caller must have the 'PAUSER_ROLE'\n  function pause() external {\n    require(hasRole(PAUSER_ROLE, msg.sender), \"BadgeFactory: must have pauser role to pause\");\n    _pause();\n  }\n\n  /// @notice Unpause all the functions\n  /// @dev the caller must have the 'PAUSER_ROLE'\n  function unpause() external {\n        require(hasRole(PAUSER_ROLE, msg.sender), \"BadgeFactory: must have pauser role to unpause\");\n        _unpause();\n    }\n\n\n}\n",
  "sourcePath": "/home/sencha/maker-badges/contracts/BadgeRoles.sol",
  "compiler": {
    "name": "solc",
    "version": "0.6.9+commit.3e3065ac.Emscripten.clang"
  },
  "schemaVersion": "3.1.0",
  "updatedAt": "2020-06-10T16:07:00.529Z",
  "devdoc": {
    "methods": {
      "addTemplater(address)": {
        "details": "Access restricted only for Admins",
        "params": {
          "guy": "Address of the new Templater"
        },
        "returns": {
          "_0": "True if the guy address is added as Templater"
        }
      },
      "getRoleAdmin(bytes32)": {
        "details": "Returns the admin role that controls `role`. See {grantRole} and {revokeRole}. To change a role's admin, use {_setRoleAdmin}."
      },
      "getRoleMember(bytes32,uint256)": {
        "details": "Returns one of the accounts that have `role`. `index` must be a value between 0 and {getRoleMemberCount}, non-inclusive. Role bearers are not sorted in any particular way, and their ordering may change at any point. WARNING: When using {getRoleMember} and {getRoleMemberCount}, make sure you perform all queries on the same block. See the following https://forum.openzeppelin.com/t/iterating-over-elements-on-enumerableset-in-openzeppelin-contracts/2296[forum post] for more information."
      },
      "getRoleMemberCount(bytes32)": {
        "details": "Returns the number of accounts that have `role`. Can be used together with {getRoleMember} to enumerate all bearers of a role."
      },
      "grantRole(bytes32,address)": {
        "details": "Grants `role` to `account`. If `account` had not been already granted `role`, emits a {RoleGranted} event. Requirements: - the caller must have ``role``'s admin role."
      },
      "hasRole(bytes32,address)": {
        "details": "Returns `true` if `account` has been granted `role`."
      },
      "isAdmin(address)": {
        "details": "Used in onlyAdmin() modifier",
        "params": {
          "guy": "Address to check"
        },
        "returns": {
          "_0": "True If the guy is an Admin"
        }
      },
      "isTemplater(address)": {
        "details": "Used in onlyTemplater() modifier",
        "params": {
          "guy": "Address to check"
        },
        "returns": {
          "_0": "True If the guy is a Templater"
        }
      },
      "owner()": {
        "details": "Returns the address of the current owner."
      },
      "pause()": {
        "details": "the caller must have the 'PAUSER_ROLE'"
      },
      "paused()": {
        "details": "Returns true if the contract is paused, and false otherwise."
      },
      "removeTemplater(address)": {
        "details": "Access restricted only for Admins",
        "params": {
          "guy": "Address of the Templater"
        },
        "returns": {
          "_0": "True if the guy address is removed as Templater"
        }
      },
      "renounceOwnership()": {
        "details": "Leaves the contract without owner. It will not be possible to call `onlyOwner` functions anymore. Can only be called by the current owner. NOTE: Renouncing ownership will leave the contract without an owner, thereby removing any functionality that is only available to the owner."
      },
      "renounceRole(bytes32,address)": {
        "details": "Revokes `role` from the calling account. Roles are often managed via {grantRole} and {revokeRole}: this function's purpose is to provide a mechanism for accounts to lose their privileges if they are compromised (such as when a trusted device is misplaced). If the calling account had been granted `role`, emits a {RoleRevoked} event. Requirements: - the caller must be `account`."
      },
      "revokeRole(bytes32,address)": {
        "details": "Revokes `role` from `account`. If `account` had been granted `role`, emits a {RoleRevoked} event. Requirements: - the caller must have ``role``'s admin role."
      },
      "transferOwnership(address)": {
        "details": "Transfers ownership of the contract to a new account (`newOwner`). Can only be called by the current owner."
      },
      "unpause()": {
        "details": "the caller must have the 'PAUSER_ROLE'"
      }
    },
    "stateVariables": {
      "TEMPLATER_ROLE": {
        "details": "Roles"
      }
    }
  },
  "userdoc": {
    "methods": {
      "addTemplater(address)": {
        "notice": "Add a new Templater"
      },
      "isAdmin(address)": {
        "notice": "Check if guy is an Admin"
      },
      "isTemplater(address)": {
        "notice": "Check if guy is a Templater"
      },
      "pause()": {
        "notice": "Pause all the functions"
      },
      "removeTemplater(address)": {
        "notice": "Remove a Templater"
      },
      "unpause()": {
        "notice": "Unpause all the functions"
      }
    }
  }
}