{
  "contractName": "BadgeFactory",
  "abi": [
    {
      "inputs": [
        {
          "internalType": "address",
          "name": "insignia_",
          "type": "address"
        }
      ],
      "stateMutability": "nonpayable",
      "type": "constructor"
    },
    {
      "anonymous": false,
      "inputs": [
        {
          "indexed": true,
          "internalType": "address",
          "name": "owner",
          "type": "address"
        },
        {
          "indexed": true,
          "internalType": "address",
          "name": "approved",
          "type": "address"
        },
        {
          "indexed": true,
          "internalType": "uint256",
          "name": "tokenId",
          "type": "uint256"
        }
      ],
      "name": "Approval",
      "type": "event"
    },
    {
      "anonymous": false,
      "inputs": [
        {
          "indexed": true,
          "internalType": "address",
          "name": "owner",
          "type": "address"
        },
        {
          "indexed": true,
          "internalType": "address",
          "name": "operator",
          "type": "address"
        },
        {
          "indexed": false,
          "internalType": "bool",
          "name": "approved",
          "type": "bool"
        }
      ],
      "name": "ApprovalForAll",
      "type": "event"
    },
    {
      "anonymous": false,
      "inputs": [
        {
          "indexed": false,
          "internalType": "address",
          "name": "redeemer",
          "type": "address"
        },
        {
          "indexed": false,
          "internalType": "uint256",
          "name": "templateId",
          "type": "uint256"
        },
        {
          "indexed": false,
          "internalType": "string",
          "name": "tokenURI",
          "type": "string"
        }
      ],
      "name": "BadgeActivated",
      "type": "event"
    },
    {
      "anonymous": false,
      "inputs": [
        {
          "indexed": false,
          "internalType": "uint256",
          "name": "templateId",
          "type": "uint256"
        },
        {
          "indexed": false,
          "internalType": "string",
          "name": "name",
          "type": "string"
        },
        {
          "indexed": false,
          "internalType": "string",
          "name": "description",
          "type": "string"
        },
        {
          "indexed": false,
          "internalType": "string",
          "name": "image",
          "type": "string"
        }
      ],
      "name": "NewTemplate",
      "type": "event"
    },
    {
      "anonymous": false,
      "inputs": [
        {
          "indexed": true,
          "internalType": "address",
          "name": "previousOwner",
          "type": "address"
        },
        {
          "indexed": true,
          "internalType": "address",
          "name": "newOwner",
          "type": "address"
        }
      ],
      "name": "OwnershipTransferred",
      "type": "event"
    },
    {
      "anonymous": false,
      "inputs": [
        {
          "indexed": false,
          "internalType": "address",
          "name": "account",
          "type": "address"
        }
      ],
      "name": "Paused",
      "type": "event"
    },
    {
      "anonymous": false,
      "inputs": [
        {
          "indexed": true,
          "internalType": "bytes32",
          "name": "role",
          "type": "bytes32"
        },
        {
          "indexed": true,
          "internalType": "address",
          "name": "account",
          "type": "address"
        },
        {
          "indexed": true,
          "internalType": "address",
          "name": "sender",
          "type": "address"
        }
      ],
      "name": "RoleGranted",
      "type": "event"
    },
    {
      "anonymous": false,
      "inputs": [
        {
          "indexed": true,
          "internalType": "bytes32",
          "name": "role",
          "type": "bytes32"
        },
        {
          "indexed": true,
          "internalType": "address",
          "name": "account",
          "type": "address"
        },
        {
          "indexed": true,
          "internalType": "address",
          "name": "sender",
          "type": "address"
        }
      ],
      "name": "RoleRevoked",
      "type": "event"
    },
    {
      "anonymous": false,
      "inputs": [
        {
          "indexed": true,
          "internalType": "address",
          "name": "from",
          "type": "address"
        },
        {
          "indexed": true,
          "internalType": "address",
          "name": "to",
          "type": "address"
        },
        {
          "indexed": true,
          "internalType": "uint256",
          "name": "tokenId",
          "type": "uint256"
        }
      ],
      "name": "Transfer",
      "type": "event"
    },
    {
      "anonymous": false,
      "inputs": [
        {
          "indexed": false,
          "internalType": "address",
          "name": "account",
          "type": "address"
        }
      ],
      "name": "Unpaused",
      "type": "event"
    },
    {
      "stateMutability": "nonpayable",
      "type": "fallback"
    },
    {
      "inputs": [],
      "name": "DEFAULT_ADMIN_ROLE",
      "outputs": [
        {
          "internalType": "bytes32",
          "name": "",
          "type": "bytes32"
        }
      ],
      "stateMutability": "view",
      "type": "function",
      "constant": true
    },
    {
      "inputs": [],
      "name": "PAUSER_ROLE",
      "outputs": [
        {
          "internalType": "bytes32",
          "name": "",
          "type": "bytes32"
        }
      ],
      "stateMutability": "view",
      "type": "function",
      "constant": true
    },
    {
      "inputs": [],
      "name": "TEMPLATER_ROLE",
      "outputs": [
        {
          "internalType": "bytes32",
          "name": "",
          "type": "bytes32"
        }
      ],
      "stateMutability": "view",
      "type": "function",
      "constant": true
    },
    {
      "inputs": [
        {
          "internalType": "address",
          "name": "guy",
          "type": "address"
        }
      ],
      "name": "addTemplater",
      "outputs": [
        {
          "internalType": "bool",
          "name": "",
          "type": "bool"
        }
      ],
      "stateMutability": "nonpayable",
      "type": "function"
    },
    {
      "inputs": [
        {
          "internalType": "address",
          "name": "to",
          "type": "address"
        },
        {
          "internalType": "uint256",
          "name": "tokenId",
          "type": "uint256"
        }
      ],
      "name": "approve",
      "outputs": [],
      "stateMutability": "nonpayable",
      "type": "function"
    },
    {
      "inputs": [
        {
          "internalType": "address",
          "name": "owner",
          "type": "address"
        }
      ],
      "name": "balanceOf",
      "outputs": [
        {
          "internalType": "uint256",
          "name": "",
          "type": "uint256"
        }
      ],
      "stateMutability": "view",
      "type": "function",
      "constant": true
    },
    {
      "inputs": [],
      "name": "baseURI",
      "outputs": [
        {
          "internalType": "string",
          "name": "",
          "type": "string"
        }
      ],
      "stateMutability": "view",
      "type": "function",
      "constant": true
    },
    {
      "inputs": [
        {
          "internalType": "uint256",
          "name": "tokenId",
          "type": "uint256"
        }
      ],
      "name": "burn",
      "outputs": [],
      "stateMutability": "nonpayable",
      "type": "function"
    },
    {
      "inputs": [
        {
          "internalType": "uint256",
          "name": "tokenId",
          "type": "uint256"
        }
      ],
      "name": "getApproved",
      "outputs": [
        {
          "internalType": "address",
          "name": "",
          "type": "address"
        }
      ],
      "stateMutability": "view",
      "type": "function",
      "constant": true
    },
    {
      "inputs": [
        {
          "internalType": "bytes32",
          "name": "role",
          "type": "bytes32"
        }
      ],
      "name": "getRoleAdmin",
      "outputs": [
        {
          "internalType": "bytes32",
          "name": "",
          "type": "bytes32"
        }
      ],
      "stateMutability": "view",
      "type": "function",
      "constant": true
    },
    {
      "inputs": [
        {
          "internalType": "bytes32",
          "name": "role",
          "type": "bytes32"
        },
        {
          "internalType": "uint256",
          "name": "index",
          "type": "uint256"
        }
      ],
      "name": "getRoleMember",
      "outputs": [
        {
          "internalType": "address",
          "name": "",
          "type": "address"
        }
      ],
      "stateMutability": "view",
      "type": "function",
      "constant": true
    },
    {
      "inputs": [
        {
          "internalType": "bytes32",
          "name": "role",
          "type": "bytes32"
        }
      ],
      "name": "getRoleMemberCount",
      "outputs": [
        {
          "internalType": "uint256",
          "name": "",
          "type": "uint256"
        }
      ],
      "stateMutability": "view",
      "type": "function",
      "constant": true
    },
    {
      "inputs": [
        {
          "internalType": "bytes32",
          "name": "role",
          "type": "bytes32"
        },
        {
          "internalType": "address",
          "name": "account",
          "type": "address"
        }
      ],
      "name": "grantRole",
      "outputs": [],
      "stateMutability": "nonpayable",
      "type": "function"
    },
    {
      "inputs": [
        {
          "internalType": "bytes32",
          "name": "role",
          "type": "bytes32"
        },
        {
          "internalType": "address",
          "name": "account",
          "type": "address"
        }
      ],
      "name": "hasRole",
      "outputs": [
        {
          "internalType": "bool",
          "name": "",
          "type": "bool"
        }
      ],
      "stateMutability": "view",
      "type": "function",
      "constant": true
    },
    {
      "inputs": [
        {
          "internalType": "address",
          "name": "guy",
          "type": "address"
        }
      ],
      "name": "isAdmin",
      "outputs": [
        {
          "internalType": "bool",
          "name": "",
          "type": "bool"
        }
      ],
      "stateMutability": "view",
      "type": "function",
      "constant": true
    },
    {
      "inputs": [
        {
          "internalType": "address",
          "name": "owner",
          "type": "address"
        },
        {
          "internalType": "address",
          "name": "operator",
          "type": "address"
        }
      ],
      "name": "isApprovedForAll",
      "outputs": [
        {
          "internalType": "bool",
          "name": "",
          "type": "bool"
        }
      ],
      "stateMutability": "view",
      "type": "function",
      "constant": true
    },
    {
      "inputs": [
        {
          "internalType": "address",
          "name": "guy",
          "type": "address"
        }
      ],
      "name": "isTemplater",
      "outputs": [
        {
          "internalType": "bool",
          "name": "",
          "type": "bool"
        }
      ],
      "stateMutability": "view",
      "type": "function",
      "constant": true
    },
    {
      "inputs": [],
      "name": "name",
      "outputs": [
        {
          "internalType": "string",
          "name": "",
          "type": "string"
        }
      ],
      "stateMutability": "view",
      "type": "function",
      "constant": true
    },
    {
      "inputs": [],
      "name": "owner",
      "outputs": [
        {
          "internalType": "address",
          "name": "",
          "type": "address"
        }
      ],
      "stateMutability": "view",
      "type": "function",
      "constant": true
    },
    {
      "inputs": [
        {
          "internalType": "uint256",
          "name": "tokenId",
          "type": "uint256"
        }
      ],
      "name": "ownerOf",
      "outputs": [
        {
          "internalType": "address",
          "name": "",
          "type": "address"
        }
      ],
      "stateMutability": "view",
      "type": "function",
      "constant": true
    },
    {
      "inputs": [],
      "name": "pause",
      "outputs": [],
      "stateMutability": "nonpayable",
      "type": "function"
    },
    {
      "inputs": [],
      "name": "paused",
      "outputs": [
        {
          "internalType": "bool",
          "name": "",
          "type": "bool"
        }
      ],
      "stateMutability": "view",
      "type": "function",
      "constant": true
    },
    {
      "inputs": [
        {
          "internalType": "address",
          "name": "guy",
          "type": "address"
        }
      ],
      "name": "removeTemplater",
      "outputs": [
        {
          "internalType": "bool",
          "name": "",
          "type": "bool"
        }
      ],
      "stateMutability": "nonpayable",
      "type": "function"
    },
    {
      "inputs": [],
      "name": "renounceOwnership",
      "outputs": [],
      "stateMutability": "nonpayable",
      "type": "function"
    },
    {
      "inputs": [
        {
          "internalType": "bytes32",
          "name": "role",
          "type": "bytes32"
        },
        {
          "internalType": "address",
          "name": "account",
          "type": "address"
        }
      ],
      "name": "renounceRole",
      "outputs": [],
      "stateMutability": "nonpayable",
      "type": "function"
    },
    {
      "inputs": [
        {
          "internalType": "bytes32",
          "name": "role",
          "type": "bytes32"
        },
        {
          "internalType": "address",
          "name": "account",
          "type": "address"
        }
      ],
      "name": "revokeRole",
      "outputs": [],
      "stateMutability": "nonpayable",
      "type": "function"
    },
    {
      "inputs": [
        {
          "internalType": "address",
          "name": "from",
          "type": "address"
        },
        {
          "internalType": "address",
          "name": "to",
          "type": "address"
        },
        {
          "internalType": "uint256",
          "name": "tokenId",
          "type": "uint256"
        }
      ],
      "name": "safeTransferFrom",
      "outputs": [],
      "stateMutability": "nonpayable",
      "type": "function"
    },
    {
      "inputs": [
        {
          "internalType": "address",
          "name": "from",
          "type": "address"
        },
        {
          "internalType": "address",
          "name": "to",
          "type": "address"
        },
        {
          "internalType": "uint256",
          "name": "tokenId",
          "type": "uint256"
        },
        {
          "internalType": "bytes",
          "name": "_data",
          "type": "bytes"
        }
      ],
      "name": "safeTransferFrom",
      "outputs": [],
      "stateMutability": "nonpayable",
      "type": "function"
    },
    {
      "inputs": [
        {
          "internalType": "address",
          "name": "operator",
          "type": "address"
        },
        {
          "internalType": "bool",
          "name": "approved",
          "type": "bool"
        }
      ],
      "name": "setApprovalForAll",
      "outputs": [],
      "stateMutability": "nonpayable",
      "type": "function"
    },
    {
      "inputs": [
        {
          "internalType": "bytes4",
          "name": "interfaceId",
          "type": "bytes4"
        }
      ],
      "name": "supportsInterface",
      "outputs": [
        {
          "internalType": "bool",
          "name": "",
          "type": "bool"
        }
      ],
      "stateMutability": "view",
      "type": "function",
      "constant": true
    },
    {
      "inputs": [],
      "name": "symbol",
      "outputs": [
        {
          "internalType": "string",
          "name": "",
          "type": "string"
        }
      ],
      "stateMutability": "view",
      "type": "function",
      "constant": true
    },
    {
      "inputs": [
        {
          "internalType": "uint256",
          "name": "index",
          "type": "uint256"
        }
      ],
      "name": "tokenByIndex",
      "outputs": [
        {
          "internalType": "uint256",
          "name": "",
          "type": "uint256"
        }
      ],
      "stateMutability": "view",
      "type": "function",
      "constant": true
    },
    {
      "inputs": [
        {
          "internalType": "address",
          "name": "owner",
          "type": "address"
        },
        {
          "internalType": "uint256",
          "name": "index",
          "type": "uint256"
        }
      ],
      "name": "tokenOfOwnerByIndex",
      "outputs": [
        {
          "internalType": "uint256",
          "name": "",
          "type": "uint256"
        }
      ],
      "stateMutability": "view",
      "type": "function",
      "constant": true
    },
    {
      "inputs": [
        {
          "internalType": "uint256",
          "name": "tokenId",
          "type": "uint256"
        }
      ],
      "name": "tokenURI",
      "outputs": [
        {
          "internalType": "string",
          "name": "",
          "type": "string"
        }
      ],
      "stateMutability": "view",
      "type": "function",
      "constant": true
    },
    {
      "inputs": [],
      "name": "totalSupply",
      "outputs": [
        {
          "internalType": "uint256",
          "name": "",
          "type": "uint256"
        }
      ],
      "stateMutability": "view",
      "type": "function",
      "constant": true
    },
    {
      "inputs": [
        {
          "internalType": "address",
          "name": "from",
          "type": "address"
        },
        {
          "internalType": "address",
          "name": "to",
          "type": "address"
        },
        {
          "internalType": "uint256",
          "name": "tokenId",
          "type": "uint256"
        }
      ],
      "name": "transferFrom",
      "outputs": [],
      "stateMutability": "nonpayable",
      "type": "function"
    },
    {
      "inputs": [
        {
          "internalType": "address",
          "name": "newOwner",
          "type": "address"
        }
      ],
      "name": "transferOwnership",
      "outputs": [],
      "stateMutability": "nonpayable",
      "type": "function"
    },
    {
      "inputs": [],
      "name": "unpause",
      "outputs": [],
      "stateMutability": "nonpayable",
      "type": "function"
    },
    {
      "inputs": [
        {
          "internalType": "string",
          "name": "baseURI",
          "type": "string"
        }
      ],
      "name": "setBaseURI",
      "outputs": [
        {
          "internalType": "bool",
          "name": "",
          "type": "bool"
        }
      ],
      "stateMutability": "nonpayable",
      "type": "function"
    },
    {
      "inputs": [
        {
          "internalType": "uint256",
          "name": "templateId",
          "type": "uint256"
        }
      ],
      "name": "getTemplate",
      "outputs": [
        {
          "internalType": "string",
          "name": "name",
          "type": "string"
        },
        {
          "internalType": "string",
          "name": "description",
          "type": "string"
        },
        {
          "internalType": "string",
          "name": "image",
          "type": "string"
        }
      ],
      "stateMutability": "view",
      "type": "function",
      "constant": true
    },
    {
      "inputs": [],
      "name": "getTemplatesCount",
      "outputs": [
        {
          "internalType": "uint256",
          "name": "count",
          "type": "uint256"
        }
      ],
      "stateMutability": "view",
      "type": "function",
      "constant": true
    },
    {
      "inputs": [
        {
          "internalType": "string",
          "name": "name",
          "type": "string"
        },
        {
          "internalType": "string",
          "name": "description",
          "type": "string"
        },
        {
          "internalType": "string",
          "name": "image",
          "type": "string"
        }
      ],
      "name": "createTemplate",
      "outputs": [
        {
          "internalType": "uint256",
          "name": "_templateId",
          "type": "uint256"
        }
      ],
      "stateMutability": "nonpayable",
      "type": "function"
    },
    {
      "inputs": [
        {
          "internalType": "uint256",
          "name": "tokenId",
          "type": "uint256"
        }
      ],
      "name": "getBadgeTemplate",
      "outputs": [
        {
          "internalType": "uint256",
          "name": "",
          "type": "uint256"
        }
      ],
      "stateMutability": "view",
      "type": "function",
      "constant": true
    },
    {
      "inputs": [
        {
          "internalType": "uint256",
          "name": "templateId",
          "type": "uint256"
        }
      ],
      "name": "getBadgeTemplateQuantity",
      "outputs": [
        {
          "internalType": "uint256",
          "name": "",
          "type": "uint256"
        }
      ],
      "stateMutability": "view",
      "type": "function",
      "constant": true
    },
    {
      "inputs": [
        {
          "internalType": "bytes32[]",
          "name": "proof",
          "type": "bytes32[]"
        },
        {
          "internalType": "uint256",
          "name": "templateId",
          "type": "uint256"
        },
        {
          "internalType": "string",
          "name": "tokenURI",
          "type": "string"
        }
      ],
      "name": "activateBadge",
      "outputs": [
        {
          "internalType": "bool",
          "name": "",
          "type": "bool"
        }
      ],
      "stateMutability": "nonpayable",
      "type": "function"
    },
    {
      "inputs": [
        {
          "internalType": "uint256",
          "name": "tokenId",
          "type": "uint256"
        }
      ],
      "name": "burnBadge",
      "outputs": [
        {
          "internalType": "bool",
          "name": "",
          "type": "bool"
        }
      ],
      "stateMutability": "nonpayable",
      "type": "function"
    }
  ],
  "bytecode": "0x60806040523480156200001157600080fd5b506040516200654238038062006542833981810160405260208110156200003757600080fd5b81019080805190602001909291905050506040518060400160405280600e81526020017f496e7369676e69614261646765730000000000000000000000000000000000008152506040518060400160405280600681526020017f42414447455300000000000000000000000000000000000000000000000000008152506000620000c66200035560201b60201c565b9050806000806101000a81548173ffffffffffffffffffffffffffffffffffffffff021916908373ffffffffffffffffffffffffffffffffffffffff1602179055508073ffffffffffffffffffffffffffffffffffffffff16600073ffffffffffffffffffffffffffffffffffffffff167f8be0079c531659141344cd1fd0a4f28419497f9722a3daafe3b4186f6b6457e060405160405180910390a3506000600260006101000a81548160ff021916908315150217905550620001a36000801b620001976200035d60201b60201c565b6200038660201b60201c565b620001f960405180807f54454d504c415445525f524f4c45000000000000000000000000000000000000815250600e0190506040518091039020620001ed6200035d60201b60201c565b6200038660201b60201c565b6200024f60405180807f5041555345525f524f4c45000000000000000000000000000000000000000000815250600b0190506040518091039020620002436200035d60201b60201c565b6200038660201b60201c565b620002676301ffc9a760e01b6200039c60201b60201c565b81600990805190602001906200027f9291906200063b565b5080600a9080519060200190620002989291906200063b565b50620002b16380ac58cd60e01b6200039c60201b60201c565b620002c9635b5e139f60e01b6200039c60201b60201c565b620002e163780e9d6360e01b6200039c60201b60201c565b50506200030d6040518060600160405280602281526020016200652060229139620004a660201b60201c565b80600e60006101000a81548173ffffffffffffffffffffffffffffffffffffffff021916908373ffffffffffffffffffffffffffffffffffffffff16021790555050620006ea565b600033905090565b60008060009054906101000a900473ffffffffffffffffffffffffffffffffffffffff16905090565b620003988282620004c260201b60201c565b5050565b63ffffffff60e01b817bffffffffffffffffffffffffffffffffffffffffffffffffffffffff1916141562000439576040517f08c379a000000000000000000000000000000000000000000000000000000000815260040180806020018281038252601c8152602001807f4552433136353a20696e76616c696420696e746572666163652069640000000081525060200191505060405180910390fd5b600160036000837bffffffffffffffffffffffffffffffffffffffffffffffffffffffff19167bffffffffffffffffffffffffffffffffffffffffffffffffffffffff1916815260200190815260200160002060006101000a81548160ff02191690831515021790555050565b80600c9080519060200190620004be9291906200063b565b5050565b620004f181600160008581526020019081526020016000206000016200056660201b62003e021790919060201c565b156200056257620005076200035560201b60201c565b73ffffffffffffffffffffffffffffffffffffffff168173ffffffffffffffffffffffffffffffffffffffff16837f2f8788117e7eff1d82e926ec794901d17c78024a50270940304540a733656f0d60405160405180910390a45b5050565b600062000596836000018373ffffffffffffffffffffffffffffffffffffffff1660001b6200059e60201b60201c565b905092915050565b6000620005b283836200061860201b60201c565b6200060d57826000018290806001815401808255809150506001900390600052602060002001600090919091909150558260000180549050836001016000848152602001908152602001600020819055506001905062000612565b600090505b92915050565b600080836001016000848152602001908152602001600020541415905092915050565b828054600181600116156101000203166002900490600052602060002090601f016020900481019282601f106200067e57805160ff1916838001178555620006af565b82800160010185558215620006af579182015b82811115620006ae57825182559160200191906001019062000691565b5b509050620006be9190620006c2565b5090565b620006e791905b80821115620006e3576000816000905550600101620006c9565b5090565b90565b615e2680620006fa6000396000f3fe608060405234801561001057600080fd5b506004361061028e5760003560e01c80636c0360eb1161015c578063b5900eea116100ce578063d4c10e4611610087578063d4c10e46146112db578063d547741f1461144c578063e63ab1e91461149a578063e6c0d714146114b8578063e985e9c514611514578063f2fde38b146115905761028f565b8063b5900eea14610e76578063b88d4fde14610e94578063c87b56dd14610f99578063ca15c87314611040578063cc11dd4e14611082578063ccb4bcb6146110de5761028f565b80638da5cb5b116101205780638da5cb5b14610c5d5780639010d07c14610ca757806391d1485414610d1f57806395d89b4114610d85578063a217fddf14610e08578063a22cb46514610e265761028f565b80636c0360eb14610b505780636cdd0a1614610bd357806370a0823114610bf1578063715018a614610c495780638456cb5914610c535761028f565b806331543cf4116102005780634de46fd0116101b95780634de46fd0146109235780634f6ccce71461096557806355de28ae146109a757806355f804b3146109ed5780635c975abb14610ac05780636352211e14610ae25761028f565b806331543cf41461065457806336568abe146107d35780633f4ba83a1461082157806342842e0e1461082b57806342966c68146108995780634ba360ba146108c75761028f565b806318160ddd1161025257806318160ddd1461047a57806323b872dd14610498578063248a9ca31461050657806324d7806c146105485780632f2ff15d146105a45780632f745c59146105f25761028f565b806301ffc9a71461029457806304523af1146102f957806306fdde031461033b578063081812fc146103be578063095ea7b31461042c5761028f565b5b600080fd5b6102df600480360360208110156102aa57600080fd5b8101908080357bffffffffffffffffffffffffffffffffffffffffffffffffffffffff191690602001909291905050506115d4565b604051808215151515815260200191505060405180910390f35b6103256004803603602081101561030f57600080fd5b810190808035906020019092919050505061163c565b6040518082815260200191505060405180910390f35b610343611756565b6040518080602001828103825283818151815260200191508051906020019080838360005b83811015610383578082015181840152602081019050610368565b50505050905090810190601f1680156103b05780820380516001836020036101000a031916815260200191505b509250505060405180910390f35b6103ea600480360360208110156103d457600080fd5b81019080803590602001909291905050506117f8565b604051808273ffffffffffffffffffffffffffffffffffffffff1673ffffffffffffffffffffffffffffffffffffffff16815260200191505060405180910390f35b6104786004803603604081101561044257600080fd5b81019080803573ffffffffffffffffffffffffffffffffffffffff16906020019092919080359060200190929190505050611893565b005b6104826119d7565b6040518082815260200191505060405180910390f35b610504600480360360608110156104ae57600080fd5b81019080803573ffffffffffffffffffffffffffffffffffffffff169060200190929190803573ffffffffffffffffffffffffffffffffffffffff169060200190929190803590602001909291905050506119e8565b005b6105326004803603602081101561051c57600080fd5b8101908080359060200190929190505050611a5e565b6040518082815260200191505060405180910390f35b61058a6004803603602081101561055e57600080fd5b81019080803573ffffffffffffffffffffffffffffffffffffffff169060200190929190505050611a7e565b604051808215151515815260200191505060405180910390f35b6105f0600480360360408110156105ba57600080fd5b8101908080359060200190929190803573ffffffffffffffffffffffffffffffffffffffff169060200190929190505050611a94565b005b61063e6004803603604081101561060857600080fd5b81019080803573ffffffffffffffffffffffffffffffffffffffff16906020019092919080359060200190929190505050611b1e565b6040518082815260200191505060405180910390f35b6106806004803603602081101561066a57600080fd5b8101908080359060200190929190505050611b79565b60405180806020018060200180602001848103845287818151815260200191508051906020019080838360005b838110156106c85780820151818401526020810190506106ad565b50505050905090810190601f1680156106f55780820380516001836020036101000a031916815260200191505b50848103835286818151815260200191508051906020019080838360005b8381101561072e578082015181840152602081019050610713565b50505050905090810190601f16801561075b5780820380516001836020036101000a031916815260200191505b50848103825285818151815260200191508051906020019080838360005b83811015610794578082015181840152602081019050610779565b50505050905090810190601f1680156107c15780820380516001836020036101000a031916815260200191505b50965050505050505060405180910390f35b61081f600480360360408110156107e957600080fd5b8101908080359060200190929190803573ffffffffffffffffffffffffffffffffffffffff169060200190929190505050611f04565b005b610829611f9d565b005b6108976004803603606081101561084157600080fd5b81019080803573ffffffffffffffffffffffffffffffffffffffff169060200190929190803573ffffffffffffffffffffffffffffffffffffffff1690602001909291908035906020019092919050505061203b565b005b6108c5600480360360208110156108af57600080fd5b810190808035906020019092919050505061205b565b005b610909600480360360208110156108dd57600080fd5b81019080803573ffffffffffffffffffffffffffffffffffffffff1690602001909291905050506120cd565b604051808215151515815260200191505060405180910390f35b61094f6004803603602081101561093957600080fd5b810190808035906020019092919050505061220d565b6040518082815260200191505060405180910390f35b6109916004803603602081101561097b57600080fd5b8101908080359060200190929190505050612328565b6040518082815260200191505060405180910390f35b6109d3600480360360208110156109bd57600080fd5b810190808035906020019092919050505061234b565b604051808215151515815260200191505060405180910390f35b610aa660048036036020811015610a0357600080fd5b8101908080359060200190640100000000811115610a2057600080fd5b820183602082011115610a3257600080fd5b80359060200191846001830284011164010000000083111715610a5457600080fd5b91908080601f016020809104026020016040519081016040528093929190818152602001838380828437600081840152601f19601f82011690508083019250505050505050919291929050505061242e565b604051808215151515815260200191505060405180910390f35b610ac861250b565b604051808215151515815260200191505060405180910390f35b610b0e60048036036020811015610af857600080fd5b8101908080359060200190929190505050612522565b604051808273ffffffffffffffffffffffffffffffffffffffff1673ffffffffffffffffffffffffffffffffffffffff16815260200191505060405180910390f35b610b58612559565b6040518080602001828103825283818151815260200191508051906020019080838360005b83811015610b98578082015181840152602081019050610b7d565b50505050905090810190601f168015610bc55780820380516001836020036101000a031916815260200191505b509250505060405180910390f35b610bdb6125fb565b6040518082815260200191505060405180910390f35b610c3360048036036020811015610c0757600080fd5b81019080803573ffffffffffffffffffffffffffffffffffffffff169060200190929190505050612634565b6040518082815260200191505060405180910390f35b610c51612709565b005b610c5b612891565b005b610c6561292f565b604051808273ffffffffffffffffffffffffffffffffffffffff1673ffffffffffffffffffffffffffffffffffffffff16815260200191505060405180910390f35b610cdd60048036036040811015610cbd57600080fd5b810190808035906020019092919080359060200190929190505050612958565b604051808273ffffffffffffffffffffffffffffffffffffffff1673ffffffffffffffffffffffffffffffffffffffff16815260200191505060405180910390f35b610d6b60048036036040811015610d3557600080fd5b8101908080359060200190929190803573ffffffffffffffffffffffffffffffffffffffff16906020019092919050505061298a565b604051808215151515815260200191505060405180910390f35b610d8d6129bc565b6040518080602001828103825283818151815260200191508051906020019080838360005b83811015610dcd578082015181840152602081019050610db2565b50505050905090810190601f168015610dfa5780820380516001836020036101000a031916815260200191505b509250505060405180910390f35b610e10612a5e565b6040518082815260200191505060405180910390f35b610e7460048036036040811015610e3c57600080fd5b81019080803573ffffffffffffffffffffffffffffffffffffffff169060200190929190803515159060200190929190505050612a65565b005b610e7e612c1d565b6040518082815260200191505060405180910390f35b610f9760048036036080811015610eaa57600080fd5b81019080803573ffffffffffffffffffffffffffffffffffffffff169060200190929190803573ffffffffffffffffffffffffffffffffffffffff1690602001909291908035906020019092919080359060200190640100000000811115610f1157600080fd5b820183602082011115610f2357600080fd5b80359060200191846001830284011164010000000083111715610f4557600080fd5b91908080601f016020809104026020016040519081016040528093929190818152602001838380828437600081840152601f19601f820116905080830192505050505050509192919290505050612cad565b005b610fc560048036036020811015610faf57600080fd5b8101908080359060200190929190505050612d25565b6040518080602001828103825283818151815260200191508051906020019080838360005b83811015611005578082015181840152602081019050610fea565b50505050905090810190601f1680156110325780820380516001836020036101000a031916815260200191505b509250505060405180910390f35b61106c6004803603602081101561105657600080fd5b810190808035906020019092919050505061300e565b6040518082815260200191505060405180910390f35b6110c46004803603602081101561109857600080fd5b81019080803573ffffffffffffffffffffffffffffffffffffffff169060200190929190505050613035565b604051808215151515815260200191505060405180910390f35b6112c5600480360360608110156110f457600080fd5b810190808035906020019064010000000081111561111157600080fd5b82018360208201111561112357600080fd5b8035906020019184600183028401116401000000008311171561114557600080fd5b91908080601f016020809104026020016040519081016040528093929190818152602001838380828437600081840152601f19601f820116905080830192505050505050509192919290803590602001906401000000008111156111a857600080fd5b8201836020820111156111ba57600080fd5b803590602001918460018302840111640100000000831117156111dc57600080fd5b91908080601f016020809104026020016040519081016040528093929190818152602001838380828437600081840152601f19601f8201169050808301925050505050505091929192908035906020019064010000000081111561123f57600080fd5b82018360208201111561125157600080fd5b8035906020019184600183028401116401000000008311171561127357600080fd5b91908080601f016020809104026020016040519081016040528093929190818152602001838380828437600081840152601f19601f82011690508083019250505050505050919291929050505061307d565b6040518082815260200191505060405180910390f35b611432600480360360608110156112f157600080fd5b810190808035906020019064010000000081111561130e57600080fd5b82018360208201111561132057600080fd5b8035906020019184602083028401116401000000008311171561134257600080fd5b919080806020026020016040519081016040528093929190818152602001838360200280828437600081840152601f19601f82011690508083019250505050505050919291929080359060200190929190803590602001906401000000008111156113ac57600080fd5b8201836020820111156113be57600080fd5b803590602001918460018302840111640100000000831117156113e057600080fd5b91908080601f016020809104026020016040519081016040528093929190818152602001838380828437600081840152601f19601f82011690508083019250505050505050919291929050505061342e565b604051808215151515815260200191505060405180910390f35b6114986004803603604081101561146257600080fd5b8101908080359060200190929190803573ffffffffffffffffffffffffffffffffffffffff16906020019092919050505061395d565b005b6114a26139e7565b6040518082815260200191505060405180910390f35b6114fa600480360360208110156114ce57600080fd5b81019080803573ffffffffffffffffffffffffffffffffffffffff169060200190929190505050613a20565b604051808215151515815260200191505060405180910390f35b6115766004803603604081101561152a57600080fd5b81019080803573ffffffffffffffffffffffffffffffffffffffff169060200190929190803573ffffffffffffffffffffffffffffffffffffffff169060200190929190505050613b61565b604051808215151515815260200191505060405180910390f35b6115d2600480360360208110156115a657600080fd5b81019080803573ffffffffffffffffffffffffffffffffffffffff169060200190929190505050613bf5565b005b600060036000837bffffffffffffffffffffffffffffffffffffffffffffffffffffffff19167bffffffffffffffffffffffffffffffffffffffffffffffffffffffff1916815260200190815260200160002060009054906101000a900460ff169050919050565b6000600260009054906101000a900460ff16156116c1576040517f08c379a00000000000000000000000000000000000000000000000000000000081526004018080602001828103825260108152602001807f5061757361626c653a207061757365640000000000000000000000000000000081525060200191505060405180910390fd5b81600f805490501161173b576040517f08c379a00000000000000000000000000000000000000000000000000000000081526004018080602001828103825260188152602001807f4e6f2074656d706c61746520776974682074686174206964000000000000000081525060200191505060405180910390fd5b60106000838152602001908152602001600020549050919050565b606060098054600181600116156101000203166002900480601f0160208091040260200160405190810160405280929190818152602001828054600181600116156101000203166002900480156117ee5780601f106117c3576101008083540402835291602001916117ee565b820191906000526020600020905b8154815290600101906020018083116117d157829003601f168201915b5050505050905090565b600061180382613e32565b611858576040517f08c379a000000000000000000000000000000000000000000000000000000000815260040180806020018281038252602c815260200180615c64602c913960400191505060405180910390fd5b6007600083815260200190815260200160002060009054906101000a900473ffffffffffffffffffffffffffffffffffffffff169050919050565b600061189e82612522565b90508073ffffffffffffffffffffffffffffffffffffffff168373ffffffffffffffffffffffffffffffffffffffff161415611925576040517f08c379a0000000000000000000000000000000000000000000000000000000008152600401808060200182810382526021815260200180615d406021913960400191505060405180910390fd5b8073ffffffffffffffffffffffffffffffffffffffff16611944613e4f565b73ffffffffffffffffffffffffffffffffffffffff16148061197357506119728161196d613e4f565b613b61565b5b6119c8576040517f08c379a0000000000000000000000000000000000000000000000000000000008152600401808060200182810382526038815260200180615bb76038913960400191505060405180910390fd5b6119d28383613e57565b505050565b60006119e36005613f10565b905090565b6119f96119f3613e4f565b82613f25565b611a4e576040517f08c379a0000000000000000000000000000000000000000000000000000000008152600401808060200182810382526031815260200180615d616031913960400191505060405180910390fd5b611a59838383614019565b505050565b600060016000838152602001908152602001600020600201549050919050565b6000611a8d6000801b8361298a565b9050919050565b611abb6001600084815260200190815260200160002060020154611ab6613e4f565b61298a565b611b10576040517f08c379a000000000000000000000000000000000000000000000000000000000815260040180806020018281038252602f815260200180615a82602f913960400191505060405180910390fd5b611b1a828261409e565b5050565b6000611b7182600460008673ffffffffffffffffffffffffffffffffffffffff1673ffffffffffffffffffffffffffffffffffffffff16815260200190815260200160002061413290919063ffffffff16565b905092915050565b6060806060600260009054906101000a900460ff1615611c01576040517f08c379a00000000000000000000000000000000000000000000000000000000081526004018080602001828103825260108152602001807f5061757361626c653a207061757365640000000000000000000000000000000081525060200191505060405180910390fd5b83600f8054905011611c7b576040517f08c379a00000000000000000000000000000000000000000000000000000000081526004018080602001828103825260188152602001807f4e6f2074656d706c61746520776974682074686174206964000000000000000081525060200191505060405180910390fd5b611c83615934565b600f8581548110611c9057fe5b9060005260206000209060040201604051806080016040529081600082018054600181600116156101000203166002900480601f016020809104026020016040519081016040528092919081815260200182805460018160011615610100020316600290048015611d425780601f10611d1757610100808354040283529160200191611d42565b820191906000526020600020905b815481529060010190602001808311611d2557829003601f168201915b50505050508152602001600182018054600181600116156101000203166002900480601f016020809104026020016040519081016040528092919081815260200182805460018160011615610100020316600290048015611de45780601f10611db957610100808354040283529160200191611de4565b820191906000526020600020905b815481529060010190602001808311611dc757829003601f168201915b50505050508152602001600282018054600181600116156101000203166002900480601f016020809104026020016040519081016040528092919081815260200182805460018160011615610100020316600290048015611e865780601f10611e5b57610100808354040283529160200191611e86565b820191906000526020600020905b815481529060010190602001808311611e6957829003601f168201915b505050505081526020016003820160009054906101000a900473ffffffffffffffffffffffffffffffffffffffff1673ffffffffffffffffffffffffffffffffffffffff1673ffffffffffffffffffffffffffffffffffffffff16815250509050806000015181602001518260400151935093509350509193909250565b611f0c613e4f565b73ffffffffffffffffffffffffffffffffffffffff168173ffffffffffffffffffffffffffffffffffffffff1614611f8f576040517f08c379a000000000000000000000000000000000000000000000000000000000815260040180806020018281038252602f815260200180615dc2602f913960400191505060405180910390fd5b611f99828261414c565b5050565b611fdc60405180807f5041555345525f524f4c45000000000000000000000000000000000000000000815250600b01905060405180910390203361298a565b612031576040517f08c379a000000000000000000000000000000000000000000000000000000000815260040180806020018281038252602e815260200180615ab1602e913960400191505060405180910390fd5b6120396141e0565b565b61205683838360405180602001604052806000815250612cad565b505050565b61206c612066613e4f565b82613f25565b6120c1576040517f08c379a0000000000000000000000000000000000000000000000000000000008152600401808060200182810382526030815260200180615d926030913960400191505060405180910390fd5b6120ca816142e9565b50565b60006120d833611a7e565b61214a576040517f08c379a00000000000000000000000000000000000000000000000000000000081526004018080602001828103825260168152602001807f43616c6c6572206973206e6f7420616e2061646d696e0000000000000000000081525060200191505060405180910390fd5b61215382613035565b6121c5576040517f08c379a00000000000000000000000000000000000000000000000000000000081526004018080602001828103825260168152602001807f677579206973206e6f7420612074656d706c617465720000000000000000000081525060200191505060405180910390fd5b61220460405180807f54454d504c415445525f524f4c45000000000000000000000000000000000000815250600e01905060405180910390208361395d565b60019050919050565b6000600260009054906101000a900460ff1615612292576040517f08c379a00000000000000000000000000000000000000000000000000000000081526004018080602001828103825260108152602001807f5061757361626c653a207061757365640000000000000000000000000000000081525060200191505060405180910390fd5b61229b82613e32565b61230d576040517f08c379a000000000000000000000000000000000000000000000000000000000815260040180806020018281038252601d8152602001807f4552433732313a204e6f20746f6b656e2077697468207468617420696400000081525060200191505060405180910390fd5b60116000838152602001908152602001600020549050919050565b60008061233f83600561442390919063ffffffff16565b50905080915050919050565b6000600260009054906101000a900460ff16156123d0576040517f08c379a00000000000000000000000000000000000000000000000000000000081526004018080602001828103825260108152602001807f5061757361626c653a207061757365640000000000000000000000000000000081525060200191505060405180910390fd5b60006123db8361220d565b90506124046001601060008481526020019081526020016000205461445290919063ffffffff16565b60106000838152602001908152602001600020819055506124248361205b565b6001915050919050565b6000612438613e4f565b73ffffffffffffffffffffffffffffffffffffffff166000809054906101000a900473ffffffffffffffffffffffffffffffffffffffff1673ffffffffffffffffffffffffffffffffffffffff16146124f9576040517f08c379a00000000000000000000000000000000000000000000000000000000081526004018080602001828103825260208152602001807f4f776e61626c653a2063616c6c6572206973206e6f7420746865206f776e657281525060200191505060405180910390fd5b6125028261449c565b60019050919050565b6000600260009054906101000a900460ff16905090565b600061255282604051806060016040528060298152602001615c196029913960056144b69092919063ffffffff16565b9050919050565b6060600c8054600181600116156101000203166002900480601f0160208091040260200160405190810160405280929190818152602001828054600181600116156101000203166002900480156125f15780601f106125c6576101008083540402835291602001916125f1565b820191906000526020600020905b8154815290600101906020018083116125d457829003601f168201915b5050505050905090565b60405180807f54454d504c415445525f524f4c45000000000000000000000000000000000000815250600e019050604051809103902081565b60008073ffffffffffffffffffffffffffffffffffffffff168273ffffffffffffffffffffffffffffffffffffffff1614156126bb576040517f08c379a000000000000000000000000000000000000000000000000000000000815260040180806020018281038252602a815260200180615bef602a913960400191505060405180910390fd5b612702600460008473ffffffffffffffffffffffffffffffffffffffff1673ffffffffffffffffffffffffffffffffffffffff1681526020019081526020016000206144d5565b9050919050565b612711613e4f565b73ffffffffffffffffffffffffffffffffffffffff166000809054906101000a900473ffffffffffffffffffffffffffffffffffffffff1673ffffffffffffffffffffffffffffffffffffffff16146127d2576040517f08c379a00000000000000000000000000000000000000000000000000000000081526004018080602001828103825260208152602001807f4f776e61626c653a2063616c6c6572206973206e6f7420746865206f776e657281525060200191505060405180910390fd5b600073ffffffffffffffffffffffffffffffffffffffff166000809054906101000a900473ffffffffffffffffffffffffffffffffffffffff1673ffffffffffffffffffffffffffffffffffffffff167f8be0079c531659141344cd1fd0a4f28419497f9722a3daafe3b4186f6b6457e060405160405180910390a360008060006101000a81548173ffffffffffffffffffffffffffffffffffffffff021916908373ffffffffffffffffffffffffffffffffffffffff160217905550565b6128d060405180807f5041555345525f524f4c45000000000000000000000000000000000000000000815250600b01905060405180910390203361298a565b612925576040517f08c379a000000000000000000000000000000000000000000000000000000000815260040180806020018281038252602c815260200180615cbc602c913960400191505060405180910390fd5b61292d6144ea565b565b60008060009054906101000a900473ffffffffffffffffffffffffffffffffffffffff16905090565b600061298282600160008681526020019081526020016000206000016145f490919063ffffffff16565b905092915050565b60006129b4826001600086815260200190815260200160002060000161460e90919063ffffffff16565b905092915050565b6060600a8054600181600116156101000203166002900480601f016020809104026020016040519081016040528092919081815260200182805460018160011615610100020316600290048015612a545780601f10612a2957610100808354040283529160200191612a54565b820191906000526020600020905b815481529060010190602001808311612a3757829003601f168201915b5050505050905090565b6000801b81565b612a6d613e4f565b73ffffffffffffffffffffffffffffffffffffffff168273ffffffffffffffffffffffffffffffffffffffff161415612b0e576040517f08c379a00000000000000000000000000000000000000000000000000000000081526004018080602001828103825260198152602001807f4552433732313a20617070726f766520746f2063616c6c65720000000000000081525060200191505060405180910390fd5b8060086000612b1b613e4f565b73ffffffffffffffffffffffffffffffffffffffff1673ffffffffffffffffffffffffffffffffffffffff16815260200190815260200160002060008473ffffffffffffffffffffffffffffffffffffffff1673ffffffffffffffffffffffffffffffffffffffff16815260200190815260200160002060006101000a81548160ff0219169083151502179055508173ffffffffffffffffffffffffffffffffffffffff16612bc8613e4f565b73ffffffffffffffffffffffffffffffffffffffff167f17307eab39ab6107e8899845ad3d59bd9653f200f220920489ca2b5937696c3183604051808215151515815260200191505060405180910390a35050565b6000600260009054906101000a900460ff1615612ca2576040517f08c379a00000000000000000000000000000000000000000000000000000000081526004018080602001828103825260108152602001807f5061757361626c653a207061757365640000000000000000000000000000000081525060200191505060405180910390fd5b600f80549050905090565b612cbe612cb8613e4f565b83613f25565b612d13576040517f08c379a0000000000000000000000000000000000000000000000000000000008152600401808060200182810382526031815260200180615d616031913960400191505060405180910390fd5b612d1f8484848461463e565b50505050565b6060612d3082613e32565b612d85576040517f08c379a000000000000000000000000000000000000000000000000000000000815260040180806020018281038252602f815260200180615d11602f913960400191505060405180910390fd5b6060600b60008481526020019081526020016000208054600181600116156101000203166002900480601f016020809104026020016040519081016040528092919081815260200182805460018160011615610100020316600290048015612e2e5780601f10612e0357610100808354040283529160200191612e2e565b820191906000526020600020905b815481529060010190602001808311612e1157829003601f168201915b505050505090506000600c8054600181600116156101000203166002900490501415612e5d5780915050613009565b600081511115612f3657600c816040516020018083805460018160011615610100020316600290048015612ec85780601f10612ea6576101008083540402835291820191612ec8565b820191906000526020600020905b815481529060010190602001808311612eb4575b505082805190602001908083835b60208310612ef95780518252602082019150602081019050602083039250612ed6565b6001836020036101000a03801982511681845116808217855250505050505090500192505050604051602081830303815290604052915050613009565b600c612f41846146b0565b6040516020018083805460018160011615610100020316600290048015612f9f5780601f10612f7d576101008083540402835291820191612f9f565b820191906000526020600020905b815481529060010190602001808311612f8b575b505082805190602001908083835b60208310612fd05780518252602082019150602081019050602083039250612fad565b6001836020036101000a038019825116818451168082178552505050505050905001925050506040516020818303038152906040529150505b919050565b600061302e600160008481526020019081526020016000206000016147f7565b9050919050565b600061307660405180807f54454d504c415445525f524f4c45000000000000000000000000000000000000815250600e01905060405180910390208361298a565b9050919050565b600061308833613035565b6130fa576040517f08c379a000000000000000000000000000000000000000000000000000000000815260040180806020018281038252601e8152602001807f43616c6c6572206973206e6f7420612074656d706c617465206f776e6572000081525060200191505060405180910390fd5b600260009054906101000a900460ff161561317d576040517f08c379a00000000000000000000000000000000000000000000000000000000081526004018080602001828103825260108152602001807f5061757361626c653a207061757365640000000000000000000000000000000081525060200191505060405180910390fd5b613185615934565b60405180608001604052808681526020018581526020018481526020013373ffffffffffffffffffffffffffffffffffffffff168152509050600f8190806001815401808255809150506001900390600052602060002090600402016000909190919091506000820151816000019080519060200190613206929190615972565b506020820151816001019080519060200190613223929190615972565b506040820151816002019080519060200190613240929190615972565b5060608201518160030160006101000a81548173ffffffffffffffffffffffffffffffffffffffff021916908373ffffffffffffffffffffffffffffffffffffffff16021790555050506132a36001600f8054905061445290919063ffffffff16565b91507f335347d3c0abbe88e13ee17ff9db9ff2aabea3e099f1ffd10807e9c7f9cf82ad8286868660405180858152602001806020018060200180602001848103845287818151815260200191508051906020019080838360005b838110156133185780820151818401526020810190506132fd565b50505050905090810190601f1680156133455780820380516001836020036101000a031916815260200191505b50848103835286818151815260200191508051906020019080838360005b8381101561337e578082015181840152602081019050613363565b50505050905090810190601f1680156133ab5780820380516001836020036101000a031916815260200191505b50848103825285818151815260200191508051906020019080838360005b838110156133e45780820151818401526020810190506133c9565b50505050905090810190601f1680156134115780820380516001836020036101000a031916815260200191505b5097505050505050505060405180910390a1819150509392505050565b6000600260009054906101000a900460ff16156134b3576040517f08c379a00000000000000000000000000000000000000000000000000000000081526004018080602001828103825260108152602001807f5061757361626c653a207061757365640000000000000000000000000000000081525060200191505060405180910390fd5b82600f805490501161352d576040517f08c379a00000000000000000000000000000000000000000000000000000000081526004018080602001828103825260188152602001807f4e6f2074656d706c61746520776974682074686174206964000000000000000081525060200191505060405180910390fd5b600e60009054906101000a900473ffffffffffffffffffffffffffffffffffffffff1673ffffffffffffffffffffffffffffffffffffffff1663ebfa62b984336040518363ffffffff1660e01b8152600401808381526020018273ffffffffffffffffffffffffffffffffffffffff1673ffffffffffffffffffffffffffffffffffffffff1681526020019250505060206040518083038186803b1580156135d457600080fd5b505afa1580156135e8573d6000803e3d6000fd5b505050506040513d60208110156135fe57600080fd5b81019080805190602001909291905050508061372d575061372c600e60009054906101000a900473ffffffffffffffffffffffffffffffffffffffff1673ffffffffffffffffffffffffffffffffffffffff1663c2b40ae4856040518263ffffffff1660e01b81526004018082815260200191505060206040518083038186803b15801561368b57600080fd5b505afa15801561369f573d6000803e3d6000fd5b505050506040513d60208110156136b557600080fd5b810190808051906020019092919050505033604051602001808273ffffffffffffffffffffffffffffffffffffffff1673ffffffffffffffffffffffffffffffffffffffff1660601b8152601401915050604051602081830303815290604052805190602001208661480c9092919063ffffffff16565b5b61379f576040517f08c379a00000000000000000000000000000000000000000000000000000000081526004018080602001828103825260188152602001807f43616c6c6572206973206e6f7420612072656465656d6572000000000000000081525060200191505060405180910390fd5b82601160006137ae600d6148c4565b8152602001908152602001600020819055506137e7600160106000868152602001908152602001600020546148d290919063ffffffff16565b6010600085815260200190815260200160002081905550613808338361495a565b61387a576040517f08c379a00000000000000000000000000000000000000000000000000000000081526004018080602001828103825260188152602001807f4552433732313a20546f6b656e206e6f74206d696e746564000000000000000081525060200191505060405180910390fd5b7ffcdd666d85b3ffd083437c2d6d3fb35552e00683b0c6e248e30b534990f5a98e338484604051808473ffffffffffffffffffffffffffffffffffffffff1673ffffffffffffffffffffffffffffffffffffffff16815260200183815260200180602001828103825283818151815260200191508051906020019080838360005b838110156139165780820151818401526020810190506138fb565b50505050905090810190601f1680156139435780820380516001836020036101000a031916815260200191505b5094505050505060405180910390a1600190509392505050565b613984600160008481526020019081526020016000206002015461397f613e4f565b61298a565b6139d9576040517f08c379a0000000000000000000000000000000000000000000000000000000008152600401808060200182810382526030815260200180615b876030913960400191505060405180910390fd5b6139e3828261414c565b5050565b60405180807f5041555345525f524f4c45000000000000000000000000000000000000000000815250600b019050604051809103902081565b6000613a2b33611a7e565b613a9d576040517f08c379a00000000000000000000000000000000000000000000000000000000081526004018080602001828103825260168152602001807f43616c6c6572206973206e6f7420616e2061646d696e0000000000000000000081525060200191505060405180910390fd5b613aa682613035565b15613b19576040517f08c379a000000000000000000000000000000000000000000000000000000000815260040180806020018281038252601a8152602001807f67757920697320616c726561647920612074656d706c6174657200000000000081525060200191505060405180910390fd5b613b5860405180807f54454d504c415445525f524f4c45000000000000000000000000000000000000815250600e019050604051809103902083611a94565b60019050919050565b6000600860008473ffffffffffffffffffffffffffffffffffffffff1673ffffffffffffffffffffffffffffffffffffffff16815260200190815260200160002060008373ffffffffffffffffffffffffffffffffffffffff1673ffffffffffffffffffffffffffffffffffffffff16815260200190815260200160002060009054906101000a900460ff16905092915050565b613bfd613e4f565b73ffffffffffffffffffffffffffffffffffffffff166000809054906101000a900473ffffffffffffffffffffffffffffffffffffffff1673ffffffffffffffffffffffffffffffffffffffff1614613cbe576040517f08c379a00000000000000000000000000000000000000000000000000000000081526004018080602001828103825260208152602001807f4f776e61626c653a2063616c6c6572206973206e6f7420746865206f776e657281525060200191505060405180910390fd5b600073ffffffffffffffffffffffffffffffffffffffff168173ffffffffffffffffffffffffffffffffffffffff161415613d44576040517f08c379a0000000000000000000000000000000000000000000000000000000008152600401808060200182810382526026815260200180615b116026913960400191505060405180910390fd5b8073ffffffffffffffffffffffffffffffffffffffff166000809054906101000a900473ffffffffffffffffffffffffffffffffffffffff1673ffffffffffffffffffffffffffffffffffffffff167f8be0079c531659141344cd1fd0a4f28419497f9722a3daafe3b4186f6b6457e060405160405180910390a3806000806101000a81548173ffffffffffffffffffffffffffffffffffffffff021916908373ffffffffffffffffffffffffffffffffffffffff16021790555050565b6000613e2a836000018373ffffffffffffffffffffffffffffffffffffffff1660001b614996565b905092915050565b6000613e48826005614a0690919063ffffffff16565b9050919050565b600033905090565b816007600083815260200190815260200160002060006101000a81548173ffffffffffffffffffffffffffffffffffffffff021916908373ffffffffffffffffffffffffffffffffffffffff160217905550808273ffffffffffffffffffffffffffffffffffffffff16613eca83612522565b73ffffffffffffffffffffffffffffffffffffffff167f8c5be1e5ebec7d5bd14f71427d1e84f3dd0314c0f7b2291e5b200ac8c7c3b92560405160405180910390a45050565b6000613f1e82600001614a20565b9050919050565b6000613f3082613e32565b613f85576040517f08c379a000000000000000000000000000000000000000000000000000000000815260040180806020018281038252602c815260200180615b5b602c913960400191505060405180910390fd5b6000613f9083612522565b90508073ffffffffffffffffffffffffffffffffffffffff168473ffffffffffffffffffffffffffffffffffffffff161480613fff57508373ffffffffffffffffffffffffffffffffffffffff16613fe7846117f8565b73ffffffffffffffffffffffffffffffffffffffff16145b80614010575061400f8185613b61565b5b91505092915050565b60011561408e576040517f08c379a000000000000000000000000000000000000000000000000000000000815260040180806020018281038252601f8152602001807f4552433732313a20746f6b656e207472616e736665722064697361626c65640081525060200191505060405180910390fd5b614099838383614a31565b505050565b6140c68160016000858152602001908152602001600020600001613e0290919063ffffffff16565b1561412e576140d3613e4f565b73ffffffffffffffffffffffffffffffffffffffff168173ffffffffffffffffffffffffffffffffffffffff16837f2f8788117e7eff1d82e926ec794901d17c78024a50270940304540a733656f0d60405160405180910390a45b5050565b60006141418360000183614c74565b60001c905092915050565b6141748160016000858152602001908152602001600020600001614cf790919063ffffffff16565b156141dc57614181613e4f565b73ffffffffffffffffffffffffffffffffffffffff168173ffffffffffffffffffffffffffffffffffffffff16837ff6391f5c32d9c69d2a47ea670b442974b53935d1edc7fd64eb21e047a839171b60405160405180910390a45b5050565b600260009054906101000a900460ff16614262576040517f08c379a00000000000000000000000000000000000000000000000000000000081526004018080602001828103825260148152602001807f5061757361626c653a206e6f742070617573656400000000000000000000000081525060200191505060405180910390fd5b6000600260006101000a81548160ff0219169083151502179055507f5db9ee0a495bf2e6ff9c91a7834c1ba4fdd244a5e8aa4e537bd38aeae4b073aa6142a6613e4f565b604051808273ffffffffffffffffffffffffffffffffffffffff1673ffffffffffffffffffffffffffffffffffffffff16815260200191505060405180910390a1565b60006142f482612522565b905061430281600084614d27565b61430d600083613e57565b6000600b60008481526020019081526020016000208054600181600116156101000203166002900490501461435c57600b6000838152602001908152602001600020600061435b91906159f2565b5b6143ad82600460008473ffffffffffffffffffffffffffffffffffffffff1673ffffffffffffffffffffffffffffffffffffffff168152602001908152602001600020614d2c90919063ffffffff16565b506143c2826005614d4690919063ffffffff16565b5081600073ffffffffffffffffffffffffffffffffffffffff168273ffffffffffffffffffffffffffffffffffffffff167fddf252ad1be2c89b69c2b068fc378daa952ba7f163c4a11628f55a4df523b3ef60405160405180910390a45050565b6000806000806144368660000186614d60565b915091508160001c8160001c8090509350935050509250929050565b600061449483836040518060400160405280601e81526020017f536166654d6174683a207375627472616374696f6e206f766572666c6f770000815250614df9565b905092915050565b80600c90805190602001906144b2929190615972565b5050565b60006144c9846000018460001b84614eb9565b60001c90509392505050565b60006144e382600001614faf565b9050919050565b600260009054906101000a900460ff161561456d576040517f08c379a00000000000000000000000000000000000000000000000000000000081526004018080602001828103825260108152602001807f5061757361626c653a207061757365640000000000000000000000000000000081525060200191505060405180910390fd5b6001600260006101000a81548160ff0219169083151502179055507f62e78cea01bee320cd4e420270b5ea74000d11b0c9f74754ebdbfc544b05a2586145b1613e4f565b604051808273ffffffffffffffffffffffffffffffffffffffff1673ffffffffffffffffffffffffffffffffffffffff16815260200191505060405180910390a1565b60006146038360000183614c74565b60001c905092915050565b6000614636836000018373ffffffffffffffffffffffffffffffffffffffff1660001b614fc0565b905092915050565b614649848484614019565b61465584848484614fe3565b6146aa576040517f08c379a0000000000000000000000000000000000000000000000000000000008152600401808060200182810382526032815260200180615adf6032913960400191505060405180910390fd5b50505050565b606060008214156146f8576040518060400160405280600181526020017f300000000000000000000000000000000000000000000000000000000000000081525090506147f2565b600082905060005b60008214614722578080600101915050600a828161471a57fe5b049150614700565b60608167ffffffffffffffff8111801561473b57600080fd5b506040519080825280601f01601f19166020018201604052801561476e5781602001600182028036833780820191505090505b50905060006001830390508593505b600084146147ea57600a848161478f57fe5b0660300160f81b828280600190039350815181106147a957fe5b60200101907effffffffffffffffffffffffffffffffffffffffffffffffffffffffffffff1916908160001a905350600a84816147e257fe5b04935061477d565b819450505050505b919050565b600061480582600001614faf565b9050919050565b60008082905060008090505b85518110156148b657600086828151811061482f57fe5b6020026020010151905080831161487657828160405160200180838152602001828152602001925050506040516020818303038152906040528051906020012092506148a8565b808360405160200180838152602001828152602001925050506040516020818303038152906040528051906020012092505b508080600101915050614818565b508381149150509392505050565b600081600001549050919050565b600080828401905083811015614950576040517f08c379a000000000000000000000000000000000000000000000000000000000815260040180806020018281038252601b8152602001807f536166654d6174683a206164646974696f6e206f766572666c6f77000000000081525060200191505060405180910390fd5b8091505092915050565b600061496f8361496a600d6148c4565b615306565b61498261497c600d6148c4565b836154fa565b61498c600d615584565b6001905092915050565b60006149a28383614fc0565b6149fb578260000182908060018154018082558091505060019003906000526020600020016000909190919091505582600001805490508360010160008481526020019081526020016000208190555060019050614a00565b600090505b92915050565b6000614a18836000018360001b61559a565b905092915050565b600081600001805490509050919050565b8273ffffffffffffffffffffffffffffffffffffffff16614a5182612522565b73ffffffffffffffffffffffffffffffffffffffff1614614abd576040517f08c379a0000000000000000000000000000000000000000000000000000000008152600401808060200182810382526029815260200180615ce86029913960400191505060405180910390fd5b600073ffffffffffffffffffffffffffffffffffffffff168273ffffffffffffffffffffffffffffffffffffffff161415614b43576040517f08c379a0000000000000000000000000000000000000000000000000000000008152600401808060200182810382526024815260200180615b376024913960400191505060405180910390fd5b614b4e838383614d27565b614b59600082613e57565b614baa81600460008673ffffffffffffffffffffffffffffffffffffffff1673ffffffffffffffffffffffffffffffffffffffff168152602001908152602001600020614d2c90919063ffffffff16565b50614bfc81600460008573ffffffffffffffffffffffffffffffffffffffff1673ffffffffffffffffffffffffffffffffffffffff1681526020019081526020016000206155bd90919063ffffffff16565b50614c13818360056155d79092919063ffffffff16565b50808273ffffffffffffffffffffffffffffffffffffffff168473ffffffffffffffffffffffffffffffffffffffff167fddf252ad1be2c89b69c2b068fc378daa952ba7f163c4a11628f55a4df523b3ef60405160405180910390a4505050565b600081836000018054905011614cd5576040517f08c379a0000000000000000000000000000000000000000000000000000000008152600401808060200182810382526022815260200180615a606022913960400191505060405180910390fd5b826000018281548110614ce457fe5b9060005260206000200154905092915050565b6000614d1f836000018373ffffffffffffffffffffffffffffffffffffffff1660001b61560c565b905092915050565b505050565b6000614d3e836000018360001b61560c565b905092915050565b6000614d58836000018360001b6156f4565b905092915050565b60008082846000018054905011614dc2576040517f08c379a0000000000000000000000000000000000000000000000000000000008152600401808060200182810382526022815260200180615c426022913960400191505060405180910390fd5b6000846000018481548110614dd357fe5b906000526020600020906002020190508060000154816001015492509250509250929050565b6000838311158290614ea6576040517f08c379a00000000000000000000000000000000000000000000000000000000081526004018080602001828103825283818151815260200191508051906020019080838360005b83811015614e6b578082015181840152602081019050614e50565b50505050905090810190601f168015614e985780820380516001836020036101000a031916815260200191505b509250505060405180910390fd5b5060008385039050809150509392505050565b60008084600101600085815260200190815260200160002054905060008114158390614f80576040517f08c379a00000000000000000000000000000000000000000000000000000000081526004018080602001828103825283818151815260200191508051906020019080838360005b83811015614f45578082015181840152602081019050614f2a565b50505050905090810190601f168015614f725780820380516001836020036101000a031916815260200191505b509250505060405180910390fd5b50846000016001820381548110614f9357fe5b9060005260206000209060020201600101549150509392505050565b600081600001805490509050919050565b600080836001016000848152602001908152602001600020541415905092915050565b60006150048473ffffffffffffffffffffffffffffffffffffffff1661580d565b61501157600190506152fe565b600060608573ffffffffffffffffffffffffffffffffffffffff1663150b7a0260e01b61503c613e4f565b898888604051602401808573ffffffffffffffffffffffffffffffffffffffff1673ffffffffffffffffffffffffffffffffffffffff1681526020018473ffffffffffffffffffffffffffffffffffffffff1673ffffffffffffffffffffffffffffffffffffffff16815260200183815260200180602001828103825283818151815260200191508051906020019080838360005b838110156150ec5780820151818401526020810190506150d1565b50505050905090810190601f1680156151195780820380516001836020036101000a031916815260200191505b5095505050505050604051602081830303815290604052907bffffffffffffffffffffffffffffffffffffffffffffffffffffffff19166020820180517bffffffffffffffffffffffffffffffffffffffffffffffffffffffff83818316178352505050506040518082805190602001908083835b602083106151b1578051825260208201915060208101905060208303925061518e565b6001836020036101000a0380198251168184511680821785525050505050509050019150506000604051808303816000865af19150503d8060008114615213576040519150601f19603f3d011682016040523d82523d6000602084013e615218565b606091505b509150915081615286576000815111156152355780518082602001fd5b6040517f08c379a0000000000000000000000000000000000000000000000000000000008152600401808060200182810382526032815260200180615adf6032913960400191505060405180910390fd5b600081806020019051602081101561529d57600080fd5b8101908080519060200190929190505050905063150b7a0260e01b7bffffffffffffffffffffffffffffffffffffffffffffffffffffffff1916817bffffffffffffffffffffffffffffffffffffffffffffffffffffffff19161493505050505b949350505050565b600073ffffffffffffffffffffffffffffffffffffffff168273ffffffffffffffffffffffffffffffffffffffff1614156153a9576040517f08c379a00000000000000000000000000000000000000000000000000000000081526004018080602001828103825260208152602001807f4552433732313a206d696e7420746f20746865207a65726f206164647265737381525060200191505060405180910390fd5b6153b281613e32565b15615425576040517f08c379a000000000000000000000000000000000000000000000000000000000815260040180806020018281038252601c8152602001807f4552433732313a20746f6b656e20616c7265616479206d696e7465640000000081525060200191505060405180910390fd5b61543160008383614d27565b61548281600460008573ffffffffffffffffffffffffffffffffffffffff1673ffffffffffffffffffffffffffffffffffffffff1681526020019081526020016000206155bd90919063ffffffff16565b50615499818360056155d79092919063ffffffff16565b50808273ffffffffffffffffffffffffffffffffffffffff16600073ffffffffffffffffffffffffffffffffffffffff167fddf252ad1be2c89b69c2b068fc378daa952ba7f163c4a11628f55a4df523b3ef60405160405180910390a45050565b61550382613e32565b615558576040517f08c379a000000000000000000000000000000000000000000000000000000000815260040180806020018281038252602c815260200180615c90602c913960400191505060405180910390fd5b80600b6000848152602001908152602001600020908051906020019061557f929190615972565b505050565b6001816000016000828254019250508190555050565b600080836001016000848152602001908152602001600020541415905092915050565b60006155cf836000018360001b614996565b905092915050565b6000615603846000018460001b8473ffffffffffffffffffffffffffffffffffffffff1660001b615858565b90509392505050565b600080836001016000848152602001908152602001600020549050600081146156e8576000600182039050600060018660000180549050039050600086600001828154811061565757fe5b906000526020600020015490508087600001848154811061567457fe5b90600052602060002001819055506001830187600101600083815260200190815260200160002081905550866000018054806156ac57fe5b600190038181906000526020600020016000905590558660010160008781526020019081526020016000206000905560019450505050506156ee565b60009150505b92915050565b60008083600101600084815260200190815260200160002054905060008114615801576000600182039050600060018660000180549050039050600086600001828154811061573f57fe5b906000526020600020906002020190508087600001848154811061575f57fe5b90600052602060002090600202016000820154816000015560018201548160010155905050600183018760010160008360000154815260200190815260200160002081905550866000018054806157b257fe5b6001900381819060005260206000209060020201600080820160009055600182016000905550509055866001016000878152602001908152602001600020600090556001945050505050615807565b60009150505b92915050565b60008060007fc5d2460186f7233c927e7db2dcc703c0e500b653ca82273b7bfad8045d85a47060001b9050833f915080821415801561584f57506000801b8214155b92505050919050565b60008084600101600085815260200190815260200160002054905060008114156158ff5784600001604051806040016040528086815260200185815250908060018154018082558091505060019003906000526020600020906002020160009091909190915060008201518160000155602082015181600101555050846000018054905085600101600086815260200190815260200160002081905550600191505061592d565b8285600001600183038154811061591257fe5b90600052602060002090600202016001018190555060009150505b9392505050565b6040518060800160405280606081526020016060815260200160608152602001600073ffffffffffffffffffffffffffffffffffffffff1681525090565b828054600181600116156101000203166002900490600052602060002090601f016020900481019282601f106159b357805160ff19168380011785556159e1565b828001600101855582156159e1579182015b828111156159e05782518255916020019190600101906159c5565b5b5090506159ee9190615a3a565b5090565b50805460018160011615610100020316600290046000825580601f10615a185750615a37565b601f016020900490600052602060002090810190615a369190615a3a565b5b50565b615a5c91905b80821115615a58576000816000905550600101615a40565b5090565b9056fe456e756d657261626c655365743a20696e646578206f7574206f6620626f756e6473416363657373436f6e74726f6c3a2073656e646572206d75737420626520616e2061646d696e20746f206772616e744261646765466163746f72793a206d75737420686176652070617573657220726f6c6520746f20756e70617573654552433732313a207472616e7366657220746f206e6f6e20455243373231526563656976657220696d706c656d656e7465724f776e61626c653a206e6577206f776e657220697320746865207a65726f20616464726573734552433732313a207472616e7366657220746f20746865207a65726f20616464726573734552433732313a206f70657261746f7220717565727920666f72206e6f6e6578697374656e7420746f6b656e416363657373436f6e74726f6c3a2073656e646572206d75737420626520616e2061646d696e20746f207265766f6b654552433732313a20617070726f76652063616c6c6572206973206e6f74206f776e6572206e6f7220617070726f76656420666f7220616c6c4552433732313a2062616c616e636520717565727920666f7220746865207a65726f20616464726573734552433732313a206f776e657220717565727920666f72206e6f6e6578697374656e7420746f6b656e456e756d657261626c654d61703a20696e646578206f7574206f6620626f756e64734552433732313a20617070726f76656420717565727920666f72206e6f6e6578697374656e7420746f6b656e4552433732314d657461646174613a2055524920736574206f66206e6f6e6578697374656e7420746f6b656e4261646765466163746f72793a206d75737420686176652070617573657220726f6c6520746f2070617573654552433732313a207472616e73666572206f6620746f6b656e2074686174206973206e6f74206f776e4552433732314d657461646174613a2055524920717565727920666f72206e6f6e6578697374656e7420746f6b656e4552433732313a20617070726f76616c20746f2063757272656e74206f776e65724552433732313a207472616e736665722063616c6c6572206973206e6f74206f776e6572206e6f7220617070726f7665644552433732314275726e61626c653a2063616c6c6572206973206e6f74206f776e6572206e6f7220617070726f766564416363657373436f6e74726f6c3a2063616e206f6e6c792072656e6f756e636520726f6c657320666f722073656c66a2646970667358221220670e28721515f63238589a30ab5e96a18b4e8df6f13044236704c9b2049d53d464736f6c6343000608003368747470733a2f2f6261646765732e6d616b657264616f2e636f6d2f746f6b656e2f",
  "immutableReferences": {},
  "source": "/// SPDX-License-Identifier: GPL-3.0\npragma solidity 0.6.8;\n\n/// @title Non-transferable Badges for Maker Ecosystem Activity, issue #537\n/// @author Nazzareno Massari\n/// @notice BadgeFactory to manage Templates and activate Non-transferable Badges for redeemers\n/// @dev see https://github.com/makerdao/community/issues/537\n/// @dev All function calls are currently implemented without side effecs through TDD approach\n/// @dev OpenZeppelin library is used for secure contract development\n\nimport \"./BadgeRoles.sol\";\nimport \"@openzeppelin/contracts/utils/Counters.sol\";\nimport \"@openzeppelin/contracts/token/ERC721/ERC721Burnable.sol\";\nimport \"@openzeppelin/contracts/cryptography/MerkleProof.sol\";\n\n\ninterface InsigniaDAO {\n\n    function verify(uint256 templateId, address guy) external view returns (bool);\n    function roots(uint256 templateId) external view returns (bytes32);\n\n}\n\ncontract BadgeFactory is BadgeRoles, ERC721Burnable {\n\n  /// Libraries\n  using SafeMath for uint256;\n  using Counters for Counters.Counter;\n  using MerkleProof for bytes32[];\n\n  Counters.Counter private _tokenIdTracker;\n\n  InsigniaDAO internal insignia;\n\n  /// Events\n  event NewTemplate(uint256 templateId, string name, string description, string image);\n  event BadgeActivated(address redeemer, uint256 templateId, string tokenURI);\n\n  struct BadgeTemplate {\n    string name;\n    string description;\n    string image;\n    address owner;\n  }\n\n  BadgeTemplate[] private templates;\n\n  /// Supplies of each badge template\n  mapping(uint256 => uint256) private _templateQuantities;\n  mapping(uint256 => uint256) private _tokenTemplates;\n\n  constructor(address insignia_)\n    ERC721(\"InsigniaBadges\", \"BADGES\")\n    public\n  {\n    _setBaseURI(\"https://badges.makerdao.com/token/\");\n    insignia = InsigniaDAO(insignia_);\n\n  }\n\n  /// @notice Fallback function\n  /// @dev Added not payable to revert transactions not matching any other function which send value\n  fallback() external {\n    revert();\n  }\n\n  /// @notice Set the baseURI\n  /// @dev Update the baseURI specified in the constructor\n  /// @param baseURI New baseURI\n  /// @return True if the new baseURI is set\n  function setBaseURI(string memory baseURI) public onlyOwner returns (bool) {\n    _setBaseURI(baseURI);\n    return true;\n  }\n\n  /// @notice Mint new token with tokenURI\n  /// @dev Use an auto-generated tokenId\n  /// @dev automatically concatenate baseURI with tokenURI via abi.encodePacked\n  /// @param to owner of the new token\n  /// @param tokenURI an <ipfs-hash>.json filename\n  /// @return True if the new token is minted\n  function _mintWithTokenURI(address to, string memory tokenURI) internal returns (bool) {\n    _mint(to, _tokenIdTracker.current());\n    _setTokenURI(_tokenIdTracker.current(), tokenURI);\n    _tokenIdTracker.increment();\n    return true;\n  }\n\n  /// @notice Getter function for templates\n  /// @dev Check if templateId exists\n  /// @param templateId Template Id of the template to return\n  /// @return name description image Of the specified templateId\n  function getTemplate(uint256 templateId) public view whenNotPaused returns (string memory name, string memory description, string memory image) {\n    require(templates.length > templateId, \"No template with that id\");\n    BadgeTemplate memory template = templates[templateId];\n    return (template.name, template.description, template.image);\n  }\n\n\n  /// Templates\n\n  /// @notice Getter function for templates count\n  /// @dev Return lenght of template array\n  /// @return count The current number of templates\n  function getTemplatesCount() public view whenNotPaused returns (uint256 count) {\n    return templates.length;\n  }\n\n  /// @notice Create a new template\n  /// @dev Access restricted to only Templaters\n  /// @param name The name of the new template\n  /// @param description A description of the new template\n  /// @param image A filename of the new template\n  /// @return _templateId The template Id\n  function createTemplate(string memory name, string memory description, string memory image) public onlyTemplater whenNotPaused returns (uint256 _templateId) {\n\n    BadgeTemplate memory _newTemplate = BadgeTemplate({\n       name: name,\n       owner: msg.sender,\n       description: description,\n       image: image\n    });\n    templates.push(_newTemplate);\n    _templateId = templates.length.sub(1);\n    emit NewTemplate(_templateId, name, description, image);\n    return _templateId;\n  }\n\n  // Badges\n\n  /// @notice Getter function for templateId associated with the tokenId\n  /// @dev Check if the tokenId exists\n  /// @param tokenId Token Id of the Badge\n  /// @return Template Id associated with the tokenId\n  function getBadgeTemplate(uint256 tokenId) public view whenNotPaused returns (uint256) {\n    require(_exists(tokenId), \"ERC721: No token with that id\");\n    return _tokenTemplates[tokenId];\n  }\n\n  /// @notice Getter function for number of badges associated with templateId\n  /// @dev Check if the template Id exists\n  /// @param templateId Template Id\n  /// @return Quantity of Badges associated with templateId\n  function getBadgeTemplateQuantity(uint256 templateId) public view whenNotPaused returns (uint256) {\n    require(templates.length > templateId, \"No template with that id\");\n    return _templateQuantities[templateId];\n  }\n\n  /// @notice Activate Badge by redeemers\n  /// @dev Verify if the caller is a redeemer\n  /// @param proof Merkle Proof\n  /// @param templateId Template Id\n  /// @param tokenURI Token URI\n  /// @return _tokenId Token Id of the new Badge\n  function activateBadge(bytes32[] memory proof, uint256 templateId, string memory tokenURI) public whenNotPaused returns (bool) {\n    require(templates.length > templateId, \"No template with that id\");\n    require(insignia.verify(templateId, msg.sender) || proof.verify(insignia.roots(templateId), keccak256(abi.encodePacked(msg.sender))), \"Caller is not a redeemer\");\n\n    // Increase the quantities\n    _tokenTemplates[_tokenIdTracker.current()] = templateId;\n    _templateQuantities[templateId] = _templateQuantities[templateId].add(1);\n\n    require(_mintWithTokenURI(msg.sender, tokenURI), \"ERC721: Token not minted\");\n\n    emit BadgeActivated(msg.sender, templateId, tokenURI);\n    return true;\n  }\n\n  /// @notice Burn Badge\n  /// @dev burn() Check if the caller is approved or owner of the Badge\n  /// @param tokenId Token Id of the Badge to burn\n  /// @return True if the Badge has been burned\n  function burnBadge(uint256 tokenId) public whenNotPaused returns (bool){\n    uint256 templateId = getBadgeTemplate(tokenId);\n    _templateQuantities[templateId] = _templateQuantities[templateId].sub(1);\n    burn(tokenId);\n    return true;\n  }\n\n  /// @notice ERC721 _transfer() Disabled\n  /// @dev _transfer() has been overriden\n  /// @dev reverts on transferFrom() and safeTransferFrom()\n  function _transfer(address from, address to, uint256 tokenId) internal override {\n    require(!true, \"ERC721: token transfer disabled\");\n    super._transfer(from, to, tokenId);\n  }\n\n}\n",
  "sourcePath": "/home/sencha/insigniadao/contracts/BadgeFactory.sol",
  "compiler": {
    "name": "solc",
    "version": "0.6.8+commit.0bbfe453.Emscripten.clang"
  },
  "schemaVersion": "3.1.0",
  "updatedAt": "2020-06-01T10:58:16.465Z",
  "networkType": "ethereum",
  "devdoc": {
    "methods": {
      "activateBadge(bytes32[],uint256,string)": {
        "details": "Verify if the caller is a redeemer",
        "params": {
          "proof": "Merkle Proof",
          "templateId": "Template Id",
          "tokenURI": "Token URI"
        },
        "returns": {
          "_0": "_tokenId Token Id of the new Badge"
        }
      },
      "approve(address,uint256)": {
        "details": "Approves another address to transfer the given token ID The zero address indicates there is no approved address. There can only be one approved address per token at a given time. Can only be called by the token owner or an approved operator.",
        "params": {
          "to": "address to be approved for the given token ID",
          "tokenId": "uint256 ID of the token to be approved"
        }
      },
      "balanceOf(address)": {
        "details": "Gets the balance of the specified address.",
        "params": {
          "owner": "address to query the balance of"
        },
        "returns": {
          "_0": "uint256 representing the amount owned by the passed address"
        }
      },
      "baseURI()": {
        "details": "Returns the base URI set via {_setBaseURI}. This will be automatically added as a prefix in {tokenURI} to each token's URI, or to the token ID if no specific URI is set for that token ID."
      },
      "burn(uint256)": {
        "details": "Burns a specific ERC721 token.",
        "params": {
          "tokenId": "uint256 id of the ERC721 token to be burned."
        }
      },
      "burnBadge(uint256)": {
        "details": "burn() Check if the caller is approved or owner of the Badge",
        "params": {
          "tokenId": "Token Id of the Badge to burn"
        },
        "returns": {
          "_0": "True if the Badge has been burned"
        }
      },
      "createTemplate(string,string,string)": {
        "details": "Access restricted to only Templaters",
        "params": {
          "description": "A description of the new template",
          "image": "A filename of the new template",
          "name": "The name of the new template"
        },
        "returns": {
          "_templateId": "The template Id"
        }
      },
      "getApproved(uint256)": {
        "details": "Gets the approved address for a token ID, or zero if no address set Reverts if the token ID does not exist.",
        "params": {
          "tokenId": "uint256 ID of the token to query the approval of"
        },
        "returns": {
          "_0": "address currently approved for the given token ID"
        }
      },
      "getBadgeTemplate(uint256)": {
        "details": "Check if the tokenId exists",
        "params": {
          "tokenId": "Token Id of the Badge"
        },
        "returns": {
          "_0": "Template Id associated with the tokenId"
        }
      },
      "getBadgeTemplateQuantity(uint256)": {
        "details": "Check if the template Id exists",
        "params": {
          "templateId": "Template Id"
        },
        "returns": {
          "_0": "Quantity of Badges associated with templateId"
        }
      },
      "getRoleAdmin(bytes32)": {
        "details": "Returns the admin role that controls `role`. See {grantRole} and {revokeRole}.     * To change a role's admin, use {_setRoleAdmin}."
      },
      "getRoleMember(bytes32,uint256)": {
        "details": "Returns one of the accounts that have `role`. `index` must be a value between 0 and {getRoleMemberCount}, non-inclusive.     * Role bearers are not sorted in any particular way, and their ordering may change at any point.     * WARNING: When using {getRoleMember} and {getRoleMemberCount}, make sure you perform all queries on the same block. See the following https://forum.openzeppelin.com/t/iterating-over-elements-on-enumerableset-in-openzeppelin-contracts/2296[forum post] for more information."
      },
      "getRoleMemberCount(bytes32)": {
        "details": "Returns the number of accounts that have `role`. Can be used together with {getRoleMember} to enumerate all bearers of a role."
      },
      "getTemplate(uint256)": {
        "details": "Check if templateId exists",
        "params": {
          "templateId": "Template Id of the template to return"
        },
        "returns": {
          "name": "description image Of the specified templateId"
        }
      },
      "getTemplatesCount()": {
        "details": "Return lenght of template array",
        "returns": {
          "count": "The current number of templates"
        }
      },
      "grantRole(bytes32,address)": {
        "details": "Grants `role` to `account`.     * If `account` had not been already granted `role`, emits a {RoleGranted} event.     * Requirements:     * - the caller must have ``role``'s admin role."
      },
      "hasRole(bytes32,address)": {
        "details": "Returns `true` if `account` has been granted `role`."
      },
      "isApprovedForAll(address,address)": {
        "details": "Tells whether an operator is approved by a given owner.",
        "params": {
          "operator": "operator address which you want to query the approval of",
          "owner": "owner address which you want to query the approval of"
        },
        "returns": {
          "_0": "bool whether the given operator is approved by the given owner"
        }
      },
      "name()": {
        "details": "Gets the token name.",
        "returns": {
          "_0": "string representing the token name"
        }
      },
      "owner()": {
        "details": "Returns the address of the current owner."
      },
      "ownerOf(uint256)": {
        "details": "Gets the owner of the specified token ID.",
        "params": {
          "tokenId": "uint256 ID of the token to query the owner of"
        },
        "returns": {
          "_0": "address currently marked as the owner of the given token ID"
        }
      },
      "pause()": {
        "details": "the caller must have the 'PAUSER_ROLE'"
      },
      "paused()": {
        "details": "Returns true if the contract is paused, and false otherwise."
      },
      "renounceOwnership()": {
        "details": "Leaves the contract without owner. It will not be possible to call `onlyOwner` functions anymore. Can only be called by the current owner.     * NOTE: Renouncing ownership will leave the contract without an owner, thereby removing any functionality that is only available to the owner."
      },
      "renounceRole(bytes32,address)": {
        "details": "Revokes `role` from the calling account.     * Roles are often managed via {grantRole} and {revokeRole}: this function's purpose is to provide a mechanism for accounts to lose their privileges if they are compromised (such as when a trusted device is misplaced).     * If the calling account had been granted `role`, emits a {RoleRevoked} event.     * Requirements:     * - the caller must be `account`."
      },
      "revokeRole(bytes32,address)": {
        "details": "Revokes `role` from `account`.     * If `account` had been granted `role`, emits a {RoleRevoked} event.     * Requirements:     * - the caller must have ``role``'s admin role."
      },
      "safeTransferFrom(address,address,uint256)": {
        "details": "Safely transfers the ownership of a given token ID to another address If the target address is a contract, it must implement {IERC721Receiver-onERC721Received}, which is called upon a safe transfer, and return the magic value `bytes4(keccak256(\"onERC721Received(address,address,uint256,bytes)\"))`; otherwise, the transfer is reverted. Requires the msg.sender to be the owner, approved, or operator",
        "params": {
          "from": "current owner of the token",
          "to": "address to receive the ownership of the given token ID",
          "tokenId": "uint256 ID of the token to be transferred"
        }
      },
      "safeTransferFrom(address,address,uint256,bytes)": {
        "details": "Safely transfers the ownership of a given token ID to another address If the target address is a contract, it must implement {IERC721Receiver-onERC721Received}, which is called upon a safe transfer, and return the magic value `bytes4(keccak256(\"onERC721Received(address,address,uint256,bytes)\"))`; otherwise, the transfer is reverted. Requires the _msgSender() to be the owner, approved, or operator",
        "params": {
          "_data": "bytes data to send along with a safe transfer check",
          "from": "current owner of the token",
          "to": "address to receive the ownership of the given token ID",
          "tokenId": "uint256 ID of the token to be transferred"
        }
      },
      "setApprovalForAll(address,bool)": {
        "details": "Sets or unsets the approval of a given operator An operator is allowed to transfer all tokens of the sender on their behalf.",
        "params": {
          "approved": "representing the status of the approval to be set",
          "operator": "operator address to set the approval"
        }
      },
      "setBaseURI(string)": {
        "details": "Update the baseURI specified in the constructor",
        "params": {
          "baseURI": "New baseURI"
        },
        "returns": {
          "_0": "True if the new baseURI is set"
        }
      },
      "supportsInterface(bytes4)": {
        "details": "See {IERC165-supportsInterface}.     * Time complexity O(1), guaranteed to always use less than 30 000 gas."
      },
      "symbol()": {
        "details": "Gets the token symbol.",
        "returns": {
          "_0": "string representing the token symbol"
        }
      },
      "tokenByIndex(uint256)": {
        "details": "Gets the token ID at a given index of all the tokens in this contract Reverts if the index is greater or equal to the total number of tokens.",
        "params": {
          "index": "uint256 representing the index to be accessed of the tokens list"
        },
        "returns": {
          "_0": "uint256 token ID at the given index of the tokens list"
        }
      },
      "tokenOfOwnerByIndex(address,uint256)": {
        "details": "Gets the token ID at a given index of the tokens list of the requested owner.",
        "params": {
          "index": "uint256 representing the index to be accessed of the requested tokens list",
          "owner": "address owning the tokens list to be accessed"
        },
        "returns": {
          "_0": "uint256 token ID at the given index of the tokens list owned by the requested address"
        }
      },
      "tokenURI(uint256)": {
        "details": "Returns the URI for a given token ID. May return an empty string.     * If a base URI is set (via {_setBaseURI}), it is added as a prefix to the token's own URI (via {_setTokenURI}).     * If there is a base URI but no token URI, the token's ID will be used as its URI when appending it to the base URI. This pattern for autogenerated token URIs can lead to large gas savings.     * .Examples |=== |`_setBaseURI()` |`_setTokenURI()` |`tokenURI()` | \"\" | \"\" | \"\" | \"\" | \"token.uri/123\" | \"token.uri/123\" | \"token.uri/\" | \"123\" | \"token.uri/123\" | \"token.uri/\" | \"\" | \"token.uri/<tokenId>\" |===     * Requirements:     * - `tokenId` must exist."
      },
      "totalSupply()": {
        "details": "Gets the total amount of tokens stored by the contract.",
        "returns": {
          "_0": "uint256 representing the total amount of tokens"
        }
      },
      "transferFrom(address,address,uint256)": {
        "details": "Transfers the ownership of a given token ID to another address. Usage of this method is discouraged, use {safeTransferFrom} whenever possible. Requires the msg.sender to be the owner, approved, or operator.",
        "params": {
          "from": "current owner of the token",
          "to": "address to receive the ownership of the given token ID",
          "tokenId": "uint256 ID of the token to be transferred"
        }
      },
      "transferOwnership(address)": {
        "details": "Transfers ownership of the contract to a new account (`newOwner`). Can only be called by the current owner."
      },
      "unpause()": {
        "details": "the caller must have the 'PAUSER_ROLE'"
      }
    }
  },
  "userdoc": {
    "methods": {
      "activateBadge(bytes32[],uint256,string)": {
        "notice": "Activate Badge by redeemers"
      },
      "burnBadge(uint256)": {
        "notice": "Burn Badge"
      },
      "createTemplate(string,string,string)": {
        "notice": "Create a new template"
      },
      "getBadgeTemplate(uint256)": {
        "notice": "Getter function for templateId associated with the tokenId"
      },
      "getBadgeTemplateQuantity(uint256)": {
        "notice": "Getter function for number of badges associated with templateId"
      },
      "getTemplate(uint256)": {
        "notice": "Getter function for templates"
      },
      "getTemplatesCount()": {
        "notice": "TemplatesGetter function for templates count"
      },
      "isAdmin(address)": {
        "notice": "Functions"
      },
      "pause()": {
        "notice": "Pause all the functions"
      },
      "setBaseURI(string)": {
        "notice": "Set the baseURI"
      },
      "unpause()": {
        "notice": "Unpause all the functions"
      }
    }
  }
}