{
  "contractName": "EIP712Sig",
  "abi": [
    {
      "inputs": [
        {
          "internalType": "address",
          "name": "verifier",
          "type": "address"
        }
      ],
      "stateMutability": "nonpayable",
      "type": "constructor"
    },
    {
      "inputs": [],
      "name": "CALLDATA_TYPEHASH",
      "outputs": [
        {
          "internalType": "bytes32",
          "name": "",
          "type": "bytes32"
        }
      ],
      "stateMutability": "view",
      "type": "function"
    },
    {
      "inputs": [],
      "name": "DOMAIN_SEPARATOR",
      "outputs": [
        {
          "internalType": "bytes32",
          "name": "",
          "type": "bytes32"
        }
      ],
      "stateMutability": "view",
      "type": "function"
    },
    {
      "inputs": [],
      "name": "EIP712DOMAIN_TYPEHASH",
      "outputs": [
        {
          "internalType": "bytes32",
          "name": "",
          "type": "bytes32"
        }
      ],
      "stateMutability": "view",
      "type": "function"
    },
    {
      "inputs": [],
      "name": "RELAYDATA_TYPEHASH",
      "outputs": [
        {
          "internalType": "bytes32",
          "name": "",
          "type": "bytes32"
        }
      ],
      "stateMutability": "view",
      "type": "function"
    },
    {
      "inputs": [],
      "name": "RELAY_REQUEST_TYPEHASH",
      "outputs": [
        {
          "internalType": "bytes32",
          "name": "",
          "type": "bytes32"
        }
      ],
      "stateMutability": "view",
      "type": "function"
    },
    {
      "inputs": [
        {
          "components": [
            {
              "internalType": "address",
              "name": "target",
              "type": "address"
            },
            {
              "internalType": "bytes",
              "name": "encodedFunction",
              "type": "bytes"
            },
            {
              "components": [
                {
                  "internalType": "uint256",
                  "name": "gasLimit",
                  "type": "uint256"
                },
                {
                  "internalType": "uint256",
                  "name": "gasPrice",
                  "type": "uint256"
                },
                {
                  "internalType": "uint256",
                  "name": "pctRelayFee",
                  "type": "uint256"
                },
                {
                  "internalType": "uint256",
                  "name": "baseRelayFee",
                  "type": "uint256"
                }
              ],
              "internalType": "struct GSNTypes.GasData",
              "name": "gasData",
              "type": "tuple"
            },
            {
              "components": [
                {
                  "internalType": "address",
                  "name": "senderAddress",
                  "type": "address"
                },
                {
                  "internalType": "uint256",
                  "name": "senderNonce",
                  "type": "uint256"
                },
                {
                  "internalType": "address",
                  "name": "relayWorker",
                  "type": "address"
                },
                {
                  "internalType": "address",
                  "name": "paymaster",
                  "type": "address"
                }
              ],
              "internalType": "struct GSNTypes.RelayData",
              "name": "relayData",
              "type": "tuple"
            }
          ],
          "internalType": "struct GSNTypes.RelayRequest",
          "name": "req",
          "type": "tuple"
        },
        {
          "internalType": "bytes",
          "name": "signature",
          "type": "bytes"
        }
      ],
      "name": "verify",
      "outputs": [
        {
          "internalType": "bool",
          "name": "",
          "type": "bool"
        }
      ],
      "stateMutability": "view",
      "type": "function"
    }
  ],
  "bytecode": "0x60806040523480156200001157600080fd5b50604051620013863803806200138683398181016040528101906200003791906200016d565b620000e260405180606001604052806040518060400160405280601781526020017f47534e2052656c61796564205472616e73616374696f6e00000000000000000081525081526020016040518060400160405280600181526020017f310000000000000000000000000000000000000000000000000000000000000081525081526020018373ffffffffffffffffffffffffffffffffffffffff16815250620000ef60201b60201c565b6000819055505062000310565b6000604051620000ff9062000249565b6040518091039020826000015180519060200120836020015180519060200120846040015160405160200162000139949392919062000260565b604051602081830303815290604052805190602001209050919050565b6000815190506200016781620002f6565b92915050565b6000602082840312156200018057600080fd5b6000620001908482850162000156565b91505092915050565b620001a481620002b8565b82525050565b620001b581620002cc565b82525050565b6000620001ca604283620002ad565b91507f454950373132446f6d61696e28737472696e67206e616d652c737472696e672060008301527f76657273696f6e2c6164647265737320766572696679696e67436f6e7472616360208301527f74290000000000000000000000000000000000000000000000000000000000006040830152604282019050919050565b60006200025682620001bb565b9150819050919050565b6000608082019050620002776000830187620001aa565b620002866020830186620001aa565b620002956040830185620001aa565b620002a4606083018462000199565b95945050505050565b600081905092915050565b6000620002c582620002d6565b9050919050565b6000819050919050565b600073ffffffffffffffffffffffffffffffffffffffff82169050919050565b6200030181620002b8565b81146200030d57600080fd5b50565b61106680620003206000396000f3fe608060405234801561001057600080fd5b50600436106100625760003560e01c80633644e515146100675780633fb37abf146100855780638e1653c9146100a3578063abf0d3f4146100d3578063c49f91d3146100f1578063cc0c62b21461010f575b600080fd5b61006f61012d565b60405161007c9190610d3c565b60405180910390f35b61008d610133565b60405161009a9190610d3c565b60405180910390f35b6100bd60048036038101906100b89190610725565b61014a565b6040516100ca9190610d21565b60405180910390f35b6100db6101d4565b6040516100e89190610d3c565b60405180910390f35b6100f96101eb565b6040516101069190610d3c565b60405180910390f35b610117610202565b6040516101249190610d3c565b60405180910390f35b60005481565b60405161013f90610d0c565b604051809103902081565b60008060005461015985610219565b60405160200161016a929190610cab565b60405160208183030381529060405280519060200120905083606001516000015173ffffffffffffffffffffffffffffffffffffffff166101b4848361028b90919063ffffffff16565b73ffffffffffffffffffffffffffffffffffffffff161491505092915050565b6040516101e090610c96565b604051809103902081565b6040516101f790610ce2565b604051809103902081565b60405161020e90610cf7565b604051809103902081565b600060405161022790610c96565b6040518091039020826000015183602001518051906020012061024d856040015161047c565b61025a86606001516104d7565b60405160200161026e959493929190610d57565b604051602081830303815290604052805190602001209050919050565b600060418251146102d1576040517f08c379a00000000000000000000000000000000000000000000000000000000081526004016102c890610eb5565b60405180910390fd5b60008060006020850151925060408501519150606085015160001a90507f7fffffffffffffffffffffffffffffff5d576e7357a4501ddfe92f46681b20a08260001c1115610354576040517f08c379a000000000000000000000000000000000000000000000000000000000815260040161034b90610ed5565b60405180910390fd5b601b8160ff161415801561036c5750601c8160ff1614155b156103ac576040517f08c379a00000000000000000000000000000000000000000000000000000000081526004016103a390610ef5565b60405180910390fd5b6000600187838686604051600081526020016040526040516103d19493929190610e50565b6020604051602081039080840390855afa1580156103f3573d6000803e3d6000fd5b505050602060405103519050600073ffffffffffffffffffffffffffffffffffffffff168173ffffffffffffffffffffffffffffffffffffffff16141561046f576040517f08c379a000000000000000000000000000000000000000000000000000000000815260040161046690610e95565b60405180910390fd5b8094505050505092915050565b600060405161048a90610d0c565b604051809103902082600001518360200151846040015185606001516040516020016104ba959493929190610dfd565b604051602081830303815290604052805190602001209050919050565b60006040516104e590610cf7565b60405180910390208260000151836020015184604001518560600151604051602001610515959493929190610daa565b604051602081830303815290604052805190602001209050919050565b60008135905061054181611002565b92915050565b600082601f83011261055857600080fd5b813561056b61056682610f42565b610f15565b9150808252602083016020830185838301111561058757600080fd5b610592838284610fe9565b50505092915050565b6000608082840312156105ad57600080fd5b6105b76080610f15565b905060006105c784828501610710565b60008301525060206105db84828501610710565b60208301525060406105ef84828501610710565b604083015250606061060384828501610710565b60608301525092915050565b60006080828403121561062157600080fd5b61062b6080610f15565b9050600061063b84828501610532565b600083015250602061064f84828501610710565b602083015250604061066384828501610532565b604083015250606061067784828501610532565b60608301525092915050565b6000610140828403121561069657600080fd5b6106a06080610f15565b905060006106b084828501610532565b600083015250602082013567ffffffffffffffff8111156106d057600080fd5b6106dc84828501610547565b60208301525060406106f08482850161059b565b60408301525060c06107048482850161060f565b60608301525092915050565b60008135905061071f81611019565b92915050565b6000806040838503121561073857600080fd5b600083013567ffffffffffffffff81111561075257600080fd5b61075e85828601610683565b925050602083013567ffffffffffffffff81111561077b57600080fd5b61078785828601610547565b9150509250929050565b61079a81610f8a565b82525050565b6107a981610f9c565b82525050565b6107b881610fa8565b82525050565b6107cf6107ca82610fa8565b610ff8565b82525050565b60006107e2601883610f6e565b91507f45434453413a20696e76616c6964207369676e617475726500000000000000006000830152602082019050919050565b6000610822601f83610f6e565b91507f45434453413a20696e76616c6964207369676e6174757265206c656e677468006000830152602082019050919050565b600061086361010383610f7f565b91507f52656c6179526571756573742861646472657373207461726765742c6279746560008301527f7320656e636f64656446756e6374696f6e2c476173446174612067617344617460208301527f612c52656c6179446174612072656c617944617461294761734461746128756960408301527f6e74323536206761734c696d69742c75696e743235362067617350726963652c60608301527f75696e743235362070637452656c61794665652c75696e74323536206261736560808301527f52656c61794665652952656c61794461746128616464726573732073656e646560a08301527f72416464726573732c75696e743235362073656e6465724e6f6e63652c61646460c08301527f726573732072656c6179576f726b65722c61646472657373207061796d61737460e08301527f657229000000000000000000000000000000000000000000000000000000000061010083015261010382019050919050565b60006109d5600283610f7f565b91507f19010000000000000000000000000000000000000000000000000000000000006000830152600282019050919050565b6000610a15602283610f6e565b91507f45434453413a20696e76616c6964207369676e6174757265202773272076616c60008301527f75650000000000000000000000000000000000000000000000000000000000006020830152604082019050919050565b6000610a7b602283610f6e565b91507f45434453413a20696e76616c6964207369676e6174757265202776272076616c60008301527f75650000000000000000000000000000000000000000000000000000000000006020830152604082019050919050565b6000610ae1604283610f7f565b91507f454950373132446f6d61696e28737472696e67206e616d652c737472696e672060008301527f76657273696f6e2c6164647265737320766572696679696e67436f6e7472616360208301527f74290000000000000000000000000000000000000000000000000000000000006040830152604282019050919050565b6000610b6d605a83610f7f565b91507f52656c61794461746128616464726573732073656e646572416464726573732c60008301527f75696e743235362073656e6465724e6f6e63652c616464726573732072656c6160208301527f79576f726b65722c61646472657373207061796d6173746572290000000000006040830152605a82019050919050565b6000610bf9605383610f7f565b91507f476173446174612875696e74323536206761734c696d69742c75696e7432353660008301527f2067617350726963652c75696e743235362070637452656c61794665652c756960208301527f6e74323536206261736552656c617946656529000000000000000000000000006040830152605382019050919050565b610c8181610fd2565b82525050565b610c9081610fdc565b82525050565b6000610ca182610855565b9150819050919050565b6000610cb6826109c8565b9150610cc282856107be565b602082019150610cd282846107be565b6020820191508190509392505050565b6000610ced82610ad4565b9150819050919050565b6000610d0282610b60565b9150819050919050565b6000610d1782610bec565b9150819050919050565b6000602082019050610d3660008301846107a0565b92915050565b6000602082019050610d5160008301846107af565b92915050565b600060a082019050610d6c60008301886107af565b610d796020830187610791565b610d8660408301866107af565b610d9360608301856107af565b610da060808301846107af565b9695505050505050565b600060a082019050610dbf60008301886107af565b610dcc6020830187610791565b610dd96040830186610c78565b610de66060830185610791565b610df36080830184610791565b9695505050505050565b600060a082019050610e1260008301886107af565b610e1f6020830187610c78565b610e2c6040830186610c78565b610e396060830185610c78565b610e466080830184610c78565b9695505050505050565b6000608082019050610e6560008301876107af565b610e726020830186610c87565b610e7f60408301856107af565b610e8c60608301846107af565b95945050505050565b60006020820190508181036000830152610eae816107d5565b9050919050565b60006020820190508181036000830152610ece81610815565b9050919050565b60006020820190508181036000830152610eee81610a08565b9050919050565b60006020820190508181036000830152610f0e81610a6e565b9050919050565b6000604051905081810181811067ffffffffffffffff82111715610f3857600080fd5b8060405250919050565b600067ffffffffffffffff821115610f5957600080fd5b601f19601f8301169050602081019050919050565b600082825260208201905092915050565b600081905092915050565b6000610f9582610fb2565b9050919050565b60008115159050919050565b6000819050919050565b600073ffffffffffffffffffffffffffffffffffffffff82169050919050565b6000819050919050565b600060ff82169050919050565b82818337600083830152505050565b6000819050919050565b61100b81610f8a565b811461101657600080fd5b50565b61102281610fd2565b811461102d57600080fd5b5056fea26469706673582212203d05d057a2833f6c41aa482edc357c67cdde18b82b30ac5a5514b5cb4a4b231364736f6c63430006080033",
  "immutableReferences": {},
  "source": "pragma solidity ^0.6.2;\npragma experimental ABIEncoderV2;\n\nimport \"openzeppelin-solidity/contracts/cryptography/ECDSA.sol\";\nimport \"./GSNTypes.sol\";\n\n// https://github.com/ethereum/EIPs/blob/master/assets/eip-712/Example.sol\ncontract EIP712Sig {\n\n    using ECDSA for bytes32;\n\n    struct EIP712Domain {\n        string name;\n        string version;\n//        uint256 chainId;\n        address verifyingContract;\n    }\n\n    bytes32 public constant EIP712DOMAIN_TYPEHASH = keccak256(\n        \"EIP712Domain(string name,string version,address verifyingContract)\"\n    );\n\n    // solhint-disable-next-line max-line-length\n    bytes32 public constant RELAY_REQUEST_TYPEHASH = keccak256(\"RelayRequest(address target,bytes encodedFunction,GasData gasData,RelayData relayData)GasData(uint256 gasLimit,uint256 gasPrice,uint256 pctRelayFee,uint256 baseRelayFee)RelayData(address senderAddress,uint256 senderNonce,address relayWorker,address paymaster)\");\n\n    // solhint-disable-next-line max-line-length\n    bytes32 public constant CALLDATA_TYPEHASH = keccak256(\"GasData(uint256 gasLimit,uint256 gasPrice,uint256 pctRelayFee,uint256 baseRelayFee)\");\n\n    // solhint-disable-next-line max-line-length\n    bytes32 public constant RELAYDATA_TYPEHASH = keccak256(\"RelayData(address senderAddress,uint256 senderNonce,address relayWorker,address paymaster)\");\n\n    // solhint-disable-next-line var-name-mixedcase\n    bytes32 public DOMAIN_SEPARATOR; //not constant - based on chainId\n\n    constructor (address verifier) public {\n        DOMAIN_SEPARATOR = hash(EIP712Domain({\n            name : \"GSN Relayed Transaction\",\n            version : \"1\",\n//            chainId : getChainID(),\n            verifyingContract : verifier\n        }));\n    }\n\n    function hash(EIP712Domain memory eip712Domain) internal pure returns (bytes32) {\n        return keccak256(abi.encode(\n                EIP712DOMAIN_TYPEHASH,\n                keccak256(bytes(eip712Domain.name)),\n                keccak256(bytes(eip712Domain.version)),\n//                eip712Domain.chainId,\n                eip712Domain.verifyingContract\n            ));\n    }\n\n    function hash(GSNTypes.RelayRequest memory req) internal pure returns (bytes32) {\n        return keccak256(abi.encode(\n                RELAY_REQUEST_TYPEHASH,\n                    req.target,\n                    keccak256(req.encodedFunction),\n                    hash(req.gasData),\n                    hash(req.relayData)\n            ));\n    }\n\n    function hash(GSNTypes.GasData memory req) internal pure returns (bytes32) {\n        return keccak256(abi.encode(\n                CALLDATA_TYPEHASH,\n                req.gasLimit,\n                req.gasPrice,\n                req.pctRelayFee,\n                req.baseRelayFee\n            ));\n    }\n\n    function hash(GSNTypes.RelayData memory req) internal pure returns (bytes32) {\n        return keccak256(abi.encode(\n                RELAYDATA_TYPEHASH,\n                req.senderAddress,\n                req.senderNonce,\n                req.relayWorker,\n                req.paymaster\n            ));\n    }\n\n    function verify(GSNTypes.RelayRequest memory req, bytes memory signature) public view returns (bool) {\n        bytes32 digest = keccak256(abi.encodePacked(\n                \"\\x19\\x01\", DOMAIN_SEPARATOR,\n                hash(req)\n            ));\n        return digest.recover(signature) == req.relayData.senderAddress;\n    }\n\n    function getChainID() internal pure returns (uint256) {\n//        uint256 id;\n//        assembly {\n//            id := chainid()\n//        }\n        return 7;\n    }\n}\n",
  "sourcePath": "@opengsn/gsn/contracts/utils/EIP712Sig.sol",
  "compiler": {
    "name": "solc",
    "version": "0.6.8+commit.0bbfe453.Emscripten.clang"
  },
  "schemaVersion": "3.1.0",
  "updatedAt": "2020-05-24T16:03:20.025Z",
  "devdoc": {
    "methods": {}
  },
  "userdoc": {
    "methods": {}
  }
}