{
  "contractName": "InsigniaDAO",
  "abi": [
    {
      "inputs": [],
      "stateMutability": "nonpayable",
      "type": "constructor"
    },
    {
      "anonymous": false,
      "inputs": [
        {
          "indexed": false,
          "internalType": "address",
          "name": "guy",
          "type": "address"
        }
      ],
      "name": "DSRChallengeChecked",
      "type": "event"
    },
    {
      "anonymous": false,
      "inputs": [
        {
          "indexed": true,
          "internalType": "address",
          "name": "previousOwner",
          "type": "address"
        },
        {
          "indexed": true,
          "internalType": "address",
          "name": "newOwner",
          "type": "address"
        }
      ],
      "name": "OwnershipTransferred",
      "type": "event"
    },
    {
      "anonymous": false,
      "inputs": [
        {
          "indexed": false,
          "internalType": "address",
          "name": "account",
          "type": "address"
        }
      ],
      "name": "Paused",
      "type": "event"
    },
    {
      "anonymous": false,
      "inputs": [
        {
          "indexed": true,
          "internalType": "bytes32",
          "name": "role",
          "type": "bytes32"
        },
        {
          "indexed": true,
          "internalType": "address",
          "name": "account",
          "type": "address"
        },
        {
          "indexed": true,
          "internalType": "address",
          "name": "sender",
          "type": "address"
        }
      ],
      "name": "RoleGranted",
      "type": "event"
    },
    {
      "anonymous": false,
      "inputs": [
        {
          "indexed": true,
          "internalType": "bytes32",
          "name": "role",
          "type": "bytes32"
        },
        {
          "indexed": true,
          "internalType": "address",
          "name": "account",
          "type": "address"
        },
        {
          "indexed": true,
          "internalType": "address",
          "name": "sender",
          "type": "address"
        }
      ],
      "name": "RoleRevoked",
      "type": "event"
    },
    {
      "anonymous": false,
      "inputs": [
        {
          "indexed": false,
          "internalType": "address",
          "name": "account",
          "type": "address"
        }
      ],
      "name": "Unpaused",
      "type": "event"
    },
    {
      "stateMutability": "nonpayable",
      "type": "fallback"
    },
    {
      "inputs": [],
      "name": "DEFAULT_ADMIN_ROLE",
      "outputs": [
        {
          "internalType": "bytes32",
          "name": "",
          "type": "bytes32"
        }
      ],
      "stateMutability": "view",
      "type": "function",
      "constant": true
    },
    {
      "inputs": [],
      "name": "PAUSER_ROLE",
      "outputs": [
        {
          "internalType": "bytes32",
          "name": "",
          "type": "bytes32"
        }
      ],
      "stateMutability": "view",
      "type": "function",
      "constant": true
    },
    {
      "inputs": [
        {
          "internalType": "bytes32",
          "name": "role",
          "type": "bytes32"
        }
      ],
      "name": "getRoleAdmin",
      "outputs": [
        {
          "internalType": "bytes32",
          "name": "",
          "type": "bytes32"
        }
      ],
      "stateMutability": "view",
      "type": "function",
      "constant": true
    },
    {
      "inputs": [
        {
          "internalType": "bytes32",
          "name": "role",
          "type": "bytes32"
        },
        {
          "internalType": "uint256",
          "name": "index",
          "type": "uint256"
        }
      ],
      "name": "getRoleMember",
      "outputs": [
        {
          "internalType": "address",
          "name": "",
          "type": "address"
        }
      ],
      "stateMutability": "view",
      "type": "function",
      "constant": true
    },
    {
      "inputs": [
        {
          "internalType": "bytes32",
          "name": "role",
          "type": "bytes32"
        }
      ],
      "name": "getRoleMemberCount",
      "outputs": [
        {
          "internalType": "uint256",
          "name": "",
          "type": "uint256"
        }
      ],
      "stateMutability": "view",
      "type": "function",
      "constant": true
    },
    {
      "inputs": [],
      "name": "getTrustedForwarder",
      "outputs": [
        {
          "internalType": "address",
          "name": "",
          "type": "address"
        }
      ],
      "stateMutability": "view",
      "type": "function",
      "constant": true
    },
    {
      "inputs": [
        {
          "internalType": "bytes32",
          "name": "role",
          "type": "bytes32"
        },
        {
          "internalType": "address",
          "name": "account",
          "type": "address"
        }
      ],
      "name": "grantRole",
      "outputs": [],
      "stateMutability": "nonpayable",
      "type": "function"
    },
    {
      "inputs": [
        {
          "internalType": "bytes32",
          "name": "role",
          "type": "bytes32"
        },
        {
          "internalType": "address",
          "name": "account",
          "type": "address"
        }
      ],
      "name": "hasRole",
      "outputs": [
        {
          "internalType": "bool",
          "name": "",
          "type": "bool"
        }
      ],
      "stateMutability": "view",
      "type": "function",
      "constant": true
    },
    {
      "inputs": [],
      "name": "owner",
      "outputs": [
        {
          "internalType": "address",
          "name": "",
          "type": "address"
        }
      ],
      "stateMutability": "view",
      "type": "function",
      "constant": true
    },
    {
      "inputs": [],
      "name": "paused",
      "outputs": [
        {
          "internalType": "bool",
          "name": "",
          "type": "bool"
        }
      ],
      "stateMutability": "view",
      "type": "function",
      "constant": true
    },
    {
      "inputs": [],
      "name": "renounceOwnership",
      "outputs": [],
      "stateMutability": "nonpayable",
      "type": "function"
    },
    {
      "inputs": [
        {
          "internalType": "bytes32",
          "name": "role",
          "type": "bytes32"
        },
        {
          "internalType": "address",
          "name": "account",
          "type": "address"
        }
      ],
      "name": "renounceRole",
      "outputs": [],
      "stateMutability": "nonpayable",
      "type": "function"
    },
    {
      "inputs": [
        {
          "internalType": "bytes32",
          "name": "role",
          "type": "bytes32"
        },
        {
          "internalType": "address",
          "name": "account",
          "type": "address"
        }
      ],
      "name": "revokeRole",
      "outputs": [],
      "stateMutability": "nonpayable",
      "type": "function"
    },
    {
      "inputs": [
        {
          "internalType": "uint256",
          "name": "",
          "type": "uint256"
        }
      ],
      "name": "roots",
      "outputs": [
        {
          "internalType": "bytes32",
          "name": "",
          "type": "bytes32"
        }
      ],
      "stateMutability": "view",
      "type": "function",
      "constant": true
    },
    {
      "inputs": [
        {
          "internalType": "address",
          "name": "newOwner",
          "type": "address"
        }
      ],
      "name": "transferOwnership",
      "outputs": [],
      "stateMutability": "nonpayable",
      "type": "function"
    },
    {
      "inputs": [
        {
          "internalType": "bytes32[]",
          "name": "rootHashes",
          "type": "bytes32[]"
        }
      ],
      "name": "setRootHashes",
      "outputs": [
        {
          "internalType": "bool",
          "name": "",
          "type": "bool"
        }
      ],
      "stateMutability": "nonpayable",
      "type": "function"
    },
    {
      "inputs": [],
      "name": "dsrChallenge",
      "outputs": [
        {
          "internalType": "bool",
          "name": "",
          "type": "bool"
        }
      ],
      "stateMutability": "nonpayable",
      "type": "function"
    },
    {
      "inputs": [
        {
          "internalType": "address",
          "name": "guy",
          "type": "address"
        }
      ],
      "name": "verify",
      "outputs": [
        {
          "internalType": "bool",
          "name": "",
          "type": "bool"
        }
      ],
      "stateMutability": "view",
      "type": "function",
      "constant": true
    },
    {
      "inputs": [],
      "name": "pause",
      "outputs": [],
      "stateMutability": "nonpayable",
      "type": "function"
    },
    {
      "inputs": [],
      "name": "unpause",
      "outputs": [],
      "stateMutability": "nonpayable",
      "type": "function"
    }
  ],
  "bytecode": "0x60806040523480156200001157600080fd5b506000620000246200020760201b60201c565b9050806000806101000a81548173ffffffffffffffffffffffffffffffffffffffff021916908373ffffffffffffffffffffffffffffffffffffffff1602179055508073ffffffffffffffffffffffffffffffffffffffff16600073ffffffffffffffffffffffffffffffffffffffff167f8be0079c531659141344cd1fd0a4f28419497f9722a3daafe3b4186f6b6457e060405160405180910390a3506000600260006101000a81548160ff021916908315150217905550620001016000801b620000f56200022360201b60201c565b6200024c60201b60201c565b6200015760405180807f5041555345525f524f4c45000000000000000000000000000000000000000000815250600b01905060405180910390206200014b6200022360201b60201c565b6200024c60201b60201c565b73ea190dbdc7adf265260ec4da6e9675fd4f5a78bb600660006101000a81548173ffffffffffffffffffffffffffffffffffffffff021916908373ffffffffffffffffffffffffffffffffffffffff160217905550736453d37248ab2c16ebd1a8f782a2cbc65860e60b600260016101000a81548173ffffffffffffffffffffffffffffffffffffffff021916908373ffffffffffffffffffffffffffffffffffffffff160217905550620005e4565b60006200021e6200026260201b6200131b1760201c565b905090565b60008060009054906101000a900473ffffffffffffffffffffffffffffffffffffffff16905090565b6200025e82826200032c60201b60201c565b5050565b60006018600036905010158015620002b4575062000285620003d060201b60201c565b73ffffffffffffffffffffffffffffffffffffffff163373ffffffffffffffffffffffffffffffffffffffff16145b1562000325576200031d6000368080601f016020809104026020016040519081016040528093929190818152602001838380828437600081840152601f19601f820116905080830192505050505050506014600036905003620003fa60201b620013cd1760201c565b905062000329565b3390505b90565b6200035b81600160008581526020019081526020016000206000016200046760201b6200141f1790919060201c565b15620003cc57620003716200020760201b60201c565b73ffffffffffffffffffffffffffffffffffffffff168173ffffffffffffffffffffffffffffffffffffffff16837f2f8788117e7eff1d82e926ec794901d17c78024a50270940304540a733656f0d60405160405180910390a45b5050565b6000600260019054906101000a900473ffffffffffffffffffffffffffffffffffffffff16905090565b600060148201835110156200043c576200043b6200042a60048551601486016200049f60201b6200144f1760201c565b6200053f60201b620014ee1760201c565b5b60148201915073ffffffffffffffffffffffffffffffffffffffff8284015116905080905092915050565b600062000497836000018373ffffffffffffffffffffffffffffffffffffffff1660001b6200054760201b60201c565b905092915050565b6060632800659560e01b84848460405160240180846007811115620004c057fe5b60ff1681526020018381526020018281526020019350505050604051602081830303815290604052907bffffffffffffffffffffffffffffffffffffffffffffffffffffffff19166020820180517bffffffffffffffffffffffffffffffffffffffffffffffffffffffff838183161783525050505090509392505050565b805160208201fd5b60006200055b8383620005c160201b60201c565b620005b6578260000182908060018154018082558091505060019003906000526020600020016000909190919091505582600001805490508360010160008481526020019081526020016000208190555060019050620005bb565b600090505b92915050565b600080836001016000848152602001908152602001600020541415905092915050565b6121a880620005f46000396000f3fe608060405234801561001057600080fd5b50600436106101305760003560e01c80639010d07c116100ad578063ca15c87311610071578063ca15c8731461052a578063ce1b815f1461056c578063d547741f146105b6578063e63ab1e914610604578063f2fde38b1461062257610131565b80639010d07c1461031c57806391d1485414610394578063a217fddf146103fa578063aca5770314610418578063c2b40ae4146104e857610131565b806363a9c3d7116100f457806363a9c3d71461024057806368e4a1331461029c578063715018a6146102be5780638456cb59146102c85780638da5cb5b146102d257610131565b8063248a9ca3146101365780632f2ff15d1461017857806336568abe146101c65780633f4ba83a146102145780635c975abb1461021e57610131565b5b600080fd5b6101626004803603602081101561014c57600080fd5b8101908080359060200190929190505050610666565b6040518082815260200191505060405180910390f35b6101c46004803603604081101561018e57600080fd5b8101908080359060200190929190803573ffffffffffffffffffffffffffffffffffffffff169060200190929190505050610686565b005b610212600480360360408110156101dc57600080fd5b8101908080359060200190929190803573ffffffffffffffffffffffffffffffffffffffff169060200190929190505050610710565b005b61021c6107a9565b005b61022661084e565b604051808215151515815260200191505060405180910390f35b6102826004803603602081101561025657600080fd5b81019080803573ffffffffffffffffffffffffffffffffffffffff169060200190929190505050610865565b604051808215151515815260200191505060405180910390f35b6102a46109d1565b604051808215151515815260200191505060405180910390f35b6102c6610baa565b005b6102d0610d32565b005b6102da610dd7565b604051808273ffffffffffffffffffffffffffffffffffffffff1673ffffffffffffffffffffffffffffffffffffffff16815260200191505060405180910390f35b6103526004803603604081101561033257600080fd5b810190808035906020019092919080359060200190929190505050610e00565b604051808273ffffffffffffffffffffffffffffffffffffffff1673ffffffffffffffffffffffffffffffffffffffff16815260200191505060405180910390f35b6103e0600480360360408110156103aa57600080fd5b8101908080359060200190929190803573ffffffffffffffffffffffffffffffffffffffff169060200190929190505050610e32565b604051808215151515815260200191505060405180910390f35b610402610e64565b6040518082815260200191505060405180910390f35b6104ce6004803603602081101561042e57600080fd5b810190808035906020019064010000000081111561044b57600080fd5b82018360208201111561045d57600080fd5b8035906020019184602083028401116401000000008311171561047f57600080fd5b919080806020026020016040519081016040528093929190818152602001838360200280828437600081840152601f19601f820116905080830192505050505050509192919290505050610e6b565b604051808215151515815260200191505060405180910390f35b610514600480360360208110156104fe57600080fd5b8101908080359060200190929190505050610fd9565b6040518082815260200191505060405180910390f35b6105566004803603602081101561054057600080fd5b8101908080359060200190929190505050610ffa565b6040518082815260200191505060405180910390f35b610574611021565b604051808273ffffffffffffffffffffffffffffffffffffffff1673ffffffffffffffffffffffffffffffffffffffff16815260200191505060405180910390f35b610602600480360360408110156105cc57600080fd5b8101908080359060200190929190803573ffffffffffffffffffffffffffffffffffffffff16906020019092919050505061104b565b005b61060c6110d5565b6040518082815260200191505060405180910390f35b6106646004803603602081101561063857600080fd5b81019080803573ffffffffffffffffffffffffffffffffffffffff16906020019092919050505061110e565b005b600060016000838152602001908152602001600020600201549050919050565b6106ad60016000848152602001908152602001600020600201546106a86114f6565b610e32565b610702576040517f08c379a000000000000000000000000000000000000000000000000000000000815260040180806020018281038252602f81526020018061201d602f913960400191505060405180910390fd5b61070c8282611505565b5050565b6107186114f6565b73ffffffffffffffffffffffffffffffffffffffff168173ffffffffffffffffffffffffffffffffffffffff161461079b576040517f08c379a000000000000000000000000000000000000000000000000000000000815260040180806020018281038252602f815260200180612144602f913960400191505060405180910390fd5b6107a58282611599565b5050565b6107ef60405180807f5041555345525f524f4c45000000000000000000000000000000000000000000815250600b01905060405180910390206107ea6114f6565b610e32565b610844576040517f08c379a000000000000000000000000000000000000000000000000000000000815260040180806020018281038252602d8152602001806120ec602d913960400191505060405180910390fd5b61084c61162d565b565b6000600260009054906101000a900460ff16905090565b6000600260009054906101000a900460ff16156108ea576040517f08c379a00000000000000000000000000000000000000000000000000000000081526004018080602001828103825260108152602001807f5061757361626c653a207061757365640000000000000000000000000000000081525060200191505060405180910390fd5b61095682604051602001808273ffffffffffffffffffffffffffffffffffffffff1673ffffffffffffffffffffffffffffffffffffffff1660601b81526014019150506040516020818303038152906040528051906020012060001c600461173690919063ffffffff16565b6109c8576040517f08c379a000000000000000000000000000000000000000000000000000000000815260040180806020018281038252601d8152602001807f5468652061646472657373206973206e6f7420612072656465656d657200000081525060200191505060405180910390fd5b60019050919050565b6000600260009054906101000a900460ff1615610a56576040517f08c379a00000000000000000000000000000000000000000000000000000000081526004018080602001828103825260108152602001807f5061757361626c653a207061757365640000000000000000000000000000000081525060200191505060405180910390fd5b670de0b6b3a7640000610a6f610a6a6114f6565b611766565b14610ac5576040517f08c379a00000000000000000000000000000000000000000000000000000000081526004018080602001828103825260298152602001806120726029913960400191505060405180910390fd5b610b38610ad06114f6565b604051602001808273ffffffffffffffffffffffffffffffffffffffff1673ffffffffffffffffffffffffffffffffffffffff1660601b81526014019150506040516020818303038152906040528051906020012060001c600461141f90919063ffffffff16565b507fc75990e9b8a5c195752f79cf4bd0df253f949a439ed1f88b30cb2ddc10a716d4610b626114f6565b604051808273ffffffffffffffffffffffffffffffffffffffff1673ffffffffffffffffffffffffffffffffffffffff16815260200191505060405180910390a16001905090565b610bb26114f6565b73ffffffffffffffffffffffffffffffffffffffff166000809054906101000a900473ffffffffffffffffffffffffffffffffffffffff1673ffffffffffffffffffffffffffffffffffffffff1614610c73576040517f08c379a00000000000000000000000000000000000000000000000000000000081526004018080602001828103825260208152602001807f4f776e61626c653a2063616c6c6572206973206e6f7420746865206f776e657281525060200191505060405180910390fd5b600073ffffffffffffffffffffffffffffffffffffffff166000809054906101000a900473ffffffffffffffffffffffffffffffffffffffff1673ffffffffffffffffffffffffffffffffffffffff167f8be0079c531659141344cd1fd0a4f28419497f9722a3daafe3b4186f6b6457e060405160405180910390a360008060006101000a81548173ffffffffffffffffffffffffffffffffffffffff021916908373ffffffffffffffffffffffffffffffffffffffff160217905550565b610d7860405180807f5041555345525f524f4c45000000000000000000000000000000000000000000815250600b0190506040518091039020610d736114f6565b610e32565b610dcd576040517f08c379a000000000000000000000000000000000000000000000000000000000815260040180806020018281038252602b815260200180612119602b913960400191505060405180910390fd5b610dd5611ad5565b565b60008060009054906101000a900473ffffffffffffffffffffffffffffffffffffffff16905090565b6000610e2a8260016000868152602001908152602001600020600001611bdf90919063ffffffff16565b905092915050565b6000610e5c826001600086815260200190815260200160002060000161173690919063ffffffff16565b905092915050565b6000801b81565b6000610e756114f6565b73ffffffffffffffffffffffffffffffffffffffff166000809054906101000a900473ffffffffffffffffffffffffffffffffffffffff1673ffffffffffffffffffffffffffffffffffffffff1614610f36576040517f08c379a00000000000000000000000000000000000000000000000000000000081526004018080602001828103825260208152602001807f4f776e61626c653a2063616c6c6572206973206e6f7420746865206f776e657281525060200191505060405180910390fd5b600260009054906101000a900460ff1615610fb9576040517f08c379a00000000000000000000000000000000000000000000000000000000081526004018080602001828103825260108152602001807f5061757361626c653a207061757365640000000000000000000000000000000081525060200191505060405180910390fd5b8160039080519060200190610fcf929190611f88565b5060019050919050565b60038181548110610fe657fe5b906000526020600020016000915090505481565b600061101a60016000848152602001908152602001600020600001611bf9565b9050919050565b6000600260019054906101000a900473ffffffffffffffffffffffffffffffffffffffff16905090565b611072600160008481526020019081526020016000206002015461106d6114f6565b610e32565b6110c7576040517f08c379a000000000000000000000000000000000000000000000000000000000815260040180806020018281038252603081526020018061209b6030913960400191505060405180910390fd5b6110d18282611599565b5050565b60405180807f5041555345525f524f4c45000000000000000000000000000000000000000000815250600b019050604051809103902081565b6111166114f6565b73ffffffffffffffffffffffffffffffffffffffff166000809054906101000a900473ffffffffffffffffffffffffffffffffffffffff1673ffffffffffffffffffffffffffffffffffffffff16146111d7576040517f08c379a00000000000000000000000000000000000000000000000000000000081526004018080602001828103825260208152602001807f4f776e61626c653a2063616c6c6572206973206e6f7420746865206f776e657281525060200191505060405180910390fd5b600073ffffffffffffffffffffffffffffffffffffffff168173ffffffffffffffffffffffffffffffffffffffff16141561125d576040517f08c379a000000000000000000000000000000000000000000000000000000000815260040180806020018281038252602681526020018061204c6026913960400191505060405180910390fd5b8073ffffffffffffffffffffffffffffffffffffffff166000809054906101000a900473ffffffffffffffffffffffffffffffffffffffff1673ffffffffffffffffffffffffffffffffffffffff167f8be0079c531659141344cd1fd0a4f28419497f9722a3daafe3b4186f6b6457e060405160405180910390a3806000806101000a81548173ffffffffffffffffffffffffffffffffffffffff021916908373ffffffffffffffffffffffffffffffffffffffff16021790555050565b600060186000369050101580156113645750611335611021565b73ffffffffffffffffffffffffffffffffffffffff163373ffffffffffffffffffffffffffffffffffffffff16145b156113c6576113bf6000368080601f016020809104026020016040519081016040528093929190818152602001838380828437600081840152601f19601f8201169050808301925050505050505060146000369050036113cd565b90506113ca565b3390505b90565b600060148201835110156113f4576113f36113ee600485516014860161144f565b6114ee565b5b60148201915073ffffffffffffffffffffffffffffffffffffffff8284015116905080905092915050565b6000611447836000018373ffffffffffffffffffffffffffffffffffffffff1660001b611c0e565b905092915050565b6060632800659560e01b8484846040516024018084600781111561146f57fe5b60ff1681526020018381526020018281526020019350505050604051602081830303815290604052907bffffffffffffffffffffffffffffffffffffffffffffffffffffffff19166020820180517bffffffffffffffffffffffffffffffffffffffffffffffffffffffff838183161783525050505090509392505050565b805160208201fd5b600061150061131b565b905090565b61152d816001600085815260200190815260200160002060000161141f90919063ffffffff16565b156115955761153a6114f6565b73ffffffffffffffffffffffffffffffffffffffff168173ffffffffffffffffffffffffffffffffffffffff16837f2f8788117e7eff1d82e926ec794901d17c78024a50270940304540a733656f0d60405160405180910390a45b5050565b6115c18160016000858152602001908152602001600020600001611c7e90919063ffffffff16565b15611629576115ce6114f6565b73ffffffffffffffffffffffffffffffffffffffff168173ffffffffffffffffffffffffffffffffffffffff16837ff6391f5c32d9c69d2a47ea670b442974b53935d1edc7fd64eb21e047a839171b60405160405180910390a45b5050565b600260009054906101000a900460ff166116af576040517f08c379a00000000000000000000000000000000000000000000000000000000081526004018080602001828103825260148152602001807f5061757361626c653a206e6f742070617573656400000000000000000000000081525060200191505060405180910390fd5b6000600260006101000a81548160ff0219169083151502179055507f5db9ee0a495bf2e6ff9c91a7834c1ba4fdd244a5e8aa4e537bd38aeae4b073aa6116f36114f6565b604051808273ffffffffffffffffffffffffffffffffffffffff1673ffffffffffffffffffffffffffffffffffffffff16815260200191505060405180910390a1565b600061175e836000018373ffffffffffffffffffffffffffffffffffffffff1660001b611cae565b905092915050565b6000600260009054906101000a900460ff16156117eb576040517f08c379a00000000000000000000000000000000000000000000000000000000081526004018080602001828103825260108152602001807f5061757361626c653a207061757365640000000000000000000000000000000081525060200191505060405180910390fd5b6000600660009054906101000a900473ffffffffffffffffffffffffffffffffffffffff1673ffffffffffffffffffffffffffffffffffffffff16630bebac86846040518263ffffffff1660e01b8152600401808273ffffffffffffffffffffffffffffffffffffffff1673ffffffffffffffffffffffffffffffffffffffff16815260200191505060206040518083038186803b15801561188c57600080fd5b505afa1580156118a0573d6000803e3d6000fd5b505050506040513d60208110156118b657600080fd5b810190808051906020019092919050505090506000600660009054906101000a900473ffffffffffffffffffffffffffffffffffffffff1673ffffffffffffffffffffffffffffffffffffffff166320aba08b6040518163ffffffff1660e01b815260040160206040518083038186803b15801561193357600080fd5b505afa158015611947573d6000803e3d6000fd5b505050506040513d602081101561195d57600080fd5b81019080805190602001909291905050504211611a1c57600660009054906101000a900473ffffffffffffffffffffffffffffffffffffffff1673ffffffffffffffffffffffffffffffffffffffff1663c92aecc46040518163ffffffff1660e01b815260040160206040518083038186803b1580156119dc57600080fd5b505afa1580156119f0573d6000803e3d6000fd5b505050506040513d6020811015611a0657600080fd5b8101908080519060200190929190505050611ac0565b600660009054906101000a900473ffffffffffffffffffffffffffffffffffffffff1673ffffffffffffffffffffffffffffffffffffffff16639f678cca6040518163ffffffff1660e01b815260040160206040518083038186803b158015611a8457600080fd5b505afa158015611a98573d6000803e3d6000fd5b505050506040513d6020811015611aae57600080fd5b81019080805190602001909291905050505b9050611acc8282611cd1565b92505050919050565b600260009054906101000a900460ff1615611b58576040517f08c379a00000000000000000000000000000000000000000000000000000000081526004018080602001828103825260108152602001807f5061757361626c653a207061757365640000000000000000000000000000000081525060200191505060405180910390fd5b6001600260006101000a81548160ff0219169083151502179055507f62e78cea01bee320cd4e420270b5ea74000d11b0c9f74754ebdbfc544b05a258611b9c6114f6565b604051808273ffffffffffffffffffffffffffffffffffffffff1673ffffffffffffffffffffffffffffffffffffffff16815260200191505060405180910390a1565b6000611bee8360000183611d86565b60001c905092915050565b6000611c0782600001611e09565b9050919050565b6000611c1a8383611cae565b611c73578260000182908060018154018082558091505060019003906000526020600020016000909190919091505582600001805490508360010160008481526020019081526020016000208190555060019050611c78565b600090505b92915050565b6000611ca6836000018373ffffffffffffffffffffffffffffffffffffffff1660001b611e1a565b905092915050565b600080836001016000848152602001908152602001600020541415905092915050565b6000600260009054906101000a900460ff1615611d56576040517f08c379a00000000000000000000000000000000000000000000000000000000081526004018080602001828103825260108152602001807f5061757361626c653a207061757365640000000000000000000000000000000081525060200191505060405180910390fd5b6b033b2e3c9fd0803ce8000000611d768385611f0290919063ffffffff16565b81611d7d57fe5b04905092915050565b600081836000018054905011611de7576040517f08c379a0000000000000000000000000000000000000000000000000000000008152600401808060200182810382526022815260200180611ffb6022913960400191505060405180910390fd5b826000018281548110611df657fe5b9060005260206000200154905092915050565b600081600001805490509050919050565b60008083600101600084815260200190815260200160002054905060008114611ef65760006001820390506000600186600001805490500390506000866000018281548110611e6557fe5b9060005260206000200154905080876000018481548110611e8257fe5b9060005260206000200181905550600183018760010160008381526020019081526020016000208190555086600001805480611eba57fe5b60019003818190600052602060002001600090559055866001016000878152602001908152602001600020600090556001945050505050611efc565b60009150505b92915050565b600080831415611f155760009050611f82565b6000828402905082848281611f2657fe5b0414611f7d576040517f08c379a00000000000000000000000000000000000000000000000000000000081526004018080602001828103825260218152602001806120cb6021913960400191505060405180910390fd5b809150505b92915050565b828054828255906000526020600020908101928215611fc4579160200282015b82811115611fc3578251825591602001919060010190611fa8565b5b509050611fd19190611fd5565b5090565b611ff791905b80821115611ff3576000816000905550600101611fdb565b5090565b9056fe456e756d657261626c655365743a20696e646578206f7574206f6620626f756e6473416363657373436f6e74726f6c3a2073656e646572206d75737420626520616e2061646d696e20746f206772616e744f776e61626c653a206e6577206f776e657220697320746865207a65726f20616464726573735468652063616c6c657220686173206e6f74206163637275656420312044616920696e746572657374416363657373436f6e74726f6c3a2073656e646572206d75737420626520616e2061646d696e20746f207265766f6b65536166654d6174683a206d756c7469706c69636174696f6e206f766572666c6f77496e7369676e696144414f3a206d75737420686176652070617573657220726f6c6520746f20756e7061757365496e7369676e696144414f3a206d75737420686176652070617573657220726f6c6520746f207061757365416363657373436f6e74726f6c3a2063616e206f6e6c792072656e6f756e636520726f6c657320666f722073656c66a264697066735822122076b2258294427f09da96e93720b1385f2c45a4138545e452e606b26e6fe8432c64736f6c63430006080033",
  "immutableReferences": {},
  "source": "/// SPDX-License-Identifier: GPL-3.0\npragma solidity 0.6.8;\n\n/// @title Non-transferable Badges for Maker Ecosystem Activity, issue #537\n/// @author Nazzareno Massari, Scott Herren\n/// @notice InsigniaDAO to check for activities on maker ecosystem and keep track of redeemers\n/// @dev see https://github.com/makerdao/community/issues/537\n/// @dev All function calls are currently implemented without side effecs through TDD approach\n/// @dev OpenZeppelin library is used for secure contract development\n\nimport \"@openzeppelin/contracts/access/Ownable.sol\";\nimport \"@openzeppelin/contracts/access/AccessControl.sol\";\nimport \"@openzeppelin/contracts/utils/Pausable.sol\";\nimport \"@openzeppelin/contracts/math/SafeMath.sol\";\nimport \"@openzeppelin/contracts/utils/EnumerableSet.sol\";\nimport \"@opengsn/gsn/contracts/BaseRelayRecipient.sol\";\n\ninterface PotLike {\n\n    function pie(address guy) external view returns (uint256);\n    function chi() external view returns (uint256);\n    function rho() external view returns (uint256);\n    function drip() external view returns (uint256);\n\n}\n\ncontract InsigniaDAO is Ownable, AccessControl, Pausable, BaseRelayRecipient {\n\n  /// Libraries\n  using SafeMath for uint256;\n  using EnumerableSet for EnumerableSet.AddressSet;\n\n  bytes32 public constant PAUSER_ROLE = keccak256(\"PAUSER_ROLE\");\n\n  bytes32[] public roots;\n\n  EnumerableSet.AddressSet private redeemers;\n\n  /// Events\n  event DSRChallengeChecked(address guy);\n\n  PotLike  internal pot;\n\n  /// Math\n  uint256 constant RAY = 10 ** 27;\n\n  function rmul(uint256 x, uint256 y) internal view whenNotPaused returns (uint256 z) {\n          // always rounds down\n          z = x.mul(y) / RAY;\n  }\n\n  constructor() public {\n        _setupRole(DEFAULT_ADMIN_ROLE, owner());\n\n        _setupRole(PAUSER_ROLE, owner());\n\n        // MCD_POT Kovan Address https://kovan.etherscan.io/address/0xea190dbdc7adf265260ec4da6e9675fd4f5a78bb#code\n\t\t\t  pot = PotLike(0xEA190DBDC7adF265260ec4dA6e9675Fd4f5A78bb);\n\n        /// OpenGSN TruestedForwarder on Kovan\n        trustedForwarder = 0x6453D37248Ab2C16eBd1A8f782a2CBC65860E60B;\n  }\n\n  /// @notice Fallback function\n  /// @dev Added not payable to revert transactions not matching any other function which send value\n  fallback() external {\n    revert();\n  }\n\n  /// @notice OpenGSN _msgSender()\n  /// @dev override _msgSender() in OZ Context.sol and BaseRelayRecipient.sol\n  /// @return msg.sender after relay call\n  function _msgSender() internal override(Context, BaseRelayRecipient) view returns (address payable) {\n            return BaseRelayRecipient._msgSender();\n  }\n\n  /// @notice Set Merkle Tree Root Hashes array\n  /// @dev Called by owner to update roots for different address batches by templateId\n  /// @param rootHashes Root hashes of the Merkle Trees by templateId\n  /// @return True if successfully updated\n  function setRootHashes(bytes32[] memory rootHashes) public onlyOwner whenNotPaused returns (bool) {\n    roots = rootHashes;\n    return true;\n  }\n\n  /// @notice Return the accrued interest of guy on Pot\n  /// @dev Based on Chai dai() function\n  /// @param guy Address to check\n  /// @return wad Accrued interest of guy\n  function _dai(address guy) internal view whenNotPaused returns (uint256 wad) {\n    uint256 slice = pot.pie(guy);\n    uint256 chi = (now > pot.rho()) ? pot.drip() : pot.chi();\n    wad = rmul(slice, chi);\n  }\n\n  /// @notice First Challange: Earn 1$ interest on DSR\n  /// @dev Keep track of the hash of the caller if successful\n  /// @return True if the caller successfully checked for challange\n  function dsrChallenge() public whenNotPaused returns (bool) {\n    require(_dai(_msgSender()) == 1 ether, \"The caller has not accrued 1 Dai interest\");\n    redeemers.add(address(uint160(uint256(keccak256(abi.encodePacked(_msgSender()))))));\n    emit DSRChallengeChecked(_msgSender());\n    return true;\n  }\n\n  /// @notice Check if guy is a redeemer\n  /// @dev Verify if the hash of guy address exists\n  /// @param guy Address to verify\n  /// @return True if guy is a redeemer\n  function verify(address guy) public view whenNotPaused returns (bool) {\n    require(redeemers.contains(address(uint160(uint256(keccak256(abi.encodePacked(guy)))))), \"The address is not a redeemer\");\n    return true;\n  }\n\n  /// @notice Pause all the functions\n  /// @dev the caller must have the 'PAUSER_ROLE'\n  function pause() public {\n    require(hasRole(PAUSER_ROLE, _msgSender()), \"InsigniaDAO: must have pauser role to pause\");\n    _pause();\n  }\n\n  /// @notice Unpause all the functions\n  /// @dev the caller must have the 'PAUSER_ROLE'\n  function unpause() public {\n        require(hasRole(PAUSER_ROLE, _msgSender()), \"InsigniaDAO: must have pauser role to unpause\");\n        _unpause();\n    }\n\n}\n",
  "sourcePath": "/home/sencha/insigniadao/contracts/InsigniaDAO.sol",
  "compiler": {
    "name": "solc",
    "version": "0.6.8+commit.0bbfe453.Emscripten.clang"
  },
  "schemaVersion": "3.1.0",
  "updatedAt": "2020-05-19T14:53:28.367Z",
  "networkType": "ethereum",
  "devdoc": {
    "methods": {
      "dsrChallenge()": {
        "details": "Keep track of the hash of the caller if successful",
        "returns": {
          "_0": "True if the caller successfully checked for challange"
        }
      },
      "getRoleAdmin(bytes32)": {
        "details": "Returns the admin role that controls `role`. See {grantRole} and {revokeRole}.     * To change a role's admin, use {_setRoleAdmin}."
      },
      "getRoleMember(bytes32,uint256)": {
        "details": "Returns one of the accounts that have `role`. `index` must be a value between 0 and {getRoleMemberCount}, non-inclusive.     * Role bearers are not sorted in any particular way, and their ordering may change at any point.     * WARNING: When using {getRoleMember} and {getRoleMemberCount}, make sure you perform all queries on the same block. See the following https://forum.openzeppelin.com/t/iterating-over-elements-on-enumerableset-in-openzeppelin-contracts/2296[forum post] for more information."
      },
      "getRoleMemberCount(bytes32)": {
        "details": "Returns the number of accounts that have `role`. Can be used together with {getRoleMember} to enumerate all bearers of a role."
      },
      "grantRole(bytes32,address)": {
        "details": "Grants `role` to `account`.     * If `account` had not been already granted `role`, emits a {RoleGranted} event.     * Requirements:     * - the caller must have ``role``'s admin role."
      },
      "hasRole(bytes32,address)": {
        "details": "Returns `true` if `account` has been granted `role`."
      },
      "owner()": {
        "details": "Returns the address of the current owner."
      },
      "pause()": {
        "details": "the caller must have the 'PAUSER_ROLE'"
      },
      "paused()": {
        "details": "Returns true if the contract is paused, and false otherwise."
      },
      "renounceOwnership()": {
        "details": "Leaves the contract without owner. It will not be possible to call `onlyOwner` functions anymore. Can only be called by the current owner.     * NOTE: Renouncing ownership will leave the contract without an owner, thereby removing any functionality that is only available to the owner."
      },
      "renounceRole(bytes32,address)": {
        "details": "Revokes `role` from the calling account.     * Roles are often managed via {grantRole} and {revokeRole}: this function's purpose is to provide a mechanism for accounts to lose their privileges if they are compromised (such as when a trusted device is misplaced).     * If the calling account had been granted `role`, emits a {RoleRevoked} event.     * Requirements:     * - the caller must be `account`."
      },
      "revokeRole(bytes32,address)": {
        "details": "Revokes `role` from `account`.     * If `account` had been granted `role`, emits a {RoleRevoked} event.     * Requirements:     * - the caller must have ``role``'s admin role."
      },
      "setRootHashes(bytes32[])": {
        "details": "Called by owner to update roots for different address batches by templateId",
        "params": {
          "rootHashes": "Root hashes of the Merkle Trees by templateId"
        },
        "returns": {
          "_0": "True if successfully updated"
        }
      },
      "transferOwnership(address)": {
        "details": "Transfers ownership of the contract to a new account (`newOwner`). Can only be called by the current owner."
      },
      "unpause()": {
        "details": "the caller must have the 'PAUSER_ROLE'"
      },
      "verify(address)": {
        "details": "Verify if the hash of guy address exists",
        "params": {
          "guy": "Address to verify"
        },
        "returns": {
          "_0": "True if guy is a redeemer"
        }
      }
    }
  },
  "userdoc": {
    "methods": {
      "dsrChallenge()": {
        "notice": "First Challange: Earn 1$ interest on DSR"
      },
      "pause()": {
        "notice": "Pause all the functions"
      },
      "setRootHashes(bytes32[])": {
        "notice": "Set Merkle Tree Root Hashes array"
      },
      "unpause()": {
        "notice": "Unpause all the functions"
      },
      "verify(address)": {
        "notice": "Check if guy is a redeemer"
      }
    }
  }
}