{
  "contractName": "InsigniaDAO",
  "abi": [
    {
      "inputs": [],
      "stateMutability": "nonpayable",
      "type": "constructor"
    },
    {
      "anonymous": false,
      "inputs": [
        {
          "indexed": false,
          "internalType": "address",
          "name": "guy",
          "type": "address"
        }
      ],
      "name": "DSChiefChecked",
      "type": "event"
    },
    {
      "anonymous": false,
      "inputs": [
        {
          "indexed": false,
          "internalType": "address",
          "name": "guy",
          "type": "address"
        }
      ],
      "name": "FlipperChecked",
      "type": "event"
    },
    {
      "anonymous": false,
      "inputs": [
        {
          "indexed": true,
          "internalType": "address",
          "name": "previousOwner",
          "type": "address"
        },
        {
          "indexed": true,
          "internalType": "address",
          "name": "newOwner",
          "type": "address"
        }
      ],
      "name": "OwnershipTransferred",
      "type": "event"
    },
    {
      "anonymous": false,
      "inputs": [
        {
          "indexed": false,
          "internalType": "address",
          "name": "account",
          "type": "address"
        }
      ],
      "name": "Paused",
      "type": "event"
    },
    {
      "anonymous": false,
      "inputs": [
        {
          "indexed": false,
          "internalType": "address",
          "name": "guy",
          "type": "address"
        }
      ],
      "name": "PotChecked",
      "type": "event"
    },
    {
      "anonymous": false,
      "inputs": [
        {
          "indexed": true,
          "internalType": "bytes32",
          "name": "role",
          "type": "bytes32"
        },
        {
          "indexed": true,
          "internalType": "address",
          "name": "account",
          "type": "address"
        },
        {
          "indexed": true,
          "internalType": "address",
          "name": "sender",
          "type": "address"
        }
      ],
      "name": "RoleGranted",
      "type": "event"
    },
    {
      "anonymous": false,
      "inputs": [
        {
          "indexed": true,
          "internalType": "bytes32",
          "name": "role",
          "type": "bytes32"
        },
        {
          "indexed": true,
          "internalType": "address",
          "name": "account",
          "type": "address"
        },
        {
          "indexed": true,
          "internalType": "address",
          "name": "sender",
          "type": "address"
        }
      ],
      "name": "RoleRevoked",
      "type": "event"
    },
    {
      "anonymous": false,
      "inputs": [
        {
          "indexed": false,
          "internalType": "address",
          "name": "account",
          "type": "address"
        }
      ],
      "name": "Unpaused",
      "type": "event"
    },
    {
      "stateMutability": "nonpayable",
      "type": "fallback"
    },
    {
      "inputs": [],
      "name": "DEFAULT_ADMIN_ROLE",
      "outputs": [
        {
          "internalType": "bytes32",
          "name": "",
          "type": "bytes32"
        }
      ],
      "stateMutability": "view",
      "type": "function",
      "constant": true
    },
    {
      "inputs": [],
      "name": "PAUSER_ROLE",
      "outputs": [
        {
          "internalType": "bytes32",
          "name": "",
          "type": "bytes32"
        }
      ],
      "stateMutability": "view",
      "type": "function",
      "constant": true
    },
    {
      "inputs": [
        {
          "internalType": "bytes32",
          "name": "role",
          "type": "bytes32"
        }
      ],
      "name": "getRoleAdmin",
      "outputs": [
        {
          "internalType": "bytes32",
          "name": "",
          "type": "bytes32"
        }
      ],
      "stateMutability": "view",
      "type": "function",
      "constant": true
    },
    {
      "inputs": [
        {
          "internalType": "bytes32",
          "name": "role",
          "type": "bytes32"
        },
        {
          "internalType": "uint256",
          "name": "index",
          "type": "uint256"
        }
      ],
      "name": "getRoleMember",
      "outputs": [
        {
          "internalType": "address",
          "name": "",
          "type": "address"
        }
      ],
      "stateMutability": "view",
      "type": "function",
      "constant": true
    },
    {
      "inputs": [
        {
          "internalType": "bytes32",
          "name": "role",
          "type": "bytes32"
        }
      ],
      "name": "getRoleMemberCount",
      "outputs": [
        {
          "internalType": "uint256",
          "name": "",
          "type": "uint256"
        }
      ],
      "stateMutability": "view",
      "type": "function",
      "constant": true
    },
    {
      "inputs": [
        {
          "internalType": "bytes32",
          "name": "role",
          "type": "bytes32"
        },
        {
          "internalType": "address",
          "name": "account",
          "type": "address"
        }
      ],
      "name": "grantRole",
      "outputs": [],
      "stateMutability": "nonpayable",
      "type": "function"
    },
    {
      "inputs": [
        {
          "internalType": "bytes32",
          "name": "role",
          "type": "bytes32"
        },
        {
          "internalType": "address",
          "name": "account",
          "type": "address"
        }
      ],
      "name": "hasRole",
      "outputs": [
        {
          "internalType": "bool",
          "name": "",
          "type": "bool"
        }
      ],
      "stateMutability": "view",
      "type": "function",
      "constant": true
    },
    {
      "inputs": [],
      "name": "owner",
      "outputs": [
        {
          "internalType": "address",
          "name": "",
          "type": "address"
        }
      ],
      "stateMutability": "view",
      "type": "function",
      "constant": true
    },
    {
      "inputs": [],
      "name": "paused",
      "outputs": [
        {
          "internalType": "bool",
          "name": "",
          "type": "bool"
        }
      ],
      "stateMutability": "view",
      "type": "function",
      "constant": true
    },
    {
      "inputs": [],
      "name": "renounceOwnership",
      "outputs": [],
      "stateMutability": "nonpayable",
      "type": "function"
    },
    {
      "inputs": [
        {
          "internalType": "bytes32",
          "name": "role",
          "type": "bytes32"
        },
        {
          "internalType": "address",
          "name": "account",
          "type": "address"
        }
      ],
      "name": "renounceRole",
      "outputs": [],
      "stateMutability": "nonpayable",
      "type": "function"
    },
    {
      "inputs": [
        {
          "internalType": "bytes32",
          "name": "role",
          "type": "bytes32"
        },
        {
          "internalType": "address",
          "name": "account",
          "type": "address"
        }
      ],
      "name": "revokeRole",
      "outputs": [],
      "stateMutability": "nonpayable",
      "type": "function"
    },
    {
      "inputs": [
        {
          "internalType": "uint256",
          "name": "",
          "type": "uint256"
        }
      ],
      "name": "roots",
      "outputs": [
        {
          "internalType": "bytes32",
          "name": "",
          "type": "bytes32"
        }
      ],
      "stateMutability": "view",
      "type": "function",
      "constant": true
    },
    {
      "inputs": [
        {
          "internalType": "address",
          "name": "newOwner",
          "type": "address"
        }
      ],
      "name": "transferOwnership",
      "outputs": [],
      "stateMutability": "nonpayable",
      "type": "function"
    },
    {
      "inputs": [
        {
          "internalType": "bytes32[]",
          "name": "rootHashes",
          "type": "bytes32[]"
        }
      ],
      "name": "setRootHashes",
      "outputs": [
        {
          "internalType": "bool",
          "name": "",
          "type": "bool"
        }
      ],
      "stateMutability": "nonpayable",
      "type": "function"
    },
    {
      "inputs": [
        {
          "internalType": "uint256",
          "name": "templateId",
          "type": "uint256"
        }
      ],
      "name": "potChallenge",
      "outputs": [
        {
          "internalType": "bool",
          "name": "",
          "type": "bool"
        }
      ],
      "stateMutability": "nonpayable",
      "type": "function"
    },
    {
      "inputs": [
        {
          "internalType": "uint256",
          "name": "templateId",
          "type": "uint256"
        }
      ],
      "name": "chiefChallenge",
      "outputs": [
        {
          "internalType": "bool",
          "name": "",
          "type": "bool"
        }
      ],
      "stateMutability": "nonpayable",
      "type": "function"
    },
    {
      "inputs": [
        {
          "internalType": "uint256",
          "name": "templateId",
          "type": "uint256"
        },
        {
          "internalType": "uint256",
          "name": "bidId",
          "type": "uint256"
        }
      ],
      "name": "flipperChallenge",
      "outputs": [
        {
          "internalType": "bool",
          "name": "",
          "type": "bool"
        }
      ],
      "stateMutability": "nonpayable",
      "type": "function"
    },
    {
      "inputs": [
        {
          "internalType": "uint256",
          "name": "templateId",
          "type": "uint256"
        },
        {
          "internalType": "address",
          "name": "guy",
          "type": "address"
        }
      ],
      "name": "verify",
      "outputs": [
        {
          "internalType": "bool",
          "name": "",
          "type": "bool"
        }
      ],
      "stateMutability": "view",
      "type": "function",
      "constant": true
    },
    {
      "inputs": [],
      "name": "pause",
      "outputs": [],
      "stateMutability": "nonpayable",
      "type": "function"
    },
    {
      "inputs": [],
      "name": "unpause",
      "outputs": [],
      "stateMutability": "nonpayable",
      "type": "function"
    }
  ],
  "bytecode": "0x60806040523480156200001157600080fd5b506000620000246200023c60201b60201c565b9050806000806101000a81548173ffffffffffffffffffffffffffffffffffffffff021916908373ffffffffffffffffffffffffffffffffffffffff1602179055508073ffffffffffffffffffffffffffffffffffffffff16600073ffffffffffffffffffffffffffffffffffffffff167f8be0079c531659141344cd1fd0a4f28419497f9722a3daafe3b4186f6b6457e060405160405180910390a3506000600260006101000a81548160ff021916908315150217905550620001016000801b620000f56200024460201b60201c565b6200026d60201b60201c565b6200013760405162000113906200043e565b60405180910390206200012b6200024460201b60201c565b6200026d60201b60201c565b73ea190dbdc7adf265260ec4da6e9675fd4f5a78bb600560006101000a81548173ffffffffffffffffffffffffffffffffffffffff021916908373ffffffffffffffffffffffffffffffffffffffff16021790555073bbffc76e94b34f72d96d054b31f6424249c1337d600660006101000a81548173ffffffffffffffffffffffffffffffffffffffff021916908373ffffffffffffffffffffffffffffffffffffffff16021790555073b40139ea36d35d0c9f6a2e62601b616f1ffbbd1b600760006101000a81548173ffffffffffffffffffffffffffffffffffffffff021916908373ffffffffffffffffffffffffffffffffffffffff16021790555062000460565b600033905090565b60008060009054906101000a900473ffffffffffffffffffffffffffffffffffffffff16905090565b6200027f82826200028360201b60201c565b5050565b620002b281600160008581526020019081526020016000206000016200032760201b6200112f1790919060201c565b156200032357620002c86200023c60201b60201c565b73ffffffffffffffffffffffffffffffffffffffff168173ffffffffffffffffffffffffffffffffffffffff16837f2f8788117e7eff1d82e926ec794901d17c78024a50270940304540a733656f0d60405160405180910390a45b5050565b600062000357836000018373ffffffffffffffffffffffffffffffffffffffff1660001b6200035f60201b60201c565b905092915050565b6000620003738383620003d960201b60201c565b620003ce578260000182908060018154018082558091505060019003906000526020600020016000909190919091505582600001805490508360010160008481526020019081526020016000208190555060019050620003d3565b600090505b92915050565b600080836001016000848152602001908152602001600020541415905092915050565b60006200040b600b8362000455565b91507f5041555345525f524f4c450000000000000000000000000000000000000000006000830152600b82019050919050565b60006200044b82620003fc565b9150819050919050565b600081905092915050565b6128a480620004706000396000f3fe608060405234801561001057600080fd5b506004361061013b5760003560e01c80639c1c94fd116100b8578063ca15c8731161007c578063ca15c87314610341578063d547741f14610371578063e63ab1e91461038d578063ebfa62b9146103ab578063f2fde38b146103db578063f36618a6146103f75761013c565b80639c1c94fd14610263578063a217fddf14610293578063aca57703146102b1578063baf2868b146102e1578063c2b40ae4146103115761013c565b8063715018a6116100ff578063715018a6146101d15780638456cb59146101db5780638da5cb5b146101e55780639010d07c1461020357806391d14854146102335761013c565b8063248a9ca3146101415780632f2ff15d1461017157806336568abe1461018d5780633f4ba83a146101a95780635c975abb146101b35761013c565b5b600080fd5b61015b60048036038101906101569190611d1a565b610427565b6040516101689190612511565b60405180910390f35b61018b60048036038101906101869190611d6c565b610447565b005b6101a760048036038101906101a29190611d6c565b6104bb565b005b6101b161053e565b005b6101bb6105a4565b6040516101c891906124f6565b60405180910390f35b6101d96105bb565b005b6101e3610710565b005b6101ed610776565b6040516101fa91906124c0565b60405180910390f35b61021d60048036038101906102189190611da8565b61079f565b60405161022a91906124c0565b60405180910390f35b61024d60048036038101906102489190611d6c565b6107d1565b60405161025a91906124f6565b60405180910390f35b61027d60048036038101906102789190611e9c565b610803565b60405161028a91906124f6565b60405180910390f35b61029b610a03565b6040516102a89190612511565b60405180910390f35b6102cb60048036038101906102c69190611cd9565b610a0a565b6040516102d891906124f6565b60405180910390f35b6102fb60048036038101906102f69190611e0e565b610b12565b60405161030891906124f6565b60405180910390f35b61032b60048036038101906103269190611e0e565b610c47565b6040516103389190612511565b60405180910390f35b61035b60048036038101906103569190611d1a565b610c68565b60405161036891906126ec565b60405180910390f35b61038b60048036038101906103869190611d6c565b610c8f565b005b610395610d03565b6040516103a29190612511565b60405180910390f35b6103c560048036038101906103c09190611e60565b610d1a565b6040516103d291906124f6565b60405180910390f35b6103f560048036038101906103f09190611cb0565b610d99565b005b610411600480360381019061040c9190611e0e565b610f5d565b60405161041e91906124f6565b60405180910390f35b600060016000838152602001908152602001600020600201549050919050565b61046e600160008481526020019081526020016000206002015461046961115f565b6107d1565b6104ad576040517f08c379a00000000000000000000000000000000000000000000000000000000081526004016104a49061254c565b60405180910390fd5b6104b78282611167565b5050565b6104c361115f565b73ffffffffffffffffffffffffffffffffffffffff168173ffffffffffffffffffffffffffffffffffffffff1614610530576040517f08c379a0000000000000000000000000000000000000000000000000000000008152600401610527906126cc565b60405180910390fd5b61053a82826111fb565b5050565b61055b60405161054d906124ab565b6040518091039020336107d1565b61059a576040517f08c379a00000000000000000000000000000000000000000000000000000000081526004016105919061264c565b60405180910390fd5b6105a261128f565b565b6000600260009054906101000a900460ff16905090565b6105c361115f565b73ffffffffffffffffffffffffffffffffffffffff166000809054906101000a900473ffffffffffffffffffffffffffffffffffffffff1673ffffffffffffffffffffffffffffffffffffffff1614610651576040517f08c379a00000000000000000000000000000000000000000000000000000000081526004016106489061266c565b60405180910390fd5b600073ffffffffffffffffffffffffffffffffffffffff166000809054906101000a900473ffffffffffffffffffffffffffffffffffffffff1673ffffffffffffffffffffffffffffffffffffffff167f8be0079c531659141344cd1fd0a4f28419497f9722a3daafe3b4186f6b6457e060405160405180910390a360008060006101000a81548173ffffffffffffffffffffffffffffffffffffffff021916908373ffffffffffffffffffffffffffffffffffffffff160217905550565b61072d60405161071f906124ab565b6040518091039020336107d1565b61076c576040517f08c379a0000000000000000000000000000000000000000000000000000000008152600401610763906126ac565b60405180910390fd5b610774611339565b565b60008060009054906101000a900473ffffffffffffffffffffffffffffffffffffffff16905090565b60006107c982600160008681526020019081526020016000206000016113e490919063ffffffff16565b905092915050565b60006107fb82600160008681526020019081526020016000206000016113fe90919063ffffffff16565b905092915050565b6000600260009054906101000a900460ff1615610855576040517f08c379a000000000000000000000000000000000000000000000000000000000815260040161084c906125ec565b60405180910390fd5b3373ffffffffffffffffffffffffffffffffffffffff16600760009054906101000a900473ffffffffffffffffffffffffffffffffffffffff1673ffffffffffffffffffffffffffffffffffffffff16634423c5f1846040518263ffffffff1660e01b81526004016108c791906126ec565b6101006040518083038186803b1580156108e057600080fd5b505afa1580156108f4573d6000803e3d6000fd5b505050506040513d601f19601f820116820180604052508101906109189190611de4565b6040015173ffffffffffffffffffffffffffffffffffffffff1614610972576040517f08c379a00000000000000000000000000000000000000000000000000000000081526004016109699061268c565b60405180910390fd5b61099733600460008681526020019081526020016000206113fe90919063ffffffff16565b6109c2576109c0336004600086815260200190815260200160002061112f90919063ffffffff16565b505b7f430bb0ab986389293d8f0855931d73d3e3bdc06890eb3e780550c98a7582a7ef336040516109f191906124db565b60405180910390a16001905092915050565b6000801b81565b6000610a1461115f565b73ffffffffffffffffffffffffffffffffffffffff166000809054906101000a900473ffffffffffffffffffffffffffffffffffffffff1673ffffffffffffffffffffffffffffffffffffffff1614610aa2576040517f08c379a0000000000000000000000000000000000000000000000000000000008152600401610a999061266c565b60405180910390fd5b600260009054906101000a900460ff1615610af2576040517f08c379a0000000000000000000000000000000000000000000000000000000008152600401610ae9906125ec565b60405180910390fd5b8160039080519060200190610b08929190611a62565b5060019050919050565b6000600260009054906101000a900460ff1615610b64576040517f08c379a0000000000000000000000000000000000000000000000000000000008152600401610b5b906125ec565b60405180910390fd5b670de0b6b3a7640000610b763361142e565b1015610bb7576040517f08c379a0000000000000000000000000000000000000000000000000000000008152600401610bae9061262c565b60405180910390fd5b610bdc33600460008581526020019081526020016000206113fe90919063ffffffff16565b610c0757610c05336004600085815260200190815260200160002061112f90919063ffffffff16565b505b7fc53e300da4fe7bad9553037bb567acec8109a294de1f832291c2d814dfc262c433604051610c3691906124db565b60405180910390a160019050919050565b60038181548110610c5457fe5b906000526020600020016000915090505481565b6000610c8860016000848152602001908152602001600020600001611732565b9050919050565b610cb66001600084815260200190815260200160002060020154610cb161115f565b6107d1565b610cf5576040517f08c379a0000000000000000000000000000000000000000000000000000000008152600401610cec906125ac565b60405180910390fd5b610cff82826111fb565b5050565b604051610d0f906124ab565b604051809103902081565b6000600260009054906101000a900460ff1615610d6c576040517f08c379a0000000000000000000000000000000000000000000000000000000008152600401610d63906125ec565b60405180910390fd5b610d9182600460008681526020019081526020016000206113fe90919063ffffffff16565b905092915050565b610da161115f565b73ffffffffffffffffffffffffffffffffffffffff166000809054906101000a900473ffffffffffffffffffffffffffffffffffffffff1673ffffffffffffffffffffffffffffffffffffffff1614610e2f576040517f08c379a0000000000000000000000000000000000000000000000000000000008152600401610e269061266c565b60405180910390fd5b600073ffffffffffffffffffffffffffffffffffffffff168173ffffffffffffffffffffffffffffffffffffffff161415610e9f576040517f08c379a0000000000000000000000000000000000000000000000000000000008152600401610e969061258c565b60405180910390fd5b8073ffffffffffffffffffffffffffffffffffffffff166000809054906101000a900473ffffffffffffffffffffffffffffffffffffffff1673ffffffffffffffffffffffffffffffffffffffff167f8be0079c531659141344cd1fd0a4f28419497f9722a3daafe3b4186f6b6457e060405160405180910390a3806000806101000a81548173ffffffffffffffffffffffffffffffffffffffff021916908373ffffffffffffffffffffffffffffffffffffffff16021790555050565b6000600260009054906101000a900460ff1615610faf576040517f08c379a0000000000000000000000000000000000000000000000000000000008152600401610fa6906125ec565b60405180910390fd5b6000801b600660009054906101000a900473ffffffffffffffffffffffffffffffffffffffff1673ffffffffffffffffffffffffffffffffffffffff1663d8bff5a5336040518263ffffffff1660e01b815260040161100e91906124db565b60206040518083038186803b15801561102657600080fd5b505afa15801561103a573d6000803e3d6000fd5b505050506040513d601f19601f8201168201806040525081019061105e9190611d43565b141561109f576040517f08c379a0000000000000000000000000000000000000000000000000000000008152600401611096906125cc565b60405180910390fd5b6110c433600460008581526020019081526020016000206113fe90919063ffffffff16565b6110ef576110ed336004600085815260200190815260200160002061112f90919063ffffffff16565b505b7f359eefdc83d4cbeabeed5ea68cd9213056f02a7317e55e1310612edc535d5ae93360405161111e91906124db565b60405180910390a160019050919050565b6000611157836000018373ffffffffffffffffffffffffffffffffffffffff1660001b611747565b905092915050565b600033905090565b61118f816001600085815260200190815260200160002060000161112f90919063ffffffff16565b156111f75761119c61115f565b73ffffffffffffffffffffffffffffffffffffffff168173ffffffffffffffffffffffffffffffffffffffff16837f2f8788117e7eff1d82e926ec794901d17c78024a50270940304540a733656f0d60405160405180910390a45b5050565b61122381600160008581526020019081526020016000206000016117b790919063ffffffff16565b1561128b5761123061115f565b73ffffffffffffffffffffffffffffffffffffffff168173ffffffffffffffffffffffffffffffffffffffff16837ff6391f5c32d9c69d2a47ea670b442974b53935d1edc7fd64eb21e047a839171b60405160405180910390a45b5050565b600260009054906101000a900460ff166112de576040517f08c379a00000000000000000000000000000000000000000000000000000000081526004016112d59061256c565b60405180910390fd5b6000600260006101000a81548160ff0219169083151502179055507f5db9ee0a495bf2e6ff9c91a7834c1ba4fdd244a5e8aa4e537bd38aeae4b073aa61132261115f565b60405161132f91906124db565b60405180910390a1565b600260009054906101000a900460ff1615611389576040517f08c379a0000000000000000000000000000000000000000000000000000000008152600401611380906125ec565b60405180910390fd5b6001600260006101000a81548160ff0219169083151502179055507f62e78cea01bee320cd4e420270b5ea74000d11b0c9f74754ebdbfc544b05a2586113cd61115f565b6040516113da91906124db565b60405180910390a1565b60006113f383600001836117e7565b60001c905092915050565b6000611426836000018373ffffffffffffffffffffffffffffffffffffffff1660001b611854565b905092915050565b6000600260009054906101000a900460ff1615611480576040517f08c379a0000000000000000000000000000000000000000000000000000000008152600401611477906125ec565b60405180910390fd5b6000600560009054906101000a900473ffffffffffffffffffffffffffffffffffffffff1673ffffffffffffffffffffffffffffffffffffffff16630bebac86846040518263ffffffff1660e01b81526004016114dd91906124c0565b60206040518083038186803b1580156114f557600080fd5b505afa158015611509573d6000803e3d6000fd5b505050506040513d601f19601f8201168201806040525081019061152d9190611e37565b90506000600560009054906101000a900473ffffffffffffffffffffffffffffffffffffffff1673ffffffffffffffffffffffffffffffffffffffff166320aba08b6040518163ffffffff1660e01b815260040160206040518083038186803b15801561159957600080fd5b505afa1580156115ad573d6000803e3d6000fd5b505050506040513d601f19601f820116820180604052508101906115d19190611e37565b421161167c57600560009054906101000a900473ffffffffffffffffffffffffffffffffffffffff1673ffffffffffffffffffffffffffffffffffffffff1663c92aecc46040518163ffffffff1660e01b815260040160206040518083038186803b15801561163f57600080fd5b505afa158015611653573d6000803e3d6000fd5b505050506040513d601f19601f820116820180604052508101906116779190611e37565b61171d565b600560009054906101000a900473ffffffffffffffffffffffffffffffffffffffff1673ffffffffffffffffffffffffffffffffffffffff16639f678cca6040518163ffffffff1660e01b815260040160206040518083038186803b1580156116e457600080fd5b505afa1580156116f8573d6000803e3d6000fd5b505050506040513d601f19601f8201168201806040525081019061171c9190611e37565b5b90506117298282611877565b92505050919050565b6000611740826000016118f9565b9050919050565b60006117538383611854565b6117ac5782600001829080600181540180825580915050600190039060005260206000200160009091909190915055826000018054905083600101600084815260200190815260200160002081905550600190506117b1565b600090505b92915050565b60006117df836000018373ffffffffffffffffffffffffffffffffffffffff1660001b61190a565b905092915050565b600081836000018054905011611832576040517f08c379a00000000000000000000000000000000000000000000000000000000081526004016118299061252c565b60405180910390fd5b82600001828154811061184157fe5b9060005260206000200154905092915050565b600080836001016000848152602001908152602001600020541415905092915050565b6000600260009054906101000a900460ff16156118c9576040517f08c379a00000000000000000000000000000000000000000000000000000000081526004016118c0906125ec565b60405180910390fd5b6b033b2e3c9fd0803ce80000006118e983856119f290919063ffffffff16565b816118f057fe5b04905092915050565b600081600001805490509050919050565b600080836001016000848152602001908152602001600020549050600081146119e6576000600182039050600060018660000180549050039050600086600001828154811061195557fe5b906000526020600020015490508087600001848154811061197257fe5b90600052602060002001819055506001830187600101600083815260200190815260200160002081905550866000018054806119aa57fe5b600190038181906000526020600020016000905590558660010160008781526020019081526020016000206000905560019450505050506119ec565b60009150505b92915050565b600080831415611a055760009050611a5c565b6000828402905082848281611a1657fe5b0414611a57576040517f08c379a0000000000000000000000000000000000000000000000000000000008152600401611a4e9061260c565b60405180910390fd5b809150505b92915050565b828054828255906000526020600020908101928215611a9e579160200282015b82811115611a9d578251825591602001919060010190611a82565b5b509050611aab9190611aaf565b5090565b611ad191905b80821115611acd576000816000905550600101611ab5565b5090565b90565b600081359050611ae381612812565b92915050565b600081519050611af881612812565b92915050565b600082601f830112611b0f57600080fd5b8135611b22611b1d82612734565b612707565b91508181835260208401935060208101905083856020840282011115611b4757600080fd5b60005b83811015611b775781611b5d8882611b81565b845260208401935060208301925050600181019050611b4a565b5050505092915050565b600081359050611b9081612829565b92915050565b600081519050611ba581612829565b92915050565b60006101008284031215611bbe57600080fd5b611bc9610100612707565b90506000611bd984828501611c86565b6000830152506020611bed84828501611c86565b6020830152506040611c0184828501611ae9565b6040830152506060611c1584828501611c9b565b6060830152506080611c2984828501611c9b565b60808301525060a0611c3d84828501611ae9565b60a08301525060c0611c5184828501611ae9565b60c08301525060e0611c6584828501611c86565b60e08301525092915050565b600081359050611c8081612840565b92915050565b600081519050611c9581612840565b92915050565b600081519050611caa81612857565b92915050565b600060208284031215611cc257600080fd5b6000611cd084828501611ad4565b91505092915050565b600060208284031215611ceb57600080fd5b600082013567ffffffffffffffff811115611d0557600080fd5b611d1184828501611afe565b91505092915050565b600060208284031215611d2c57600080fd5b6000611d3a84828501611b81565b91505092915050565b600060208284031215611d5557600080fd5b6000611d6384828501611b96565b91505092915050565b60008060408385031215611d7f57600080fd5b6000611d8d85828601611b81565b9250506020611d9e85828601611ad4565b9150509250929050565b60008060408385031215611dbb57600080fd5b6000611dc985828601611b81565b9250506020611dda85828601611c71565b9150509250929050565b60006101008284031215611df757600080fd5b6000611e0584828501611bab565b91505092915050565b600060208284031215611e2057600080fd5b6000611e2e84828501611c71565b91505092915050565b600060208284031215611e4957600080fd5b6000611e5784828501611c86565b91505092915050565b60008060408385031215611e7357600080fd5b6000611e8185828601611c71565b9250506020611e9285828601611ad4565b9150509250929050565b60008060408385031215611eaf57600080fd5b6000611ebd85828601611c71565b9250506020611ece85828601611c71565b9150509250929050565b611ee1816127dc565b82525050565b611ef081612778565b82525050565b611eff8161278a565b82525050565b611f0e81612796565b82525050565b6000611f2160228361275c565b91507f456e756d657261626c655365743a20696e646578206f7574206f6620626f756e60008301527f64730000000000000000000000000000000000000000000000000000000000006020830152604082019050919050565b6000611f87602f8361275c565b91507f416363657373436f6e74726f6c3a2073656e646572206d75737420626520616e60008301527f2061646d696e20746f206772616e7400000000000000000000000000000000006020830152604082019050919050565b6000611fed60148361275c565b91507f5061757361626c653a206e6f74207061757365640000000000000000000000006000830152602082019050919050565b600061202d60268361275c565b91507f4f776e61626c653a206e6577206f776e657220697320746865207a65726f206160008301527f64647265737300000000000000000000000000000000000000000000000000006020830152604082019050919050565b600061209360308361275c565b91507f416363657373436f6e74726f6c3a2073656e646572206d75737420626520616e60008301527f2061646d696e20746f207265766f6b65000000000000000000000000000000006020830152604082019050919050565b60006120f9600b8361276d565b91507f5041555345525f524f4c450000000000000000000000000000000000000000006000830152600b82019050919050565b600061213960298361275c565b91507f43616c6c6572206973206e6f7420766f74696e6720696e206120476f7665726e60008301527f616e636520506f6c6c00000000000000000000000000000000000000000000006020830152604082019050919050565b600061219f60108361275c565b91507f5061757361626c653a20706175736564000000000000000000000000000000006000830152602082019050919050565b60006121df60218361275c565b91507f536166654d6174683a206d756c7469706c69636174696f6e206f766572666c6f60008301527f77000000000000000000000000000000000000000000000000000000000000006020830152604082019050919050565b600061224560348361275c565b91507f43616c6c657220686173206e6f7420616363727565642031206f72206d6f726560008301527f2044616920696e746572657374206f6e20506f740000000000000000000000006020830152604082019050919050565b60006122ab602d8361275c565b91507f496e7369676e696144414f3a206d75737420686176652070617573657220726f60008301527f6c6520746f20756e7061757365000000000000000000000000000000000000006020830152604082019050919050565b600061231160208361275c565b91507f4f776e61626c653a2063616c6c6572206973206e6f7420746865206f776e65726000830152602082019050919050565b600061235160478361275c565b91507f43616c6c6572206973206e6f742074686520686967682062696464657220696e60008301527f207468652063757272656e742042696420696e20436f6c6c61746572616c204160208301527f756374696f6e73000000000000000000000000000000000000000000000000006040830152606082019050919050565b60006123dd602b8361275c565b91507f496e7369676e696144414f3a206d75737420686176652070617573657220726f60008301527f6c6520746f2070617573650000000000000000000000000000000000000000006020830152604082019050919050565b6000612443602f8361275c565b91507f416363657373436f6e74726f6c3a2063616e206f6e6c792072656e6f756e636560008301527f20726f6c657320666f722073656c6600000000000000000000000000000000006020830152604082019050919050565b6124a5816127c0565b82525050565b60006124b6826120ec565b9150819050919050565b60006020820190506124d56000830184611ee7565b92915050565b60006020820190506124f06000830184611ed8565b92915050565b600060208201905061250b6000830184611ef6565b92915050565b60006020820190506125266000830184611f05565b92915050565b6000602082019050818103600083015261254581611f14565b9050919050565b6000602082019050818103600083015261256581611f7a565b9050919050565b6000602082019050818103600083015261258581611fe0565b9050919050565b600060208201905081810360008301526125a581612020565b9050919050565b600060208201905081810360008301526125c581612086565b9050919050565b600060208201905081810360008301526125e58161212c565b9050919050565b6000602082019050818103600083015261260581612192565b9050919050565b60006020820190508181036000830152612625816121d2565b9050919050565b6000602082019050818103600083015261264581612238565b9050919050565b600060208201905081810360008301526126658161229e565b9050919050565b6000602082019050818103600083015261268581612304565b9050919050565b600060208201905081810360008301526126a581612344565b9050919050565b600060208201905081810360008301526126c5816123d0565b9050919050565b600060208201905081810360008301526126e581612436565b9050919050565b6000602082019050612701600083018461249c565b92915050565b6000604051905081810181811067ffffffffffffffff8211171561272a57600080fd5b8060405250919050565b600067ffffffffffffffff82111561274b57600080fd5b602082029050602081019050919050565b600082825260208201905092915050565b600081905092915050565b6000612783826127a0565b9050919050565b60008115159050919050565b6000819050919050565b600073ffffffffffffffffffffffffffffffffffffffff82169050919050565b6000819050919050565b600065ffffffffffff82169050919050565b60006127e7826127ee565b9050919050565b60006127f982612800565b9050919050565b600061280b826127a0565b9050919050565b61281b81612778565b811461282657600080fd5b50565b61283281612796565b811461283d57600080fd5b50565b612849816127c0565b811461285457600080fd5b50565b612860816127ca565b811461286b57600080fd5b5056fea2646970667358221220b89973828044ee8c1ba777e9ead3b18d96ade919d3137e54aaffb90d570c7d4964736f6c63430006080033",
  "immutableReferences": {},
  "source": "/// SPDX-License-Identifier: GPL-3.0\npragma solidity 0.6.8;\npragma experimental ABIEncoderV2;\n\n\n/// @title Non-transferable Badges for Maker Ecosystem Activity, issue #537\n/// @author Nazzareno Massari\n/// @notice InsigniaDAO to check for activities on maker ecosystem and keep track of redeemers\n/// @dev see https://github.com/makerdao/community/issues/537\n/// @dev All function calls are currently implemented without side effecs through TDD approach\n/// @dev OpenZeppelin library is used for secure contract development\n\nimport \"@openzeppelin/contracts/access/Ownable.sol\";\nimport \"@openzeppelin/contracts/access/AccessControl.sol\";\nimport \"@openzeppelin/contracts/utils/Pausable.sol\";\nimport \"@openzeppelin/contracts/math/SafeMath.sol\";\nimport \"@openzeppelin/contracts/utils/EnumerableSet.sol\";\n\ninterface PotLike {\n\n    function pie(address guy) external view returns (uint256);\n    function chi() external view returns (uint256);\n    function rho() external view returns (uint256);\n    function drip() external view returns (uint256);\n\n}\n\ninterface DSChiefLike {\n  function votes(address) external view returns (bytes32);\n}\n\ninterface  FlipperLike {\n  struct Bid {\n    uint256 bid;\n    uint256 lot;\n    address guy;  // high bidder\n    uint48  tic;  // expiry time\n    uint48  end;\n    address usr;\n    address gal;\n    uint256 tab;\n}\n  function bids(uint256) external view returns (Bid memory);\n}\n\ncontract InsigniaDAO is Ownable, AccessControl, Pausable {\n\n  /// Libraries\n  using SafeMath for uint256;\n  using EnumerableSet for EnumerableSet.AddressSet;\n\n  bytes32 public constant PAUSER_ROLE = keccak256(\"PAUSER_ROLE\");\n\n  bytes32[] public roots;\n\n  mapping (uint256 => EnumerableSet.AddressSet) private redeemers;\n\n  /// Events\n  event PotChecked(address guy);\n  event DSChiefChecked(address guy);\n  event FlipperChecked(address guy);\n\n  /// Data\n  PotLike  internal pot;\n  DSChiefLike internal chief;\n  FlipperLike internal flipper;\n\n  /// Math\n  uint256 constant RAY = 10 ** 27;\n\n  function rmul(uint256 x, uint256 y) internal view whenNotPaused returns (uint256 z) {\n          // always rounds down\n          z = x.mul(y) / RAY;\n  }\n\n  constructor() public {\n        _setupRole(DEFAULT_ADMIN_ROLE, owner());\n\n        _setupRole(PAUSER_ROLE, owner());\n\n        /// MCD_POT Kovan Address https://kovan.etherscan.io/address/0xea190dbdc7adf265260ec4da6e9675fd4f5a78bb#code\n\t\t\t  pot = PotLike(0xEA190DBDC7adF265260ec4dA6e9675Fd4f5A78bb);\n\n        /// MCD_ADM Kovan Address https://kovan.etherscan.io/address/0xbBFFC76e94B34F72D96D054b31f6424249c1337d#code\n        chief = DSChiefLike(0xbBFFC76e94B34F72D96D054b31f6424249c1337d);\n        /// MCD_FLIP_ETH_A Kovan Address https://kovan.etherscan.io/address/0xB40139Ea36D35d0C9F6a2e62601B616F1FfbBD1b#code\n        flipper = FlipperLike(0xB40139Ea36D35d0C9F6a2e62601B616F1FfbBD1b);\n\n  }\n\n  /// @notice Fallback function\n  /// @dev Added not payable to revert transactions not matching any other function which send value\n  fallback() external {\n    revert();\n  }\n\n  /// @notice Set Merkle Tree Root Hashes array\n  /// @dev Called by owner to update roots for different address batches by templateId\n  /// @param rootHashes Root hashes of the Merkle Trees by templateId\n  /// @return True if successfully updated\n  function setRootHashes(bytes32[] memory rootHashes) public onlyOwner whenNotPaused returns (bool) {\n    roots = rootHashes;\n    return true;\n  }\n\n  /// @notice Return the accrued interest of guy on Pot\n  /// @dev Based on Chai dai() function\n  /// @param guy Address to check\n  /// @return wad Accrued interest of guy\n  function _dai(address guy) internal view whenNotPaused returns (uint256 wad) {\n    uint256 slice = pot.pie(guy);\n    uint256 chi = (now > pot.rho()) ? pot.drip() : pot.chi();\n    wad = rmul(slice, chi);\n  }\n\n  /// @notice Pot Challenge\n  /// @dev Keep track of the hash of the caller if successful\n  /// @return True if the caller successfully checked for activity on Pot\n  function potChallenge(uint256 templateId) public whenNotPaused returns (bool) {\n    require(_dai(msg.sender) >= 1 ether, \"Caller has not accrued 1 or more Dai interest on Pot\");\n    if (!redeemers[templateId].contains(msg.sender)) {\n    redeemers[templateId].add(msg.sender);\n    }\n    emit PotChecked(msg.sender);\n    return true;\n  }\n\n  /// @notice DSChief Challenge\n  /// @dev Keep track of the hash of the caller if successful\n  /// @return True if the caller successfully checked for activity on DSChief\n  function chiefChallenge(uint256 templateId) public whenNotPaused returns (bool) {\n    require(chief.votes(msg.sender) != 0x00, \"Caller is not voting in a Governance Poll\");\n    if (!redeemers[templateId].contains(msg.sender)) {\n    redeemers[templateId].add(msg.sender);\n    }\n    emit DSChiefChecked(msg.sender);\n    return true;\n  }\n\n  /// @notice Flipper Challenge\n  /// @dev Keep track of the hash of the caller if successful\n  /// @return True if the caller successfully checked for activity on Flipper\n  function flipperChallenge(uint256 templateId, uint256 bidId) public whenNotPaused returns (bool) {\n    require(flipper.bids(bidId).guy == msg.sender, \"Caller is not the high bidder in the current Bid in Collateral Auctions\");\n    if (!redeemers[templateId].contains(msg.sender)) {\n    redeemers[templateId].add(msg.sender);\n    }\n    emit FlipperChecked(msg.sender);\n    return true;\n  }\n\n  /// @notice Check if guy is a redeemer\n  /// @dev Verify if the hash of guy address exists\n  /// @param guy Address to verify\n  /// @return True if guy is a redeemer\n  function verify(uint256 templateId, address guy) public view whenNotPaused returns (bool) {\n    return redeemers[templateId].contains(guy);\n  }\n\n  /// @notice Pause all the functions\n  /// @dev the caller must have the 'PAUSER_ROLE'\n  function pause() public {\n    require(hasRole(PAUSER_ROLE, msg.sender), \"InsigniaDAO: must have pauser role to pause\");\n    _pause();\n  }\n\n  /// @notice Unpause all the functions\n  /// @dev the caller must have the 'PAUSER_ROLE'\n  function unpause() public {\n        require(hasRole(PAUSER_ROLE, msg.sender), \"InsigniaDAO: must have pauser role to unpause\");\n        _unpause();\n    }\n\n}\n",
  "sourcePath": "/home/sencha/insigniadao/contracts/InsigniaDAO.sol",
  "compiler": {
    "name": "solc",
    "version": "0.6.8+commit.0bbfe453.Emscripten.clang"
  },
  "schemaVersion": "3.1.0",
  "updatedAt": "2020-06-01T10:58:16.455Z",
  "networkType": "ethereum",
  "devdoc": {
    "methods": {
      "chiefChallenge(uint256)": {
        "details": "Keep track of the hash of the caller if successful",
        "returns": {
          "_0": "True if the caller successfully checked for activity on DSChief"
        }
      },
      "flipperChallenge(uint256,uint256)": {
        "details": "Keep track of the hash of the caller if successful",
        "returns": {
          "_0": "True if the caller successfully checked for activity on Flipper"
        }
      },
      "getRoleAdmin(bytes32)": {
        "details": "Returns the admin role that controls `role`. See {grantRole} and {revokeRole}.     * To change a role's admin, use {_setRoleAdmin}."
      },
      "getRoleMember(bytes32,uint256)": {
        "details": "Returns one of the accounts that have `role`. `index` must be a value between 0 and {getRoleMemberCount}, non-inclusive.     * Role bearers are not sorted in any particular way, and their ordering may change at any point.     * WARNING: When using {getRoleMember} and {getRoleMemberCount}, make sure you perform all queries on the same block. See the following https://forum.openzeppelin.com/t/iterating-over-elements-on-enumerableset-in-openzeppelin-contracts/2296[forum post] for more information."
      },
      "getRoleMemberCount(bytes32)": {
        "details": "Returns the number of accounts that have `role`. Can be used together with {getRoleMember} to enumerate all bearers of a role."
      },
      "grantRole(bytes32,address)": {
        "details": "Grants `role` to `account`.     * If `account` had not been already granted `role`, emits a {RoleGranted} event.     * Requirements:     * - the caller must have ``role``'s admin role."
      },
      "hasRole(bytes32,address)": {
        "details": "Returns `true` if `account` has been granted `role`."
      },
      "owner()": {
        "details": "Returns the address of the current owner."
      },
      "pause()": {
        "details": "the caller must have the 'PAUSER_ROLE'"
      },
      "paused()": {
        "details": "Returns true if the contract is paused, and false otherwise."
      },
      "potChallenge(uint256)": {
        "details": "Keep track of the hash of the caller if successful",
        "returns": {
          "_0": "True if the caller successfully checked for activity on Pot"
        }
      },
      "renounceOwnership()": {
        "details": "Leaves the contract without owner. It will not be possible to call `onlyOwner` functions anymore. Can only be called by the current owner.     * NOTE: Renouncing ownership will leave the contract without an owner, thereby removing any functionality that is only available to the owner."
      },
      "renounceRole(bytes32,address)": {
        "details": "Revokes `role` from the calling account.     * Roles are often managed via {grantRole} and {revokeRole}: this function's purpose is to provide a mechanism for accounts to lose their privileges if they are compromised (such as when a trusted device is misplaced).     * If the calling account had been granted `role`, emits a {RoleRevoked} event.     * Requirements:     * - the caller must be `account`."
      },
      "revokeRole(bytes32,address)": {
        "details": "Revokes `role` from `account`.     * If `account` had been granted `role`, emits a {RoleRevoked} event.     * Requirements:     * - the caller must have ``role``'s admin role."
      },
      "setRootHashes(bytes32[])": {
        "details": "Called by owner to update roots for different address batches by templateId",
        "params": {
          "rootHashes": "Root hashes of the Merkle Trees by templateId"
        },
        "returns": {
          "_0": "True if successfully updated"
        }
      },
      "transferOwnership(address)": {
        "details": "Transfers ownership of the contract to a new account (`newOwner`). Can only be called by the current owner."
      },
      "unpause()": {
        "details": "the caller must have the 'PAUSER_ROLE'"
      },
      "verify(uint256,address)": {
        "details": "Verify if the hash of guy address exists",
        "params": {
          "guy": "Address to verify"
        },
        "returns": {
          "_0": "True if guy is a redeemer"
        }
      }
    }
  },
  "userdoc": {
    "methods": {
      "chiefChallenge(uint256)": {
        "notice": "DSChief Challenge"
      },
      "flipperChallenge(uint256,uint256)": {
        "notice": "Flipper Challenge"
      },
      "pause()": {
        "notice": "Pause all the functions"
      },
      "potChallenge(uint256)": {
        "notice": "Pot Challenge"
      },
      "setRootHashes(bytes32[])": {
        "notice": "Set Merkle Tree Root Hashes array"
      },
      "unpause()": {
        "notice": "Unpause all the functions"
      },
      "verify(uint256,address)": {
        "notice": "Check if guy is a redeemer"
      }
    }
  }
}