{
  "contractName": "InsigniaDAO",
  "abi": [
    {
      "inputs": [],
      "stateMutability": "nonpayable",
      "type": "constructor"
    },
    {
      "anonymous": false,
      "inputs": [
        {
          "indexed": false,
          "internalType": "address",
          "name": "guy",
          "type": "address"
        }
      ],
      "name": "DSChiefChecked",
      "type": "event"
    },
    {
      "anonymous": false,
      "inputs": [
        {
          "indexed": false,
          "internalType": "address",
          "name": "guy",
          "type": "address"
        }
      ],
      "name": "FlipperChecked",
      "type": "event"
    },
    {
      "anonymous": false,
      "inputs": [
        {
          "indexed": true,
          "internalType": "address",
          "name": "previousOwner",
          "type": "address"
        },
        {
          "indexed": true,
          "internalType": "address",
          "name": "newOwner",
          "type": "address"
        }
      ],
      "name": "OwnershipTransferred",
      "type": "event"
    },
    {
      "anonymous": false,
      "inputs": [
        {
          "indexed": false,
          "internalType": "address",
          "name": "account",
          "type": "address"
        }
      ],
      "name": "Paused",
      "type": "event"
    },
    {
      "anonymous": false,
      "inputs": [
        {
          "indexed": false,
          "internalType": "address",
          "name": "guy",
          "type": "address"
        }
      ],
      "name": "PotChecked",
      "type": "event"
    },
    {
      "anonymous": false,
      "inputs": [
        {
          "indexed": true,
          "internalType": "bytes32",
          "name": "role",
          "type": "bytes32"
        },
        {
          "indexed": true,
          "internalType": "address",
          "name": "account",
          "type": "address"
        },
        {
          "indexed": true,
          "internalType": "address",
          "name": "sender",
          "type": "address"
        }
      ],
      "name": "RoleGranted",
      "type": "event"
    },
    {
      "anonymous": false,
      "inputs": [
        {
          "indexed": true,
          "internalType": "bytes32",
          "name": "role",
          "type": "bytes32"
        },
        {
          "indexed": true,
          "internalType": "address",
          "name": "account",
          "type": "address"
        },
        {
          "indexed": true,
          "internalType": "address",
          "name": "sender",
          "type": "address"
        }
      ],
      "name": "RoleRevoked",
      "type": "event"
    },
    {
      "anonymous": false,
      "inputs": [
        {
          "indexed": false,
          "internalType": "address",
          "name": "account",
          "type": "address"
        }
      ],
      "name": "Unpaused",
      "type": "event"
    },
    {
      "stateMutability": "nonpayable",
      "type": "fallback"
    },
    {
      "inputs": [],
      "name": "DEFAULT_ADMIN_ROLE",
      "outputs": [
        {
          "internalType": "bytes32",
          "name": "",
          "type": "bytes32"
        }
      ],
      "stateMutability": "view",
      "type": "function",
      "constant": true
    },
    {
      "inputs": [],
      "name": "PAUSER_ROLE",
      "outputs": [
        {
          "internalType": "bytes32",
          "name": "",
          "type": "bytes32"
        }
      ],
      "stateMutability": "view",
      "type": "function",
      "constant": true
    },
    {
      "inputs": [
        {
          "internalType": "bytes32",
          "name": "role",
          "type": "bytes32"
        }
      ],
      "name": "getRoleAdmin",
      "outputs": [
        {
          "internalType": "bytes32",
          "name": "",
          "type": "bytes32"
        }
      ],
      "stateMutability": "view",
      "type": "function",
      "constant": true
    },
    {
      "inputs": [
        {
          "internalType": "bytes32",
          "name": "role",
          "type": "bytes32"
        },
        {
          "internalType": "uint256",
          "name": "index",
          "type": "uint256"
        }
      ],
      "name": "getRoleMember",
      "outputs": [
        {
          "internalType": "address",
          "name": "",
          "type": "address"
        }
      ],
      "stateMutability": "view",
      "type": "function",
      "constant": true
    },
    {
      "inputs": [
        {
          "internalType": "bytes32",
          "name": "role",
          "type": "bytes32"
        }
      ],
      "name": "getRoleMemberCount",
      "outputs": [
        {
          "internalType": "uint256",
          "name": "",
          "type": "uint256"
        }
      ],
      "stateMutability": "view",
      "type": "function",
      "constant": true
    },
    {
      "inputs": [
        {
          "internalType": "bytes32",
          "name": "role",
          "type": "bytes32"
        },
        {
          "internalType": "address",
          "name": "account",
          "type": "address"
        }
      ],
      "name": "grantRole",
      "outputs": [],
      "stateMutability": "nonpayable",
      "type": "function"
    },
    {
      "inputs": [
        {
          "internalType": "bytes32",
          "name": "role",
          "type": "bytes32"
        },
        {
          "internalType": "address",
          "name": "account",
          "type": "address"
        }
      ],
      "name": "hasRole",
      "outputs": [
        {
          "internalType": "bool",
          "name": "",
          "type": "bool"
        }
      ],
      "stateMutability": "view",
      "type": "function",
      "constant": true
    },
    {
      "inputs": [],
      "name": "owner",
      "outputs": [
        {
          "internalType": "address",
          "name": "",
          "type": "address"
        }
      ],
      "stateMutability": "view",
      "type": "function",
      "constant": true
    },
    {
      "inputs": [],
      "name": "paused",
      "outputs": [
        {
          "internalType": "bool",
          "name": "",
          "type": "bool"
        }
      ],
      "stateMutability": "view",
      "type": "function",
      "constant": true
    },
    {
      "inputs": [],
      "name": "renounceOwnership",
      "outputs": [],
      "stateMutability": "nonpayable",
      "type": "function"
    },
    {
      "inputs": [
        {
          "internalType": "bytes32",
          "name": "role",
          "type": "bytes32"
        },
        {
          "internalType": "address",
          "name": "account",
          "type": "address"
        }
      ],
      "name": "renounceRole",
      "outputs": [],
      "stateMutability": "nonpayable",
      "type": "function"
    },
    {
      "inputs": [
        {
          "internalType": "bytes32",
          "name": "role",
          "type": "bytes32"
        },
        {
          "internalType": "address",
          "name": "account",
          "type": "address"
        }
      ],
      "name": "revokeRole",
      "outputs": [],
      "stateMutability": "nonpayable",
      "type": "function"
    },
    {
      "inputs": [
        {
          "internalType": "uint256",
          "name": "",
          "type": "uint256"
        }
      ],
      "name": "roots",
      "outputs": [
        {
          "internalType": "bytes32",
          "name": "",
          "type": "bytes32"
        }
      ],
      "stateMutability": "view",
      "type": "function",
      "constant": true
    },
    {
      "inputs": [
        {
          "internalType": "address",
          "name": "newOwner",
          "type": "address"
        }
      ],
      "name": "transferOwnership",
      "outputs": [],
      "stateMutability": "nonpayable",
      "type": "function"
    },
    {
      "inputs": [
        {
          "internalType": "bytes32[]",
          "name": "rootHashes",
          "type": "bytes32[]"
        }
      ],
      "name": "setRootHashes",
      "outputs": [
        {
          "internalType": "bool",
          "name": "",
          "type": "bool"
        }
      ],
      "stateMutability": "nonpayable",
      "type": "function"
    },
    {
      "inputs": [
        {
          "internalType": "uint256",
          "name": "id",
          "type": "uint256"
        }
      ],
      "name": "checkRedeemer",
      "outputs": [
        {
          "internalType": "bool",
          "name": "",
          "type": "bool"
        }
      ],
      "stateMutability": "nonpayable",
      "type": "function"
    },
    {
      "inputs": [
        {
          "internalType": "address",
          "name": "guy",
          "type": "address"
        }
      ],
      "name": "verify",
      "outputs": [
        {
          "internalType": "bool",
          "name": "",
          "type": "bool"
        }
      ],
      "stateMutability": "view",
      "type": "function",
      "constant": true
    },
    {
      "inputs": [],
      "name": "pause",
      "outputs": [],
      "stateMutability": "nonpayable",
      "type": "function"
    },
    {
      "inputs": [],
      "name": "unpause",
      "outputs": [],
      "stateMutability": "nonpayable",
      "type": "function"
    }
  ],
  "bytecode": "0x60806040523480156200001157600080fd5b506000620000246200023c60201b60201c565b9050806000806101000a81548173ffffffffffffffffffffffffffffffffffffffff021916908373ffffffffffffffffffffffffffffffffffffffff1602179055508073ffffffffffffffffffffffffffffffffffffffff16600073ffffffffffffffffffffffffffffffffffffffff167f8be0079c531659141344cd1fd0a4f28419497f9722a3daafe3b4186f6b6457e060405160405180910390a3506000600260006101000a81548160ff021916908315150217905550620001016000801b620000f56200024460201b60201c565b6200026d60201b60201c565b6200013760405162000113906200043e565b60405180910390206200012b6200024460201b60201c565b6200026d60201b60201c565b73ea190dbdc7adf265260ec4da6e9675fd4f5a78bb600660006101000a81548173ffffffffffffffffffffffffffffffffffffffff021916908373ffffffffffffffffffffffffffffffffffffffff16021790555073bbffc76e94b34f72d96d054b31f6424249c1337d600760006101000a81548173ffffffffffffffffffffffffffffffffffffffff021916908373ffffffffffffffffffffffffffffffffffffffff16021790555073b40139ea36d35d0c9f6a2e62601b616f1ffbbd1b600860006101000a81548173ffffffffffffffffffffffffffffffffffffffff021916908373ffffffffffffffffffffffffffffffffffffffff16021790555062000460565b600033905090565b60008060009054906101000a900473ffffffffffffffffffffffffffffffffffffffff16905090565b6200027f82826200028360201b60201c565b5050565b620002b281600160008581526020019081526020016000206000016200032760201b620010231790919060201c565b156200032357620002c86200023c60201b60201c565b73ffffffffffffffffffffffffffffffffffffffff168173ffffffffffffffffffffffffffffffffffffffff16837f2f8788117e7eff1d82e926ec794901d17c78024a50270940304540a733656f0d60405160405180910390a45b5050565b600062000357836000018373ffffffffffffffffffffffffffffffffffffffff1660001b6200035f60201b60201c565b905092915050565b6000620003738383620003d960201b60201c565b620003ce578260000182908060018154018082558091505060019003906000526020600020016000909190919091505582600001805490508360010160008481526020019081526020016000208190555060019050620003d3565b600090505b92915050565b600080836001016000848152602001908152602001600020541415905092915050565b60006200040b600b8362000455565b91507f5041555345525f524f4c450000000000000000000000000000000000000000006000830152600b82019050919050565b60006200044b82620003fc565b9150819050919050565b600081905092915050565b61262180620004706000396000f3fe608060405234801561001057600080fd5b50600436106101255760003560e01c80638da5cb5b116100ad578063c2b40ae411610071578063c2b40ae4146102fb578063ca15c8731461032b578063d547741f1461035b578063e63ab1e914610377578063f2fde38b1461039557610126565b80638da5cb5b1461022f5780639010d07c1461024d57806391d148541461027d578063a217fddf146102ad578063aca57703146102cb57610126565b80635a3d044e116100f45780635a3d044e1461019d5780635c975abb146101cd57806363a9c3d7146101eb578063715018a61461021b5780638456cb591461022557610126565b8063248a9ca31461012b5780632f2ff15d1461015b57806336568abe146101775780633f4ba83a1461019357610126565b5b600080fd5b61014560048036038101906101409190611c0e565b6103b1565b6040516101529190612299565b60405180910390f35b61017560048036038101906101709190611c60565b6103d1565b005b610191600480360381019061018c9190611c60565b610445565b005b61019b6104c8565b005b6101b760048036038101906101b29190611d02565b61052e565b6040516101c4919061227e565b60405180910390f35b6101d5610977565b6040516101e2919061227e565b60405180910390f35b61020560048036038101906102009190611ba4565b61098e565b604051610212919061227e565b60405180910390f35b610223610a35565b005b61022d610b8a565b005b610237610bf0565b6040516102449190612248565b60405180910390f35b61026760048036038101906102629190611c9c565b610c19565b6040516102749190612248565b60405180910390f35b61029760048036038101906102929190611c60565b610c4b565b6040516102a4919061227e565b60405180910390f35b6102b5610c7d565b6040516102c29190612299565b60405180910390f35b6102e560048036038101906102e09190611bcd565b610c84565b6040516102f2919061227e565b60405180910390f35b61031560048036038101906103109190611d02565b610d8c565b6040516103229190612299565b60405180910390f35b61034560048036038101906103409190611c0e565b610dad565b6040516103529190612414565b60405180910390f35b61037560048036038101906103709190611c60565b610dd4565b005b61037f610e48565b60405161038c9190612299565b60405180910390f35b6103af60048036038101906103aa9190611ba4565b610e5f565b005b600060016000838152602001908152602001600020600201549050919050565b6103f860016000848152602001908152602001600020600201546103f3611053565b610c4b565b610437576040517f08c379a000000000000000000000000000000000000000000000000000000000815260040161042e906122d4565b60405180910390fd5b610441828261105b565b5050565b61044d611053565b73ffffffffffffffffffffffffffffffffffffffff168173ffffffffffffffffffffffffffffffffffffffff16146104ba576040517f08c379a00000000000000000000000000000000000000000000000000000000081526004016104b1906123f4565b60405180910390fd5b6104c482826110ef565b5050565b6104e56040516104d790612233565b604051809103902033610c4b565b610524576040517f08c379a000000000000000000000000000000000000000000000000000000000815260040161051b90612394565b60405180910390fd5b61052c611183565b565b6000600260009054906101000a900460ff1615610580576040517f08c379a000000000000000000000000000000000000000000000000000000000815260040161057790612354565b60405180910390fd5b670de0b6b3a76400006105923361122d565b10610653576105d4336040516020016105ab9190612218565b6040516020818303038152906040528051906020012060001c600461153190919063ffffffff16565b61061757610615336040516020016105ec9190612218565b6040516020818303038152906040528051906020012060001c600461102390919063ffffffff16565b505b7fc53e300da4fe7bad9553037bb567acec8109a294de1f832291c2d814dfc262c4336040516106469190612263565b60405180910390a161096d565b6000801b600760009054906101000a900473ffffffffffffffffffffffffffffffffffffffff1673ffffffffffffffffffffffffffffffffffffffff1663d8bff5a5336040518263ffffffff1660e01b81526004016106b29190612263565b60206040518083038186803b1580156106ca57600080fd5b505afa1580156106de573d6000803e3d6000fd5b505050506040513d601f19601f820116820180604052508101906107029190611c37565b146107c3576107443360405160200161071b9190612218565b6040516020818303038152906040528051906020012060001c600461153190919063ffffffff16565b610787576107853360405160200161075c9190612218565b6040516020818303038152906040528051906020012060001c600461102390919063ffffffff16565b505b7f359eefdc83d4cbeabeed5ea68cd9213056f02a7317e55e1310612edc535d5ae9336040516107b69190612263565b60405180910390a161096c565b3373ffffffffffffffffffffffffffffffffffffffff16600860009054906101000a900473ffffffffffffffffffffffffffffffffffffffff1673ffffffffffffffffffffffffffffffffffffffff16634423c5f1846040518263ffffffff1660e01b81526004016108359190612414565b6101006040518083038186803b15801561084e57600080fd5b505afa158015610862573d6000803e3d6000fd5b505050506040513d601f19601f820116820180604052508101906108869190611cd8565b6040015173ffffffffffffffffffffffffffffffffffffffff161415610962576108e3336040516020016108ba9190612218565b6040516020818303038152906040528051906020012060001c600461153190919063ffffffff16565b61092657610924336040516020016108fb9190612218565b6040516020818303038152906040528051906020012060001c600461102390919063ffffffff16565b505b7f430bb0ab986389293d8f0855931d73d3e3bdc06890eb3e780550c98a7582a7ef336040516109559190612263565b60405180910390a161096b565b60009050610972565b5b5b600190505b919050565b6000600260009054906101000a900460ff16905090565b6000600260009054906101000a900460ff16156109e0576040517f08c379a00000000000000000000000000000000000000000000000000000000081526004016109d790612354565b60405180910390fd5b610a1d826040516020016109f491906121fd565b6040516020818303038152906040528051906020012060001c600461153190919063ffffffff16565b15610a2b5760019050610a30565b600090505b919050565b610a3d611053565b73ffffffffffffffffffffffffffffffffffffffff166000809054906101000a900473ffffffffffffffffffffffffffffffffffffffff1673ffffffffffffffffffffffffffffffffffffffff1614610acb576040517f08c379a0000000000000000000000000000000000000000000000000000000008152600401610ac2906123b4565b60405180910390fd5b600073ffffffffffffffffffffffffffffffffffffffff166000809054906101000a900473ffffffffffffffffffffffffffffffffffffffff1673ffffffffffffffffffffffffffffffffffffffff167f8be0079c531659141344cd1fd0a4f28419497f9722a3daafe3b4186f6b6457e060405160405180910390a360008060006101000a81548173ffffffffffffffffffffffffffffffffffffffff021916908373ffffffffffffffffffffffffffffffffffffffff160217905550565b610ba7604051610b9990612233565b604051809103902033610c4b565b610be6576040517f08c379a0000000000000000000000000000000000000000000000000000000008152600401610bdd906123d4565b60405180910390fd5b610bee611561565b565b60008060009054906101000a900473ffffffffffffffffffffffffffffffffffffffff16905090565b6000610c43826001600086815260200190815260200160002060000161160c90919063ffffffff16565b905092915050565b6000610c75826001600086815260200190815260200160002060000161153190919063ffffffff16565b905092915050565b6000801b81565b6000610c8e611053565b73ffffffffffffffffffffffffffffffffffffffff166000809054906101000a900473ffffffffffffffffffffffffffffffffffffffff1673ffffffffffffffffffffffffffffffffffffffff1614610d1c576040517f08c379a0000000000000000000000000000000000000000000000000000000008152600401610d13906123b4565b60405180910390fd5b600260009054906101000a900460ff1615610d6c576040517f08c379a0000000000000000000000000000000000000000000000000000000008152600401610d6390612354565b60405180910390fd5b8160039080519060200190610d82929190611956565b5060019050919050565b60038181548110610d9957fe5b906000526020600020016000915090505481565b6000610dcd60016000848152602001908152602001600020600001611626565b9050919050565b610dfb6001600084815260200190815260200160002060020154610df6611053565b610c4b565b610e3a576040517f08c379a0000000000000000000000000000000000000000000000000000000008152600401610e3190612334565b60405180910390fd5b610e4482826110ef565b5050565b604051610e5490612233565b604051809103902081565b610e67611053565b73ffffffffffffffffffffffffffffffffffffffff166000809054906101000a900473ffffffffffffffffffffffffffffffffffffffff1673ffffffffffffffffffffffffffffffffffffffff1614610ef5576040517f08c379a0000000000000000000000000000000000000000000000000000000008152600401610eec906123b4565b60405180910390fd5b600073ffffffffffffffffffffffffffffffffffffffff168173ffffffffffffffffffffffffffffffffffffffff161415610f65576040517f08c379a0000000000000000000000000000000000000000000000000000000008152600401610f5c90612314565b60405180910390fd5b8073ffffffffffffffffffffffffffffffffffffffff166000809054906101000a900473ffffffffffffffffffffffffffffffffffffffff1673ffffffffffffffffffffffffffffffffffffffff167f8be0079c531659141344cd1fd0a4f28419497f9722a3daafe3b4186f6b6457e060405160405180910390a3806000806101000a81548173ffffffffffffffffffffffffffffffffffffffff021916908373ffffffffffffffffffffffffffffffffffffffff16021790555050565b600061104b836000018373ffffffffffffffffffffffffffffffffffffffff1660001b61163b565b905092915050565b600033905090565b611083816001600085815260200190815260200160002060000161102390919063ffffffff16565b156110eb57611090611053565b73ffffffffffffffffffffffffffffffffffffffff168173ffffffffffffffffffffffffffffffffffffffff16837f2f8788117e7eff1d82e926ec794901d17c78024a50270940304540a733656f0d60405160405180910390a45b5050565b61111781600160008581526020019081526020016000206000016116ab90919063ffffffff16565b1561117f57611124611053565b73ffffffffffffffffffffffffffffffffffffffff168173ffffffffffffffffffffffffffffffffffffffff16837ff6391f5c32d9c69d2a47ea670b442974b53935d1edc7fd64eb21e047a839171b60405160405180910390a45b5050565b600260009054906101000a900460ff166111d2576040517f08c379a00000000000000000000000000000000000000000000000000000000081526004016111c9906122f4565b60405180910390fd5b6000600260006101000a81548160ff0219169083151502179055507f5db9ee0a495bf2e6ff9c91a7834c1ba4fdd244a5e8aa4e537bd38aeae4b073aa611216611053565b6040516112239190612263565b60405180910390a1565b6000600260009054906101000a900460ff161561127f576040517f08c379a000000000000000000000000000000000000000000000000000000000815260040161127690612354565b60405180910390fd5b6000600660009054906101000a900473ffffffffffffffffffffffffffffffffffffffff1673ffffffffffffffffffffffffffffffffffffffff16630bebac86846040518263ffffffff1660e01b81526004016112dc9190612248565b60206040518083038186803b1580156112f457600080fd5b505afa158015611308573d6000803e3d6000fd5b505050506040513d601f19601f8201168201806040525081019061132c9190611d2b565b90506000600660009054906101000a900473ffffffffffffffffffffffffffffffffffffffff1673ffffffffffffffffffffffffffffffffffffffff166320aba08b6040518163ffffffff1660e01b815260040160206040518083038186803b15801561139857600080fd5b505afa1580156113ac573d6000803e3d6000fd5b505050506040513d601f19601f820116820180604052508101906113d09190611d2b565b421161147b57600660009054906101000a900473ffffffffffffffffffffffffffffffffffffffff1673ffffffffffffffffffffffffffffffffffffffff1663c92aecc46040518163ffffffff1660e01b815260040160206040518083038186803b15801561143e57600080fd5b505afa158015611452573d6000803e3d6000fd5b505050506040513d601f19601f820116820180604052508101906114769190611d2b565b61151c565b600660009054906101000a900473ffffffffffffffffffffffffffffffffffffffff1673ffffffffffffffffffffffffffffffffffffffff16639f678cca6040518163ffffffff1660e01b815260040160206040518083038186803b1580156114e357600080fd5b505afa1580156114f7573d6000803e3d6000fd5b505050506040513d601f19601f8201168201806040525081019061151b9190611d2b565b5b905061152882826116db565b92505050919050565b6000611559836000018373ffffffffffffffffffffffffffffffffffffffff1660001b61175d565b905092915050565b600260009054906101000a900460ff16156115b1576040517f08c379a00000000000000000000000000000000000000000000000000000000081526004016115a890612354565b60405180910390fd5b6001600260006101000a81548160ff0219169083151502179055507f62e78cea01bee320cd4e420270b5ea74000d11b0c9f74754ebdbfc544b05a2586115f5611053565b6040516116029190612263565b60405180910390a1565b600061161b8360000183611780565b60001c905092915050565b6000611634826000016117ed565b9050919050565b6000611647838361175d565b6116a05782600001829080600181540180825580915050600190039060005260206000200160009091909190915055826000018054905083600101600084815260200190815260200160002081905550600190506116a5565b600090505b92915050565b60006116d3836000018373ffffffffffffffffffffffffffffffffffffffff1660001b6117fe565b905092915050565b6000600260009054906101000a900460ff161561172d576040517f08c379a000000000000000000000000000000000000000000000000000000000815260040161172490612354565b60405180910390fd5b6b033b2e3c9fd0803ce800000061174d83856118e690919063ffffffff16565b8161175457fe5b04905092915050565b600080836001016000848152602001908152602001600020541415905092915050565b6000818360000180549050116117cb576040517f08c379a00000000000000000000000000000000000000000000000000000000081526004016117c2906122b4565b60405180910390fd5b8260000182815481106117da57fe5b9060005260206000200154905092915050565b600081600001805490509050919050565b600080836001016000848152602001908152602001600020549050600081146118da576000600182039050600060018660000180549050039050600086600001828154811061184957fe5b906000526020600020015490508087600001848154811061186657fe5b906000526020600020018190555060018301876001016000838152602001908152602001600020819055508660000180548061189e57fe5b600190038181906000526020600020016000905590558660010160008781526020019081526020016000206000905560019450505050506118e0565b60009150505b92915050565b6000808314156118f95760009050611950565b600082840290508284828161190a57fe5b041461194b576040517f08c379a000000000000000000000000000000000000000000000000000000000815260040161194290612374565b60405180910390fd5b809150505b92915050565b828054828255906000526020600020908101928215611992579160200282015b82811115611991578251825591602001919060010190611976565b5b50905061199f91906119a3565b5090565b6119c591905b808211156119c15760008160009055506001016119a9565b5090565b90565b6000813590506119d78161258f565b92915050565b6000815190506119ec8161258f565b92915050565b600082601f830112611a0357600080fd5b8135611a16611a118261245c565b61242f565b91508181835260208401935060208101905083856020840282011115611a3b57600080fd5b60005b83811015611a6b5781611a518882611a75565b845260208401935060208301925050600181019050611a3e565b5050505092915050565b600081359050611a84816125a6565b92915050565b600081519050611a99816125a6565b92915050565b60006101008284031215611ab257600080fd5b611abd61010061242f565b90506000611acd84828501611b7a565b6000830152506020611ae184828501611b7a565b6020830152506040611af5848285016119dd565b6040830152506060611b0984828501611b8f565b6060830152506080611b1d84828501611b8f565b60808301525060a0611b31848285016119dd565b60a08301525060c0611b45848285016119dd565b60c08301525060e0611b5984828501611b7a565b60e08301525092915050565b600081359050611b74816125bd565b92915050565b600081519050611b89816125bd565b92915050565b600081519050611b9e816125d4565b92915050565b600060208284031215611bb657600080fd5b6000611bc4848285016119c8565b91505092915050565b600060208284031215611bdf57600080fd5b600082013567ffffffffffffffff811115611bf957600080fd5b611c05848285016119f2565b91505092915050565b600060208284031215611c2057600080fd5b6000611c2e84828501611a75565b91505092915050565b600060208284031215611c4957600080fd5b6000611c5784828501611a8a565b91505092915050565b60008060408385031215611c7357600080fd5b6000611c8185828601611a75565b9250506020611c92858286016119c8565b9150509250929050565b60008060408385031215611caf57600080fd5b6000611cbd85828601611a75565b9250506020611cce85828601611b65565b9150509250929050565b60006101008284031215611ceb57600080fd5b6000611cf984828501611a9f565b91505092915050565b600060208284031215611d1457600080fd5b6000611d2284828501611b65565b91505092915050565b600060208284031215611d3d57600080fd5b6000611d4b84828501611b7a565b91505092915050565b611d5d81612516565b82525050565b611d74611d6f826124b2565b61255e565b82525050565b611d83816124a0565b82525050565b611d9a611d95826124a0565b61254c565b82525050565b611da9816124c4565b82525050565b611db8816124d0565b82525050565b6000611dcb602283612484565b91507f456e756d657261626c655365743a20696e646578206f7574206f6620626f756e60008301527f64730000000000000000000000000000000000000000000000000000000000006020830152604082019050919050565b6000611e31602f83612484565b91507f416363657373436f6e74726f6c3a2073656e646572206d75737420626520616e60008301527f2061646d696e20746f206772616e7400000000000000000000000000000000006020830152604082019050919050565b6000611e97601483612484565b91507f5061757361626c653a206e6f74207061757365640000000000000000000000006000830152602082019050919050565b6000611ed7602683612484565b91507f4f776e61626c653a206e6577206f776e657220697320746865207a65726f206160008301527f64647265737300000000000000000000000000000000000000000000000000006020830152604082019050919050565b6000611f3d603083612484565b91507f416363657373436f6e74726f6c3a2073656e646572206d75737420626520616e60008301527f2061646d696e20746f207265766f6b65000000000000000000000000000000006020830152604082019050919050565b6000611fa3600b83612495565b91507f5041555345525f524f4c450000000000000000000000000000000000000000006000830152600b82019050919050565b6000611fe3601083612484565b91507f5061757361626c653a20706175736564000000000000000000000000000000006000830152602082019050919050565b6000612023602183612484565b91507f536166654d6174683a206d756c7469706c69636174696f6e206f766572666c6f60008301527f77000000000000000000000000000000000000000000000000000000000000006020830152604082019050919050565b6000612089602d83612484565b91507f496e7369676e696144414f3a206d75737420686176652070617573657220726f60008301527f6c6520746f20756e7061757365000000000000000000000000000000000000006020830152604082019050919050565b60006120ef602083612484565b91507f4f776e61626c653a2063616c6c6572206973206e6f7420746865206f776e65726000830152602082019050919050565b600061212f602b83612484565b91507f496e7369676e696144414f3a206d75737420686176652070617573657220726f60008301527f6c6520746f2070617573650000000000000000000000000000000000000000006020830152604082019050919050565b6000612195602f83612484565b91507f416363657373436f6e74726f6c3a2063616e206f6e6c792072656e6f756e636560008301527f20726f6c657320666f722073656c6600000000000000000000000000000000006020830152604082019050919050565b6121f7816124fa565b82525050565b60006122098284611d89565b60148201915081905092915050565b60006122248284611d63565b60148201915081905092915050565b600061223e82611f96565b9150819050919050565b600060208201905061225d6000830184611d7a565b92915050565b60006020820190506122786000830184611d54565b92915050565b60006020820190506122936000830184611da0565b92915050565b60006020820190506122ae6000830184611daf565b92915050565b600060208201905081810360008301526122cd81611dbe565b9050919050565b600060208201905081810360008301526122ed81611e24565b9050919050565b6000602082019050818103600083015261230d81611e8a565b9050919050565b6000602082019050818103600083015261232d81611eca565b9050919050565b6000602082019050818103600083015261234d81611f30565b9050919050565b6000602082019050818103600083015261236d81611fd6565b9050919050565b6000602082019050818103600083015261238d81612016565b9050919050565b600060208201905081810360008301526123ad8161207c565b9050919050565b600060208201905081810360008301526123cd816120e2565b9050919050565b600060208201905081810360008301526123ed81612122565b9050919050565b6000602082019050818103600083015261240d81612188565b9050919050565b600060208201905061242960008301846121ee565b92915050565b6000604051905081810181811067ffffffffffffffff8211171561245257600080fd5b8060405250919050565b600067ffffffffffffffff82111561247357600080fd5b602082029050602081019050919050565b600082825260208201905092915050565b600081905092915050565b60006124ab826124da565b9050919050565b60006124bd826124da565b9050919050565b60008115159050919050565b6000819050919050565b600073ffffffffffffffffffffffffffffffffffffffff82169050919050565b6000819050919050565b600065ffffffffffff82169050919050565b600061252182612528565b9050919050565b60006125338261253a565b9050919050565b6000612545826124da565b9050919050565b600061255782612570565b9050919050565b600061256982612570565b9050919050565b600061257b82612582565b9050919050565b60008160601b9050919050565b612598816124a0565b81146125a357600080fd5b50565b6125af816124d0565b81146125ba57600080fd5b50565b6125c6816124fa565b81146125d157600080fd5b50565b6125dd81612504565b81146125e857600080fd5b5056fea26469706673582212202b92f93ec6ed0485232da4edbbefc4e911078e234d1c085d29ce72edd7b20f1d64736f6c63430006080033",
  "immutableReferences": {},
  "source": "/// SPDX-License-Identifier: GPL-3.0\npragma solidity 0.6.8;\npragma experimental ABIEncoderV2;\n\n\n/// @title Non-transferable Badges for Maker Ecosystem Activity, issue #537\n/// @author Nazzareno Massari, Scott Herren\n/// @notice InsigniaDAO to check for activities on maker ecosystem and keep track of redeemers\n/// @dev see https://github.com/makerdao/community/issues/537\n/// @dev All function calls are currently implemented without side effecs through TDD approach\n/// @dev OpenZeppelin library is used for secure contract development\n\nimport \"@openzeppelin/contracts/access/Ownable.sol\";\nimport \"@openzeppelin/contracts/access/AccessControl.sol\";\nimport \"@openzeppelin/contracts/utils/Pausable.sol\";\nimport \"@openzeppelin/contracts/math/SafeMath.sol\";\nimport \"@openzeppelin/contracts/utils/EnumerableSet.sol\";\n\ninterface PotLike {\n\n    function pie(address guy) external view returns (uint256);\n    function chi() external view returns (uint256);\n    function rho() external view returns (uint256);\n    function drip() external view returns (uint256);\n\n}\n\ninterface DSChiefLike {\n  function votes(address) external view returns (bytes32);\n}\n\ninterface  FlipperLike {\n  struct Bid {\n    uint256 bid;\n    uint256 lot;\n    address guy;  // high bidder\n    uint48  tic;  // expiry time\n    uint48  end;\n    address usr;\n    address gal;\n    uint256 tab;\n}\n  function bids(uint256) external view returns (Bid memory);\n}\n\ncontract InsigniaDAO is Ownable, AccessControl, Pausable {\n\n  /// Libraries\n  using SafeMath for uint256;\n  using EnumerableSet for EnumerableSet.AddressSet;\n\n  bytes32 public constant PAUSER_ROLE = keccak256(\"PAUSER_ROLE\");\n\n  bytes32[] public roots;\n\n  EnumerableSet.AddressSet private redeemers;\n\n  /// Events\n  event PotChecked(address guy);\n  event DSChiefChecked(address guy);\n  event FlipperChecked(address guy);\n\n  /// Data\n  PotLike  internal pot;\n  DSChiefLike internal chief;\n  FlipperLike internal flipper;\n\n  /// Math\n  uint256 constant RAY = 10 ** 27;\n\n  function rmul(uint256 x, uint256 y) internal view whenNotPaused returns (uint256 z) {\n          // always rounds down\n          z = x.mul(y) / RAY;\n  }\n\n  constructor() public {\n        _setupRole(DEFAULT_ADMIN_ROLE, owner());\n\n        _setupRole(PAUSER_ROLE, owner());\n\n        /// MCD_POT Kovan Address https://kovan.etherscan.io/address/0xea190dbdc7adf265260ec4da6e9675fd4f5a78bb#code\n\t\t\t  pot = PotLike(0xEA190DBDC7adF265260ec4dA6e9675Fd4f5A78bb);\n\n        /// MCD_ADM Kovan Address https://kovan.etherscan.io/address/0xbBFFC76e94B34F72D96D054b31f6424249c1337d#code\n        chief = DSChiefLike(0xbBFFC76e94B34F72D96D054b31f6424249c1337d);\n        /// MCD_FLIP_ETH_A Kovan Address https://kovan.etherscan.io/address/0xB40139Ea36D35d0C9F6a2e62601B616F1FfbBD1b#code\n        flipper = FlipperLike(0xB40139Ea36D35d0C9F6a2e62601B616F1FfbBD1b);\n\n  }\n\n  /// @notice Fallback function\n  /// @dev Added not payable to revert transactions not matching any other function which send value\n  fallback() external {\n    revert();\n  }\n\n  /// @notice Set Merkle Tree Root Hashes array\n  /// @dev Called by owner to update roots for different address batches by templateId\n  /// @param rootHashes Root hashes of the Merkle Trees by templateId\n  /// @return True if successfully updated\n  function setRootHashes(bytes32[] memory rootHashes) public onlyOwner whenNotPaused returns (bool) {\n    roots = rootHashes;\n    return true;\n  }\n\n  /// @notice Return the accrued interest of guy on Pot\n  /// @dev Based on Chai dai() function\n  /// @param guy Address to check\n  /// @return wad Accrued interest of guy\n  function _dai(address guy) internal view whenNotPaused returns (uint256 wad) {\n    uint256 slice = pot.pie(guy);\n    uint256 chi = (now > pot.rho()) ? pot.drip() : pot.chi();\n    wad = rmul(slice, chi);\n  }\n\n  /// @notice Check Redeemer\n  /// @dev Keep track of the hash of the caller if successful\n  /// @return True/False if the caller successfully checked for activities on MakerDAO or not\n  function checkRedeemer(uint256 id) public whenNotPaused returns (bool) {\n\n    if (_dai(msg.sender) >= 1 ether) {\n      if (!redeemers.contains(address(uint160(uint256(keccak256(abi.encodePacked(msg.sender))))))) {\n      redeemers.add(address(uint160(uint256(keccak256(abi.encodePacked(msg.sender))))));\n      }\n      emit PotChecked(msg.sender);\n    }else if(chief.votes(msg.sender) != 0x00) {\n      if (!redeemers.contains(address(uint160(uint256(keccak256(abi.encodePacked(msg.sender))))))) {\n      redeemers.add(address(uint160(uint256(keccak256(abi.encodePacked(msg.sender))))));\n      }\n      emit DSChiefChecked(msg.sender);\n    }else if(flipper.bids(id).guy == msg.sender) {\n      if (!redeemers.contains(address(uint160(uint256(keccak256(abi.encodePacked(msg.sender))))))) {\n      redeemers.add(address(uint160(uint256(keccak256(abi.encodePacked(msg.sender))))));\n      }\n      emit FlipperChecked(msg.sender);\n    }else {\n      return false;\n    }\n    return true;\n  }\n\n  /// @notice Check if guy is a redeemer\n  /// @dev Verify if the hash of guy address exists\n  /// @param guy Address to verify\n  /// @return True if guy is a redeemer\n  function verify(address guy) public view whenNotPaused returns (bool) {\n    if (redeemers.contains(address(uint160(uint256(keccak256(abi.encodePacked(guy))))))){\n      return true;\n    }\n    return false;\n  }\n\n  /// @notice Pause all the functions\n  /// @dev the caller must have the 'PAUSER_ROLE'\n  function pause() public {\n    require(hasRole(PAUSER_ROLE, msg.sender), \"InsigniaDAO: must have pauser role to pause\");\n    _pause();\n  }\n\n  /// @notice Unpause all the functions\n  /// @dev the caller must have the 'PAUSER_ROLE'\n  function unpause() public {\n        require(hasRole(PAUSER_ROLE, msg.sender), \"InsigniaDAO: must have pauser role to unpause\");\n        _unpause();\n    }\n\n}\n",
  "sourcePath": "/home/sencha/insigniadao/contracts/InsigniaDAO.sol",
  "compiler": {
    "name": "solc",
    "version": "0.6.8+commit.0bbfe453.Emscripten.clang"
  },
  "schemaVersion": "3.1.0",
  "updatedAt": "2020-05-24T17:57:55.341Z",
  "networkType": "ethereum",
  "devdoc": {
    "methods": {
      "checkRedeemer(uint256)": {
        "details": "Keep track of the hash of the caller if successful",
        "returns": {
          "_0": "True/False if the caller successfully checked for activities on MakerDAO or not"
        }
      },
      "getRoleAdmin(bytes32)": {
        "details": "Returns the admin role that controls `role`. See {grantRole} and {revokeRole}.     * To change a role's admin, use {_setRoleAdmin}."
      },
      "getRoleMember(bytes32,uint256)": {
        "details": "Returns one of the accounts that have `role`. `index` must be a value between 0 and {getRoleMemberCount}, non-inclusive.     * Role bearers are not sorted in any particular way, and their ordering may change at any point.     * WARNING: When using {getRoleMember} and {getRoleMemberCount}, make sure you perform all queries on the same block. See the following https://forum.openzeppelin.com/t/iterating-over-elements-on-enumerableset-in-openzeppelin-contracts/2296[forum post] for more information."
      },
      "getRoleMemberCount(bytes32)": {
        "details": "Returns the number of accounts that have `role`. Can be used together with {getRoleMember} to enumerate all bearers of a role."
      },
      "grantRole(bytes32,address)": {
        "details": "Grants `role` to `account`.     * If `account` had not been already granted `role`, emits a {RoleGranted} event.     * Requirements:     * - the caller must have ``role``'s admin role."
      },
      "hasRole(bytes32,address)": {
        "details": "Returns `true` if `account` has been granted `role`."
      },
      "owner()": {
        "details": "Returns the address of the current owner."
      },
      "pause()": {
        "details": "the caller must have the 'PAUSER_ROLE'"
      },
      "paused()": {
        "details": "Returns true if the contract is paused, and false otherwise."
      },
      "renounceOwnership()": {
        "details": "Leaves the contract without owner. It will not be possible to call `onlyOwner` functions anymore. Can only be called by the current owner.     * NOTE: Renouncing ownership will leave the contract without an owner, thereby removing any functionality that is only available to the owner."
      },
      "renounceRole(bytes32,address)": {
        "details": "Revokes `role` from the calling account.     * Roles are often managed via {grantRole} and {revokeRole}: this function's purpose is to provide a mechanism for accounts to lose their privileges if they are compromised (such as when a trusted device is misplaced).     * If the calling account had been granted `role`, emits a {RoleRevoked} event.     * Requirements:     * - the caller must be `account`."
      },
      "revokeRole(bytes32,address)": {
        "details": "Revokes `role` from `account`.     * If `account` had been granted `role`, emits a {RoleRevoked} event.     * Requirements:     * - the caller must have ``role``'s admin role."
      },
      "setRootHashes(bytes32[])": {
        "details": "Called by owner to update roots for different address batches by templateId",
        "params": {
          "rootHashes": "Root hashes of the Merkle Trees by templateId"
        },
        "returns": {
          "_0": "True if successfully updated"
        }
      },
      "transferOwnership(address)": {
        "details": "Transfers ownership of the contract to a new account (`newOwner`). Can only be called by the current owner."
      },
      "unpause()": {
        "details": "the caller must have the 'PAUSER_ROLE'"
      },
      "verify(address)": {
        "details": "Verify if the hash of guy address exists",
        "params": {
          "guy": "Address to verify"
        },
        "returns": {
          "_0": "True if guy is a redeemer"
        }
      }
    }
  },
  "userdoc": {
    "methods": {
      "checkRedeemer(uint256)": {
        "notice": "Check Redeemer"
      },
      "pause()": {
        "notice": "Pause all the functions"
      },
      "setRootHashes(bytes32[])": {
        "notice": "Set Merkle Tree Root Hashes array"
      },
      "unpause()": {
        "notice": "Unpause all the functions"
      },
      "verify(address)": {
        "notice": "Check if guy is a redeemer"
      }
    }
  }
}