{
  "contractName": "InsigniaDAO",
  "abi": [
    {
      "inputs": [],
      "stateMutability": "nonpayable",
      "type": "constructor"
    },
    {
      "anonymous": false,
      "inputs": [
        {
          "indexed": false,
          "internalType": "address",
          "name": "guy",
          "type": "address"
        }
      ],
      "name": "DSChiefChecked",
      "type": "event"
    },
    {
      "anonymous": false,
      "inputs": [
        {
          "indexed": false,
          "internalType": "address",
          "name": "guy",
          "type": "address"
        }
      ],
      "name": "FlipperChecked",
      "type": "event"
    },
    {
      "anonymous": false,
      "inputs": [
        {
          "indexed": true,
          "internalType": "address",
          "name": "previousOwner",
          "type": "address"
        },
        {
          "indexed": true,
          "internalType": "address",
          "name": "newOwner",
          "type": "address"
        }
      ],
      "name": "OwnershipTransferred",
      "type": "event"
    },
    {
      "anonymous": false,
      "inputs": [
        {
          "indexed": false,
          "internalType": "address",
          "name": "account",
          "type": "address"
        }
      ],
      "name": "Paused",
      "type": "event"
    },
    {
      "anonymous": false,
      "inputs": [
        {
          "indexed": false,
          "internalType": "address",
          "name": "guy",
          "type": "address"
        }
      ],
      "name": "PotChecked",
      "type": "event"
    },
    {
      "anonymous": false,
      "inputs": [
        {
          "indexed": true,
          "internalType": "bytes32",
          "name": "role",
          "type": "bytes32"
        },
        {
          "indexed": true,
          "internalType": "address",
          "name": "account",
          "type": "address"
        },
        {
          "indexed": true,
          "internalType": "address",
          "name": "sender",
          "type": "address"
        }
      ],
      "name": "RoleGranted",
      "type": "event"
    },
    {
      "anonymous": false,
      "inputs": [
        {
          "indexed": true,
          "internalType": "bytes32",
          "name": "role",
          "type": "bytes32"
        },
        {
          "indexed": true,
          "internalType": "address",
          "name": "account",
          "type": "address"
        },
        {
          "indexed": true,
          "internalType": "address",
          "name": "sender",
          "type": "address"
        }
      ],
      "name": "RoleRevoked",
      "type": "event"
    },
    {
      "anonymous": false,
      "inputs": [
        {
          "indexed": false,
          "internalType": "address",
          "name": "account",
          "type": "address"
        }
      ],
      "name": "Unpaused",
      "type": "event"
    },
    {
      "stateMutability": "nonpayable",
      "type": "fallback"
    },
    {
      "inputs": [],
      "name": "DEFAULT_ADMIN_ROLE",
      "outputs": [
        {
          "internalType": "bytes32",
          "name": "",
          "type": "bytes32"
        }
      ],
      "stateMutability": "view",
      "type": "function",
      "constant": true
    },
    {
      "inputs": [],
      "name": "PAUSER_ROLE",
      "outputs": [
        {
          "internalType": "bytes32",
          "name": "",
          "type": "bytes32"
        }
      ],
      "stateMutability": "view",
      "type": "function",
      "constant": true
    },
    {
      "inputs": [
        {
          "internalType": "bytes32",
          "name": "role",
          "type": "bytes32"
        }
      ],
      "name": "getRoleAdmin",
      "outputs": [
        {
          "internalType": "bytes32",
          "name": "",
          "type": "bytes32"
        }
      ],
      "stateMutability": "view",
      "type": "function",
      "constant": true
    },
    {
      "inputs": [
        {
          "internalType": "bytes32",
          "name": "role",
          "type": "bytes32"
        },
        {
          "internalType": "uint256",
          "name": "index",
          "type": "uint256"
        }
      ],
      "name": "getRoleMember",
      "outputs": [
        {
          "internalType": "address",
          "name": "",
          "type": "address"
        }
      ],
      "stateMutability": "view",
      "type": "function",
      "constant": true
    },
    {
      "inputs": [
        {
          "internalType": "bytes32",
          "name": "role",
          "type": "bytes32"
        }
      ],
      "name": "getRoleMemberCount",
      "outputs": [
        {
          "internalType": "uint256",
          "name": "",
          "type": "uint256"
        }
      ],
      "stateMutability": "view",
      "type": "function",
      "constant": true
    },
    {
      "inputs": [
        {
          "internalType": "bytes32",
          "name": "role",
          "type": "bytes32"
        },
        {
          "internalType": "address",
          "name": "account",
          "type": "address"
        }
      ],
      "name": "grantRole",
      "outputs": [],
      "stateMutability": "nonpayable",
      "type": "function"
    },
    {
      "inputs": [
        {
          "internalType": "bytes32",
          "name": "role",
          "type": "bytes32"
        },
        {
          "internalType": "address",
          "name": "account",
          "type": "address"
        }
      ],
      "name": "hasRole",
      "outputs": [
        {
          "internalType": "bool",
          "name": "",
          "type": "bool"
        }
      ],
      "stateMutability": "view",
      "type": "function",
      "constant": true
    },
    {
      "inputs": [],
      "name": "owner",
      "outputs": [
        {
          "internalType": "address",
          "name": "",
          "type": "address"
        }
      ],
      "stateMutability": "view",
      "type": "function",
      "constant": true
    },
    {
      "inputs": [],
      "name": "paused",
      "outputs": [
        {
          "internalType": "bool",
          "name": "",
          "type": "bool"
        }
      ],
      "stateMutability": "view",
      "type": "function",
      "constant": true
    },
    {
      "inputs": [],
      "name": "renounceOwnership",
      "outputs": [],
      "stateMutability": "nonpayable",
      "type": "function"
    },
    {
      "inputs": [
        {
          "internalType": "bytes32",
          "name": "role",
          "type": "bytes32"
        },
        {
          "internalType": "address",
          "name": "account",
          "type": "address"
        }
      ],
      "name": "renounceRole",
      "outputs": [],
      "stateMutability": "nonpayable",
      "type": "function"
    },
    {
      "inputs": [
        {
          "internalType": "bytes32",
          "name": "role",
          "type": "bytes32"
        },
        {
          "internalType": "address",
          "name": "account",
          "type": "address"
        }
      ],
      "name": "revokeRole",
      "outputs": [],
      "stateMutability": "nonpayable",
      "type": "function"
    },
    {
      "inputs": [
        {
          "internalType": "uint256",
          "name": "",
          "type": "uint256"
        }
      ],
      "name": "roots",
      "outputs": [
        {
          "internalType": "bytes32",
          "name": "",
          "type": "bytes32"
        }
      ],
      "stateMutability": "view",
      "type": "function",
      "constant": true
    },
    {
      "inputs": [
        {
          "internalType": "address",
          "name": "newOwner",
          "type": "address"
        }
      ],
      "name": "transferOwnership",
      "outputs": [],
      "stateMutability": "nonpayable",
      "type": "function"
    },
    {
      "inputs": [
        {
          "internalType": "bytes32[]",
          "name": "rootHashes",
          "type": "bytes32[]"
        }
      ],
      "name": "setRootHashes",
      "outputs": [
        {
          "internalType": "bool",
          "name": "",
          "type": "bool"
        }
      ],
      "stateMutability": "nonpayable",
      "type": "function"
    },
    {
      "inputs": [
        {
          "internalType": "uint256",
          "name": "id",
          "type": "uint256"
        }
      ],
      "name": "checkRedeemer",
      "outputs": [
        {
          "internalType": "bool",
          "name": "",
          "type": "bool"
        }
      ],
      "stateMutability": "nonpayable",
      "type": "function"
    },
    {
      "inputs": [
        {
          "internalType": "address",
          "name": "guy",
          "type": "address"
        }
      ],
      "name": "verify",
      "outputs": [
        {
          "internalType": "bool",
          "name": "",
          "type": "bool"
        }
      ],
      "stateMutability": "view",
      "type": "function",
      "constant": true
    },
    {
      "inputs": [],
      "name": "pause",
      "outputs": [],
      "stateMutability": "nonpayable",
      "type": "function"
    },
    {
      "inputs": [],
      "name": "unpause",
      "outputs": [],
      "stateMutability": "nonpayable",
      "type": "function"
    }
  ],
  "bytecode": "0x60806040523480156200001157600080fd5b506000620000246200023c60201b60201c565b9050806000806101000a81548173ffffffffffffffffffffffffffffffffffffffff021916908373ffffffffffffffffffffffffffffffffffffffff1602179055508073ffffffffffffffffffffffffffffffffffffffff16600073ffffffffffffffffffffffffffffffffffffffff167f8be0079c531659141344cd1fd0a4f28419497f9722a3daafe3b4186f6b6457e060405160405180910390a3506000600260006101000a81548160ff021916908315150217905550620001016000801b620000f56200024460201b60201c565b6200026d60201b60201c565b6200013760405162000113906200043e565b60405180910390206200012b6200024460201b60201c565b6200026d60201b60201c565b73ea190dbdc7adf265260ec4da6e9675fd4f5a78bb600660006101000a81548173ffffffffffffffffffffffffffffffffffffffff021916908373ffffffffffffffffffffffffffffffffffffffff16021790555073bbffc76e94b34f72d96d054b31f6424249c1337d600760006101000a81548173ffffffffffffffffffffffffffffffffffffffff021916908373ffffffffffffffffffffffffffffffffffffffff16021790555073b40139ea36d35d0c9f6a2e62601b616f1ffbbd1b600860006101000a81548173ffffffffffffffffffffffffffffffffffffffff021916908373ffffffffffffffffffffffffffffffffffffffff16021790555062000460565b600033905090565b60008060009054906101000a900473ffffffffffffffffffffffffffffffffffffffff16905090565b6200027f82826200028360201b60201c565b5050565b620002b281600160008581526020019081526020016000206000016200032760201b6200105a1790919060201c565b156200032357620002c86200023c60201b60201c565b73ffffffffffffffffffffffffffffffffffffffff168173ffffffffffffffffffffffffffffffffffffffff16837f2f8788117e7eff1d82e926ec794901d17c78024a50270940304540a733656f0d60405160405180910390a45b5050565b600062000357836000018373ffffffffffffffffffffffffffffffffffffffff1660001b6200035f60201b60201c565b905092915050565b6000620003738383620003d960201b60201c565b620003ce578260000182908060018154018082558091505060019003906000526020600020016000909190919091505582600001805490508360010160008481526020019081526020016000208190555060019050620003d3565b600090505b92915050565b600080836001016000848152602001908152602001600020541415905092915050565b60006200040b600b8362000455565b91507f5041555345525f524f4c450000000000000000000000000000000000000000006000830152600b82019050919050565b60006200044b82620003fc565b9150819050919050565b600081905092915050565b6126b880620004706000396000f3fe608060405234801561001057600080fd5b50600436106101255760003560e01c80638da5cb5b116100ad578063c2b40ae411610071578063c2b40ae4146102fb578063ca15c8731461032b578063d547741f1461035b578063e63ab1e914610377578063f2fde38b1461039557610126565b80638da5cb5b1461022f5780639010d07c1461024d57806391d148541461027d578063a217fddf146102ad578063aca57703146102cb57610126565b80635a3d044e116100f45780635a3d044e1461019d5780635c975abb146101cd57806363a9c3d7146101eb578063715018a61461021b5780638456cb591461022557610126565b8063248a9ca31461012b5780632f2ff15d1461015b57806336568abe146101775780633f4ba83a1461019357610126565b5b600080fd5b61014560048036038101906101409190611c45565b6103b1565b6040516101529190612310565b60405180910390f35b61017560048036038101906101709190611c97565b6103d1565b005b610191600480360381019061018c9190611c97565b610445565b005b61019b6104c8565b005b6101b760048036038101906101b29190611d39565b61052e565b6040516101c491906122f5565b60405180910390f35b6101d561097e565b6040516101e291906122f5565b60405180910390f35b61020560048036038101906102009190611bdb565b610995565b60405161021291906122f5565b60405180910390f35b610223610a6c565b005b61022d610bc1565b005b610237610c27565b60405161024491906122bf565b60405180910390f35b61026760048036038101906102629190611cd3565b610c50565b60405161027491906122bf565b60405180910390f35b61029760048036038101906102929190611c97565b610c82565b6040516102a491906122f5565b60405180910390f35b6102b5610cb4565b6040516102c29190612310565b60405180910390f35b6102e560048036038101906102e09190611c04565b610cbb565b6040516102f291906122f5565b60405180910390f35b61031560048036038101906103109190611d39565b610dc3565b6040516103229190612310565b60405180910390f35b61034560048036038101906103409190611c45565b610de4565b60405161035291906124ab565b60405180910390f35b61037560048036038101906103709190611c97565b610e0b565b005b61037f610e7f565b60405161038c9190612310565b60405180910390f35b6103af60048036038101906103aa9190611bdb565b610e96565b005b600060016000838152602001908152602001600020600201549050919050565b6103f860016000848152602001908152602001600020600201546103f361108a565b610c82565b610437576040517f08c379a000000000000000000000000000000000000000000000000000000000815260040161042e9061234b565b60405180910390fd5b6104418282611092565b5050565b61044d61108a565b73ffffffffffffffffffffffffffffffffffffffff168173ffffffffffffffffffffffffffffffffffffffff16146104ba576040517f08c379a00000000000000000000000000000000000000000000000000000000081526004016104b19061248b565b60405180910390fd5b6104c48282611126565b5050565b6104e56040516104d7906122aa565b604051809103902033610c82565b610524576040517f08c379a000000000000000000000000000000000000000000000000000000000815260040161051b9061242b565b60405180910390fd5b61052c6111ba565b565b6000600260009054906101000a900460ff1615610580576040517f08c379a0000000000000000000000000000000000000000000000000000000008152600401610577906123cb565b60405180910390fd5b670de0b6b3a764000061059233611264565b1061065a576105db6105a261108a565b6040516020016105b2919061228f565b6040516020818303038152906040528051906020012060001c600461156890919063ffffffff16565b61061e5761061c336040516020016105f3919061228f565b6040516020818303038152906040528051906020012060001c600461105a90919063ffffffff16565b505b7fc53e300da4fe7bad9553037bb567acec8109a294de1f832291c2d814dfc262c43360405161064d91906122da565b60405180910390a1610974565b6000801b600760009054906101000a900473ffffffffffffffffffffffffffffffffffffffff1673ffffffffffffffffffffffffffffffffffffffff1663d8bff5a5336040518263ffffffff1660e01b81526004016106b991906122da565b60206040518083038186803b1580156106d157600080fd5b505afa1580156106e5573d6000803e3d6000fd5b505050506040513d601f19601f820116820180604052508101906107099190611c6e565b146107ca5761074b33604051602001610722919061228f565b6040516020818303038152906040528051906020012060001c600461156890919063ffffffff16565b61078e5761078c33604051602001610763919061228f565b6040516020818303038152906040528051906020012060001c600461105a90919063ffffffff16565b505b7f359eefdc83d4cbeabeed5ea68cd9213056f02a7317e55e1310612edc535d5ae9336040516107bd91906122da565b60405180910390a1610973565b3373ffffffffffffffffffffffffffffffffffffffff16600860009054906101000a900473ffffffffffffffffffffffffffffffffffffffff1673ffffffffffffffffffffffffffffffffffffffff16634423c5f1846040518263ffffffff1660e01b815260040161083c91906124ab565b6101006040518083038186803b15801561085557600080fd5b505afa158015610869573d6000803e3d6000fd5b505050506040513d601f19601f8201168201806040525081019061088d9190611d0f565b6040015173ffffffffffffffffffffffffffffffffffffffff161415610969576108ea336040516020016108c1919061228f565b6040516020818303038152906040528051906020012060001c600461156890919063ffffffff16565b61092d5761092b33604051602001610902919061228f565b6040516020818303038152906040528051906020012060001c600461105a90919063ffffffff16565b505b7f430bb0ab986389293d8f0855931d73d3e3bdc06890eb3e780550c98a7582a7ef3360405161095c91906122da565b60405180910390a1610972565b60009050610979565b5b5b600190505b919050565b6000600260009054906101000a900460ff16905090565b6000600260009054906101000a900460ff16156109e7576040517f08c379a00000000000000000000000000000000000000000000000000000000081526004016109de906123cb565b60405180910390fd5b610a24826040516020016109fb9190612274565b6040516020818303038152906040528051906020012060001c600461156890919063ffffffff16565b610a63576040517f08c379a0000000000000000000000000000000000000000000000000000000008152600401610a5a9061240b565b60405180910390fd5b60019050919050565b610a7461108a565b73ffffffffffffffffffffffffffffffffffffffff166000809054906101000a900473ffffffffffffffffffffffffffffffffffffffff1673ffffffffffffffffffffffffffffffffffffffff1614610b02576040517f08c379a0000000000000000000000000000000000000000000000000000000008152600401610af99061244b565b60405180910390fd5b600073ffffffffffffffffffffffffffffffffffffffff166000809054906101000a900473ffffffffffffffffffffffffffffffffffffffff1673ffffffffffffffffffffffffffffffffffffffff167f8be0079c531659141344cd1fd0a4f28419497f9722a3daafe3b4186f6b6457e060405160405180910390a360008060006101000a81548173ffffffffffffffffffffffffffffffffffffffff021916908373ffffffffffffffffffffffffffffffffffffffff160217905550565b610bde604051610bd0906122aa565b604051809103902033610c82565b610c1d576040517f08c379a0000000000000000000000000000000000000000000000000000000008152600401610c149061246b565b60405180910390fd5b610c25611598565b565b60008060009054906101000a900473ffffffffffffffffffffffffffffffffffffffff16905090565b6000610c7a826001600086815260200190815260200160002060000161164390919063ffffffff16565b905092915050565b6000610cac826001600086815260200190815260200160002060000161156890919063ffffffff16565b905092915050565b6000801b81565b6000610cc561108a565b73ffffffffffffffffffffffffffffffffffffffff166000809054906101000a900473ffffffffffffffffffffffffffffffffffffffff1673ffffffffffffffffffffffffffffffffffffffff1614610d53576040517f08c379a0000000000000000000000000000000000000000000000000000000008152600401610d4a9061244b565b60405180910390fd5b600260009054906101000a900460ff1615610da3576040517f08c379a0000000000000000000000000000000000000000000000000000000008152600401610d9a906123cb565b60405180910390fd5b8160039080519060200190610db992919061198d565b5060019050919050565b60038181548110610dd057fe5b906000526020600020016000915090505481565b6000610e046001600084815260200190815260200160002060000161165d565b9050919050565b610e326001600084815260200190815260200160002060020154610e2d61108a565b610c82565b610e71576040517f08c379a0000000000000000000000000000000000000000000000000000000008152600401610e68906123ab565b60405180910390fd5b610e7b8282611126565b5050565b604051610e8b906122aa565b604051809103902081565b610e9e61108a565b73ffffffffffffffffffffffffffffffffffffffff166000809054906101000a900473ffffffffffffffffffffffffffffffffffffffff1673ffffffffffffffffffffffffffffffffffffffff1614610f2c576040517f08c379a0000000000000000000000000000000000000000000000000000000008152600401610f239061244b565b60405180910390fd5b600073ffffffffffffffffffffffffffffffffffffffff168173ffffffffffffffffffffffffffffffffffffffff161415610f9c576040517f08c379a0000000000000000000000000000000000000000000000000000000008152600401610f939061238b565b60405180910390fd5b8073ffffffffffffffffffffffffffffffffffffffff166000809054906101000a900473ffffffffffffffffffffffffffffffffffffffff1673ffffffffffffffffffffffffffffffffffffffff167f8be0079c531659141344cd1fd0a4f28419497f9722a3daafe3b4186f6b6457e060405160405180910390a3806000806101000a81548173ffffffffffffffffffffffffffffffffffffffff021916908373ffffffffffffffffffffffffffffffffffffffff16021790555050565b6000611082836000018373ffffffffffffffffffffffffffffffffffffffff1660001b611672565b905092915050565b600033905090565b6110ba816001600085815260200190815260200160002060000161105a90919063ffffffff16565b15611122576110c761108a565b73ffffffffffffffffffffffffffffffffffffffff168173ffffffffffffffffffffffffffffffffffffffff16837f2f8788117e7eff1d82e926ec794901d17c78024a50270940304540a733656f0d60405160405180910390a45b5050565b61114e81600160008581526020019081526020016000206000016116e290919063ffffffff16565b156111b65761115b61108a565b73ffffffffffffffffffffffffffffffffffffffff168173ffffffffffffffffffffffffffffffffffffffff16837ff6391f5c32d9c69d2a47ea670b442974b53935d1edc7fd64eb21e047a839171b60405160405180910390a45b5050565b600260009054906101000a900460ff16611209576040517f08c379a00000000000000000000000000000000000000000000000000000000081526004016112009061236b565b60405180910390fd5b6000600260006101000a81548160ff0219169083151502179055507f5db9ee0a495bf2e6ff9c91a7834c1ba4fdd244a5e8aa4e537bd38aeae4b073aa61124d61108a565b60405161125a91906122da565b60405180910390a1565b6000600260009054906101000a900460ff16156112b6576040517f08c379a00000000000000000000000000000000000000000000000000000000081526004016112ad906123cb565b60405180910390fd5b6000600660009054906101000a900473ffffffffffffffffffffffffffffffffffffffff1673ffffffffffffffffffffffffffffffffffffffff16630bebac86846040518263ffffffff1660e01b815260040161131391906122bf565b60206040518083038186803b15801561132b57600080fd5b505afa15801561133f573d6000803e3d6000fd5b505050506040513d601f19601f820116820180604052508101906113639190611d62565b90506000600660009054906101000a900473ffffffffffffffffffffffffffffffffffffffff1673ffffffffffffffffffffffffffffffffffffffff166320aba08b6040518163ffffffff1660e01b815260040160206040518083038186803b1580156113cf57600080fd5b505afa1580156113e3573d6000803e3d6000fd5b505050506040513d601f19601f820116820180604052508101906114079190611d62565b42116114b257600660009054906101000a900473ffffffffffffffffffffffffffffffffffffffff1673ffffffffffffffffffffffffffffffffffffffff1663c92aecc46040518163ffffffff1660e01b815260040160206040518083038186803b15801561147557600080fd5b505afa158015611489573d6000803e3d6000fd5b505050506040513d601f19601f820116820180604052508101906114ad9190611d62565b611553565b600660009054906101000a900473ffffffffffffffffffffffffffffffffffffffff1673ffffffffffffffffffffffffffffffffffffffff16639f678cca6040518163ffffffff1660e01b815260040160206040518083038186803b15801561151a57600080fd5b505afa15801561152e573d6000803e3d6000fd5b505050506040513d601f19601f820116820180604052508101906115529190611d62565b5b905061155f8282611712565b92505050919050565b6000611590836000018373ffffffffffffffffffffffffffffffffffffffff1660001b611794565b905092915050565b600260009054906101000a900460ff16156115e8576040517f08c379a00000000000000000000000000000000000000000000000000000000081526004016115df906123cb565b60405180910390fd5b6001600260006101000a81548160ff0219169083151502179055507f62e78cea01bee320cd4e420270b5ea74000d11b0c9f74754ebdbfc544b05a25861162c61108a565b60405161163991906122da565b60405180910390a1565b600061165283600001836117b7565b60001c905092915050565b600061166b82600001611824565b9050919050565b600061167e8383611794565b6116d75782600001829080600181540180825580915050600190039060005260206000200160009091909190915055826000018054905083600101600084815260200190815260200160002081905550600190506116dc565b600090505b92915050565b600061170a836000018373ffffffffffffffffffffffffffffffffffffffff1660001b611835565b905092915050565b6000600260009054906101000a900460ff1615611764576040517f08c379a000000000000000000000000000000000000000000000000000000000815260040161175b906123cb565b60405180910390fd5b6b033b2e3c9fd0803ce8000000611784838561191d90919063ffffffff16565b8161178b57fe5b04905092915050565b600080836001016000848152602001908152602001600020541415905092915050565b600081836000018054905011611802576040517f08c379a00000000000000000000000000000000000000000000000000000000081526004016117f99061232b565b60405180910390fd5b82600001828154811061181157fe5b9060005260206000200154905092915050565b600081600001805490509050919050565b60008083600101600084815260200190815260200160002054905060008114611911576000600182039050600060018660000180549050039050600086600001828154811061188057fe5b906000526020600020015490508087600001848154811061189d57fe5b90600052602060002001819055506001830187600101600083815260200190815260200160002081905550866000018054806118d557fe5b60019003818190600052602060002001600090559055866001016000878152602001908152602001600020600090556001945050505050611917565b60009150505b92915050565b6000808314156119305760009050611987565b600082840290508284828161194157fe5b0414611982576040517f08c379a0000000000000000000000000000000000000000000000000000000008152600401611979906123eb565b60405180910390fd5b809150505b92915050565b8280548282559060005260206000209081019282156119c9579160200282015b828111156119c85782518255916020019190600101906119ad565b5b5090506119d691906119da565b5090565b6119fc91905b808211156119f85760008160009055506001016119e0565b5090565b90565b600081359050611a0e81612626565b92915050565b600081519050611a2381612626565b92915050565b600082601f830112611a3a57600080fd5b8135611a4d611a48826124f3565b6124c6565b91508181835260208401935060208101905083856020840282011115611a7257600080fd5b60005b83811015611aa25781611a888882611aac565b845260208401935060208301925050600181019050611a75565b5050505092915050565b600081359050611abb8161263d565b92915050565b600081519050611ad08161263d565b92915050565b60006101008284031215611ae957600080fd5b611af46101006124c6565b90506000611b0484828501611bb1565b6000830152506020611b1884828501611bb1565b6020830152506040611b2c84828501611a14565b6040830152506060611b4084828501611bc6565b6060830152506080611b5484828501611bc6565b60808301525060a0611b6884828501611a14565b60a08301525060c0611b7c84828501611a14565b60c08301525060e0611b9084828501611bb1565b60e08301525092915050565b600081359050611bab81612654565b92915050565b600081519050611bc081612654565b92915050565b600081519050611bd58161266b565b92915050565b600060208284031215611bed57600080fd5b6000611bfb848285016119ff565b91505092915050565b600060208284031215611c1657600080fd5b600082013567ffffffffffffffff811115611c3057600080fd5b611c3c84828501611a29565b91505092915050565b600060208284031215611c5757600080fd5b6000611c6584828501611aac565b91505092915050565b600060208284031215611c8057600080fd5b6000611c8e84828501611ac1565b91505092915050565b60008060408385031215611caa57600080fd5b6000611cb885828601611aac565b9250506020611cc9858286016119ff565b9150509250929050565b60008060408385031215611ce657600080fd5b6000611cf485828601611aac565b9250506020611d0585828601611b9c565b9150509250929050565b60006101008284031215611d2257600080fd5b6000611d3084828501611ad6565b91505092915050565b600060208284031215611d4b57600080fd5b6000611d5984828501611b9c565b91505092915050565b600060208284031215611d7457600080fd5b6000611d8284828501611bb1565b91505092915050565b611d94816125ad565b82525050565b611dab611da682612549565b6125f5565b82525050565b611dba81612537565b82525050565b611dd1611dcc82612537565b6125e3565b82525050565b611de08161255b565b82525050565b611def81612567565b82525050565b6000611e0260228361251b565b91507f456e756d657261626c655365743a20696e646578206f7574206f6620626f756e60008301527f64730000000000000000000000000000000000000000000000000000000000006020830152604082019050919050565b6000611e68602f8361251b565b91507f416363657373436f6e74726f6c3a2073656e646572206d75737420626520616e60008301527f2061646d696e20746f206772616e7400000000000000000000000000000000006020830152604082019050919050565b6000611ece60148361251b565b91507f5061757361626c653a206e6f74207061757365640000000000000000000000006000830152602082019050919050565b6000611f0e60268361251b565b91507f4f776e61626c653a206e6577206f776e657220697320746865207a65726f206160008301527f64647265737300000000000000000000000000000000000000000000000000006020830152604082019050919050565b6000611f7460308361251b565b91507f416363657373436f6e74726f6c3a2073656e646572206d75737420626520616e60008301527f2061646d696e20746f207265766f6b65000000000000000000000000000000006020830152604082019050919050565b6000611fda600b8361252c565b91507f5041555345525f524f4c450000000000000000000000000000000000000000006000830152600b82019050919050565b600061201a60108361251b565b91507f5061757361626c653a20706175736564000000000000000000000000000000006000830152602082019050919050565b600061205a60218361251b565b91507f536166654d6174683a206d756c7469706c69636174696f6e206f766572666c6f60008301527f77000000000000000000000000000000000000000000000000000000000000006020830152604082019050919050565b60006120c0601d8361251b565b91507f5468652061646472657373206973206e6f7420612072656465656d65720000006000830152602082019050919050565b6000612100602d8361251b565b91507f496e7369676e696144414f3a206d75737420686176652070617573657220726f60008301527f6c6520746f20756e7061757365000000000000000000000000000000000000006020830152604082019050919050565b600061216660208361251b565b91507f4f776e61626c653a2063616c6c6572206973206e6f7420746865206f776e65726000830152602082019050919050565b60006121a6602b8361251b565b91507f496e7369676e696144414f3a206d75737420686176652070617573657220726f60008301527f6c6520746f2070617573650000000000000000000000000000000000000000006020830152604082019050919050565b600061220c602f8361251b565b91507f416363657373436f6e74726f6c3a2063616e206f6e6c792072656e6f756e636560008301527f20726f6c657320666f722073656c6600000000000000000000000000000000006020830152604082019050919050565b61226e81612591565b82525050565b60006122808284611dc0565b60148201915081905092915050565b600061229b8284611d9a565b60148201915081905092915050565b60006122b582611fcd565b9150819050919050565b60006020820190506122d46000830184611db1565b92915050565b60006020820190506122ef6000830184611d8b565b92915050565b600060208201905061230a6000830184611dd7565b92915050565b60006020820190506123256000830184611de6565b92915050565b6000602082019050818103600083015261234481611df5565b9050919050565b6000602082019050818103600083015261236481611e5b565b9050919050565b6000602082019050818103600083015261238481611ec1565b9050919050565b600060208201905081810360008301526123a481611f01565b9050919050565b600060208201905081810360008301526123c481611f67565b9050919050565b600060208201905081810360008301526123e48161200d565b9050919050565b600060208201905081810360008301526124048161204d565b9050919050565b60006020820190508181036000830152612424816120b3565b9050919050565b60006020820190508181036000830152612444816120f3565b9050919050565b6000602082019050818103600083015261246481612159565b9050919050565b6000602082019050818103600083015261248481612199565b9050919050565b600060208201905081810360008301526124a4816121ff565b9050919050565b60006020820190506124c06000830184612265565b92915050565b6000604051905081810181811067ffffffffffffffff821117156124e957600080fd5b8060405250919050565b600067ffffffffffffffff82111561250a57600080fd5b602082029050602081019050919050565b600082825260208201905092915050565b600081905092915050565b600061254282612571565b9050919050565b600061255482612571565b9050919050565b60008115159050919050565b6000819050919050565b600073ffffffffffffffffffffffffffffffffffffffff82169050919050565b6000819050919050565b600065ffffffffffff82169050919050565b60006125b8826125bf565b9050919050565b60006125ca826125d1565b9050919050565b60006125dc82612571565b9050919050565b60006125ee82612607565b9050919050565b600061260082612607565b9050919050565b600061261282612619565b9050919050565b60008160601b9050919050565b61262f81612537565b811461263a57600080fd5b50565b61264681612567565b811461265157600080fd5b50565b61265d81612591565b811461266857600080fd5b50565b6126748161259b565b811461267f57600080fd5b5056fea26469706673582212202adf70ecc1ccd0e85998a614b3c2ff2353fda0397f6d11fe139e840b7e24054b64736f6c63430006080033",
  "immutableReferences": {},
  "source": "/// SPDX-License-Identifier: GPL-3.0\npragma solidity 0.6.8;\npragma experimental ABIEncoderV2;\n\n\n/// @title Non-transferable Badges for Maker Ecosystem Activity, issue #537\n/// @author Nazzareno Massari, Scott Herren\n/// @notice InsigniaDAO to check for activities on maker ecosystem and keep track of redeemers\n/// @dev see https://github.com/makerdao/community/issues/537\n/// @dev All function calls are currently implemented without side effecs through TDD approach\n/// @dev OpenZeppelin library is used for secure contract development\n\nimport \"@openzeppelin/contracts/access/Ownable.sol\";\nimport \"@openzeppelin/contracts/access/AccessControl.sol\";\nimport \"@openzeppelin/contracts/utils/Pausable.sol\";\nimport \"@openzeppelin/contracts/math/SafeMath.sol\";\nimport \"@openzeppelin/contracts/utils/EnumerableSet.sol\";\n\ninterface PotLike {\n\n    function pie(address guy) external view returns (uint256);\n    function chi() external view returns (uint256);\n    function rho() external view returns (uint256);\n    function drip() external view returns (uint256);\n\n}\n\ninterface DSChiefLike {\n  function votes(address) external view returns (bytes32);\n}\n\ninterface  FlipperLike {\n  struct Bid {\n    uint256 bid;\n    uint256 lot;\n    address guy;  // high bidder\n    uint48  tic;  // expiry time\n    uint48  end;\n    address usr;\n    address gal;\n    uint256 tab;\n}\n  function bids(uint256) external view returns (Bid memory);\n}\n\ncontract InsigniaDAO is Ownable, AccessControl, Pausable {\n\n  /// Libraries\n  using SafeMath for uint256;\n  using EnumerableSet for EnumerableSet.AddressSet;\n\n  bytes32 public constant PAUSER_ROLE = keccak256(\"PAUSER_ROLE\");\n\n  bytes32[] public roots;\n\n  EnumerableSet.AddressSet private redeemers;\n\n  /// Events\n  event PotChecked(address guy);\n  event DSChiefChecked(address guy);\n  event FlipperChecked(address guy);\n\n  /// Data\n  PotLike  internal pot;\n  DSChiefLike internal chief;\n  FlipperLike internal flipper;\n\n  /// Math\n  uint256 constant RAY = 10 ** 27;\n\n  function rmul(uint256 x, uint256 y) internal view whenNotPaused returns (uint256 z) {\n          // always rounds down\n          z = x.mul(y) / RAY;\n  }\n\n  constructor() public {\n        _setupRole(DEFAULT_ADMIN_ROLE, owner());\n\n        _setupRole(PAUSER_ROLE, owner());\n\n        /// MCD_POT Kovan Address https://kovan.etherscan.io/address/0xea190dbdc7adf265260ec4da6e9675fd4f5a78bb#code\n\t\t\t  pot = PotLike(0xEA190DBDC7adF265260ec4dA6e9675Fd4f5A78bb);\n\n        /// MCD_ADM Kovan Address https://kovan.etherscan.io/address/0xbBFFC76e94B34F72D96D054b31f6424249c1337d#code\n        chief = DSChiefLike(0xbBFFC76e94B34F72D96D054b31f6424249c1337d);\n        /// MCD_FLIP_ETH_A Kovan Address https://kovan.etherscan.io/address/0xB40139Ea36D35d0C9F6a2e62601B616F1FfbBD1b#code\n        flipper = FlipperLike(0xB40139Ea36D35d0C9F6a2e62601B616F1FfbBD1b);\n\n  }\n\n  /// @notice Fallback function\n  /// @dev Added not payable to revert transactions not matching any other function which send value\n  fallback() external {\n    revert();\n  }\n\n  /// @notice Set Merkle Tree Root Hashes array\n  /// @dev Called by owner to update roots for different address batches by templateId\n  /// @param rootHashes Root hashes of the Merkle Trees by templateId\n  /// @return True if successfully updated\n  function setRootHashes(bytes32[] memory rootHashes) public onlyOwner whenNotPaused returns (bool) {\n    roots = rootHashes;\n    return true;\n  }\n\n  /// @notice Return the accrued interest of guy on Pot\n  /// @dev Based on Chai dai() function\n  /// @param guy Address to check\n  /// @return wad Accrued interest of guy\n  function _dai(address guy) internal view whenNotPaused returns (uint256 wad) {\n    uint256 slice = pot.pie(guy);\n    uint256 chi = (now > pot.rho()) ? pot.drip() : pot.chi();\n    wad = rmul(slice, chi);\n  }\n\n  /// @notice Check Redeemer\n  /// @dev Keep track of the hash of the caller if successful\n  /// @return True/False if the caller successfully checked for activities on MakerDAO or not\n  function checkRedeemer(uint256 id) public whenNotPaused returns (bool) {\n\n    if (_dai(msg.sender) >= 1 ether) {\n      if (!redeemers.contains(address(uint160(uint256(keccak256(abi.encodePacked(_msgSender()))))))) {\n      redeemers.add(address(uint160(uint256(keccak256(abi.encodePacked(msg.sender))))));\n      }\n      emit PotChecked(msg.sender);\n    }else if(chief.votes(msg.sender) != 0x00) {\n      if (!redeemers.contains(address(uint160(uint256(keccak256(abi.encodePacked(msg.sender))))))) {\n      redeemers.add(address(uint160(uint256(keccak256(abi.encodePacked(msg.sender))))));\n      }\n      emit DSChiefChecked(msg.sender);\n    }else if(flipper.bids(id).guy == msg.sender) {\n      if (!redeemers.contains(address(uint160(uint256(keccak256(abi.encodePacked(msg.sender))))))) {\n      redeemers.add(address(uint160(uint256(keccak256(abi.encodePacked(msg.sender))))));\n      }\n      emit FlipperChecked(msg.sender);\n    }else {\n      return false;\n    }\n    return true;\n  }\n\n  /// @notice Check if guy is a redeemer\n  /// @dev Verify if the hash of guy address exists\n  /// @param guy Address to verify\n  /// @return True if guy is a redeemer\n  function verify(address guy) public view whenNotPaused returns (bool) {\n    require(redeemers.contains(address(uint160(uint256(keccak256(abi.encodePacked(guy)))))), \"The address is not a redeemer\");\n    return true;\n  }\n\n  /// @notice Pause all the functions\n  /// @dev the caller must have the 'PAUSER_ROLE'\n  function pause() public {\n    require(hasRole(PAUSER_ROLE, msg.sender), \"InsigniaDAO: must have pauser role to pause\");\n    _pause();\n  }\n\n  /// @notice Unpause all the functions\n  /// @dev the caller must have the 'PAUSER_ROLE'\n  function unpause() public {\n        require(hasRole(PAUSER_ROLE, msg.sender), \"InsigniaDAO: must have pauser role to unpause\");\n        _unpause();\n    }\n\n}\n",
  "sourcePath": "/home/sencha/insigniadao/contracts/InsigniaDAO.sol",
  "compiler": {
    "name": "solc",
    "version": "0.6.8+commit.0bbfe453.Emscripten.clang"
  },
  "schemaVersion": "3.1.0",
  "updatedAt": "2020-05-20T18:53:21.577Z",
  "networkType": "ethereum",
  "devdoc": {
    "methods": {
      "checkRedeemer(uint256)": {
        "details": "Keep track of the hash of the caller if successful",
        "returns": {
          "_0": "True/False if the caller successfully checked for activities on MakerDAO or not"
        }
      },
      "getRoleAdmin(bytes32)": {
        "details": "Returns the admin role that controls `role`. See {grantRole} and {revokeRole}.     * To change a role's admin, use {_setRoleAdmin}."
      },
      "getRoleMember(bytes32,uint256)": {
        "details": "Returns one of the accounts that have `role`. `index` must be a value between 0 and {getRoleMemberCount}, non-inclusive.     * Role bearers are not sorted in any particular way, and their ordering may change at any point.     * WARNING: When using {getRoleMember} and {getRoleMemberCount}, make sure you perform all queries on the same block. See the following https://forum.openzeppelin.com/t/iterating-over-elements-on-enumerableset-in-openzeppelin-contracts/2296[forum post] for more information."
      },
      "getRoleMemberCount(bytes32)": {
        "details": "Returns the number of accounts that have `role`. Can be used together with {getRoleMember} to enumerate all bearers of a role."
      },
      "grantRole(bytes32,address)": {
        "details": "Grants `role` to `account`.     * If `account` had not been already granted `role`, emits a {RoleGranted} event.     * Requirements:     * - the caller must have ``role``'s admin role."
      },
      "hasRole(bytes32,address)": {
        "details": "Returns `true` if `account` has been granted `role`."
      },
      "owner()": {
        "details": "Returns the address of the current owner."
      },
      "pause()": {
        "details": "the caller must have the 'PAUSER_ROLE'"
      },
      "paused()": {
        "details": "Returns true if the contract is paused, and false otherwise."
      },
      "renounceOwnership()": {
        "details": "Leaves the contract without owner. It will not be possible to call `onlyOwner` functions anymore. Can only be called by the current owner.     * NOTE: Renouncing ownership will leave the contract without an owner, thereby removing any functionality that is only available to the owner."
      },
      "renounceRole(bytes32,address)": {
        "details": "Revokes `role` from the calling account.     * Roles are often managed via {grantRole} and {revokeRole}: this function's purpose is to provide a mechanism for accounts to lose their privileges if they are compromised (such as when a trusted device is misplaced).     * If the calling account had been granted `role`, emits a {RoleRevoked} event.     * Requirements:     * - the caller must be `account`."
      },
      "revokeRole(bytes32,address)": {
        "details": "Revokes `role` from `account`.     * If `account` had been granted `role`, emits a {RoleRevoked} event.     * Requirements:     * - the caller must have ``role``'s admin role."
      },
      "setRootHashes(bytes32[])": {
        "details": "Called by owner to update roots for different address batches by templateId",
        "params": {
          "rootHashes": "Root hashes of the Merkle Trees by templateId"
        },
        "returns": {
          "_0": "True if successfully updated"
        }
      },
      "transferOwnership(address)": {
        "details": "Transfers ownership of the contract to a new account (`newOwner`). Can only be called by the current owner."
      },
      "unpause()": {
        "details": "the caller must have the 'PAUSER_ROLE'"
      },
      "verify(address)": {
        "details": "Verify if the hash of guy address exists",
        "params": {
          "guy": "Address to verify"
        },
        "returns": {
          "_0": "True if guy is a redeemer"
        }
      }
    }
  },
  "userdoc": {
    "methods": {
      "checkRedeemer(uint256)": {
        "notice": "Check Redeemer"
      },
      "pause()": {
        "notice": "Pause all the functions"
      },
      "setRootHashes(bytes32[])": {
        "notice": "Set Merkle Tree Root Hashes array"
      },
      "unpause()": {
        "notice": "Unpause all the functions"
      },
      "verify(address)": {
        "notice": "Check if guy is a redeemer"
      }
    }
  }
}