{
  "contractName": "InsigniaDAO",
  "abi": [
    {
      "inputs": [],
      "stateMutability": "nonpayable",
      "type": "constructor"
    },
    {
      "anonymous": false,
      "inputs": [
        {
          "indexed": false,
          "internalType": "address",
          "name": "guy",
          "type": "address"
        }
      ],
      "name": "DSChiefChecked",
      "type": "event"
    },
    {
      "anonymous": false,
      "inputs": [
        {
          "indexed": false,
          "internalType": "address",
          "name": "guy",
          "type": "address"
        }
      ],
      "name": "FlipperChecked",
      "type": "event"
    },
    {
      "anonymous": false,
      "inputs": [
        {
          "indexed": true,
          "internalType": "address",
          "name": "previousOwner",
          "type": "address"
        },
        {
          "indexed": true,
          "internalType": "address",
          "name": "newOwner",
          "type": "address"
        }
      ],
      "name": "OwnershipTransferred",
      "type": "event"
    },
    {
      "anonymous": false,
      "inputs": [
        {
          "indexed": false,
          "internalType": "address",
          "name": "account",
          "type": "address"
        }
      ],
      "name": "Paused",
      "type": "event"
    },
    {
      "anonymous": false,
      "inputs": [
        {
          "indexed": false,
          "internalType": "address",
          "name": "guy",
          "type": "address"
        }
      ],
      "name": "PotChecked",
      "type": "event"
    },
    {
      "anonymous": false,
      "inputs": [
        {
          "indexed": true,
          "internalType": "bytes32",
          "name": "role",
          "type": "bytes32"
        },
        {
          "indexed": true,
          "internalType": "address",
          "name": "account",
          "type": "address"
        },
        {
          "indexed": true,
          "internalType": "address",
          "name": "sender",
          "type": "address"
        }
      ],
      "name": "RoleGranted",
      "type": "event"
    },
    {
      "anonymous": false,
      "inputs": [
        {
          "indexed": true,
          "internalType": "bytes32",
          "name": "role",
          "type": "bytes32"
        },
        {
          "indexed": true,
          "internalType": "address",
          "name": "account",
          "type": "address"
        },
        {
          "indexed": true,
          "internalType": "address",
          "name": "sender",
          "type": "address"
        }
      ],
      "name": "RoleRevoked",
      "type": "event"
    },
    {
      "anonymous": false,
      "inputs": [
        {
          "indexed": false,
          "internalType": "address",
          "name": "account",
          "type": "address"
        }
      ],
      "name": "Unpaused",
      "type": "event"
    },
    {
      "stateMutability": "nonpayable",
      "type": "fallback"
    },
    {
      "inputs": [],
      "name": "DEFAULT_ADMIN_ROLE",
      "outputs": [
        {
          "internalType": "bytes32",
          "name": "",
          "type": "bytes32"
        }
      ],
      "stateMutability": "view",
      "type": "function",
      "constant": true
    },
    {
      "inputs": [],
      "name": "PAUSER_ROLE",
      "outputs": [
        {
          "internalType": "bytes32",
          "name": "",
          "type": "bytes32"
        }
      ],
      "stateMutability": "view",
      "type": "function",
      "constant": true
    },
    {
      "inputs": [
        {
          "internalType": "bytes32",
          "name": "role",
          "type": "bytes32"
        }
      ],
      "name": "getRoleAdmin",
      "outputs": [
        {
          "internalType": "bytes32",
          "name": "",
          "type": "bytes32"
        }
      ],
      "stateMutability": "view",
      "type": "function",
      "constant": true
    },
    {
      "inputs": [
        {
          "internalType": "bytes32",
          "name": "role",
          "type": "bytes32"
        },
        {
          "internalType": "uint256",
          "name": "index",
          "type": "uint256"
        }
      ],
      "name": "getRoleMember",
      "outputs": [
        {
          "internalType": "address",
          "name": "",
          "type": "address"
        }
      ],
      "stateMutability": "view",
      "type": "function",
      "constant": true
    },
    {
      "inputs": [
        {
          "internalType": "bytes32",
          "name": "role",
          "type": "bytes32"
        }
      ],
      "name": "getRoleMemberCount",
      "outputs": [
        {
          "internalType": "uint256",
          "name": "",
          "type": "uint256"
        }
      ],
      "stateMutability": "view",
      "type": "function",
      "constant": true
    },
    {
      "inputs": [],
      "name": "getTrustedForwarder",
      "outputs": [
        {
          "internalType": "address",
          "name": "",
          "type": "address"
        }
      ],
      "stateMutability": "view",
      "type": "function",
      "constant": true
    },
    {
      "inputs": [
        {
          "internalType": "bytes32",
          "name": "role",
          "type": "bytes32"
        },
        {
          "internalType": "address",
          "name": "account",
          "type": "address"
        }
      ],
      "name": "grantRole",
      "outputs": [],
      "stateMutability": "nonpayable",
      "type": "function"
    },
    {
      "inputs": [
        {
          "internalType": "bytes32",
          "name": "role",
          "type": "bytes32"
        },
        {
          "internalType": "address",
          "name": "account",
          "type": "address"
        }
      ],
      "name": "hasRole",
      "outputs": [
        {
          "internalType": "bool",
          "name": "",
          "type": "bool"
        }
      ],
      "stateMutability": "view",
      "type": "function",
      "constant": true
    },
    {
      "inputs": [],
      "name": "owner",
      "outputs": [
        {
          "internalType": "address",
          "name": "",
          "type": "address"
        }
      ],
      "stateMutability": "view",
      "type": "function",
      "constant": true
    },
    {
      "inputs": [],
      "name": "paused",
      "outputs": [
        {
          "internalType": "bool",
          "name": "",
          "type": "bool"
        }
      ],
      "stateMutability": "view",
      "type": "function",
      "constant": true
    },
    {
      "inputs": [],
      "name": "renounceOwnership",
      "outputs": [],
      "stateMutability": "nonpayable",
      "type": "function"
    },
    {
      "inputs": [
        {
          "internalType": "bytes32",
          "name": "role",
          "type": "bytes32"
        },
        {
          "internalType": "address",
          "name": "account",
          "type": "address"
        }
      ],
      "name": "renounceRole",
      "outputs": [],
      "stateMutability": "nonpayable",
      "type": "function"
    },
    {
      "inputs": [
        {
          "internalType": "bytes32",
          "name": "role",
          "type": "bytes32"
        },
        {
          "internalType": "address",
          "name": "account",
          "type": "address"
        }
      ],
      "name": "revokeRole",
      "outputs": [],
      "stateMutability": "nonpayable",
      "type": "function"
    },
    {
      "inputs": [
        {
          "internalType": "uint256",
          "name": "",
          "type": "uint256"
        }
      ],
      "name": "roots",
      "outputs": [
        {
          "internalType": "bytes32",
          "name": "",
          "type": "bytes32"
        }
      ],
      "stateMutability": "view",
      "type": "function",
      "constant": true
    },
    {
      "inputs": [
        {
          "internalType": "address",
          "name": "newOwner",
          "type": "address"
        }
      ],
      "name": "transferOwnership",
      "outputs": [],
      "stateMutability": "nonpayable",
      "type": "function"
    },
    {
      "inputs": [
        {
          "internalType": "bytes32[]",
          "name": "rootHashes",
          "type": "bytes32[]"
        }
      ],
      "name": "setRootHashes",
      "outputs": [
        {
          "internalType": "bool",
          "name": "",
          "type": "bool"
        }
      ],
      "stateMutability": "nonpayable",
      "type": "function"
    },
    {
      "inputs": [
        {
          "internalType": "uint256",
          "name": "id",
          "type": "uint256"
        }
      ],
      "name": "checkRedeemer",
      "outputs": [
        {
          "internalType": "bool",
          "name": "",
          "type": "bool"
        }
      ],
      "stateMutability": "nonpayable",
      "type": "function"
    },
    {
      "inputs": [
        {
          "internalType": "address",
          "name": "guy",
          "type": "address"
        }
      ],
      "name": "verify",
      "outputs": [
        {
          "internalType": "bool",
          "name": "",
          "type": "bool"
        }
      ],
      "stateMutability": "view",
      "type": "function",
      "constant": true
    },
    {
      "inputs": [],
      "name": "pause",
      "outputs": [],
      "stateMutability": "nonpayable",
      "type": "function"
    },
    {
      "inputs": [],
      "name": "unpause",
      "outputs": [],
      "stateMutability": "nonpayable",
      "type": "function"
    }
  ],
  "bytecode": "0x60806040523480156200001157600080fd5b506000620000246200029160201b60201c565b9050806000806101000a81548173ffffffffffffffffffffffffffffffffffffffff021916908373ffffffffffffffffffffffffffffffffffffffff1602179055508073ffffffffffffffffffffffffffffffffffffffff16600073ffffffffffffffffffffffffffffffffffffffff167f8be0079c531659141344cd1fd0a4f28419497f9722a3daafe3b4186f6b6457e060405160405180910390a3506000600260006101000a81548160ff021916908315150217905550620001016000801b620000f5620002ad60201b60201c565b620002d660201b60201c565b620001376040516200011390620006b9565b60405180910390206200012b620002ad60201b60201c565b620002d660201b60201c565b73ea190dbdc7adf265260ec4da6e9675fd4f5a78bb600660006101000a81548173ffffffffffffffffffffffffffffffffffffffff021916908373ffffffffffffffffffffffffffffffffffffffff16021790555073bbffc76e94b34f72d96d054b31f6424249c1337d600760006101000a81548173ffffffffffffffffffffffffffffffffffffffff021916908373ffffffffffffffffffffffffffffffffffffffff16021790555073b40139ea36d35d0c9f6a2e62601b616f1ffbbd1b600860006101000a81548173ffffffffffffffffffffffffffffffffffffffff021916908373ffffffffffffffffffffffffffffffffffffffff160217905550736453d37248ab2c16ebd1a8f782a2cbc65860e60b600260016101000a81548173ffffffffffffffffffffffffffffffffffffffff021916908373ffffffffffffffffffffffffffffffffffffffff16021790555062000759565b6000620002a8620002ec60201b620010d81760201c565b905090565b60008060009054906101000a900473ffffffffffffffffffffffffffffffffffffffff16905090565b620002e88282620003b660201b60201c565b5050565b600060186000369050101580156200033e57506200030f6200045a60201b60201c565b73ffffffffffffffffffffffffffffffffffffffff163373ffffffffffffffffffffffffffffffffffffffff16145b15620003af57620003a76000368080601f016020809104026020016040519081016040528093929190818152602001838380828437600081840152601f19601f8201169050808301925050505050505060146000369050036200048460201b6200118a1760201c565b9050620003b3565b3390505b90565b620003e58160016000858152602001908152602001600020600001620004f160201b620011dc1790919060201c565b156200045657620003fb6200029160201b60201c565b73ffffffffffffffffffffffffffffffffffffffff168173ffffffffffffffffffffffffffffffffffffffff16837f2f8788117e7eff1d82e926ec794901d17c78024a50270940304540a733656f0d60405160405180910390a45b5050565b6000600260019054906101000a900473ffffffffffffffffffffffffffffffffffffffff16905090565b60006014820183511015620004c657620004c5620004b460048551601486016200052960201b6200120c1760201c565b620005b060201b620012911760201c565b5b60148201915073ffffffffffffffffffffffffffffffffffffffff8284015116905080905092915050565b600062000521836000018373ffffffffffffffffffffffffffffffffffffffff1660001b620005b860201b60201c565b905092915050565b6060632800659560e01b8484846040516024016200054a93929190620006d0565b604051602081830303815290604052907bffffffffffffffffffffffffffffffffffffffffffffffffffffffff19166020820180517bffffffffffffffffffffffffffffffffffffffffffffffffffffffff838183161783525050505090509392505050565b805160208201fd5b6000620005cc83836200063260201b60201c565b620006275782600001829080600181540180825580915050600190039060005260206000200160009091909190915055826000018054905083600101600084815260200190815260200160002081905550600190506200062c565b600090505b92915050565b600080836001016000848152602001908152602001600020541415905092915050565b620006608162000737565b82525050565b600062000675600b836200070d565b91507f5041555345525f524f4c450000000000000000000000000000000000000000006000830152600b82019050919050565b620006b3816200072d565b82525050565b6000620006c68262000666565b9150819050919050565b6000606082019050620006e7600083018662000655565b620006f66020830185620006a8565b620007056040830184620006a8565b949350505050565b600081905092915050565b600081905062000728826200074b565b919050565b6000819050919050565b6000620007448262000718565b9050919050565b600881106200075657fe5b50565b6128e680620007696000396000f3fe608060405234801561001057600080fd5b50600436106101305760003560e01c80639010d07c116100ad578063ca15c87311610071578063ca15c87314610336578063ce1b815f14610366578063d547741f14610384578063e63ab1e9146103a0578063f2fde38b146103be57610131565b80639010d07c1461025857806391d1485414610288578063a217fddf146102b8578063aca57703146102d6578063c2b40ae41461030657610131565b80635c975abb116100f45780635c975abb146101d857806363a9c3d7146101f6578063715018a6146102265780638456cb59146102305780638da5cb5b1461023a57610131565b8063248a9ca3146101365780632f2ff15d1461016657806336568abe146101825780633f4ba83a1461019e5780635a3d044e146101a857610131565b5b600080fd5b610150600480360381019061014b9190611e5b565b6103da565b60405161015d91906124f5565b60405180910390f35b610180600480360381019061017b9190611ead565b6103fa565b005b61019c60048036038101906101979190611ead565b61046e565b005b6101a66104f1565b005b6101c260048036038101906101bd9190611f4f565b61055e565b6040516101cf91906124da565b60405180910390f35b6101e06109fb565b6040516101ed91906124da565b60405180910390f35b610210600480360381019061020b9190611df1565b610a12565b60405161021d91906124da565b60405180910390f35b61022e610ab9565b005b610238610c0e565b005b610242610c7b565b60405161024f91906124a4565b60405180910390f35b610272600480360381019061026d9190611ee9565b610ca4565b60405161027f91906124a4565b60405180910390f35b6102a2600480360381019061029d9190611ead565b610cd6565b6040516102af91906124da565b60405180910390f35b6102c0610d08565b6040516102cd91906124f5565b60405180910390f35b6102f060048036038101906102eb9190611e1a565b610d0f565b6040516102fd91906124da565b60405180910390f35b610320600480360381019061031b9190611f4f565b610e17565b60405161032d91906124f5565b60405180910390f35b610350600480360381019061034b9190611e5b565b610e38565b60405161035d91906126a7565b60405180910390f35b61036e610e5f565b60405161037b91906124a4565b60405180910390f35b61039e60048036038101906103999190611ead565b610e89565b005b6103a8610efd565b6040516103b591906124f5565b60405180910390f35b6103d860048036038101906103d39190611df1565b610f14565b005b600060016000838152602001908152602001600020600201549050919050565b610421600160008481526020019081526020016000206002015461041c611299565b610cd6565b610460576040517f08c379a000000000000000000000000000000000000000000000000000000000815260040161045790612567565b60405180910390fd5b61046a82826112a8565b5050565b610476611299565b73ffffffffffffffffffffffffffffffffffffffff168173ffffffffffffffffffffffffffffffffffffffff16146104e3576040517f08c379a00000000000000000000000000000000000000000000000000000000081526004016104da90612687565b60405180910390fd5b6104ed828261133c565b5050565b6105156040516105009061248f565b6040518091039020610510611299565b610cd6565b610554576040517f08c379a000000000000000000000000000000000000000000000000000000000815260040161054b90612627565b60405180910390fd5b61055c6113d0565b565b6000600260009054906101000a900460ff16156105b0576040517f08c379a00000000000000000000000000000000000000000000000000000000081526004016105a7906125e7565b60405180910390fd5b670de0b6b3a76400006105c96105c4611299565b61147a565b1061069f576106126105d9611299565b6040516020016105e99190612474565b6040516020818303038152906040528051906020012060001c600461177e90919063ffffffff16565b61065c5761065a610621611299565b6040516020016106319190612474565b6040516020818303038152906040528051906020012060001c60046111dc90919063ffffffff16565b505b7fc53e300da4fe7bad9553037bb567acec8109a294de1f832291c2d814dfc262c4610685611299565b60405161069291906124bf565b60405180910390a16109f1565b6000801b600760009054906101000a900473ffffffffffffffffffffffffffffffffffffffff1673ffffffffffffffffffffffffffffffffffffffff1663d8bff5a56106e9611299565b6040518263ffffffff1660e01b815260040161070591906124bf565b60206040518083038186803b15801561071d57600080fd5b505afa158015610731573d6000803e3d6000fd5b505050506040513d601f19601f820116820180604052508101906107559190611e84565b1461082b5761079e610765611299565b6040516020016107759190612474565b6040516020818303038152906040528051906020012060001c600461177e90919063ffffffff16565b6107e8576107e66107ad611299565b6040516020016107bd9190612474565b6040516020818303038152906040528051906020012060001c60046111dc90919063ffffffff16565b505b7f359eefdc83d4cbeabeed5ea68cd9213056f02a7317e55e1310612edc535d5ae9610811611299565b60405161081e91906124bf565b60405180910390a16109f0565b610833611299565b73ffffffffffffffffffffffffffffffffffffffff16600860009054906101000a900473ffffffffffffffffffffffffffffffffffffffff1673ffffffffffffffffffffffffffffffffffffffff16634423c5f1846040518263ffffffff1660e01b81526004016108a491906126a7565b6101006040518083038186803b1580156108bd57600080fd5b505afa1580156108d1573d6000803e3d6000fd5b505050506040513d601f19601f820116820180604052508101906108f59190611f25565b6040015173ffffffffffffffffffffffffffffffffffffffff1614156109e657610959610920611299565b6040516020016109309190612474565b6040516020818303038152906040528051906020012060001c600461177e90919063ffffffff16565b6109a3576109a1610968611299565b6040516020016109789190612474565b6040516020818303038152906040528051906020012060001c60046111dc90919063ffffffff16565b505b7f430bb0ab986389293d8f0855931d73d3e3bdc06890eb3e780550c98a7582a7ef6109cc611299565b6040516109d991906124bf565b60405180910390a16109ef565b600090506109f6565b5b5b600190505b919050565b6000600260009054906101000a900460ff16905090565b6000600260009054906101000a900460ff1615610a64576040517f08c379a0000000000000000000000000000000000000000000000000000000008152600401610a5b906125e7565b60405180910390fd5b610aa182604051602001610a789190612459565b6040516020818303038152906040528051906020012060001c600461177e90919063ffffffff16565b15610aaf5760019050610ab4565b600090505b919050565b610ac1611299565b73ffffffffffffffffffffffffffffffffffffffff166000809054906101000a900473ffffffffffffffffffffffffffffffffffffffff1673ffffffffffffffffffffffffffffffffffffffff1614610b4f576040517f08c379a0000000000000000000000000000000000000000000000000000000008152600401610b4690612647565b60405180910390fd5b600073ffffffffffffffffffffffffffffffffffffffff166000809054906101000a900473ffffffffffffffffffffffffffffffffffffffff1673ffffffffffffffffffffffffffffffffffffffff167f8be0079c531659141344cd1fd0a4f28419497f9722a3daafe3b4186f6b6457e060405160405180910390a360008060006101000a81548173ffffffffffffffffffffffffffffffffffffffff021916908373ffffffffffffffffffffffffffffffffffffffff160217905550565b610c32604051610c1d9061248f565b6040518091039020610c2d611299565b610cd6565b610c71576040517f08c379a0000000000000000000000000000000000000000000000000000000008152600401610c6890612667565b60405180910390fd5b610c796117ae565b565b60008060009054906101000a900473ffffffffffffffffffffffffffffffffffffffff16905090565b6000610cce826001600086815260200190815260200160002060000161185990919063ffffffff16565b905092915050565b6000610d00826001600086815260200190815260200160002060000161177e90919063ffffffff16565b905092915050565b6000801b81565b6000610d19611299565b73ffffffffffffffffffffffffffffffffffffffff166000809054906101000a900473ffffffffffffffffffffffffffffffffffffffff1673ffffffffffffffffffffffffffffffffffffffff1614610da7576040517f08c379a0000000000000000000000000000000000000000000000000000000008152600401610d9e90612647565b60405180910390fd5b600260009054906101000a900460ff1615610df7576040517f08c379a0000000000000000000000000000000000000000000000000000000008152600401610dee906125e7565b60405180910390fd5b8160039080519060200190610e0d929190611ba3565b5060019050919050565b60038181548110610e2457fe5b906000526020600020016000915090505481565b6000610e5860016000848152602001908152602001600020600001611873565b9050919050565b6000600260019054906101000a900473ffffffffffffffffffffffffffffffffffffffff16905090565b610eb06001600084815260200190815260200160002060020154610eab611299565b610cd6565b610eef576040517f08c379a0000000000000000000000000000000000000000000000000000000008152600401610ee6906125c7565b60405180910390fd5b610ef9828261133c565b5050565b604051610f099061248f565b604051809103902081565b610f1c611299565b73ffffffffffffffffffffffffffffffffffffffff166000809054906101000a900473ffffffffffffffffffffffffffffffffffffffff1673ffffffffffffffffffffffffffffffffffffffff1614610faa576040517f08c379a0000000000000000000000000000000000000000000000000000000008152600401610fa190612647565b60405180910390fd5b600073ffffffffffffffffffffffffffffffffffffffff168173ffffffffffffffffffffffffffffffffffffffff16141561101a576040517f08c379a0000000000000000000000000000000000000000000000000000000008152600401611011906125a7565b60405180910390fd5b8073ffffffffffffffffffffffffffffffffffffffff166000809054906101000a900473ffffffffffffffffffffffffffffffffffffffff1673ffffffffffffffffffffffffffffffffffffffff167f8be0079c531659141344cd1fd0a4f28419497f9722a3daafe3b4186f6b6457e060405160405180910390a3806000806101000a81548173ffffffffffffffffffffffffffffffffffffffff021916908373ffffffffffffffffffffffffffffffffffffffff16021790555050565b6000601860003690501015801561112157506110f2610e5f565b73ffffffffffffffffffffffffffffffffffffffff163373ffffffffffffffffffffffffffffffffffffffff16145b156111835761117c6000368080601f016020809104026020016040519081016040528093929190818152602001838380828437600081840152601f19601f82011690508083019250505050505050601460003690500361118a565b9050611187565b3390505b90565b600060148201835110156111b1576111b06111ab600485516014860161120c565b611291565b5b60148201915073ffffffffffffffffffffffffffffffffffffffff8284015116905080905092915050565b6000611204836000018373ffffffffffffffffffffffffffffffffffffffff1660001b611888565b905092915050565b6060632800659560e01b84848460405160240161122b93929190612510565b604051602081830303815290604052907bffffffffffffffffffffffffffffffffffffffffffffffffffffffff19166020820180517bffffffffffffffffffffffffffffffffffffffffffffffffffffffff838183161783525050505090509392505050565b805160208201fd5b60006112a36110d8565b905090565b6112d081600160008581526020019081526020016000206000016111dc90919063ffffffff16565b15611338576112dd611299565b73ffffffffffffffffffffffffffffffffffffffff168173ffffffffffffffffffffffffffffffffffffffff16837f2f8788117e7eff1d82e926ec794901d17c78024a50270940304540a733656f0d60405160405180910390a45b5050565b61136481600160008581526020019081526020016000206000016118f890919063ffffffff16565b156113cc57611371611299565b73ffffffffffffffffffffffffffffffffffffffff168173ffffffffffffffffffffffffffffffffffffffff16837ff6391f5c32d9c69d2a47ea670b442974b53935d1edc7fd64eb21e047a839171b60405160405180910390a45b5050565b600260009054906101000a900460ff1661141f576040517f08c379a000000000000000000000000000000000000000000000000000000000815260040161141690612587565b60405180910390fd5b6000600260006101000a81548160ff0219169083151502179055507f5db9ee0a495bf2e6ff9c91a7834c1ba4fdd244a5e8aa4e537bd38aeae4b073aa611463611299565b60405161147091906124bf565b60405180910390a1565b6000600260009054906101000a900460ff16156114cc576040517f08c379a00000000000000000000000000000000000000000000000000000000081526004016114c3906125e7565b60405180910390fd5b6000600660009054906101000a900473ffffffffffffffffffffffffffffffffffffffff1673ffffffffffffffffffffffffffffffffffffffff16630bebac86846040518263ffffffff1660e01b815260040161152991906124a4565b60206040518083038186803b15801561154157600080fd5b505afa158015611555573d6000803e3d6000fd5b505050506040513d601f19601f820116820180604052508101906115799190611f78565b90506000600660009054906101000a900473ffffffffffffffffffffffffffffffffffffffff1673ffffffffffffffffffffffffffffffffffffffff166320aba08b6040518163ffffffff1660e01b815260040160206040518083038186803b1580156115e557600080fd5b505afa1580156115f9573d6000803e3d6000fd5b505050506040513d601f19601f8201168201806040525081019061161d9190611f78565b42116116c857600660009054906101000a900473ffffffffffffffffffffffffffffffffffffffff1673ffffffffffffffffffffffffffffffffffffffff1663c92aecc46040518163ffffffff1660e01b815260040160206040518083038186803b15801561168b57600080fd5b505afa15801561169f573d6000803e3d6000fd5b505050506040513d601f19601f820116820180604052508101906116c39190611f78565b611769565b600660009054906101000a900473ffffffffffffffffffffffffffffffffffffffff1673ffffffffffffffffffffffffffffffffffffffff16639f678cca6040518163ffffffff1660e01b815260040160206040518083038186803b15801561173057600080fd5b505afa158015611744573d6000803e3d6000fd5b505050506040513d601f19601f820116820180604052508101906117689190611f78565b5b90506117758282611928565b92505050919050565b60006117a6836000018373ffffffffffffffffffffffffffffffffffffffff1660001b6119aa565b905092915050565b600260009054906101000a900460ff16156117fe576040517f08c379a00000000000000000000000000000000000000000000000000000000081526004016117f5906125e7565b60405180910390fd5b6001600260006101000a81548160ff0219169083151502179055507f62e78cea01bee320cd4e420270b5ea74000d11b0c9f74754ebdbfc544b05a258611842611299565b60405161184f91906124bf565b60405180910390a1565b600061186883600001836119cd565b60001c905092915050565b600061188182600001611a3a565b9050919050565b600061189483836119aa565b6118ed5782600001829080600181540180825580915050600190039060005260206000200160009091909190915055826000018054905083600101600084815260200190815260200160002081905550600190506118f2565b600090505b92915050565b6000611920836000018373ffffffffffffffffffffffffffffffffffffffff1660001b611a4b565b905092915050565b6000600260009054906101000a900460ff161561197a576040517f08c379a0000000000000000000000000000000000000000000000000000000008152600401611971906125e7565b60405180910390fd5b6b033b2e3c9fd0803ce800000061199a8385611b3390919063ffffffff16565b816119a157fe5b04905092915050565b600080836001016000848152602001908152602001600020541415905092915050565b600081836000018054905011611a18576040517f08c379a0000000000000000000000000000000000000000000000000000000008152600401611a0f90612547565b60405180910390fd5b826000018281548110611a2757fe5b9060005260206000200154905092915050565b600081600001805490509050919050565b60008083600101600084815260200190815260200160002054905060008114611b275760006001820390506000600186600001805490500390506000866000018281548110611a9657fe5b9060005260206000200154905080876000018481548110611ab357fe5b9060005260206000200181905550600183018760010160008381526020019081526020016000208190555086600001805480611aeb57fe5b60019003818190600052602060002001600090559055866001016000878152602001908152602001600020600090556001945050505050611b2d565b60009150505b92915050565b600080831415611b465760009050611b9d565b6000828402905082848281611b5757fe5b0414611b98576040517f08c379a0000000000000000000000000000000000000000000000000000000008152600401611b8f90612607565b60405180910390fd5b809150505b92915050565b828054828255906000526020600020908101928215611bdf579160200282015b82811115611bde578251825591602001919060010190611bc3565b5b509050611bec9190611bf0565b5090565b611c1291905b80821115611c0e576000816000905550600101611bf6565b5090565b90565b600081359050611c2481612854565b92915050565b600081519050611c3981612854565b92915050565b600082601f830112611c5057600080fd5b8135611c63611c5e826126ef565b6126c2565b91508181835260208401935060208101905083856020840282011115611c8857600080fd5b60005b83811015611cb85781611c9e8882611cc2565b845260208401935060208301925050600181019050611c8b565b5050505092915050565b600081359050611cd18161286b565b92915050565b600081519050611ce68161286b565b92915050565b60006101008284031215611cff57600080fd5b611d0a6101006126c2565b90506000611d1a84828501611dc7565b6000830152506020611d2e84828501611dc7565b6020830152506040611d4284828501611c2a565b6040830152506060611d5684828501611ddc565b6060830152506080611d6a84828501611ddc565b60808301525060a0611d7e84828501611c2a565b60a08301525060c0611d9284828501611c2a565b60c08301525060e0611da684828501611dc7565b60e08301525092915050565b600081359050611dc181612882565b92915050565b600081519050611dd681612882565b92915050565b600081519050611deb81612899565b92915050565b600060208284031215611e0357600080fd5b6000611e1184828501611c15565b91505092915050565b600060208284031215611e2c57600080fd5b600082013567ffffffffffffffff811115611e4657600080fd5b611e5284828501611c3f565b91505092915050565b600060208284031215611e6d57600080fd5b6000611e7b84828501611cc2565b91505092915050565b600060208284031215611e9657600080fd5b6000611ea484828501611cd7565b91505092915050565b60008060408385031215611ec057600080fd5b6000611ece85828601611cc2565b9250506020611edf85828601611c15565b9150509250929050565b60008060408385031215611efc57600080fd5b6000611f0a85828601611cc2565b9250506020611f1b85828601611db2565b9150509250929050565b60006101008284031215611f3857600080fd5b6000611f4684828501611cec565b91505092915050565b600060208284031215611f6157600080fd5b6000611f6f84828501611db2565b91505092915050565b600060208284031215611f8a57600080fd5b6000611f9884828501611dc7565b91505092915050565b611faa816127bc565b82525050565b611fc1611fbc82612745565b612816565b82525050565b611fd081612733565b82525050565b611fe7611fe282612733565b612804565b82525050565b611ff681612757565b82525050565b61200581612763565b82525050565b612014816127ce565b82525050565b6000612027602283612717565b91507f456e756d657261626c655365743a20696e646578206f7574206f6620626f756e60008301527f64730000000000000000000000000000000000000000000000000000000000006020830152604082019050919050565b600061208d602f83612717565b91507f416363657373436f6e74726f6c3a2073656e646572206d75737420626520616e60008301527f2061646d696e20746f206772616e7400000000000000000000000000000000006020830152604082019050919050565b60006120f3601483612717565b91507f5061757361626c653a206e6f74207061757365640000000000000000000000006000830152602082019050919050565b6000612133602683612717565b91507f4f776e61626c653a206e6577206f776e657220697320746865207a65726f206160008301527f64647265737300000000000000000000000000000000000000000000000000006020830152604082019050919050565b6000612199603083612717565b91507f416363657373436f6e74726f6c3a2073656e646572206d75737420626520616e60008301527f2061646d696e20746f207265766f6b65000000000000000000000000000000006020830152604082019050919050565b60006121ff600b83612728565b91507f5041555345525f524f4c450000000000000000000000000000000000000000006000830152600b82019050919050565b600061223f601083612717565b91507f5061757361626c653a20706175736564000000000000000000000000000000006000830152602082019050919050565b600061227f602183612717565b91507f536166654d6174683a206d756c7469706c69636174696f6e206f766572666c6f60008301527f77000000000000000000000000000000000000000000000000000000000000006020830152604082019050919050565b60006122e5602d83612717565b91507f496e7369676e696144414f3a206d75737420686176652070617573657220726f60008301527f6c6520746f20756e7061757365000000000000000000000000000000000000006020830152604082019050919050565b600061234b602083612717565b91507f4f776e61626c653a2063616c6c6572206973206e6f7420746865206f776e65726000830152602082019050919050565b600061238b602b83612717565b91507f496e7369676e696144414f3a206d75737420686176652070617573657220726f60008301527f6c6520746f2070617573650000000000000000000000000000000000000000006020830152604082019050919050565b60006123f1602f83612717565b91507f416363657373436f6e74726f6c3a2063616e206f6e6c792072656e6f756e636560008301527f20726f6c657320666f722073656c6600000000000000000000000000000000006020830152604082019050919050565b612453816127a0565b82525050565b60006124658284611fd6565b60148201915081905092915050565b60006124808284611fb0565b60148201915081905092915050565b600061249a826121f2565b9150819050919050565b60006020820190506124b96000830184611fc7565b92915050565b60006020820190506124d46000830184611fa1565b92915050565b60006020820190506124ef6000830184611fed565b92915050565b600060208201905061250a6000830184611ffc565b92915050565b6000606082019050612525600083018661200b565b612532602083018561244a565b61253f604083018461244a565b949350505050565b600060208201905081810360008301526125608161201a565b9050919050565b6000602082019050818103600083015261258081612080565b9050919050565b600060208201905081810360008301526125a0816120e6565b9050919050565b600060208201905081810360008301526125c081612126565b9050919050565b600060208201905081810360008301526125e08161218c565b9050919050565b6000602082019050818103600083015261260081612232565b9050919050565b6000602082019050818103600083015261262081612272565b9050919050565b60006020820190508181036000830152612640816122d8565b9050919050565b600060208201905081810360008301526126608161233e565b9050919050565b600060208201905081810360008301526126808161237e565b9050919050565b600060208201905081810360008301526126a0816123e4565b9050919050565b60006020820190506126bc600083018461244a565b92915050565b6000604051905081810181811067ffffffffffffffff821117156126e557600080fd5b8060405250919050565b600067ffffffffffffffff82111561270657600080fd5b602082029050602081019050919050565b600082825260208201905092915050565b600081905092915050565b600061273e82612780565b9050919050565b600061275082612780565b9050919050565b60008115159050919050565b6000819050919050565b600081905061277b82612847565b919050565b600073ffffffffffffffffffffffffffffffffffffffff82169050919050565b6000819050919050565b600065ffffffffffff82169050919050565b60006127c7826127e0565b9050919050565b60006127d98261276d565b9050919050565b60006127eb826127f2565b9050919050565b60006127fd82612780565b9050919050565b600061280f82612828565b9050919050565b600061282182612828565b9050919050565b60006128338261283a565b9050919050565b60008160601b9050919050565b6008811061285157fe5b50565b61285d81612733565b811461286857600080fd5b50565b61287481612763565b811461287f57600080fd5b50565b61288b816127a0565b811461289657600080fd5b50565b6128a2816127aa565b81146128ad57600080fd5b5056fea2646970667358221220702c2af390664fdd18d6b4488f608ebf1e85bbf7bbf2ab867b1beeb1bce1be1564736f6c63430006080033",
  "immutableReferences": {},
  "source": "/// SPDX-License-Identifier: GPL-3.0\npragma solidity 0.6.8;\npragma experimental ABIEncoderV2;\n\n\n/// @title Non-transferable Badges for Maker Ecosystem Activity, issue #537\n/// @author Nazzareno Massari, Scott Herren\n/// @notice InsigniaDAO to check for activities on maker ecosystem and keep track of redeemers\n/// @dev see https://github.com/makerdao/community/issues/537\n/// @dev All function calls are currently implemented without side effecs through TDD approach\n/// @dev OpenZeppelin library is used for secure contract development\n\nimport \"@openzeppelin/contracts/access/Ownable.sol\";\nimport \"@openzeppelin/contracts/access/AccessControl.sol\";\nimport \"@openzeppelin/contracts/utils/Pausable.sol\";\nimport \"@openzeppelin/contracts/math/SafeMath.sol\";\nimport \"@openzeppelin/contracts/utils/EnumerableSet.sol\";\nimport \"@opengsn/gsn/contracts/BaseRelayRecipient.sol\";\n\ninterface PotLike {\n\n    function pie(address guy) external view returns (uint256);\n    function chi() external view returns (uint256);\n    function rho() external view returns (uint256);\n    function drip() external view returns (uint256);\n\n}\n\ninterface DSChiefLike {\n  function votes(address) external view returns (bytes32);\n}\n\ninterface  FlipperLike {\n  struct Bid {\n    uint256 bid;\n    uint256 lot;\n    address guy;  // high bidder\n    uint48  tic;  // expiry time\n    uint48  end;\n    address usr;\n    address gal;\n    uint256 tab;\n}\n  function bids(uint256) external view returns (Bid memory);\n}\n\ncontract InsigniaDAO is Ownable, AccessControl, Pausable, BaseRelayRecipient {\n\n  /// Libraries\n  using SafeMath for uint256;\n  using EnumerableSet for EnumerableSet.AddressSet;\n\n  bytes32 public constant PAUSER_ROLE = keccak256(\"PAUSER_ROLE\");\n\n  bytes32[] public roots;\n\n  EnumerableSet.AddressSet private redeemers;\n\n  /// Events\n  event PotChecked(address guy);\n  event DSChiefChecked(address guy);\n  event FlipperChecked(address guy);\n\n  /// Data\n  PotLike  internal pot;\n  DSChiefLike internal chief;\n  FlipperLike internal flipper;\n\n  /// Math\n  uint256 constant RAY = 10 ** 27;\n\n  function rmul(uint256 x, uint256 y) internal view whenNotPaused returns (uint256 z) {\n          // always rounds down\n          z = x.mul(y) / RAY;\n  }\n\n  constructor() public {\n        _setupRole(DEFAULT_ADMIN_ROLE, owner());\n\n        _setupRole(PAUSER_ROLE, owner());\n\n        /// MCD_POT Kovan Address https://kovan.etherscan.io/address/0xea190dbdc7adf265260ec4da6e9675fd4f5a78bb#code\n\t\t\t  pot = PotLike(0xEA190DBDC7adF265260ec4dA6e9675Fd4f5A78bb);\n        /// MCD_ADM Kovan Address https://kovan.etherscan.io/address/0xbBFFC76e94B34F72D96D054b31f6424249c1337d#code\n        chief = DSChiefLike(0xbBFFC76e94B34F72D96D054b31f6424249c1337d);\n        /// MCD_FLIP_ETH_A Kovan Address https://kovan.etherscan.io/address/0xB40139Ea36D35d0C9F6a2e62601B616F1FfbBD1b#code\n        flipper = FlipperLike(0xB40139Ea36D35d0C9F6a2e62601B616F1FfbBD1b);\n\n        /// OpenGSN TruestedForwarder on Kovan\n        trustedForwarder =  0x6453D37248Ab2C16eBd1A8f782a2CBC65860E60B;\n\n\n  }\n\n  /// @notice Fallback function\n  /// @dev Added not payable to revert transactions not matching any other function which send value\n  fallback() external {\n    revert();\n  }\n\n  /// @notice OpenGSN _msgSender()\n  /// @dev override _msgSender() in OZ Context.sol and BaseRelayRecipient.sol\n  /// @return msg.sender after relay call\n  function _msgSender() internal override(Context, BaseRelayRecipient) view returns (address payable) {\n            return BaseRelayRecipient._msgSender();\n  }\n\n  /// @notice Set Merkle Tree Root Hashes array\n  /// @dev Called by owner to update roots for different address batches by templateId\n  /// @param rootHashes Root hashes of the Merkle Trees by templateId\n  /// @return True if successfully updated\n  function setRootHashes(bytes32[] memory rootHashes) public onlyOwner whenNotPaused returns (bool) {\n    roots = rootHashes;\n    return true;\n  }\n\n  /// @notice Return the accrued interest of guy on Pot\n  /// @dev Based on Chai dai() function\n  /// @param guy Address to check\n  /// @return wad Accrued interest of guy\n  function _dai(address guy) internal view whenNotPaused returns (uint256 wad) {\n    uint256 slice = pot.pie(guy);\n    uint256 chi = (now > pot.rho()) ? pot.drip() : pot.chi();\n    wad = rmul(slice, chi);\n  }\n\n  /// @notice Check Redeemer\n  /// @dev Keep track of the hash of the caller if successful\n  /// @return True/False if the caller successfully checked for activities on MakerDAO or not\n  function checkRedeemer(uint256 id) public whenNotPaused returns (bool) {\n\n    if (_dai(_msgSender()) >= 1 ether) {\n      if (!redeemers.contains(address(uint160(uint256(keccak256(abi.encodePacked(_msgSender()))))))) {\n      redeemers.add(address(uint160(uint256(keccak256(abi.encodePacked(_msgSender()))))));\n      }\n      emit PotChecked(_msgSender());\n    }else if(chief.votes(_msgSender()) != 0x00) {\n      if (!redeemers.contains(address(uint160(uint256(keccak256(abi.encodePacked(_msgSender()))))))) {\n      redeemers.add(address(uint160(uint256(keccak256(abi.encodePacked(_msgSender()))))));\n      }\n      emit DSChiefChecked(_msgSender());\n    }else if(flipper.bids(id).guy == _msgSender()) {\n      if (!redeemers.contains(address(uint160(uint256(keccak256(abi.encodePacked(_msgSender()))))))) {\n      redeemers.add(address(uint160(uint256(keccak256(abi.encodePacked(_msgSender()))))));\n      }\n      emit FlipperChecked(_msgSender());\n    }else {\n      return false;\n    }\n    return true;\n  }\n\n  /// @notice Check if guy is a redeemer\n  /// @dev Verify if the hash of guy address exists\n  /// @param guy Address to verify\n  /// @return True if guy is a redeemer\n  function verify(address guy) public view whenNotPaused returns (bool) {\n    if (redeemers.contains(address(uint160(uint256(keccak256(abi.encodePacked(guy))))))){\n      return true;\n    }\n      return false;\n  }\n\n\n  /// @notice Pause all the functions\n  /// @dev the caller must have the 'PAUSER_ROLE'\n  function pause() public {\n    require(hasRole(PAUSER_ROLE, _msgSender()), \"InsigniaDAO: must have pauser role to pause\");\n    _pause();\n  }\n\n  /// @notice Unpause all the functions\n  /// @dev the caller must have the 'PAUSER_ROLE'\n  function unpause() public {\n        require(hasRole(PAUSER_ROLE, _msgSender()), \"InsigniaDAO: must have pauser role to unpause\");\n        _unpause();\n    }\n\n}\n",
  "sourcePath": "/home/sencha/insigniadao/contracts/InsigniaDAO.sol",
  "compiler": {
    "name": "solc",
    "version": "0.6.8+commit.0bbfe453.Emscripten.clang"
  },
  "schemaVersion": "3.1.0",
  "updatedAt": "2020-05-24T16:13:08.847Z",
  "networkType": "ethereum",
  "devdoc": {
    "methods": {
      "checkRedeemer(uint256)": {
        "details": "Keep track of the hash of the caller if successful",
        "returns": {
          "_0": "True/False if the caller successfully checked for activities on MakerDAO or not"
        }
      },
      "getRoleAdmin(bytes32)": {
        "details": "Returns the admin role that controls `role`. See {grantRole} and {revokeRole}.     * To change a role's admin, use {_setRoleAdmin}."
      },
      "getRoleMember(bytes32,uint256)": {
        "details": "Returns one of the accounts that have `role`. `index` must be a value between 0 and {getRoleMemberCount}, non-inclusive.     * Role bearers are not sorted in any particular way, and their ordering may change at any point.     * WARNING: When using {getRoleMember} and {getRoleMemberCount}, make sure you perform all queries on the same block. See the following https://forum.openzeppelin.com/t/iterating-over-elements-on-enumerableset-in-openzeppelin-contracts/2296[forum post] for more information."
      },
      "getRoleMemberCount(bytes32)": {
        "details": "Returns the number of accounts that have `role`. Can be used together with {getRoleMember} to enumerate all bearers of a role."
      },
      "grantRole(bytes32,address)": {
        "details": "Grants `role` to `account`.     * If `account` had not been already granted `role`, emits a {RoleGranted} event.     * Requirements:     * - the caller must have ``role``'s admin role."
      },
      "hasRole(bytes32,address)": {
        "details": "Returns `true` if `account` has been granted `role`."
      },
      "owner()": {
        "details": "Returns the address of the current owner."
      },
      "pause()": {
        "details": "the caller must have the 'PAUSER_ROLE'"
      },
      "paused()": {
        "details": "Returns true if the contract is paused, and false otherwise."
      },
      "renounceOwnership()": {
        "details": "Leaves the contract without owner. It will not be possible to call `onlyOwner` functions anymore. Can only be called by the current owner.     * NOTE: Renouncing ownership will leave the contract without an owner, thereby removing any functionality that is only available to the owner."
      },
      "renounceRole(bytes32,address)": {
        "details": "Revokes `role` from the calling account.     * Roles are often managed via {grantRole} and {revokeRole}: this function's purpose is to provide a mechanism for accounts to lose their privileges if they are compromised (such as when a trusted device is misplaced).     * If the calling account had been granted `role`, emits a {RoleRevoked} event.     * Requirements:     * - the caller must be `account`."
      },
      "revokeRole(bytes32,address)": {
        "details": "Revokes `role` from `account`.     * If `account` had been granted `role`, emits a {RoleRevoked} event.     * Requirements:     * - the caller must have ``role``'s admin role."
      },
      "setRootHashes(bytes32[])": {
        "details": "Called by owner to update roots for different address batches by templateId",
        "params": {
          "rootHashes": "Root hashes of the Merkle Trees by templateId"
        },
        "returns": {
          "_0": "True if successfully updated"
        }
      },
      "transferOwnership(address)": {
        "details": "Transfers ownership of the contract to a new account (`newOwner`). Can only be called by the current owner."
      },
      "unpause()": {
        "details": "the caller must have the 'PAUSER_ROLE'"
      },
      "verify(address)": {
        "details": "Verify if the hash of guy address exists",
        "params": {
          "guy": "Address to verify"
        },
        "returns": {
          "_0": "True if guy is a redeemer"
        }
      }
    }
  },
  "userdoc": {
    "methods": {
      "checkRedeemer(uint256)": {
        "notice": "Check Redeemer"
      },
      "pause()": {
        "notice": "Pause all the functions"
      },
      "setRootHashes(bytes32[])": {
        "notice": "Set Merkle Tree Root Hashes array"
      },
      "unpause()": {
        "notice": "Unpause all the functions"
      },
      "verify(address)": {
        "notice": "Check if guy is a redeemer"
      }
    }
  }
}