{
  "contractName": "BadgeFactory",
  "abi": [
    {
      "inputs": [
        {
          "internalType": "address",
          "name": "forwarder_",
          "type": "address"
        },
        {
          "internalType": "address",
          "name": "maker_",
          "type": "address"
        }
      ],
      "stateMutability": "nonpayable",
      "type": "constructor"
    },
    {
      "anonymous": false,
      "inputs": [
        {
          "indexed": true,
          "internalType": "address",
          "name": "owner",
          "type": "address"
        },
        {
          "indexed": true,
          "internalType": "address",
          "name": "approved",
          "type": "address"
        },
        {
          "indexed": true,
          "internalType": "uint256",
          "name": "tokenId",
          "type": "uint256"
        }
      ],
      "name": "Approval",
      "type": "event"
    },
    {
      "anonymous": false,
      "inputs": [
        {
          "indexed": true,
          "internalType": "address",
          "name": "owner",
          "type": "address"
        },
        {
          "indexed": true,
          "internalType": "address",
          "name": "operator",
          "type": "address"
        },
        {
          "indexed": false,
          "internalType": "bool",
          "name": "approved",
          "type": "bool"
        }
      ],
      "name": "ApprovalForAll",
      "type": "event"
    },
    {
      "anonymous": false,
      "inputs": [
        {
          "indexed": true,
          "internalType": "uint256",
          "name": "tokenId",
          "type": "uint256"
        },
        {
          "indexed": true,
          "internalType": "uint256",
          "name": "templateId",
          "type": "uint256"
        },
        {
          "indexed": false,
          "internalType": "string",
          "name": "tokenURI",
          "type": "string"
        }
      ],
      "name": "BadgeActivated",
      "type": "event"
    },
    {
      "anonymous": false,
      "inputs": [
        {
          "indexed": true,
          "internalType": "uint256",
          "name": "templateId",
          "type": "uint256"
        },
        {
          "indexed": false,
          "internalType": "string",
          "name": "name",
          "type": "string"
        },
        {
          "indexed": false,
          "internalType": "string",
          "name": "description",
          "type": "string"
        },
        {
          "indexed": false,
          "internalType": "string",
          "name": "image",
          "type": "string"
        }
      ],
      "name": "NewTemplate",
      "type": "event"
    },
    {
      "anonymous": false,
      "inputs": [
        {
          "indexed": false,
          "internalType": "address",
          "name": "account",
          "type": "address"
        }
      ],
      "name": "Paused",
      "type": "event"
    },
    {
      "anonymous": false,
      "inputs": [
        {
          "indexed": true,
          "internalType": "bytes32",
          "name": "role",
          "type": "bytes32"
        },
        {
          "indexed": true,
          "internalType": "bytes32",
          "name": "previousAdminRole",
          "type": "bytes32"
        },
        {
          "indexed": true,
          "internalType": "bytes32",
          "name": "newAdminRole",
          "type": "bytes32"
        }
      ],
      "name": "RoleAdminChanged",
      "type": "event"
    },
    {
      "anonymous": false,
      "inputs": [
        {
          "indexed": true,
          "internalType": "bytes32",
          "name": "role",
          "type": "bytes32"
        },
        {
          "indexed": true,
          "internalType": "address",
          "name": "account",
          "type": "address"
        },
        {
          "indexed": true,
          "internalType": "address",
          "name": "sender",
          "type": "address"
        }
      ],
      "name": "RoleGranted",
      "type": "event"
    },
    {
      "anonymous": false,
      "inputs": [
        {
          "indexed": true,
          "internalType": "bytes32",
          "name": "role",
          "type": "bytes32"
        },
        {
          "indexed": true,
          "internalType": "address",
          "name": "account",
          "type": "address"
        },
        {
          "indexed": true,
          "internalType": "address",
          "name": "sender",
          "type": "address"
        }
      ],
      "name": "RoleRevoked",
      "type": "event"
    },
    {
      "anonymous": false,
      "inputs": [
        {
          "indexed": true,
          "internalType": "uint256",
          "name": "templateId",
          "type": "uint256"
        },
        {
          "indexed": false,
          "internalType": "string",
          "name": "name",
          "type": "string"
        },
        {
          "indexed": false,
          "internalType": "string",
          "name": "description",
          "type": "string"
        },
        {
          "indexed": false,
          "internalType": "string",
          "name": "image",
          "type": "string"
        }
      ],
      "name": "TemplateUpdated",
      "type": "event"
    },
    {
      "anonymous": false,
      "inputs": [
        {
          "indexed": true,
          "internalType": "address",
          "name": "from",
          "type": "address"
        },
        {
          "indexed": true,
          "internalType": "address",
          "name": "to",
          "type": "address"
        },
        {
          "indexed": true,
          "internalType": "uint256",
          "name": "tokenId",
          "type": "uint256"
        }
      ],
      "name": "Transfer",
      "type": "event"
    },
    {
      "anonymous": false,
      "inputs": [
        {
          "indexed": false,
          "internalType": "address",
          "name": "account",
          "type": "address"
        }
      ],
      "name": "Unpaused",
      "type": "event"
    },
    {
      "stateMutability": "nonpayable",
      "type": "fallback"
    },
    {
      "inputs": [],
      "name": "ADMIN_ROLE",
      "outputs": [
        {
          "internalType": "bytes32",
          "name": "",
          "type": "bytes32"
        }
      ],
      "stateMutability": "view",
      "type": "function",
      "constant": true
    },
    {
      "inputs": [],
      "name": "DEFAULT_ADMIN_ROLE",
      "outputs": [
        {
          "internalType": "bytes32",
          "name": "",
          "type": "bytes32"
        }
      ],
      "stateMutability": "view",
      "type": "function",
      "constant": true
    },
    {
      "inputs": [],
      "name": "PAUSER_ROLE",
      "outputs": [
        {
          "internalType": "bytes32",
          "name": "",
          "type": "bytes32"
        }
      ],
      "stateMutability": "view",
      "type": "function",
      "constant": true
    },
    {
      "inputs": [],
      "name": "TEMPLATER_ROLE",
      "outputs": [
        {
          "internalType": "bytes32",
          "name": "",
          "type": "bytes32"
        }
      ],
      "stateMutability": "view",
      "type": "function",
      "constant": true
    },
    {
      "inputs": [
        {
          "internalType": "address",
          "name": "account",
          "type": "address"
        }
      ],
      "name": "addAdmin",
      "outputs": [
        {
          "internalType": "bool",
          "name": "",
          "type": "bool"
        }
      ],
      "stateMutability": "nonpayable",
      "type": "function"
    },
    {
      "inputs": [
        {
          "internalType": "address",
          "name": "account",
          "type": "address"
        }
      ],
      "name": "addTemplater",
      "outputs": [
        {
          "internalType": "bool",
          "name": "",
          "type": "bool"
        }
      ],
      "stateMutability": "nonpayable",
      "type": "function"
    },
    {
      "inputs": [
        {
          "internalType": "address",
          "name": "to",
          "type": "address"
        },
        {
          "internalType": "uint256",
          "name": "tokenId",
          "type": "uint256"
        }
      ],
      "name": "approve",
      "outputs": [],
      "stateMutability": "nonpayable",
      "type": "function"
    },
    {
      "inputs": [
        {
          "internalType": "address",
          "name": "owner",
          "type": "address"
        }
      ],
      "name": "balanceOf",
      "outputs": [
        {
          "internalType": "uint256",
          "name": "",
          "type": "uint256"
        }
      ],
      "stateMutability": "view",
      "type": "function",
      "constant": true
    },
    {
      "inputs": [],
      "name": "baseURI",
      "outputs": [
        {
          "internalType": "string",
          "name": "",
          "type": "string"
        }
      ],
      "stateMutability": "view",
      "type": "function",
      "constant": true
    },
    {
      "inputs": [
        {
          "internalType": "uint256",
          "name": "tokenId",
          "type": "uint256"
        }
      ],
      "name": "getApproved",
      "outputs": [
        {
          "internalType": "address",
          "name": "",
          "type": "address"
        }
      ],
      "stateMutability": "view",
      "type": "function",
      "constant": true
    },
    {
      "inputs": [
        {
          "internalType": "bytes32",
          "name": "role",
          "type": "bytes32"
        }
      ],
      "name": "getRoleAdmin",
      "outputs": [
        {
          "internalType": "bytes32",
          "name": "",
          "type": "bytes32"
        }
      ],
      "stateMutability": "view",
      "type": "function",
      "constant": true
    },
    {
      "inputs": [
        {
          "internalType": "bytes32",
          "name": "role",
          "type": "bytes32"
        },
        {
          "internalType": "uint256",
          "name": "index",
          "type": "uint256"
        }
      ],
      "name": "getRoleMember",
      "outputs": [
        {
          "internalType": "address",
          "name": "",
          "type": "address"
        }
      ],
      "stateMutability": "view",
      "type": "function",
      "constant": true
    },
    {
      "inputs": [
        {
          "internalType": "bytes32",
          "name": "role",
          "type": "bytes32"
        }
      ],
      "name": "getRoleMemberCount",
      "outputs": [
        {
          "internalType": "uint256",
          "name": "",
          "type": "uint256"
        }
      ],
      "stateMutability": "view",
      "type": "function",
      "constant": true
    },
    {
      "inputs": [],
      "name": "getTrustedForwarder",
      "outputs": [
        {
          "internalType": "address",
          "name": "",
          "type": "address"
        }
      ],
      "stateMutability": "view",
      "type": "function",
      "constant": true
    },
    {
      "inputs": [
        {
          "internalType": "bytes32",
          "name": "role",
          "type": "bytes32"
        },
        {
          "internalType": "address",
          "name": "account",
          "type": "address"
        }
      ],
      "name": "grantRole",
      "outputs": [],
      "stateMutability": "nonpayable",
      "type": "function"
    },
    {
      "inputs": [
        {
          "internalType": "bytes32",
          "name": "role",
          "type": "bytes32"
        },
        {
          "internalType": "address",
          "name": "account",
          "type": "address"
        }
      ],
      "name": "hasRole",
      "outputs": [
        {
          "internalType": "bool",
          "name": "",
          "type": "bool"
        }
      ],
      "stateMutability": "view",
      "type": "function",
      "constant": true
    },
    {
      "inputs": [
        {
          "internalType": "address",
          "name": "owner",
          "type": "address"
        },
        {
          "internalType": "address",
          "name": "operator",
          "type": "address"
        }
      ],
      "name": "isApprovedForAll",
      "outputs": [
        {
          "internalType": "bool",
          "name": "",
          "type": "bool"
        }
      ],
      "stateMutability": "view",
      "type": "function",
      "constant": true
    },
    {
      "inputs": [
        {
          "internalType": "address",
          "name": "forwarder",
          "type": "address"
        }
      ],
      "name": "isTrustedForwarder",
      "outputs": [
        {
          "internalType": "bool",
          "name": "",
          "type": "bool"
        }
      ],
      "stateMutability": "view",
      "type": "function",
      "constant": true
    },
    {
      "inputs": [],
      "name": "name",
      "outputs": [
        {
          "internalType": "string",
          "name": "",
          "type": "string"
        }
      ],
      "stateMutability": "view",
      "type": "function",
      "constant": true
    },
    {
      "inputs": [
        {
          "internalType": "uint256",
          "name": "tokenId",
          "type": "uint256"
        }
      ],
      "name": "ownerOf",
      "outputs": [
        {
          "internalType": "address",
          "name": "",
          "type": "address"
        }
      ],
      "stateMutability": "view",
      "type": "function",
      "constant": true
    },
    {
      "inputs": [],
      "name": "pause",
      "outputs": [],
      "stateMutability": "nonpayable",
      "type": "function"
    },
    {
      "inputs": [],
      "name": "paused",
      "outputs": [
        {
          "internalType": "bool",
          "name": "",
          "type": "bool"
        }
      ],
      "stateMutability": "view",
      "type": "function",
      "constant": true
    },
    {
      "inputs": [
        {
          "internalType": "address",
          "name": "account",
          "type": "address"
        }
      ],
      "name": "removeAdmin",
      "outputs": [
        {
          "internalType": "bool",
          "name": "",
          "type": "bool"
        }
      ],
      "stateMutability": "nonpayable",
      "type": "function"
    },
    {
      "inputs": [
        {
          "internalType": "address",
          "name": "account",
          "type": "address"
        }
      ],
      "name": "removeTemplater",
      "outputs": [
        {
          "internalType": "bool",
          "name": "",
          "type": "bool"
        }
      ],
      "stateMutability": "nonpayable",
      "type": "function"
    },
    {
      "inputs": [
        {
          "internalType": "bytes32",
          "name": "role",
          "type": "bytes32"
        },
        {
          "internalType": "address",
          "name": "account",
          "type": "address"
        }
      ],
      "name": "renounceRole",
      "outputs": [],
      "stateMutability": "nonpayable",
      "type": "function"
    },
    {
      "inputs": [
        {
          "internalType": "bytes32",
          "name": "role",
          "type": "bytes32"
        },
        {
          "internalType": "address",
          "name": "account",
          "type": "address"
        }
      ],
      "name": "revokeRole",
      "outputs": [],
      "stateMutability": "nonpayable",
      "type": "function"
    },
    {
      "inputs": [
        {
          "internalType": "address",
          "name": "from",
          "type": "address"
        },
        {
          "internalType": "address",
          "name": "to",
          "type": "address"
        },
        {
          "internalType": "uint256",
          "name": "tokenId",
          "type": "uint256"
        }
      ],
      "name": "safeTransferFrom",
      "outputs": [],
      "stateMutability": "nonpayable",
      "type": "function"
    },
    {
      "inputs": [
        {
          "internalType": "address",
          "name": "from",
          "type": "address"
        },
        {
          "internalType": "address",
          "name": "to",
          "type": "address"
        },
        {
          "internalType": "uint256",
          "name": "tokenId",
          "type": "uint256"
        },
        {
          "internalType": "bytes",
          "name": "_data",
          "type": "bytes"
        }
      ],
      "name": "safeTransferFrom",
      "outputs": [],
      "stateMutability": "nonpayable",
      "type": "function"
    },
    {
      "inputs": [
        {
          "internalType": "address",
          "name": "operator",
          "type": "address"
        },
        {
          "internalType": "bool",
          "name": "approved",
          "type": "bool"
        }
      ],
      "name": "setApprovalForAll",
      "outputs": [],
      "stateMutability": "nonpayable",
      "type": "function"
    },
    {
      "inputs": [
        {
          "internalType": "bytes4",
          "name": "interfaceId",
          "type": "bytes4"
        }
      ],
      "name": "supportsInterface",
      "outputs": [
        {
          "internalType": "bool",
          "name": "",
          "type": "bool"
        }
      ],
      "stateMutability": "view",
      "type": "function",
      "constant": true
    },
    {
      "inputs": [],
      "name": "symbol",
      "outputs": [
        {
          "internalType": "string",
          "name": "",
          "type": "string"
        }
      ],
      "stateMutability": "view",
      "type": "function",
      "constant": true
    },
    {
      "inputs": [
        {
          "internalType": "uint256",
          "name": "",
          "type": "uint256"
        }
      ],
      "name": "templateQuantities",
      "outputs": [
        {
          "internalType": "uint256",
          "name": "",
          "type": "uint256"
        }
      ],
      "stateMutability": "view",
      "type": "function",
      "constant": true
    },
    {
      "inputs": [
        {
          "internalType": "uint256",
          "name": "",
          "type": "uint256"
        }
      ],
      "name": "templates",
      "outputs": [
        {
          "internalType": "string",
          "name": "name",
          "type": "string"
        },
        {
          "internalType": "string",
          "name": "description",
          "type": "string"
        },
        {
          "internalType": "string",
          "name": "image",
          "type": "string"
        }
      ],
      "stateMutability": "view",
      "type": "function",
      "constant": true
    },
    {
      "inputs": [
        {
          "internalType": "uint256",
          "name": "index",
          "type": "uint256"
        }
      ],
      "name": "tokenByIndex",
      "outputs": [
        {
          "internalType": "uint256",
          "name": "",
          "type": "uint256"
        }
      ],
      "stateMutability": "view",
      "type": "function",
      "constant": true
    },
    {
      "inputs": [
        {
          "internalType": "address",
          "name": "owner",
          "type": "address"
        },
        {
          "internalType": "uint256",
          "name": "index",
          "type": "uint256"
        }
      ],
      "name": "tokenOfOwnerByIndex",
      "outputs": [
        {
          "internalType": "uint256",
          "name": "",
          "type": "uint256"
        }
      ],
      "stateMutability": "view",
      "type": "function",
      "constant": true
    },
    {
      "inputs": [
        {
          "internalType": "uint256",
          "name": "tokenId",
          "type": "uint256"
        }
      ],
      "name": "tokenURI",
      "outputs": [
        {
          "internalType": "string",
          "name": "",
          "type": "string"
        }
      ],
      "stateMutability": "view",
      "type": "function",
      "constant": true
    },
    {
      "inputs": [],
      "name": "totalSupply",
      "outputs": [
        {
          "internalType": "uint256",
          "name": "",
          "type": "uint256"
        }
      ],
      "stateMutability": "view",
      "type": "function",
      "constant": true
    },
    {
      "inputs": [
        {
          "internalType": "address",
          "name": "from",
          "type": "address"
        },
        {
          "internalType": "address",
          "name": "to",
          "type": "address"
        },
        {
          "internalType": "uint256",
          "name": "tokenId",
          "type": "uint256"
        }
      ],
      "name": "transferFrom",
      "outputs": [],
      "stateMutability": "nonpayable",
      "type": "function"
    },
    {
      "inputs": [],
      "name": "trustedForwarder",
      "outputs": [
        {
          "internalType": "address",
          "name": "",
          "type": "address"
        }
      ],
      "stateMutability": "view",
      "type": "function",
      "constant": true
    },
    {
      "inputs": [],
      "name": "unpause",
      "outputs": [],
      "stateMutability": "nonpayable",
      "type": "function"
    },
    {
      "inputs": [],
      "name": "versionRecipient",
      "outputs": [
        {
          "internalType": "string",
          "name": "",
          "type": "string"
        }
      ],
      "stateMutability": "view",
      "type": "function",
      "constant": true
    },
    {
      "inputs": [
        {
          "internalType": "string",
          "name": "baseURI",
          "type": "string"
        }
      ],
      "name": "setBaseURI",
      "outputs": [],
      "stateMutability": "nonpayable",
      "type": "function"
    },
    {
      "inputs": [
        {
          "internalType": "bytes32[]",
          "name": "_roots",
          "type": "bytes32[]"
        }
      ],
      "name": "setRootHashes",
      "outputs": [],
      "stateMutability": "nonpayable",
      "type": "function"
    },
    {
      "inputs": [
        {
          "internalType": "string",
          "name": "name",
          "type": "string"
        },
        {
          "internalType": "string",
          "name": "description",
          "type": "string"
        },
        {
          "internalType": "string",
          "name": "image",
          "type": "string"
        }
      ],
      "name": "createTemplate",
      "outputs": [],
      "stateMutability": "nonpayable",
      "type": "function"
    },
    {
      "inputs": [
        {
          "internalType": "uint256",
          "name": "templateId",
          "type": "uint256"
        },
        {
          "internalType": "string",
          "name": "name",
          "type": "string"
        },
        {
          "internalType": "string",
          "name": "description",
          "type": "string"
        },
        {
          "internalType": "string",
          "name": "image",
          "type": "string"
        }
      ],
      "name": "updateTemplate",
      "outputs": [],
      "stateMutability": "nonpayable",
      "type": "function"
    },
    {
      "inputs": [],
      "name": "getTemplatesCount",
      "outputs": [
        {
          "internalType": "uint256",
          "name": "count",
          "type": "uint256"
        }
      ],
      "stateMutability": "view",
      "type": "function",
      "constant": true
    },
    {
      "inputs": [
        {
          "internalType": "bytes32[]",
          "name": "proof",
          "type": "bytes32[]"
        },
        {
          "internalType": "uint256",
          "name": "templateId",
          "type": "uint256"
        },
        {
          "internalType": "string",
          "name": "tokenURI",
          "type": "string"
        }
      ],
      "name": "activateBadge",
      "outputs": [
        {
          "internalType": "bool",
          "name": "",
          "type": "bool"
        }
      ],
      "stateMutability": "nonpayable",
      "type": "function"
    },
    {
      "inputs": [
        {
          "internalType": "uint256",
          "name": "tokenId",
          "type": "uint256"
        }
      ],
      "name": "getBadgeRedeemer",
      "outputs": [
        {
          "internalType": "address",
          "name": "redeemer",
          "type": "address"
        }
      ],
      "stateMutability": "view",
      "type": "function",
      "constant": true
    },
    {
      "inputs": [
        {
          "internalType": "uint256",
          "name": "tokenId",
          "type": "uint256"
        }
      ],
      "name": "getBadgeTemplate",
      "outputs": [
        {
          "internalType": "uint256",
          "name": "templateId",
          "type": "uint256"
        }
      ],
      "stateMutability": "view",
      "type": "function",
      "constant": true
    }
  ],
  "bytecode": "0x60a06040523480156200001157600080fd5b506040516200626438038062006264833981810160405260408110156200003757600080fd5b8101908080519060200190929190805190602001909291905050506040518060400160405280600b81526020017f4d616b65724261646765730000000000000000000000000000000000000000008152506040518060400160405280600581526020017f4d414b4552000000000000000000000000000000000000000000000000000000815250836000600160006101000a81548160ff021916908315150217905550620000fe6000801b620000f2620002ff60201b60201c565b6200031b60201b60201c565b6200013f7fa49807205ce4d355092ef5a8a18f56e8913cf4a201fbe287825b095693c2177562000133620002ff60201b60201c565b6200031b60201b60201c565b620001807f82fc59a2af283c7e52e3f7cf8d269383062c6603a1ab4300e32135abe128a47662000174620002ff60201b60201c565b6200031b60201b60201c565b620001c17f65d7a28e3265b37a6474929f336521b332c1681b933f6cb9f3376673440d862a620001b5620002ff60201b60201c565b6200031b60201b60201c565b806001806101000a81548173ffffffffffffffffffffffffffffffffffffffff021916908373ffffffffffffffffffffffffffffffffffffffff160217905550506200021a6301ffc9a760e01b6200033160201b60201c565b8160089080519060200190620002329291906200066f565b5080600990805190602001906200024b9291906200066f565b50620002646380ac58cd60e01b6200033160201b60201c565b6200027c635b5e139f60e01b6200033160201b60201c565b6200029463780e9d6360e01b6200033160201b60201c565b5050620002c060405180606001604052806022815260200162006242602291396200043b60201b60201c565b8073ffffffffffffffffffffffffffffffffffffffff1660808173ffffffffffffffffffffffffffffffffffffffff1660601b81525050505062000715565b6000620003166200045760201b62003a951760201c565b905090565b6200032d82826200049f60201b60201c565b5050565b63ffffffff60e01b817bffffffffffffffffffffffffffffffffffffffffffffffffffffffff19161415620003ce576040517f08c379a000000000000000000000000000000000000000000000000000000000815260040180806020018281038252601c8152602001807f4552433136353a20696e76616c696420696e746572666163652069640000000081525060200191505060405180910390fd5b600160026000837bffffffffffffffffffffffffffffffffffffffffffffffffffffffff19167bffffffffffffffffffffffffffffffffffffffffffffffffffffffff1916815260200190815260200160002060006101000a81548160ff02191690831515021790555050565b80600b9080519060200190620004539291906200066f565b5050565b600060186000369050101580156200047c57506200047b336200054260201b60201c565b5b156200049257601436033560601c90506200049b565b3390506200049c565b5b90565b620004cd816000808581526020019081526020016000206000016200059a60201b62003ad11790919060201c565b156200053e57620004e3620002ff60201b60201c565b73ffffffffffffffffffffffffffffffffffffffff168173ffffffffffffffffffffffffffffffffffffffff16837f2f8788117e7eff1d82e926ec794901d17c78024a50270940304540a733656f0d60405160405180910390a45b5050565b600060018054906101000a900473ffffffffffffffffffffffffffffffffffffffff1673ffffffffffffffffffffffffffffffffffffffff168273ffffffffffffffffffffffffffffffffffffffff16149050919050565b6000620005ca836000018373ffffffffffffffffffffffffffffffffffffffff1660001b620005d260201b60201c565b905092915050565b6000620005e683836200064c60201b60201c565b6200064157826000018290806001815401808255809150506001900390600052602060002001600090919091909150558260000180549050836001016000848152602001908152602001600020819055506001905062000646565b600090505b92915050565b600080836001016000848152602001908152602001600020541415905092915050565b828054600181600116156101000203166002900490600052602060002090601f016020900481019282601f10620006b257805160ff1916838001178555620006e3565b82800160010185558215620006e3579182015b82811115620006e2578251825591602001919060010190620006c5565b5b509050620006f29190620006f6565b5090565b5b8082111562000711576000816000905550600101620006f7565b5090565b60805160601c615b0f62000733600039806134ef5250615b0f6000f3fe608060405234801561001057600080fd5b50600436106102bf5760003560e01c80637048027511610182578063b88d4fde116100e9578063d214f400116100a2578063e63ab1e91161007c578063e63ab1e914611569578063e6c0d71414611587578063e985e9c5146115e1578063fb2a5f121461165b576102c0565b8063d214f40014611300578063d4c10e461461142d578063d547741f1461151b576102c0565b8063b88d4fde14610e3c578063bc52565214610f41578063c87b56dd146110c0578063ca15c87314611167578063ccb4bcb6146111a9578063ce1b815f146112cc576102c0565b806391d148541161013b57806391d1485414610c5057806395d89b4114610cb4578063a217fddf14610d37578063a22cb46514610d55578063aca5770314610da5578063b5900eea14610e1e576102c0565b80637048027514610ae057806370a0823114610b3a57806375b238fc14610b925780637da0a87714610bb05780638456cb5914610be45780639010d07c14610bee576102c0565b806342842e0e1161022657806355f804b3116101df57806355f804b3146108f4578063572b6c051461096d5780635c975abb146109c75780636352211e146109e75780636c0360eb14610a3f5780636cdd0a1614610ac2576102c0565b806342842e0e146106cd5780634311110f1461073b578063486ff0cd146107935780634ba360ba146108165780634de46fd0146108705780634f6ccce7146108b2576102c0565b806323b872dd1161027857806323b872dd14610515578063248a9ca3146105835780632f2ff15d146105c55780632f745c591461061357806336568abe146106755780633f4ba83a146106c3576102c0565b806301ffc9a71461031157806306fdde0314610374578063081812fc146103f7578063095ea7b31461044f5780631785f53c1461049d57806318160ddd146104f7576102c0565b5b6040517f08c379a000000000000000000000000000000000000000000000000000000000815260040180806020018281038252602d815260200180615734602d913960400191505060405180910390fd5b61035c6004803603602081101561032757600080fd5b8101908080357bffffffffffffffffffffffffffffffffffffffffffffffffffffffff1916906020019092919050505061169d565b60405180821515815260200191505060405180910390f35b61037c611705565b6040518080602001828103825283818151815260200191508051906020019080838360005b838110156103bc5780820151818401526020810190506103a1565b50505050905090810190601f1680156103e95780820380516001836020036101000a031916815260200191505b509250505060405180910390f35b6104236004803603602081101561040d57600080fd5b81019080803590602001909291905050506117a7565b604051808273ffffffffffffffffffffffffffffffffffffffff16815260200191505060405180910390f35b61049b6004803603604081101561046557600080fd5b81019080803573ffffffffffffffffffffffffffffffffffffffff16906020019092919080359060200190929190505050611842565b005b6104df600480360360208110156104b357600080fd5b81019080803573ffffffffffffffffffffffffffffffffffffffff169060200190929190505050611986565b60405180821515815260200191505060405180910390f35b6104ff611a24565b6040518082815260200191505060405180910390f35b6105816004803603606081101561052b57600080fd5b81019080803573ffffffffffffffffffffffffffffffffffffffff169060200190929190803573ffffffffffffffffffffffffffffffffffffffff16906020019092919080359060200190929190505050611a35565b005b6105af6004803603602081101561059957600080fd5b8101908080359060200190929190505050611aab565b6040518082815260200191505060405180910390f35b610611600480360360408110156105db57600080fd5b8101908080359060200190929190803573ffffffffffffffffffffffffffffffffffffffff169060200190929190505050611aca565b005b61065f6004803603604081101561062957600080fd5b81019080803573ffffffffffffffffffffffffffffffffffffffff16906020019092919080359060200190929190505050611b53565b6040518082815260200191505060405180910390f35b6106c16004803603604081101561068b57600080fd5b8101908080359060200190929190803573ffffffffffffffffffffffffffffffffffffffff169060200190929190505050611bae565b005b6106cb611c47565b005b610739600480360360608110156106e357600080fd5b81019080803573ffffffffffffffffffffffffffffffffffffffff169060200190929190803573ffffffffffffffffffffffffffffffffffffffff16906020019092919080359060200190929190505050611cd7565b005b6107676004803603602081101561075157600080fd5b8101908080359060200190929190505050611cf7565b604051808273ffffffffffffffffffffffffffffffffffffffff16815260200191505060405180910390f35b61079b611ded565b6040518080602001828103825283818151815260200191508051906020019080838360005b838110156107db5780820151818401526020810190506107c0565b50505050905090810190601f1680156108085780820380516001836020036101000a031916815260200191505b509250505060405180910390f35b6108586004803603602081101561082c57600080fd5b81019080803573ffffffffffffffffffffffffffffffffffffffff169060200190929190505050611e2a565b60405180821515815260200191505060405180910390f35b61089c6004803603602081101561088657600080fd5b8101908080359060200190929190505050611ec8565b6040518082815260200191505060405180910390f35b6108de600480360360208110156108c857600080fd5b8101908080359060200190929190505050611fbf565b6040518082815260200191505060405180910390f35b61096b6004803603602081101561090a57600080fd5b810190808035906020019064010000000081111561092757600080fd5b82018360208201111561093957600080fd5b8035906020019184600183028401116401000000008311171561095b57600080fd5b9091929391929390505050611fe2565b005b6109af6004803603602081101561098357600080fd5b81019080803573ffffffffffffffffffffffffffffffffffffffff16906020019092919050505061209c565b60405180821515815260200191505060405180910390f35b6109cf6120f4565b60405180821515815260200191505060405180910390f35b610a13600480360360208110156109fd57600080fd5b810190808035906020019092919050505061210b565b604051808273ffffffffffffffffffffffffffffffffffffffff16815260200191505060405180910390f35b610a47612142565b6040518080602001828103825283818151815260200191508051906020019080838360005b83811015610a87578082015181840152602081019050610a6c565b50505050905090810190601f168015610ab45780820380516001836020036101000a031916815260200191505b509250505060405180910390f35b610aca6121e4565b6040518082815260200191505060405180910390f35b610b2260048036036020811015610af657600080fd5b81019080803573ffffffffffffffffffffffffffffffffffffffff169060200190929190505050612208565b60405180821515815260200191505060405180910390f35b610b7c60048036036020811015610b5057600080fd5b81019080803573ffffffffffffffffffffffffffffffffffffffff16906020019092919050505061232c565b6040518082815260200191505060405180910390f35b610b9a612401565b6040518082815260200191505060405180910390f35b610bb8612425565b604051808273ffffffffffffffffffffffffffffffffffffffff16815260200191505060405180910390f35b610bec612449565b005b610c2460048036036040811015610c0457600080fd5b8101908080359060200190929190803590602001909291905050506124d9565b604051808273ffffffffffffffffffffffffffffffffffffffff16815260200191505060405180910390f35b610c9c60048036036040811015610c6657600080fd5b8101908080359060200190929190803573ffffffffffffffffffffffffffffffffffffffff16906020019092919050505061250a565b60405180821515815260200191505060405180910390f35b610cbc61253b565b6040518080602001828103825283818151815260200191508051906020019080838360005b83811015610cfc578082015181840152602081019050610ce1565b50505050905090810190601f168015610d295780820380516001836020036101000a031916815260200191505b509250505060405180910390f35b610d3f6125dd565b6040518082815260200191505060405180910390f35b610da360048036036040811015610d6b57600080fd5b81019080803573ffffffffffffffffffffffffffffffffffffffff1690602001909291908035151590602001909291905050506125e4565b005b610e1c60048036036020811015610dbb57600080fd5b8101908080359060200190640100000000811115610dd857600080fd5b820183602082011115610dea57600080fd5b80359060200191846020830284011164010000000083111715610e0c57600080fd5b909192939192939050505061279a565b005b610e266128b9565b6040518082815260200191505060405180910390f35b610f3f60048036036080811015610e5257600080fd5b81019080803573ffffffffffffffffffffffffffffffffffffffff169060200190929190803573ffffffffffffffffffffffffffffffffffffffff1690602001909291908035906020019092919080359060200190640100000000811115610eb957600080fd5b820183602082011115610ecb57600080fd5b80359060200191846001830284011164010000000083111715610eed57600080fd5b91908080601f016020809104026020016040519081016040528093929190818152602001838380828437600081840152601f19601f82011690508083019250505050505050919291929050505061294d565b005b610f6d60048036036020811015610f5757600080fd5b81019080803590602001909291905050506129c5565b60405180806020018060200180602001848103845287818151815260200191508051906020019080838360005b83811015610fb5578082015181840152602081019050610f9a565b50505050905090810190601f168015610fe25780820380516001836020036101000a031916815260200191505b50848103835286818151815260200191508051906020019080838360005b8381101561101b578082015181840152602081019050611000565b50505050905090810190601f1680156110485780820380516001836020036101000a031916815260200191505b50848103825285818151815260200191508051906020019080838360005b83811015611081578082015181840152602081019050611066565b50505050905090810190601f1680156110ae5780820380516001836020036101000a031916815260200191505b50965050505050505060405180910390f35b6110ec600480360360208110156110d657600080fd5b8101908080359060200190929190505050612bb7565b6040518080602001828103825283818151815260200191508051906020019080838360005b8381101561112c578082015181840152602081019050611111565b50505050905090810190601f1680156111595780820380516001836020036101000a031916815260200191505b509250505060405180910390f35b6111936004803603602081101561117d57600080fd5b8101908080359060200190929190505050612ea0565b6040518082815260200191505060405180910390f35b6112ca600480360360608110156111bf57600080fd5b81019080803590602001906401000000008111156111dc57600080fd5b8201836020820111156111ee57600080fd5b8035906020019184600183028401116401000000008311171561121057600080fd5b90919293919293908035906020019064010000000081111561123157600080fd5b82018360208201111561124357600080fd5b8035906020019184600183028401116401000000008311171561126557600080fd5b90919293919293908035906020019064010000000081111561128657600080fd5b82018360208201111561129857600080fd5b803590602001918460018302840111640100000000831117156112ba57600080fd5b9091929391929390505050612ec6565b005b6112d461312e565b604051808273ffffffffffffffffffffffffffffffffffffffff16815260200191505060405180910390f35b61142b6004803603608081101561131657600080fd5b81019080803590602001909291908035906020019064010000000081111561133d57600080fd5b82018360208201111561134f57600080fd5b8035906020019184600183028401116401000000008311171561137157600080fd5b90919293919293908035906020019064010000000081111561139257600080fd5b8201836020820111156113a457600080fd5b803590602001918460018302840111640100000000831117156113c657600080fd5b9091929391929390803590602001906401000000008111156113e757600080fd5b8201836020820111156113f957600080fd5b8035906020019184600183028401116401000000008311171561141b57600080fd5b9091929391929390505050613156565b005b6115036004803603606081101561144357600080fd5b810190808035906020019064010000000081111561146057600080fd5b82018360208201111561147257600080fd5b8035906020019184602083028401116401000000008311171561149457600080fd5b909192939192939080359060200190929190803590602001906401000000008111156114bf57600080fd5b8201836020820111156114d157600080fd5b803590602001918460018302840111640100000000831117156114f357600080fd5b9091929391929390505050613407565b60405180821515815260200191505060405180910390f35b6115676004803603604081101561153157600080fd5b8101908080359060200190929190803573ffffffffffffffffffffffffffffffffffffffff169060200190929190505050613818565b005b6115716138a1565b6040518082815260200191505060405180910390f35b6115c96004803603602081101561159d57600080fd5b81019080803573ffffffffffffffffffffffffffffffffffffffff1690602001909291905050506138c5565b60405180821515815260200191505060405180910390f35b611643600480360360408110156115f757600080fd5b81019080803573ffffffffffffffffffffffffffffffffffffffff169060200190929190803573ffffffffffffffffffffffffffffffffffffffff1690602001909291905050506139e9565b60405180821515815260200191505060405180910390f35b6116876004803603602081101561167157600080fd5b8101908080359060200190929190505050613a7d565b6040518082815260200191505060405180910390f35b600060026000837bffffffffffffffffffffffffffffffffffffffffffffffffffffffff19167bffffffffffffffffffffffffffffffffffffffffffffffffffffffff1916815260200190815260200160002060009054906101000a900460ff169050919050565b606060088054600181600116156101000203166002900480601f01602080910402602001604051908101604052809291908181526020018280546001816001161561010002031660029004801561179d5780601f106117725761010080835404028352916020019161179d565b820191906000526020600020905b81548152906001019060200180831161178057829003601f168201915b5050505050905090565b60006117b282613b01565b611807576040517f08c379a000000000000000000000000000000000000000000000000000000000815260040180806020018281038252602c815260200180615902602c913960400191505060405180910390fd5b6006600083815260200190815260200160002060009054906101000a900473ffffffffffffffffffffffffffffffffffffffff169050919050565b600061184d8261210b565b90508073ffffffffffffffffffffffffffffffffffffffff168373ffffffffffffffffffffffffffffffffffffffff1614156118d4576040517f08c379a0000000000000000000000000000000000000000000000000000000008152600401808060200182810382526021815260200180615a016021913960400191505060405180910390fd5b8073ffffffffffffffffffffffffffffffffffffffff166118f3613b1e565b73ffffffffffffffffffffffffffffffffffffffff16148061192257506119218161191c613b1e565b6139e9565b5b611977576040517f08c379a000000000000000000000000000000000000000000000000000000000815260040180806020018281038252603881526020018061582c6038913960400191505060405180910390fd5b6119818383613b2d565b505050565b600061199c6000801b611997613b1e565b61250a565b6119f1576040517f08c379a000000000000000000000000000000000000000000000000000000000815260040180806020018281038252602d8152602001806156e4602d913960400191505060405180910390fd5b611a1b7fa49807205ce4d355092ef5a8a18f56e8913cf4a201fbe287825b095693c2177583613818565b60019050919050565b6000611a306004613be6565b905090565b611a46611a40613b1e565b82613bfb565b611a9b576040517f08c379a0000000000000000000000000000000000000000000000000000000008152600401808060200182810382526031815260200180615a4e6031913960400191505060405180910390fd5b611aa6838383613cef565b505050565b6000806000838152602001908152602001600020600201549050919050565b611af060008084815260200190815260200160002060020154611aeb613b1e565b61250a565b611b45576040517f08c379a000000000000000000000000000000000000000000000000000000000815260040180806020018281038252602f815260200180615609602f913960400191505060405180910390fd5b611b4f8282613d56565b5050565b6000611ba682600360008673ffffffffffffffffffffffffffffffffffffffff1673ffffffffffffffffffffffffffffffffffffffff168152602001908152602001600020613de990919063ffffffff16565b905092915050565b611bb6613b1e565b73ffffffffffffffffffffffffffffffffffffffff168173ffffffffffffffffffffffffffffffffffffffff1614611c39576040517f08c379a000000000000000000000000000000000000000000000000000000000815260040180806020018281038252602f815260200180615aab602f913960400191505060405180910390fd5b611c438282613e03565b5050565b611c787f65d7a28e3265b37a6474929f336521b332c1681b933f6cb9f3376673440d862a611c73613b1e565b61250a565b611ccd576040517f08c379a000000000000000000000000000000000000000000000000000000000815260040180806020018281038252602e815260200180615638602e913960400191505060405180910390fd5b611cd5613e96565b565b611cf28383836040518060200160405280600081525061294d565b505050565b6000600160009054906101000a900460ff1615611d7c576040517f08c379a00000000000000000000000000000000000000000000000000000000081526004018080602001828103825260108152602001807f5061757361626c653a207061757365640000000000000000000000000000000081525060200191505060405180910390fd5b611d8582613b01565b611dda576040517f08c379a00000000000000000000000000000000000000000000000000000000081526004018080602001828103825260238152602001806159866023913960400191505060405180910390fd5b611de382613f89565b5080915050919050565b60606040518060400160405280600581526020017f302e392e30000000000000000000000000000000000000000000000000000000815250905090565b6000611e406000801b611e3b613b1e565b61250a565b611e95576040517f08c379a000000000000000000000000000000000000000000000000000000000815260040180806020018281038252602d8152602001806156e4602d913960400191505060405180910390fd5b611ebf7f82fc59a2af283c7e52e3f7cf8d269383062c6603a1ab4300e32135abe128a47683613818565b60019050919050565b6000600160009054906101000a900460ff1615611f4d576040517f08c379a00000000000000000000000000000000000000000000000000000000081526004018080602001828103825260108152602001807f5061757361626c653a207061757365640000000000000000000000000000000081525060200191505060405180910390fd5b611f5682613b01565b611fab576040517f08c379a00000000000000000000000000000000000000000000000000000000081526004018080602001828103825260238152602001806159866023913960400191505060405180910390fd5b611fb482613f89565b905080915050919050565b600080611fd6836004613fca90919063ffffffff16565b50905080915050919050565b611ff66000801b611ff1613b1e565b61250a565b61204b576040517f08c379a000000000000000000000000000000000000000000000000000000000815260040180806020018281038252602c815260200180615a7f602c913960400191505060405180910390fd5b61209882828080601f016020809104026020016040519081016040528093929190818152602001838380828437600081840152601f19601f82011690508083019250505050505050613ff6565b5050565b600060018054906101000a900473ffffffffffffffffffffffffffffffffffffffff1673ffffffffffffffffffffffffffffffffffffffff168273ffffffffffffffffffffffffffffffffffffffff16149050919050565b6000600160009054906101000a900460ff16905090565b600061213b8260405180606001604052806029815260200161588e6029913960046140109092919063ffffffff16565b9050919050565b6060600b8054600181600116156101000203166002900480601f0160208091040260200160405190810160405280929190818152602001828054600181600116156101000203166002900480156121da5780601f106121af576101008083540402835291602001916121da565b820191906000526020600020905b8154815290600101906020018083116121bd57829003601f168201915b5050505050905090565b7f82fc59a2af283c7e52e3f7cf8d269383062c6603a1ab4300e32135abe128a47681565b600061221e6000801b612219613b1e565b61250a565b612273576040517f08c379a000000000000000000000000000000000000000000000000000000000815260040180806020018281038252602d8152602001806156e4602d913960400191505060405180910390fd5b600073ffffffffffffffffffffffffffffffffffffffff168273ffffffffffffffffffffffffffffffffffffffff1614156122f9576040517f08c379a00000000000000000000000000000000000000000000000000000000081526004018080602001828103825260298152602001806158b76029913960400191505060405180910390fd5b6123237fa49807205ce4d355092ef5a8a18f56e8913cf4a201fbe287825b095693c2177583611aca565b60019050919050565b60008073ffffffffffffffffffffffffffffffffffffffff168273ffffffffffffffffffffffffffffffffffffffff1614156123b3576040517f08c379a000000000000000000000000000000000000000000000000000000000815260040180806020018281038252602a815260200180615864602a913960400191505060405180910390fd5b6123fa600360008473ffffffffffffffffffffffffffffffffffffffff1673ffffffffffffffffffffffffffffffffffffffff16815260200190815260200160002061402f565b9050919050565b7fa49807205ce4d355092ef5a8a18f56e8913cf4a201fbe287825b095693c2177581565b60018054906101000a900473ffffffffffffffffffffffffffffffffffffffff1681565b61247a7f65d7a28e3265b37a6474929f336521b332c1681b933f6cb9f3376673440d862a612475613b1e565b61250a565b6124cf576040517f08c379a000000000000000000000000000000000000000000000000000000000815260040180806020018281038252602c81526020018061595a602c913960400191505060405180910390fd5b6124d7614044565b565b60006125028260008086815260200190815260200160002060000161413790919063ffffffff16565b905092915050565b60006125338260008086815260200190815260200160002060000161415190919063ffffffff16565b905092915050565b606060098054600181600116156101000203166002900480601f0160208091040260200160405190810160405280929190818152602001828054600181600116156101000203166002900480156125d35780601f106125a8576101008083540402835291602001916125d3565b820191906000526020600020905b8154815290600101906020018083116125b657829003601f168201915b5050505050905090565b6000801b81565b6125ec613b1e565b73ffffffffffffffffffffffffffffffffffffffff168273ffffffffffffffffffffffffffffffffffffffff16141561268d576040517f08c379a00000000000000000000000000000000000000000000000000000000081526004018080602001828103825260198152602001807f4552433732313a20617070726f766520746f2063616c6c65720000000000000081525060200191505060405180910390fd5b806007600061269a613b1e565b73ffffffffffffffffffffffffffffffffffffffff1673ffffffffffffffffffffffffffffffffffffffff16815260200190815260200160002060008473ffffffffffffffffffffffffffffffffffffffff1673ffffffffffffffffffffffffffffffffffffffff16815260200190815260200160002060006101000a81548160ff0219169083151502179055508173ffffffffffffffffffffffffffffffffffffffff16612747613b1e565b73ffffffffffffffffffffffffffffffffffffffff167f17307eab39ab6107e8899845ad3d59bd9653f200f220920489ca2b5937696c318360405180821515815260200191505060405180910390a35050565b600160009054906101000a900460ff161561281d576040517f08c379a00000000000000000000000000000000000000000000000000000000081526004018080602001828103825260108152602001807f5061757361626c653a207061757365640000000000000000000000000000000081525060200191505060405180910390fd5b61284e7fa49807205ce4d355092ef5a8a18f56e8913cf4a201fbe287825b095693c21775612849613b1e565b61250a565b6128a3576040517f08c379a00000000000000000000000000000000000000000000000000000000081526004018080602001828103825260238152602001806157116023913960400191505060405180910390fd5b8181600d91906128b492919061545f565b505050565b6000600160009054906101000a900460ff161561293e576040517f08c379a00000000000000000000000000000000000000000000000000000000081526004018080602001828103825260108152602001807f5061757361626c653a207061757365640000000000000000000000000000000081525060200191505060405180910390fd5b612948600c614181565b905090565b61295e612958613b1e565b83613bfb565b6129b3576040517f08c379a0000000000000000000000000000000000000000000000000000000008152600401808060200182810382526031815260200180615a4e6031913960400191505060405180910390fd5b6129bf8484848461418f565b50505050565b600e602052806000526040600020600091509050806000018054600181600116156101000203166002900480601f016020809104026020016040519081016040528092919081815260200182805460018160011615610100020316600290048015612a715780601f10612a4657610100808354040283529160200191612a71565b820191906000526020600020905b815481529060010190602001808311612a5457829003601f168201915b505050505090806001018054600181600116156101000203166002900480601f016020809104026020016040519081016040528092919081815260200182805460018160011615610100020316600290048015612b0f5780601f10612ae457610100808354040283529160200191612b0f565b820191906000526020600020905b815481529060010190602001808311612af257829003601f168201915b505050505090806002018054600181600116156101000203166002900480601f016020809104026020016040519081016040528092919081815260200182805460018160011615610100020316600290048015612bad5780601f10612b8257610100808354040283529160200191612bad565b820191906000526020600020905b815481529060010190602001808311612b9057829003601f168201915b5050505050905083565b6060612bc282613b01565b612c17576040517f08c379a000000000000000000000000000000000000000000000000000000000815260040180806020018281038252602f8152602001806159d2602f913960400191505060405180910390fd5b6060600a60008481526020019081526020016000208054600181600116156101000203166002900480601f016020809104026020016040519081016040528092919081815260200182805460018160011615610100020316600290048015612cc05780601f10612c9557610100808354040283529160200191612cc0565b820191906000526020600020905b815481529060010190602001808311612ca357829003601f168201915b505050505090506000600b8054600181600116156101000203166002900490501415612cef5780915050612e9b565b600081511115612dc857600b816040516020018083805460018160011615610100020316600290048015612d5a5780601f10612d38576101008083540402835291820191612d5a565b820191906000526020600020905b815481529060010190602001808311612d46575b505082805190602001908083835b60208310612d8b5780518252602082019150602081019050602083039250612d68565b6001836020036101000a03801982511681845116808217855250505050505090500192505050604051602081830303815290604052915050612e9b565b600b612dd384614201565b6040516020018083805460018160011615610100020316600290048015612e315780601f10612e0f576101008083540402835291820191612e31565b820191906000526020600020905b815481529060010190602001808311612e1d575b505082805190602001908083835b60208310612e625780518252602082019150602081019050602083039250612e3f565b6001836020036101000a038019825116818451168082178552505050505050905001925050506040516020818303038152906040529150505b919050565b6000612ebf600080848152602001908152602001600020600001614348565b9050919050565b600160009054906101000a900460ff1615612f49576040517f08c379a00000000000000000000000000000000000000000000000000000000081526004018080602001828103825260108152602001807f5061757361626c653a207061757365640000000000000000000000000000000081525060200191505060405180910390fd5b612f7a7f82fc59a2af283c7e52e3f7cf8d269383062c6603a1ab4300e32135abe128a476612f75613b1e565b61250a565b612fcf576040517f08c379a000000000000000000000000000000000000000000000000000000000815260040180806020018281038252602c815260200180615a22602c913960400191505060405180910390fd5b6000612fdb600c614181565b90508686600e600084815260200190815260200160002060000191906130029291906154ac565b508484600e600084815260200190815260200160002060010191906130289291906154ac565b508282600e6000848152602001908152602001600020600201919061304e9291906154ac565b50613059600c61435d565b807f335347d3c0abbe88e13ee17ff9db9ff2aabea3e099f1ffd10807e9c7f9cf82ad8888888888886040518080602001806020018060200184810384528a8a82818152602001925080828437600081840152601f19601f8201169050808301925050508481038352888882818152602001925080828437600081840152601f19601f8201169050808301925050508481038252868682818152602001925080828437600081840152601f19601f820116905080830192505050995050505050505050505060405180910390a250505050505050565b600060018054906101000a900473ffffffffffffffffffffffffffffffffffffffff16905090565b600160009054906101000a900460ff16156131d9576040517f08c379a00000000000000000000000000000000000000000000000000000000081526004018080602001828103825260108152602001807f5061757361626c653a207061757365640000000000000000000000000000000081525060200191505060405180910390fd5b61320a7f82fc59a2af283c7e52e3f7cf8d269383062c6603a1ab4300e32135abe128a476613205613b1e565b61250a565b61325f576040517f08c379a000000000000000000000000000000000000000000000000000000000815260040180806020018281038252602c815260200180615a22602c913960400191505060405180910390fd5b8661326a600c614181565b116132c0576040517f08c379a000000000000000000000000000000000000000000000000000000000815260040180806020018281038252602681526020018061568c6026913960400191505060405180910390fd5b8585600e60008a815260200190815260200160002060000191906132e59291906154ac565b508383600e60008a8152602001908152602001600020600101919061330b9291906154ac565b508181600e60008a815260200190815260200160002060020191906133319291906154ac565b50867fcfea559888b71c63137ce2f6354ae40661672d1ea2d56b2db88cdd200ff42b738787878787876040518080602001806020018060200184810384528a8a82818152602001925080828437600081840152601f19601f8201169050808301925050508481038352888882818152602001925080828437600081840152601f19601f8201169050808301925050508481038252868682818152602001925080828437600081840152601f19601f820116905080830192505050995050505050505050505060405180910390a250505050505050565b6000600160009054906101000a900460ff161561348c576040517f08c379a00000000000000000000000000000000000000000000000000000000081526004018080602001828103825260108152602001807f5061757361626c653a207061757365640000000000000000000000000000000081525060200191505060405180910390fd5b83613497600c614181565b116134ed576040517f08c379a000000000000000000000000000000000000000000000000000000000815260040180806020018281038252602681526020018061568c6026913960400191505060405180910390fd5b7f000000000000000000000000000000000000000000000000000000000000000073ffffffffffffffffffffffffffffffffffffffff1663ebfa62b985613532613b1e565b6040518363ffffffff1660e01b8152600401808381526020018273ffffffffffffffffffffffffffffffffffffffff1681526020019250505060206040518083038186803b15801561358357600080fd5b505afa158015613597573d6000803e3d6000fd5b505050506040513d60208110156135ad57600080fd5b8101908080519060200190929190505050806136785750613677600d85815481106135d457fe5b90600052602060002001546135e7613b1e565b604051602001808273ffffffffffffffffffffffffffffffffffffffff1660601b815260140191505060405160208183030381529060405280519060200120888880806020026020016040519081016040528093929190818152602001838360200280828437600081840152601f19601f820116905080830192505050505050506143739092919063ffffffff16565b5b6136cd576040517f08c379a00000000000000000000000000000000000000000000000000000000081526004018080602001828103825260268152602001806156666026913960400191505060405180910390fd5b60006136e06136da613b1e565b86614428565b90506137096001600f60008881526020019081526020016000205461449190919063ffffffff16565b600f60008781526020019081526020016000208190555061373361372b613b1e565b828686614519565b6137a5576040517f08c379a000000000000000000000000000000000000000000000000000000000815260040180806020018281038252601e8152602001807f4261646765466163746f72793a206261646765206e6f74206d696e746564000081525060200191505060405180910390fd5b84817f6e8fac86d7d828d4ea299541ba444cfc69fdef8dfca04f107cca6066ab50954f868660405180806020018281038252848482818152602001925080828437600081840152601f19601f820116905080830192505050935050505060405180910390a3600191505095945050505050565b61383e60008084815260200190815260200160002060020154613839613b1e565b61250a565b613893576040517f08c379a00000000000000000000000000000000000000000000000000000000081526004018080602001828103825260308152602001806157fc6030913960400191505060405180910390fd5b61389d8282613e03565b5050565b7f65d7a28e3265b37a6474929f336521b332c1681b933f6cb9f3376673440d862a81565b60006138db6000801b6138d6613b1e565b61250a565b613930576040517f08c379a000000000000000000000000000000000000000000000000000000000815260040180806020018281038252602d8152602001806156e4602d913960400191505060405180910390fd5b600073ffffffffffffffffffffffffffffffffffffffff168273ffffffffffffffffffffffffffffffffffffffff1614156139b6576040517f08c379a00000000000000000000000000000000000000000000000000000000081526004018080602001828103825260298152602001806158b76029913960400191505060405180910390fd5b6139e07f82fc59a2af283c7e52e3f7cf8d269383062c6603a1ab4300e32135abe128a47683611aca565b60019050919050565b6000600760008473ffffffffffffffffffffffffffffffffffffffff1673ffffffffffffffffffffffffffffffffffffffff16815260200190815260200160002060008373ffffffffffffffffffffffffffffffffffffffff1673ffffffffffffffffffffffffffffffffffffffff16815260200190815260200160002060009054906101000a900460ff16905092915050565b600f6020528060005260406000206000915090505481565b60006018600036905010158015613ab15750613ab03361209c565b5b15613ac557601436033560601c9050613acd565b339050613ace565b5b90565b6000613af9836000018373ffffffffffffffffffffffffffffffffffffffff1660001b61457f565b905092915050565b6000613b178260046145ef90919063ffffffff16565b9050919050565b6000613b28613a95565b905090565b816006600083815260200190815260200160002060006101000a81548173ffffffffffffffffffffffffffffffffffffffff021916908373ffffffffffffffffffffffffffffffffffffffff160217905550808273ffffffffffffffffffffffffffffffffffffffff16613ba08361210b565b73ffffffffffffffffffffffffffffffffffffffff167f8c5be1e5ebec7d5bd14f71427d1e84f3dd0314c0f7b2291e5b200ac8c7c3b92560405160405180910390a45050565b6000613bf482600001614609565b9050919050565b6000613c0682613b01565b613c5b576040517f08c379a000000000000000000000000000000000000000000000000000000000815260040180806020018281038252602c8152602001806157d0602c913960400191505060405180910390fd5b6000613c668361210b565b90508073ffffffffffffffffffffffffffffffffffffffff168473ffffffffffffffffffffffffffffffffffffffff161480613cd557508373ffffffffffffffffffffffffffffffffffffffff16613cbd846117a7565b73ffffffffffffffffffffffffffffffffffffffff16145b80613ce65750613ce581856139e9565b5b91505092915050565b6000613d46576040517f08c379a00000000000000000000000000000000000000000000000000000000081526004018080602001828103825260258152602001806157616025913960400191505060405180910390fd5b613d5183838361461a565b505050565b613d7d81600080858152602001908152602001600020600001613ad190919063ffffffff16565b15613de557613d8a613b1e565b73ffffffffffffffffffffffffffffffffffffffff168173ffffffffffffffffffffffffffffffffffffffff16837f2f8788117e7eff1d82e926ec794901d17c78024a50270940304540a733656f0d60405160405180910390a45b5050565b6000613df8836000018361485d565b60001c905092915050565b613e2a816000808581526020019081526020016000206000016148e090919063ffffffff16565b15613e9257613e37613b1e565b73ffffffffffffffffffffffffffffffffffffffff168173ffffffffffffffffffffffffffffffffffffffff16837ff6391f5c32d9c69d2a47ea670b442974b53935d1edc7fd64eb21e047a839171b60405160405180910390a45b5050565b600160009054906101000a900460ff16613f18576040517f08c379a00000000000000000000000000000000000000000000000000000000081526004018080602001828103825260148152602001807f5061757361626c653a206e6f742070617573656400000000000000000000000081525060200191505060405180910390fd5b6000600160006101000a81548160ff0219169083151502179055507f5db9ee0a495bf2e6ff9c91a7834c1ba4fdd244a5e8aa4e537bd38aeae4b073aa613f5c613b1e565b604051808273ffffffffffffffffffffffffffffffffffffffff16815260200191505060405180910390a1565b6000807fffffffffffffffffffffffffffffffffffffffff000000000000000000000000831660601c91506bffffffffffffffffffffffff83169050915091565b600080600080613fdd8660000186614910565b915091508160001c8160001c9350935050509250929050565b80600b908051906020019061400c92919061552c565b5050565b6000614023846000018460001b846149a9565b60001c90509392505050565b600061403d82600001614a9f565b9050919050565b600160009054906101000a900460ff16156140c7576040517f08c379a00000000000000000000000000000000000000000000000000000000081526004018080602001828103825260108152602001807f5061757361626c653a207061757365640000000000000000000000000000000081525060200191505060405180910390fd5b60018060006101000a81548160ff0219169083151502179055507f62e78cea01bee320cd4e420270b5ea74000d11b0c9f74754ebdbfc544b05a25861410a613b1e565b604051808273ffffffffffffffffffffffffffffffffffffffff16815260200191505060405180910390a1565b6000614146836000018361485d565b60001c905092915050565b6000614179836000018373ffffffffffffffffffffffffffffffffffffffff1660001b614ab0565b905092915050565b600081600001549050919050565b61419a848484613cef565b6141a684848484614ad3565b6141fb576040517f08c379a00000000000000000000000000000000000000000000000000000000081526004018080602001828103825260328152602001806156b26032913960400191505060405180910390fd5b50505050565b60606000821415614249576040518060400160405280600181526020017f30000000000000000000000000000000000000000000000000000000000000008152509050614343565b600082905060005b60008214614273578080600101915050600a828161426b57fe5b049150614251565b60608167ffffffffffffffff8111801561428c57600080fd5b506040519080825280601f01601f1916602001820160405280156142bf5781602001600182028036833780820191505090505b50905060006001830390508593505b6000841461433b57600a84816142e057fe5b0660300160f81b828280600190039350815181106142fa57fe5b60200101907effffffffffffffffffffffffffffffffffffffffffffffffffffffffffffff1916908160001a905350600a848161433357fe5b0493506142ce565b819450505050505b919050565b600061435682600001614a9f565b9050919050565b6001816000016000828254019250508190555050565b60008082905060005b855181101561441a57600086828151811061439357fe5b602002602001015190508083116143da578281604051602001808381526020018281526020019250505060405160208183030381529060405280519060200120925061440c565b808360405160200180838152602001828152602001925050506040516020818303038152906040528051906020012092505b50808060010191505061437c565b508381149150509392505050565b600060608383604051602001808373ffffffffffffffffffffffffffffffffffffffff1660601b8152601401826bffffffffffffffffffffffff1660a01b8152600c01925050506040516020818303038152906040529050600060200181015191505092915050565b60008082840190508381101561450f576040517f08c379a000000000000000000000000000000000000000000000000000000000815260040180806020018281038252601b8152602001807f536166654d6174683a206164646974696f6e206f766572666c6f77000000000081525060200191505060405180910390fd5b8091505092915050565b60006145258585614cec565b6145738484848080601f016020809104026020016040519081016040528093929190818152602001838380828437600081840152601f19601f82011690508083019250505050505050614ee0565b60019050949350505050565b600061458b8383614ab0565b6145e45782600001829080600181540180825580915050600190039060005260206000200160009091909190915055826000018054905083600101600084815260200190815260200160002081905550600190506145e9565b600090505b92915050565b6000614601836000018360001b614f6a565b905092915050565b600081600001805490509050919050565b8273ffffffffffffffffffffffffffffffffffffffff1661463a8261210b565b73ffffffffffffffffffffffffffffffffffffffff16146146a6576040517f08c379a00000000000000000000000000000000000000000000000000000000081526004018080602001828103825260298152602001806159a96029913960400191505060405180910390fd5b600073ffffffffffffffffffffffffffffffffffffffff168273ffffffffffffffffffffffffffffffffffffffff16141561472c576040517f08c379a00000000000000000000000000000000000000000000000000000000081526004018080602001828103825260248152602001806157866024913960400191505060405180910390fd5b614737838383614f8d565b614742600082613b2d565b61479381600360008673ffffffffffffffffffffffffffffffffffffffff1673ffffffffffffffffffffffffffffffffffffffff168152602001908152602001600020614f9290919063ffffffff16565b506147e581600360008573ffffffffffffffffffffffffffffffffffffffff1673ffffffffffffffffffffffffffffffffffffffff168152602001908152602001600020614fac90919063ffffffff16565b506147fc81836004614fc69092919063ffffffff16565b50808273ffffffffffffffffffffffffffffffffffffffff168473ffffffffffffffffffffffffffffffffffffffff167fddf252ad1be2c89b69c2b068fc378daa952ba7f163c4a11628f55a4df523b3ef60405160405180910390a4505050565b6000818360000180549050116148be576040517f08c379a00000000000000000000000000000000000000000000000000000000081526004018080602001828103825260228152602001806155e76022913960400191505060405180910390fd5b8260000182815481106148cd57fe5b9060005260206000200154905092915050565b6000614908836000018373ffffffffffffffffffffffffffffffffffffffff1660001b614ffb565b905092915050565b60008082846000018054905011614972576040517f08c379a00000000000000000000000000000000000000000000000000000000081526004018080602001828103825260228152602001806158e06022913960400191505060405180910390fd5b600084600001848154811061498357fe5b906000526020600020906002020190508060000154816001015492509250509250929050565b60008084600101600085815260200190815260200160002054905060008114158390614a70576040517f08c379a00000000000000000000000000000000000000000000000000000000081526004018080602001828103825283818151815260200191508051906020019080838360005b83811015614a35578082015181840152602081019050614a1a565b50505050905090810190601f168015614a625780820380516001836020036101000a031916815260200191505b509250505060405180910390fd5b50846000016001820381548110614a8357fe5b9060005260206000209060020201600101549150509392505050565b600081600001805490509050919050565b600080836001016000848152602001908152602001600020541415905092915050565b6000614af48473ffffffffffffffffffffffffffffffffffffffff166150e3565b614b015760019050614ce4565b6060614c6b63150b7a0260e01b614b16613b1e565b888787604051602401808573ffffffffffffffffffffffffffffffffffffffff1681526020018473ffffffffffffffffffffffffffffffffffffffff16815260200183815260200180602001828103825283818151815260200191508051906020019080838360005b83811015614b9a578082015181840152602081019050614b7f565b50505050905090810190601f168015614bc75780820380516001836020036101000a031916815260200191505b5095505050505050604051602081830303815290604052907bffffffffffffffffffffffffffffffffffffffffffffffffffffffff19166020820180517bffffffffffffffffffffffffffffffffffffffffffffffffffffffff83818316178352505050506040518060600160405280603281526020016156b2603291398773ffffffffffffffffffffffffffffffffffffffff166150f69092919063ffffffff16565b90506000818060200190516020811015614c8457600080fd5b8101908080519060200190929190505050905063150b7a0260e01b7bffffffffffffffffffffffffffffffffffffffffffffffffffffffff1916817bffffffffffffffffffffffffffffffffffffffffffffffffffffffff191614925050505b949350505050565b600073ffffffffffffffffffffffffffffffffffffffff168273ffffffffffffffffffffffffffffffffffffffff161415614d8f576040517f08c379a00000000000000000000000000000000000000000000000000000000081526004018080602001828103825260208152602001807f4552433732313a206d696e7420746f20746865207a65726f206164647265737381525060200191505060405180910390fd5b614d9881613b01565b15614e0b576040517f08c379a000000000000000000000000000000000000000000000000000000000815260040180806020018281038252601c8152602001807f4552433732313a20746f6b656e20616c7265616479206d696e7465640000000081525060200191505060405180910390fd5b614e1760008383614f8d565b614e6881600360008573ffffffffffffffffffffffffffffffffffffffff1673ffffffffffffffffffffffffffffffffffffffff168152602001908152602001600020614fac90919063ffffffff16565b50614e7f81836004614fc69092919063ffffffff16565b50808273ffffffffffffffffffffffffffffffffffffffff16600073ffffffffffffffffffffffffffffffffffffffff167fddf252ad1be2c89b69c2b068fc378daa952ba7f163c4a11628f55a4df523b3ef60405160405180910390a45050565b614ee982613b01565b614f3e576040517f08c379a000000000000000000000000000000000000000000000000000000000815260040180806020018281038252602c81526020018061592e602c913960400191505060405180910390fd5b80600a60008481526020019081526020016000209080519060200190614f6592919061552c565b505050565b600080836001016000848152602001908152602001600020541415905092915050565b505050565b6000614fa4836000018360001b614ffb565b905092915050565b6000614fbe836000018360001b61457f565b905092915050565b6000614ff2846000018460001b8473ffffffffffffffffffffffffffffffffffffffff1660001b61510e565b90509392505050565b600080836001016000848152602001908152602001600020549050600081146150d7576000600182039050600060018660000180549050039050600086600001828154811061504657fe5b906000526020600020015490508087600001848154811061506357fe5b906000526020600020018190555060018301876001016000838152602001908152602001600020819055508660000180548061509b57fe5b600190038181906000526020600020016000905590558660010160008781526020019081526020016000206000905560019450505050506150dd565b60009150505b92915050565b600080823b905060008111915050919050565b606061510584846000856151ea565b90509392505050565b60008084600101600085815260200190815260200160002054905060008114156151b5578460000160405180604001604052808681526020018581525090806001815401808255809150506001900390600052602060002090600202016000909190919091506000820151816000015560208201518160010155505084600001805490508560010160008681526020019081526020016000208190555060019150506151e3565b828560000160018303815481106151c857fe5b90600052602060002090600202016001018190555060009150505b9392505050565b606082471015615245576040517f08c379a00000000000000000000000000000000000000000000000000000000081526004018080602001828103825260268152602001806157aa6026913960400191505060405180910390fd5b61524e856150e3565b6152c0576040517f08c379a000000000000000000000000000000000000000000000000000000000815260040180806020018281038252601d8152602001807f416464726573733a2063616c6c20746f206e6f6e2d636f6e747261637400000081525060200191505060405180910390fd5b600060608673ffffffffffffffffffffffffffffffffffffffff1685876040518082805190602001908083835b6020831061531057805182526020820191506020810190506020830392506152ed565b6001836020036101000a03801982511681845116808217855250505050505090500191505060006040518083038185875af1925050503d8060008114615372576040519150601f19603f3d011682016040523d82523d6000602084013e615377565b606091505b5091509150615387828286615393565b92505050949350505050565b606083156153a357829050615458565b6000835111156153b65782518084602001fd5b816040517f08c379a00000000000000000000000000000000000000000000000000000000081526004018080602001828103825283818151815260200191508051906020019080838360005b8381101561541d578082015181840152602081019050615402565b50505050905090810190601f16801561544a5780820380516001836020036101000a031916815260200191505b509250505060405180910390fd5b9392505050565b82805482825590600052602060002090810192821561549b579160200282015b8281111561549a57823582559160200191906001019061547f565b5b5090506154a891906155ac565b5090565b828054600181600116156101000203166002900490600052602060002090601f016020900481019282601f106154ed57803560ff191683800117855561551b565b8280016001018555821561551b579182015b8281111561551a5782358255916020019190600101906154ff565b5b50905061552891906155c9565b5090565b828054600181600116156101000203166002900490600052602060002090601f016020900481019282601f1061556d57805160ff191683800117855561559b565b8280016001018555821561559b579182015b8281111561559a57825182559160200191906001019061557f565b5b5090506155a891906155c9565b5090565b5b808211156155c55760008160009055506001016155ad565b5090565b5b808211156155e25760008160009055506001016155ca565b509056fe456e756d657261626c655365743a20696e646578206f7574206f6620626f756e6473416363657373436f6e74726f6c3a2073656e646572206d75737420626520616e2061646d696e20746f206772616e744261646765466163746f72793a206d75737420686176652070617573657220726f6c6520746f20756e70617573654261646765466163746f72793a2063616c6c6572206973206e6f7420612072656465656d65724261646765466163746f72793a206e6f2074656d706c617465207769746820746861742069644552433732313a207472616e7366657220746f206e6f6e20455243373231526563656976657220696d706c656d656e7465724261646765466163746f72793a2063616c6c6572206973206e6f74207468652064656661756c742061646d696e4d616b65724261646765733a2063616c6c6572206973206e6f7420616e2061646d696e4261646765466163746f72793a2066756e6374696f6e206e6f74206d61746368696e6720616e79206f746865724261646765466163746f72793a206261646765207472616e736665722064697361626c65644552433732313a207472616e7366657220746f20746865207a65726f2061646472657373416464726573733a20696e73756666696369656e742062616c616e636520666f722063616c6c4552433732313a206f70657261746f7220717565727920666f72206e6f6e6578697374656e7420746f6b656e416363657373436f6e74726f6c3a2073656e646572206d75737420626520616e2061646d696e20746f207265766f6b654552433732313a20617070726f76652063616c6c6572206973206e6f74206f776e6572206e6f7220617070726f76656420666f7220616c6c4552433732313a2062616c616e636520717565727920666f7220746865207a65726f20616464726573734552433732313a206f776e657220717565727920666f72206e6f6e6578697374656e7420746f6b656e4261646765466163746f72793a206163636f756e7420697320746865207a65726f2061646472657373456e756d657261626c654d61703a20696e646578206f7574206f6620626f756e64734552433732313a20617070726f76656420717565727920666f72206e6f6e6578697374656e7420746f6b656e4552433732314d657461646174613a2055524920736574206f66206e6f6e6578697374656e7420746f6b656e4261646765466163746f72793a206d75737420686176652070617573657220726f6c6520746f2070617573654261646765466163746f72793a206e6f20746f6b656e207769746820746861742069644552433732313a207472616e73666572206f6620746f6b656e2074686174206973206e6f74206f776e4552433732314d657461646174613a2055524920717565727920666f72206e6f6e6578697374656e7420746f6b656e4552433732313a20617070726f76616c20746f2063757272656e74206f776e65724261646765466163746f72793a2063616c6c6572206973206e6f7420612074656d706c617465206f776e65724552433732313a207472616e736665722063616c6c6572206973206e6f74206f776e6572206e6f7220617070726f7665644d616b65724261646765733a2063616c6c6572206973206e6f74207468652064656661756c742061646d696e416363657373436f6e74726f6c3a2063616e206f6e6c792072656e6f756e636520726f6c657320666f722073656c66a264697066735822122003a78a37f9893488832ec87418b67193e73ac024b9fc393c2302ca3c82b2f16564736f6c634300060c003368747470733a2f2f6261646765732e6d616b657264616f2e636f6d2f746f6b656e2f",
  "immutableReferences": {
    "31": [
      {
        "length": 32,
        "start": 13551
      }
    ]
  },
  "source": "/// SPDX-License-Identifier: AGPL-3.0-or-later\npragma solidity 0.6.12;\n\n/// @title Non-transferable Badges for Maker Ecosystem Activity, CDIP 18, 29\n/// @author Nazzareno Massari @naszam\n/// @notice BadgeFactory to manage Templates and activate Non-transferable MakerBadges by redeemers\n/// @dev See https://github.com/makerdao/community/issues/537\n/// @dev See https://github.com/makerdao/community/issues/721\n/// @dev All function calls are currently implemented without side effects through TDD approach\n/// @dev OpenZeppelin Library is used for secure contract development\n\n/*\n       \n  \n   \n   \n        \n*/\n\n\n\nimport \"./BadgeRoles.sol\";\nimport \"@openzeppelin/contracts/utils/Counters.sol\";\nimport \"@openzeppelin/contracts/token/ERC721/ERC721.sol\";\nimport \"@openzeppelin/contracts/cryptography/MerkleProof.sol\";\n\ninterface MakerBadgesLike {\n    function verify(uint256 templateId, address guy) external view returns (bool);\n}\n\ncontract BadgeFactory is BadgeRoles, ERC721 {\n\n    /// @dev Libraries\n    using SafeMath for uint256;\n    using Counters for Counters.Counter;\n    using MerkleProof for bytes32[];\n\n    MakerBadgesLike internal immutable maker;\n\n    Counters.Counter private _templateIdTracker;\n\n    bytes32[] private roots;\n\n    struct BadgeTemplate {\n        string name;\n        string description;\n        string image;\n    }\n\n    mapping(uint256 => BadgeTemplate) public templates;\n    mapping(uint256 => uint256) public templateQuantities;\n\n    /// @dev Events\n    event NewTemplate(uint256 indexed templateId, string name, string description, string image);\n    event TemplateUpdated(uint256 indexed templateId, string name, string description, string image);\n    event BadgeActivated(uint256 indexed tokenId, uint256 indexed templateId, string tokenURI);\n\n    constructor(address forwarder_, address maker_)\n        public\n        ERC721(\"MakerBadges\", \"MAKER\")\n        BadgeRoles(forwarder_)\n    {\n        _setBaseURI(\"https://badges.makerdao.com/token/\");\n        maker = MakerBadgesLike(maker_);\n    }\n\n    /// @notice Fallback function\n    /// @dev Added not payable to revert transactions not matching any other function which send value\n    fallback() external {\n        revert(\"BadgeFactory: function not matching any other\");\n    }\n\n    /// @notice Set the baseURI\n    /// @dev Update the baseURI specified in the constructor\n    /// @param baseURI New baseURI\n    function setBaseURI(string calldata baseURI) external {\n        require(hasRole(DEFAULT_ADMIN_ROLE, _msgSender()), \"MakerBadges: caller is not the default admin\");\n        _setBaseURI(baseURI);\n    }\n\n    /// @notice Set Merkle Tree Root Hashes array\n    /// @dev Called by admin to update roots for different address batches by templateId\n    /// @param _roots Root hashes of the Merkle Trees by templateId\n    function setRootHashes(bytes32[] calldata _roots) external whenNotPaused {\n        require(hasRole(ADMIN_ROLE, _msgSender()), \"MakerBadges: caller is not an admin\");\n        roots = _roots;\n    }\n\n    /// @dev Templates\n\n    /// @notice Create a new template\n    /// @dev Access restricted to only Templaters\n    /// @param name The name of the new template\n    /// @param description A description of the new template\n    /// @param image A filename of the new template\n    function createTemplate(string calldata name, string calldata description, string calldata image)\n        external\n        whenNotPaused\n    {\n        require(hasRole(TEMPLATER_ROLE, _msgSender()), \"BadgeFactory: caller is not a template owner\");\n\n        uint256 templateId = _templateIdTracker.current();\n\n        templates[templateId].name = name;\n        templates[templateId].description = description;\n        templates[templateId].image = image;\n\n        _templateIdTracker.increment();\n        emit NewTemplate(templateId, name, description, image);\n    }\n\n    /// @notice Update a template\n    /// @dev Access restricted to only Templaters\n    /// @param templateId Template Id\n    /// @param name The name of the template\n    /// @param description The description of the template\n    /// @param image The filename of the template\n    function updateTemplate(uint256 templateId, string calldata name, string calldata description, string calldata image)\n        external\n        whenNotPaused\n    {\n        require(hasRole(TEMPLATER_ROLE, _msgSender()), \"BadgeFactory: caller is not a template owner\");\n        require(_templateIdTracker.current() > templateId, \"BadgeFactory: no template with that id\");\n        templates[templateId].name = name;\n        templates[templateId].description = description;\n        templates[templateId].image = image;\n        emit TemplateUpdated(templateId, name, description, image);\n    }\n\n    /// @notice Getter function for templates count\n    /// @dev Return lenght of template array\n    /// @return count The current number of templates\n    function getTemplatesCount() external view whenNotPaused returns (uint256 count) {\n        return _templateIdTracker.current();\n    }\n\n    /// @dev Badges\n\n    /// @notice Activate Badge by redeemers\n    /// @dev Verify if the caller is a redeemer\n    /// @param proof Merkle Proof\n    /// @param templateId Template Id\n    /// @param tokenURI An <ipfs-hash>.json filename\n    /// @return True If the new Badge is Activated\n    function activateBadge(bytes32[] calldata proof, uint256 templateId, string calldata tokenURI)\n        external\n        whenNotPaused\n        returns (bool)\n    {\n        require(_templateIdTracker.current() > templateId, \"BadgeFactory: no template with that id\");\n        require(\n            maker.verify(templateId, _msgSender()) || proof.verify(roots[templateId], keccak256(abi.encodePacked(_msgSender()))),\n            \"BadgeFactory: caller is not a redeemer\"\n        );\n\n        uint256 _tokenId = _getTokenId(_msgSender(), templateId);\n\n        /// @dev Increase the quantities\n        templateQuantities[templateId] = templateQuantities[templateId].add(1);\n\n        require(_mintWithTokenURI(_msgSender(), _tokenId, tokenURI), \"BadgeFactory: badge not minted\");\n\n        emit BadgeActivated(_tokenId, templateId, tokenURI);\n        return true;\n    }\n\n    /// @notice Getter function for redeemer associated with the tokenId\n    /// @dev Check if the tokenId exists\n    /// @param tokenId Token Id of the Badge\n    /// @return redeemer Redeemer address associated with the tokenId\n    function getBadgeRedeemer(uint256 tokenId) external view whenNotPaused returns (address redeemer) {\n        require(_exists(tokenId), \"BadgeFactory: no token with that id\");\n        (redeemer,) = _unpackTokenId(tokenId);\n    }\n\n    /// @notice Getter function for templateId associated with the tokenId\n    /// @dev Check if the tokenId exists\n    /// @param tokenId Token Id of the Badge\n    /// @return templateId Template Id associated with the tokenId\n    function getBadgeTemplate(uint256 tokenId) external view whenNotPaused returns (uint256 templateId) {\n        require(_exists(tokenId), \"BadgeFactory: no token with that id\");\n        (,templateId) = _unpackTokenId(tokenId);\n    }\n\n    /// @notice ERC721 _transfer() Disabled\n    /// @dev _transfer() has been overriden\n    /// @dev reverts on transferFrom() and safeTransferFrom()\n    function _transfer(address from, address to, uint256 tokenId) internal override {\n        require(false, \"BadgeFactory: badge transfer disabled\");\n        super._transfer(from, to, tokenId);\n    }\n\n    /// @notice OpenGSN _msgSender()\n    /// @dev override _msgSender() in OZ Context.sol and BadgeRoles.sol\n    /// @return _msgSender() after relay call\n    function _msgSender() internal view override(Context, BadgeRoles) returns (address payable) {\n        return BaseRelayRecipient._msgSender();\n    }\n\n    /// @notice OpenGSN _msgData()\n    /// @dev override _msgData() in OZ Context.sol and BadgeRoles.sol\n    /// @return _msgData() after relay call\n    function _msgData() internal view override(Context, BadgeRoles) returns (bytes memory) {\n        return BaseRelayRecipient._msgData();\n    }\n\n    /// @notice Generate tokenId\n    /// @dev Augur twist by concatenate redeemer and templateId\n    /// @param redeemer Redeemer Address\n    /// @param templateId Template Id\n    /// @param _tokenId Token Id\n    function _getTokenId(address redeemer, uint256 templateId) private pure returns (uint256 _tokenId) {\n        bytes memory _tokenIdBytes = abi.encodePacked(redeemer, uint96(templateId));\n        assembly {\n            _tokenId := mload(add(_tokenIdBytes, add(0x20, 0)))\n        }\n    }\n\n    /// @notice Unpack tokenId\n    /// @param tokenId Token Id of the Badge\n    /// @return redeemer Redeemer Address\n    /// @return templateId Template Id\n    function _unpackTokenId(uint256 tokenId) private pure returns (address redeemer, uint256 templateId) {\n        assembly {\n            redeemer := shr(96,  and(tokenId, 0xFFFFFFFFFFFFFFFFFFFFFFFFFFFFFFFFFFFFFFFF000000000000000000000000))\n            templateId := and(tokenId, 0x0000000000000000000000000000000000000000FFFFFFFFFFFFFFFFFFFFFFFF)\n        }\n    }\n\n    /// @notice Mint new token with tokenURI\n    /// @dev Automatically concatenate baseURI with tokenURI via abi.encodePacked\n    /// @param to Owner of the new token\n    /// @param tokenId Token Id of the Baddge\n    /// @param tokenURI An <ipfs-hash>.json filename\n    /// @return True if the new token is minted\n    function _mintWithTokenURI(address to, uint256 tokenId, string calldata tokenURI) private returns (bool) {\n        _mint(to, tokenId);\n        _setTokenURI(tokenId, tokenURI);\n        return true;\n    }\n}\n",
  "sourcePath": "/home/sencha/maker-badges/contracts/BadgeFactory.sol",
  "compiler": {
    "name": "solc",
    "version": "0.6.12+commit.27d51765.Emscripten.clang"
  },
  "schemaVersion": "3.3.3",
  "updatedAt": "2021-02-05T16:43:33.311Z",
  "networkType": "ethereum",
  "devdoc": {
    "events": {
      "NewTemplate(uint256,string,string,string)": {
        "details": "Events"
      }
    },
    "kind": "dev",
    "methods": {
      "activateBadge(bytes32[],uint256,string)": {
        "details": "Verify if the caller is a redeemer",
        "params": {
          "proof": "Merkle Proof",
          "templateId": "Template Id",
          "tokenURI": "An <ipfs-hash>.json filename"
        },
        "returns": {
          "_0": "True If the new Badge is Activated"
        }
      },
      "addAdmin(address)": {
        "details": "Access restricted only to Default Admin",
        "params": {
          "account": "Address of the new Admin"
        },
        "returns": {
          "_0": "True if account is added as Admin"
        }
      },
      "addTemplater(address)": {
        "details": "Access restricted only to Default Admin",
        "params": {
          "account": "Address of the new Templater"
        },
        "returns": {
          "_0": "True if account is added as Templater"
        }
      },
      "approve(address,uint256)": {
        "details": "See {IERC721-approve}."
      },
      "balanceOf(address)": {
        "details": "See {IERC721-balanceOf}."
      },
      "baseURI()": {
        "details": "Returns the base URI set via {_setBaseURI}. This will be automatically added as a prefix in {tokenURI} to each token's URI, or to the token ID if no specific URI is set for that token ID."
      },
      "createTemplate(string,string,string)": {
        "details": "Access restricted to only Templaters",
        "params": {
          "description": "A description of the new template",
          "image": "A filename of the new template",
          "name": "The name of the new template"
        }
      },
      "getApproved(uint256)": {
        "details": "See {IERC721-getApproved}."
      },
      "getBadgeRedeemer(uint256)": {
        "details": "Check if the tokenId exists",
        "params": {
          "tokenId": "Token Id of the Badge"
        },
        "returns": {
          "redeemer": "Redeemer address associated with the tokenId"
        }
      },
      "getBadgeTemplate(uint256)": {
        "details": "Check if the tokenId exists",
        "params": {
          "tokenId": "Token Id of the Badge"
        },
        "returns": {
          "templateId": "Template Id associated with the tokenId"
        }
      },
      "getRoleAdmin(bytes32)": {
        "details": "Returns the admin role that controls `role`. See {grantRole} and {revokeRole}. To change a role's admin, use {_setRoleAdmin}."
      },
      "getRoleMember(bytes32,uint256)": {
        "details": "Returns one of the accounts that have `role`. `index` must be a value between 0 and {getRoleMemberCount}, non-inclusive. Role bearers are not sorted in any particular way, and their ordering may change at any point. WARNING: When using {getRoleMember} and {getRoleMemberCount}, make sure you perform all queries on the same block. See the following https://forum.openzeppelin.com/t/iterating-over-elements-on-enumerableset-in-openzeppelin-contracts/2296[forum post] for more information."
      },
      "getRoleMemberCount(bytes32)": {
        "details": "Returns the number of accounts that have `role`. Can be used together with {getRoleMember} to enumerate all bearers of a role."
      },
      "getTemplatesCount()": {
        "details": "Return lenght of template array",
        "returns": {
          "count": "The current number of templates"
        }
      },
      "grantRole(bytes32,address)": {
        "details": "Grants `role` to `account`. If `account` had not been already granted `role`, emits a {RoleGranted} event. Requirements: - the caller must have ``role``'s admin role."
      },
      "hasRole(bytes32,address)": {
        "details": "Returns `true` if `account` has been granted `role`."
      },
      "isApprovedForAll(address,address)": {
        "details": "See {IERC721-isApprovedForAll}."
      },
      "name()": {
        "details": "See {IERC721Metadata-name}."
      },
      "ownerOf(uint256)": {
        "details": "See {IERC721-ownerOf}."
      },
      "pause()": {
        "details": "the caller must have the 'PAUSER_ROLE'"
      },
      "paused()": {
        "details": "Returns true if the contract is paused, and false otherwise."
      },
      "removeAdmin(address)": {
        "details": "Access restricted only to Default Admin",
        "params": {
          "account": "Address of the Admin"
        },
        "returns": {
          "_0": "True if account is removed as Admin"
        }
      },
      "removeTemplater(address)": {
        "details": "Access restricted only to Default Admin",
        "params": {
          "account": "Address of the Templater"
        },
        "returns": {
          "_0": "True if account is removed as Templater"
        }
      },
      "renounceRole(bytes32,address)": {
        "details": "Revokes `role` from the calling account. Roles are often managed via {grantRole} and {revokeRole}: this function's purpose is to provide a mechanism for accounts to lose their privileges if they are compromised (such as when a trusted device is misplaced). If the calling account had been granted `role`, emits a {RoleRevoked} event. Requirements: - the caller must be `account`."
      },
      "revokeRole(bytes32,address)": {
        "details": "Revokes `role` from `account`. If `account` had been granted `role`, emits a {RoleRevoked} event. Requirements: - the caller must have ``role``'s admin role."
      },
      "safeTransferFrom(address,address,uint256)": {
        "details": "See {IERC721-safeTransferFrom}."
      },
      "safeTransferFrom(address,address,uint256,bytes)": {
        "details": "See {IERC721-safeTransferFrom}."
      },
      "setApprovalForAll(address,bool)": {
        "details": "See {IERC721-setApprovalForAll}."
      },
      "setBaseURI(string)": {
        "details": "Update the baseURI specified in the constructor",
        "params": {
          "baseURI": "New baseURI"
        }
      },
      "setRootHashes(bytes32[])": {
        "details": "Called by admin to update roots for different address batches by templateId",
        "params": {
          "_roots": "Root hashes of the Merkle Trees by templateId"
        }
      },
      "supportsInterface(bytes4)": {
        "details": "See {IERC165-supportsInterface}. Time complexity O(1), guaranteed to always use less than 30 000 gas."
      },
      "symbol()": {
        "details": "See {IERC721Metadata-symbol}."
      },
      "tokenByIndex(uint256)": {
        "details": "See {IERC721Enumerable-tokenByIndex}."
      },
      "tokenOfOwnerByIndex(address,uint256)": {
        "details": "See {IERC721Enumerable-tokenOfOwnerByIndex}."
      },
      "tokenURI(uint256)": {
        "details": "See {IERC721Metadata-tokenURI}."
      },
      "totalSupply()": {
        "details": "See {IERC721Enumerable-totalSupply}."
      },
      "transferFrom(address,address,uint256)": {
        "details": "See {IERC721-transferFrom}."
      },
      "unpause()": {
        "details": "the caller must have the 'PAUSER_ROLE'"
      },
      "updateTemplate(uint256,string,string,string)": {
        "details": "Access restricted to only Templaters",
        "params": {
          "description": "The description of the template",
          "image": "The filename of the template",
          "name": "The name of the template",
          "templateId": "Template Id"
        }
      }
    },
    "version": 1
  },
  "userdoc": {
    "kind": "user",
    "methods": {
      "activateBadge(bytes32[],uint256,string)": {
        "notice": "Activate Badge by redeemers"
      },
      "addAdmin(address)": {
        "notice": "Add a new Admin"
      },
      "addTemplater(address)": {
        "notice": "Add a new Templater"
      },
      "createTemplate(string,string,string)": {
        "notice": "Create a new template"
      },
      "getBadgeRedeemer(uint256)": {
        "notice": "Getter function for redeemer associated with the tokenId"
      },
      "getBadgeTemplate(uint256)": {
        "notice": "Getter function for templateId associated with the tokenId"
      },
      "getTemplatesCount()": {
        "notice": "Getter function for templates count"
      },
      "isTrustedForwarder(address)": {
        "notice": "return if the forwarder is trusted to forward relayed transactions to us. the forwarder is required to verify the sender's signature, and verify the call is not a replay."
      },
      "pause()": {
        "notice": "Pause all the functions"
      },
      "removeAdmin(address)": {
        "notice": "Remove an Admin"
      },
      "removeTemplater(address)": {
        "notice": "Remove a Templater"
      },
      "setBaseURI(string)": {
        "notice": "Set the baseURI"
      },
      "setRootHashes(bytes32[])": {
        "notice": "Set Merkle Tree Root Hashes array"
      },
      "unpause()": {
        "notice": "Unpause all the functions"
      },
      "updateTemplate(uint256,string,string,string)": {
        "notice": "Update a template"
      }
    },
    "version": 1
  }
}