{
  "contractName": "BadgeRoles",
  "abi": [
    {
      "inputs": [],
      "stateMutability": "nonpayable",
      "type": "constructor"
    },
    {
      "anonymous": false,
      "inputs": [
        {
          "indexed": true,
          "internalType": "address",
          "name": "previousOwner",
          "type": "address"
        },
        {
          "indexed": true,
          "internalType": "address",
          "name": "newOwner",
          "type": "address"
        }
      ],
      "name": "OwnershipTransferred",
      "type": "event"
    },
    {
      "anonymous": false,
      "inputs": [
        {
          "indexed": false,
          "internalType": "address",
          "name": "account",
          "type": "address"
        }
      ],
      "name": "Paused",
      "type": "event"
    },
    {
      "anonymous": false,
      "inputs": [
        {
          "indexed": true,
          "internalType": "bytes32",
          "name": "role",
          "type": "bytes32"
        },
        {
          "indexed": true,
          "internalType": "bytes32",
          "name": "previousAdminRole",
          "type": "bytes32"
        },
        {
          "indexed": true,
          "internalType": "bytes32",
          "name": "newAdminRole",
          "type": "bytes32"
        }
      ],
      "name": "RoleAdminChanged",
      "type": "event"
    },
    {
      "anonymous": false,
      "inputs": [
        {
          "indexed": true,
          "internalType": "bytes32",
          "name": "role",
          "type": "bytes32"
        },
        {
          "indexed": true,
          "internalType": "address",
          "name": "account",
          "type": "address"
        },
        {
          "indexed": true,
          "internalType": "address",
          "name": "sender",
          "type": "address"
        }
      ],
      "name": "RoleGranted",
      "type": "event"
    },
    {
      "anonymous": false,
      "inputs": [
        {
          "indexed": true,
          "internalType": "bytes32",
          "name": "role",
          "type": "bytes32"
        },
        {
          "indexed": true,
          "internalType": "address",
          "name": "account",
          "type": "address"
        },
        {
          "indexed": true,
          "internalType": "address",
          "name": "sender",
          "type": "address"
        }
      ],
      "name": "RoleRevoked",
      "type": "event"
    },
    {
      "anonymous": false,
      "inputs": [
        {
          "indexed": false,
          "internalType": "address",
          "name": "account",
          "type": "address"
        }
      ],
      "name": "Unpaused",
      "type": "event"
    },
    {
      "inputs": [],
      "name": "DEFAULT_ADMIN_ROLE",
      "outputs": [
        {
          "internalType": "bytes32",
          "name": "",
          "type": "bytes32"
        }
      ],
      "stateMutability": "view",
      "type": "function"
    },
    {
      "inputs": [],
      "name": "PAUSER_ROLE",
      "outputs": [
        {
          "internalType": "bytes32",
          "name": "",
          "type": "bytes32"
        }
      ],
      "stateMutability": "view",
      "type": "function"
    },
    {
      "inputs": [],
      "name": "TEMPLATER_ROLE",
      "outputs": [
        {
          "internalType": "bytes32",
          "name": "",
          "type": "bytes32"
        }
      ],
      "stateMutability": "view",
      "type": "function"
    },
    {
      "inputs": [
        {
          "internalType": "bytes32",
          "name": "role",
          "type": "bytes32"
        }
      ],
      "name": "getRoleAdmin",
      "outputs": [
        {
          "internalType": "bytes32",
          "name": "",
          "type": "bytes32"
        }
      ],
      "stateMutability": "view",
      "type": "function"
    },
    {
      "inputs": [
        {
          "internalType": "bytes32",
          "name": "role",
          "type": "bytes32"
        },
        {
          "internalType": "uint256",
          "name": "index",
          "type": "uint256"
        }
      ],
      "name": "getRoleMember",
      "outputs": [
        {
          "internalType": "address",
          "name": "",
          "type": "address"
        }
      ],
      "stateMutability": "view",
      "type": "function"
    },
    {
      "inputs": [
        {
          "internalType": "bytes32",
          "name": "role",
          "type": "bytes32"
        }
      ],
      "name": "getRoleMemberCount",
      "outputs": [
        {
          "internalType": "uint256",
          "name": "",
          "type": "uint256"
        }
      ],
      "stateMutability": "view",
      "type": "function"
    },
    {
      "inputs": [
        {
          "internalType": "bytes32",
          "name": "role",
          "type": "bytes32"
        },
        {
          "internalType": "address",
          "name": "account",
          "type": "address"
        }
      ],
      "name": "grantRole",
      "outputs": [],
      "stateMutability": "nonpayable",
      "type": "function"
    },
    {
      "inputs": [
        {
          "internalType": "bytes32",
          "name": "role",
          "type": "bytes32"
        },
        {
          "internalType": "address",
          "name": "account",
          "type": "address"
        }
      ],
      "name": "hasRole",
      "outputs": [
        {
          "internalType": "bool",
          "name": "",
          "type": "bool"
        }
      ],
      "stateMutability": "view",
      "type": "function"
    },
    {
      "inputs": [],
      "name": "owner",
      "outputs": [
        {
          "internalType": "address",
          "name": "",
          "type": "address"
        }
      ],
      "stateMutability": "view",
      "type": "function"
    },
    {
      "inputs": [],
      "name": "paused",
      "outputs": [
        {
          "internalType": "bool",
          "name": "",
          "type": "bool"
        }
      ],
      "stateMutability": "view",
      "type": "function"
    },
    {
      "inputs": [],
      "name": "renounceOwnership",
      "outputs": [],
      "stateMutability": "nonpayable",
      "type": "function"
    },
    {
      "inputs": [
        {
          "internalType": "bytes32",
          "name": "role",
          "type": "bytes32"
        },
        {
          "internalType": "address",
          "name": "account",
          "type": "address"
        }
      ],
      "name": "renounceRole",
      "outputs": [],
      "stateMutability": "nonpayable",
      "type": "function"
    },
    {
      "inputs": [
        {
          "internalType": "bytes32",
          "name": "role",
          "type": "bytes32"
        },
        {
          "internalType": "address",
          "name": "account",
          "type": "address"
        }
      ],
      "name": "revokeRole",
      "outputs": [],
      "stateMutability": "nonpayable",
      "type": "function"
    },
    {
      "inputs": [
        {
          "internalType": "address",
          "name": "newOwner",
          "type": "address"
        }
      ],
      "name": "transferOwnership",
      "outputs": [],
      "stateMutability": "nonpayable",
      "type": "function"
    },
    {
      "inputs": [
        {
          "internalType": "address",
          "name": "guy",
          "type": "address"
        }
      ],
      "name": "addTemplater",
      "outputs": [
        {
          "internalType": "bool",
          "name": "",
          "type": "bool"
        }
      ],
      "stateMutability": "nonpayable",
      "type": "function"
    },
    {
      "inputs": [
        {
          "internalType": "address",
          "name": "guy",
          "type": "address"
        }
      ],
      "name": "removeTemplater",
      "outputs": [
        {
          "internalType": "bool",
          "name": "",
          "type": "bool"
        }
      ],
      "stateMutability": "nonpayable",
      "type": "function"
    },
    {
      "inputs": [],
      "name": "pause",
      "outputs": [],
      "stateMutability": "nonpayable",
      "type": "function"
    },
    {
      "inputs": [],
      "name": "unpause",
      "outputs": [],
      "stateMutability": "nonpayable",
      "type": "function"
    }
  ],
  "bytecode": "0x60806040523480156200001157600080fd5b50600062000024620001b360201b60201c565b9050806000806101000a81548173ffffffffffffffffffffffffffffffffffffffff021916908373ffffffffffffffffffffffffffffffffffffffff1602179055508073ffffffffffffffffffffffffffffffffffffffff16600073ffffffffffffffffffffffffffffffffffffffff167f8be0079c531659141344cd1fd0a4f28419497f9722a3daafe3b4186f6b6457e060405160405180910390a3506000600260006101000a81548160ff021916908315150217905550620001016000801b620000f5620001bb60201b60201c565b620001e460201b60201c565b6200015760405180807f54454d504c415445525f524f4c45000000000000000000000000000000000000815250600e01905060405180910390206200014b620001bb60201b60201c565b620001e460201b60201c565b620001ad60405180807f5041555345525f524f4c45000000000000000000000000000000000000000000815250600b0190506040518091039020620001a1620001bb60201b60201c565b620001e460201b60201c565b62000373565b600033905090565b60008060009054906101000a900473ffffffffffffffffffffffffffffffffffffffff16905090565b620001f68282620001fa60201b60201c565b5050565b6200022981600160008581526020019081526020016000206000016200029e60201b6200101e1790919060201c565b156200029a576200023f620001b360201b60201c565b73ffffffffffffffffffffffffffffffffffffffff168173ffffffffffffffffffffffffffffffffffffffff16837f2f8788117e7eff1d82e926ec794901d17c78024a50270940304540a733656f0d60405160405180910390a45b5050565b6000620002ce836000018373ffffffffffffffffffffffffffffffffffffffff1660001b620002d660201b60201c565b905092915050565b6000620002ea83836200035060201b60201c565b620003455782600001829080600181540180825580915050600190039060005260206000200160009091909190915055826000018054905083600101600084815260200190815260200160002081905550600190506200034a565b600090505b92915050565b600080836001016000848152602001908152602001600020541415905092915050565b61179580620003836000396000f3fe608060405234801561001057600080fd5b50600436106101165760003560e01c80638da5cb5b116100a2578063ca15c87311610071578063ca15c873146103f9578063d547741f1461043b578063e63ab1e914610489578063e6c0d714146104a7578063f2fde38b1461050357610116565b80638da5cb5b146102b35780639010d07c146102fd57806391d1485414610375578063a217fddf146103db57610116565b80634ba360ba116100e95780634ba360ba146102035780635c975abb1461025f5780636cdd0a1614610281578063715018a61461029f5780638456cb59146102a957610116565b8063248a9ca31461011b5780632f2ff15d1461015d57806336568abe146101ab5780633f4ba83a146101f9575b600080fd5b6101476004803603602081101561013157600080fd5b8101908080359060200190929190505050610547565b6040518082815260200191505060405180910390f35b6101a96004803603604081101561017357600080fd5b8101908080359060200190929190803573ffffffffffffffffffffffffffffffffffffffff169060200190929190505050610567565b005b6101f7600480360360408110156101c157600080fd5b8101908080359060200190929190803573ffffffffffffffffffffffffffffffffffffffff1690602001909291905050506105f1565b005b61020161068a565b005b6102456004803603602081101561021957600080fd5b81019080803573ffffffffffffffffffffffffffffffffffffffff169060200190929190505050610728565b604051808215151515815260200191505060405180910390f35b6102676108a2565b604051808215151515815260200191505060405180910390f35b6102896108b9565b6040518082815260200191505060405180910390f35b6102a76108f2565b005b6102b1610a7a565b005b6102bb610b18565b604051808273ffffffffffffffffffffffffffffffffffffffff1673ffffffffffffffffffffffffffffffffffffffff16815260200191505060405180910390f35b6103336004803603604081101561031357600080fd5b810190808035906020019092919080359060200190929190505050610b41565b604051808273ffffffffffffffffffffffffffffffffffffffff1673ffffffffffffffffffffffffffffffffffffffff16815260200191505060405180910390f35b6103c16004803603604081101561038b57600080fd5b8101908080359060200190929190803573ffffffffffffffffffffffffffffffffffffffff169060200190929190505050610b73565b604051808215151515815260200191505060405180910390f35b6103e3610ba5565b6040518082815260200191505060405180910390f35b6104256004803603602081101561040f57600080fd5b8101908080359060200190929190505050610bac565b6040518082815260200191505060405180910390f35b6104876004803603604081101561045157600080fd5b8101908080359060200190929190803573ffffffffffffffffffffffffffffffffffffffff169060200190929190505050610bd3565b005b610491610c5d565b6040518082815260200191505060405180910390f35b6104e9600480360360208110156104bd57600080fd5b81019080803573ffffffffffffffffffffffffffffffffffffffff169060200190929190505050610c96565b604051808215151515815260200191505060405180910390f35b6105456004803603602081101561051957600080fd5b81019080803573ffffffffffffffffffffffffffffffffffffffff169060200190929190505050610e11565b005b600060016000838152602001908152602001600020600201549050919050565b61058e600160008481526020019081526020016000206002015461058961104e565b610b73565b6105e3576040517f08c379a000000000000000000000000000000000000000000000000000000000815260040180806020018281038252602f815260200180611652602f913960400191505060405180910390fd5b6105ed8282611056565b5050565b6105f961104e565b73ffffffffffffffffffffffffffffffffffffffff168173ffffffffffffffffffffffffffffffffffffffff161461067c576040517f08c379a000000000000000000000000000000000000000000000000000000000815260040180806020018281038252602f815260200180611731602f913960400191505060405180910390fd5b61068682826110ea565b5050565b6106c960405180807f5041555345525f524f4c45000000000000000000000000000000000000000000815250600b019050604051809103902033610b73565b61071e576040517f08c379a000000000000000000000000000000000000000000000000000000000815260040180806020018281038252602e815260200180611681602e913960400191505060405180910390fd5b61072661117e565b565b60006107376000801b33610b73565b6107a9576040517f08c379a00000000000000000000000000000000000000000000000000000000081526004018080602001828103825260168152602001807f43616c6c6572206973206e6f7420616e2061646d696e0000000000000000000081525060200191505060405180910390fd5b6107e860405180807f54454d504c415445525f524f4c45000000000000000000000000000000000000815250600e019050604051809103902083610b73565b61085a576040517f08c379a00000000000000000000000000000000000000000000000000000000081526004018080602001828103825260168152602001807f677579206973206e6f7420612074656d706c617465720000000000000000000081525060200191505060405180910390fd5b61089960405180807f54454d504c415445525f524f4c45000000000000000000000000000000000000815250600e019050604051809103902083610bd3565b60019050919050565b6000600260009054906101000a900460ff16905090565b60405180807f54454d504c415445525f524f4c45000000000000000000000000000000000000815250600e019050604051809103902081565b6108fa61104e565b73ffffffffffffffffffffffffffffffffffffffff166000809054906101000a900473ffffffffffffffffffffffffffffffffffffffff1673ffffffffffffffffffffffffffffffffffffffff16146109bb576040517f08c379a00000000000000000000000000000000000000000000000000000000081526004018080602001828103825260208152602001807f4f776e61626c653a2063616c6c6572206973206e6f7420746865206f776e657281525060200191505060405180910390fd5b600073ffffffffffffffffffffffffffffffffffffffff166000809054906101000a900473ffffffffffffffffffffffffffffffffffffffff1673ffffffffffffffffffffffffffffffffffffffff167f8be0079c531659141344cd1fd0a4f28419497f9722a3daafe3b4186f6b6457e060405160405180910390a360008060006101000a81548173ffffffffffffffffffffffffffffffffffffffff021916908373ffffffffffffffffffffffffffffffffffffffff160217905550565b610ab960405180807f5041555345525f524f4c45000000000000000000000000000000000000000000815250600b019050604051809103902033610b73565b610b0e576040517f08c379a000000000000000000000000000000000000000000000000000000000815260040180806020018281038252602c815260200180611705602c913960400191505060405180910390fd5b610b16611287565b565b60008060009054906101000a900473ffffffffffffffffffffffffffffffffffffffff16905090565b6000610b6b826001600086815260200190815260200160002060000161139190919063ffffffff16565b905092915050565b6000610b9d82600160008681526020019081526020016000206000016113ab90919063ffffffff16565b905092915050565b6000801b81565b6000610bcc600160008481526020019081526020016000206000016113db565b9050919050565b610bfa6001600084815260200190815260200160002060020154610bf561104e565b610b73565b610c4f576040517f08c379a00000000000000000000000000000000000000000000000000000000081526004018080602001828103825260308152602001806116d56030913960400191505060405180910390fd5b610c5982826110ea565b5050565b60405180807f5041555345525f524f4c45000000000000000000000000000000000000000000815250600b019050604051809103902081565b6000610ca56000801b33610b73565b610d17576040517f08c379a00000000000000000000000000000000000000000000000000000000081526004018080602001828103825260168152602001807f43616c6c6572206973206e6f7420616e2061646d696e0000000000000000000081525060200191505060405180910390fd5b610d5660405180807f54454d504c415445525f524f4c45000000000000000000000000000000000000815250600e019050604051809103902083610b73565b15610dc9576040517f08c379a000000000000000000000000000000000000000000000000000000000815260040180806020018281038252601a8152602001807f67757920697320616c726561647920612074656d706c6174657200000000000081525060200191505060405180910390fd5b610e0860405180807f54454d504c415445525f524f4c45000000000000000000000000000000000000815250600e019050604051809103902083610567565b60019050919050565b610e1961104e565b73ffffffffffffffffffffffffffffffffffffffff166000809054906101000a900473ffffffffffffffffffffffffffffffffffffffff1673ffffffffffffffffffffffffffffffffffffffff1614610eda576040517f08c379a00000000000000000000000000000000000000000000000000000000081526004018080602001828103825260208152602001807f4f776e61626c653a2063616c6c6572206973206e6f7420746865206f776e657281525060200191505060405180910390fd5b600073ffffffffffffffffffffffffffffffffffffffff168173ffffffffffffffffffffffffffffffffffffffff161415610f60576040517f08c379a00000000000000000000000000000000000000000000000000000000081526004018080602001828103825260268152602001806116af6026913960400191505060405180910390fd5b8073ffffffffffffffffffffffffffffffffffffffff166000809054906101000a900473ffffffffffffffffffffffffffffffffffffffff1673ffffffffffffffffffffffffffffffffffffffff167f8be0079c531659141344cd1fd0a4f28419497f9722a3daafe3b4186f6b6457e060405160405180910390a3806000806101000a81548173ffffffffffffffffffffffffffffffffffffffff021916908373ffffffffffffffffffffffffffffffffffffffff16021790555050565b6000611046836000018373ffffffffffffffffffffffffffffffffffffffff1660001b6113f0565b905092915050565b600033905090565b61107e816001600085815260200190815260200160002060000161101e90919063ffffffff16565b156110e65761108b61104e565b73ffffffffffffffffffffffffffffffffffffffff168173ffffffffffffffffffffffffffffffffffffffff16837f2f8788117e7eff1d82e926ec794901d17c78024a50270940304540a733656f0d60405160405180910390a45b5050565b611112816001600085815260200190815260200160002060000161146090919063ffffffff16565b1561117a5761111f61104e565b73ffffffffffffffffffffffffffffffffffffffff168173ffffffffffffffffffffffffffffffffffffffff16837ff6391f5c32d9c69d2a47ea670b442974b53935d1edc7fd64eb21e047a839171b60405160405180910390a45b5050565b600260009054906101000a900460ff16611200576040517f08c379a00000000000000000000000000000000000000000000000000000000081526004018080602001828103825260148152602001807f5061757361626c653a206e6f742070617573656400000000000000000000000081525060200191505060405180910390fd5b6000600260006101000a81548160ff0219169083151502179055507f5db9ee0a495bf2e6ff9c91a7834c1ba4fdd244a5e8aa4e537bd38aeae4b073aa61124461104e565b604051808273ffffffffffffffffffffffffffffffffffffffff1673ffffffffffffffffffffffffffffffffffffffff16815260200191505060405180910390a1565b600260009054906101000a900460ff161561130a576040517f08c379a00000000000000000000000000000000000000000000000000000000081526004018080602001828103825260108152602001807f5061757361626c653a207061757365640000000000000000000000000000000081525060200191505060405180910390fd5b6001600260006101000a81548160ff0219169083151502179055507f62e78cea01bee320cd4e420270b5ea74000d11b0c9f74754ebdbfc544b05a25861134e61104e565b604051808273ffffffffffffffffffffffffffffffffffffffff1673ffffffffffffffffffffffffffffffffffffffff16815260200191505060405180910390a1565b60006113a08360000183611490565b60001c905092915050565b60006113d3836000018373ffffffffffffffffffffffffffffffffffffffff1660001b611513565b905092915050565b60006113e982600001611536565b9050919050565b60006113fc8383611513565b61145557826000018290806001815401808255809150506001900390600052602060002001600090919091909150558260000180549050836001016000848152602001908152602001600020819055506001905061145a565b600090505b92915050565b6000611488836000018373ffffffffffffffffffffffffffffffffffffffff1660001b611547565b905092915050565b6000818360000180549050116114f1576040517f08c379a00000000000000000000000000000000000000000000000000000000081526004018080602001828103825260228152602001806116306022913960400191505060405180910390fd5b82600001828154811061150057fe5b9060005260206000200154905092915050565b600080836001016000848152602001908152602001600020541415905092915050565b600081600001805490509050919050565b60008083600101600084815260200190815260200160002054905060008114611623576000600182039050600060018660000180549050039050600086600001828154811061159257fe5b90600052602060002001549050808760000184815481106115af57fe5b90600052602060002001819055506001830187600101600083815260200190815260200160002081905550866000018054806115e757fe5b60019003818190600052602060002001600090559055866001016000878152602001908152602001600020600090556001945050505050611629565b60009150505b9291505056fe456e756d657261626c655365743a20696e646578206f7574206f6620626f756e6473416363657373436f6e74726f6c3a2073656e646572206d75737420626520616e2061646d696e20746f206772616e744261646765466163746f72793a206d75737420686176652070617573657220726f6c6520746f20756e70617573654f776e61626c653a206e6577206f776e657220697320746865207a65726f2061646472657373416363657373436f6e74726f6c3a2073656e646572206d75737420626520616e2061646d696e20746f207265766f6b654261646765466163746f72793a206d75737420686176652070617573657220726f6c6520746f207061757365416363657373436f6e74726f6c3a2063616e206f6e6c792072656e6f756e636520726f6c657320666f722073656c66a26469706673582212208712bdf23e95a3ec3c47364a5392d37268b340113749e756aad960b48ef3cbc164736f6c634300060b0033",
  "immutableReferences": {},
  "source": "/// SPDX-License-Identifier: GPL-3.0\npragma solidity 0.6.11;\n\n/// @title Non-transferable Badges for Maker Ecosystem Activity, CDIP 18\n/// @author Nazzareno Massari @naszam\n/// @notice BadgeRoles Access Management for Default Admin, Templater and Pauser Role\n/// @dev See https://github.com/makerdao/community/issues/537\n/// @dev All function calls are currently implemented without side effects through TDD approach\n/// @dev OpenZeppelin v3.0 library is used for secure contract development\n\nimport \"@openzeppelin/contracts/access/Ownable.sol\";\nimport \"@openzeppelin/contracts/access/AccessControl.sol\";\nimport \"@openzeppelin/contracts/utils/Pausable.sol\";\n\n\ncontract BadgeRoles is Ownable, AccessControl, Pausable {\n\n  /// @dev Roles\n  bytes32 public constant TEMPLATER_ROLE = keccak256(\"TEMPLATER_ROLE\");\n  bytes32 public constant PAUSER_ROLE = keccak256(\"PAUSER_ROLE\");\n\n  constructor() public {\n        _setupRole(DEFAULT_ADMIN_ROLE, owner());\n\n        _setupRole(TEMPLATER_ROLE, owner());\n        _setupRole(PAUSER_ROLE, owner());\n\n  }\n\n  /// @dev Modifiers\n  modifier onlyAdmin() {\n      require(hasRole(DEFAULT_ADMIN_ROLE, msg.sender), \"Caller is not an admin\");\n      _;\n    }\n\n  modifier onlyTemplater() {\n      require(hasRole(TEMPLATER_ROLE, msg.sender), \"Caller is not a template owner\");\n      _;\n    }\n\n  /// @dev Functions\n\n  /// @notice Add a new Templater\n  /// @dev Access restricted only for Admins\n  /// @param guy Address of the new Templater\n  /// @return True if the guy address is added as Templater\n  function addTemplater(address guy) external onlyAdmin returns (bool) {\n    require(!hasRole(TEMPLATER_ROLE, guy), \"guy is already a templater\");\n    grantRole(TEMPLATER_ROLE, guy);\n    return true;\n  }\n\n  /// @notice Remove a Templater\n  /// @dev Access restricted only for Admins\n  /// @param guy Address of the Templater\n  /// @return True if the guy address is removed as Templater\n  function removeTemplater(address guy) external onlyAdmin returns (bool) {\n    require(hasRole(TEMPLATER_ROLE, guy), \"guy is not a templater\");\n    revokeRole(TEMPLATER_ROLE, guy);\n    return true;\n  }\n  /// @notice Pause all the functions\n  /// @dev the caller must have the 'PAUSER_ROLE'\n  function pause() external {\n    require(hasRole(PAUSER_ROLE, msg.sender), \"BadgeFactory: must have pauser role to pause\");\n    _pause();\n  }\n\n  /// @notice Unpause all the functions\n  /// @dev the caller must have the 'PAUSER_ROLE'\n  function unpause() external {\n        require(hasRole(PAUSER_ROLE, msg.sender), \"BadgeFactory: must have pauser role to unpause\");\n        _unpause();\n    }\n\n\n}\n",
  "sourcePath": "/home/sencha/maker-badges/contracts/BadgeRoles.sol",
  "compiler": {
    "name": "solc",
    "version": "0.6.11+commit.5ef660b1.Emscripten.clang"
  },
  "schemaVersion": "3.2.2",
  "updatedAt": "2020-07-20T16:55:08.582Z",
  "devdoc": {
    "kind": "dev",
    "methods": {
      "addTemplater(address)": {
        "details": "Access restricted only for Admins",
        "params": {
          "guy": "Address of the new Templater"
        },
        "returns": {
          "_0": "True if the guy address is added as Templater"
        }
      },
      "getRoleAdmin(bytes32)": {
        "details": "Returns the admin role that controls `role`. See {grantRole} and {revokeRole}. To change a role's admin, use {_setRoleAdmin}."
      },
      "getRoleMember(bytes32,uint256)": {
        "details": "Returns one of the accounts that have `role`. `index` must be a value between 0 and {getRoleMemberCount}, non-inclusive. Role bearers are not sorted in any particular way, and their ordering may change at any point. WARNING: When using {getRoleMember} and {getRoleMemberCount}, make sure you perform all queries on the same block. See the following https://forum.openzeppelin.com/t/iterating-over-elements-on-enumerableset-in-openzeppelin-contracts/2296[forum post] for more information."
      },
      "getRoleMemberCount(bytes32)": {
        "details": "Returns the number of accounts that have `role`. Can be used together with {getRoleMember} to enumerate all bearers of a role."
      },
      "grantRole(bytes32,address)": {
        "details": "Grants `role` to `account`. If `account` had not been already granted `role`, emits a {RoleGranted} event. Requirements: - the caller must have ``role``'s admin role."
      },
      "hasRole(bytes32,address)": {
        "details": "Returns `true` if `account` has been granted `role`."
      },
      "owner()": {
        "details": "Returns the address of the current owner."
      },
      "pause()": {
        "details": "the caller must have the 'PAUSER_ROLE'"
      },
      "paused()": {
        "details": "Returns true if the contract is paused, and false otherwise."
      },
      "removeTemplater(address)": {
        "details": "Access restricted only for Admins",
        "params": {
          "guy": "Address of the Templater"
        },
        "returns": {
          "_0": "True if the guy address is removed as Templater"
        }
      },
      "renounceOwnership()": {
        "details": "Leaves the contract without owner. It will not be possible to call `onlyOwner` functions anymore. Can only be called by the current owner. NOTE: Renouncing ownership will leave the contract without an owner, thereby removing any functionality that is only available to the owner."
      },
      "renounceRole(bytes32,address)": {
        "details": "Revokes `role` from the calling account. Roles are often managed via {grantRole} and {revokeRole}: this function's purpose is to provide a mechanism for accounts to lose their privileges if they are compromised (such as when a trusted device is misplaced). If the calling account had been granted `role`, emits a {RoleRevoked} event. Requirements: - the caller must be `account`."
      },
      "revokeRole(bytes32,address)": {
        "details": "Revokes `role` from `account`. If `account` had been granted `role`, emits a {RoleRevoked} event. Requirements: - the caller must have ``role``'s admin role."
      },
      "transferOwnership(address)": {
        "details": "Transfers ownership of the contract to a new account (`newOwner`). Can only be called by the current owner."
      },
      "unpause()": {
        "details": "the caller must have the 'PAUSER_ROLE'"
      }
    },
    "stateVariables": {
      "TEMPLATER_ROLE": {
        "details": "Roles"
      }
    },
    "version": 1
  },
  "userdoc": {
    "kind": "user",
    "methods": {
      "addTemplater(address)": {
        "notice": "Add a new Templater"
      },
      "pause()": {
        "notice": "Pause all the functions"
      },
      "removeTemplater(address)": {
        "notice": "Remove a Templater"
      },
      "unpause()": {
        "notice": "Unpause all the functions"
      }
    },
    "version": 1
  }
}