{
  "contractName": "BadgePaymaster",
  "abi": [
    {
      "anonymous": false,
      "inputs": [
        {
          "indexed": true,
          "internalType": "address",
          "name": "previousOwner",
          "type": "address"
        },
        {
          "indexed": true,
          "internalType": "address",
          "name": "newOwner",
          "type": "address"
        }
      ],
      "name": "OwnershipTransferred",
      "type": "event"
    },
    {
      "anonymous": false,
      "inputs": [
        {
          "indexed": false,
          "internalType": "uint256",
          "name": "",
          "type": "uint256"
        }
      ],
      "name": "PostRelayed",
      "type": "event"
    },
    {
      "anonymous": false,
      "inputs": [
        {
          "indexed": false,
          "internalType": "uint256",
          "name": "",
          "type": "uint256"
        }
      ],
      "name": "PreRelayed",
      "type": "event"
    },
    {
      "anonymous": false,
      "inputs": [
        {
          "indexed": false,
          "internalType": "address",
          "name": "target",
          "type": "address"
        }
      ],
      "name": "TargetSet",
      "type": "event"
    },
    {
      "inputs": [],
      "name": "FORWARDER_HUB_OVERHEAD",
      "outputs": [
        {
          "internalType": "uint256",
          "name": "",
          "type": "uint256"
        }
      ],
      "stateMutability": "view",
      "type": "function",
      "constant": true
    },
    {
      "inputs": [],
      "name": "PAYMASTER_ACCEPTANCE_BUDGET",
      "outputs": [
        {
          "internalType": "uint256",
          "name": "",
          "type": "uint256"
        }
      ],
      "stateMutability": "view",
      "type": "function",
      "constant": true
    },
    {
      "inputs": [],
      "name": "POST_RELAYED_CALL_GAS_LIMIT",
      "outputs": [
        {
          "internalType": "uint256",
          "name": "",
          "type": "uint256"
        }
      ],
      "stateMutability": "view",
      "type": "function",
      "constant": true
    },
    {
      "inputs": [],
      "name": "PRE_RELAYED_CALL_GAS_LIMIT",
      "outputs": [
        {
          "internalType": "uint256",
          "name": "",
          "type": "uint256"
        }
      ],
      "stateMutability": "view",
      "type": "function",
      "constant": true
    },
    {
      "inputs": [
        {
          "components": [
            {
              "components": [
                {
                  "internalType": "address",
                  "name": "from",
                  "type": "address"
                },
                {
                  "internalType": "address",
                  "name": "to",
                  "type": "address"
                },
                {
                  "internalType": "uint256",
                  "name": "value",
                  "type": "uint256"
                },
                {
                  "internalType": "uint256",
                  "name": "gas",
                  "type": "uint256"
                },
                {
                  "internalType": "uint256",
                  "name": "nonce",
                  "type": "uint256"
                },
                {
                  "internalType": "bytes",
                  "name": "data",
                  "type": "bytes"
                }
              ],
              "internalType": "struct IForwarder.ForwardRequest",
              "name": "request",
              "type": "tuple"
            },
            {
              "components": [
                {
                  "internalType": "uint256",
                  "name": "gasPrice",
                  "type": "uint256"
                },
                {
                  "internalType": "uint256",
                  "name": "pctRelayFee",
                  "type": "uint256"
                },
                {
                  "internalType": "uint256",
                  "name": "baseRelayFee",
                  "type": "uint256"
                },
                {
                  "internalType": "address",
                  "name": "relayWorker",
                  "type": "address"
                },
                {
                  "internalType": "address",
                  "name": "paymaster",
                  "type": "address"
                },
                {
                  "internalType": "bytes",
                  "name": "paymasterData",
                  "type": "bytes"
                },
                {
                  "internalType": "uint256",
                  "name": "clientId",
                  "type": "uint256"
                },
                {
                  "internalType": "address",
                  "name": "forwarder",
                  "type": "address"
                }
              ],
              "internalType": "struct GsnTypes.RelayData",
              "name": "relayData",
              "type": "tuple"
            }
          ],
          "internalType": "struct GsnTypes.RelayRequest",
          "name": "relayRequest",
          "type": "tuple"
        }
      ],
      "name": "_verifyForwarder",
      "outputs": [],
      "stateMutability": "view",
      "type": "function",
      "constant": true
    },
    {
      "inputs": [],
      "name": "getGasLimits",
      "outputs": [
        {
          "components": [
            {
              "internalType": "uint256",
              "name": "acceptanceBudget",
              "type": "uint256"
            },
            {
              "internalType": "uint256",
              "name": "preRelayedCallGasLimit",
              "type": "uint256"
            },
            {
              "internalType": "uint256",
              "name": "postRelayedCallGasLimit",
              "type": "uint256"
            }
          ],
          "internalType": "struct IPaymaster.GasLimits",
          "name": "limits",
          "type": "tuple"
        }
      ],
      "stateMutability": "view",
      "type": "function",
      "constant": true
    },
    {
      "inputs": [],
      "name": "getHubAddr",
      "outputs": [
        {
          "internalType": "address",
          "name": "",
          "type": "address"
        }
      ],
      "stateMutability": "view",
      "type": "function",
      "constant": true
    },
    {
      "inputs": [],
      "name": "getRelayHubDeposit",
      "outputs": [
        {
          "internalType": "uint256",
          "name": "",
          "type": "uint256"
        }
      ],
      "stateMutability": "view",
      "type": "function",
      "constant": true
    },
    {
      "inputs": [],
      "name": "owner",
      "outputs": [
        {
          "internalType": "address",
          "name": "",
          "type": "address"
        }
      ],
      "stateMutability": "view",
      "type": "function",
      "constant": true
    },
    {
      "inputs": [],
      "name": "renounceOwnership",
      "outputs": [],
      "stateMutability": "nonpayable",
      "type": "function"
    },
    {
      "inputs": [
        {
          "internalType": "contract IRelayHub",
          "name": "hub",
          "type": "address"
        }
      ],
      "name": "setRelayHub",
      "outputs": [],
      "stateMutability": "nonpayable",
      "type": "function"
    },
    {
      "inputs": [
        {
          "internalType": "contract IForwarder",
          "name": "forwarder",
          "type": "address"
        }
      ],
      "name": "setTrustedForwarder",
      "outputs": [],
      "stateMutability": "nonpayable",
      "type": "function"
    },
    {
      "inputs": [
        {
          "internalType": "address",
          "name": "newOwner",
          "type": "address"
        }
      ],
      "name": "transferOwnership",
      "outputs": [],
      "stateMutability": "nonpayable",
      "type": "function"
    },
    {
      "inputs": [],
      "name": "trustedForwarder",
      "outputs": [
        {
          "internalType": "contract IForwarder",
          "name": "",
          "type": "address"
        }
      ],
      "stateMutability": "view",
      "type": "function",
      "constant": true
    },
    {
      "inputs": [
        {
          "internalType": "address",
          "name": "",
          "type": "address"
        }
      ],
      "name": "validTargets",
      "outputs": [
        {
          "internalType": "bool",
          "name": "",
          "type": "bool"
        }
      ],
      "stateMutability": "view",
      "type": "function",
      "constant": true
    },
    {
      "inputs": [
        {
          "internalType": "uint256",
          "name": "amount",
          "type": "uint256"
        },
        {
          "internalType": "address payable",
          "name": "target",
          "type": "address"
        }
      ],
      "name": "withdrawRelayHubDepositTo",
      "outputs": [],
      "stateMutability": "nonpayable",
      "type": "function"
    },
    {
      "stateMutability": "payable",
      "type": "receive",
      "payable": true
    },
    {
      "inputs": [
        {
          "internalType": "address",
          "name": "target",
          "type": "address"
        }
      ],
      "name": "setTarget",
      "outputs": [
        {
          "internalType": "bool",
          "name": "",
          "type": "bool"
        }
      ],
      "stateMutability": "nonpayable",
      "type": "function"
    },
    {
      "inputs": [
        {
          "components": [
            {
              "components": [
                {
                  "internalType": "address",
                  "name": "from",
                  "type": "address"
                },
                {
                  "internalType": "address",
                  "name": "to",
                  "type": "address"
                },
                {
                  "internalType": "uint256",
                  "name": "value",
                  "type": "uint256"
                },
                {
                  "internalType": "uint256",
                  "name": "gas",
                  "type": "uint256"
                },
                {
                  "internalType": "uint256",
                  "name": "nonce",
                  "type": "uint256"
                },
                {
                  "internalType": "bytes",
                  "name": "data",
                  "type": "bytes"
                }
              ],
              "internalType": "struct IForwarder.ForwardRequest",
              "name": "request",
              "type": "tuple"
            },
            {
              "components": [
                {
                  "internalType": "uint256",
                  "name": "gasPrice",
                  "type": "uint256"
                },
                {
                  "internalType": "uint256",
                  "name": "pctRelayFee",
                  "type": "uint256"
                },
                {
                  "internalType": "uint256",
                  "name": "baseRelayFee",
                  "type": "uint256"
                },
                {
                  "internalType": "address",
                  "name": "relayWorker",
                  "type": "address"
                },
                {
                  "internalType": "address",
                  "name": "paymaster",
                  "type": "address"
                },
                {
                  "internalType": "bytes",
                  "name": "paymasterData",
                  "type": "bytes"
                },
                {
                  "internalType": "uint256",
                  "name": "clientId",
                  "type": "uint256"
                },
                {
                  "internalType": "address",
                  "name": "forwarder",
                  "type": "address"
                }
              ],
              "internalType": "struct GsnTypes.RelayData",
              "name": "relayData",
              "type": "tuple"
            }
          ],
          "internalType": "struct GsnTypes.RelayRequest",
          "name": "relayRequest",
          "type": "tuple"
        },
        {
          "internalType": "bytes",
          "name": "signature",
          "type": "bytes"
        },
        {
          "internalType": "bytes",
          "name": "approvalData",
          "type": "bytes"
        },
        {
          "internalType": "uint256",
          "name": "maxPossibleGas",
          "type": "uint256"
        }
      ],
      "name": "preRelayedCall",
      "outputs": [
        {
          "internalType": "bytes",
          "name": "context",
          "type": "bytes"
        },
        {
          "internalType": "bool",
          "name": "",
          "type": "bool"
        }
      ],
      "stateMutability": "nonpayable",
      "type": "function"
    },
    {
      "inputs": [
        {
          "internalType": "bytes",
          "name": "context",
          "type": "bytes"
        },
        {
          "internalType": "bool",
          "name": "success",
          "type": "bool"
        },
        {
          "internalType": "uint256",
          "name": "gasUseWithoutPost",
          "type": "uint256"
        },
        {
          "components": [
            {
              "internalType": "uint256",
              "name": "gasPrice",
              "type": "uint256"
            },
            {
              "internalType": "uint256",
              "name": "pctRelayFee",
              "type": "uint256"
            },
            {
              "internalType": "uint256",
              "name": "baseRelayFee",
              "type": "uint256"
            },
            {
              "internalType": "address",
              "name": "relayWorker",
              "type": "address"
            },
            {
              "internalType": "address",
              "name": "paymaster",
              "type": "address"
            },
            {
              "internalType": "bytes",
              "name": "paymasterData",
              "type": "bytes"
            },
            {
              "internalType": "uint256",
              "name": "clientId",
              "type": "uint256"
            },
            {
              "internalType": "address",
              "name": "forwarder",
              "type": "address"
            }
          ],
          "internalType": "struct GsnTypes.RelayData",
          "name": "relayData",
          "type": "tuple"
        }
      ],
      "name": "postRelayedCall",
      "outputs": [],
      "stateMutability": "nonpayable",
      "type": "function"
    },
    {
      "inputs": [
        {
          "internalType": "address payable",
          "name": "destination",
          "type": "address"
        }
      ],
      "name": "withdrawAll",
      "outputs": [
        {
          "internalType": "bool",
          "name": "",
          "type": "bool"
        }
      ],
      "stateMutability": "nonpayable",
      "type": "function"
    },
    {
      "inputs": [],
      "name": "versionPaymaster",
      "outputs": [
        {
          "internalType": "string",
          "name": "",
          "type": "string"
        }
      ],
      "stateMutability": "view",
      "type": "function",
      "constant": true
    }
  ],
  "bytecode": "0x608060405234801561001057600080fd5b5060006100216100c460201b60201c565b9050806000806101000a81548173ffffffffffffffffffffffffffffffffffffffff021916908373ffffffffffffffffffffffffffffffffffffffff1602179055508073ffffffffffffffffffffffffffffffffffffffff16600073ffffffffffffffffffffffffffffffffffffffff167f8be0079c531659141344cd1fd0a4f28419497f9722a3daafe3b4186f6b6457e060405160405180910390a3506100cc565b600033905090565b61211e806100db6000396000f3fe60806040526004361061012e5760003560e01c8063921276ea116100ab578063df463a661161006f578063df463a66146104d3578063e5c12446146104fe578063edb0a0e21461053c578063f2fde38b14610579578063f9c002f7146105a2578063fa09e630146105cd57610255565b8063921276ea146104005780639ea092111461042b578063b90b41cf14610454578063bbdaa3c91461047f578063da742228146104aa57610255565b8063776d1a01116100f2578063776d1a011461031b5780637bb05264146103585780637da0a877146103815780638da5cb5b146103ac5780638e9483b0146103d757610255565b80632afe31c11461025a5780632d14c4b7146102855780635ea54eee146102ae578063715018a6146102d957806374e861d6146102f057610255565b3661025557600073ffffffffffffffffffffffffffffffffffffffff16600160009054906101000a900473ffffffffffffffffffffffffffffffffffffffff1673ffffffffffffffffffffffffffffffffffffffff1614156101c5576040517f08c379a00000000000000000000000000000000000000000000000000000000081526004016101bc90611d97565b60405180910390fd5b600160009054906101000a900473ffffffffffffffffffffffffffffffffffffffff1673ffffffffffffffffffffffffffffffffffffffff1663aa67c91934306040518363ffffffff1660e01b81526004016102219190611cb4565b6000604051808303818588803b15801561023a57600080fd5b505af115801561024e573d6000803e3d6000fd5b5050505050005b600080fd5b34801561026657600080fd5b5061026f61060a565b60405161027c9190611e72565b60405180910390f35b34801561029157600080fd5b506102ac60048036038101906102a79190611886565b6106bc565b005b3480156102ba57600080fd5b506102c36107e3565b6040516102d09190611e57565b60405180910390f35b3480156102e557600080fd5b506102ee610818565b005b3480156102fc57600080fd5b5061030561096b565b6040516103129190611c99565b60405180910390f35b34801561032757600080fd5b50610342600480360381019061033d91906115db565b610995565b60405161034f9190611ccf565b60405180910390f35b34801561036457600080fd5b5061037f600480360381019061037a9190611717565b610ac4565b005b34801561038d57600080fd5b50610396610b9d565b6040516103a39190611d1a565b60405180910390f35b3480156103b857600080fd5b506103c1610bc3565b6040516103ce9190611c99565b60405180910390f35b3480156103e357600080fd5b506103fe60048036038101906103f99190611656565b610bec565b005b34801561040c57600080fd5b50610415610c38565b6040516104229190611d35565b60405180910390f35b34801561043757600080fd5b50610452600480360381019061044d9190611740565b610c75565b005b34801561046057600080fd5b50610469610d32565b6040516104769190611e72565b60405180910390f35b34801561048b57600080fd5b50610494610d38565b6040516104a19190611e72565b60405180910390f35b3480156104b657600080fd5b506104d160048036038101906104cc91906116ee565b610d3f565b005b3480156104df57600080fd5b506104e8610e18565b6040516104f59190611e72565b60405180910390f35b34801561050a57600080fd5b5061052560048036038101906105209190611781565b610e23565b604051610533929190611cea565b60405180910390f35b34801561054857600080fd5b50610563600480360381019061055e91906115db565b610f45565b6040516105709190611ccf565b60405180910390f35b34801561058557600080fd5b506105a0600480360381019061059b91906115db565b610f65565b005b3480156105ae57600080fd5b506105b7611127565b6040516105c49190611e72565b60405180910390f35b3480156105d957600080fd5b506105f460048036038101906105ef9190611604565b61112e565b6040516106019190611ccf565b60405180910390f35b6000600160009054906101000a900473ffffffffffffffffffffffffffffffffffffffff1673ffffffffffffffffffffffffffffffffffffffff166370a08231306040518263ffffffff1660e01b81526004016106679190611cb4565b60206040518083038186803b15801561067f57600080fd5b505afa158015610693573d6000803e3d6000fd5b505050506040513d601f19601f820116820180604052508101906106b7919061185d565b905090565b6106c4611288565b73ffffffffffffffffffffffffffffffffffffffff1660008054906101000a900473ffffffffffffffffffffffffffffffffffffffff1673ffffffffffffffffffffffffffffffffffffffff1614610751576040517f08c379a000000000000000000000000000000000000000000000000000000000815260040161074890611e37565b60405180910390fd5b600160009054906101000a900473ffffffffffffffffffffffffffffffffffffffff1673ffffffffffffffffffffffffffffffffffffffff1662f714ce83836040518363ffffffff1660e01b81526004016107ad929190611e8d565b600060405180830381600087803b1580156107c757600080fd5b505af11580156107db573d6000803e3d6000fd5b505050505050565b6107eb611491565b604051806060016040528061c350620186a0018152602001620186a081526020016201adb0815250905090565b610820611288565b73ffffffffffffffffffffffffffffffffffffffff1660008054906101000a900473ffffffffffffffffffffffffffffffffffffffff1673ffffffffffffffffffffffffffffffffffffffff16146108ad576040517f08c379a00000000000000000000000000000000000000000000000000000000081526004016108a490611e37565b60405180910390fd5b600073ffffffffffffffffffffffffffffffffffffffff1660008054906101000a900473ffffffffffffffffffffffffffffffffffffffff1673ffffffffffffffffffffffffffffffffffffffff167f8be0079c531659141344cd1fd0a4f28419497f9722a3daafe3b4186f6b6457e060405160405180910390a360008060006101000a81548173ffffffffffffffffffffffffffffffffffffffff021916908373ffffffffffffffffffffffffffffffffffffffff160217905550565b6000600160009054906101000a900473ffffffffffffffffffffffffffffffffffffffff16905090565b600061099f611288565b73ffffffffffffffffffffffffffffffffffffffff1660008054906101000a900473ffffffffffffffffffffffffffffffffffffffff1673ffffffffffffffffffffffffffffffffffffffff1614610a2c576040517f08c379a0000000000000000000000000000000000000000000000000000000008152600401610a2390611e37565b60405180910390fd5b6001600360008473ffffffffffffffffffffffffffffffffffffffff1673ffffffffffffffffffffffffffffffffffffffff16815260200190815260200160002060006101000a81548160ff0219169083151502179055507f3bfb4bbf112628248058745a3c57e35b13369386e474b8e56c552f3063a4a19682604051610ab39190611c99565b60405180910390a160019050919050565b610acc611288565b73ffffffffffffffffffffffffffffffffffffffff1660008054906101000a900473ffffffffffffffffffffffffffffffffffffffff1673ffffffffffffffffffffffffffffffffffffffff1614610b59576040517f08c379a0000000000000000000000000000000000000000000000000000000008152600401610b5090611e37565b60405180910390fd5b80600160006101000a81548173ffffffffffffffffffffffffffffffffffffffff021916908373ffffffffffffffffffffffffffffffffffffffff16021790555050565b600260009054906101000a900473ffffffffffffffffffffffffffffffffffffffff1681565b60008060009054906101000a900473ffffffffffffffffffffffffffffffffffffffff16905090565b7f142c6d2c03c5b3fcbb162bc0e230bbaae8c9032eb624a8fd44658e00efa63c908585810190610c1c9190611834565b604051610c299190611e72565b60405180910390a15050505050565b60606040518060400160405280600581526020017f302e362e30000000000000000000000000000000000000000000000000000000815250905090565b808060200190610c859190611eda565b60e0016020810190610c9791906115db565b73ffffffffffffffffffffffffffffffffffffffff16600260009054906101000a900473ffffffffffffffffffffffffffffffffffffffff1673ffffffffffffffffffffffffffffffffffffffff1614610d26576040517f08c379a0000000000000000000000000000000000000000000000000000000008152600401610d1d90611db7565b60405180910390fd5b610d2f81611290565b50565b61c35081565b6201adb081565b610d47611288565b73ffffffffffffffffffffffffffffffffffffffff1660008054906101000a900473ffffffffffffffffffffffffffffffffffffffff1673ffffffffffffffffffffffffffffffffffffffff1614610dd4576040517f08c379a0000000000000000000000000000000000000000000000000000000008152600401610dcb90611e37565b60405180910390fd5b80600260006101000a81548173ffffffffffffffffffffffffffffffffffffffff021916908373ffffffffffffffffffffffffffffffffffffffff16021790555050565b61c350620186a00181565b60606000610e3088610c75565b60036000898060000190610e449190611eb6565b6020016020810190610e5691906115db565b73ffffffffffffffffffffffffffffffffffffffff1673ffffffffffffffffffffffffffffffffffffffff16815260200190815260200160002060009054906101000a900460ff16610edd576040517f08c379a0000000000000000000000000000000000000000000000000000000008152600401610ed490611dd7565b60405180910390fd5b7f1fab8d24eefec3578055fc7f1c7cce1b10153c6731e0b5ca8147e8916d884b4542604051610f0c9190611e72565b60405180910390a142604051602001610f259190611e72565b604051602081830303815290604052600091509150965096945050505050565b60036020528060005260406000206000915054906101000a900460ff1681565b610f6d611288565b73ffffffffffffffffffffffffffffffffffffffff1660008054906101000a900473ffffffffffffffffffffffffffffffffffffffff1673ffffffffffffffffffffffffffffffffffffffff1614610ffa576040517f08c379a0000000000000000000000000000000000000000000000000000000008152600401610ff190611e37565b60405180910390fd5b600073ffffffffffffffffffffffffffffffffffffffff168173ffffffffffffffffffffffffffffffffffffffff16141561106a576040517f08c379a000000000000000000000000000000000000000000000000000000000815260040161106190611d77565b60405180910390fd5b8073ffffffffffffffffffffffffffffffffffffffff1660008054906101000a900473ffffffffffffffffffffffffffffffffffffffff1673ffffffffffffffffffffffffffffffffffffffff167f8be0079c531659141344cd1fd0a4f28419497f9722a3daafe3b4186f6b6457e060405160405180910390a3806000806101000a81548173ffffffffffffffffffffffffffffffffffffffff021916908373ffffffffffffffffffffffffffffffffffffffff16021790555050565b620186a081565b6000611138611288565b73ffffffffffffffffffffffffffffffffffffffff1660008054906101000a900473ffffffffffffffffffffffffffffffffffffffff1673ffffffffffffffffffffffffffffffffffffffff16146111c5576040517f08c379a00000000000000000000000000000000000000000000000000000000081526004016111bc90611e37565b60405180910390fd5b6000600160009054906101000a900473ffffffffffffffffffffffffffffffffffffffff1673ffffffffffffffffffffffffffffffffffffffff166370a08231306040518263ffffffff1660e01b81526004016112229190611cb4565b60206040518083038186803b15801561123a57600080fd5b505afa15801561124e573d6000803e3d6000fd5b505050506040513d601f19601f82011682018060405250810190611272919061185d565b905061127e81846106bc565b6001915050919050565b600033905090565b600060608280600001906112a49190611eb6565b60200160208101906112b691906115db565b73ffffffffffffffffffffffffffffffffffffffff1663572b6c0560e01b8480602001906112e49190611eda565b60e00160208101906112f691906115db565b6040516024016113069190611c99565b604051602081830303815290604052907bffffffffffffffffffffffffffffffffffffffffffffffffffffffff19166020820180517bffffffffffffffffffffffffffffffffffffffffffffffffffffffff83818316178352505050506040516113709190611c82565b600060405180830381855afa9150503d80600081146113ab576040519150601f19603f3d011682016040523d82523d6000602084013e6113b0565b606091505b5091509150816113f5576040517f08c379a00000000000000000000000000000000000000000000000000000000081526004016113ec90611e17565b60405180910390fd5b6020815114611439576040517f08c379a000000000000000000000000000000000000000000000000000000000815260040161143090611df7565b60405180910390fd5b8080602001905181019061144d919061162d565b61148c576040517f08c379a000000000000000000000000000000000000000000000000000000000815260040161148390611d57565b60405180910390fd5b505050565b60405180606001604052806000815260200160008152602001600081525090565b6000813590506114c18161205e565b92915050565b6000813590506114d681612075565b92915050565b6000813590506114eb8161208c565b92915050565b6000815190506115008161208c565b92915050565b60008083601f84011261151857600080fd5b8235905067ffffffffffffffff81111561153157600080fd5b60208301915083600182028301111561154957600080fd5b9250929050565b60008135905061155f816120a3565b92915050565b600081359050611574816120ba565b92915050565b6000610100828403121561158d57600080fd5b81905092915050565b6000604082840312156115a857600080fd5b81905092915050565b6000813590506115c0816120d1565b92915050565b6000815190506115d5816120d1565b92915050565b6000602082840312156115ed57600080fd5b60006115fb848285016114b2565b91505092915050565b60006020828403121561161657600080fd5b6000611624848285016114c7565b91505092915050565b60006020828403121561163f57600080fd5b600061164d848285016114f1565b91505092915050565b60008060008060006080868803121561166e57600080fd5b600086013567ffffffffffffffff81111561168857600080fd5b61169488828901611506565b955095505060206116a7888289016114dc565b93505060406116b8888289016115b1565b925050606086013567ffffffffffffffff8111156116d557600080fd5b6116e18882890161157a565b9150509295509295909350565b60006020828403121561170057600080fd5b600061170e84828501611550565b91505092915050565b60006020828403121561172957600080fd5b600061173784828501611565565b91505092915050565b60006020828403121561175257600080fd5b600082013567ffffffffffffffff81111561176c57600080fd5b61177884828501611596565b91505092915050565b6000806000806000806080878903121561179a57600080fd5b600087013567ffffffffffffffff8111156117b457600080fd5b6117c089828a01611596565b965050602087013567ffffffffffffffff8111156117dd57600080fd5b6117e989828a01611506565b9550955050604087013567ffffffffffffffff81111561180857600080fd5b61181489828a01611506565b9350935050606061182789828a016115b1565b9150509295509295509295565b60006020828403121561184657600080fd5b6000611854848285016115b1565b91505092915050565b60006020828403121561186f57600080fd5b600061187d848285016115c6565b91505092915050565b6000806040838503121561189957600080fd5b60006118a7858286016115b1565b92505060206118b8858286016114c7565b9150509250929050565b6118cb81611fc0565b82525050565b6118da81611f54565b82525050565b6118e981611f42565b82525050565b6118f881611f66565b82525050565b600061190982611eff565b6119138185611f15565b935061192381856020860161201a565b61192c8161204d565b840191505092915050565b600061194282611eff565b61194c8185611f26565b935061195c81856020860161201a565b80840191505092915050565b61197181611fd2565b82525050565b600061198282611f0a565b61198c8185611f31565b935061199c81856020860161201a565b6119a58161204d565b840191505092915050565b60006119bd601f83611f31565b91507f696e76616c696420666f7277617264657220666f7220726563697069656e74006000830152602082019050919050565b60006119fd602683611f31565b91507f4f776e61626c653a206e6577206f776e657220697320746865207a65726f206160008301527f64647265737300000000000000000000000000000000000000000000000000006020830152604082019050919050565b6000611a63601983611f31565b91507f72656c6179206875622061646472657373206e6f7420736574000000000000006000830152602082019050919050565b6000611aa3601883611f31565b91507f466f72776172646572206973206e6f74207472757374656400000000000000006000830152602082019050919050565b6000611ae3602783611f31565b91507f42616467655061796d61737465723a206e6f742061207265676973746572656460008301527f20746172676574000000000000000000000000000000000000000000000000006020830152604082019050919050565b6000611b49602c83611f31565b91507f697354727573746564466f727761726465722072657475726e656420696e766160008301527f6c696420726573706f6e736500000000000000000000000000000000000000006020830152604082019050919050565b6000611baf601b83611f31565b91507f697354727573746564466f7277617264657220726576657274656400000000006000830152602082019050919050565b6000611bef602083611f31565b91507f4f776e61626c653a2063616c6c6572206973206e6f7420746865206f776e65726000830152602082019050919050565b606082016000820151611c386000850182611c64565b506020820151611c4b6020850182611c64565b506040820151611c5e6040850182611c64565b50505050565b611c6d81611fb6565b82525050565b611c7c81611fb6565b82525050565b6000611c8e8284611937565b915081905092915050565b6000602082019050611cae60008301846118e0565b92915050565b6000602082019050611cc960008301846118c2565b92915050565b6000602082019050611ce460008301846118ef565b92915050565b60006040820190508181036000830152611d0481856118fe565b9050611d1360208301846118ef565b9392505050565b6000602082019050611d2f6000830184611968565b92915050565b60006020820190508181036000830152611d4f8184611977565b905092915050565b60006020820190508181036000830152611d70816119b0565b9050919050565b60006020820190508181036000830152611d90816119f0565b9050919050565b60006020820190508181036000830152611db081611a56565b9050919050565b60006020820190508181036000830152611dd081611a96565b9050919050565b60006020820190508181036000830152611df081611ad6565b9050919050565b60006020820190508181036000830152611e1081611b3c565b9050919050565b60006020820190508181036000830152611e3081611ba2565b9050919050565b60006020820190508181036000830152611e5081611be2565b9050919050565b6000606082019050611e6c6000830184611c22565b92915050565b6000602082019050611e876000830184611c73565b92915050565b6000604082019050611ea26000830185611c73565b611eaf60208301846118d1565b9392505050565b60008235600160c003833603038112611ece57600080fd5b80830191505092915050565b60008235600161010003833603038112611ef357600080fd5b80830191505092915050565b600081519050919050565b600081519050919050565b600082825260208201905092915050565b600081905092915050565b600082825260208201905092915050565b6000611f4d82611f96565b9050919050565b6000611f5f82611f96565b9050919050565b60008115159050919050565b6000611f7d82611f42565b9050919050565b6000611f8f82611f42565b9050919050565b600073ffffffffffffffffffffffffffffffffffffffff82169050919050565b6000819050919050565b6000611fcb82611ff6565b9050919050565b6000611fdd82611fe4565b9050919050565b6000611fef82611f96565b9050919050565b600061200182612008565b9050919050565b600061201382611f96565b9050919050565b60005b8381101561203857808201518184015260208101905061201d565b83811115612047576000848401525b50505050565b6000601f19601f8301169050919050565b61206781611f42565b811461207257600080fd5b50565b61207e81611f54565b811461208957600080fd5b50565b61209581611f66565b81146120a057600080fd5b50565b6120ac81611f72565b81146120b757600080fd5b50565b6120c381611f84565b81146120ce57600080fd5b50565b6120da81611fb6565b81146120e557600080fd5b5056fea2646970667358221220099f5a759dacd9c8888bb8ef24d535af46a80346faf88435272cd1aecacd3e5164736f6c634300060c0033",
  "immutableReferences": {},
  "source": "/// SPDX-License-Identifier: AGPL-3.0-only\npragma solidity 0.6.12;\npragma experimental ABIEncoderV2;\n\n/// @title Non-transferable Badges for Maker Ecosystem Activity, CDIP 18, 29\n/// @author Nazzareno Massari @naszam\n/// @notice BadgePaymaster to pay for user's transaction fees\n/// @dev See https://github.com/makerdao/community/issues/537\n/// @dev See https://github.com/makerdao/community/issues/721\n/// @dev All function calls are currently implemented without side effecs through TDD approach\n/// @dev OpenZeppelin Library is used for secure contract development\n\nimport \"@opengsn/gsn/contracts/forwarder/IForwarder.sol\";\nimport \"@opengsn/gsn/contracts/BasePaymaster.sol\";\n\ncontract BadgePaymaster is BasePaymaster {\n\n    /// @dev Target Contracts to pay for\n    mapping(address => bool) public validTargets;\n\n  \t/// @dev Events\n    event TargetSet(address target);\n    event PreRelayed(uint);\n    event PostRelayed(uint);\n\n    function setTarget(address target) external onlyOwner returns (bool) {\n      \tvalidTargets[target] = true;\n      \temit TargetSet(target);\n        return true;\n    }\n\n    function preRelayedCall(\n        GsnTypes.RelayRequest calldata relayRequest,\n        bytes calldata signature,\n        bytes calldata approvalData,\n        uint256 maxPossibleGas\n    )\n        external\n        override\n        virtual\n        returns (bytes memory context, bool)\n    {\n        (signature);\n        _verifyForwarder(relayRequest);\n        (approvalData, maxPossibleGas);\n        require(validTargets[relayRequest.request.to], \"BadgePaymaster: not a registered target\");\n        emit PreRelayed(now);\n        return (abi.encode(now), false);\n    }\n\n    function postRelayedCall(\n        bytes calldata context,\n        bool success,\n        uint256 gasUseWithoutPost,\n        GsnTypes.RelayData calldata relayData\n    )\n        external\n        override\n        virtual\n    {\n        (context, success, gasUseWithoutPost, relayData);\n        emit PostRelayed(abi.decode(context, (uint)));\n    }\n\n    function withdrawAll(address payable destination) external onlyOwner returns (bool) {\n        uint256 amount = relayHub.balanceOf(address(this));\n        withdrawRelayHubDepositTo(amount, destination);\n        return true;\n    }\n\n    function versionPaymaster() external virtual view override returns (string memory) {\n        return \"0.6.0\";\n    }\n}\n",
  "sourcePath": "/home/sencha/maker-badges/contracts/BadgePaymaster.sol",
  "compiler": {
    "name": "solc",
    "version": "0.6.12+commit.27d51765.Emscripten.clang"
  },
  "schemaVersion": "3.2.5",
  "updatedAt": "2020-09-30T17:40:37.389Z",
  "networkType": "ethereum",
  "devdoc": {
    "events": {
      "TargetSet(address)": {
        "details": "Events"
      }
    },
    "kind": "dev",
    "methods": {
      "owner()": {
        "details": "Returns the address of the current owner."
      },
      "postRelayedCall(bytes,bool,uint256,(uint256,uint256,uint256,address,address,bytes,uint256,address))": {
        "params": {
          "context": "- the call context, as returned by the preRelayedCall",
          "gasUseWithoutPost": "- the actual amount of gas used by the entire transaction, EXCEPT        the gas used by the postRelayedCall itself.",
          "relayData": "- the relay params of the request. can be used by relayHub.calculateCharge() Revert in this functions causes a revert of the client's relayed call (and preRelayedCall(), but the Paymaster is still committed to pay the relay for the entire transaction.",
          "success": "- true if the relayed call succeeded, false if it reverted"
        }
      },
      "preRelayedCall(((address,address,uint256,uint256,uint256,bytes),(uint256,uint256,uint256,address,address,bytes,uint256,address)),bytes,bytes,uint256)": {
        "params": {
          "approvalData": "- extra dapp-specific data (e.g. signature from trusted party)",
          "maxPossibleGas": "- based on values returned from {@link getGasLimits},         the RelayHub will calculate the maximum possible amount of gas the user may be charged for.         In order to convert this value to wei, the Paymaster has to call \"relayHub.calculateCharge()\"  return:      a context to be passed to postRelayedCall      rejectOnRecipientRevert - TRUE if paymaster want to reject the TX if the recipient reverts.          FALSE means that rejects by the recipient will be completed on chain, and paid by the paymaster.          (note that in the latter case, the preRelayedCall and postRelayedCall are not reverted).",
          "relayRequest": "- the full relay request structure",
          "signature": "- user's EIP712-compatible signature of the {@link relayRequest}.              Note that in most cases the paymaster shouldn't try use it at all. It is always checked              by the forwarder immediately after preRelayedCall returns."
        }
      },
      "renounceOwnership()": {
        "details": "Leaves the contract without owner. It will not be possible to call `onlyOwner` functions anymore. Can only be called by the current owner. NOTE: Renouncing ownership will leave the contract without an owner, thereby removing any functionality that is only available to the owner."
      },
      "transferOwnership(address)": {
        "details": "Transfers ownership of the contract to a new account (`newOwner`). Can only be called by the current owner."
      }
    },
    "stateVariables": {
      "validTargets": {
        "details": "Target Contracts to pay for"
      }
    },
    "version": 1
  },
  "userdoc": {
    "kind": "user",
    "methods": {
      "getGasLimits()": {
        "notice": "Return the GasLimits constants used by the Paymaster."
      },
      "getHubAddr()": {
        "notice": "return the relayHub of this contract."
      },
      "getRelayHubDeposit()": {
        "notice": "check current deposit on relay hub."
      },
      "postRelayedCall(bytes,bool,uint256,(uint256,uint256,uint256,address,address,bytes,uint256,address))": {
        "notice": "This method is called after the actual relayed function call. It may be used to record the transaction (e.g. charge the caller by some contract logic) for this call. MUST be protected with relayHubOnly() in case it modifies state."
      },
      "preRelayedCall(((address,address,uint256,uint256,uint256,bytes),(uint256,uint256,uint256,address,address,bytes,uint256,address)),bytes,bytes,uint256)": {
        "notice": "Called by Relay (and RelayHub), to validate if the paymaster agrees to pay for this call. MUST be protected with relayHubOnly() in case it modifies state. The Paymaster rejects by the following \"revert\" operations  - preRelayedCall() method reverts  - the forwarder reverts because of nonce or signature error  - the paymaster returned \"rejectOnRecipientRevert\", and the recipient contract reverted. In any of the above cases, all paymaster calls (and recipient call) are reverted. In any other case, the paymaster agrees to pay for the gas cost of the transaction (note  that this includes also postRelayedCall revert) The rejectOnRecipientRevert flag means the Paymaster \"delegate\" the rejection to the recipient  code.  It also means the Paymaster trust the recipient to reject fast: both preRelayedCall,  forwarder check and receipient checks must fit into the GasLimits.acceptanceBudget,  otherwise the TX is paid by the Paymaster."
      },
      "withdrawRelayHubDepositTo(uint256,address)": {
        "notice": "withdraw deposit from relayHub"
      }
    },
    "version": 1
  }
}