{
  "contractName": "BadgeFactory",
  "abi": [
    {
      "inputs": [
        {
          "internalType": "address",
          "name": "maker_",
          "type": "address"
        }
      ],
      "stateMutability": "nonpayable",
      "type": "constructor"
    },
    {
      "anonymous": false,
      "inputs": [
        {
          "indexed": true,
          "internalType": "address",
          "name": "owner",
          "type": "address"
        },
        {
          "indexed": true,
          "internalType": "address",
          "name": "approved",
          "type": "address"
        },
        {
          "indexed": true,
          "internalType": "uint256",
          "name": "tokenId",
          "type": "uint256"
        }
      ],
      "name": "Approval",
      "type": "event"
    },
    {
      "anonymous": false,
      "inputs": [
        {
          "indexed": true,
          "internalType": "address",
          "name": "owner",
          "type": "address"
        },
        {
          "indexed": true,
          "internalType": "address",
          "name": "operator",
          "type": "address"
        },
        {
          "indexed": false,
          "internalType": "bool",
          "name": "approved",
          "type": "bool"
        }
      ],
      "name": "ApprovalForAll",
      "type": "event"
    },
    {
      "anonymous": false,
      "inputs": [
        {
          "indexed": false,
          "internalType": "address",
          "name": "redeemer",
          "type": "address"
        },
        {
          "indexed": false,
          "internalType": "uint256",
          "name": "templateId",
          "type": "uint256"
        },
        {
          "indexed": false,
          "internalType": "string",
          "name": "tokenURI",
          "type": "string"
        }
      ],
      "name": "BadgeActivated",
      "type": "event"
    },
    {
      "anonymous": false,
      "inputs": [
        {
          "indexed": false,
          "internalType": "uint256",
          "name": "templateId",
          "type": "uint256"
        },
        {
          "indexed": false,
          "internalType": "string",
          "name": "name",
          "type": "string"
        },
        {
          "indexed": false,
          "internalType": "string",
          "name": "description",
          "type": "string"
        },
        {
          "indexed": false,
          "internalType": "string",
          "name": "image",
          "type": "string"
        }
      ],
      "name": "NewTemplate",
      "type": "event"
    },
    {
      "anonymous": false,
      "inputs": [
        {
          "indexed": true,
          "internalType": "address",
          "name": "previousOwner",
          "type": "address"
        },
        {
          "indexed": true,
          "internalType": "address",
          "name": "newOwner",
          "type": "address"
        }
      ],
      "name": "OwnershipTransferred",
      "type": "event"
    },
    {
      "anonymous": false,
      "inputs": [
        {
          "indexed": false,
          "internalType": "address",
          "name": "account",
          "type": "address"
        }
      ],
      "name": "Paused",
      "type": "event"
    },
    {
      "anonymous": false,
      "inputs": [
        {
          "indexed": true,
          "internalType": "bytes32",
          "name": "role",
          "type": "bytes32"
        },
        {
          "indexed": true,
          "internalType": "bytes32",
          "name": "previousAdminRole",
          "type": "bytes32"
        },
        {
          "indexed": true,
          "internalType": "bytes32",
          "name": "newAdminRole",
          "type": "bytes32"
        }
      ],
      "name": "RoleAdminChanged",
      "type": "event"
    },
    {
      "anonymous": false,
      "inputs": [
        {
          "indexed": true,
          "internalType": "bytes32",
          "name": "role",
          "type": "bytes32"
        },
        {
          "indexed": true,
          "internalType": "address",
          "name": "account",
          "type": "address"
        },
        {
          "indexed": true,
          "internalType": "address",
          "name": "sender",
          "type": "address"
        }
      ],
      "name": "RoleGranted",
      "type": "event"
    },
    {
      "anonymous": false,
      "inputs": [
        {
          "indexed": true,
          "internalType": "bytes32",
          "name": "role",
          "type": "bytes32"
        },
        {
          "indexed": true,
          "internalType": "address",
          "name": "account",
          "type": "address"
        },
        {
          "indexed": true,
          "internalType": "address",
          "name": "sender",
          "type": "address"
        }
      ],
      "name": "RoleRevoked",
      "type": "event"
    },
    {
      "anonymous": false,
      "inputs": [
        {
          "indexed": true,
          "internalType": "address",
          "name": "from",
          "type": "address"
        },
        {
          "indexed": true,
          "internalType": "address",
          "name": "to",
          "type": "address"
        },
        {
          "indexed": true,
          "internalType": "uint256",
          "name": "tokenId",
          "type": "uint256"
        }
      ],
      "name": "Transfer",
      "type": "event"
    },
    {
      "anonymous": false,
      "inputs": [
        {
          "indexed": false,
          "internalType": "address",
          "name": "account",
          "type": "address"
        }
      ],
      "name": "Unpaused",
      "type": "event"
    },
    {
      "stateMutability": "nonpayable",
      "type": "fallback"
    },
    {
      "inputs": [],
      "name": "DEFAULT_ADMIN_ROLE",
      "outputs": [
        {
          "internalType": "bytes32",
          "name": "",
          "type": "bytes32"
        }
      ],
      "stateMutability": "view",
      "type": "function",
      "constant": true
    },
    {
      "inputs": [],
      "name": "PAUSER_ROLE",
      "outputs": [
        {
          "internalType": "bytes32",
          "name": "",
          "type": "bytes32"
        }
      ],
      "stateMutability": "view",
      "type": "function",
      "constant": true
    },
    {
      "inputs": [],
      "name": "TEMPLATER_ROLE",
      "outputs": [
        {
          "internalType": "bytes32",
          "name": "",
          "type": "bytes32"
        }
      ],
      "stateMutability": "view",
      "type": "function",
      "constant": true
    },
    {
      "inputs": [
        {
          "internalType": "address",
          "name": "guy",
          "type": "address"
        }
      ],
      "name": "addTemplater",
      "outputs": [
        {
          "internalType": "bool",
          "name": "",
          "type": "bool"
        }
      ],
      "stateMutability": "nonpayable",
      "type": "function"
    },
    {
      "inputs": [
        {
          "internalType": "address",
          "name": "to",
          "type": "address"
        },
        {
          "internalType": "uint256",
          "name": "tokenId",
          "type": "uint256"
        }
      ],
      "name": "approve",
      "outputs": [],
      "stateMutability": "nonpayable",
      "type": "function"
    },
    {
      "inputs": [
        {
          "internalType": "address",
          "name": "owner",
          "type": "address"
        }
      ],
      "name": "balanceOf",
      "outputs": [
        {
          "internalType": "uint256",
          "name": "",
          "type": "uint256"
        }
      ],
      "stateMutability": "view",
      "type": "function",
      "constant": true
    },
    {
      "inputs": [],
      "name": "baseURI",
      "outputs": [
        {
          "internalType": "string",
          "name": "",
          "type": "string"
        }
      ],
      "stateMutability": "view",
      "type": "function",
      "constant": true
    },
    {
      "inputs": [
        {
          "internalType": "uint256",
          "name": "tokenId",
          "type": "uint256"
        }
      ],
      "name": "burn",
      "outputs": [],
      "stateMutability": "nonpayable",
      "type": "function"
    },
    {
      "inputs": [
        {
          "internalType": "uint256",
          "name": "tokenId",
          "type": "uint256"
        }
      ],
      "name": "getApproved",
      "outputs": [
        {
          "internalType": "address",
          "name": "",
          "type": "address"
        }
      ],
      "stateMutability": "view",
      "type": "function",
      "constant": true
    },
    {
      "inputs": [
        {
          "internalType": "bytes32",
          "name": "role",
          "type": "bytes32"
        }
      ],
      "name": "getRoleAdmin",
      "outputs": [
        {
          "internalType": "bytes32",
          "name": "",
          "type": "bytes32"
        }
      ],
      "stateMutability": "view",
      "type": "function",
      "constant": true
    },
    {
      "inputs": [
        {
          "internalType": "bytes32",
          "name": "role",
          "type": "bytes32"
        },
        {
          "internalType": "uint256",
          "name": "index",
          "type": "uint256"
        }
      ],
      "name": "getRoleMember",
      "outputs": [
        {
          "internalType": "address",
          "name": "",
          "type": "address"
        }
      ],
      "stateMutability": "view",
      "type": "function",
      "constant": true
    },
    {
      "inputs": [
        {
          "internalType": "bytes32",
          "name": "role",
          "type": "bytes32"
        }
      ],
      "name": "getRoleMemberCount",
      "outputs": [
        {
          "internalType": "uint256",
          "name": "",
          "type": "uint256"
        }
      ],
      "stateMutability": "view",
      "type": "function",
      "constant": true
    },
    {
      "inputs": [
        {
          "internalType": "bytes32",
          "name": "role",
          "type": "bytes32"
        },
        {
          "internalType": "address",
          "name": "account",
          "type": "address"
        }
      ],
      "name": "grantRole",
      "outputs": [],
      "stateMutability": "nonpayable",
      "type": "function"
    },
    {
      "inputs": [
        {
          "internalType": "bytes32",
          "name": "role",
          "type": "bytes32"
        },
        {
          "internalType": "address",
          "name": "account",
          "type": "address"
        }
      ],
      "name": "hasRole",
      "outputs": [
        {
          "internalType": "bool",
          "name": "",
          "type": "bool"
        }
      ],
      "stateMutability": "view",
      "type": "function",
      "constant": true
    },
    {
      "inputs": [
        {
          "internalType": "address",
          "name": "owner",
          "type": "address"
        },
        {
          "internalType": "address",
          "name": "operator",
          "type": "address"
        }
      ],
      "name": "isApprovedForAll",
      "outputs": [
        {
          "internalType": "bool",
          "name": "",
          "type": "bool"
        }
      ],
      "stateMutability": "view",
      "type": "function",
      "constant": true
    },
    {
      "inputs": [],
      "name": "name",
      "outputs": [
        {
          "internalType": "string",
          "name": "",
          "type": "string"
        }
      ],
      "stateMutability": "view",
      "type": "function",
      "constant": true
    },
    {
      "inputs": [],
      "name": "owner",
      "outputs": [
        {
          "internalType": "address",
          "name": "",
          "type": "address"
        }
      ],
      "stateMutability": "view",
      "type": "function",
      "constant": true
    },
    {
      "inputs": [
        {
          "internalType": "uint256",
          "name": "tokenId",
          "type": "uint256"
        }
      ],
      "name": "ownerOf",
      "outputs": [
        {
          "internalType": "address",
          "name": "",
          "type": "address"
        }
      ],
      "stateMutability": "view",
      "type": "function",
      "constant": true
    },
    {
      "inputs": [],
      "name": "pause",
      "outputs": [],
      "stateMutability": "nonpayable",
      "type": "function"
    },
    {
      "inputs": [],
      "name": "paused",
      "outputs": [
        {
          "internalType": "bool",
          "name": "",
          "type": "bool"
        }
      ],
      "stateMutability": "view",
      "type": "function",
      "constant": true
    },
    {
      "inputs": [
        {
          "internalType": "uint256",
          "name": "",
          "type": "uint256"
        },
        {
          "internalType": "address",
          "name": "",
          "type": "address"
        }
      ],
      "name": "redeemed",
      "outputs": [
        {
          "internalType": "uint256",
          "name": "",
          "type": "uint256"
        }
      ],
      "stateMutability": "view",
      "type": "function",
      "constant": true
    },
    {
      "inputs": [
        {
          "internalType": "address",
          "name": "guy",
          "type": "address"
        }
      ],
      "name": "removeTemplater",
      "outputs": [
        {
          "internalType": "bool",
          "name": "",
          "type": "bool"
        }
      ],
      "stateMutability": "nonpayable",
      "type": "function"
    },
    {
      "inputs": [],
      "name": "renounceOwnership",
      "outputs": [],
      "stateMutability": "nonpayable",
      "type": "function"
    },
    {
      "inputs": [
        {
          "internalType": "bytes32",
          "name": "role",
          "type": "bytes32"
        },
        {
          "internalType": "address",
          "name": "account",
          "type": "address"
        }
      ],
      "name": "renounceRole",
      "outputs": [],
      "stateMutability": "nonpayable",
      "type": "function"
    },
    {
      "inputs": [
        {
          "internalType": "bytes32",
          "name": "role",
          "type": "bytes32"
        },
        {
          "internalType": "address",
          "name": "account",
          "type": "address"
        }
      ],
      "name": "revokeRole",
      "outputs": [],
      "stateMutability": "nonpayable",
      "type": "function"
    },
    {
      "inputs": [
        {
          "internalType": "address",
          "name": "from",
          "type": "address"
        },
        {
          "internalType": "address",
          "name": "to",
          "type": "address"
        },
        {
          "internalType": "uint256",
          "name": "tokenId",
          "type": "uint256"
        }
      ],
      "name": "safeTransferFrom",
      "outputs": [],
      "stateMutability": "nonpayable",
      "type": "function"
    },
    {
      "inputs": [
        {
          "internalType": "address",
          "name": "from",
          "type": "address"
        },
        {
          "internalType": "address",
          "name": "to",
          "type": "address"
        },
        {
          "internalType": "uint256",
          "name": "tokenId",
          "type": "uint256"
        },
        {
          "internalType": "bytes",
          "name": "_data",
          "type": "bytes"
        }
      ],
      "name": "safeTransferFrom",
      "outputs": [],
      "stateMutability": "nonpayable",
      "type": "function"
    },
    {
      "inputs": [
        {
          "internalType": "address",
          "name": "operator",
          "type": "address"
        },
        {
          "internalType": "bool",
          "name": "approved",
          "type": "bool"
        }
      ],
      "name": "setApprovalForAll",
      "outputs": [],
      "stateMutability": "nonpayable",
      "type": "function"
    },
    {
      "inputs": [
        {
          "internalType": "bytes4",
          "name": "interfaceId",
          "type": "bytes4"
        }
      ],
      "name": "supportsInterface",
      "outputs": [
        {
          "internalType": "bool",
          "name": "",
          "type": "bool"
        }
      ],
      "stateMutability": "view",
      "type": "function",
      "constant": true
    },
    {
      "inputs": [],
      "name": "symbol",
      "outputs": [
        {
          "internalType": "string",
          "name": "",
          "type": "string"
        }
      ],
      "stateMutability": "view",
      "type": "function",
      "constant": true
    },
    {
      "inputs": [
        {
          "internalType": "uint256",
          "name": "index",
          "type": "uint256"
        }
      ],
      "name": "tokenByIndex",
      "outputs": [
        {
          "internalType": "uint256",
          "name": "",
          "type": "uint256"
        }
      ],
      "stateMutability": "view",
      "type": "function",
      "constant": true
    },
    {
      "inputs": [
        {
          "internalType": "address",
          "name": "owner",
          "type": "address"
        },
        {
          "internalType": "uint256",
          "name": "index",
          "type": "uint256"
        }
      ],
      "name": "tokenOfOwnerByIndex",
      "outputs": [
        {
          "internalType": "uint256",
          "name": "",
          "type": "uint256"
        }
      ],
      "stateMutability": "view",
      "type": "function",
      "constant": true
    },
    {
      "inputs": [
        {
          "internalType": "uint256",
          "name": "tokenId",
          "type": "uint256"
        }
      ],
      "name": "tokenURI",
      "outputs": [
        {
          "internalType": "string",
          "name": "",
          "type": "string"
        }
      ],
      "stateMutability": "view",
      "type": "function",
      "constant": true
    },
    {
      "inputs": [],
      "name": "totalSupply",
      "outputs": [
        {
          "internalType": "uint256",
          "name": "",
          "type": "uint256"
        }
      ],
      "stateMutability": "view",
      "type": "function",
      "constant": true
    },
    {
      "inputs": [
        {
          "internalType": "address",
          "name": "from",
          "type": "address"
        },
        {
          "internalType": "address",
          "name": "to",
          "type": "address"
        },
        {
          "internalType": "uint256",
          "name": "tokenId",
          "type": "uint256"
        }
      ],
      "name": "transferFrom",
      "outputs": [],
      "stateMutability": "nonpayable",
      "type": "function"
    },
    {
      "inputs": [
        {
          "internalType": "address",
          "name": "newOwner",
          "type": "address"
        }
      ],
      "name": "transferOwnership",
      "outputs": [],
      "stateMutability": "nonpayable",
      "type": "function"
    },
    {
      "inputs": [],
      "name": "unpause",
      "outputs": [],
      "stateMutability": "nonpayable",
      "type": "function"
    },
    {
      "inputs": [
        {
          "internalType": "string",
          "name": "baseURI",
          "type": "string"
        }
      ],
      "name": "setBaseURI",
      "outputs": [
        {
          "internalType": "bool",
          "name": "",
          "type": "bool"
        }
      ],
      "stateMutability": "nonpayable",
      "type": "function"
    },
    {
      "inputs": [
        {
          "internalType": "uint256",
          "name": "templateId",
          "type": "uint256"
        }
      ],
      "name": "getTemplate",
      "outputs": [
        {
          "internalType": "string",
          "name": "name",
          "type": "string"
        },
        {
          "internalType": "string",
          "name": "description",
          "type": "string"
        },
        {
          "internalType": "string",
          "name": "image",
          "type": "string"
        }
      ],
      "stateMutability": "view",
      "type": "function",
      "constant": true
    },
    {
      "inputs": [],
      "name": "getTemplatesCount",
      "outputs": [
        {
          "internalType": "uint256",
          "name": "count",
          "type": "uint256"
        }
      ],
      "stateMutability": "view",
      "type": "function",
      "constant": true
    },
    {
      "inputs": [
        {
          "internalType": "string",
          "name": "name",
          "type": "string"
        },
        {
          "internalType": "string",
          "name": "description",
          "type": "string"
        },
        {
          "internalType": "string",
          "name": "image",
          "type": "string"
        }
      ],
      "name": "createTemplate",
      "outputs": [
        {
          "internalType": "bool",
          "name": "",
          "type": "bool"
        }
      ],
      "stateMutability": "nonpayable",
      "type": "function"
    },
    {
      "inputs": [
        {
          "internalType": "uint256",
          "name": "tokenId",
          "type": "uint256"
        }
      ],
      "name": "getBadgeTemplate",
      "outputs": [
        {
          "internalType": "uint256",
          "name": "",
          "type": "uint256"
        }
      ],
      "stateMutability": "view",
      "type": "function",
      "constant": true
    },
    {
      "inputs": [
        {
          "internalType": "uint256",
          "name": "templateId",
          "type": "uint256"
        }
      ],
      "name": "getBadgeTemplateQuantity",
      "outputs": [
        {
          "internalType": "uint256",
          "name": "",
          "type": "uint256"
        }
      ],
      "stateMutability": "view",
      "type": "function",
      "constant": true
    },
    {
      "inputs": [
        {
          "internalType": "bytes32[]",
          "name": "proof",
          "type": "bytes32[]"
        },
        {
          "internalType": "uint256",
          "name": "templateId",
          "type": "uint256"
        },
        {
          "internalType": "string",
          "name": "tokenURI",
          "type": "string"
        }
      ],
      "name": "activateBadge",
      "outputs": [
        {
          "internalType": "bool",
          "name": "",
          "type": "bool"
        }
      ],
      "stateMutability": "nonpayable",
      "type": "function"
    },
    {
      "inputs": [
        {
          "internalType": "uint256",
          "name": "tokenId",
          "type": "uint256"
        }
      ],
      "name": "burnBadge",
      "outputs": [
        {
          "internalType": "bool",
          "name": "",
          "type": "bool"
        }
      ],
      "stateMutability": "nonpayable",
      "type": "function"
    }
  ],
  "bytecode": "0x60a06040523480156200001157600080fd5b50604051620066ea380380620066ea833981810160405260208110156200003757600080fd5b81019080805190602001909291905050506040518060400160405280600b81526020017f4d616b65724261646765730000000000000000000000000000000000000000008152506040518060400160405280600581526020017f4d414b45520000000000000000000000000000000000000000000000000000008152506000620000c66200034b60201b60201c565b9050806000806101000a81548173ffffffffffffffffffffffffffffffffffffffff021916908373ffffffffffffffffffffffffffffffffffffffff1602179055508073ffffffffffffffffffffffffffffffffffffffff16600073ffffffffffffffffffffffffffffffffffffffff167f8be0079c531659141344cd1fd0a4f28419497f9722a3daafe3b4186f6b6457e060405160405180910390a3506000600260006101000a81548160ff021916908315150217905550620001a36000801b620001976200035360201b60201c565b6200037c60201b60201c565b620001f960405180807f54454d504c415445525f524f4c45000000000000000000000000000000000000815250600e0190506040518091039020620001ed6200035360201b60201c565b6200037c60201b60201c565b6200024f60405180807f5041555345525f524f4c45000000000000000000000000000000000000000000815250600b0190506040518091039020620002436200035360201b60201c565b6200037c60201b60201c565b620002676301ffc9a760e01b6200039260201b60201c565b81600990805190602001906200027f92919062000631565b5080600a90805190602001906200029892919062000631565b50620002b16380ac58cd60e01b6200039260201b60201c565b620002c9635b5e139f60e01b6200039260201b60201c565b620002e163780e9d6360e01b6200039260201b60201c565b50506200030d604051806060016040528060228152602001620066c8602291396200049c60201b60201c565b8073ffffffffffffffffffffffffffffffffffffffff1660808173ffffffffffffffffffffffffffffffffffffffff1660601b8152505050620006e0565b600033905090565b60008060009054906101000a900473ffffffffffffffffffffffffffffffffffffffff16905090565b6200038e8282620004b860201b60201c565b5050565b63ffffffff60e01b817bffffffffffffffffffffffffffffffffffffffffffffffffffffffff191614156200042f576040517f08c379a000000000000000000000000000000000000000000000000000000000815260040180806020018281038252601c8152602001807f4552433136353a20696e76616c696420696e746572666163652069640000000081525060200191505060405180910390fd5b600160036000837bffffffffffffffffffffffffffffffffffffffffffffffffffffffff19167bffffffffffffffffffffffffffffffffffffffffffffffffffffffff1916815260200190815260200160002060006101000a81548160ff02191690831515021790555050565b80600c9080519060200190620004b492919062000631565b5050565b620004e781600160008581526020019081526020016000206000016200055c60201b62003e1d1790919060201c565b156200055857620004fd6200034b60201b60201c565b73ffffffffffffffffffffffffffffffffffffffff168173ffffffffffffffffffffffffffffffffffffffff16837f2f8788117e7eff1d82e926ec794901d17c78024a50270940304540a733656f0d60405160405180910390a45b5050565b60006200058c836000018373ffffffffffffffffffffffffffffffffffffffff1660001b6200059460201b60201c565b905092915050565b6000620005a883836200060e60201b60201c565b6200060357826000018290806001815401808255809150506001900390600052602060002001600090919091909150558260000180549050836001016000848152602001908152602001600020819055506001905062000608565b600090505b92915050565b600080836001016000848152602001908152602001600020541415905092915050565b828054600181600116156101000203166002900490600052602060002090601f016020900481019282601f106200067457805160ff1916838001178555620006a5565b82800160010185558215620006a5579182015b82811115620006a457825182559160200191906001019062000687565b5b509050620006b49190620006b8565b5090565b620006dd91905b80821115620006d9576000816000905550600101620006bf565b5090565b90565b60805160601c615fc562000703600039806134b3528061359c5250615fc56000f3fe608060405234801561001057600080fd5b50600436106102835760003560e01c80636352211e1161015c578063a22cb465116100ce578063d4c10e4611610087578063d4c10e4614611176578063d547741f14611266578063e63ab1e9146112b4578063e6c0d714146112d2578063e985e9c51461132e578063f2fde38b146113aa57610284565b8063a22cb46514610ddf578063b5900eea14610e2f578063b88d4fde14610e4d578063c87b56dd14610f52578063ca15c87314610ff9578063ccb4bcb61461103b57610284565b80638456cb59116101205780638456cb5914610c0c5780638da5cb5b14610c165780639010d07c14610c6057806391d1485414610cd857806395d89b4114610d3e578063a217fddf14610dc157610284565b80636352211e14610a9b5780636c0360eb14610b095780636cdd0a1614610b8c57806370a0823114610baa578063715018a614610c0257610284565b806336568abe116101f55780634de46fd0116101b95780634de46fd0146108bc5780634f6ccce7146108fe57806355de28ae1461094057806355f804b3146109865780635c975abb14610a175780635ddb084514610a3957610284565b806336568abe1461076c5780633f4ba83a146107ba57806342842e0e146107c457806342966c68146108325780634ba360ba1461086057610284565b806318160ddd1161024757806318160ddd1461046f57806323b872dd1461048d578063248a9ca3146104fb5780632f2ff15d1461053d5780632f745c591461058b57806331543cf4146105ed57610284565b806301ffc9a71461028957806304523af1146102ee57806306fdde0314610330578063081812fc146103b3578063095ea7b31461042157610284565b5b600080fd5b6102d46004803603602081101561029f57600080fd5b8101908080357bffffffffffffffffffffffffffffffffffffffffffffffffffffffff191690602001909291905050506113ee565b604051808215151515815260200191505060405180910390f35b61031a6004803603602081101561030457600080fd5b8101908080359060200190929190505050611456565b6040518082815260200191505060405180910390f35b610338611570565b6040518080602001828103825283818151815260200191508051906020019080838360005b8381101561037857808201518184015260208101905061035d565b50505050905090810190601f1680156103a55780820380516001836020036101000a031916815260200191505b509250505060405180910390f35b6103df600480360360208110156103c957600080fd5b8101908080359060200190929190505050611612565b604051808273ffffffffffffffffffffffffffffffffffffffff1673ffffffffffffffffffffffffffffffffffffffff16815260200191505060405180910390f35b61046d6004803603604081101561043757600080fd5b81019080803573ffffffffffffffffffffffffffffffffffffffff169060200190929190803590602001909291905050506116ad565b005b6104776117f1565b6040518082815260200191505060405180910390f35b6104f9600480360360608110156104a357600080fd5b81019080803573ffffffffffffffffffffffffffffffffffffffff169060200190929190803573ffffffffffffffffffffffffffffffffffffffff16906020019092919080359060200190929190505050611802565b005b6105276004803603602081101561051157600080fd5b8101908080359060200190929190505050611878565b6040518082815260200191505060405180910390f35b6105896004803603604081101561055357600080fd5b8101908080359060200190929190803573ffffffffffffffffffffffffffffffffffffffff169060200190929190505050611898565b005b6105d7600480360360408110156105a157600080fd5b81019080803573ffffffffffffffffffffffffffffffffffffffff16906020019092919080359060200190929190505050611922565b6040518082815260200191505060405180910390f35b6106196004803603602081101561060357600080fd5b810190808035906020019092919050505061197d565b60405180806020018060200180602001848103845287818151815260200191508051906020019080838360005b83811015610661578082015181840152602081019050610646565b50505050905090810190601f16801561068e5780820380516001836020036101000a031916815260200191505b50848103835286818151815260200191508051906020019080838360005b838110156106c75780820151818401526020810190506106ac565b50505050905090810190601f1680156106f45780820380516001836020036101000a031916815260200191505b50848103825285818151815260200191508051906020019080838360005b8381101561072d578082015181840152602081019050610712565b50505050905090810190601f16801561075a5780820380516001836020036101000a031916815260200191505b50965050505050505060405180910390f35b6107b86004803603604081101561078257600080fd5b8101908080359060200190929190803573ffffffffffffffffffffffffffffffffffffffff169060200190929190505050611d08565b005b6107c2611da1565b005b610830600480360360608110156107da57600080fd5b81019080803573ffffffffffffffffffffffffffffffffffffffff169060200190929190803573ffffffffffffffffffffffffffffffffffffffff16906020019092919080359060200190929190505050611e3f565b005b61085e6004803603602081101561084857600080fd5b8101908080359060200190929190505050611e5f565b005b6108a26004803603602081101561087657600080fd5b81019080803573ffffffffffffffffffffffffffffffffffffffff169060200190929190505050611ed1565b604051808215151515815260200191505060405180910390f35b6108e8600480360360208110156108d257600080fd5b810190808035906020019092919050505061204b565b6040518082815260200191505060405180910390f35b61092a6004803603602081101561091457600080fd5b8101908080359060200190929190505050612166565b6040518082815260200191505060405180910390f35b61096c6004803603602081101561095657600080fd5b8101908080359060200190929190505050612189565b604051808215151515815260200191505060405180910390f35b6109fd6004803603602081101561099c57600080fd5b81019080803590602001906401000000008111156109b957600080fd5b8201836020820111156109cb57600080fd5b803590602001918460018302840111640100000000831117156109ed57600080fd5b909192939192939050505061226c565b604051808215151515815260200191505060405180910390f35b610a1f61238e565b604051808215151515815260200191505060405180910390f35b610a8560048036036040811015610a4f57600080fd5b8101908080359060200190929190803573ffffffffffffffffffffffffffffffffffffffff1690602001909291905050506123a5565b6040518082815260200191505060405180910390f35b610ac760048036036020811015610ab157600080fd5b81019080803590602001909291905050506123ca565b604051808273ffffffffffffffffffffffffffffffffffffffff1673ffffffffffffffffffffffffffffffffffffffff16815260200191505060405180910390f35b610b11612401565b6040518080602001828103825283818151815260200191508051906020019080838360005b83811015610b51578082015181840152602081019050610b36565b50505050905090810190601f168015610b7e5780820380516001836020036101000a031916815260200191505b509250505060405180910390f35b610b946124a3565b6040518082815260200191505060405180910390f35b610bec60048036036020811015610bc057600080fd5b81019080803573ffffffffffffffffffffffffffffffffffffffff1690602001909291905050506124dc565b6040518082815260200191505060405180910390f35b610c0a6125b1565b005b610c14612739565b005b610c1e6127d7565b604051808273ffffffffffffffffffffffffffffffffffffffff1673ffffffffffffffffffffffffffffffffffffffff16815260200191505060405180910390f35b610c9660048036036040811015610c7657600080fd5b810190808035906020019092919080359060200190929190505050612800565b604051808273ffffffffffffffffffffffffffffffffffffffff1673ffffffffffffffffffffffffffffffffffffffff16815260200191505060405180910390f35b610d2460048036036040811015610cee57600080fd5b8101908080359060200190929190803573ffffffffffffffffffffffffffffffffffffffff169060200190929190505050612832565b604051808215151515815260200191505060405180910390f35b610d46612864565b6040518080602001828103825283818151815260200191508051906020019080838360005b83811015610d86578082015181840152602081019050610d6b565b50505050905090810190601f168015610db35780820380516001836020036101000a031916815260200191505b509250505060405180910390f35b610dc9612906565b6040518082815260200191505060405180910390f35b610e2d60048036036040811015610df557600080fd5b81019080803573ffffffffffffffffffffffffffffffffffffffff16906020019092919080351515906020019092919050505061290d565b005b610e37612ac5565b6040518082815260200191505060405180910390f35b610f5060048036036080811015610e6357600080fd5b81019080803573ffffffffffffffffffffffffffffffffffffffff169060200190929190803573ffffffffffffffffffffffffffffffffffffffff1690602001909291908035906020019092919080359060200190640100000000811115610eca57600080fd5b820183602082011115610edc57600080fd5b80359060200191846001830284011164010000000083111715610efe57600080fd5b91908080601f016020809104026020016040519081016040528093929190818152602001838380828437600081840152601f19601f820116905080830192505050505050509192919290505050612b55565b005b610f7e60048036036020811015610f6857600080fd5b8101908080359060200190929190505050612bcd565b6040518080602001828103825283818151815260200191508051906020019080838360005b83811015610fbe578082015181840152602081019050610fa3565b50505050905090810190601f168015610feb5780820380516001836020036101000a031916815260200191505b509250505060405180910390f35b6110256004803603602081101561100f57600080fd5b8101908080359060200190929190505050612eb6565b6040518082815260200191505060405180910390f35b61115c6004803603606081101561105157600080fd5b810190808035906020019064010000000081111561106e57600080fd5b82018360208201111561108057600080fd5b803590602001918460018302840111640100000000831117156110a257600080fd5b9091929391929390803590602001906401000000008111156110c357600080fd5b8201836020820111156110d557600080fd5b803590602001918460018302840111640100000000831117156110f757600080fd5b90919293919293908035906020019064010000000081111561111857600080fd5b82018360208201111561112a57600080fd5b8035906020019184600183028401116401000000008311171561114c57600080fd5b9091929391929390505050612edd565b604051808215151515815260200191505060405180910390f35b61124c6004803603606081101561118c57600080fd5b81019080803590602001906401000000008111156111a957600080fd5b8201836020820111156111bb57600080fd5b803590602001918460208302840111640100000000831117156111dd57600080fd5b9091929391929390803590602001909291908035906020019064010000000081111561120857600080fd5b82018360208201111561121a57600080fd5b8035906020019184600183028401116401000000008311171561123c57600080fd5b90919293919293905050506132ec565b604051808215151515815260200191505060405180910390f35b6112b26004803603604081101561127c57600080fd5b8101908080359060200190929190803573ffffffffffffffffffffffffffffffffffffffff16906020019092919050505061393e565b005b6112bc6139c8565b6040518082815260200191505060405180910390f35b611314600480360360208110156112e857600080fd5b81019080803573ffffffffffffffffffffffffffffffffffffffff169060200190929190505050613a01565b604051808215151515815260200191505060405180910390f35b6113906004803603604081101561134457600080fd5b81019080803573ffffffffffffffffffffffffffffffffffffffff169060200190929190803573ffffffffffffffffffffffffffffffffffffffff169060200190929190505050613b7c565b604051808215151515815260200191505060405180910390f35b6113ec600480360360208110156113c057600080fd5b81019080803573ffffffffffffffffffffffffffffffffffffffff169060200190929190505050613c10565b005b600060036000837bffffffffffffffffffffffffffffffffffffffffffffffffffffffff19167bffffffffffffffffffffffffffffffffffffffffffffffffffffffff1916815260200190815260200160002060009054906101000a900460ff169050919050565b6000600260009054906101000a900460ff16156114db576040517f08c379a00000000000000000000000000000000000000000000000000000000081526004018080602001828103825260108152602001807f5061757361626c653a207061757365640000000000000000000000000000000081525060200191505060405180910390fd5b81600f8054905011611555576040517f08c379a00000000000000000000000000000000000000000000000000000000081526004018080602001828103825260188152602001807f4e6f2074656d706c61746520776974682074686174206964000000000000000081525060200191505060405180910390fd5b60106000838152602001908152602001600020549050919050565b606060098054600181600116156101000203166002900480601f0160208091040260200160405190810160405280929190818152602001828054600181600116156101000203166002900480156116085780601f106115dd57610100808354040283529160200191611608565b820191906000526020600020905b8154815290600101906020018083116115eb57829003601f168201915b5050505050905090565b600061161d82613e4d565b611672576040517f08c379a000000000000000000000000000000000000000000000000000000000815260040180806020018281038252602c815260200180615e03602c913960400191505060405180910390fd5b6007600083815260200190815260200160002060009054906101000a900473ffffffffffffffffffffffffffffffffffffffff169050919050565b60006116b8826123ca565b90508073ffffffffffffffffffffffffffffffffffffffff168373ffffffffffffffffffffffffffffffffffffffff16141561173f576040517f08c379a0000000000000000000000000000000000000000000000000000000008152600401808060200182810382526021815260200180615edf6021913960400191505060405180910390fd5b8073ffffffffffffffffffffffffffffffffffffffff1661175e613e6a565b73ffffffffffffffffffffffffffffffffffffffff16148061178d575061178c81611787613e6a565b613b7c565b5b6117e2576040517f08c379a0000000000000000000000000000000000000000000000000000000008152600401808060200182810382526038815260200180615d566038913960400191505060405180910390fd5b6117ec8383613e72565b505050565b60006117fd6005613f2b565b905090565b61181361180d613e6a565b82613f40565b611868576040517f08c379a0000000000000000000000000000000000000000000000000000000008152600401808060200182810382526031815260200180615f006031913960400191505060405180910390fd5b611873838383614034565b505050565b600060016000838152602001908152602001600020600201549050919050565b6118bf60016000848152602001908152602001600020600201546118ba613e6a565b612832565b611914576040517f08c379a000000000000000000000000000000000000000000000000000000000815260040180806020018281038252602f815260200180615c21602f913960400191505060405180910390fd5b61191e82826140b8565b5050565b600061197582600460008673ffffffffffffffffffffffffffffffffffffffff1673ffffffffffffffffffffffffffffffffffffffff16815260200190815260200160002061414c90919063ffffffff16565b905092915050565b6060806060600260009054906101000a900460ff1615611a05576040517f08c379a00000000000000000000000000000000000000000000000000000000081526004018080602001828103825260108152602001807f5061757361626c653a207061757365640000000000000000000000000000000081525060200191505060405180910390fd5b83600f8054905011611a7f576040517f08c379a00000000000000000000000000000000000000000000000000000000081526004018080602001828103825260188152602001807f4e6f2074656d706c61746520776974682074686174206964000000000000000081525060200191505060405180910390fd5b611a87615ad3565b600f8581548110611a9457fe5b9060005260206000209060040201604051806080016040529081600082018054600181600116156101000203166002900480601f016020809104026020016040519081016040528092919081815260200182805460018160011615610100020316600290048015611b465780601f10611b1b57610100808354040283529160200191611b46565b820191906000526020600020905b815481529060010190602001808311611b2957829003601f168201915b50505050508152602001600182018054600181600116156101000203166002900480601f016020809104026020016040519081016040528092919081815260200182805460018160011615610100020316600290048015611be85780601f10611bbd57610100808354040283529160200191611be8565b820191906000526020600020905b815481529060010190602001808311611bcb57829003601f168201915b50505050508152602001600282018054600181600116156101000203166002900480601f016020809104026020016040519081016040528092919081815260200182805460018160011615610100020316600290048015611c8a5780601f10611c5f57610100808354040283529160200191611c8a565b820191906000526020600020905b815481529060010190602001808311611c6d57829003601f168201915b505050505081526020016003820160009054906101000a900473ffffffffffffffffffffffffffffffffffffffff1673ffffffffffffffffffffffffffffffffffffffff1673ffffffffffffffffffffffffffffffffffffffff16815250509050806000015181602001518260400151935093509350509193909250565b611d10613e6a565b73ffffffffffffffffffffffffffffffffffffffff168173ffffffffffffffffffffffffffffffffffffffff1614611d93576040517f08c379a000000000000000000000000000000000000000000000000000000000815260040180806020018281038252602f815260200180615f61602f913960400191505060405180910390fd5b611d9d8282614166565b5050565b611de060405180807f5041555345525f524f4c45000000000000000000000000000000000000000000815250600b019050604051809103902033612832565b611e35576040517f08c379a000000000000000000000000000000000000000000000000000000000815260040180806020018281038252602e815260200180615c50602e913960400191505060405180910390fd5b611e3d6141fa565b565b611e5a83838360405180602001604052806000815250612b55565b505050565b611e70611e6a613e6a565b82613f40565b611ec5576040517f08c379a0000000000000000000000000000000000000000000000000000000008152600401808060200182810382526030815260200180615f316030913960400191505060405180910390fd5b611ece81614303565b50565b6000611ee06000801b33612832565b611f52576040517f08c379a00000000000000000000000000000000000000000000000000000000081526004018080602001828103825260168152602001807f43616c6c6572206973206e6f7420616e2061646d696e0000000000000000000081525060200191505060405180910390fd5b611f9160405180807f54454d504c415445525f524f4c45000000000000000000000000000000000000815250600e019050604051809103902083612832565b612003576040517f08c379a00000000000000000000000000000000000000000000000000000000081526004018080602001828103825260168152602001807f677579206973206e6f7420612074656d706c617465720000000000000000000081525060200191505060405180910390fd5b61204260405180807f54454d504c415445525f524f4c45000000000000000000000000000000000000815250600e01905060405180910390208361393e565b60019050919050565b6000600260009054906101000a900460ff16156120d0576040517f08c379a00000000000000000000000000000000000000000000000000000000081526004018080602001828103825260108152602001807f5061757361626c653a207061757365640000000000000000000000000000000081525060200191505060405180910390fd5b6120d982613e4d565b61214b576040517f08c379a000000000000000000000000000000000000000000000000000000000815260040180806020018281038252601d8152602001807f4552433732313a204e6f20746f6b656e2077697468207468617420696400000081525060200191505060405180910390fd5b60116000838152602001908152602001600020549050919050565b60008061217d83600561443d90919063ffffffff16565b50905080915050919050565b6000600260009054906101000a900460ff161561220e576040517f08c379a00000000000000000000000000000000000000000000000000000000081526004018080602001828103825260108152602001807f5061757361626c653a207061757365640000000000000000000000000000000081525060200191505060405180910390fd5b60006122198361204b565b90506122426001601060008481526020019081526020016000205461446c90919063ffffffff16565b601060008381526020019081526020016000208190555061226283611e5f565b6001915050919050565b6000612276613e6a565b73ffffffffffffffffffffffffffffffffffffffff166000809054906101000a900473ffffffffffffffffffffffffffffffffffffffff1673ffffffffffffffffffffffffffffffffffffffff1614612337576040517f08c379a00000000000000000000000000000000000000000000000000000000081526004018080602001828103825260208152602001807f4f776e61626c653a2063616c6c6572206973206e6f7420746865206f776e657281525060200191505060405180910390fd5b61238483838080601f016020809104026020016040519081016040528093929190818152602001838380828437600081840152601f19601f820116905080830192505050505050506144b6565b6001905092915050565b6000600260009054906101000a900460ff16905090565b600e602052816000526040600020602052806000526040600020600091509150505481565b60006123fa82604051806060016040528060298152602001615db86029913960056144d09092919063ffffffff16565b9050919050565b6060600c8054600181600116156101000203166002900480601f0160208091040260200160405190810160405280929190818152602001828054600181600116156101000203166002900480156124995780601f1061246e57610100808354040283529160200191612499565b820191906000526020600020905b81548152906001019060200180831161247c57829003601f168201915b5050505050905090565b60405180807f54454d504c415445525f524f4c45000000000000000000000000000000000000815250600e019050604051809103902081565b60008073ffffffffffffffffffffffffffffffffffffffff168273ffffffffffffffffffffffffffffffffffffffff161415612563576040517f08c379a000000000000000000000000000000000000000000000000000000000815260040180806020018281038252602a815260200180615d8e602a913960400191505060405180910390fd5b6125aa600460008473ffffffffffffffffffffffffffffffffffffffff1673ffffffffffffffffffffffffffffffffffffffff1681526020019081526020016000206144ef565b9050919050565b6125b9613e6a565b73ffffffffffffffffffffffffffffffffffffffff166000809054906101000a900473ffffffffffffffffffffffffffffffffffffffff1673ffffffffffffffffffffffffffffffffffffffff161461267a576040517f08c379a00000000000000000000000000000000000000000000000000000000081526004018080602001828103825260208152602001807f4f776e61626c653a2063616c6c6572206973206e6f7420746865206f776e657281525060200191505060405180910390fd5b600073ffffffffffffffffffffffffffffffffffffffff166000809054906101000a900473ffffffffffffffffffffffffffffffffffffffff1673ffffffffffffffffffffffffffffffffffffffff167f8be0079c531659141344cd1fd0a4f28419497f9722a3daafe3b4186f6b6457e060405160405180910390a360008060006101000a81548173ffffffffffffffffffffffffffffffffffffffff021916908373ffffffffffffffffffffffffffffffffffffffff160217905550565b61277860405180807f5041555345525f524f4c45000000000000000000000000000000000000000000815250600b019050604051809103902033612832565b6127cd576040517f08c379a000000000000000000000000000000000000000000000000000000000815260040180806020018281038252602c815260200180615e5b602c913960400191505060405180910390fd5b6127d5614504565b565b60008060009054906101000a900473ffffffffffffffffffffffffffffffffffffffff16905090565b600061282a826001600086815260200190815260200160002060000161460e90919063ffffffff16565b905092915050565b600061285c826001600086815260200190815260200160002060000161462890919063ffffffff16565b905092915050565b6060600a8054600181600116156101000203166002900480601f0160208091040260200160405190810160405280929190818152602001828054600181600116156101000203166002900480156128fc5780601f106128d1576101008083540402835291602001916128fc565b820191906000526020600020905b8154815290600101906020018083116128df57829003601f168201915b5050505050905090565b6000801b81565b612915613e6a565b73ffffffffffffffffffffffffffffffffffffffff168273ffffffffffffffffffffffffffffffffffffffff1614156129b6576040517f08c379a00000000000000000000000000000000000000000000000000000000081526004018080602001828103825260198152602001807f4552433732313a20617070726f766520746f2063616c6c65720000000000000081525060200191505060405180910390fd5b80600860006129c3613e6a565b73ffffffffffffffffffffffffffffffffffffffff1673ffffffffffffffffffffffffffffffffffffffff16815260200190815260200160002060008473ffffffffffffffffffffffffffffffffffffffff1673ffffffffffffffffffffffffffffffffffffffff16815260200190815260200160002060006101000a81548160ff0219169083151502179055508173ffffffffffffffffffffffffffffffffffffffff16612a70613e6a565b73ffffffffffffffffffffffffffffffffffffffff167f17307eab39ab6107e8899845ad3d59bd9653f200f220920489ca2b5937696c3183604051808215151515815260200191505060405180910390a35050565b6000600260009054906101000a900460ff1615612b4a576040517f08c379a00000000000000000000000000000000000000000000000000000000081526004018080602001828103825260108152602001807f5061757361626c653a207061757365640000000000000000000000000000000081525060200191505060405180910390fd5b600f80549050905090565b612b66612b60613e6a565b83613f40565b612bbb576040517f08c379a0000000000000000000000000000000000000000000000000000000008152600401808060200182810382526031815260200180615f006031913960400191505060405180910390fd5b612bc784848484614658565b50505050565b6060612bd882613e4d565b612c2d576040517f08c379a000000000000000000000000000000000000000000000000000000000815260040180806020018281038252602f815260200180615eb0602f913960400191505060405180910390fd5b6060600b60008481526020019081526020016000208054600181600116156101000203166002900480601f016020809104026020016040519081016040528092919081815260200182805460018160011615610100020316600290048015612cd65780601f10612cab57610100808354040283529160200191612cd6565b820191906000526020600020905b815481529060010190602001808311612cb957829003601f168201915b505050505090506000600c8054600181600116156101000203166002900490501415612d055780915050612eb1565b600081511115612dde57600c816040516020018083805460018160011615610100020316600290048015612d705780601f10612d4e576101008083540402835291820191612d70565b820191906000526020600020905b815481529060010190602001808311612d5c575b505082805190602001908083835b60208310612da15780518252602082019150602081019050602083039250612d7e565b6001836020036101000a03801982511681845116808217855250505050505090500192505050604051602081830303815290604052915050612eb1565b600c612de9846146ca565b6040516020018083805460018160011615610100020316600290048015612e475780601f10612e25576101008083540402835291820191612e47565b820191906000526020600020905b815481529060010190602001808311612e33575b505082805190602001908083835b60208310612e785780518252602082019150602081019050602083039250612e55565b6001836020036101000a038019825116818451168082178552505050505050905001925050506040516020818303038152906040529150505b919050565b6000612ed660016000848152602001908152602001600020600001614811565b9050919050565b6000612f1e60405180807f54454d504c415445525f524f4c45000000000000000000000000000000000000815250600e019050604051809103902033612832565b612f90576040517f08c379a000000000000000000000000000000000000000000000000000000000815260040180806020018281038252601e8152602001807f43616c6c6572206973206e6f7420612074656d706c617465206f776e6572000081525060200191505060405180910390fd5b600260009054906101000a900460ff1615613013576040517f08c379a00000000000000000000000000000000000000000000000000000000081526004018080602001828103825260108152602001807f5061757361626c653a207061757365640000000000000000000000000000000081525060200191505060405180910390fd5b61301b615ad3565b604051806080016040528089898080601f016020809104026020016040519081016040528093929190818152602001838380828437600081840152601f19601f82011690508083019250505050505050815260200187878080601f016020809104026020016040519081016040528093929190818152602001838380828437600081840152601f19601f82011690508083019250505050505050815260200185858080601f016020809104026020016040519081016040528093929190818152602001838380828437600081840152601f19601f8201169050808301925050505050505081526020013373ffffffffffffffffffffffffffffffffffffffff168152509050600f8190806001815401808255809150506001900390600052602060002090600402016000909190919091506000820151816000019080519060200190613168929190615b11565b506020820151816001019080519060200190613185929190615b11565b5060408201518160020190805190602001906131a2929190615b11565b5060608201518160030160006101000a81548173ffffffffffffffffffffffffffffffffffffffff021916908373ffffffffffffffffffffffffffffffffffffffff160217905550505060006132076001600f8054905061446c90919063ffffffff16565b90507f335347d3c0abbe88e13ee17ff9db9ff2aabea3e099f1ffd10807e9c7f9cf82ad818a8a8a8a8a8a6040518088815260200180602001806020018060200184810384528a8a82818152602001925080828437600081840152601f19601f8201169050808301925050508481038352888882818152602001925080828437600081840152601f19601f8201169050808301925050508481038252868682818152602001925080828437600081840152601f19601f8201169050808301925050509a505050505050505050505060405180910390a16001925050509695505050505050565b6000600260009054906101000a900460ff1615613371576040517f08c379a00000000000000000000000000000000000000000000000000000000081526004018080602001828103825260108152602001807f5061757361626c653a207061757365640000000000000000000000000000000081525060200191505060405180910390fd5b83600f80549050116133eb576040517f08c379a00000000000000000000000000000000000000000000000000000000081526004018080602001828103825260188152602001807f4e6f2074656d706c61746520776974682074686174206964000000000000000081525060200191505060405180910390fd5b6000600e600086815260200190815260200160002060003373ffffffffffffffffffffffffffffffffffffffff1673ffffffffffffffffffffffffffffffffffffffff16815260200190815260200160002054146134b1576040517f08c379a00000000000000000000000000000000000000000000000000000000081526004018080602001828103825260188152602001807f426164676520616c72656164792061637469766174656421000000000000000081525060200191505060405180910390fd5b7f000000000000000000000000000000000000000000000000000000000000000073ffffffffffffffffffffffffffffffffffffffff1663ebfa62b985336040518363ffffffff1660e01b8152600401808381526020018273ffffffffffffffffffffffffffffffffffffffff1673ffffffffffffffffffffffffffffffffffffffff1681526020019250505060206040518083038186803b15801561355657600080fd5b505afa15801561356a573d6000803e3d6000fd5b505050506040513d602081101561358057600080fd5b8101908080519060200190929190505050806136ee57506136ed7f000000000000000000000000000000000000000000000000000000000000000073ffffffffffffffffffffffffffffffffffffffff1663c2b40ae4866040518263ffffffff1660e01b81526004018082815260200191505060206040518083038186803b15801561360b57600080fd5b505afa15801561361f573d6000803e3d6000fd5b505050506040513d602081101561363557600080fd5b810190808051906020019092919050505033604051602001808273ffffffffffffffffffffffffffffffffffffffff1673ffffffffffffffffffffffffffffffffffffffff1660601b815260140191505060405160208183030381529060405280519060200120888880806020026020016040519081016040528093929190818152602001838360200280828437600081840152601f19601f820116905080830192505050505050506148269092919063ffffffff16565b5b613760576040517f08c379a00000000000000000000000000000000000000000000000000000000081526004018080602001828103825260188152602001807f43616c6c6572206973206e6f7420612072656465656d6572000000000000000081525060200191505060405180910390fd5b836011600061376f600d6148de565b8152602001908152602001600020819055506137a8600160106000878152602001908152602001600020546148ec90919063ffffffff16565b60106000868152602001908152602001600020819055506001600e600086815260200190815260200160002060003373ffffffffffffffffffffffffffffffffffffffff1673ffffffffffffffffffffffffffffffffffffffff16815260200190815260200160002081905550613820338484614974565b613892576040517f08c379a00000000000000000000000000000000000000000000000000000000081526004018080602001828103825260188152602001807f4552433732313a20546f6b656e206e6f74206d696e746564000000000000000081525060200191505060405180910390fd5b7ffcdd666d85b3ffd083437c2d6d3fb35552e00683b0c6e248e30b534990f5a98e33858585604051808573ffffffffffffffffffffffffffffffffffffffff1673ffffffffffffffffffffffffffffffffffffffff168152602001848152602001806020018281038252848482818152602001925080828437600081840152601f19601f8201169050808301925050509550505050505060405180910390a16001905095945050505050565b6139656001600084815260200190815260200160002060020154613960613e6a565b612832565b6139ba576040517f08c379a0000000000000000000000000000000000000000000000000000000008152600401808060200182810382526030815260200180615d266030913960400191505060405180910390fd5b6139c48282614166565b5050565b60405180807f5041555345525f524f4c45000000000000000000000000000000000000000000815250600b019050604051809103902081565b6000613a106000801b33612832565b613a82576040517f08c379a00000000000000000000000000000000000000000000000000000000081526004018080602001828103825260168152602001807f43616c6c6572206973206e6f7420616e2061646d696e0000000000000000000081525060200191505060405180910390fd5b613ac160405180807f54454d504c415445525f524f4c45000000000000000000000000000000000000815250600e019050604051809103902083612832565b15613b34576040517f08c379a000000000000000000000000000000000000000000000000000000000815260040180806020018281038252601a8152602001807f67757920697320616c726561647920612074656d706c6174657200000000000081525060200191505060405180910390fd5b613b7360405180807f54454d504c415445525f524f4c45000000000000000000000000000000000000815250600e019050604051809103902083611898565b60019050919050565b6000600860008473ffffffffffffffffffffffffffffffffffffffff1673ffffffffffffffffffffffffffffffffffffffff16815260200190815260200160002060008373ffffffffffffffffffffffffffffffffffffffff1673ffffffffffffffffffffffffffffffffffffffff16815260200190815260200160002060009054906101000a900460ff16905092915050565b613c18613e6a565b73ffffffffffffffffffffffffffffffffffffffff166000809054906101000a900473ffffffffffffffffffffffffffffffffffffffff1673ffffffffffffffffffffffffffffffffffffffff1614613cd9576040517f08c379a00000000000000000000000000000000000000000000000000000000081526004018080602001828103825260208152602001807f4f776e61626c653a2063616c6c6572206973206e6f7420746865206f776e657281525060200191505060405180910390fd5b600073ffffffffffffffffffffffffffffffffffffffff168173ffffffffffffffffffffffffffffffffffffffff161415613d5f576040517f08c379a0000000000000000000000000000000000000000000000000000000008152600401808060200182810382526026815260200180615cb06026913960400191505060405180910390fd5b8073ffffffffffffffffffffffffffffffffffffffff166000809054906101000a900473ffffffffffffffffffffffffffffffffffffffff1673ffffffffffffffffffffffffffffffffffffffff167f8be0079c531659141344cd1fd0a4f28419497f9722a3daafe3b4186f6b6457e060405160405180910390a3806000806101000a81548173ffffffffffffffffffffffffffffffffffffffff021916908373ffffffffffffffffffffffffffffffffffffffff16021790555050565b6000613e45836000018373ffffffffffffffffffffffffffffffffffffffff1660001b6149f5565b905092915050565b6000613e63826005614a6590919063ffffffff16565b9050919050565b600033905090565b816007600083815260200190815260200160002060006101000a81548173ffffffffffffffffffffffffffffffffffffffff021916908373ffffffffffffffffffffffffffffffffffffffff160217905550808273ffffffffffffffffffffffffffffffffffffffff16613ee5836123ca565b73ffffffffffffffffffffffffffffffffffffffff167f8c5be1e5ebec7d5bd14f71427d1e84f3dd0314c0f7b2291e5b200ac8c7c3b92560405160405180910390a45050565b6000613f3982600001614a7f565b9050919050565b6000613f4b82613e4d565b613fa0576040517f08c379a000000000000000000000000000000000000000000000000000000000815260040180806020018281038252602c815260200180615cfa602c913960400191505060405180910390fd5b6000613fab836123ca565b90508073ffffffffffffffffffffffffffffffffffffffff168473ffffffffffffffffffffffffffffffffffffffff16148061401a57508373ffffffffffffffffffffffffffffffffffffffff1661400284611612565b73ffffffffffffffffffffffffffffffffffffffff16145b8061402b575061402a8185613b7c565b5b91505092915050565b60006140a8576040517f08c379a000000000000000000000000000000000000000000000000000000000815260040180806020018281038252601f8152602001807f4552433732313a20746f6b656e207472616e736665722064697361626c65640081525060200191505060405180910390fd5b6140b3838383614a90565b505050565b6140e08160016000858152602001908152602001600020600001613e1d90919063ffffffff16565b15614148576140ed613e6a565b73ffffffffffffffffffffffffffffffffffffffff168173ffffffffffffffffffffffffffffffffffffffff16837f2f8788117e7eff1d82e926ec794901d17c78024a50270940304540a733656f0d60405160405180910390a45b5050565b600061415b8360000183614cd3565b60001c905092915050565b61418e8160016000858152602001908152602001600020600001614d5690919063ffffffff16565b156141f65761419b613e6a565b73ffffffffffffffffffffffffffffffffffffffff168173ffffffffffffffffffffffffffffffffffffffff16837ff6391f5c32d9c69d2a47ea670b442974b53935d1edc7fd64eb21e047a839171b60405160405180910390a45b5050565b600260009054906101000a900460ff1661427c576040517f08c379a00000000000000000000000000000000000000000000000000000000081526004018080602001828103825260148152602001807f5061757361626c653a206e6f742070617573656400000000000000000000000081525060200191505060405180910390fd5b6000600260006101000a81548160ff0219169083151502179055507f5db9ee0a495bf2e6ff9c91a7834c1ba4fdd244a5e8aa4e537bd38aeae4b073aa6142c0613e6a565b604051808273ffffffffffffffffffffffffffffffffffffffff1673ffffffffffffffffffffffffffffffffffffffff16815260200191505060405180910390a1565b600061430e826123ca565b905061431c81600084614d86565b614327600083613e72565b6000600b60008481526020019081526020016000208054600181600116156101000203166002900490501461437657600b600083815260200190815260200160002060006143759190615b91565b5b6143c782600460008473ffffffffffffffffffffffffffffffffffffffff1673ffffffffffffffffffffffffffffffffffffffff168152602001908152602001600020614d8b90919063ffffffff16565b506143dc826005614da590919063ffffffff16565b5081600073ffffffffffffffffffffffffffffffffffffffff168273ffffffffffffffffffffffffffffffffffffffff167fddf252ad1be2c89b69c2b068fc378daa952ba7f163c4a11628f55a4df523b3ef60405160405180910390a45050565b6000806000806144508660000186614dbf565b915091508160001c8160001c8090509350935050509250929050565b60006144ae83836040518060400160405280601e81526020017f536166654d6174683a207375627472616374696f6e206f766572666c6f770000815250614e58565b905092915050565b80600c90805190602001906144cc929190615b11565b5050565b60006144e3846000018460001b84614f18565b60001c90509392505050565b60006144fd8260000161500e565b9050919050565b600260009054906101000a900460ff1615614587576040517f08c379a00000000000000000000000000000000000000000000000000000000081526004018080602001828103825260108152602001807f5061757361626c653a207061757365640000000000000000000000000000000081525060200191505060405180910390fd5b6001600260006101000a81548160ff0219169083151502179055507f62e78cea01bee320cd4e420270b5ea74000d11b0c9f74754ebdbfc544b05a2586145cb613e6a565b604051808273ffffffffffffffffffffffffffffffffffffffff1673ffffffffffffffffffffffffffffffffffffffff16815260200191505060405180910390a1565b600061461d8360000183614cd3565b60001c905092915050565b6000614650836000018373ffffffffffffffffffffffffffffffffffffffff1660001b61501f565b905092915050565b614663848484614034565b61466f84848484615042565b6146c4576040517f08c379a0000000000000000000000000000000000000000000000000000000008152600401808060200182810382526032815260200180615c7e6032913960400191505060405180910390fd5b50505050565b60606000821415614712576040518060400160405280600181526020017f3000000000000000000000000000000000000000000000000000000000000000815250905061480c565b600082905060005b6000821461473c578080600101915050600a828161473457fe5b04915061471a565b60608167ffffffffffffffff8111801561475557600080fd5b506040519080825280601f01601f1916602001820160405280156147885781602001600182028036833780820191505090505b50905060006001830390508593505b6000841461480457600a84816147a957fe5b0660300160f81b828280600190039350815181106147c357fe5b60200101907effffffffffffffffffffffffffffffffffffffffffffffffffffffffffffff1916908160001a905350600a84816147fc57fe5b049350614797565b819450505050505b919050565b600061481f8260000161500e565b9050919050565b60008082905060008090505b85518110156148d057600086828151811061484957fe5b6020026020010151905080831161489057828160405160200180838152602001828152602001925050506040516020818303038152906040528051906020012092506148c2565b808360405160200180838152602001828152602001925050506040516020818303038152906040528051906020012092505b508080600101915050614832565b508381149150509392505050565b600081600001549050919050565b60008082840190508381101561496a576040517f08c379a000000000000000000000000000000000000000000000000000000000815260040180806020018281038252601b8152602001807f536166654d6174683a206164646974696f6e206f766572666c6f77000000000081525060200191505060405180910390fd5b8091505092915050565b600061498984614984600d6148de565b615287565b6149e0614996600d6148de565b84848080601f016020809104026020016040519081016040528093929190818152602001838380828437600081840152601f19601f8201169050808301925050505050505061547b565b6149ea600d615505565b600190509392505050565b6000614a01838361501f565b614a5a578260000182908060018154018082558091505060019003906000526020600020016000909190919091505582600001805490508360010160008481526020019081526020016000208190555060019050614a5f565b600090505b92915050565b6000614a77836000018360001b61551b565b905092915050565b600081600001805490509050919050565b8273ffffffffffffffffffffffffffffffffffffffff16614ab0826123ca565b73ffffffffffffffffffffffffffffffffffffffff1614614b1c576040517f08c379a0000000000000000000000000000000000000000000000000000000008152600401808060200182810382526029815260200180615e876029913960400191505060405180910390fd5b600073ffffffffffffffffffffffffffffffffffffffff168273ffffffffffffffffffffffffffffffffffffffff161415614ba2576040517f08c379a0000000000000000000000000000000000000000000000000000000008152600401808060200182810382526024815260200180615cd66024913960400191505060405180910390fd5b614bad838383614d86565b614bb8600082613e72565b614c0981600460008673ffffffffffffffffffffffffffffffffffffffff1673ffffffffffffffffffffffffffffffffffffffff168152602001908152602001600020614d8b90919063ffffffff16565b50614c5b81600460008573ffffffffffffffffffffffffffffffffffffffff1673ffffffffffffffffffffffffffffffffffffffff16815260200190815260200160002061553e90919063ffffffff16565b50614c72818360056155589092919063ffffffff16565b50808273ffffffffffffffffffffffffffffffffffffffff168473ffffffffffffffffffffffffffffffffffffffff167fddf252ad1be2c89b69c2b068fc378daa952ba7f163c4a11628f55a4df523b3ef60405160405180910390a4505050565b600081836000018054905011614d34576040517f08c379a0000000000000000000000000000000000000000000000000000000008152600401808060200182810382526022815260200180615bff6022913960400191505060405180910390fd5b826000018281548110614d4357fe5b9060005260206000200154905092915050565b6000614d7e836000018373ffffffffffffffffffffffffffffffffffffffff1660001b61558d565b905092915050565b505050565b6000614d9d836000018360001b61558d565b905092915050565b6000614db7836000018360001b615675565b905092915050565b60008082846000018054905011614e21576040517f08c379a0000000000000000000000000000000000000000000000000000000008152600401808060200182810382526022815260200180615de16022913960400191505060405180910390fd5b6000846000018481548110614e3257fe5b906000526020600020906002020190508060000154816001015492509250509250929050565b6000838311158290614f05576040517f08c379a00000000000000000000000000000000000000000000000000000000081526004018080602001828103825283818151815260200191508051906020019080838360005b83811015614eca578082015181840152602081019050614eaf565b50505050905090810190601f168015614ef75780820380516001836020036101000a031916815260200191505b509250505060405180910390fd5b5060008385039050809150509392505050565b60008084600101600085815260200190815260200160002054905060008114158390614fdf576040517f08c379a00000000000000000000000000000000000000000000000000000000081526004018080602001828103825283818151815260200191508051906020019080838360005b83811015614fa4578082015181840152602081019050614f89565b50505050905090810190601f168015614fd15780820380516001836020036101000a031916815260200191505b509250505060405180910390fd5b50846000016001820381548110614ff257fe5b9060005260206000209060020201600101549150509392505050565b600081600001805490509050919050565b600080836001016000848152602001908152602001600020541415905092915050565b60006150638473ffffffffffffffffffffffffffffffffffffffff1661578e565b615070576001905061527f565b606061520663150b7a0260e01b615085613e6a565b888787604051602401808573ffffffffffffffffffffffffffffffffffffffff1673ffffffffffffffffffffffffffffffffffffffff1681526020018473ffffffffffffffffffffffffffffffffffffffff1673ffffffffffffffffffffffffffffffffffffffff16815260200183815260200180602001828103825283818151815260200191508051906020019080838360005b8381101561513557808201518184015260208101905061511a565b50505050905090810190601f1680156151625780820380516001836020036101000a031916815260200191505b5095505050505050604051602081830303815290604052907bffffffffffffffffffffffffffffffffffffffffffffffffffffffff19166020820180517bffffffffffffffffffffffffffffffffffffffffffffffffffffffff8381831617835250505050604051806060016040528060328152602001615c7e603291398773ffffffffffffffffffffffffffffffffffffffff166157d99092919063ffffffff16565b9050600081806020019051602081101561521f57600080fd5b8101908080519060200190929190505050905063150b7a0260e01b7bffffffffffffffffffffffffffffffffffffffffffffffffffffffff1916817bffffffffffffffffffffffffffffffffffffffffffffffffffffffff191614925050505b949350505050565b600073ffffffffffffffffffffffffffffffffffffffff168273ffffffffffffffffffffffffffffffffffffffff16141561532a576040517f08c379a00000000000000000000000000000000000000000000000000000000081526004018080602001828103825260208152602001807f4552433732313a206d696e7420746f20746865207a65726f206164647265737381525060200191505060405180910390fd5b61533381613e4d565b156153a6576040517f08c379a000000000000000000000000000000000000000000000000000000000815260040180806020018281038252601c8152602001807f4552433732313a20746f6b656e20616c7265616479206d696e7465640000000081525060200191505060405180910390fd5b6153b260008383614d86565b61540381600460008573ffffffffffffffffffffffffffffffffffffffff1673ffffffffffffffffffffffffffffffffffffffff16815260200190815260200160002061553e90919063ffffffff16565b5061541a818360056155589092919063ffffffff16565b50808273ffffffffffffffffffffffffffffffffffffffff16600073ffffffffffffffffffffffffffffffffffffffff167fddf252ad1be2c89b69c2b068fc378daa952ba7f163c4a11628f55a4df523b3ef60405160405180910390a45050565b61548482613e4d565b6154d9576040517f08c379a000000000000000000000000000000000000000000000000000000000815260040180806020018281038252602c815260200180615e2f602c913960400191505060405180910390fd5b80600b60008481526020019081526020016000209080519060200190615500929190615b11565b505050565b6001816000016000828254019250508190555050565b600080836001016000848152602001908152602001600020541415905092915050565b6000615550836000018360001b6149f5565b905092915050565b6000615584846000018460001b8473ffffffffffffffffffffffffffffffffffffffff1660001b6157f1565b90509392505050565b6000808360010160008481526020019081526020016000205490506000811461566957600060018203905060006001866000018054905003905060008660000182815481106155d857fe5b90600052602060002001549050808760000184815481106155f557fe5b906000526020600020018190555060018301876001016000838152602001908152602001600020819055508660000180548061562d57fe5b6001900381819060005260206000200160009055905586600101600087815260200190815260200160002060009055600194505050505061566f565b60009150505b92915050565b6000808360010160008481526020019081526020016000205490506000811461578257600060018203905060006001866000018054905003905060008660000182815481106156c057fe5b90600052602060002090600202019050808760000184815481106156e057fe5b906000526020600020906002020160008201548160000155600182015481600101559050506001830187600101600083600001548152602001908152602001600020819055508660000180548061573357fe5b6001900381819060005260206000209060020201600080820160009055600182016000905550509055866001016000878152602001908152602001600020600090556001945050505050615788565b60009150505b92915050565b60008060007fc5d2460186f7233c927e7db2dcc703c0e500b653ca82273b7bfad8045d85a47060001b9050833f91508082141580156157d057506000801b8214155b92505050919050565b60606157e884846000856158cd565b90509392505050565b6000808460010160008581526020019081526020016000205490506000811415615898578460000160405180604001604052808681526020018581525090806001815401808255809150506001900390600052602060002090600202016000909190919091506000820151816000015560208201518160010155505084600001805490508560010160008681526020019081526020016000208190555060019150506158c6565b828560000160018303815481106158ab57fe5b90600052602060002090600202016001018190555060009150505b9392505050565b60606158d88561578e565b61594a576040517f08c379a000000000000000000000000000000000000000000000000000000000815260040180806020018281038252601d8152602001807f416464726573733a2063616c6c20746f206e6f6e2d636f6e747261637400000081525060200191505060405180910390fd5b600060608673ffffffffffffffffffffffffffffffffffffffff1685876040518082805190602001908083835b6020831061599a5780518252602082019150602081019050602083039250615977565b6001836020036101000a03801982511681845116808217855250505050505090500191505060006040518083038185875af1925050503d80600081146159fc576040519150601f19603f3d011682016040523d82523d6000602084013e615a01565b606091505b50915091508115615a16578092505050615acb565b600081511115615a295780518082602001fd5b836040517f08c379a00000000000000000000000000000000000000000000000000000000081526004018080602001828103825283818151815260200191508051906020019080838360005b83811015615a90578082015181840152602081019050615a75565b50505050905090810190601f168015615abd5780820380516001836020036101000a031916815260200191505b509250505060405180910390fd5b949350505050565b6040518060800160405280606081526020016060815260200160608152602001600073ffffffffffffffffffffffffffffffffffffffff1681525090565b828054600181600116156101000203166002900490600052602060002090601f016020900481019282601f10615b5257805160ff1916838001178555615b80565b82800160010185558215615b80579182015b82811115615b7f578251825591602001919060010190615b64565b5b509050615b8d9190615bd9565b5090565b50805460018160011615610100020316600290046000825580601f10615bb75750615bd6565b601f016020900490600052602060002090810190615bd59190615bd9565b5b50565b615bfb91905b80821115615bf7576000816000905550600101615bdf565b5090565b9056fe456e756d657261626c655365743a20696e646578206f7574206f6620626f756e6473416363657373436f6e74726f6c3a2073656e646572206d75737420626520616e2061646d696e20746f206772616e744261646765466163746f72793a206d75737420686176652070617573657220726f6c6520746f20756e70617573654552433732313a207472616e7366657220746f206e6f6e20455243373231526563656976657220696d706c656d656e7465724f776e61626c653a206e6577206f776e657220697320746865207a65726f20616464726573734552433732313a207472616e7366657220746f20746865207a65726f20616464726573734552433732313a206f70657261746f7220717565727920666f72206e6f6e6578697374656e7420746f6b656e416363657373436f6e74726f6c3a2073656e646572206d75737420626520616e2061646d696e20746f207265766f6b654552433732313a20617070726f76652063616c6c6572206973206e6f74206f776e6572206e6f7220617070726f76656420666f7220616c6c4552433732313a2062616c616e636520717565727920666f7220746865207a65726f20616464726573734552433732313a206f776e657220717565727920666f72206e6f6e6578697374656e7420746f6b656e456e756d657261626c654d61703a20696e646578206f7574206f6620626f756e64734552433732313a20617070726f76656420717565727920666f72206e6f6e6578697374656e7420746f6b656e4552433732314d657461646174613a2055524920736574206f66206e6f6e6578697374656e7420746f6b656e4261646765466163746f72793a206d75737420686176652070617573657220726f6c6520746f2070617573654552433732313a207472616e73666572206f6620746f6b656e2074686174206973206e6f74206f776e4552433732314d657461646174613a2055524920717565727920666f72206e6f6e6578697374656e7420746f6b656e4552433732313a20617070726f76616c20746f2063757272656e74206f776e65724552433732313a207472616e736665722063616c6c6572206973206e6f74206f776e6572206e6f7220617070726f7665644552433732314275726e61626c653a2063616c6c6572206973206e6f74206f776e6572206e6f7220617070726f766564416363657373436f6e74726f6c3a2063616e206f6e6c792072656e6f756e636520726f6c657320666f722073656c66a264697066735822122061bc61aa9727e209cef83442dac2a8aba11a473757b39e122efd43075e22367d64736f6c634300060b003368747470733a2f2f6261646765732e6d616b657264616f2e636f6d2f746f6b656e2f",
  "immutableReferences": {
    "40": [
      {
        "length": 32,
        "start": 13491
      },
      {
        "length": 32,
        "start": 13724
      }
    ]
  },
  "source": "/// SPDX-License-Identifier: GPL-3.0\npragma solidity 0.6.11;\n\n/// @title Non-transferable Badges for Maker Ecosystem Activity, CDIP 18\n/// @author Nazzareno Massari @naszam\n/// @notice BadgeFactory to manage Templates and activate Non-transferable Badges by redeemers\n/// @dev See https://github.com/makerdao/community/issues/537\n/// @dev All function calls are currently implemented without side effects through TDD approach\n/// @dev OpenZeppelin library is used for secure contract development\n\nimport \"./BadgeRoles.sol\";\nimport \"@openzeppelin/contracts/utils/Counters.sol\";\nimport \"@openzeppelin/contracts/token/ERC721/ERC721Burnable.sol\";\nimport \"@openzeppelin/contracts/cryptography/MerkleProof.sol\";\n\n\ninterface MakerBadgesLike {\n\n    function verify(uint256 templateId, address guy) external view returns (bool);\n    function roots(uint256 templateId) external view returns (bytes32);\n\n}\n\ncontract BadgeFactory is BadgeRoles, ERC721Burnable {\n\n  /// @dev Libraries\n  using SafeMath for uint256;\n  using Counters for Counters.Counter;\n  using MerkleProof for bytes32[];\n\n  Counters.Counter private _tokenIdTracker;\n\n  MakerBadgesLike internal immutable maker;\n\n  mapping (uint256 => mapping (address => uint256)) public redeemed;\n\n  /// @dev Events\n  event NewTemplate(uint256 templateId, string name, string description, string image);\n  event BadgeActivated(address redeemer, uint256 templateId, string tokenURI);\n\n  struct BadgeTemplate {\n    string name;\n    string description;\n    string image;\n    address owner;\n  }\n\n  BadgeTemplate[] private templates;\n\n  /// @dev Supplies of each badge template\n  mapping(uint256 => uint256) private _templateQuantities;\n  mapping(uint256 => uint256) private _tokenTemplates;\n\n  constructor(address maker_)\n    ERC721(\"MakerBadges\", \"MAKER\")\n    public\n  {\n    _setBaseURI(\"https://badges.makerdao.com/token/\");\n    maker = MakerBadgesLike(maker_);\n\n  }\n\n  /// @notice Fallback function\n  /// @dev Added not payable to revert transactions not matching any other function which send value\n  fallback() external {\n    revert();\n  }\n\n  /// @notice Set the baseURI\n  /// @dev Update the baseURI specified in the constructor\n  /// @param baseURI New baseURI\n  /// @return True if the new baseURI is set\n  function setBaseURI(string calldata baseURI) external onlyOwner returns (bool) {\n    _setBaseURI(baseURI);\n    return true;\n  }\n\n  /// @notice Mint new token with tokenURI\n  /// @dev Use an auto-generated tokenId\n  /// @dev automatically concatenate baseURI with tokenURI via abi.encodePacked\n  /// @param to owner of the new token\n  /// @param tokenURI an <ipfs-hash>.json filename\n  /// @return True if the new token is minted\n  function _mintWithTokenURI(address to, string calldata tokenURI) private returns (bool) {\n    _mint(to, _tokenIdTracker.current());\n    _setTokenURI(_tokenIdTracker.current(), tokenURI);\n    _tokenIdTracker.increment();\n    return true;\n  }\n\n  /// @notice Getter function for templates\n  /// @dev Check if templateId exists\n  /// @param templateId Template Id of the template to return\n  /// @return name description image Of the specified templateId\n  function getTemplate(uint256 templateId) external view whenNotPaused returns (string memory name, string memory description, string memory image) {\n    require(templates.length > templateId, \"No template with that id\");\n    BadgeTemplate memory template = templates[templateId];\n    return (template.name, template.description, template.image);\n  }\n\n\n  /// @dev Templates\n\n  /// @notice Getter function for templates count\n  /// @dev Return lenght of template array\n  /// @return count The current number of templates\n  function getTemplatesCount() external view whenNotPaused returns (uint256 count) {\n    return templates.length;\n  }\n\n  /// @notice Create a new template\n  /// @dev Access restricted to only Templaters\n  /// @param name The name of the new template\n  /// @param description A description of the new template\n  /// @param image A filename of the new template\n  /// @return True If the new Template is Created\n  function createTemplate(string calldata name, string calldata description, string calldata image) external onlyTemplater whenNotPaused returns (bool) {\n\n    BadgeTemplate memory _newTemplate = BadgeTemplate({\n       name: name,\n       owner: msg.sender,\n       description: description,\n       image: image\n    });\n    templates.push(_newTemplate);\n    uint256 _templateId = templates.length.sub(1);\n    emit NewTemplate(_templateId, name, description, image);\n    return true;\n  }\n\n  /// @dev Badges\n\n  /// @notice Getter function for templateId associated with the tokenId\n  /// @dev Check if the tokenId exists\n  /// @param tokenId Token Id of the Badge\n  /// @return Template Id associated with the tokenId\n  function getBadgeTemplate(uint256 tokenId) public view whenNotPaused returns (uint256) {\n    require(_exists(tokenId), \"ERC721: No token with that id\");\n    return _tokenTemplates[tokenId];\n  }\n\n  /// @notice Getter function for number of badges associated with templateId\n  /// @dev Check if the template Id exists\n  /// @param templateId Template Id\n  /// @return Quantity of Badges associated with templateId\n  function getBadgeTemplateQuantity(uint256 templateId) external view whenNotPaused returns (uint256) {\n    require(templates.length > templateId, \"No template with that id\");\n    return _templateQuantities[templateId];\n  }\n\n  /// @notice Activate Badge by redeemers\n  /// @dev Verify if the caller is a redeemer\n  /// @param proof Merkle Proof\n  /// @param templateId Template Id\n  /// @param tokenURI Token URI\n  /// @return True If the new Badge is Activated\n  function activateBadge(bytes32[] calldata proof, uint256 templateId, string calldata tokenURI) external whenNotPaused returns (bool) {\n    require(templates.length > templateId, \"No template with that id\");\n    require(redeemed[templateId][msg.sender] == 0, \"Badge already activated!\");\n    require(maker.verify(templateId, msg.sender) || proof.verify(maker.roots(templateId), keccak256(abi.encodePacked(msg.sender))), \"Caller is not a redeemer\");\n\n    /// @dev Increase the quantities\n    _tokenTemplates[_tokenIdTracker.current()] = templateId;\n    _templateQuantities[templateId] = _templateQuantities[templateId].add(1);\n    redeemed[templateId][msg.sender] = 1;\n\n    require(_mintWithTokenURI(msg.sender, tokenURI), \"ERC721: Token not minted\");\n\n    emit BadgeActivated(msg.sender, templateId, tokenURI);\n    return true;\n  }\n\n  /// @notice Burn Badge\n  /// @dev burn() Check if the caller is approved or owner of the Badge\n  /// @param tokenId Token Id of the Badge to burn\n  /// @return True if the Badge has been burned\n  function burnBadge(uint256 tokenId) external whenNotPaused returns (bool){\n    uint256 templateId = getBadgeTemplate(tokenId);\n    _templateQuantities[templateId] = _templateQuantities[templateId].sub(1);\n    burn(tokenId);\n    return true;\n  }\n\n  /// @notice ERC721 _transfer() Disabled\n  /// @dev _transfer() has been overriden\n  /// @dev reverts on transferFrom() and safeTransferFrom()\n  function _transfer(address from, address to, uint256 tokenId) internal override {\n    require(false, \"ERC721: token transfer disabled\");\n    super._transfer(from, to, tokenId);\n  }\n\n}\n",
  "sourcePath": "/home/sencha/maker-badges/contracts/BadgeFactory.sol",
  "compiler": {
    "name": "solc",
    "version": "0.6.11+commit.5ef660b1.Emscripten.clang"
  },
  "schemaVersion": "3.2.2",
  "updatedAt": "2020-07-20T16:57:08.799Z",
  "networkType": "ethereum",
  "devdoc": {
    "events": {
      "NewTemplate(uint256,string,string,string)": {
        "details": "Events"
      }
    },
    "kind": "dev",
    "methods": {
      "activateBadge(bytes32[],uint256,string)": {
        "details": "Verify if the caller is a redeemer",
        "params": {
          "proof": "Merkle Proof",
          "templateId": "Template Id",
          "tokenURI": "Token URI"
        },
        "returns": {
          "_0": "True If the new Badge is Activated"
        }
      },
      "addTemplater(address)": {
        "details": "Access restricted only for Admins",
        "params": {
          "guy": "Address of the new Templater"
        },
        "returns": {
          "_0": "True if the guy address is added as Templater"
        }
      },
      "approve(address,uint256)": {
        "details": "See {IERC721-approve}."
      },
      "balanceOf(address)": {
        "details": "See {IERC721-balanceOf}."
      },
      "baseURI()": {
        "details": "Returns the base URI set via {_setBaseURI}. This will be automatically added as a prefix in {tokenURI} to each token's URI, or to the token ID if no specific URI is set for that token ID."
      },
      "burn(uint256)": {
        "details": "Burns `tokenId`. See {ERC721-_burn}. Requirements: - The caller must own `tokenId` or be an approved operator."
      },
      "burnBadge(uint256)": {
        "details": "burn() Check if the caller is approved or owner of the Badge",
        "params": {
          "tokenId": "Token Id of the Badge to burn"
        },
        "returns": {
          "_0": "True if the Badge has been burned"
        }
      },
      "createTemplate(string,string,string)": {
        "details": "Access restricted to only Templaters",
        "params": {
          "description": "A description of the new template",
          "image": "A filename of the new template",
          "name": "The name of the new template"
        },
        "returns": {
          "_0": "True If the new Template is Created"
        }
      },
      "getApproved(uint256)": {
        "details": "See {IERC721-getApproved}."
      },
      "getBadgeTemplate(uint256)": {
        "details": "Check if the tokenId exists",
        "params": {
          "tokenId": "Token Id of the Badge"
        },
        "returns": {
          "_0": "Template Id associated with the tokenId"
        }
      },
      "getBadgeTemplateQuantity(uint256)": {
        "details": "Check if the template Id exists",
        "params": {
          "templateId": "Template Id"
        },
        "returns": {
          "_0": "Quantity of Badges associated with templateId"
        }
      },
      "getRoleAdmin(bytes32)": {
        "details": "Returns the admin role that controls `role`. See {grantRole} and {revokeRole}. To change a role's admin, use {_setRoleAdmin}."
      },
      "getRoleMember(bytes32,uint256)": {
        "details": "Returns one of the accounts that have `role`. `index` must be a value between 0 and {getRoleMemberCount}, non-inclusive. Role bearers are not sorted in any particular way, and their ordering may change at any point. WARNING: When using {getRoleMember} and {getRoleMemberCount}, make sure you perform all queries on the same block. See the following https://forum.openzeppelin.com/t/iterating-over-elements-on-enumerableset-in-openzeppelin-contracts/2296[forum post] for more information."
      },
      "getRoleMemberCount(bytes32)": {
        "details": "Returns the number of accounts that have `role`. Can be used together with {getRoleMember} to enumerate all bearers of a role."
      },
      "getTemplate(uint256)": {
        "details": "Check if templateId exists",
        "params": {
          "templateId": "Template Id of the template to return"
        },
        "returns": {
          "name": "description image Of the specified templateId"
        }
      },
      "getTemplatesCount()": {
        "details": "Return lenght of template array",
        "returns": {
          "count": "The current number of templates"
        }
      },
      "grantRole(bytes32,address)": {
        "details": "Grants `role` to `account`. If `account` had not been already granted `role`, emits a {RoleGranted} event. Requirements: - the caller must have ``role``'s admin role."
      },
      "hasRole(bytes32,address)": {
        "details": "Returns `true` if `account` has been granted `role`."
      },
      "isApprovedForAll(address,address)": {
        "details": "See {IERC721-isApprovedForAll}."
      },
      "name()": {
        "details": "See {IERC721Metadata-name}."
      },
      "owner()": {
        "details": "Returns the address of the current owner."
      },
      "ownerOf(uint256)": {
        "details": "See {IERC721-ownerOf}."
      },
      "pause()": {
        "details": "the caller must have the 'PAUSER_ROLE'"
      },
      "paused()": {
        "details": "Returns true if the contract is paused, and false otherwise."
      },
      "removeTemplater(address)": {
        "details": "Access restricted only for Admins",
        "params": {
          "guy": "Address of the Templater"
        },
        "returns": {
          "_0": "True if the guy address is removed as Templater"
        }
      },
      "renounceOwnership()": {
        "details": "Leaves the contract without owner. It will not be possible to call `onlyOwner` functions anymore. Can only be called by the current owner. NOTE: Renouncing ownership will leave the contract without an owner, thereby removing any functionality that is only available to the owner."
      },
      "renounceRole(bytes32,address)": {
        "details": "Revokes `role` from the calling account. Roles are often managed via {grantRole} and {revokeRole}: this function's purpose is to provide a mechanism for accounts to lose their privileges if they are compromised (such as when a trusted device is misplaced). If the calling account had been granted `role`, emits a {RoleRevoked} event. Requirements: - the caller must be `account`."
      },
      "revokeRole(bytes32,address)": {
        "details": "Revokes `role` from `account`. If `account` had been granted `role`, emits a {RoleRevoked} event. Requirements: - the caller must have ``role``'s admin role."
      },
      "safeTransferFrom(address,address,uint256)": {
        "details": "See {IERC721-safeTransferFrom}."
      },
      "safeTransferFrom(address,address,uint256,bytes)": {
        "details": "See {IERC721-safeTransferFrom}."
      },
      "setApprovalForAll(address,bool)": {
        "details": "See {IERC721-setApprovalForAll}."
      },
      "setBaseURI(string)": {
        "details": "Update the baseURI specified in the constructor",
        "params": {
          "baseURI": "New baseURI"
        },
        "returns": {
          "_0": "True if the new baseURI is set"
        }
      },
      "supportsInterface(bytes4)": {
        "details": "See {IERC165-supportsInterface}. Time complexity O(1), guaranteed to always use less than 30 000 gas."
      },
      "symbol()": {
        "details": "See {IERC721Metadata-symbol}."
      },
      "tokenByIndex(uint256)": {
        "details": "See {IERC721Enumerable-tokenByIndex}."
      },
      "tokenOfOwnerByIndex(address,uint256)": {
        "details": "See {IERC721Enumerable-tokenOfOwnerByIndex}."
      },
      "tokenURI(uint256)": {
        "details": "See {IERC721Metadata-tokenURI}."
      },
      "totalSupply()": {
        "details": "See {IERC721Enumerable-totalSupply}."
      },
      "transferFrom(address,address,uint256)": {
        "details": "See {IERC721-transferFrom}."
      },
      "transferOwnership(address)": {
        "details": "Transfers ownership of the contract to a new account (`newOwner`). Can only be called by the current owner."
      },
      "unpause()": {
        "details": "the caller must have the 'PAUSER_ROLE'"
      }
    },
    "stateVariables": {
      "_templateQuantities": {
        "details": "Supplies of each badge template"
      }
    },
    "version": 1
  },
  "userdoc": {
    "kind": "user",
    "methods": {
      "activateBadge(bytes32[],uint256,string)": {
        "notice": "Activate Badge by redeemers"
      },
      "addTemplater(address)": {
        "notice": "Add a new Templater"
      },
      "burnBadge(uint256)": {
        "notice": "Burn Badge"
      },
      "createTemplate(string,string,string)": {
        "notice": "Create a new template"
      },
      "getBadgeTemplate(uint256)": {
        "notice": "Getter function for templateId associated with the tokenId"
      },
      "getBadgeTemplateQuantity(uint256)": {
        "notice": "Getter function for number of badges associated with templateId"
      },
      "getTemplate(uint256)": {
        "notice": "Getter function for templates"
      },
      "getTemplatesCount()": {
        "notice": "Getter function for templates count"
      },
      "pause()": {
        "notice": "Pause all the functions"
      },
      "removeTemplater(address)": {
        "notice": "Remove a Templater"
      },
      "setBaseURI(string)": {
        "notice": "Set the baseURI"
      },
      "unpause()": {
        "notice": "Unpause all the functions"
      }
    },
    "version": 1
  }
}