{
  "contractName": "BadgeRoles",
  "abi": [
    {
      "inputs": [],
      "stateMutability": "nonpayable",
      "type": "constructor"
    },
    {
      "anonymous": false,
      "inputs": [
        {
          "indexed": false,
          "internalType": "address",
          "name": "account",
          "type": "address"
        }
      ],
      "name": "Paused",
      "type": "event"
    },
    {
      "anonymous": false,
      "inputs": [
        {
          "indexed": true,
          "internalType": "bytes32",
          "name": "role",
          "type": "bytes32"
        },
        {
          "indexed": true,
          "internalType": "bytes32",
          "name": "previousAdminRole",
          "type": "bytes32"
        },
        {
          "indexed": true,
          "internalType": "bytes32",
          "name": "newAdminRole",
          "type": "bytes32"
        }
      ],
      "name": "RoleAdminChanged",
      "type": "event"
    },
    {
      "anonymous": false,
      "inputs": [
        {
          "indexed": true,
          "internalType": "bytes32",
          "name": "role",
          "type": "bytes32"
        },
        {
          "indexed": true,
          "internalType": "address",
          "name": "account",
          "type": "address"
        },
        {
          "indexed": true,
          "internalType": "address",
          "name": "sender",
          "type": "address"
        }
      ],
      "name": "RoleGranted",
      "type": "event"
    },
    {
      "anonymous": false,
      "inputs": [
        {
          "indexed": true,
          "internalType": "bytes32",
          "name": "role",
          "type": "bytes32"
        },
        {
          "indexed": true,
          "internalType": "address",
          "name": "account",
          "type": "address"
        },
        {
          "indexed": true,
          "internalType": "address",
          "name": "sender",
          "type": "address"
        }
      ],
      "name": "RoleRevoked",
      "type": "event"
    },
    {
      "anonymous": false,
      "inputs": [
        {
          "indexed": false,
          "internalType": "address",
          "name": "account",
          "type": "address"
        }
      ],
      "name": "Unpaused",
      "type": "event"
    },
    {
      "inputs": [],
      "name": "ADMIN_ROLE",
      "outputs": [
        {
          "internalType": "bytes32",
          "name": "",
          "type": "bytes32"
        }
      ],
      "stateMutability": "view",
      "type": "function"
    },
    {
      "inputs": [],
      "name": "DEFAULT_ADMIN_ROLE",
      "outputs": [
        {
          "internalType": "bytes32",
          "name": "",
          "type": "bytes32"
        }
      ],
      "stateMutability": "view",
      "type": "function"
    },
    {
      "inputs": [],
      "name": "PAUSER_ROLE",
      "outputs": [
        {
          "internalType": "bytes32",
          "name": "",
          "type": "bytes32"
        }
      ],
      "stateMutability": "view",
      "type": "function"
    },
    {
      "inputs": [],
      "name": "TEMPLATER_ROLE",
      "outputs": [
        {
          "internalType": "bytes32",
          "name": "",
          "type": "bytes32"
        }
      ],
      "stateMutability": "view",
      "type": "function"
    },
    {
      "inputs": [
        {
          "internalType": "bytes32",
          "name": "role",
          "type": "bytes32"
        }
      ],
      "name": "getRoleAdmin",
      "outputs": [
        {
          "internalType": "bytes32",
          "name": "",
          "type": "bytes32"
        }
      ],
      "stateMutability": "view",
      "type": "function"
    },
    {
      "inputs": [
        {
          "internalType": "bytes32",
          "name": "role",
          "type": "bytes32"
        },
        {
          "internalType": "uint256",
          "name": "index",
          "type": "uint256"
        }
      ],
      "name": "getRoleMember",
      "outputs": [
        {
          "internalType": "address",
          "name": "",
          "type": "address"
        }
      ],
      "stateMutability": "view",
      "type": "function"
    },
    {
      "inputs": [
        {
          "internalType": "bytes32",
          "name": "role",
          "type": "bytes32"
        }
      ],
      "name": "getRoleMemberCount",
      "outputs": [
        {
          "internalType": "uint256",
          "name": "",
          "type": "uint256"
        }
      ],
      "stateMutability": "view",
      "type": "function"
    },
    {
      "inputs": [
        {
          "internalType": "bytes32",
          "name": "role",
          "type": "bytes32"
        },
        {
          "internalType": "address",
          "name": "account",
          "type": "address"
        }
      ],
      "name": "grantRole",
      "outputs": [],
      "stateMutability": "nonpayable",
      "type": "function"
    },
    {
      "inputs": [
        {
          "internalType": "bytes32",
          "name": "role",
          "type": "bytes32"
        },
        {
          "internalType": "address",
          "name": "account",
          "type": "address"
        }
      ],
      "name": "hasRole",
      "outputs": [
        {
          "internalType": "bool",
          "name": "",
          "type": "bool"
        }
      ],
      "stateMutability": "view",
      "type": "function"
    },
    {
      "inputs": [],
      "name": "paused",
      "outputs": [
        {
          "internalType": "bool",
          "name": "",
          "type": "bool"
        }
      ],
      "stateMutability": "view",
      "type": "function"
    },
    {
      "inputs": [
        {
          "internalType": "bytes32",
          "name": "role",
          "type": "bytes32"
        },
        {
          "internalType": "address",
          "name": "account",
          "type": "address"
        }
      ],
      "name": "renounceRole",
      "outputs": [],
      "stateMutability": "nonpayable",
      "type": "function"
    },
    {
      "inputs": [
        {
          "internalType": "bytes32",
          "name": "role",
          "type": "bytes32"
        },
        {
          "internalType": "address",
          "name": "account",
          "type": "address"
        }
      ],
      "name": "revokeRole",
      "outputs": [],
      "stateMutability": "nonpayable",
      "type": "function"
    },
    {
      "inputs": [
        {
          "internalType": "address",
          "name": "account",
          "type": "address"
        }
      ],
      "name": "addAdmin",
      "outputs": [
        {
          "internalType": "bool",
          "name": "",
          "type": "bool"
        }
      ],
      "stateMutability": "nonpayable",
      "type": "function"
    },
    {
      "inputs": [
        {
          "internalType": "address",
          "name": "account",
          "type": "address"
        }
      ],
      "name": "removeAdmin",
      "outputs": [
        {
          "internalType": "bool",
          "name": "",
          "type": "bool"
        }
      ],
      "stateMutability": "nonpayable",
      "type": "function"
    },
    {
      "inputs": [
        {
          "internalType": "address",
          "name": "guy",
          "type": "address"
        }
      ],
      "name": "addTemplater",
      "outputs": [
        {
          "internalType": "bool",
          "name": "",
          "type": "bool"
        }
      ],
      "stateMutability": "nonpayable",
      "type": "function"
    },
    {
      "inputs": [
        {
          "internalType": "address",
          "name": "guy",
          "type": "address"
        }
      ],
      "name": "removeTemplater",
      "outputs": [
        {
          "internalType": "bool",
          "name": "",
          "type": "bool"
        }
      ],
      "stateMutability": "nonpayable",
      "type": "function"
    },
    {
      "inputs": [],
      "name": "pause",
      "outputs": [],
      "stateMutability": "nonpayable",
      "type": "function"
    },
    {
      "inputs": [],
      "name": "unpause",
      "outputs": [],
      "stateMutability": "nonpayable",
      "type": "function"
    }
  ],
  "bytecode": "0x60806040523480156200001157600080fd5b506000600160006101000a81548160ff021916908315150217905550620000426000801b33620000de60201b60201c565b620000747fa49807205ce4d355092ef5a8a18f56e8913cf4a201fbe287825b095693c2177533620000de60201b60201c565b620000a67f82fc59a2af283c7e52e3f7cf8d269383062c6603a1ab4300e32135abe128a47633620000de60201b60201c565b620000d87f65d7a28e3265b37a6474929f336521b332c1681b933f6cb9f3376673440d862a33620000de60201b60201c565b62000274565b620000f08282620000f460201b60201c565b5050565b62000122816000808581526020019081526020016000206000016200019760201b62000bc91790919060201c565b15620001935762000138620001cf60201b60201c565b73ffffffffffffffffffffffffffffffffffffffff168173ffffffffffffffffffffffffffffffffffffffff16837f2f8788117e7eff1d82e926ec794901d17c78024a50270940304540a733656f0d60405160405180910390a45b5050565b6000620001c7836000018373ffffffffffffffffffffffffffffffffffffffff1660001b620001d760201b60201c565b905092915050565b600033905090565b6000620001eb83836200025160201b60201c565b620002465782600001829080600181540180825580915050600190039060005260206000200160009091909190915055826000018054905083600101600084815260200190815260200160002081905550600190506200024b565b600090505b92915050565b600080836001016000848152602001908152602001600020541415905092915050565b61131880620002846000396000f3fe608060405234801561001057600080fd5b50600436106101165760003560e01c806375b238fc116100a2578063a217fddf11610071578063a217fddf1461043d578063ca15c8731461045b578063d547741f1461049d578063e63ab1e9146104eb578063e6c0d7141461050957610116565b806375b238fc1461034f5780638456cb591461036d5780639010d07c1461037757806391d14854146103d957610116565b80633f4ba83a116100e95780633f4ba83a146102535780634ba360ba1461025d5780635c975abb146102b75780636cdd0a16146102d757806370480275146102f557610116565b80631785f53c1461011b578063248a9ca3146101755780632f2ff15d146101b757806336568abe14610205575b600080fd5b61015d6004803603602081101561013157600080fd5b81019080803573ffffffffffffffffffffffffffffffffffffffff169060200190929190505050610563565b60405180821515815260200191505060405180910390f35b6101a16004803603602081101561018b57600080fd5b81019080803590602001909291905050506105fa565b6040518082815260200191505060405180910390f35b610203600480360360408110156101cd57600080fd5b8101908080359060200190929190803573ffffffffffffffffffffffffffffffffffffffff169060200190929190505050610619565b005b6102516004803603604081101561021b57600080fd5b8101908080359060200190929190803573ffffffffffffffffffffffffffffffffffffffff1690602001909291905050506106a2565b005b61025b61073b565b005b61029f6004803603602081101561027357600080fd5b81019080803573ffffffffffffffffffffffffffffffffffffffff1690602001909291905050506107cb565b60405180821515815260200191505060405180910390f35b6102bf610869565b60405180821515815260200191505060405180910390f35b6102df610880565b6040518082815260200191505060405180910390f35b6103376004803603602081101561030b57600080fd5b81019080803573ffffffffffffffffffffffffffffffffffffffff1690602001909291905050506108a4565b60405180821515815260200191505060405180910390f35b61035761093b565b6040518082815260200191505060405180910390f35b61037561095f565b005b6103ad6004803603604081101561038d57600080fd5b8101908080359060200190929190803590602001909291905050506109ef565b604051808273ffffffffffffffffffffffffffffffffffffffff16815260200191505060405180910390f35b610425600480360360408110156103ef57600080fd5b8101908080359060200190929190803573ffffffffffffffffffffffffffffffffffffffff169060200190929190505050610a20565b60405180821515815260200191505060405180910390f35b610445610a51565b6040518082815260200191505060405180910390f35b6104876004803603602081101561047157600080fd5b8101908080359060200190929190505050610a58565b6040518082815260200191505060405180910390f35b6104e9600480360360408110156104b357600080fd5b8101908080359060200190929190803573ffffffffffffffffffffffffffffffffffffffff169060200190929190505050610a7e565b005b6104f3610b07565b6040518082815260200191505060405180910390f35b61054b6004803603602081101561051f57600080fd5b81019080803573ffffffffffffffffffffffffffffffffffffffff169060200190929190505050610b2b565b60405180821515815260200191505060405180910390f35b60006105726000801b33610a20565b6105c7576040517f08c379a000000000000000000000000000000000000000000000000000000000815260040180806020018281038252602d81526020018061122b602d913960400191505060405180910390fd5b6105f17fa49807205ce4d355092ef5a8a18f56e8913cf4a201fbe287825b095693c2177583610a7e565b60019050919050565b6000806000838152602001908152602001600020600201549050919050565b61063f6000808481526020019081526020016000206002015461063a610bf9565b610a20565b610694576040517f08c379a000000000000000000000000000000000000000000000000000000000815260040180806020018281038252602f8152602001806111ce602f913960400191505060405180910390fd5b61069e8282610c01565b5050565b6106aa610bf9565b73ffffffffffffffffffffffffffffffffffffffff168173ffffffffffffffffffffffffffffffffffffffff161461072d576040517f08c379a000000000000000000000000000000000000000000000000000000000815260040180806020018281038252602f8152602001806112b4602f913960400191505060405180910390fd5b6107378282610c94565b5050565b61076c7f65d7a28e3265b37a6474929f336521b332c1681b933f6cb9f3376673440d862a610767610bf9565b610a20565b6107c1576040517f08c379a000000000000000000000000000000000000000000000000000000000815260040180806020018281038252602e8152602001806111fd602e913960400191505060405180910390fd5b6107c9610d27565b565b60006107e16000801b6107dc610bf9565b610a20565b610836576040517f08c379a000000000000000000000000000000000000000000000000000000000815260040180806020018281038252602d81526020018061122b602d913960400191505060405180910390fd5b6108607f82fc59a2af283c7e52e3f7cf8d269383062c6603a1ab4300e32135abe128a47683610a7e565b60019050919050565b6000600160009054906101000a900460ff16905090565b7f82fc59a2af283c7e52e3f7cf8d269383062c6603a1ab4300e32135abe128a47681565b60006108b36000801b33610a20565b610908576040517f08c379a000000000000000000000000000000000000000000000000000000000815260040180806020018281038252602d81526020018061122b602d913960400191505060405180910390fd5b6109327fa49807205ce4d355092ef5a8a18f56e8913cf4a201fbe287825b095693c2177583610619565b60019050919050565b7fa49807205ce4d355092ef5a8a18f56e8913cf4a201fbe287825b095693c2177581565b6109907f65d7a28e3265b37a6474929f336521b332c1681b933f6cb9f3376673440d862a61098b610bf9565b610a20565b6109e5576040517f08c379a000000000000000000000000000000000000000000000000000000000815260040180806020018281038252602c815260200180611288602c913960400191505060405180910390fd5b6109ed610e1a565b565b6000610a1882600080868152602001908152602001600020600001610f0d90919063ffffffff16565b905092915050565b6000610a4982600080868152602001908152602001600020600001610f2790919063ffffffff16565b905092915050565b6000801b81565b6000610a77600080848152602001908152602001600020600001610f57565b9050919050565b610aa460008084815260200190815260200160002060020154610a9f610bf9565b610a20565b610af9576040517f08c379a00000000000000000000000000000000000000000000000000000000081526004018080602001828103825260308152602001806112586030913960400191505060405180910390fd5b610b038282610c94565b5050565b7f65d7a28e3265b37a6474929f336521b332c1681b933f6cb9f3376673440d862a81565b6000610b416000801b610b3c610bf9565b610a20565b610b96576040517f08c379a000000000000000000000000000000000000000000000000000000000815260040180806020018281038252602d81526020018061122b602d913960400191505060405180910390fd5b610bc07f82fc59a2af283c7e52e3f7cf8d269383062c6603a1ab4300e32135abe128a47683610619565b60019050919050565b6000610bf1836000018373ffffffffffffffffffffffffffffffffffffffff1660001b610f6c565b905092915050565b600033905090565b610c2881600080858152602001908152602001600020600001610bc990919063ffffffff16565b15610c9057610c35610bf9565b73ffffffffffffffffffffffffffffffffffffffff168173ffffffffffffffffffffffffffffffffffffffff16837f2f8788117e7eff1d82e926ec794901d17c78024a50270940304540a733656f0d60405160405180910390a45b5050565b610cbb81600080858152602001908152602001600020600001610fdc90919063ffffffff16565b15610d2357610cc8610bf9565b73ffffffffffffffffffffffffffffffffffffffff168173ffffffffffffffffffffffffffffffffffffffff16837ff6391f5c32d9c69d2a47ea670b442974b53935d1edc7fd64eb21e047a839171b60405160405180910390a45b5050565b600160009054906101000a900460ff16610da9576040517f08c379a00000000000000000000000000000000000000000000000000000000081526004018080602001828103825260148152602001807f5061757361626c653a206e6f742070617573656400000000000000000000000081525060200191505060405180910390fd5b6000600160006101000a81548160ff0219169083151502179055507f5db9ee0a495bf2e6ff9c91a7834c1ba4fdd244a5e8aa4e537bd38aeae4b073aa610ded610bf9565b604051808273ffffffffffffffffffffffffffffffffffffffff16815260200191505060405180910390a1565b600160009054906101000a900460ff1615610e9d576040517f08c379a00000000000000000000000000000000000000000000000000000000081526004018080602001828103825260108152602001807f5061757361626c653a207061757365640000000000000000000000000000000081525060200191505060405180910390fd5b60018060006101000a81548160ff0219169083151502179055507f62e78cea01bee320cd4e420270b5ea74000d11b0c9f74754ebdbfc544b05a258610ee0610bf9565b604051808273ffffffffffffffffffffffffffffffffffffffff16815260200191505060405180910390a1565b6000610f1c836000018361100c565b60001c905092915050565b6000610f4f836000018373ffffffffffffffffffffffffffffffffffffffff1660001b61108f565b905092915050565b6000610f65826000016110b2565b9050919050565b6000610f78838361108f565b610fd1578260000182908060018154018082558091505060019003906000526020600020016000909190919091505582600001805490508360010160008481526020019081526020016000208190555060019050610fd6565b600090505b92915050565b6000611004836000018373ffffffffffffffffffffffffffffffffffffffff1660001b6110c3565b905092915050565b60008183600001805490501161106d576040517f08c379a00000000000000000000000000000000000000000000000000000000081526004018080602001828103825260228152602001806111ac6022913960400191505060405180910390fd5b82600001828154811061107c57fe5b9060005260206000200154905092915050565b600080836001016000848152602001908152602001600020541415905092915050565b600081600001805490509050919050565b6000808360010160008481526020019081526020016000205490506000811461119f576000600182039050600060018660000180549050039050600086600001828154811061110e57fe5b906000526020600020015490508087600001848154811061112b57fe5b906000526020600020018190555060018301876001016000838152602001908152602001600020819055508660000180548061116357fe5b600190038181906000526020600020016000905590558660010160008781526020019081526020016000206000905560019450505050506111a5565b60009150505b9291505056fe456e756d657261626c655365743a20696e646578206f7574206f6620626f756e6473416363657373436f6e74726f6c3a2073656e646572206d75737420626520616e2061646d696e20746f206772616e744261646765466163746f72793a206d75737420686176652070617573657220726f6c6520746f20756e70617573654261646765466163746f72793a2063616c6c6572206973206e6f74207468652064656661756c742061646d696e416363657373436f6e74726f6c3a2073656e646572206d75737420626520616e2061646d696e20746f207265766f6b654261646765466163746f72793a206d75737420686176652070617573657220726f6c6520746f207061757365416363657373436f6e74726f6c3a2063616e206f6e6c792072656e6f756e636520726f6c657320666f722073656c66a264697066735822122084c8c781c021f5dddbae5555304dbc29440163e8040d0923bb9c029dd4b89a3e64736f6c634300060c0033",
  "immutableReferences": {},
  "source": "/// SPDX-License-Identifier: AGPL-3.0-or-later\npragma solidity 0.6.12;\n\n/// @title Non-transferable Badges for Maker Ecosystem Activity, CDIP 18, 29\n/// @author Nazzareno Massari @naszam\n/// @notice BadgeRoles Access Management for Default Admin, Templater and Pauser Role\n/// @dev See https://github.com/makerdao/community/issues/537\n/// @dev See https://github.com/makerdao/community/issues/721\n/// @dev All function calls are currently implemented without side effects through TDD approach\n/// @dev OpenZeppelin Library is used for secure contract development\n\nimport \"@openzeppelin/contracts/access/AccessControl.sol\";\nimport \"@openzeppelin/contracts/utils/Pausable.sol\";\n\ncontract BadgeRoles is AccessControl, Pausable {\n\n    /// @dev Roles\n    bytes32 public constant ADMIN_ROLE = keccak256(\"ADMIN_ROLE\");\n    bytes32 public constant TEMPLATER_ROLE = keccak256(\"TEMPLATER_ROLE\");\n    bytes32 public constant PAUSER_ROLE = keccak256(\"PAUSER_ROLE\");\n\n    constructor() public {\n        _setupRole(DEFAULT_ADMIN_ROLE, msg.sender);\n\n        _setupRole(ADMIN_ROLE, msg.sender);\n        _setupRole(TEMPLATER_ROLE, msg.sender);\n        _setupRole(PAUSER_ROLE, msg.sender);\n\n    }\n\n    /// @dev Functions\n\n    /// @notice Add a new Admin\n    /// @dev Access restricted only to Default Admin\n    /// @param account Address of the new Admin\n    /// @return True if the account address is added as Admin\n    function addAdmin(address account) external returns (bool) {\n        require(hasRole(DEFAULT_ADMIN_ROLE, msg.sender), \"BadgeFactory: caller is not the default admin\");\n        grantRole(ADMIN_ROLE, account);\n        return true;\n    }\n\n    /// @notice Remove an Admin\n    /// @dev Access restricted only to Default Admin\n    /// @param account Address of the Admin\n    /// @return True if the account address is removed as Admin\n    function removeAdmin(address account) external returns (bool) {\n        require(hasRole(DEFAULT_ADMIN_ROLE, msg.sender), \"BadgeFactory: caller is not the default admin\");\n        revokeRole(ADMIN_ROLE, account);\n        return true;\n    }\n\n    /// @notice Add a new Templater\n    /// @dev Access restricted only to Default Admin\n    /// @param guy Address of the new Templater\n    /// @return True if the guy address is added as Templater\n    function addTemplater(address guy) external returns (bool) {\n        require(hasRole(DEFAULT_ADMIN_ROLE, _msgSender()), \"BadgeFactory: caller is not the default admin\");\n        grantRole(TEMPLATER_ROLE, guy);\n        return true;\n    }\n\n    /// @notice Remove a Templater\n    /// @dev Access restricted only to Default Admin\n    /// @param guy Address of the Templater\n    /// @return True if the guy address is removed as Templater\n    function removeTemplater(address guy) external returns (bool) {\n      require(hasRole(DEFAULT_ADMIN_ROLE, _msgSender()), \"BadgeFactory: caller is not the default admin\");\n      revokeRole(TEMPLATER_ROLE, guy);\n      return true;\n    }\n\n    /// @notice Pause all the functions\n    /// @dev the caller must have the 'PAUSER_ROLE'\n    function pause() external {\n        require(hasRole(PAUSER_ROLE, _msgSender()), \"BadgeFactory: must have pauser role to pause\");\n        _pause();\n    }\n\n    /// @notice Unpause all the functions\n    /// @dev the caller must have the 'PAUSER_ROLE'\n    function unpause() external {\n        require(hasRole(PAUSER_ROLE, _msgSender()), \"BadgeFactory: must have pauser role to unpause\");\n        _unpause();\n    }\n}\n",
  "sourcePath": "/home/sencha/maker-badges/contracts/BadgeRoles.sol",
  "compiler": {
    "name": "solc",
    "version": "0.6.12+commit.27d51765.Emscripten.clang"
  },
  "schemaVersion": "3.3.1",
  "updatedAt": "2020-10-31T14:35:18.140Z",
  "devdoc": {
    "kind": "dev",
    "methods": {
      "addAdmin(address)": {
        "details": "Access restricted only to Default Admin",
        "params": {
          "account": "Address of the new Admin"
        },
        "returns": {
          "_0": "True if the account address is added as Admin"
        }
      },
      "addTemplater(address)": {
        "details": "Access restricted only to Default Admin",
        "params": {
          "guy": "Address of the new Templater"
        },
        "returns": {
          "_0": "True if the guy address is added as Templater"
        }
      },
      "getRoleAdmin(bytes32)": {
        "details": "Returns the admin role that controls `role`. See {grantRole} and {revokeRole}. To change a role's admin, use {_setRoleAdmin}."
      },
      "getRoleMember(bytes32,uint256)": {
        "details": "Returns one of the accounts that have `role`. `index` must be a value between 0 and {getRoleMemberCount}, non-inclusive. Role bearers are not sorted in any particular way, and their ordering may change at any point. WARNING: When using {getRoleMember} and {getRoleMemberCount}, make sure you perform all queries on the same block. See the following https://forum.openzeppelin.com/t/iterating-over-elements-on-enumerableset-in-openzeppelin-contracts/2296[forum post] for more information."
      },
      "getRoleMemberCount(bytes32)": {
        "details": "Returns the number of accounts that have `role`. Can be used together with {getRoleMember} to enumerate all bearers of a role."
      },
      "grantRole(bytes32,address)": {
        "details": "Grants `role` to `account`. If `account` had not been already granted `role`, emits a {RoleGranted} event. Requirements: - the caller must have ``role``'s admin role."
      },
      "hasRole(bytes32,address)": {
        "details": "Returns `true` if `account` has been granted `role`."
      },
      "pause()": {
        "details": "the caller must have the 'PAUSER_ROLE'"
      },
      "paused()": {
        "details": "Returns true if the contract is paused, and false otherwise."
      },
      "removeAdmin(address)": {
        "details": "Access restricted only to Default Admin",
        "params": {
          "account": "Address of the Admin"
        },
        "returns": {
          "_0": "True if the account address is removed as Admin"
        }
      },
      "removeTemplater(address)": {
        "details": "Access restricted only to Default Admin",
        "params": {
          "guy": "Address of the Templater"
        },
        "returns": {
          "_0": "True if the guy address is removed as Templater"
        }
      },
      "renounceRole(bytes32,address)": {
        "details": "Revokes `role` from the calling account. Roles are often managed via {grantRole} and {revokeRole}: this function's purpose is to provide a mechanism for accounts to lose their privileges if they are compromised (such as when a trusted device is misplaced). If the calling account had been granted `role`, emits a {RoleRevoked} event. Requirements: - the caller must be `account`."
      },
      "revokeRole(bytes32,address)": {
        "details": "Revokes `role` from `account`. If `account` had been granted `role`, emits a {RoleRevoked} event. Requirements: - the caller must have ``role``'s admin role."
      },
      "unpause()": {
        "details": "the caller must have the 'PAUSER_ROLE'"
      }
    },
    "stateVariables": {
      "ADMIN_ROLE": {
        "details": "Roles"
      }
    },
    "version": 1
  },
  "userdoc": {
    "kind": "user",
    "methods": {
      "addAdmin(address)": {
        "notice": "Add a new Admin"
      },
      "addTemplater(address)": {
        "notice": "Add a new Templater"
      },
      "pause()": {
        "notice": "Pause all the functions"
      },
      "removeAdmin(address)": {
        "notice": "Remove an Admin"
      },
      "removeTemplater(address)": {
        "notice": "Remove a Templater"
      },
      "unpause()": {
        "notice": "Unpause all the functions"
      }
    },
    "version": 1
  }
}