{
  "contractName": "BadgeFactory",
  "abi": [
    {
      "inputs": [
        {
          "internalType": "address",
          "name": "maker_",
          "type": "address"
        }
      ],
      "stateMutability": "nonpayable",
      "type": "constructor"
    },
    {
      "anonymous": false,
      "inputs": [
        {
          "indexed": true,
          "internalType": "address",
          "name": "owner",
          "type": "address"
        },
        {
          "indexed": true,
          "internalType": "address",
          "name": "approved",
          "type": "address"
        },
        {
          "indexed": true,
          "internalType": "uint256",
          "name": "tokenId",
          "type": "uint256"
        }
      ],
      "name": "Approval",
      "type": "event"
    },
    {
      "anonymous": false,
      "inputs": [
        {
          "indexed": true,
          "internalType": "address",
          "name": "owner",
          "type": "address"
        },
        {
          "indexed": true,
          "internalType": "address",
          "name": "operator",
          "type": "address"
        },
        {
          "indexed": false,
          "internalType": "bool",
          "name": "approved",
          "type": "bool"
        }
      ],
      "name": "ApprovalForAll",
      "type": "event"
    },
    {
      "anonymous": false,
      "inputs": [
        {
          "indexed": true,
          "internalType": "uint256",
          "name": "tokenId",
          "type": "uint256"
        },
        {
          "indexed": true,
          "internalType": "uint256",
          "name": "templateId",
          "type": "uint256"
        },
        {
          "indexed": false,
          "internalType": "string",
          "name": "tokenURI",
          "type": "string"
        }
      ],
      "name": "BadgeActivated",
      "type": "event"
    },
    {
      "anonymous": false,
      "inputs": [
        {
          "indexed": true,
          "internalType": "uint256",
          "name": "templateId",
          "type": "uint256"
        },
        {
          "indexed": false,
          "internalType": "string",
          "name": "name",
          "type": "string"
        },
        {
          "indexed": false,
          "internalType": "string",
          "name": "description",
          "type": "string"
        },
        {
          "indexed": false,
          "internalType": "string",
          "name": "image",
          "type": "string"
        }
      ],
      "name": "NewTemplate",
      "type": "event"
    },
    {
      "anonymous": false,
      "inputs": [
        {
          "indexed": false,
          "internalType": "address",
          "name": "account",
          "type": "address"
        }
      ],
      "name": "Paused",
      "type": "event"
    },
    {
      "anonymous": false,
      "inputs": [
        {
          "indexed": true,
          "internalType": "bytes32",
          "name": "role",
          "type": "bytes32"
        },
        {
          "indexed": true,
          "internalType": "bytes32",
          "name": "previousAdminRole",
          "type": "bytes32"
        },
        {
          "indexed": true,
          "internalType": "bytes32",
          "name": "newAdminRole",
          "type": "bytes32"
        }
      ],
      "name": "RoleAdminChanged",
      "type": "event"
    },
    {
      "anonymous": false,
      "inputs": [
        {
          "indexed": true,
          "internalType": "bytes32",
          "name": "role",
          "type": "bytes32"
        },
        {
          "indexed": true,
          "internalType": "address",
          "name": "account",
          "type": "address"
        },
        {
          "indexed": true,
          "internalType": "address",
          "name": "sender",
          "type": "address"
        }
      ],
      "name": "RoleGranted",
      "type": "event"
    },
    {
      "anonymous": false,
      "inputs": [
        {
          "indexed": true,
          "internalType": "bytes32",
          "name": "role",
          "type": "bytes32"
        },
        {
          "indexed": true,
          "internalType": "address",
          "name": "account",
          "type": "address"
        },
        {
          "indexed": true,
          "internalType": "address",
          "name": "sender",
          "type": "address"
        }
      ],
      "name": "RoleRevoked",
      "type": "event"
    },
    {
      "anonymous": false,
      "inputs": [
        {
          "indexed": true,
          "internalType": "uint256",
          "name": "templateId",
          "type": "uint256"
        },
        {
          "indexed": false,
          "internalType": "string",
          "name": "name",
          "type": "string"
        },
        {
          "indexed": false,
          "internalType": "string",
          "name": "description",
          "type": "string"
        },
        {
          "indexed": false,
          "internalType": "string",
          "name": "image",
          "type": "string"
        }
      ],
      "name": "TemplateUpdated",
      "type": "event"
    },
    {
      "anonymous": false,
      "inputs": [
        {
          "indexed": true,
          "internalType": "address",
          "name": "from",
          "type": "address"
        },
        {
          "indexed": true,
          "internalType": "address",
          "name": "to",
          "type": "address"
        },
        {
          "indexed": true,
          "internalType": "uint256",
          "name": "tokenId",
          "type": "uint256"
        }
      ],
      "name": "Transfer",
      "type": "event"
    },
    {
      "anonymous": false,
      "inputs": [
        {
          "indexed": false,
          "internalType": "address",
          "name": "account",
          "type": "address"
        }
      ],
      "name": "Unpaused",
      "type": "event"
    },
    {
      "stateMutability": "nonpayable",
      "type": "fallback"
    },
    {
      "inputs": [],
      "name": "ADMIN_ROLE",
      "outputs": [
        {
          "internalType": "bytes32",
          "name": "",
          "type": "bytes32"
        }
      ],
      "stateMutability": "view",
      "type": "function",
      "constant": true
    },
    {
      "inputs": [],
      "name": "DEFAULT_ADMIN_ROLE",
      "outputs": [
        {
          "internalType": "bytes32",
          "name": "",
          "type": "bytes32"
        }
      ],
      "stateMutability": "view",
      "type": "function",
      "constant": true
    },
    {
      "inputs": [],
      "name": "PAUSER_ROLE",
      "outputs": [
        {
          "internalType": "bytes32",
          "name": "",
          "type": "bytes32"
        }
      ],
      "stateMutability": "view",
      "type": "function",
      "constant": true
    },
    {
      "inputs": [],
      "name": "TEMPLATER_ROLE",
      "outputs": [
        {
          "internalType": "bytes32",
          "name": "",
          "type": "bytes32"
        }
      ],
      "stateMutability": "view",
      "type": "function",
      "constant": true
    },
    {
      "inputs": [
        {
          "internalType": "address",
          "name": "account",
          "type": "address"
        }
      ],
      "name": "addAdmin",
      "outputs": [
        {
          "internalType": "bool",
          "name": "",
          "type": "bool"
        }
      ],
      "stateMutability": "nonpayable",
      "type": "function"
    },
    {
      "inputs": [
        {
          "internalType": "address",
          "name": "account",
          "type": "address"
        }
      ],
      "name": "addTemplater",
      "outputs": [
        {
          "internalType": "bool",
          "name": "",
          "type": "bool"
        }
      ],
      "stateMutability": "nonpayable",
      "type": "function"
    },
    {
      "inputs": [
        {
          "internalType": "address",
          "name": "to",
          "type": "address"
        },
        {
          "internalType": "uint256",
          "name": "tokenId",
          "type": "uint256"
        }
      ],
      "name": "approve",
      "outputs": [],
      "stateMutability": "nonpayable",
      "type": "function"
    },
    {
      "inputs": [
        {
          "internalType": "address",
          "name": "owner",
          "type": "address"
        }
      ],
      "name": "balanceOf",
      "outputs": [
        {
          "internalType": "uint256",
          "name": "",
          "type": "uint256"
        }
      ],
      "stateMutability": "view",
      "type": "function",
      "constant": true
    },
    {
      "inputs": [],
      "name": "baseURI",
      "outputs": [
        {
          "internalType": "string",
          "name": "",
          "type": "string"
        }
      ],
      "stateMutability": "view",
      "type": "function",
      "constant": true
    },
    {
      "inputs": [
        {
          "internalType": "uint256",
          "name": "tokenId",
          "type": "uint256"
        }
      ],
      "name": "getApproved",
      "outputs": [
        {
          "internalType": "address",
          "name": "",
          "type": "address"
        }
      ],
      "stateMutability": "view",
      "type": "function",
      "constant": true
    },
    {
      "inputs": [
        {
          "internalType": "bytes32",
          "name": "role",
          "type": "bytes32"
        }
      ],
      "name": "getRoleAdmin",
      "outputs": [
        {
          "internalType": "bytes32",
          "name": "",
          "type": "bytes32"
        }
      ],
      "stateMutability": "view",
      "type": "function",
      "constant": true
    },
    {
      "inputs": [
        {
          "internalType": "bytes32",
          "name": "role",
          "type": "bytes32"
        },
        {
          "internalType": "uint256",
          "name": "index",
          "type": "uint256"
        }
      ],
      "name": "getRoleMember",
      "outputs": [
        {
          "internalType": "address",
          "name": "",
          "type": "address"
        }
      ],
      "stateMutability": "view",
      "type": "function",
      "constant": true
    },
    {
      "inputs": [
        {
          "internalType": "bytes32",
          "name": "role",
          "type": "bytes32"
        }
      ],
      "name": "getRoleMemberCount",
      "outputs": [
        {
          "internalType": "uint256",
          "name": "",
          "type": "uint256"
        }
      ],
      "stateMutability": "view",
      "type": "function",
      "constant": true
    },
    {
      "inputs": [
        {
          "internalType": "bytes32",
          "name": "role",
          "type": "bytes32"
        },
        {
          "internalType": "address",
          "name": "account",
          "type": "address"
        }
      ],
      "name": "grantRole",
      "outputs": [],
      "stateMutability": "nonpayable",
      "type": "function"
    },
    {
      "inputs": [
        {
          "internalType": "bytes32",
          "name": "role",
          "type": "bytes32"
        },
        {
          "internalType": "address",
          "name": "account",
          "type": "address"
        }
      ],
      "name": "hasRole",
      "outputs": [
        {
          "internalType": "bool",
          "name": "",
          "type": "bool"
        }
      ],
      "stateMutability": "view",
      "type": "function",
      "constant": true
    },
    {
      "inputs": [
        {
          "internalType": "address",
          "name": "owner",
          "type": "address"
        },
        {
          "internalType": "address",
          "name": "operator",
          "type": "address"
        }
      ],
      "name": "isApprovedForAll",
      "outputs": [
        {
          "internalType": "bool",
          "name": "",
          "type": "bool"
        }
      ],
      "stateMutability": "view",
      "type": "function",
      "constant": true
    },
    {
      "inputs": [],
      "name": "name",
      "outputs": [
        {
          "internalType": "string",
          "name": "",
          "type": "string"
        }
      ],
      "stateMutability": "view",
      "type": "function",
      "constant": true
    },
    {
      "inputs": [
        {
          "internalType": "uint256",
          "name": "tokenId",
          "type": "uint256"
        }
      ],
      "name": "ownerOf",
      "outputs": [
        {
          "internalType": "address",
          "name": "",
          "type": "address"
        }
      ],
      "stateMutability": "view",
      "type": "function",
      "constant": true
    },
    {
      "inputs": [],
      "name": "pause",
      "outputs": [],
      "stateMutability": "nonpayable",
      "type": "function"
    },
    {
      "inputs": [],
      "name": "paused",
      "outputs": [
        {
          "internalType": "bool",
          "name": "",
          "type": "bool"
        }
      ],
      "stateMutability": "view",
      "type": "function",
      "constant": true
    },
    {
      "inputs": [
        {
          "internalType": "address",
          "name": "account",
          "type": "address"
        }
      ],
      "name": "removeAdmin",
      "outputs": [
        {
          "internalType": "bool",
          "name": "",
          "type": "bool"
        }
      ],
      "stateMutability": "nonpayable",
      "type": "function"
    },
    {
      "inputs": [
        {
          "internalType": "address",
          "name": "account",
          "type": "address"
        }
      ],
      "name": "removeTemplater",
      "outputs": [
        {
          "internalType": "bool",
          "name": "",
          "type": "bool"
        }
      ],
      "stateMutability": "nonpayable",
      "type": "function"
    },
    {
      "inputs": [
        {
          "internalType": "bytes32",
          "name": "role",
          "type": "bytes32"
        },
        {
          "internalType": "address",
          "name": "account",
          "type": "address"
        }
      ],
      "name": "renounceRole",
      "outputs": [],
      "stateMutability": "nonpayable",
      "type": "function"
    },
    {
      "inputs": [
        {
          "internalType": "bytes32",
          "name": "role",
          "type": "bytes32"
        },
        {
          "internalType": "address",
          "name": "account",
          "type": "address"
        }
      ],
      "name": "revokeRole",
      "outputs": [],
      "stateMutability": "nonpayable",
      "type": "function"
    },
    {
      "inputs": [
        {
          "internalType": "address",
          "name": "from",
          "type": "address"
        },
        {
          "internalType": "address",
          "name": "to",
          "type": "address"
        },
        {
          "internalType": "uint256",
          "name": "tokenId",
          "type": "uint256"
        }
      ],
      "name": "safeTransferFrom",
      "outputs": [],
      "stateMutability": "nonpayable",
      "type": "function"
    },
    {
      "inputs": [
        {
          "internalType": "address",
          "name": "from",
          "type": "address"
        },
        {
          "internalType": "address",
          "name": "to",
          "type": "address"
        },
        {
          "internalType": "uint256",
          "name": "tokenId",
          "type": "uint256"
        },
        {
          "internalType": "bytes",
          "name": "_data",
          "type": "bytes"
        }
      ],
      "name": "safeTransferFrom",
      "outputs": [],
      "stateMutability": "nonpayable",
      "type": "function"
    },
    {
      "inputs": [
        {
          "internalType": "address",
          "name": "operator",
          "type": "address"
        },
        {
          "internalType": "bool",
          "name": "approved",
          "type": "bool"
        }
      ],
      "name": "setApprovalForAll",
      "outputs": [],
      "stateMutability": "nonpayable",
      "type": "function"
    },
    {
      "inputs": [
        {
          "internalType": "bytes4",
          "name": "interfaceId",
          "type": "bytes4"
        }
      ],
      "name": "supportsInterface",
      "outputs": [
        {
          "internalType": "bool",
          "name": "",
          "type": "bool"
        }
      ],
      "stateMutability": "view",
      "type": "function",
      "constant": true
    },
    {
      "inputs": [],
      "name": "symbol",
      "outputs": [
        {
          "internalType": "string",
          "name": "",
          "type": "string"
        }
      ],
      "stateMutability": "view",
      "type": "function",
      "constant": true
    },
    {
      "inputs": [
        {
          "internalType": "uint256",
          "name": "index",
          "type": "uint256"
        }
      ],
      "name": "tokenByIndex",
      "outputs": [
        {
          "internalType": "uint256",
          "name": "",
          "type": "uint256"
        }
      ],
      "stateMutability": "view",
      "type": "function",
      "constant": true
    },
    {
      "inputs": [
        {
          "internalType": "address",
          "name": "owner",
          "type": "address"
        },
        {
          "internalType": "uint256",
          "name": "index",
          "type": "uint256"
        }
      ],
      "name": "tokenOfOwnerByIndex",
      "outputs": [
        {
          "internalType": "uint256",
          "name": "",
          "type": "uint256"
        }
      ],
      "stateMutability": "view",
      "type": "function",
      "constant": true
    },
    {
      "inputs": [
        {
          "internalType": "uint256",
          "name": "tokenId",
          "type": "uint256"
        }
      ],
      "name": "tokenURI",
      "outputs": [
        {
          "internalType": "string",
          "name": "",
          "type": "string"
        }
      ],
      "stateMutability": "view",
      "type": "function",
      "constant": true
    },
    {
      "inputs": [],
      "name": "totalSupply",
      "outputs": [
        {
          "internalType": "uint256",
          "name": "",
          "type": "uint256"
        }
      ],
      "stateMutability": "view",
      "type": "function",
      "constant": true
    },
    {
      "inputs": [
        {
          "internalType": "address",
          "name": "from",
          "type": "address"
        },
        {
          "internalType": "address",
          "name": "to",
          "type": "address"
        },
        {
          "internalType": "uint256",
          "name": "tokenId",
          "type": "uint256"
        }
      ],
      "name": "transferFrom",
      "outputs": [],
      "stateMutability": "nonpayable",
      "type": "function"
    },
    {
      "inputs": [],
      "name": "unpause",
      "outputs": [],
      "stateMutability": "nonpayable",
      "type": "function"
    },
    {
      "inputs": [
        {
          "internalType": "string",
          "name": "baseURI",
          "type": "string"
        }
      ],
      "name": "setBaseURI",
      "outputs": [],
      "stateMutability": "nonpayable",
      "type": "function"
    },
    {
      "inputs": [
        {
          "internalType": "bytes32[]",
          "name": "_roots",
          "type": "bytes32[]"
        }
      ],
      "name": "setRootHashes",
      "outputs": [],
      "stateMutability": "nonpayable",
      "type": "function"
    },
    {
      "inputs": [
        {
          "internalType": "string",
          "name": "name",
          "type": "string"
        },
        {
          "internalType": "string",
          "name": "description",
          "type": "string"
        },
        {
          "internalType": "string",
          "name": "image",
          "type": "string"
        }
      ],
      "name": "createTemplate",
      "outputs": [],
      "stateMutability": "nonpayable",
      "type": "function"
    },
    {
      "inputs": [
        {
          "internalType": "uint256",
          "name": "templateId",
          "type": "uint256"
        },
        {
          "internalType": "string",
          "name": "name",
          "type": "string"
        },
        {
          "internalType": "string",
          "name": "description",
          "type": "string"
        },
        {
          "internalType": "string",
          "name": "image",
          "type": "string"
        }
      ],
      "name": "updateTemplate",
      "outputs": [],
      "stateMutability": "nonpayable",
      "type": "function"
    },
    {
      "inputs": [
        {
          "internalType": "uint256",
          "name": "templateId",
          "type": "uint256"
        }
      ],
      "name": "getTemplate",
      "outputs": [
        {
          "internalType": "string",
          "name": "name",
          "type": "string"
        },
        {
          "internalType": "string",
          "name": "description",
          "type": "string"
        },
        {
          "internalType": "string",
          "name": "image",
          "type": "string"
        }
      ],
      "stateMutability": "view",
      "type": "function",
      "constant": true
    },
    {
      "inputs": [],
      "name": "getTemplatesCount",
      "outputs": [
        {
          "internalType": "uint256",
          "name": "count",
          "type": "uint256"
        }
      ],
      "stateMutability": "view",
      "type": "function",
      "constant": true
    },
    {
      "inputs": [
        {
          "internalType": "bytes32[]",
          "name": "proof",
          "type": "bytes32[]"
        },
        {
          "internalType": "uint256",
          "name": "templateId",
          "type": "uint256"
        },
        {
          "internalType": "string",
          "name": "tokenURI",
          "type": "string"
        }
      ],
      "name": "activateBadge",
      "outputs": [
        {
          "internalType": "bool",
          "name": "",
          "type": "bool"
        }
      ],
      "stateMutability": "nonpayable",
      "type": "function"
    },
    {
      "inputs": [
        {
          "internalType": "uint256",
          "name": "tokenId",
          "type": "uint256"
        }
      ],
      "name": "getBadgeRedeemer",
      "outputs": [
        {
          "internalType": "address",
          "name": "redeemer",
          "type": "address"
        }
      ],
      "stateMutability": "view",
      "type": "function",
      "constant": true
    },
    {
      "inputs": [
        {
          "internalType": "uint256",
          "name": "tokenId",
          "type": "uint256"
        }
      ],
      "name": "getBadgeTemplate",
      "outputs": [
        {
          "internalType": "uint256",
          "name": "templateId",
          "type": "uint256"
        }
      ],
      "stateMutability": "view",
      "type": "function",
      "constant": true
    },
    {
      "inputs": [
        {
          "internalType": "uint256",
          "name": "templateId",
          "type": "uint256"
        }
      ],
      "name": "getBadgeTemplateQuantity",
      "outputs": [
        {
          "internalType": "uint256",
          "name": "",
          "type": "uint256"
        }
      ],
      "stateMutability": "view",
      "type": "function",
      "constant": true
    }
  ],
  "bytecode": "0x60a06040523480156200001157600080fd5b506040516200602338038062006023833981810160405260208110156200003757600080fd5b81019080805190602001909291905050506040518060400160405280600b81526020017f4d616b65724261646765730000000000000000000000000000000000000000008152506040518060400160405280600581526020017f4d414b45520000000000000000000000000000000000000000000000000000008152506000600160006101000a81548160ff021916908315150217905550620000e46000801b336200027660201b60201c565b620001167fa49807205ce4d355092ef5a8a18f56e8913cf4a201fbe287825b095693c21775336200027660201b60201c565b620001487f82fc59a2af283c7e52e3f7cf8d269383062c6603a1ab4300e32135abe128a476336200027660201b60201c565b6200017a7f65d7a28e3265b37a6474929f336521b332c1681b933f6cb9f3376673440d862a336200027660201b60201c565b620001926301ffc9a760e01b6200028c60201b60201c565b8160089080519060200190620001aa92919062000532565b508060099080519060200190620001c392919062000532565b50620001dc6380ac58cd60e01b6200028c60201b60201c565b620001f4635b5e139f60e01b6200028c60201b60201c565b6200020c63780e9d6360e01b6200028c60201b60201c565b50506200023860405180606001604052806022815260200162006001602291396200039660201b60201c565b8073ffffffffffffffffffffffffffffffffffffffff1660808173ffffffffffffffffffffffffffffffffffffffff1660601b8152505050620005d8565b620002888282620003b260201b60201c565b5050565b63ffffffff60e01b817bffffffffffffffffffffffffffffffffffffffffffffffffffffffff1916141562000329576040517f08c379a000000000000000000000000000000000000000000000000000000000815260040180806020018281038252601c8152602001807f4552433136353a20696e76616c696420696e746572666163652069640000000081525060200191505060405180910390fd5b600160026000837bffffffffffffffffffffffffffffffffffffffffffffffffffffffff19167bffffffffffffffffffffffffffffffffffffffffffffffffffffffff1916815260200190815260200160002060006101000a81548160ff02191690831515021790555050565b80600b9080519060200190620003ae92919062000532565b5050565b620003e0816000808581526020019081526020016000206000016200045560201b620039d41790919060201c565b156200045157620003f66200048d60201b60201c565b73ffffffffffffffffffffffffffffffffffffffff168173ffffffffffffffffffffffffffffffffffffffff16837f2f8788117e7eff1d82e926ec794901d17c78024a50270940304540a733656f0d60405160405180910390a45b5050565b600062000485836000018373ffffffffffffffffffffffffffffffffffffffff1660001b6200049560201b60201c565b905092915050565b600033905090565b6000620004a983836200050f60201b60201c565b6200050457826000018290806001815401808255809150506001900390600052602060002001600090919091909150558260000180549050836001016000848152602001908152602001600020819055506001905062000509565b600090505b92915050565b600080836001016000848152602001908152602001600020541415905092915050565b828054600181600116156101000203166002900490600052602060002090601f016020900481019282601f106200057557805160ff1916838001178555620005a6565b82800160010185558215620005a6579182015b82811115620005a557825182559160200191906001019062000588565b5b509050620005b59190620005b9565b5090565b5b80821115620005d4576000816000905550600101620005ba565b5090565b60805160601c615a0b620005f6600039806134695250615a0b6000f3fe608060405234801561001057600080fd5b50600436106102835760003560e01c80636c0360eb1161015c578063aca57703116100ce578063d214f40011610087578063d214f400146111c1578063d4c10e46146112ee578063d547741f146113dc578063e63ab1e91461142a578063e6c0d71414611448578063e985e9c5146114a257610284565b8063aca5770314610e19578063b5900eea14610e92578063b88d4fde14610eb0578063c87b56dd14610fb5578063ca15c8731461105c578063ccb4bcb61461109e57610284565b80638456cb59116101205780638456cb5914610c585780639010d07c14610c6257806391d1485414610cc457806395d89b4114610d28578063a217fddf14610dab578063a22cb46514610dc957610284565b80636c0360eb14610ae75780636cdd0a1614610b6a5780637048027514610b8857806370a0823114610be257806375b238fc14610c3a57610284565b806331543cf4116101f55780634ba360ba116101b95780634ba360ba146109185780634de46fd0146109725780634f6ccce7146109b457806355f804b3146109f65780635c975abb14610a6f5780636352211e14610a8f57610284565b806331543cf41461067b57806336568abe146107fa5780633f4ba83a1461084857806342842e0e146108525780634311110f146108c057610284565b80631785f53c116102475780631785f53c146104a357806318160ddd146104fd57806323b872dd1461051b578063248a9ca3146105895780632f2ff15d146105cb5780632f745c591461061957610284565b806301ffc9a7146102d557806304523af11461033857806306fdde031461037a578063081812fc146103fd578063095ea7b31461045557610284565b5b6040517f08c379a000000000000000000000000000000000000000000000000000000000815260040180806020018281038252602d815260200180615630602d913960400191505060405180910390fd5b610320600480360360208110156102eb57600080fd5b8101908080357bffffffffffffffffffffffffffffffffffffffffffffffffffffffff1916906020019092919050505061151c565b60405180821515815260200191505060405180910390f35b6103646004803603602081101561034e57600080fd5b8101908080359060200190929190505050611584565b6040518082815260200191505060405180910390f35b610382611685565b6040518080602001828103825283818151815260200191508051906020019080838360005b838110156103c25780820151818401526020810190506103a7565b50505050905090810190601f1680156103ef5780820380516001836020036101000a031916815260200191505b509250505060405180910390f35b6104296004803603602081101561041357600080fd5b8101908080359060200190929190505050611727565b604051808273ffffffffffffffffffffffffffffffffffffffff16815260200191505060405180910390f35b6104a16004803603604081101561046b57600080fd5b81019080803573ffffffffffffffffffffffffffffffffffffffff169060200190929190803590602001909291905050506117c2565b005b6104e5600480360360208110156104b957600080fd5b81019080803573ffffffffffffffffffffffffffffffffffffffff169060200190929190505050611906565b60405180821515815260200191505060405180910390f35b61050561199d565b6040518082815260200191505060405180910390f35b6105876004803603606081101561053157600080fd5b81019080803573ffffffffffffffffffffffffffffffffffffffff169060200190929190803573ffffffffffffffffffffffffffffffffffffffff169060200190929190803590602001909291905050506119ae565b005b6105b56004803603602081101561059f57600080fd5b8101908080359060200190929190505050611a24565b6040518082815260200191505060405180910390f35b610617600480360360408110156105e157600080fd5b8101908080359060200190929190803573ffffffffffffffffffffffffffffffffffffffff169060200190929190505050611a43565b005b6106656004803603604081101561062f57600080fd5b81019080803573ffffffffffffffffffffffffffffffffffffffff16906020019092919080359060200190929190505050611acc565b6040518082815260200191505060405180910390f35b6106a76004803603602081101561069157600080fd5b8101908080359060200190929190505050611b27565b60405180806020018060200180602001848103845287818151815260200191508051906020019080838360005b838110156106ef5780820151818401526020810190506106d4565b50505050905090810190601f16801561071c5780820380516001836020036101000a031916815260200191505b50848103835286818151815260200191508051906020019080838360005b8381101561075557808201518184015260208101905061073a565b50505050905090810190601f1680156107825780820380516001836020036101000a031916815260200191505b50848103825285818151815260200191508051906020019080838360005b838110156107bb5780820151818401526020810190506107a0565b50505050905090810190601f1680156107e85780820380516001836020036101000a031916815260200191505b50965050505050505060405180910390f35b6108466004803603604081101561081057600080fd5b8101908080359060200190929190803573ffffffffffffffffffffffffffffffffffffffff169060200190929190505050611e33565b005b610850611ecc565b005b6108be6004803603606081101561086857600080fd5b81019080803573ffffffffffffffffffffffffffffffffffffffff169060200190929190803573ffffffffffffffffffffffffffffffffffffffff16906020019092919080359060200190929190505050611f55565b005b6108ec600480360360208110156108d657600080fd5b8101908080359060200190929190505050611f75565b604051808273ffffffffffffffffffffffffffffffffffffffff16815260200191505060405180910390f35b61095a6004803603602081101561092e57600080fd5b81019080803573ffffffffffffffffffffffffffffffffffffffff16906020019092919050505061206b565b60405180821515815260200191505060405180910390f35b61099e6004803603602081101561098857600080fd5b8101908080359060200190929190505050612102565b6040518082815260200191505060405180910390f35b6109e0600480360360208110156109ca57600080fd5b81019080803590602001909291905050506121f9565b6040518082815260200191505060405180910390f35b610a6d60048036036020811015610a0c57600080fd5b8101908080359060200190640100000000811115610a2957600080fd5b820183602082011115610a3b57600080fd5b80359060200191846001830284011164010000000083111715610a5d57600080fd5b909192939192939050505061221c565b005b610a776122cf565b60405180821515815260200191505060405180910390f35b610abb60048036036020811015610aa557600080fd5b81019080803590602001909291905050506122e6565b604051808273ffffffffffffffffffffffffffffffffffffffff16815260200191505060405180910390f35b610aef61231d565b6040518080602001828103825283818151815260200191508051906020019080838360005b83811015610b2f578082015181840152602081019050610b14565b50505050905090810190601f168015610b5c5780820380516001836020036101000a031916815260200191505b509250505060405180910390f35b610b726123bf565b6040518082815260200191505060405180910390f35b610bca60048036036020811015610b9e57600080fd5b81019080803573ffffffffffffffffffffffffffffffffffffffff1690602001909291905050506123e3565b60405180821515815260200191505060405180910390f35b610c2460048036036020811015610bf857600080fd5b81019080803573ffffffffffffffffffffffffffffffffffffffff169060200190929190505050612500565b6040518082815260200191505060405180910390f35b610c426125d5565b6040518082815260200191505060405180910390f35b610c606125f9565b005b610c9860048036036040811015610c7857600080fd5b810190808035906020019092919080359060200190929190505050612682565b604051808273ffffffffffffffffffffffffffffffffffffffff16815260200191505060405180910390f35b610d1060048036036040811015610cda57600080fd5b8101908080359060200190929190803573ffffffffffffffffffffffffffffffffffffffff1690602001909291905050506126b3565b60405180821515815260200191505060405180910390f35b610d306126e4565b6040518080602001828103825283818151815260200191508051906020019080838360005b83811015610d70578082015181840152602081019050610d55565b50505050905090810190601f168015610d9d5780820380516001836020036101000a031916815260200191505b509250505060405180910390f35b610db3612786565b6040518082815260200191505060405180910390f35b610e1760048036036040811015610ddf57600080fd5b81019080803573ffffffffffffffffffffffffffffffffffffffff16906020019092919080351515906020019092919050505061278d565b005b610e9060048036036020811015610e2f57600080fd5b8101908080359060200190640100000000811115610e4c57600080fd5b820183602082011115610e5e57600080fd5b80359060200191846020830284011164010000000083111715610e8057600080fd5b9091929391929390505050612943565b005b610e9a612a5b565b6040518082815260200191505060405180910390f35b610fb360048036036080811015610ec657600080fd5b81019080803573ffffffffffffffffffffffffffffffffffffffff169060200190929190803573ffffffffffffffffffffffffffffffffffffffff1690602001909291908035906020019092919080359060200190640100000000811115610f2d57600080fd5b820183602082011115610f3f57600080fd5b80359060200191846001830284011164010000000083111715610f6157600080fd5b91908080601f016020809104026020016040519081016040528093929190818152602001838380828437600081840152601f19601f820116905080830192505050505050509192919290505050612aef565b005b610fe160048036036020811015610fcb57600080fd5b8101908080359060200190929190505050612b67565b6040518080602001828103825283818151815260200191508051906020019080838360005b83811015611021578082015181840152602081019050611006565b50505050905090810190601f16801561104e5780820380516001836020036101000a031916815260200191505b509250505060405180910390f35b6110886004803603602081101561107257600080fd5b8101908080359060200190929190505050612e50565b6040518082815260200191505060405180910390f35b6111bf600480360360608110156110b457600080fd5b81019080803590602001906401000000008111156110d157600080fd5b8201836020820111156110e357600080fd5b8035906020019184600183028401116401000000008311171561110557600080fd5b90919293919293908035906020019064010000000081111561112657600080fd5b82018360208201111561113857600080fd5b8035906020019184600183028401116401000000008311171561115a57600080fd5b90919293919293908035906020019064010000000081111561117b57600080fd5b82018360208201111561118d57600080fd5b803590602001918460018302840111640100000000831117156111af57600080fd5b9091929391929390505050612e76565b005b6112ec600480360360808110156111d757600080fd5b8101908080359060200190929190803590602001906401000000008111156111fe57600080fd5b82018360208201111561121057600080fd5b8035906020019184600183028401116401000000008311171561123257600080fd5b90919293919293908035906020019064010000000081111561125357600080fd5b82018360208201111561126557600080fd5b8035906020019184600183028401116401000000008311171561128757600080fd5b9091929391929390803590602001906401000000008111156112a857600080fd5b8201836020820111156112ba57600080fd5b803590602001918460018302840111640100000000831117156112dc57600080fd5b90919293919293905050506130d7565b005b6113c46004803603606081101561130457600080fd5b810190808035906020019064010000000081111561132157600080fd5b82018360208201111561133357600080fd5b8035906020019184602083028401116401000000008311171561135557600080fd5b9091929391929390803590602001909291908035906020019064010000000081111561138057600080fd5b82018360208201111561139257600080fd5b803590602001918460018302840111640100000000831117156113b457600080fd5b9091929391929390505050613381565b60405180821515815260200191505060405180910390f35b611428600480360360408110156113f257600080fd5b8101908080359060200190929190803573ffffffffffffffffffffffffffffffffffffffff169060200190929190505050613776565b005b6114326137ff565b6040518082815260200191505060405180910390f35b61148a6004803603602081101561145e57600080fd5b81019080803573ffffffffffffffffffffffffffffffffffffffff169060200190929190505050613823565b60405180821515815260200191505060405180910390f35b611504600480360360408110156114b857600080fd5b81019080803573ffffffffffffffffffffffffffffffffffffffff169060200190929190803573ffffffffffffffffffffffffffffffffffffffff169060200190929190505050613940565b60405180821515815260200191505060405180910390f35b600060026000837bffffffffffffffffffffffffffffffffffffffffffffffffffffffff19167bffffffffffffffffffffffffffffffffffffffffffffffffffffffff1916815260200190815260200160002060009054906101000a900460ff169050919050565b6000600160009054906101000a900460ff1615611609576040517f08c379a00000000000000000000000000000000000000000000000000000000081526004018080602001828103825260108152602001807f5061757361626c653a207061757365640000000000000000000000000000000081525060200191505060405180910390fd5b81611614600c613a04565b1161166a576040517f08c379a00000000000000000000000000000000000000000000000000000000081526004018080602001828103825260268152602001806155886026913960400191505060405180910390fd5b600f6000838152602001908152602001600020549050919050565b606060088054600181600116156101000203166002900480601f01602080910402602001604051908101604052809291908181526020018280546001816001161561010002031660029004801561171d5780601f106116f25761010080835404028352916020019161171d565b820191906000526020600020905b81548152906001019060200180831161170057829003601f168201915b5050505050905090565b600061173282613a12565b611787576040517f08c379a000000000000000000000000000000000000000000000000000000000815260040180806020018281038252602c8152602001806157fe602c913960400191505060405180910390fd5b6006600083815260200190815260200160002060009054906101000a900473ffffffffffffffffffffffffffffffffffffffff169050919050565b60006117cd826122e6565b90508073ffffffffffffffffffffffffffffffffffffffff168373ffffffffffffffffffffffffffffffffffffffff161415611854576040517f08c379a00000000000000000000000000000000000000000000000000000000081526004018080602001828103825260218152602001806158fd6021913960400191505060405180910390fd5b8073ffffffffffffffffffffffffffffffffffffffff16611873613a2f565b73ffffffffffffffffffffffffffffffffffffffff1614806118a257506118a18161189c613a2f565b613940565b5b6118f7576040517f08c379a00000000000000000000000000000000000000000000000000000000081526004018080602001828103825260388152602001806157286038913960400191505060405180910390fd5b6119018383613a37565b505050565b60006119156000801b336126b3565b61196a576040517f08c379a000000000000000000000000000000000000000000000000000000000815260040180806020018281038252602d8152602001806155e0602d913960400191505060405180910390fd5b6119947fa49807205ce4d355092ef5a8a18f56e8913cf4a201fbe287825b095693c2177583613776565b60019050919050565b60006119a96004613af0565b905090565b6119bf6119b9613a2f565b82613b05565b611a14576040517f08c379a000000000000000000000000000000000000000000000000000000000815260040180806020018281038252603181526020018061594a6031913960400191505060405180910390fd5b611a1f838383613bf9565b505050565b6000806000838152602001908152602001600020600201549050919050565b611a6960008084815260200190815260200160002060020154611a64613a2f565b6126b3565b611abe576040517f08c379a000000000000000000000000000000000000000000000000000000000815260040180806020018281038252602f815260200180615505602f913960400191505060405180910390fd5b611ac88282613c60565b5050565b6000611b1f82600360008673ffffffffffffffffffffffffffffffffffffffff1673ffffffffffffffffffffffffffffffffffffffff168152602001908152602001600020613cf390919063ffffffff16565b905092915050565b6060806060600160009054906101000a900460ff1615611baf576040517f08c379a00000000000000000000000000000000000000000000000000000000081526004018080602001828103825260108152602001807f5061757361626c653a207061757365640000000000000000000000000000000081525060200191505060405180910390fd5b83611bba600c613a04565b11611c10576040517f08c379a00000000000000000000000000000000000000000000000000000000081526004018080602001828103825260268152602001806155886026913960400191505060405180910390fd5b600e6000858152602001908152602001600020600001600e6000868152602001908152602001600020600101600e6000878152602001908152602001600020600201828054600181600116156101000203166002900480601f016020809104026020016040519081016040528092919081815260200182805460018160011615610100020316600290048015611ce75780601f10611cbc57610100808354040283529160200191611ce7565b820191906000526020600020905b815481529060010190602001808311611cca57829003601f168201915b50505050509250818054600181600116156101000203166002900480601f016020809104026020016040519081016040528092919081815260200182805460018160011615610100020316600290048015611d835780601f10611d5857610100808354040283529160200191611d83565b820191906000526020600020905b815481529060010190602001808311611d6657829003601f168201915b50505050509150808054600181600116156101000203166002900480601f016020809104026020016040519081016040528092919081815260200182805460018160011615610100020316600290048015611e1f5780601f10611df457610100808354040283529160200191611e1f565b820191906000526020600020905b815481529060010190602001808311611e0257829003601f168201915b505050505090509250925092509193909250565b611e3b613a2f565b73ffffffffffffffffffffffffffffffffffffffff168173ffffffffffffffffffffffffffffffffffffffff1614611ebe576040517f08c379a000000000000000000000000000000000000000000000000000000000815260040180806020018281038252602f8152602001806159a7602f913960400191505060405180910390fd5b611ec88282613d0d565b5050565b611ef67f65d7a28e3265b37a6474929f336521b332c1681b933f6cb9f3376673440d862a336126b3565b611f4b576040517f08c379a000000000000000000000000000000000000000000000000000000000815260040180806020018281038252602e815260200180615534602e913960400191505060405180910390fd5b611f53613da0565b565b611f7083838360405180602001604052806000815250612aef565b505050565b6000600160009054906101000a900460ff1615611ffa576040517f08c379a00000000000000000000000000000000000000000000000000000000081526004018080602001828103825260108152602001807f5061757361626c653a207061757365640000000000000000000000000000000081525060200191505060405180910390fd5b61200382613a12565b612058576040517f08c379a00000000000000000000000000000000000000000000000000000000081526004018080602001828103825260238152602001806158826023913960400191505060405180910390fd5b61206182613e93565b5080915050919050565b600061207a6000801b336126b3565b6120cf576040517f08c379a000000000000000000000000000000000000000000000000000000000815260040180806020018281038252602d8152602001806155e0602d913960400191505060405180910390fd5b6120f97f82fc59a2af283c7e52e3f7cf8d269383062c6603a1ab4300e32135abe128a47683613776565b60019050919050565b6000600160009054906101000a900460ff1615612187576040517f08c379a00000000000000000000000000000000000000000000000000000000081526004018080602001828103825260108152602001807f5061757361626c653a207061757365640000000000000000000000000000000081525060200191505060405180910390fd5b61219082613a12565b6121e5576040517f08c379a00000000000000000000000000000000000000000000000000000000081526004018080602001828103825260238152602001806158826023913960400191505060405180910390fd5b6121ee82613e93565b905080915050919050565b600080612210836004613ed490919063ffffffff16565b50905080915050919050565b6122296000801b336126b3565b61227e576040517f08c379a000000000000000000000000000000000000000000000000000000000815260040180806020018281038252602c81526020018061597b602c913960400191505060405180910390fd5b6122cb82828080601f016020809104026020016040519081016040528093929190818152602001838380828437600081840152601f19601f82011690508083019250505050505050613f00565b5050565b6000600160009054906101000a900460ff16905090565b60006123168260405180606001604052806029815260200161578a602991396004613f1a9092919063ffffffff16565b9050919050565b6060600b8054600181600116156101000203166002900480601f0160208091040260200160405190810160405280929190818152602001828054600181600116156101000203166002900480156123b55780601f1061238a576101008083540402835291602001916123b5565b820191906000526020600020905b81548152906001019060200180831161239857829003601f168201915b5050505050905090565b7f82fc59a2af283c7e52e3f7cf8d269383062c6603a1ab4300e32135abe128a47681565b60006123f26000801b336126b3565b612447576040517f08c379a000000000000000000000000000000000000000000000000000000000815260040180806020018281038252602d8152602001806155e0602d913960400191505060405180910390fd5b600073ffffffffffffffffffffffffffffffffffffffff168273ffffffffffffffffffffffffffffffffffffffff1614156124cd576040517f08c379a00000000000000000000000000000000000000000000000000000000081526004018080602001828103825260298152602001806157b36029913960400191505060405180910390fd5b6124f77fa49807205ce4d355092ef5a8a18f56e8913cf4a201fbe287825b095693c2177583611a43565b60019050919050565b60008073ffffffffffffffffffffffffffffffffffffffff168273ffffffffffffffffffffffffffffffffffffffff161415612587576040517f08c379a000000000000000000000000000000000000000000000000000000000815260040180806020018281038252602a815260200180615760602a913960400191505060405180910390fd5b6125ce600360008473ffffffffffffffffffffffffffffffffffffffff1673ffffffffffffffffffffffffffffffffffffffff168152602001908152602001600020613f39565b9050919050565b7fa49807205ce4d355092ef5a8a18f56e8913cf4a201fbe287825b095693c2177581565b6126237f65d7a28e3265b37a6474929f336521b332c1681b933f6cb9f3376673440d862a336126b3565b612678576040517f08c379a000000000000000000000000000000000000000000000000000000000815260040180806020018281038252602c815260200180615856602c913960400191505060405180910390fd5b612680613f4e565b565b60006126ab8260008086815260200190815260200160002060000161404190919063ffffffff16565b905092915050565b60006126dc8260008086815260200190815260200160002060000161405b90919063ffffffff16565b905092915050565b606060098054600181600116156101000203166002900480601f01602080910402602001604051908101604052809291908181526020018280546001816001161561010002031660029004801561277c5780601f106127515761010080835404028352916020019161277c565b820191906000526020600020905b81548152906001019060200180831161275f57829003601f168201915b5050505050905090565b6000801b81565b612795613a2f565b73ffffffffffffffffffffffffffffffffffffffff168273ffffffffffffffffffffffffffffffffffffffff161415612836576040517f08c379a00000000000000000000000000000000000000000000000000000000081526004018080602001828103825260198152602001807f4552433732313a20617070726f766520746f2063616c6c65720000000000000081525060200191505060405180910390fd5b8060076000612843613a2f565b73ffffffffffffffffffffffffffffffffffffffff1673ffffffffffffffffffffffffffffffffffffffff16815260200190815260200160002060008473ffffffffffffffffffffffffffffffffffffffff1673ffffffffffffffffffffffffffffffffffffffff16815260200190815260200160002060006101000a81548160ff0219169083151502179055508173ffffffffffffffffffffffffffffffffffffffff166128f0613a2f565b73ffffffffffffffffffffffffffffffffffffffff167f17307eab39ab6107e8899845ad3d59bd9653f200f220920489ca2b5937696c318360405180821515815260200191505060405180910390a35050565b600160009054906101000a900460ff16156129c6576040517f08c379a00000000000000000000000000000000000000000000000000000000081526004018080602001828103825260108152602001807f5061757361626c653a207061757365640000000000000000000000000000000081525060200191505060405180910390fd5b6129f07fa49807205ce4d355092ef5a8a18f56e8913cf4a201fbe287825b095693c21775336126b3565b612a45576040517f08c379a000000000000000000000000000000000000000000000000000000000815260040180806020018281038252602381526020018061560d6023913960400191505060405180910390fd5b8181600d9190612a5692919061535b565b505050565b6000600160009054906101000a900460ff1615612ae0576040517f08c379a00000000000000000000000000000000000000000000000000000000081526004018080602001828103825260108152602001807f5061757361626c653a207061757365640000000000000000000000000000000081525060200191505060405180910390fd5b612aea600c613a04565b905090565b612b00612afa613a2f565b83613b05565b612b55576040517f08c379a000000000000000000000000000000000000000000000000000000000815260040180806020018281038252603181526020018061594a6031913960400191505060405180910390fd5b612b618484848461408b565b50505050565b6060612b7282613a12565b612bc7576040517f08c379a000000000000000000000000000000000000000000000000000000000815260040180806020018281038252602f8152602001806158ce602f913960400191505060405180910390fd5b6060600a60008481526020019081526020016000208054600181600116156101000203166002900480601f016020809104026020016040519081016040528092919081815260200182805460018160011615610100020316600290048015612c705780601f10612c4557610100808354040283529160200191612c70565b820191906000526020600020905b815481529060010190602001808311612c5357829003601f168201915b505050505090506000600b8054600181600116156101000203166002900490501415612c9f5780915050612e4b565b600081511115612d7857600b816040516020018083805460018160011615610100020316600290048015612d0a5780601f10612ce8576101008083540402835291820191612d0a565b820191906000526020600020905b815481529060010190602001808311612cf6575b505082805190602001908083835b60208310612d3b5780518252602082019150602081019050602083039250612d18565b6001836020036101000a03801982511681845116808217855250505050505090500192505050604051602081830303815290604052915050612e4b565b600b612d83846140fd565b6040516020018083805460018160011615610100020316600290048015612de15780601f10612dbf576101008083540402835291820191612de1565b820191906000526020600020905b815481529060010190602001808311612dcd575b505082805190602001908083835b60208310612e125780518252602082019150602081019050602083039250612def565b6001836020036101000a038019825116818451168082178552505050505050905001925050506040516020818303038152906040529150505b919050565b6000612e6f600080848152602001908152602001600020600001614244565b9050919050565b600160009054906101000a900460ff1615612ef9576040517f08c379a00000000000000000000000000000000000000000000000000000000081526004018080602001828103825260108152602001807f5061757361626c653a207061757365640000000000000000000000000000000081525060200191505060405180910390fd5b612f237f82fc59a2af283c7e52e3f7cf8d269383062c6603a1ab4300e32135abe128a476336126b3565b612f78576040517f08c379a000000000000000000000000000000000000000000000000000000000815260040180806020018281038252602c81526020018061591e602c913960400191505060405180910390fd5b6000612f84600c613a04565b90508686600e60008481526020019081526020016000206000019190612fab9291906153a8565b508484600e60008481526020019081526020016000206001019190612fd19291906153a8565b508282600e60008481526020019081526020016000206002019190612ff79291906153a8565b50613002600c614259565b807f335347d3c0abbe88e13ee17ff9db9ff2aabea3e099f1ffd10807e9c7f9cf82ad8888888888886040518080602001806020018060200184810384528a8a82818152602001925080828437600081840152601f19601f8201169050808301925050508481038352888882818152602001925080828437600081840152601f19601f8201169050808301925050508481038252868682818152602001925080828437600081840152601f19601f820116905080830192505050995050505050505050505060405180910390a250505050505050565b600160009054906101000a900460ff161561315a576040517f08c379a00000000000000000000000000000000000000000000000000000000081526004018080602001828103825260108152602001807f5061757361626c653a207061757365640000000000000000000000000000000081525060200191505060405180910390fd5b6131847f82fc59a2af283c7e52e3f7cf8d269383062c6603a1ab4300e32135abe128a476336126b3565b6131d9576040517f08c379a000000000000000000000000000000000000000000000000000000000815260040180806020018281038252602c81526020018061591e602c913960400191505060405180910390fd5b866131e4600c613a04565b1161323a576040517f08c379a00000000000000000000000000000000000000000000000000000000081526004018080602001828103825260268152602001806155886026913960400191505060405180910390fd5b8585600e60008a8152602001908152602001600020600001919061325f9291906153a8565b508383600e60008a815260200190815260200160002060010191906132859291906153a8565b508181600e60008a815260200190815260200160002060020191906132ab9291906153a8565b50867fcfea559888b71c63137ce2f6354ae40661672d1ea2d56b2db88cdd200ff42b738787878787876040518080602001806020018060200184810384528a8a82818152602001925080828437600081840152601f19601f8201169050808301925050508481038352888882818152602001925080828437600081840152601f19601f8201169050808301925050508481038252868682818152602001925080828437600081840152601f19601f820116905080830192505050995050505050505050505060405180910390a250505050505050565b6000600160009054906101000a900460ff1615613406576040517f08c379a00000000000000000000000000000000000000000000000000000000081526004018080602001828103825260108152602001807f5061757361626c653a207061757365640000000000000000000000000000000081525060200191505060405180910390fd5b83613411600c613a04565b11613467576040517f08c379a00000000000000000000000000000000000000000000000000000000081526004018080602001828103825260268152602001806155886026913960400191505060405180910390fd5b7f000000000000000000000000000000000000000000000000000000000000000073ffffffffffffffffffffffffffffffffffffffff1663ebfa62b985336040518363ffffffff1660e01b8152600401808381526020018273ffffffffffffffffffffffffffffffffffffffff1681526020019250505060206040518083038186803b1580156134f657600080fd5b505afa15801561350a573d6000803e3d6000fd5b505050506040513d602081101561352057600080fd5b8101908080519060200190929190505050806135e457506135e3600d858154811061354757fe5b906000526020600020015433604051602001808273ffffffffffffffffffffffffffffffffffffffff1660601b815260140191505060405160208183030381529060405280519060200120888880806020026020016040519081016040528093929190818152602001838360200280828437600081840152601f19601f8201169050808301925050505050505061426f9092919063ffffffff16565b5b613639576040517f08c379a00000000000000000000000000000000000000000000000000000000081526004018080602001828103825260268152602001806155626026913960400191505060405180910390fd5b60006136453386614324565b905061366e6001600f60008881526020019081526020016000205461438d90919063ffffffff16565b600f60008781526020019081526020016000208190555061369133828686614415565b613703576040517f08c379a000000000000000000000000000000000000000000000000000000000815260040180806020018281038252601e8152602001807f4261646765466163746f72793a206261646765206e6f74206d696e746564000081525060200191505060405180910390fd5b84817f6e8fac86d7d828d4ea299541ba444cfc69fdef8dfca04f107cca6066ab50954f868660405180806020018281038252848482818152602001925080828437600081840152601f19601f820116905080830192505050935050505060405180910390a3600191505095945050505050565b61379c60008084815260200190815260200160002060020154613797613a2f565b6126b3565b6137f1576040517f08c379a00000000000000000000000000000000000000000000000000000000081526004018080602001828103825260308152602001806156f86030913960400191505060405180910390fd5b6137fb8282613d0d565b5050565b7f65d7a28e3265b37a6474929f336521b332c1681b933f6cb9f3376673440d862a81565b60006138326000801b336126b3565b613887576040517f08c379a000000000000000000000000000000000000000000000000000000000815260040180806020018281038252602d8152602001806155e0602d913960400191505060405180910390fd5b600073ffffffffffffffffffffffffffffffffffffffff168273ffffffffffffffffffffffffffffffffffffffff16141561390d576040517f08c379a00000000000000000000000000000000000000000000000000000000081526004018080602001828103825260298152602001806157b36029913960400191505060405180910390fd5b6139377f82fc59a2af283c7e52e3f7cf8d269383062c6603a1ab4300e32135abe128a47683611a43565b60019050919050565b6000600760008473ffffffffffffffffffffffffffffffffffffffff1673ffffffffffffffffffffffffffffffffffffffff16815260200190815260200160002060008373ffffffffffffffffffffffffffffffffffffffff1673ffffffffffffffffffffffffffffffffffffffff16815260200190815260200160002060009054906101000a900460ff16905092915050565b60006139fc836000018373ffffffffffffffffffffffffffffffffffffffff1660001b61447b565b905092915050565b600081600001549050919050565b6000613a288260046144eb90919063ffffffff16565b9050919050565b600033905090565b816006600083815260200190815260200160002060006101000a81548173ffffffffffffffffffffffffffffffffffffffff021916908373ffffffffffffffffffffffffffffffffffffffff160217905550808273ffffffffffffffffffffffffffffffffffffffff16613aaa836122e6565b73ffffffffffffffffffffffffffffffffffffffff167f8c5be1e5ebec7d5bd14f71427d1e84f3dd0314c0f7b2291e5b200ac8c7c3b92560405160405180910390a45050565b6000613afe82600001614505565b9050919050565b6000613b1082613a12565b613b65576040517f08c379a000000000000000000000000000000000000000000000000000000000815260040180806020018281038252602c8152602001806156cc602c913960400191505060405180910390fd5b6000613b70836122e6565b90508073ffffffffffffffffffffffffffffffffffffffff168473ffffffffffffffffffffffffffffffffffffffff161480613bdf57508373ffffffffffffffffffffffffffffffffffffffff16613bc784611727565b73ffffffffffffffffffffffffffffffffffffffff16145b80613bf05750613bef8185613940565b5b91505092915050565b6000613c50576040517f08c379a000000000000000000000000000000000000000000000000000000000815260040180806020018281038252602581526020018061565d6025913960400191505060405180910390fd5b613c5b838383614516565b505050565b613c87816000808581526020019081526020016000206000016139d490919063ffffffff16565b15613cef57613c94613a2f565b73ffffffffffffffffffffffffffffffffffffffff168173ffffffffffffffffffffffffffffffffffffffff16837f2f8788117e7eff1d82e926ec794901d17c78024a50270940304540a733656f0d60405160405180910390a45b5050565b6000613d028360000183614759565b60001c905092915050565b613d34816000808581526020019081526020016000206000016147dc90919063ffffffff16565b15613d9c57613d41613a2f565b73ffffffffffffffffffffffffffffffffffffffff168173ffffffffffffffffffffffffffffffffffffffff16837ff6391f5c32d9c69d2a47ea670b442974b53935d1edc7fd64eb21e047a839171b60405160405180910390a45b5050565b600160009054906101000a900460ff16613e22576040517f08c379a00000000000000000000000000000000000000000000000000000000081526004018080602001828103825260148152602001807f5061757361626c653a206e6f742070617573656400000000000000000000000081525060200191505060405180910390fd5b6000600160006101000a81548160ff0219169083151502179055507f5db9ee0a495bf2e6ff9c91a7834c1ba4fdd244a5e8aa4e537bd38aeae4b073aa613e66613a2f565b604051808273ffffffffffffffffffffffffffffffffffffffff16815260200191505060405180910390a1565b6000807fffffffffffffffffffffffffffffffffffffffff000000000000000000000000831660601c91506bffffffffffffffffffffffff83169050915091565b600080600080613ee7866000018661480c565b915091508160001c8160001c9350935050509250929050565b80600b9080519060200190613f16929190615428565b5050565b6000613f2d846000018460001b846148a5565b60001c90509392505050565b6000613f478260000161499b565b9050919050565b600160009054906101000a900460ff1615613fd1576040517f08c379a00000000000000000000000000000000000000000000000000000000081526004018080602001828103825260108152602001807f5061757361626c653a207061757365640000000000000000000000000000000081525060200191505060405180910390fd5b60018060006101000a81548160ff0219169083151502179055507f62e78cea01bee320cd4e420270b5ea74000d11b0c9f74754ebdbfc544b05a258614014613a2f565b604051808273ffffffffffffffffffffffffffffffffffffffff16815260200191505060405180910390a1565b60006140508360000183614759565b60001c905092915050565b6000614083836000018373ffffffffffffffffffffffffffffffffffffffff1660001b6149ac565b905092915050565b614096848484613bf9565b6140a2848484846149cf565b6140f7576040517f08c379a00000000000000000000000000000000000000000000000000000000081526004018080602001828103825260328152602001806155ae6032913960400191505060405180910390fd5b50505050565b60606000821415614145576040518060400160405280600181526020017f3000000000000000000000000000000000000000000000000000000000000000815250905061423f565b600082905060005b6000821461416f578080600101915050600a828161416757fe5b04915061414d565b60608167ffffffffffffffff8111801561418857600080fd5b506040519080825280601f01601f1916602001820160405280156141bb5781602001600182028036833780820191505090505b50905060006001830390508593505b6000841461423757600a84816141dc57fe5b0660300160f81b828280600190039350815181106141f657fe5b60200101907effffffffffffffffffffffffffffffffffffffffffffffffffffffffffffff1916908160001a905350600a848161422f57fe5b0493506141ca565b819450505050505b919050565b60006142528260000161499b565b9050919050565b6001816000016000828254019250508190555050565b60008082905060005b855181101561431657600086828151811061428f57fe5b602002602001015190508083116142d65782816040516020018083815260200182815260200192505050604051602081830303815290604052805190602001209250614308565b808360405160200180838152602001828152602001925050506040516020818303038152906040528051906020012092505b508080600101915050614278565b508381149150509392505050565b600060608383604051602001808373ffffffffffffffffffffffffffffffffffffffff1660601b8152601401826bffffffffffffffffffffffff1660a01b8152600c01925050506040516020818303038152906040529050600060200181015191505092915050565b60008082840190508381101561440b576040517f08c379a000000000000000000000000000000000000000000000000000000000815260040180806020018281038252601b8152602001807f536166654d6174683a206164646974696f6e206f766572666c6f77000000000081525060200191505060405180910390fd5b8091505092915050565b60006144218585614be8565b61446f8484848080601f016020809104026020016040519081016040528093929190818152602001838380828437600081840152601f19601f82011690508083019250505050505050614ddc565b60019050949350505050565b600061448783836149ac565b6144e05782600001829080600181540180825580915050600190039060005260206000200160009091909190915055826000018054905083600101600084815260200190815260200160002081905550600190506144e5565b600090505b92915050565b60006144fd836000018360001b614e66565b905092915050565b600081600001805490509050919050565b8273ffffffffffffffffffffffffffffffffffffffff16614536826122e6565b73ffffffffffffffffffffffffffffffffffffffff16146145a2576040517f08c379a00000000000000000000000000000000000000000000000000000000081526004018080602001828103825260298152602001806158a56029913960400191505060405180910390fd5b600073ffffffffffffffffffffffffffffffffffffffff168273ffffffffffffffffffffffffffffffffffffffff161415614628576040517f08c379a00000000000000000000000000000000000000000000000000000000081526004018080602001828103825260248152602001806156826024913960400191505060405180910390fd5b614633838383614e89565b61463e600082613a37565b61468f81600360008673ffffffffffffffffffffffffffffffffffffffff1673ffffffffffffffffffffffffffffffffffffffff168152602001908152602001600020614e8e90919063ffffffff16565b506146e181600360008573ffffffffffffffffffffffffffffffffffffffff1673ffffffffffffffffffffffffffffffffffffffff168152602001908152602001600020614ea890919063ffffffff16565b506146f881836004614ec29092919063ffffffff16565b50808273ffffffffffffffffffffffffffffffffffffffff168473ffffffffffffffffffffffffffffffffffffffff167fddf252ad1be2c89b69c2b068fc378daa952ba7f163c4a11628f55a4df523b3ef60405160405180910390a4505050565b6000818360000180549050116147ba576040517f08c379a00000000000000000000000000000000000000000000000000000000081526004018080602001828103825260228152602001806154e36022913960400191505060405180910390fd5b8260000182815481106147c957fe5b9060005260206000200154905092915050565b6000614804836000018373ffffffffffffffffffffffffffffffffffffffff1660001b614ef7565b905092915050565b6000808284600001805490501161486e576040517f08c379a00000000000000000000000000000000000000000000000000000000081526004018080602001828103825260228152602001806157dc6022913960400191505060405180910390fd5b600084600001848154811061487f57fe5b906000526020600020906002020190508060000154816001015492509250509250929050565b6000808460010160008581526020019081526020016000205490506000811415839061496c576040517f08c379a00000000000000000000000000000000000000000000000000000000081526004018080602001828103825283818151815260200191508051906020019080838360005b83811015614931578082015181840152602081019050614916565b50505050905090810190601f16801561495e5780820380516001836020036101000a031916815260200191505b509250505060405180910390fd5b5084600001600182038154811061497f57fe5b9060005260206000209060020201600101549150509392505050565b600081600001805490509050919050565b600080836001016000848152602001908152602001600020541415905092915050565b60006149f08473ffffffffffffffffffffffffffffffffffffffff16614fdf565b6149fd5760019050614be0565b6060614b6763150b7a0260e01b614a12613a2f565b888787604051602401808573ffffffffffffffffffffffffffffffffffffffff1681526020018473ffffffffffffffffffffffffffffffffffffffff16815260200183815260200180602001828103825283818151815260200191508051906020019080838360005b83811015614a96578082015181840152602081019050614a7b565b50505050905090810190601f168015614ac35780820380516001836020036101000a031916815260200191505b5095505050505050604051602081830303815290604052907bffffffffffffffffffffffffffffffffffffffffffffffffffffffff19166020820180517bffffffffffffffffffffffffffffffffffffffffffffffffffffffff83818316178352505050506040518060600160405280603281526020016155ae603291398773ffffffffffffffffffffffffffffffffffffffff16614ff29092919063ffffffff16565b90506000818060200190516020811015614b8057600080fd5b8101908080519060200190929190505050905063150b7a0260e01b7bffffffffffffffffffffffffffffffffffffffffffffffffffffffff1916817bffffffffffffffffffffffffffffffffffffffffffffffffffffffff191614925050505b949350505050565b600073ffffffffffffffffffffffffffffffffffffffff168273ffffffffffffffffffffffffffffffffffffffff161415614c8b576040517f08c379a00000000000000000000000000000000000000000000000000000000081526004018080602001828103825260208152602001807f4552433732313a206d696e7420746f20746865207a65726f206164647265737381525060200191505060405180910390fd5b614c9481613a12565b15614d07576040517f08c379a000000000000000000000000000000000000000000000000000000000815260040180806020018281038252601c8152602001807f4552433732313a20746f6b656e20616c7265616479206d696e7465640000000081525060200191505060405180910390fd5b614d1360008383614e89565b614d6481600360008573ffffffffffffffffffffffffffffffffffffffff1673ffffffffffffffffffffffffffffffffffffffff168152602001908152602001600020614ea890919063ffffffff16565b50614d7b81836004614ec29092919063ffffffff16565b50808273ffffffffffffffffffffffffffffffffffffffff16600073ffffffffffffffffffffffffffffffffffffffff167fddf252ad1be2c89b69c2b068fc378daa952ba7f163c4a11628f55a4df523b3ef60405160405180910390a45050565b614de582613a12565b614e3a576040517f08c379a000000000000000000000000000000000000000000000000000000000815260040180806020018281038252602c81526020018061582a602c913960400191505060405180910390fd5b80600a60008481526020019081526020016000209080519060200190614e61929190615428565b505050565b600080836001016000848152602001908152602001600020541415905092915050565b505050565b6000614ea0836000018360001b614ef7565b905092915050565b6000614eba836000018360001b61447b565b905092915050565b6000614eee846000018460001b8473ffffffffffffffffffffffffffffffffffffffff1660001b61500a565b90509392505050565b60008083600101600084815260200190815260200160002054905060008114614fd35760006001820390506000600186600001805490500390506000866000018281548110614f4257fe5b9060005260206000200154905080876000018481548110614f5f57fe5b9060005260206000200181905550600183018760010160008381526020019081526020016000208190555086600001805480614f9757fe5b60019003818190600052602060002001600090559055866001016000878152602001908152602001600020600090556001945050505050614fd9565b60009150505b92915050565b600080823b905060008111915050919050565b606061500184846000856150e6565b90509392505050565b60008084600101600085815260200190815260200160002054905060008114156150b1578460000160405180604001604052808681526020018581525090806001815401808255809150506001900390600052602060002090600202016000909190919091506000820151816000015560208201518160010155505084600001805490508560010160008681526020019081526020016000208190555060019150506150df565b828560000160018303815481106150c457fe5b90600052602060002090600202016001018190555060009150505b9392505050565b606082471015615141576040517f08c379a00000000000000000000000000000000000000000000000000000000081526004018080602001828103825260268152602001806156a66026913960400191505060405180910390fd5b61514a85614fdf565b6151bc576040517f08c379a000000000000000000000000000000000000000000000000000000000815260040180806020018281038252601d8152602001807f416464726573733a2063616c6c20746f206e6f6e2d636f6e747261637400000081525060200191505060405180910390fd5b600060608673ffffffffffffffffffffffffffffffffffffffff1685876040518082805190602001908083835b6020831061520c57805182526020820191506020810190506020830392506151e9565b6001836020036101000a03801982511681845116808217855250505050505090500191505060006040518083038185875af1925050503d806000811461526e576040519150601f19603f3d011682016040523d82523d6000602084013e615273565b606091505b509150915061528382828661528f565b92505050949350505050565b6060831561529f57829050615354565b6000835111156152b25782518084602001fd5b816040517f08c379a00000000000000000000000000000000000000000000000000000000081526004018080602001828103825283818151815260200191508051906020019080838360005b838110156153195780820151818401526020810190506152fe565b50505050905090810190601f1680156153465780820380516001836020036101000a031916815260200191505b509250505060405180910390fd5b9392505050565b828054828255906000526020600020908101928215615397579160200282015b8281111561539657823582559160200191906001019061537b565b5b5090506153a491906154a8565b5090565b828054600181600116156101000203166002900490600052602060002090601f016020900481019282601f106153e957803560ff1916838001178555615417565b82800160010185558215615417579182015b828111156154165782358255916020019190600101906153fb565b5b50905061542491906154c5565b5090565b828054600181600116156101000203166002900490600052602060002090601f016020900481019282601f1061546957805160ff1916838001178555615497565b82800160010185558215615497579182015b8281111561549657825182559160200191906001019061547b565b5b5090506154a491906154c5565b5090565b5b808211156154c15760008160009055506001016154a9565b5090565b5b808211156154de5760008160009055506001016154c6565b509056fe456e756d657261626c655365743a20696e646578206f7574206f6620626f756e6473416363657373436f6e74726f6c3a2073656e646572206d75737420626520616e2061646d696e20746f206772616e744261646765466163746f72793a206d75737420686176652070617573657220726f6c6520746f20756e70617573654261646765466163746f72793a2063616c6c6572206973206e6f7420612072656465656d65724261646765466163746f72793a206e6f2074656d706c617465207769746820746861742069644552433732313a207472616e7366657220746f206e6f6e20455243373231526563656976657220696d706c656d656e7465724261646765466163746f72793a2063616c6c6572206973206e6f74207468652064656661756c742061646d696e4d616b65724261646765733a2063616c6c6572206973206e6f7420616e2061646d696e4261646765466163746f72793a2066756e6374696f6e206e6f74206d61746368696e6720616e79206f746865724261646765466163746f72793a206261646765207472616e736665722064697361626c65644552433732313a207472616e7366657220746f20746865207a65726f2061646472657373416464726573733a20696e73756666696369656e742062616c616e636520666f722063616c6c4552433732313a206f70657261746f7220717565727920666f72206e6f6e6578697374656e7420746f6b656e416363657373436f6e74726f6c3a2073656e646572206d75737420626520616e2061646d696e20746f207265766f6b654552433732313a20617070726f76652063616c6c6572206973206e6f74206f776e6572206e6f7220617070726f76656420666f7220616c6c4552433732313a2062616c616e636520717565727920666f7220746865207a65726f20616464726573734552433732313a206f776e657220717565727920666f72206e6f6e6578697374656e7420746f6b656e4261646765466163746f72793a206163636f756e7420697320746865207a65726f2061646472657373456e756d657261626c654d61703a20696e646578206f7574206f6620626f756e64734552433732313a20617070726f76656420717565727920666f72206e6f6e6578697374656e7420746f6b656e4552433732314d657461646174613a2055524920736574206f66206e6f6e6578697374656e7420746f6b656e4261646765466163746f72793a206d75737420686176652070617573657220726f6c6520746f2070617573654261646765466163746f72793a206e6f20746f6b656e207769746820746861742069644552433732313a207472616e73666572206f6620746f6b656e2074686174206973206e6f74206f776e4552433732314d657461646174613a2055524920717565727920666f72206e6f6e6578697374656e7420746f6b656e4552433732313a20617070726f76616c20746f2063757272656e74206f776e65724261646765466163746f72793a2063616c6c6572206973206e6f7420612074656d706c617465206f776e65724552433732313a207472616e736665722063616c6c6572206973206e6f74206f776e6572206e6f7220617070726f7665644d616b65724261646765733a2063616c6c6572206973206e6f74207468652064656661756c742061646d696e416363657373436f6e74726f6c3a2063616e206f6e6c792072656e6f756e636520726f6c657320666f722073656c66a26469706673582212209f9561be7f36e46dc0c79c3af4e6f61180314b3108e0ff02760d631c4d114ea664736f6c634300060c003368747470733a2f2f6261646765732e6d616b657264616f2e636f6d2f746f6b656e2f",
  "immutableReferences": {
    "31": [
      {
        "length": 32,
        "start": 13417
      }
    ]
  },
  "source": "/// SPDX-License-Identifier: AGPL-3.0-or-later\npragma solidity 0.6.12;\n\n/// @title Non-transferable Badges for Maker Ecosystem Activity, CDIP 18, 29\n/// @author Nazzareno Massari @naszam\n/// @notice BadgeFactory to manage Templates and activate Non-transferable MakerBadges by redeemers\n/// @dev See https://github.com/makerdao/community/issues/537\n/// @dev See https://github.com/makerdao/community/issues/721\n/// @dev All function calls are currently implemented without side effects through TDD approach\n/// @dev OpenZeppelin Library is used for secure contract development\n\n/*\n       \n  \n   \n   \n        \n*/\n\n\n\nimport \"./BadgeRoles.sol\";\nimport \"@openzeppelin/contracts/utils/Counters.sol\";\nimport \"@openzeppelin/contracts/token/ERC721/ERC721.sol\";\nimport \"@openzeppelin/contracts/cryptography/MerkleProof.sol\";\n\ninterface MakerBadgesLike {\n    function verify(uint256 templateId, address guy) external view returns (bool);\n}\n\ncontract BadgeFactory is BadgeRoles, ERC721 {\n\n    /// @dev Libraries\n    using SafeMath for uint256;\n    using Counters for Counters.Counter;\n    using MerkleProof for bytes32[];\n\n    MakerBadgesLike internal immutable maker;\n\n    Counters.Counter private _templateIdTracker;\n\n    bytes32[] private roots;\n\n    struct BadgeTemplate {\n        string name;\n        string description;\n        string image;\n    }\n\n    mapping(uint256 => BadgeTemplate) private templates;\n    mapping(uint256 => uint256) private _templateQuantities;\n\n    /// @dev Events\n    event NewTemplate(uint256 indexed templateId, string name, string description, string image);\n    event TemplateUpdated(uint256 indexed templateId, string name, string description, string image);\n    event BadgeActivated(uint256 indexed tokenId, uint256 indexed templateId, string tokenURI);\n\n    constructor(address maker_)\n        public\n        ERC721(\"MakerBadges\", \"MAKER\")\n    {\n        _setBaseURI(\"https://badges.makerdao.com/token/\");\n        maker = MakerBadgesLike(maker_);\n    }\n\n    /// @notice Fallback function\n    /// @dev Added not payable to revert transactions not matching any other function which send value\n    fallback() external {\n        revert(\"BadgeFactory: function not matching any other\");\n    }\n\n    /// @notice Set the baseURI\n    /// @dev Update the baseURI specified in the constructor\n    /// @param baseURI New baseURI\n    function setBaseURI(string calldata baseURI) external {\n        require(hasRole(DEFAULT_ADMIN_ROLE, msg.sender), \"MakerBadges: caller is not the default admin\");\n        _setBaseURI(baseURI);\n    }\n\n    /// @notice Set Merkle Tree Root Hashes array\n    /// @dev Called by admin to update roots for different address batches by templateId\n    /// @param _roots Root hashes of the Merkle Trees by templateId\n    function setRootHashes(bytes32[] calldata _roots) external whenNotPaused {\n        require(hasRole(ADMIN_ROLE, msg.sender), \"MakerBadges: caller is not an admin\");\n        roots = _roots;\n    }\n\n    /// @dev Templates\n\n    /// @notice Create a new template\n    /// @dev Access restricted to only Templaters\n    /// @param name The name of the new template\n    /// @param description A description of the new template\n    /// @param image A filename of the new template\n    function createTemplate(string calldata name, string calldata description, string calldata image)\n        external\n        whenNotPaused\n    {\n        require(hasRole(TEMPLATER_ROLE, msg.sender), \"BadgeFactory: caller is not a template owner\");\n\n        uint256 templateId = _templateIdTracker.current();\n\n        templates[templateId].name = name;\n        templates[templateId].description = description;\n        templates[templateId].image = image;\n\n        _templateIdTracker.increment();\n        emit NewTemplate(templateId, name, description, image);\n    }\n\n    /// @notice Update a template\n    /// @dev Access restricted to only Templaters\n    /// @param templateId Template Id\n    /// @param name The name of the template\n    /// @param description The description of the template\n    /// @param image The filename of the template\n    function updateTemplate(uint256 templateId, string calldata name, string calldata description, string calldata image)\n        external\n        whenNotPaused\n    {\n        require(hasRole(TEMPLATER_ROLE, msg.sender), \"BadgeFactory: caller is not a template owner\");\n        require(_templateIdTracker.current() > templateId, \"BadgeFactory: no template with that id\");\n        templates[templateId].name = name;\n        templates[templateId].description = description;\n        templates[templateId].image = image;\n        emit TemplateUpdated(templateId, name, description, image);\n    }\n\n    /// @notice Getter function for templates\n    /// @dev Check if templateId exists\n    /// @param templateId Template Id of the template to return\n    /// @return name description image Of the specified templateId\n    function getTemplate(uint256 templateId)\n        external\n        view\n        whenNotPaused\n        returns (string memory name, string memory description, string memory image)\n    {\n        require(_templateIdTracker.current() > templateId, \"BadgeFactory: no template with that id\");\n        return (templates[templateId].name, templates[templateId].description, templates[templateId].image);\n    }\n\n    /// @notice Getter function for templates count\n    /// @dev Return lenght of template array\n    /// @return count The current number of templates\n    function getTemplatesCount() external view whenNotPaused returns (uint256 count) {\n        return _templateIdTracker.current();\n    }\n\n    /// @dev Badges\n\n    /// @notice Activate Badge by redeemers\n    /// @dev Verify if the caller is a redeemer\n    /// @param proof Merkle Proof\n    /// @param templateId Template Id\n    /// @param tokenURI An <ipfs-hash>.json filename\n    /// @return True If the new Badge is Activated\n    function activateBadge(bytes32[] calldata proof, uint256 templateId, string calldata tokenURI)\n        external\n        whenNotPaused\n        returns (bool)\n    {\n        require(_templateIdTracker.current() > templateId, \"BadgeFactory: no template with that id\");\n        require(\n            maker.verify(templateId, msg.sender) || proof.verify(roots[templateId], keccak256(abi.encodePacked(msg.sender))),\n            \"BadgeFactory: caller is not a redeemer\"\n        );\n\n        uint256 _tokenId = _getTokenId(msg.sender, templateId);\n\n        /// @dev Increase the quantities\n        _templateQuantities[templateId] = _templateQuantities[templateId].add(1);\n\n        require(_mintWithTokenURI(msg.sender, _tokenId, tokenURI), \"BadgeFactory: badge not minted\");\n\n        emit BadgeActivated(_tokenId, templateId, tokenURI);\n        return true;\n    }\n\n    /// @notice Getter function for redeemer associated with the tokenId\n    /// @dev Check if the tokenId exists\n    /// @param tokenId Token Id of the Badge\n    /// @return redeemer Redeemer address associated with the tokenId\n    function getBadgeRedeemer(uint256 tokenId) external view whenNotPaused returns (address redeemer) {\n        require(_exists(tokenId), \"BadgeFactory: no token with that id\");\n        (redeemer,) = _unpackTokenId(tokenId);\n    }\n\n    /// @notice Getter function for templateId associated with the tokenId\n    /// @dev Check if the tokenId exists\n    /// @param tokenId Token Id of the Badge\n    /// @return templateId Template Id associated with the tokenId\n    function getBadgeTemplate(uint256 tokenId) external view whenNotPaused returns (uint256 templateId) {\n        require(_exists(tokenId), \"BadgeFactory: no token with that id\");\n        (,templateId) = _unpackTokenId(tokenId);\n    }\n\n    /// @notice Getter function for number of badges associated with templateId\n    /// @dev Check if the template Id exists\n    /// @param templateId Template Id\n    /// @return Quantity of Badges associated with templateId\n    function getBadgeTemplateQuantity(uint256 templateId) external view whenNotPaused returns (uint256) {\n        require(_templateIdTracker.current() > templateId, \"BadgeFactory: no template with that id\");\n        return _templateQuantities[templateId];\n    }\n\n    /// @notice ERC721 _transfer() Disabled\n    /// @dev _transfer() has been overriden\n    /// @dev reverts on transferFrom() and safeTransferFrom()\n    function _transfer(address from, address to, uint256 tokenId) internal override {\n        require(false, \"BadgeFactory: badge transfer disabled\");\n        super._transfer(from, to, tokenId);\n    }\n\n    /// @notice Generate tokenId\n    /// @dev Augur twist by concatenate redeemer and templateId\n    /// @param redeemer Redeemer Address\n    /// @param templateId Template Id\n    /// @param _tokenId Token Id\n    function _getTokenId(address redeemer, uint256 templateId) private pure returns (uint256 _tokenId) {\n        bytes memory _tokenIdBytes = abi.encodePacked(redeemer, uint96(templateId));\n        assembly {\n            _tokenId := mload(add(_tokenIdBytes, add(0x20, 0)))\n        }\n    }\n\n    /// @notice Unpack tokenId\n    /// @param tokenId Token Id of the Badge\n    /// @return redeemer Redeemer Address\n    /// @return templateId Template Id\n    function _unpackTokenId(uint256 tokenId) private pure returns (address redeemer, uint256 templateId) {\n        assembly {\n            redeemer := shr(96,  and(tokenId, 0xFFFFFFFFFFFFFFFFFFFFFFFFFFFFFFFFFFFFFFFF000000000000000000000000))\n            templateId := and(tokenId, 0x0000000000000000000000000000000000000000FFFFFFFFFFFFFFFFFFFFFFFF)\n        }\n    }\n\n    /// @notice Mint new token with tokenURI\n    /// @dev Automatically concatenate baseURI with tokenURI via abi.encodePacked\n    /// @param to Owner of the new token\n    /// @param tokenId Token Id of the Baddge\n    /// @param tokenURI An <ipfs-hash>.json filename\n    /// @return True if the new token is minted\n    function _mintWithTokenURI(address to, uint256 tokenId, string calldata tokenURI) private returns (bool) {\n        _mint(to, tokenId);\n        _setTokenURI(tokenId, tokenURI);\n        return true;\n    }\n}\n",
  "sourcePath": "/home/sencha/maker-badges/contracts/BadgeFactory.sol",
  "compiler": {
    "name": "solc",
    "version": "0.6.12+commit.27d51765.Emscripten.clang"
  },
  "schemaVersion": "3.3.2",
  "updatedAt": "2020-12-05T19:14:09.989Z",
  "networkType": "ethereum",
  "devdoc": {
    "events": {
      "NewTemplate(uint256,string,string,string)": {
        "details": "Events"
      }
    },
    "kind": "dev",
    "methods": {
      "activateBadge(bytes32[],uint256,string)": {
        "details": "Verify if the caller is a redeemer",
        "params": {
          "proof": "Merkle Proof",
          "templateId": "Template Id",
          "tokenURI": "An <ipfs-hash>.json filename"
        },
        "returns": {
          "_0": "True If the new Badge is Activated"
        }
      },
      "addAdmin(address)": {
        "details": "Access restricted only to Default Admin",
        "params": {
          "account": "Address of the new Admin"
        },
        "returns": {
          "_0": "True if account is added as Admin"
        }
      },
      "addTemplater(address)": {
        "details": "Access restricted only to Default Admin",
        "params": {
          "account": "Address of the new Templater"
        },
        "returns": {
          "_0": "True if account is added as Templater"
        }
      },
      "approve(address,uint256)": {
        "details": "See {IERC721-approve}."
      },
      "balanceOf(address)": {
        "details": "See {IERC721-balanceOf}."
      },
      "baseURI()": {
        "details": "Returns the base URI set via {_setBaseURI}. This will be automatically added as a prefix in {tokenURI} to each token's URI, or to the token ID if no specific URI is set for that token ID."
      },
      "createTemplate(string,string,string)": {
        "details": "Access restricted to only Templaters",
        "params": {
          "description": "A description of the new template",
          "image": "A filename of the new template",
          "name": "The name of the new template"
        }
      },
      "getApproved(uint256)": {
        "details": "See {IERC721-getApproved}."
      },
      "getBadgeRedeemer(uint256)": {
        "details": "Check if the tokenId exists",
        "params": {
          "tokenId": "Token Id of the Badge"
        },
        "returns": {
          "redeemer": "Redeemer address associated with the tokenId"
        }
      },
      "getBadgeTemplate(uint256)": {
        "details": "Check if the tokenId exists",
        "params": {
          "tokenId": "Token Id of the Badge"
        },
        "returns": {
          "templateId": "Template Id associated with the tokenId"
        }
      },
      "getBadgeTemplateQuantity(uint256)": {
        "details": "Check if the template Id exists",
        "params": {
          "templateId": "Template Id"
        },
        "returns": {
          "_0": "Quantity of Badges associated with templateId"
        }
      },
      "getRoleAdmin(bytes32)": {
        "details": "Returns the admin role that controls `role`. See {grantRole} and {revokeRole}. To change a role's admin, use {_setRoleAdmin}."
      },
      "getRoleMember(bytes32,uint256)": {
        "details": "Returns one of the accounts that have `role`. `index` must be a value between 0 and {getRoleMemberCount}, non-inclusive. Role bearers are not sorted in any particular way, and their ordering may change at any point. WARNING: When using {getRoleMember} and {getRoleMemberCount}, make sure you perform all queries on the same block. See the following https://forum.openzeppelin.com/t/iterating-over-elements-on-enumerableset-in-openzeppelin-contracts/2296[forum post] for more information."
      },
      "getRoleMemberCount(bytes32)": {
        "details": "Returns the number of accounts that have `role`. Can be used together with {getRoleMember} to enumerate all bearers of a role."
      },
      "getTemplate(uint256)": {
        "details": "Check if templateId exists",
        "params": {
          "templateId": "Template Id of the template to return"
        },
        "returns": {
          "name": "description image Of the specified templateId"
        }
      },
      "getTemplatesCount()": {
        "details": "Return lenght of template array",
        "returns": {
          "count": "The current number of templates"
        }
      },
      "grantRole(bytes32,address)": {
        "details": "Grants `role` to `account`. If `account` had not been already granted `role`, emits a {RoleGranted} event. Requirements: - the caller must have ``role``'s admin role."
      },
      "hasRole(bytes32,address)": {
        "details": "Returns `true` if `account` has been granted `role`."
      },
      "isApprovedForAll(address,address)": {
        "details": "See {IERC721-isApprovedForAll}."
      },
      "name()": {
        "details": "See {IERC721Metadata-name}."
      },
      "ownerOf(uint256)": {
        "details": "See {IERC721-ownerOf}."
      },
      "pause()": {
        "details": "the caller must have the 'PAUSER_ROLE'"
      },
      "paused()": {
        "details": "Returns true if the contract is paused, and false otherwise."
      },
      "removeAdmin(address)": {
        "details": "Access restricted only to Default Admin",
        "params": {
          "account": "Address of the Admin"
        },
        "returns": {
          "_0": "True if account is removed as Admin"
        }
      },
      "removeTemplater(address)": {
        "details": "Access restricted only to Default Admin",
        "params": {
          "account": "Address of the Templater"
        },
        "returns": {
          "_0": "True if account is removed as Templater"
        }
      },
      "renounceRole(bytes32,address)": {
        "details": "Revokes `role` from the calling account. Roles are often managed via {grantRole} and {revokeRole}: this function's purpose is to provide a mechanism for accounts to lose their privileges if they are compromised (such as when a trusted device is misplaced). If the calling account had been granted `role`, emits a {RoleRevoked} event. Requirements: - the caller must be `account`."
      },
      "revokeRole(bytes32,address)": {
        "details": "Revokes `role` from `account`. If `account` had been granted `role`, emits a {RoleRevoked} event. Requirements: - the caller must have ``role``'s admin role."
      },
      "safeTransferFrom(address,address,uint256)": {
        "details": "See {IERC721-safeTransferFrom}."
      },
      "safeTransferFrom(address,address,uint256,bytes)": {
        "details": "See {IERC721-safeTransferFrom}."
      },
      "setApprovalForAll(address,bool)": {
        "details": "See {IERC721-setApprovalForAll}."
      },
      "setBaseURI(string)": {
        "details": "Update the baseURI specified in the constructor",
        "params": {
          "baseURI": "New baseURI"
        }
      },
      "setRootHashes(bytes32[])": {
        "details": "Called by admin to update roots for different address batches by templateId",
        "params": {
          "_roots": "Root hashes of the Merkle Trees by templateId"
        }
      },
      "supportsInterface(bytes4)": {
        "details": "See {IERC165-supportsInterface}. Time complexity O(1), guaranteed to always use less than 30 000 gas."
      },
      "symbol()": {
        "details": "See {IERC721Metadata-symbol}."
      },
      "tokenByIndex(uint256)": {
        "details": "See {IERC721Enumerable-tokenByIndex}."
      },
      "tokenOfOwnerByIndex(address,uint256)": {
        "details": "See {IERC721Enumerable-tokenOfOwnerByIndex}."
      },
      "tokenURI(uint256)": {
        "details": "See {IERC721Metadata-tokenURI}."
      },
      "totalSupply()": {
        "details": "See {IERC721Enumerable-totalSupply}."
      },
      "transferFrom(address,address,uint256)": {
        "details": "See {IERC721-transferFrom}."
      },
      "unpause()": {
        "details": "the caller must have the 'PAUSER_ROLE'"
      },
      "updateTemplate(uint256,string,string,string)": {
        "details": "Access restricted to only Templaters",
        "params": {
          "description": "The description of the template",
          "image": "The filename of the template",
          "name": "The name of the template",
          "templateId": "Template Id"
        }
      }
    },
    "version": 1
  },
  "userdoc": {
    "kind": "user",
    "methods": {
      "activateBadge(bytes32[],uint256,string)": {
        "notice": "Activate Badge by redeemers"
      },
      "addAdmin(address)": {
        "notice": "Add a new Admin"
      },
      "addTemplater(address)": {
        "notice": "Add a new Templater"
      },
      "createTemplate(string,string,string)": {
        "notice": "Create a new template"
      },
      "getBadgeRedeemer(uint256)": {
        "notice": "Getter function for redeemer associated with the tokenId"
      },
      "getBadgeTemplate(uint256)": {
        "notice": "Getter function for templateId associated with the tokenId"
      },
      "getBadgeTemplateQuantity(uint256)": {
        "notice": "Getter function for number of badges associated with templateId"
      },
      "getTemplate(uint256)": {
        "notice": "Getter function for templates"
      },
      "getTemplatesCount()": {
        "notice": "Getter function for templates count"
      },
      "pause()": {
        "notice": "Pause all the functions"
      },
      "removeAdmin(address)": {
        "notice": "Remove an Admin"
      },
      "removeTemplater(address)": {
        "notice": "Remove a Templater"
      },
      "setBaseURI(string)": {
        "notice": "Set the baseURI"
      },
      "setRootHashes(bytes32[])": {
        "notice": "Set Merkle Tree Root Hashes array"
      },
      "unpause()": {
        "notice": "Unpause all the functions"
      },
      "updateTemplate(uint256,string,string,string)": {
        "notice": "Update a template"
      }
    },
    "version": 1
  }
}