{
  "contractName": "BadgeRoles",
  "abi": [
    {
      "inputs": [
        {
          "internalType": "address",
          "name": "forwarder_",
          "type": "address"
        }
      ],
      "stateMutability": "nonpayable",
      "type": "constructor"
    },
    {
      "anonymous": false,
      "inputs": [
        {
          "indexed": true,
          "internalType": "address",
          "name": "previousOwner",
          "type": "address"
        },
        {
          "indexed": true,
          "internalType": "address",
          "name": "newOwner",
          "type": "address"
        }
      ],
      "name": "OwnershipTransferred",
      "type": "event"
    },
    {
      "anonymous": false,
      "inputs": [
        {
          "indexed": false,
          "internalType": "address",
          "name": "account",
          "type": "address"
        }
      ],
      "name": "Paused",
      "type": "event"
    },
    {
      "anonymous": false,
      "inputs": [
        {
          "indexed": true,
          "internalType": "bytes32",
          "name": "role",
          "type": "bytes32"
        },
        {
          "indexed": true,
          "internalType": "bytes32",
          "name": "previousAdminRole",
          "type": "bytes32"
        },
        {
          "indexed": true,
          "internalType": "bytes32",
          "name": "newAdminRole",
          "type": "bytes32"
        }
      ],
      "name": "RoleAdminChanged",
      "type": "event"
    },
    {
      "anonymous": false,
      "inputs": [
        {
          "indexed": true,
          "internalType": "bytes32",
          "name": "role",
          "type": "bytes32"
        },
        {
          "indexed": true,
          "internalType": "address",
          "name": "account",
          "type": "address"
        },
        {
          "indexed": true,
          "internalType": "address",
          "name": "sender",
          "type": "address"
        }
      ],
      "name": "RoleGranted",
      "type": "event"
    },
    {
      "anonymous": false,
      "inputs": [
        {
          "indexed": true,
          "internalType": "bytes32",
          "name": "role",
          "type": "bytes32"
        },
        {
          "indexed": true,
          "internalType": "address",
          "name": "account",
          "type": "address"
        },
        {
          "indexed": true,
          "internalType": "address",
          "name": "sender",
          "type": "address"
        }
      ],
      "name": "RoleRevoked",
      "type": "event"
    },
    {
      "anonymous": false,
      "inputs": [
        {
          "indexed": false,
          "internalType": "address",
          "name": "account",
          "type": "address"
        }
      ],
      "name": "Unpaused",
      "type": "event"
    },
    {
      "inputs": [],
      "name": "DEFAULT_ADMIN_ROLE",
      "outputs": [
        {
          "internalType": "bytes32",
          "name": "",
          "type": "bytes32"
        }
      ],
      "stateMutability": "view",
      "type": "function"
    },
    {
      "inputs": [],
      "name": "PAUSER_ROLE",
      "outputs": [
        {
          "internalType": "bytes32",
          "name": "",
          "type": "bytes32"
        }
      ],
      "stateMutability": "view",
      "type": "function"
    },
    {
      "inputs": [],
      "name": "TEMPLATER_ROLE",
      "outputs": [
        {
          "internalType": "bytes32",
          "name": "",
          "type": "bytes32"
        }
      ],
      "stateMutability": "view",
      "type": "function"
    },
    {
      "inputs": [
        {
          "internalType": "bytes32",
          "name": "role",
          "type": "bytes32"
        }
      ],
      "name": "getRoleAdmin",
      "outputs": [
        {
          "internalType": "bytes32",
          "name": "",
          "type": "bytes32"
        }
      ],
      "stateMutability": "view",
      "type": "function"
    },
    {
      "inputs": [
        {
          "internalType": "bytes32",
          "name": "role",
          "type": "bytes32"
        },
        {
          "internalType": "uint256",
          "name": "index",
          "type": "uint256"
        }
      ],
      "name": "getRoleMember",
      "outputs": [
        {
          "internalType": "address",
          "name": "",
          "type": "address"
        }
      ],
      "stateMutability": "view",
      "type": "function"
    },
    {
      "inputs": [
        {
          "internalType": "bytes32",
          "name": "role",
          "type": "bytes32"
        }
      ],
      "name": "getRoleMemberCount",
      "outputs": [
        {
          "internalType": "uint256",
          "name": "",
          "type": "uint256"
        }
      ],
      "stateMutability": "view",
      "type": "function"
    },
    {
      "inputs": [
        {
          "internalType": "bytes32",
          "name": "role",
          "type": "bytes32"
        },
        {
          "internalType": "address",
          "name": "account",
          "type": "address"
        }
      ],
      "name": "grantRole",
      "outputs": [],
      "stateMutability": "nonpayable",
      "type": "function"
    },
    {
      "inputs": [
        {
          "internalType": "bytes32",
          "name": "role",
          "type": "bytes32"
        },
        {
          "internalType": "address",
          "name": "account",
          "type": "address"
        }
      ],
      "name": "hasRole",
      "outputs": [
        {
          "internalType": "bool",
          "name": "",
          "type": "bool"
        }
      ],
      "stateMutability": "view",
      "type": "function"
    },
    {
      "inputs": [
        {
          "internalType": "address",
          "name": "forwarder",
          "type": "address"
        }
      ],
      "name": "isTrustedForwarder",
      "outputs": [
        {
          "internalType": "bool",
          "name": "",
          "type": "bool"
        }
      ],
      "stateMutability": "view",
      "type": "function"
    },
    {
      "inputs": [],
      "name": "owner",
      "outputs": [
        {
          "internalType": "address",
          "name": "",
          "type": "address"
        }
      ],
      "stateMutability": "view",
      "type": "function"
    },
    {
      "inputs": [],
      "name": "paused",
      "outputs": [
        {
          "internalType": "bool",
          "name": "",
          "type": "bool"
        }
      ],
      "stateMutability": "view",
      "type": "function"
    },
    {
      "inputs": [],
      "name": "renounceOwnership",
      "outputs": [],
      "stateMutability": "nonpayable",
      "type": "function"
    },
    {
      "inputs": [
        {
          "internalType": "bytes32",
          "name": "role",
          "type": "bytes32"
        },
        {
          "internalType": "address",
          "name": "account",
          "type": "address"
        }
      ],
      "name": "renounceRole",
      "outputs": [],
      "stateMutability": "nonpayable",
      "type": "function"
    },
    {
      "inputs": [
        {
          "internalType": "bytes32",
          "name": "role",
          "type": "bytes32"
        },
        {
          "internalType": "address",
          "name": "account",
          "type": "address"
        }
      ],
      "name": "revokeRole",
      "outputs": [],
      "stateMutability": "nonpayable",
      "type": "function"
    },
    {
      "inputs": [
        {
          "internalType": "address",
          "name": "newOwner",
          "type": "address"
        }
      ],
      "name": "transferOwnership",
      "outputs": [],
      "stateMutability": "nonpayable",
      "type": "function"
    },
    {
      "inputs": [],
      "name": "trustedForwarder",
      "outputs": [
        {
          "internalType": "address",
          "name": "",
          "type": "address"
        }
      ],
      "stateMutability": "view",
      "type": "function"
    },
    {
      "inputs": [
        {
          "internalType": "address",
          "name": "guy",
          "type": "address"
        }
      ],
      "name": "addTemplater",
      "outputs": [
        {
          "internalType": "bool",
          "name": "",
          "type": "bool"
        }
      ],
      "stateMutability": "nonpayable",
      "type": "function"
    },
    {
      "inputs": [
        {
          "internalType": "address",
          "name": "guy",
          "type": "address"
        }
      ],
      "name": "removeTemplater",
      "outputs": [
        {
          "internalType": "bool",
          "name": "",
          "type": "bool"
        }
      ],
      "stateMutability": "nonpayable",
      "type": "function"
    },
    {
      "inputs": [],
      "name": "pause",
      "outputs": [],
      "stateMutability": "nonpayable",
      "type": "function"
    },
    {
      "inputs": [],
      "name": "unpause",
      "outputs": [],
      "stateMutability": "nonpayable",
      "type": "function"
    },
    {
      "inputs": [],
      "name": "versionRecipient",
      "outputs": [
        {
          "internalType": "string",
          "name": "",
          "type": "string"
        }
      ],
      "stateMutability": "view",
      "type": "function"
    },
    {
      "inputs": [],
      "name": "getTrustedForwarder",
      "outputs": [
        {
          "internalType": "address",
          "name": "",
          "type": "address"
        }
      ],
      "stateMutability": "view",
      "type": "function"
    }
  ],
  "bytecode": "0x60806040523480156200001157600080fd5b5060405162001dc338038062001dc3833981810160405260208110156200003757600080fd5b810190808051906020019092919050505060006200005a6200020160201b60201c565b9050806000806101000a81548173ffffffffffffffffffffffffffffffffffffffff021916908373ffffffffffffffffffffffffffffffffffffffff1602179055508073ffffffffffffffffffffffffffffffffffffffff16600073ffffffffffffffffffffffffffffffffffffffff167f8be0079c531659141344cd1fd0a4f28419497f9722a3daafe3b4186f6b6457e060405160405180910390a3506000600260006101000a81548160ff021916908315150217905550620001376000801b6200012b6200021d60201b60201c565b6200024660201b60201c565b620001787f82fc59a2af283c7e52e3f7cf8d269383062c6603a1ab4300e32135abe128a4766200016c6200021d60201b60201c565b6200024660201b60201c565b620001b97f65d7a28e3265b37a6474929f336521b332c1681b933f6cb9f3376673440d862a620001ad6200021d60201b60201c565b6200024660201b60201c565b80600260016101000a81548173ffffffffffffffffffffffffffffffffffffffff021916908373ffffffffffffffffffffffffffffffffffffffff1602179055505062000477565b6000620002186200025c60201b6200113e1760201c565b905090565b60008060009054906101000a900473ffffffffffffffffffffffffffffffffffffffff16905090565b620002588282620002a460201b60201c565b5050565b6000601860003690501015801562000281575062000280336200034860201b60201c565b5b156200029757601436033560601c9050620002a0565b339050620002a1565b5b90565b620002d38160016000858152602001908152602001600020600001620003a260201b6200117a1790919060201c565b156200034457620002e96200020160201b60201c565b73ffffffffffffffffffffffffffffffffffffffff168173ffffffffffffffffffffffffffffffffffffffff16837f2f8788117e7eff1d82e926ec794901d17c78024a50270940304540a733656f0d60405160405180910390a45b5050565b6000600260019054906101000a900473ffffffffffffffffffffffffffffffffffffffff1673ffffffffffffffffffffffffffffffffffffffff168273ffffffffffffffffffffffffffffffffffffffff16149050919050565b6000620003d2836000018373ffffffffffffffffffffffffffffffffffffffff1660001b620003da60201b60201c565b905092915050565b6000620003ee83836200045460201b60201c565b620004495782600001829080600181540180825580915050600190039060005260206000200160009091909190915055826000018054905083600101600084815260200190815260200160002081905550600190506200044e565b600090505b92915050565b600080836001016000848152602001908152602001600020541415905092915050565b61193c80620004876000396000f3fe608060405234801561001057600080fd5b50600436106101425760003560e01c80638456cb59116100b8578063ca15c8731161007c578063ca15c87314610504578063ce1b815f14610546578063d547741f1461057a578063e63ab1e9146105c8578063e6c0d714146105e6578063f2fde38b1461064057610142565b80638456cb59146103e25780638da5cb5b146103ec5780639010d07c1461042057806391d1485414610482578063a217fddf146104e657610142565b80634ba360ba1161010a5780634ba360ba146102b2578063572b6c051461030c5780635c975abb146103665780636cdd0a1614610386578063715018a6146103a45780637da0a877146103ae57610142565b8063248a9ca3146101475780632f2ff15d1461018957806336568abe146101d75780633f4ba83a14610225578063486ff0cd1461022f575b600080fd5b6101736004803603602081101561015d57600080fd5b8101908080359060200190929190505050610684565b6040518082815260200191505060405180910390f35b6101d56004803603604081101561019f57600080fd5b8101908080359060200190929190803573ffffffffffffffffffffffffffffffffffffffff1690602001909291905050506106a4565b005b610223600480360360408110156101ed57600080fd5b8101908080359060200190929190803573ffffffffffffffffffffffffffffffffffffffff16906020019092919050505061072e565b005b61022d6107c7565b005b610237610857565b6040518080602001828103825283818151815260200191508051906020019080838360005b8381101561027757808201518184015260208101905061025c565b50505050905090810190601f1680156102a45780820380516001836020036101000a031916815260200191505b509250505060405180910390f35b6102f4600480360360208110156102c857600080fd5b81019080803573ffffffffffffffffffffffffffffffffffffffff169060200190929190505050610894565b60405180821515815260200191505060405180910390f35b61034e6004803603602081101561032257600080fd5b81019080803573ffffffffffffffffffffffffffffffffffffffff1690602001909291905050506109b1565b60405180821515815260200191505060405180910390f35b61036e610a0b565b60405180821515815260200191505060405180910390f35b61038e610a22565b6040518082815260200191505060405180910390f35b6103ac610a46565b005b6103b6610bcc565b604051808273ffffffffffffffffffffffffffffffffffffffff16815260200191505060405180910390f35b6103ea610bf2565b005b6103f4610c82565b604051808273ffffffffffffffffffffffffffffffffffffffff16815260200191505060405180910390f35b6104566004803603604081101561043657600080fd5b810190808035906020019092919080359060200190929190505050610cab565b604051808273ffffffffffffffffffffffffffffffffffffffff16815260200191505060405180910390f35b6104ce6004803603604081101561049857600080fd5b8101908080359060200190929190803573ffffffffffffffffffffffffffffffffffffffff169060200190929190505050610cdd565b60405180821515815260200191505060405180910390f35b6104ee610d0f565b6040518082815260200191505060405180910390f35b6105306004803603602081101561051a57600080fd5b8101908080359060200190929190505050610d16565b6040518082815260200191505060405180910390f35b61054e610d3d565b604051808273ffffffffffffffffffffffffffffffffffffffff16815260200191505060405180910390f35b6105c66004803603604081101561059057600080fd5b8101908080359060200190929190803573ffffffffffffffffffffffffffffffffffffffff169060200190929190505050610d67565b005b6105d0610df1565b6040518082815260200191505060405180910390f35b610628600480360360208110156105fc57600080fd5b81019080803573ffffffffffffffffffffffffffffffffffffffff169060200190929190505050610e15565b60405180821515815260200191505060405180910390f35b6106826004803603602081101561065657600080fd5b81019080803573ffffffffffffffffffffffffffffffffffffffff169060200190929190505050610f33565b005b600060016000838152602001908152602001600020600201549050919050565b6106cb60016000848152602001908152602001600020600201546106c66111aa565b610cdd565b610720576040517f08c379a000000000000000000000000000000000000000000000000000000000815260040180806020018281038252602f815260200180611789602f913960400191505060405180910390fd5b61072a82826111b9565b5050565b6107366111aa565b73ffffffffffffffffffffffffffffffffffffffff168173ffffffffffffffffffffffffffffffffffffffff16146107b9576040517f08c379a000000000000000000000000000000000000000000000000000000000815260040180806020018281038252602f8152602001806118d8602f913960400191505060405180910390fd5b6107c3828261124d565b5050565b6107f87f65d7a28e3265b37a6474929f336521b332c1681b933f6cb9f3376673440d862a6107f36111aa565b610cdd565b61084d576040517f08c379a000000000000000000000000000000000000000000000000000000000815260040180806020018281038252602e8152602001806117b8602e913960400191505060405180910390fd5b6108556112e1565b565b60606040518060400160405280600581526020017f302e362e30000000000000000000000000000000000000000000000000000000815250905090565b60006108aa6000801b6108a56111aa565b610cdd565b6108ff576040517f08c379a000000000000000000000000000000000000000000000000000000000815260040180806020018281038252602481526020018061180c6024913960400191505060405180910390fd5b6109297f82fc59a2af283c7e52e3f7cf8d269383062c6603a1ab4300e32135abe128a47683610cdd565b61097e576040517f08c379a00000000000000000000000000000000000000000000000000000000081526004018080602001828103825260248152602001806118b46024913960400191505060405180910390fd5b6109a87f82fc59a2af283c7e52e3f7cf8d269383062c6603a1ab4300e32135abe128a47683610d67565b60019050919050565b6000600260019054906101000a900473ffffffffffffffffffffffffffffffffffffffff1673ffffffffffffffffffffffffffffffffffffffff168273ffffffffffffffffffffffffffffffffffffffff16149050919050565b6000600260009054906101000a900460ff16905090565b7f82fc59a2af283c7e52e3f7cf8d269383062c6603a1ab4300e32135abe128a47681565b610a4e6111aa565b73ffffffffffffffffffffffffffffffffffffffff1660008054906101000a900473ffffffffffffffffffffffffffffffffffffffff1673ffffffffffffffffffffffffffffffffffffffff1614610b0e576040517f08c379a00000000000000000000000000000000000000000000000000000000081526004018080602001828103825260208152602001807f4f776e61626c653a2063616c6c6572206973206e6f7420746865206f776e657281525060200191505060405180910390fd5b600073ffffffffffffffffffffffffffffffffffffffff1660008054906101000a900473ffffffffffffffffffffffffffffffffffffffff1673ffffffffffffffffffffffffffffffffffffffff167f8be0079c531659141344cd1fd0a4f28419497f9722a3daafe3b4186f6b6457e060405160405180910390a360008060006101000a81548173ffffffffffffffffffffffffffffffffffffffff021916908373ffffffffffffffffffffffffffffffffffffffff160217905550565b600260019054906101000a900473ffffffffffffffffffffffffffffffffffffffff1681565b610c237f65d7a28e3265b37a6474929f336521b332c1681b933f6cb9f3376673440d862a610c1e6111aa565b610cdd565b610c78576040517f08c379a000000000000000000000000000000000000000000000000000000000815260040180806020018281038252602c815260200180611888602c913960400191505060405180910390fd5b610c806113d4565b565b60008060009054906101000a900473ffffffffffffffffffffffffffffffffffffffff16905090565b6000610cd582600160008681526020019081526020016000206000016114c890919063ffffffff16565b905092915050565b6000610d0782600160008681526020019081526020016000206000016114e290919063ffffffff16565b905092915050565b6000801b81565b6000610d3660016000848152602001908152602001600020600001611512565b9050919050565b6000600260019054906101000a900473ffffffffffffffffffffffffffffffffffffffff16905090565b610d8e6001600084815260200190815260200160002060020154610d896111aa565b610cdd565b610de3576040517f08c379a00000000000000000000000000000000000000000000000000000000081526004018080602001828103825260308152602001806118306030913960400191505060405180910390fd5b610ded828261124d565b5050565b7f65d7a28e3265b37a6474929f336521b332c1681b933f6cb9f3376673440d862a81565b6000610e2b6000801b610e266111aa565b610cdd565b610e80576040517f08c379a000000000000000000000000000000000000000000000000000000000815260040180806020018281038252602481526020018061180c6024913960400191505060405180910390fd5b610eaa7f82fc59a2af283c7e52e3f7cf8d269383062c6603a1ab4300e32135abe128a47683610cdd565b15610f00576040517f08c379a00000000000000000000000000000000000000000000000000000000081526004018080602001828103825260288152602001806118606028913960400191505060405180910390fd5b610f2a7f82fc59a2af283c7e52e3f7cf8d269383062c6603a1ab4300e32135abe128a476836106a4565b60019050919050565b610f3b6111aa565b73ffffffffffffffffffffffffffffffffffffffff1660008054906101000a900473ffffffffffffffffffffffffffffffffffffffff1673ffffffffffffffffffffffffffffffffffffffff1614610ffb576040517f08c379a00000000000000000000000000000000000000000000000000000000081526004018080602001828103825260208152602001807f4f776e61626c653a2063616c6c6572206973206e6f7420746865206f776e657281525060200191505060405180910390fd5b600073ffffffffffffffffffffffffffffffffffffffff168173ffffffffffffffffffffffffffffffffffffffff161415611081576040517f08c379a00000000000000000000000000000000000000000000000000000000081526004018080602001828103825260268152602001806117e66026913960400191505060405180910390fd5b8073ffffffffffffffffffffffffffffffffffffffff1660008054906101000a900473ffffffffffffffffffffffffffffffffffffffff1673ffffffffffffffffffffffffffffffffffffffff167f8be0079c531659141344cd1fd0a4f28419497f9722a3daafe3b4186f6b6457e060405160405180910390a3806000806101000a81548173ffffffffffffffffffffffffffffffffffffffff021916908373ffffffffffffffffffffffffffffffffffffffff16021790555050565b6000601860003690501015801561115a5750611159336109b1565b5b1561116e57601436033560601c9050611176565b339050611177565b5b90565b60006111a2836000018373ffffffffffffffffffffffffffffffffffffffff1660001b611527565b905092915050565b60006111b461113e565b905090565b6111e1816001600085815260200190815260200160002060000161117a90919063ffffffff16565b15611249576111ee6111aa565b73ffffffffffffffffffffffffffffffffffffffff168173ffffffffffffffffffffffffffffffffffffffff16837f2f8788117e7eff1d82e926ec794901d17c78024a50270940304540a733656f0d60405160405180910390a45b5050565b611275816001600085815260200190815260200160002060000161159790919063ffffffff16565b156112dd576112826111aa565b73ffffffffffffffffffffffffffffffffffffffff168173ffffffffffffffffffffffffffffffffffffffff16837ff6391f5c32d9c69d2a47ea670b442974b53935d1edc7fd64eb21e047a839171b60405160405180910390a45b5050565b600260009054906101000a900460ff16611363576040517f08c379a00000000000000000000000000000000000000000000000000000000081526004018080602001828103825260148152602001807f5061757361626c653a206e6f742070617573656400000000000000000000000081525060200191505060405180910390fd5b6000600260006101000a81548160ff0219169083151502179055507f5db9ee0a495bf2e6ff9c91a7834c1ba4fdd244a5e8aa4e537bd38aeae4b073aa6113a76111aa565b604051808273ffffffffffffffffffffffffffffffffffffffff16815260200191505060405180910390a1565b600260009054906101000a900460ff1615611457576040517f08c379a00000000000000000000000000000000000000000000000000000000081526004018080602001828103825260108152602001807f5061757361626c653a207061757365640000000000000000000000000000000081525060200191505060405180910390fd5b6001600260006101000a81548160ff0219169083151502179055507f62e78cea01bee320cd4e420270b5ea74000d11b0c9f74754ebdbfc544b05a25861149b6111aa565b604051808273ffffffffffffffffffffffffffffffffffffffff16815260200191505060405180910390a1565b60006114d783600001836115c7565b60001c905092915050565b600061150a836000018373ffffffffffffffffffffffffffffffffffffffff1660001b61164a565b905092915050565b60006115208260000161166d565b9050919050565b6000611533838361164a565b61158c578260000182908060018154018082558091505060019003906000526020600020016000909190919091505582600001805490508360010160008481526020019081526020016000208190555060019050611591565b600090505b92915050565b60006115bf836000018373ffffffffffffffffffffffffffffffffffffffff1660001b61167e565b905092915050565b600081836000018054905011611628576040517f08c379a00000000000000000000000000000000000000000000000000000000081526004018080602001828103825260228152602001806117676022913960400191505060405180910390fd5b82600001828154811061163757fe5b9060005260206000200154905092915050565b600080836001016000848152602001908152602001600020541415905092915050565b600081600001805490509050919050565b6000808360010160008481526020019081526020016000205490506000811461175a57600060018203905060006001866000018054905003905060008660000182815481106116c957fe5b90600052602060002001549050808760000184815481106116e657fe5b906000526020600020018190555060018301876001016000838152602001908152602001600020819055508660000180548061171e57fe5b60019003818190600052602060002001600090559055866001016000878152602001908152602001600020600090556001945050505050611760565b60009150505b9291505056fe456e756d657261626c655365743a20696e646578206f7574206f6620626f756e6473416363657373436f6e74726f6c3a2073656e646572206d75737420626520616e2061646d696e20746f206772616e744261646765466163746f72793a206d75737420686176652070617573657220726f6c6520746f20756e70617573654f776e61626c653a206e6577206f776e657220697320746865207a65726f20616464726573734261646765466163746f72793a2063616c6c6572206973206e6f7420616e2061646d696e416363657373436f6e74726f6c3a2073656e646572206d75737420626520616e2061646d696e20746f207265766f6b654261646765466163746f72793a2067757920697320616c726561647920612074656d706c617465724261646765466163746f72793a206d75737420686176652070617573657220726f6c6520746f2070617573654261646765466163746f72793a20677579206973206e6f7420612074656d706c61746572416363657373436f6e74726f6c3a2063616e206f6e6c792072656e6f756e636520726f6c657320666f722073656c66a264697066735822122006038290a26c343100763f3b9e3ed0c3e66bd50db6349d87281845dead2d319964736f6c634300060c0033",
  "immutableReferences": {},
  "source": "/// SPDX-License-Identifier: AGPL-3.0-only\npragma solidity 0.6.12;\n\n/// @title Non-transferable Badges for Maker Ecosystem Activity, CDIP 18, 29\n/// @author Nazzareno Massari @naszam\n/// @notice BadgeRoles Access Management for Default Admin, Templater and Pauser Role\n/// @dev See https://github.com/makerdao/community/issues/537\n/// @dev See https://github.com/makerdao/community/issues/721\n/// @dev All function calls are currently implemented without side effects through TDD approach\n/// @dev OpenZeppelin Library is used for secure contract development\n\nimport \"@openzeppelin/contracts/access/Ownable.sol\";\nimport \"@openzeppelin/contracts/access/AccessControl.sol\";\nimport \"@openzeppelin/contracts/utils/Pausable.sol\";\nimport \"@opengsn/gsn/contracts/BaseRelayRecipient.sol\";\nimport \"@opengsn/gsn/contracts/interfaces/IKnowForwarderAddress.sol\";\n\ncontract BadgeRoles is Ownable, AccessControl, Pausable, BaseRelayRecipient, IKnowForwarderAddress {\n\n    /// @dev Roles\n    bytes32 public constant TEMPLATER_ROLE = keccak256(\"TEMPLATER_ROLE\");\n    bytes32 public constant PAUSER_ROLE = keccak256(\"PAUSER_ROLE\");\n\n    constructor(address forwarder_) public {\n        _setupRole(DEFAULT_ADMIN_ROLE, owner());\n\n        _setupRole(TEMPLATER_ROLE, owner());\n        _setupRole(PAUSER_ROLE, owner());\n\n        /// @dev OpenGSN Trusted Forwarder\n        trustedForwarder = forwarder_;\n    }\n\n    /// @dev Modifiers\n    modifier onlyAdmin() {\n        require(hasRole(DEFAULT_ADMIN_ROLE, _msgSender()), \"BadgeFactory: caller is not an admin\");\n        _;\n    }\n\n    modifier onlyTemplater() {\n        require(hasRole(TEMPLATER_ROLE, _msgSender()), \"BadgeFactory: caller is not a template owner\");\n        _;\n    }\n\n    /// @dev Functions\n\n    /// @notice Add a new Templater\n    /// @dev Access restricted only for Admins\n    /// @param guy Address of the new Templater\n    /// @return True if the guy address is added as Templater\n    function addTemplater(address guy) external onlyAdmin returns (bool) {\n        require(!hasRole(TEMPLATER_ROLE, guy), \"BadgeFactory: guy is already a templater\");\n        grantRole(TEMPLATER_ROLE, guy);\n        return true;\n    }\n\n    /// @notice Remove a Templater\n    /// @dev Access restricted only for Admins\n    /// @param guy Address of the Templater\n    /// @return True if the guy address is removed as Templater\n    function removeTemplater(address guy) external onlyAdmin returns (bool) {\n        require(hasRole(TEMPLATER_ROLE, guy), \"BadgeFactory: guy is not a templater\");\n        revokeRole(TEMPLATER_ROLE, guy);\n        return true;\n    }\n\n    /// @notice Pause all the functions\n    /// @dev the caller must have the 'PAUSER_ROLE'\n    function pause() external {\n        require(hasRole(PAUSER_ROLE, _msgSender()), \"BadgeFactory: must have pauser role to pause\");\n        _pause();\n    }\n\n    /// @notice Unpause all the functions\n    /// @dev the caller must have the 'PAUSER_ROLE'\n    function unpause() external {\n        require(hasRole(PAUSER_ROLE, _msgSender()), \"BadgeFactory: must have pauser role to unpause\");\n        _unpause();\n    }\n\n    function versionRecipient() external virtual view override returns (string memory) {\n        return \"0.6.0\";\n    }\n\n    function getTrustedForwarder() public view override returns (address) {\n        return trustedForwarder;\n    }\n\n    /// @notice OpenGSN _msgSender()\n    /// @dev override _msgSender() in OZ Context.sol and BaseRelayRecipient.sol\n    /// @return _msgSender() after relay call\n    function _msgSender() internal virtual view override(Context, BaseRelayRecipient) returns (address payable) {\n          return BaseRelayRecipient._msgSender();\n    }\n\n    /// @notice OpenGSN _msgData()\n    /// @dev override _msgData() in OZ Context.sol and BaseRelayRecipient.sol\n    /// @return _msgData() after relay call\n    function _msgData() internal virtual view override(Context, BaseRelayRecipient) returns (bytes memory) {\n          return BaseRelayRecipient._msgData();\n    }\n}\n",
  "sourcePath": "/home/sencha/maker-badges/contracts/BadgeRoles.sol",
  "compiler": {
    "name": "solc",
    "version": "0.6.12+commit.27d51765.Emscripten.clang"
  },
  "schemaVersion": "3.2.5",
  "updatedAt": "2020-09-30T17:21:17.042Z",
  "devdoc": {
    "kind": "dev",
    "methods": {
      "addTemplater(address)": {
        "details": "Access restricted only for Admins",
        "params": {
          "guy": "Address of the new Templater"
        },
        "returns": {
          "_0": "True if the guy address is added as Templater"
        }
      },
      "getRoleAdmin(bytes32)": {
        "details": "Returns the admin role that controls `role`. See {grantRole} and {revokeRole}. To change a role's admin, use {_setRoleAdmin}."
      },
      "getRoleMember(bytes32,uint256)": {
        "details": "Returns one of the accounts that have `role`. `index` must be a value between 0 and {getRoleMemberCount}, non-inclusive. Role bearers are not sorted in any particular way, and their ordering may change at any point. WARNING: When using {getRoleMember} and {getRoleMemberCount}, make sure you perform all queries on the same block. See the following https://forum.openzeppelin.com/t/iterating-over-elements-on-enumerableset-in-openzeppelin-contracts/2296[forum post] for more information."
      },
      "getRoleMemberCount(bytes32)": {
        "details": "Returns the number of accounts that have `role`. Can be used together with {getRoleMember} to enumerate all bearers of a role."
      },
      "grantRole(bytes32,address)": {
        "details": "Grants `role` to `account`. If `account` had not been already granted `role`, emits a {RoleGranted} event. Requirements: - the caller must have ``role``'s admin role."
      },
      "hasRole(bytes32,address)": {
        "details": "Returns `true` if `account` has been granted `role`."
      },
      "owner()": {
        "details": "Returns the address of the current owner."
      },
      "pause()": {
        "details": "the caller must have the 'PAUSER_ROLE'"
      },
      "paused()": {
        "details": "Returns true if the contract is paused, and false otherwise."
      },
      "removeTemplater(address)": {
        "details": "Access restricted only for Admins",
        "params": {
          "guy": "Address of the Templater"
        },
        "returns": {
          "_0": "True if the guy address is removed as Templater"
        }
      },
      "renounceOwnership()": {
        "details": "Leaves the contract without owner. It will not be possible to call `onlyOwner` functions anymore. Can only be called by the current owner. NOTE: Renouncing ownership will leave the contract without an owner, thereby removing any functionality that is only available to the owner."
      },
      "renounceRole(bytes32,address)": {
        "details": "Revokes `role` from the calling account. Roles are often managed via {grantRole} and {revokeRole}: this function's purpose is to provide a mechanism for accounts to lose their privileges if they are compromised (such as when a trusted device is misplaced). If the calling account had been granted `role`, emits a {RoleRevoked} event. Requirements: - the caller must be `account`."
      },
      "revokeRole(bytes32,address)": {
        "details": "Revokes `role` from `account`. If `account` had been granted `role`, emits a {RoleRevoked} event. Requirements: - the caller must have ``role``'s admin role."
      },
      "transferOwnership(address)": {
        "details": "Transfers ownership of the contract to a new account (`newOwner`). Can only be called by the current owner."
      },
      "unpause()": {
        "details": "the caller must have the 'PAUSER_ROLE'"
      }
    },
    "stateVariables": {
      "TEMPLATER_ROLE": {
        "details": "Roles"
      }
    },
    "version": 1
  },
  "userdoc": {
    "kind": "user",
    "methods": {
      "addTemplater(address)": {
        "notice": "Add a new Templater"
      },
      "getTrustedForwarder()": {
        "notice": "return the forwarder we trust to forward relayed transactions to us. the forwarder is required to verify the sender's signature, and verify the call is not a replay."
      },
      "isTrustedForwarder(address)": {
        "notice": "return if the forwarder is trusted to forward relayed transactions to us. the forwarder is required to verify the sender's signature, and verify the call is not a replay."
      },
      "pause()": {
        "notice": "Pause all the functions"
      },
      "removeTemplater(address)": {
        "notice": "Remove a Templater"
      },
      "unpause()": {
        "notice": "Unpause all the functions"
      }
    },
    "version": 1
  }
}