{
  "contractName": "BadgeFactory",
  "abi": [
    {
      "inputs": [
        {
          "internalType": "address",
          "name": "maker_",
          "type": "address"
        }
      ],
      "stateMutability": "nonpayable",
      "type": "constructor"
    },
    {
      "anonymous": false,
      "inputs": [
        {
          "indexed": true,
          "internalType": "address",
          "name": "owner",
          "type": "address"
        },
        {
          "indexed": true,
          "internalType": "address",
          "name": "approved",
          "type": "address"
        },
        {
          "indexed": true,
          "internalType": "uint256",
          "name": "tokenId",
          "type": "uint256"
        }
      ],
      "name": "Approval",
      "type": "event"
    },
    {
      "anonymous": false,
      "inputs": [
        {
          "indexed": true,
          "internalType": "address",
          "name": "owner",
          "type": "address"
        },
        {
          "indexed": true,
          "internalType": "address",
          "name": "operator",
          "type": "address"
        },
        {
          "indexed": false,
          "internalType": "bool",
          "name": "approved",
          "type": "bool"
        }
      ],
      "name": "ApprovalForAll",
      "type": "event"
    },
    {
      "anonymous": false,
      "inputs": [
        {
          "indexed": false,
          "internalType": "address",
          "name": "redeemer",
          "type": "address"
        },
        {
          "indexed": false,
          "internalType": "uint256",
          "name": "templateId",
          "type": "uint256"
        },
        {
          "indexed": false,
          "internalType": "string",
          "name": "tokenURI",
          "type": "string"
        }
      ],
      "name": "BadgeActivated",
      "type": "event"
    },
    {
      "anonymous": false,
      "inputs": [
        {
          "indexed": false,
          "internalType": "uint256",
          "name": "templateId",
          "type": "uint256"
        },
        {
          "indexed": false,
          "internalType": "string",
          "name": "name",
          "type": "string"
        },
        {
          "indexed": false,
          "internalType": "string",
          "name": "description",
          "type": "string"
        },
        {
          "indexed": false,
          "internalType": "string",
          "name": "image",
          "type": "string"
        }
      ],
      "name": "NewTemplate",
      "type": "event"
    },
    {
      "anonymous": false,
      "inputs": [
        {
          "indexed": false,
          "internalType": "address",
          "name": "account",
          "type": "address"
        }
      ],
      "name": "Paused",
      "type": "event"
    },
    {
      "anonymous": false,
      "inputs": [
        {
          "indexed": true,
          "internalType": "bytes32",
          "name": "role",
          "type": "bytes32"
        },
        {
          "indexed": true,
          "internalType": "bytes32",
          "name": "previousAdminRole",
          "type": "bytes32"
        },
        {
          "indexed": true,
          "internalType": "bytes32",
          "name": "newAdminRole",
          "type": "bytes32"
        }
      ],
      "name": "RoleAdminChanged",
      "type": "event"
    },
    {
      "anonymous": false,
      "inputs": [
        {
          "indexed": true,
          "internalType": "bytes32",
          "name": "role",
          "type": "bytes32"
        },
        {
          "indexed": true,
          "internalType": "address",
          "name": "account",
          "type": "address"
        },
        {
          "indexed": true,
          "internalType": "address",
          "name": "sender",
          "type": "address"
        }
      ],
      "name": "RoleGranted",
      "type": "event"
    },
    {
      "anonymous": false,
      "inputs": [
        {
          "indexed": true,
          "internalType": "bytes32",
          "name": "role",
          "type": "bytes32"
        },
        {
          "indexed": true,
          "internalType": "address",
          "name": "account",
          "type": "address"
        },
        {
          "indexed": true,
          "internalType": "address",
          "name": "sender",
          "type": "address"
        }
      ],
      "name": "RoleRevoked",
      "type": "event"
    },
    {
      "anonymous": false,
      "inputs": [
        {
          "indexed": false,
          "internalType": "uint256",
          "name": "templateId",
          "type": "uint256"
        },
        {
          "indexed": false,
          "internalType": "string",
          "name": "name",
          "type": "string"
        },
        {
          "indexed": false,
          "internalType": "string",
          "name": "description",
          "type": "string"
        },
        {
          "indexed": false,
          "internalType": "string",
          "name": "image",
          "type": "string"
        }
      ],
      "name": "TemplateUpdated",
      "type": "event"
    },
    {
      "anonymous": false,
      "inputs": [
        {
          "indexed": true,
          "internalType": "address",
          "name": "from",
          "type": "address"
        },
        {
          "indexed": true,
          "internalType": "address",
          "name": "to",
          "type": "address"
        },
        {
          "indexed": true,
          "internalType": "uint256",
          "name": "tokenId",
          "type": "uint256"
        }
      ],
      "name": "Transfer",
      "type": "event"
    },
    {
      "anonymous": false,
      "inputs": [
        {
          "indexed": false,
          "internalType": "address",
          "name": "account",
          "type": "address"
        }
      ],
      "name": "Unpaused",
      "type": "event"
    },
    {
      "stateMutability": "nonpayable",
      "type": "fallback"
    },
    {
      "inputs": [],
      "name": "ADMIN_ROLE",
      "outputs": [
        {
          "internalType": "bytes32",
          "name": "",
          "type": "bytes32"
        }
      ],
      "stateMutability": "view",
      "type": "function",
      "constant": true
    },
    {
      "inputs": [],
      "name": "DEFAULT_ADMIN_ROLE",
      "outputs": [
        {
          "internalType": "bytes32",
          "name": "",
          "type": "bytes32"
        }
      ],
      "stateMutability": "view",
      "type": "function",
      "constant": true
    },
    {
      "inputs": [],
      "name": "PAUSER_ROLE",
      "outputs": [
        {
          "internalType": "bytes32",
          "name": "",
          "type": "bytes32"
        }
      ],
      "stateMutability": "view",
      "type": "function",
      "constant": true
    },
    {
      "inputs": [],
      "name": "TEMPLATER_ROLE",
      "outputs": [
        {
          "internalType": "bytes32",
          "name": "",
          "type": "bytes32"
        }
      ],
      "stateMutability": "view",
      "type": "function",
      "constant": true
    },
    {
      "inputs": [
        {
          "internalType": "address",
          "name": "account",
          "type": "address"
        }
      ],
      "name": "addAdmin",
      "outputs": [
        {
          "internalType": "bool",
          "name": "",
          "type": "bool"
        }
      ],
      "stateMutability": "nonpayable",
      "type": "function"
    },
    {
      "inputs": [
        {
          "internalType": "address",
          "name": "guy",
          "type": "address"
        }
      ],
      "name": "addTemplater",
      "outputs": [
        {
          "internalType": "bool",
          "name": "",
          "type": "bool"
        }
      ],
      "stateMutability": "nonpayable",
      "type": "function"
    },
    {
      "inputs": [
        {
          "internalType": "address",
          "name": "to",
          "type": "address"
        },
        {
          "internalType": "uint256",
          "name": "tokenId",
          "type": "uint256"
        }
      ],
      "name": "approve",
      "outputs": [],
      "stateMutability": "nonpayable",
      "type": "function"
    },
    {
      "inputs": [
        {
          "internalType": "address",
          "name": "owner",
          "type": "address"
        }
      ],
      "name": "balanceOf",
      "outputs": [
        {
          "internalType": "uint256",
          "name": "",
          "type": "uint256"
        }
      ],
      "stateMutability": "view",
      "type": "function",
      "constant": true
    },
    {
      "inputs": [],
      "name": "baseURI",
      "outputs": [
        {
          "internalType": "string",
          "name": "",
          "type": "string"
        }
      ],
      "stateMutability": "view",
      "type": "function",
      "constant": true
    },
    {
      "inputs": [
        {
          "internalType": "uint256",
          "name": "tokenId",
          "type": "uint256"
        }
      ],
      "name": "getApproved",
      "outputs": [
        {
          "internalType": "address",
          "name": "",
          "type": "address"
        }
      ],
      "stateMutability": "view",
      "type": "function",
      "constant": true
    },
    {
      "inputs": [
        {
          "internalType": "bytes32",
          "name": "role",
          "type": "bytes32"
        }
      ],
      "name": "getRoleAdmin",
      "outputs": [
        {
          "internalType": "bytes32",
          "name": "",
          "type": "bytes32"
        }
      ],
      "stateMutability": "view",
      "type": "function",
      "constant": true
    },
    {
      "inputs": [
        {
          "internalType": "bytes32",
          "name": "role",
          "type": "bytes32"
        },
        {
          "internalType": "uint256",
          "name": "index",
          "type": "uint256"
        }
      ],
      "name": "getRoleMember",
      "outputs": [
        {
          "internalType": "address",
          "name": "",
          "type": "address"
        }
      ],
      "stateMutability": "view",
      "type": "function",
      "constant": true
    },
    {
      "inputs": [
        {
          "internalType": "bytes32",
          "name": "role",
          "type": "bytes32"
        }
      ],
      "name": "getRoleMemberCount",
      "outputs": [
        {
          "internalType": "uint256",
          "name": "",
          "type": "uint256"
        }
      ],
      "stateMutability": "view",
      "type": "function",
      "constant": true
    },
    {
      "inputs": [
        {
          "internalType": "bytes32",
          "name": "role",
          "type": "bytes32"
        },
        {
          "internalType": "address",
          "name": "account",
          "type": "address"
        }
      ],
      "name": "grantRole",
      "outputs": [],
      "stateMutability": "nonpayable",
      "type": "function"
    },
    {
      "inputs": [
        {
          "internalType": "bytes32",
          "name": "role",
          "type": "bytes32"
        },
        {
          "internalType": "address",
          "name": "account",
          "type": "address"
        }
      ],
      "name": "hasRole",
      "outputs": [
        {
          "internalType": "bool",
          "name": "",
          "type": "bool"
        }
      ],
      "stateMutability": "view",
      "type": "function",
      "constant": true
    },
    {
      "inputs": [
        {
          "internalType": "address",
          "name": "owner",
          "type": "address"
        },
        {
          "internalType": "address",
          "name": "operator",
          "type": "address"
        }
      ],
      "name": "isApprovedForAll",
      "outputs": [
        {
          "internalType": "bool",
          "name": "",
          "type": "bool"
        }
      ],
      "stateMutability": "view",
      "type": "function",
      "constant": true
    },
    {
      "inputs": [],
      "name": "name",
      "outputs": [
        {
          "internalType": "string",
          "name": "",
          "type": "string"
        }
      ],
      "stateMutability": "view",
      "type": "function",
      "constant": true
    },
    {
      "inputs": [
        {
          "internalType": "uint256",
          "name": "tokenId",
          "type": "uint256"
        }
      ],
      "name": "ownerOf",
      "outputs": [
        {
          "internalType": "address",
          "name": "",
          "type": "address"
        }
      ],
      "stateMutability": "view",
      "type": "function",
      "constant": true
    },
    {
      "inputs": [],
      "name": "pause",
      "outputs": [],
      "stateMutability": "nonpayable",
      "type": "function"
    },
    {
      "inputs": [],
      "name": "paused",
      "outputs": [
        {
          "internalType": "bool",
          "name": "",
          "type": "bool"
        }
      ],
      "stateMutability": "view",
      "type": "function",
      "constant": true
    },
    {
      "inputs": [
        {
          "internalType": "uint256",
          "name": "",
          "type": "uint256"
        },
        {
          "internalType": "address",
          "name": "",
          "type": "address"
        }
      ],
      "name": "redeemed",
      "outputs": [
        {
          "internalType": "uint256",
          "name": "",
          "type": "uint256"
        }
      ],
      "stateMutability": "view",
      "type": "function",
      "constant": true
    },
    {
      "inputs": [
        {
          "internalType": "address",
          "name": "account",
          "type": "address"
        }
      ],
      "name": "removeAdmin",
      "outputs": [
        {
          "internalType": "bool",
          "name": "",
          "type": "bool"
        }
      ],
      "stateMutability": "nonpayable",
      "type": "function"
    },
    {
      "inputs": [
        {
          "internalType": "address",
          "name": "guy",
          "type": "address"
        }
      ],
      "name": "removeTemplater",
      "outputs": [
        {
          "internalType": "bool",
          "name": "",
          "type": "bool"
        }
      ],
      "stateMutability": "nonpayable",
      "type": "function"
    },
    {
      "inputs": [
        {
          "internalType": "bytes32",
          "name": "role",
          "type": "bytes32"
        },
        {
          "internalType": "address",
          "name": "account",
          "type": "address"
        }
      ],
      "name": "renounceRole",
      "outputs": [],
      "stateMutability": "nonpayable",
      "type": "function"
    },
    {
      "inputs": [
        {
          "internalType": "bytes32",
          "name": "role",
          "type": "bytes32"
        },
        {
          "internalType": "address",
          "name": "account",
          "type": "address"
        }
      ],
      "name": "revokeRole",
      "outputs": [],
      "stateMutability": "nonpayable",
      "type": "function"
    },
    {
      "inputs": [
        {
          "internalType": "address",
          "name": "from",
          "type": "address"
        },
        {
          "internalType": "address",
          "name": "to",
          "type": "address"
        },
        {
          "internalType": "uint256",
          "name": "tokenId",
          "type": "uint256"
        }
      ],
      "name": "safeTransferFrom",
      "outputs": [],
      "stateMutability": "nonpayable",
      "type": "function"
    },
    {
      "inputs": [
        {
          "internalType": "address",
          "name": "from",
          "type": "address"
        },
        {
          "internalType": "address",
          "name": "to",
          "type": "address"
        },
        {
          "internalType": "uint256",
          "name": "tokenId",
          "type": "uint256"
        },
        {
          "internalType": "bytes",
          "name": "_data",
          "type": "bytes"
        }
      ],
      "name": "safeTransferFrom",
      "outputs": [],
      "stateMutability": "nonpayable",
      "type": "function"
    },
    {
      "inputs": [
        {
          "internalType": "address",
          "name": "operator",
          "type": "address"
        },
        {
          "internalType": "bool",
          "name": "approved",
          "type": "bool"
        }
      ],
      "name": "setApprovalForAll",
      "outputs": [],
      "stateMutability": "nonpayable",
      "type": "function"
    },
    {
      "inputs": [
        {
          "internalType": "bytes4",
          "name": "interfaceId",
          "type": "bytes4"
        }
      ],
      "name": "supportsInterface",
      "outputs": [
        {
          "internalType": "bool",
          "name": "",
          "type": "bool"
        }
      ],
      "stateMutability": "view",
      "type": "function",
      "constant": true
    },
    {
      "inputs": [],
      "name": "symbol",
      "outputs": [
        {
          "internalType": "string",
          "name": "",
          "type": "string"
        }
      ],
      "stateMutability": "view",
      "type": "function",
      "constant": true
    },
    {
      "inputs": [
        {
          "internalType": "uint256",
          "name": "index",
          "type": "uint256"
        }
      ],
      "name": "tokenByIndex",
      "outputs": [
        {
          "internalType": "uint256",
          "name": "",
          "type": "uint256"
        }
      ],
      "stateMutability": "view",
      "type": "function",
      "constant": true
    },
    {
      "inputs": [
        {
          "internalType": "address",
          "name": "owner",
          "type": "address"
        },
        {
          "internalType": "uint256",
          "name": "index",
          "type": "uint256"
        }
      ],
      "name": "tokenOfOwnerByIndex",
      "outputs": [
        {
          "internalType": "uint256",
          "name": "",
          "type": "uint256"
        }
      ],
      "stateMutability": "view",
      "type": "function",
      "constant": true
    },
    {
      "inputs": [
        {
          "internalType": "uint256",
          "name": "tokenId",
          "type": "uint256"
        }
      ],
      "name": "tokenURI",
      "outputs": [
        {
          "internalType": "string",
          "name": "",
          "type": "string"
        }
      ],
      "stateMutability": "view",
      "type": "function",
      "constant": true
    },
    {
      "inputs": [],
      "name": "totalSupply",
      "outputs": [
        {
          "internalType": "uint256",
          "name": "",
          "type": "uint256"
        }
      ],
      "stateMutability": "view",
      "type": "function",
      "constant": true
    },
    {
      "inputs": [
        {
          "internalType": "address",
          "name": "from",
          "type": "address"
        },
        {
          "internalType": "address",
          "name": "to",
          "type": "address"
        },
        {
          "internalType": "uint256",
          "name": "tokenId",
          "type": "uint256"
        }
      ],
      "name": "transferFrom",
      "outputs": [],
      "stateMutability": "nonpayable",
      "type": "function"
    },
    {
      "inputs": [],
      "name": "unpause",
      "outputs": [],
      "stateMutability": "nonpayable",
      "type": "function"
    },
    {
      "inputs": [
        {
          "internalType": "string",
          "name": "baseURI",
          "type": "string"
        }
      ],
      "name": "setBaseURI",
      "outputs": [
        {
          "internalType": "bool",
          "name": "",
          "type": "bool"
        }
      ],
      "stateMutability": "nonpayable",
      "type": "function"
    },
    {
      "inputs": [
        {
          "internalType": "string",
          "name": "name",
          "type": "string"
        },
        {
          "internalType": "string",
          "name": "description",
          "type": "string"
        },
        {
          "internalType": "string",
          "name": "image",
          "type": "string"
        }
      ],
      "name": "createTemplate",
      "outputs": [
        {
          "internalType": "bool",
          "name": "",
          "type": "bool"
        }
      ],
      "stateMutability": "nonpayable",
      "type": "function"
    },
    {
      "inputs": [
        {
          "internalType": "uint256",
          "name": "templateId",
          "type": "uint256"
        },
        {
          "internalType": "string",
          "name": "name",
          "type": "string"
        },
        {
          "internalType": "string",
          "name": "description",
          "type": "string"
        },
        {
          "internalType": "string",
          "name": "image",
          "type": "string"
        }
      ],
      "name": "updateTemplate",
      "outputs": [
        {
          "internalType": "bool",
          "name": "",
          "type": "bool"
        }
      ],
      "stateMutability": "nonpayable",
      "type": "function"
    },
    {
      "inputs": [
        {
          "internalType": "uint256",
          "name": "templateId",
          "type": "uint256"
        }
      ],
      "name": "getTemplate",
      "outputs": [
        {
          "internalType": "string",
          "name": "name",
          "type": "string"
        },
        {
          "internalType": "string",
          "name": "description",
          "type": "string"
        },
        {
          "internalType": "string",
          "name": "image",
          "type": "string"
        }
      ],
      "stateMutability": "view",
      "type": "function",
      "constant": true
    },
    {
      "inputs": [],
      "name": "getTemplatesCount",
      "outputs": [
        {
          "internalType": "uint256",
          "name": "count",
          "type": "uint256"
        }
      ],
      "stateMutability": "view",
      "type": "function",
      "constant": true
    },
    {
      "inputs": [
        {
          "internalType": "bytes32[]",
          "name": "proof",
          "type": "bytes32[]"
        },
        {
          "internalType": "uint256",
          "name": "templateId",
          "type": "uint256"
        },
        {
          "internalType": "string",
          "name": "tokenURI",
          "type": "string"
        }
      ],
      "name": "activateBadge",
      "outputs": [
        {
          "internalType": "bool",
          "name": "",
          "type": "bool"
        }
      ],
      "stateMutability": "nonpayable",
      "type": "function"
    },
    {
      "inputs": [
        {
          "internalType": "uint256",
          "name": "tokenId",
          "type": "uint256"
        }
      ],
      "name": "getBadgeTemplate",
      "outputs": [
        {
          "internalType": "uint256",
          "name": "",
          "type": "uint256"
        }
      ],
      "stateMutability": "view",
      "type": "function",
      "constant": true
    },
    {
      "inputs": [
        {
          "internalType": "uint256",
          "name": "templateId",
          "type": "uint256"
        }
      ],
      "name": "getBadgeTemplateQuantity",
      "outputs": [
        {
          "internalType": "uint256",
          "name": "",
          "type": "uint256"
        }
      ],
      "stateMutability": "view",
      "type": "function",
      "constant": true
    }
  ],
  "bytecode": "0x60a06040523480156200001157600080fd5b5060405162005e3938038062005e39833981810160405260208110156200003757600080fd5b81019080805190602001909291905050506040518060400160405280600b81526020017f4d616b65724261646765730000000000000000000000000000000000000000008152506040518060400160405280600581526020017f4d414b45520000000000000000000000000000000000000000000000000000008152506000600160006101000a81548160ff021916908315150217905550620000e46000801b336200027660201b60201c565b620001167fa49807205ce4d355092ef5a8a18f56e8913cf4a201fbe287825b095693c21775336200027660201b60201c565b620001487f82fc59a2af283c7e52e3f7cf8d269383062c6603a1ab4300e32135abe128a476336200027660201b60201c565b6200017a7f65d7a28e3265b37a6474929f336521b332c1681b933f6cb9f3376673440d862a336200027660201b60201c565b620001926301ffc9a760e01b6200028c60201b60201c565b8160089080519060200190620001aa92919062000532565b508060099080519060200190620001c392919062000532565b50620001dc6380ac58cd60e01b6200028c60201b60201c565b620001f4635b5e139f60e01b6200028c60201b60201c565b6200020c63780e9d6360e01b6200028c60201b60201c565b50506200023860405180606001604052806022815260200162005e17602291396200039660201b60201c565b8073ffffffffffffffffffffffffffffffffffffffff1660808173ffffffffffffffffffffffffffffffffffffffff1660601b8152505050620005d8565b620002888282620003b260201b60201c565b5050565b63ffffffff60e01b817bffffffffffffffffffffffffffffffffffffffffffffffffffffffff1916141562000329576040517f08c379a000000000000000000000000000000000000000000000000000000000815260040180806020018281038252601c8152602001807f4552433136353a20696e76616c696420696e746572666163652069640000000081525060200191505060405180910390fd5b600160026000837bffffffffffffffffffffffffffffffffffffffffffffffffffffffff19167bffffffffffffffffffffffffffffffffffffffffffffffffffffffff1916815260200190815260200160002060006101000a81548160ff02191690831515021790555050565b80600b9080519060200190620003ae92919062000532565b5050565b620003e0816000808581526020019081526020016000206000016200045560201b620038c51790919060201c565b156200045157620003f66200048d60201b60201c565b73ffffffffffffffffffffffffffffffffffffffff168173ffffffffffffffffffffffffffffffffffffffff16837f2f8788117e7eff1d82e926ec794901d17c78024a50270940304540a733656f0d60405160405180910390a45b5050565b600062000485836000018373ffffffffffffffffffffffffffffffffffffffff1660001b6200049560201b60201c565b905092915050565b600033905090565b6000620004a983836200050f60201b60201c565b6200050457826000018290806001815401808255809150506001900390600052602060002001600090919091909150558260000180549050836001016000848152602001908152602001600020819055506001905062000509565b600090505b92915050565b600080836001016000848152602001908152602001600020541415905092915050565b828054600181600116156101000203166002900490600052602060002090601f016020900481019282601f106200057557805160ff1916838001178555620005a6565b82800160010185558215620005a6579182015b82811115620005a557825182559160200191906001019062000588565b5b509050620005b59190620005b9565b5090565b5b80821115620005d4576000816000905550600101620005ba565b5090565b60805160601c61581c620005fb600039806132ba528061338d525061581c6000f3fe608060405234801561001057600080fd5b50600436106102785760003560e01c80636c0360eb11610151578063b5900eea116100c3578063d214f40011610087578063d214f40014611127578063d4c10e461461126a578063d547741f14611358578063e63ab1e9146113a6578063e6c0d714146113c4578063e985e9c51461141e57610279565b8063b5900eea14610de2578063b88d4fde14610e00578063c87b56dd14610f05578063ca15c87314610fac578063ccb4bcb614610fee57610279565b80638456cb59116101155780638456cb5914610c215780639010d07c14610c2b57806391d1485414610c8d57806395d89b4114610cf1578063a217fddf14610d74578063a22cb46514610d9257610279565b80636c0360eb14610ab05780636cdd0a1614610b335780637048027514610b5157806370a0823114610bab57806375b238fc14610c0357610279565b806331543cf4116101ea5780634de46fd0116101ae5780634de46fd0146108c35780634f6ccce71461090557806355f804b3146109475780635c975abb146109d65780635ddb0845146109f65780636352211e14610a5857610279565b806331543cf41461062457806336568abe146107a35780633f4ba83a146107f157806342842e0e146107fb5780634ba360ba1461086957610279565b80631785f53c1161023c5780631785f53c1461044c57806318160ddd146104a657806323b872dd146104c4578063248a9ca3146105325780632f2ff15d146105745780632f745c59146105c257610279565b806301ffc9a71461027e57806304523af1146102e157806306fdde0314610323578063081812fc146103a6578063095ea7b3146103fe57610279565b5b600080fd5b6102c96004803603602081101561029457600080fd5b8101908080357bffffffffffffffffffffffffffffffffffffffffffffffffffffffff19169060200190929190505050611498565b60405180821515815260200191505060405180910390f35b61030d600480360360208110156102f757600080fd5b8101908080359060200190929190505050611500565b6040518082815260200191505060405180910390f35b61032b611601565b6040518080602001828103825283818151815260200191508051906020019080838360005b8381101561036b578082015181840152602081019050610350565b50505050905090810190601f1680156103985780820380516001836020036101000a031916815260200191505b509250505060405180910390f35b6103d2600480360360208110156103bc57600080fd5b81019080803590602001909291905050506116a3565b604051808273ffffffffffffffffffffffffffffffffffffffff16815260200191505060405180910390f35b61044a6004803603604081101561041457600080fd5b81019080803573ffffffffffffffffffffffffffffffffffffffff1690602001909291908035906020019092919050505061173e565b005b61048e6004803603602081101561046257600080fd5b81019080803573ffffffffffffffffffffffffffffffffffffffff169060200190929190505050611882565b60405180821515815260200191505060405180910390f35b6104ae611919565b6040518082815260200191505060405180910390f35b610530600480360360608110156104da57600080fd5b81019080803573ffffffffffffffffffffffffffffffffffffffff169060200190929190803573ffffffffffffffffffffffffffffffffffffffff1690602001909291908035906020019092919050505061192a565b005b61055e6004803603602081101561054857600080fd5b81019080803590602001909291905050506119a0565b6040518082815260200191505060405180910390f35b6105c06004803603604081101561058a57600080fd5b8101908080359060200190929190803573ffffffffffffffffffffffffffffffffffffffff1690602001909291905050506119bf565b005b61060e600480360360408110156105d857600080fd5b81019080803573ffffffffffffffffffffffffffffffffffffffff16906020019092919080359060200190929190505050611a48565b6040518082815260200191505060405180910390f35b6106506004803603602081101561063a57600080fd5b8101908080359060200190929190505050611aa3565b60405180806020018060200180602001848103845287818151815260200191508051906020019080838360005b8381101561069857808201518184015260208101905061067d565b50505050905090810190601f1680156106c55780820380516001836020036101000a031916815260200191505b50848103835286818151815260200191508051906020019080838360005b838110156106fe5780820151818401526020810190506106e3565b50505050905090810190601f16801561072b5780820380516001836020036101000a031916815260200191505b50848103825285818151815260200191508051906020019080838360005b83811015610764578082015181840152602081019050610749565b50505050905090810190601f1680156107915780820380516001836020036101000a031916815260200191505b50965050505050505060405180910390f35b6107ef600480360360408110156107b957600080fd5b8101908080359060200190929190803573ffffffffffffffffffffffffffffffffffffffff169060200190929190505050611daf565b005b6107f9611e48565b005b6108676004803603606081101561081157600080fd5b81019080803573ffffffffffffffffffffffffffffffffffffffff169060200190929190803573ffffffffffffffffffffffffffffffffffffffff16906020019092919080359060200190929190505050611ed8565b005b6108ab6004803603602081101561087f57600080fd5b81019080803573ffffffffffffffffffffffffffffffffffffffff169060200190929190505050611ef8565b60405180821515815260200191505060405180910390f35b6108ef600480360360208110156108d957600080fd5b8101908080359060200190929190505050611f96565b6040518082815260200191505060405180910390f35b6109316004803603602081101561091b57600080fd5b8101908080359060200190929190505050612094565b6040518082815260200191505060405180910390f35b6109be6004803603602081101561095d57600080fd5b810190808035906020019064010000000081111561097a57600080fd5b82018360208201111561098c57600080fd5b803590602001918460018302840111640100000000831117156109ae57600080fd5b90919293919293905050506120b7565b60405180821515815260200191505060405180910390f35b6109de61218f565b60405180821515815260200191505060405180910390f35b610a4260048036036040811015610a0c57600080fd5b8101908080359060200190929190803573ffffffffffffffffffffffffffffffffffffffff1690602001909291905050506121a6565b6040518082815260200191505060405180910390f35b610a8460048036036020811015610a6e57600080fd5b81019080803590602001909291905050506121cb565b604051808273ffffffffffffffffffffffffffffffffffffffff16815260200191505060405180910390f35b610ab8612202565b6040518080602001828103825283818151815260200191508051906020019080838360005b83811015610af8578082015181840152602081019050610add565b50505050905090810190601f168015610b255780820380516001836020036101000a031916815260200191505b509250505060405180910390f35b610b3b6122a4565b6040518082815260200191505060405180910390f35b610b9360048036036020811015610b6757600080fd5b81019080803573ffffffffffffffffffffffffffffffffffffffff1690602001909291905050506122c8565b60405180821515815260200191505060405180910390f35b610bed60048036036020811015610bc157600080fd5b81019080803573ffffffffffffffffffffffffffffffffffffffff16906020019092919050505061235f565b6040518082815260200191505060405180910390f35b610c0b612434565b6040518082815260200191505060405180910390f35b610c29612458565b005b610c6160048036036040811015610c4157600080fd5b8101908080359060200190929190803590602001909291905050506124e8565b604051808273ffffffffffffffffffffffffffffffffffffffff16815260200191505060405180910390f35b610cd960048036036040811015610ca357600080fd5b8101908080359060200190929190803573ffffffffffffffffffffffffffffffffffffffff169060200190929190505050612519565b60405180821515815260200191505060405180910390f35b610cf961254a565b6040518080602001828103825283818151815260200191508051906020019080838360005b83811015610d39578082015181840152602081019050610d1e565b50505050905090810190601f168015610d665780820380516001836020036101000a031916815260200191505b509250505060405180910390f35b610d7c6125ec565b6040518082815260200191505060405180910390f35b610de060048036036040811015610da857600080fd5b81019080803573ffffffffffffffffffffffffffffffffffffffff1690602001909291908035151590602001909291905050506125f3565b005b610dea6127a9565b6040518082815260200191505060405180910390f35b610f0360048036036080811015610e1657600080fd5b81019080803573ffffffffffffffffffffffffffffffffffffffff169060200190929190803573ffffffffffffffffffffffffffffffffffffffff1690602001909291908035906020019092919080359060200190640100000000811115610e7d57600080fd5b820183602082011115610e8f57600080fd5b80359060200191846001830284011164010000000083111715610eb157600080fd5b91908080601f016020809104026020016040519081016040528093929190818152602001838380828437600081840152601f19601f82011690508083019250505050505050919291929050505061283d565b005b610f3160048036036020811015610f1b57600080fd5b81019080803590602001909291905050506128b5565b6040518080602001828103825283818151815260200191508051906020019080838360005b83811015610f71578082015181840152602081019050610f56565b50505050905090810190601f168015610f9e5780820380516001836020036101000a031916815260200191505b509250505060405180910390f35b610fd860048036036020811015610fc257600080fd5b8101908080359060200190929190505050612b9e565b6040518082815260200191505060405180910390f35b61110f6004803603606081101561100457600080fd5b810190808035906020019064010000000081111561102157600080fd5b82018360208201111561103357600080fd5b8035906020019184600183028401116401000000008311171561105557600080fd5b90919293919293908035906020019064010000000081111561107657600080fd5b82018360208201111561108857600080fd5b803590602001918460018302840111640100000000831117156110aa57600080fd5b9091929391929390803590602001906401000000008111156110cb57600080fd5b8201836020820111156110dd57600080fd5b803590602001918460018302840111640100000000831117156110ff57600080fd5b9091929391929390505050612bc4565b60405180821515815260200191505060405180910390f35b6112526004803603608081101561113d57600080fd5b81019080803590602001909291908035906020019064010000000081111561116457600080fd5b82018360208201111561117657600080fd5b8035906020019184600183028401116401000000008311171561119857600080fd5b9091929391929390803590602001906401000000008111156111b957600080fd5b8201836020820111156111cb57600080fd5b803590602001918460018302840111640100000000831117156111ed57600080fd5b90919293919293908035906020019064010000000081111561120e57600080fd5b82018360208201111561122057600080fd5b8035906020019184600183028401116401000000008311171561124257600080fd5b9091929391929390505050612e69565b60405180821515815260200191505060405180910390f35b6113406004803603606081101561128057600080fd5b810190808035906020019064010000000081111561129d57600080fd5b8201836020820111156112af57600080fd5b803590602001918460208302840111640100000000831117156112d157600080fd5b909192939192939080359060200190929190803590602001906401000000008111156112fc57600080fd5b82018360208201111561130e57600080fd5b8035906020019184600183028401116401000000008311171561133057600080fd5b9091929391929390505050613129565b60405180821515815260200191505060405180910390f35b6113a46004803603604081101561136e57600080fd5b8101908080359060200190929190803573ffffffffffffffffffffffffffffffffffffffff1690602001909291905050506136e6565b005b6113ae61376f565b6040518082815260200191505060405180910390f35b611406600480360360208110156113da57600080fd5b81019080803573ffffffffffffffffffffffffffffffffffffffff169060200190929190505050613793565b60405180821515815260200191505060405180910390f35b6114806004803603604081101561143457600080fd5b81019080803573ffffffffffffffffffffffffffffffffffffffff169060200190929190803573ffffffffffffffffffffffffffffffffffffffff169060200190929190505050613831565b60405180821515815260200191505060405180910390f35b600060026000837bffffffffffffffffffffffffffffffffffffffffffffffffffffffff19167bffffffffffffffffffffffffffffffffffffffffffffffffffffffff1916815260200190815260200160002060009054906101000a900460ff169050919050565b6000600160009054906101000a900460ff1615611585576040517f08c379a00000000000000000000000000000000000000000000000000000000081526004018080602001828103825260108152602001807f5061757361626c653a207061757365640000000000000000000000000000000081525060200191505060405180910390fd5b81611590600c6138f5565b116115e6576040517f08c379a00000000000000000000000000000000000000000000000000000000081526004018080602001828103825260268152602001806154416026913960400191505060405180910390fd5b600f6000838152602001908152602001600020549050919050565b606060088054600181600116156101000203166002900480601f0160208091040260200160405190810160405280929190818152602001828054600181600116156101000203166002900480156116995780601f1061166e57610100808354040283529160200191611699565b820191906000526020600020905b81548152906001019060200180831161167c57829003601f168201915b5050505050905090565b60006116ae82613903565b611703576040517f08c379a000000000000000000000000000000000000000000000000000000000815260040180806020018281038252602c81526020018061563b602c913960400191505060405180910390fd5b6006600083815260200190815260200160002060009054906101000a900473ffffffffffffffffffffffffffffffffffffffff169050919050565b6000611749826121cb565b90508073ffffffffffffffffffffffffffffffffffffffff168373ffffffffffffffffffffffffffffffffffffffff1614156117d0576040517f08c379a000000000000000000000000000000000000000000000000000000000815260040180806020018281038252602181526020018061573a6021913960400191505060405180910390fd5b8073ffffffffffffffffffffffffffffffffffffffff166117ef613920565b73ffffffffffffffffffffffffffffffffffffffff16148061181e575061181d81611818613920565b613831565b5b611873576040517f08c379a000000000000000000000000000000000000000000000000000000000815260040180806020018281038252603881526020018061558e6038913960400191505060405180910390fd5b61187d8383613928565b505050565b60006118916000801b33612519565b6118e6576040517f08c379a000000000000000000000000000000000000000000000000000000000815260040180806020018281038252602d815260200180615499602d913960400191505060405180910390fd5b6119107fa49807205ce4d355092ef5a8a18f56e8913cf4a201fbe287825b095693c21775836136e6565b60019050919050565b600061192560046139e1565b905090565b61193b611935613920565b826139f6565b611990576040517f08c379a00000000000000000000000000000000000000000000000000000000081526004018080602001828103825260318152602001806157876031913960400191505060405180910390fd5b61199b838383613aea565b505050565b6000806000838152602001908152602001600020600201549050919050565b6119e5600080848152602001908152602001600020600201546119e0613920565b612519565b611a3a576040517f08c379a000000000000000000000000000000000000000000000000000000000815260040180806020018281038252602f815260200180615398602f913960400191505060405180910390fd5b611a448282613b51565b5050565b6000611a9b82600360008673ffffffffffffffffffffffffffffffffffffffff1673ffffffffffffffffffffffffffffffffffffffff168152602001908152602001600020613be490919063ffffffff16565b905092915050565b6060806060600160009054906101000a900460ff1615611b2b576040517f08c379a00000000000000000000000000000000000000000000000000000000081526004018080602001828103825260108152602001807f5061757361626c653a207061757365640000000000000000000000000000000081525060200191505060405180910390fd5b83611b36600c6138f5565b11611b8c576040517f08c379a00000000000000000000000000000000000000000000000000000000081526004018080602001828103825260268152602001806154416026913960400191505060405180910390fd5b600e6000858152602001908152602001600020600001600e6000868152602001908152602001600020600101600e6000878152602001908152602001600020600201828054600181600116156101000203166002900480601f016020809104026020016040519081016040528092919081815260200182805460018160011615610100020316600290048015611c635780601f10611c3857610100808354040283529160200191611c63565b820191906000526020600020905b815481529060010190602001808311611c4657829003601f168201915b50505050509250818054600181600116156101000203166002900480601f016020809104026020016040519081016040528092919081815260200182805460018160011615610100020316600290048015611cff5780601f10611cd457610100808354040283529160200191611cff565b820191906000526020600020905b815481529060010190602001808311611ce257829003601f168201915b50505050509150808054600181600116156101000203166002900480601f016020809104026020016040519081016040528092919081815260200182805460018160011615610100020316600290048015611d9b5780601f10611d7057610100808354040283529160200191611d9b565b820191906000526020600020905b815481529060010190602001808311611d7e57829003601f168201915b505050505090509250925092509193909250565b611db7613920565b73ffffffffffffffffffffffffffffffffffffffff168173ffffffffffffffffffffffffffffffffffffffff1614611e3a576040517f08c379a000000000000000000000000000000000000000000000000000000000815260040180806020018281038252602f8152602001806157b8602f913960400191505060405180910390fd5b611e448282613bfe565b5050565b611e797f65d7a28e3265b37a6474929f336521b332c1681b933f6cb9f3376673440d862a611e74613920565b612519565b611ece576040517f08c379a000000000000000000000000000000000000000000000000000000000815260040180806020018281038252602e8152602001806153c7602e913960400191505060405180910390fd5b611ed6613c91565b565b611ef38383836040518060200160405280600081525061283d565b505050565b6000611f0e6000801b611f09613920565b612519565b611f63576040517f08c379a000000000000000000000000000000000000000000000000000000000815260040180806020018281038252602d815260200180615499602d913960400191505060405180910390fd5b611f8d7f82fc59a2af283c7e52e3f7cf8d269383062c6603a1ab4300e32135abe128a476836136e6565b60019050919050565b6000600160009054906101000a900460ff161561201b576040517f08c379a00000000000000000000000000000000000000000000000000000000081526004018080602001828103825260108152602001807f5061757361626c653a207061757365640000000000000000000000000000000081525060200191505060405180910390fd5b61202482613903565b612079576040517f08c379a00000000000000000000000000000000000000000000000000000000081526004018080602001828103825260238152602001806156bf6023913960400191505060405180910390fd5b60106000838152602001908152602001600020549050919050565b6000806120ab836004613d8490919063ffffffff16565b50905080915050919050565b60006120e37fa49807205ce4d355092ef5a8a18f56e8913cf4a201fbe287825b095693c2177533612519565b612138576040517f08c379a00000000000000000000000000000000000000000000000000000000081526004018080602001828103825260238152602001806154c66023913960400191505060405180910390fd5b61218583838080601f016020809104026020016040519081016040528093929190818152602001838380828437600081840152601f19601f82011690508083019250505050505050613db0565b6001905092915050565b6000600160009054906101000a900460ff16905090565b6011602052816000526040600020602052806000526040600020600091509150505481565b60006121fb826040518060600160405280602981526020016155f0602991396004613dca9092919063ffffffff16565b9050919050565b6060600b8054600181600116156101000203166002900480601f01602080910402602001604051908101604052809291908181526020018280546001816001161561010002031660029004801561229a5780601f1061226f5761010080835404028352916020019161229a565b820191906000526020600020905b81548152906001019060200180831161227d57829003601f168201915b5050505050905090565b7f82fc59a2af283c7e52e3f7cf8d269383062c6603a1ab4300e32135abe128a47681565b60006122d76000801b33612519565b61232c576040517f08c379a000000000000000000000000000000000000000000000000000000000815260040180806020018281038252602d815260200180615499602d913960400191505060405180910390fd5b6123567fa49807205ce4d355092ef5a8a18f56e8913cf4a201fbe287825b095693c21775836119bf565b60019050919050565b60008073ffffffffffffffffffffffffffffffffffffffff168273ffffffffffffffffffffffffffffffffffffffff1614156123e6576040517f08c379a000000000000000000000000000000000000000000000000000000000815260040180806020018281038252602a8152602001806155c6602a913960400191505060405180910390fd5b61242d600360008473ffffffffffffffffffffffffffffffffffffffff1673ffffffffffffffffffffffffffffffffffffffff168152602001908152602001600020613de9565b9050919050565b7fa49807205ce4d355092ef5a8a18f56e8913cf4a201fbe287825b095693c2177581565b6124897f65d7a28e3265b37a6474929f336521b332c1681b933f6cb9f3376673440d862a612484613920565b612519565b6124de576040517f08c379a000000000000000000000000000000000000000000000000000000000815260040180806020018281038252602c815260200180615693602c913960400191505060405180910390fd5b6124e6613dfe565b565b600061251182600080868152602001908152602001600020600001613ef190919063ffffffff16565b905092915050565b600061254282600080868152602001908152602001600020600001613f0b90919063ffffffff16565b905092915050565b606060098054600181600116156101000203166002900480601f0160208091040260200160405190810160405280929190818152602001828054600181600116156101000203166002900480156125e25780601f106125b7576101008083540402835291602001916125e2565b820191906000526020600020905b8154815290600101906020018083116125c557829003601f168201915b5050505050905090565b6000801b81565b6125fb613920565b73ffffffffffffffffffffffffffffffffffffffff168273ffffffffffffffffffffffffffffffffffffffff16141561269c576040517f08c379a00000000000000000000000000000000000000000000000000000000081526004018080602001828103825260198152602001807f4552433732313a20617070726f766520746f2063616c6c65720000000000000081525060200191505060405180910390fd5b80600760006126a9613920565b73ffffffffffffffffffffffffffffffffffffffff1673ffffffffffffffffffffffffffffffffffffffff16815260200190815260200160002060008473ffffffffffffffffffffffffffffffffffffffff1673ffffffffffffffffffffffffffffffffffffffff16815260200190815260200160002060006101000a81548160ff0219169083151502179055508173ffffffffffffffffffffffffffffffffffffffff16612756613920565b73ffffffffffffffffffffffffffffffffffffffff167f17307eab39ab6107e8899845ad3d59bd9653f200f220920489ca2b5937696c318360405180821515815260200191505060405180910390a35050565b6000600160009054906101000a900460ff161561282e576040517f08c379a00000000000000000000000000000000000000000000000000000000081526004018080602001828103825260108152602001807f5061757361626c653a207061757365640000000000000000000000000000000081525060200191505060405180910390fd5b612838600c6138f5565b905090565b61284e612848613920565b836139f6565b6128a3576040517f08c379a00000000000000000000000000000000000000000000000000000000081526004018080602001828103825260318152602001806157876031913960400191505060405180910390fd5b6128af84848484613f3b565b50505050565b60606128c082613903565b612915576040517f08c379a000000000000000000000000000000000000000000000000000000000815260040180806020018281038252602f81526020018061570b602f913960400191505060405180910390fd5b6060600a60008481526020019081526020016000208054600181600116156101000203166002900480601f0160208091040260200160405190810160405280929190818152602001828054600181600116156101000203166002900480156129be5780601f10612993576101008083540402835291602001916129be565b820191906000526020600020905b8154815290600101906020018083116129a157829003601f168201915b505050505090506000600b80546001816001161561010002031660029004905014156129ed5780915050612b99565b600081511115612ac657600b816040516020018083805460018160011615610100020316600290048015612a585780601f10612a36576101008083540402835291820191612a58565b820191906000526020600020905b815481529060010190602001808311612a44575b505082805190602001908083835b60208310612a895780518252602082019150602081019050602083039250612a66565b6001836020036101000a03801982511681845116808217855250505050505090500192505050604051602081830303815290604052915050612b99565b600b612ad184613fad565b6040516020018083805460018160011615610100020316600290048015612b2f5780601f10612b0d576101008083540402835291820191612b2f565b820191906000526020600020905b815481529060010190602001808311612b1b575b505082805190602001908083835b60208310612b605780518252602082019150602081019050602083039250612b3d565b6001836020036101000a038019825116818451168082178552505050505050905001925050506040516020818303038152906040529150505b919050565b6000612bbd6000808481526020019081526020016000206000016140f4565b9050919050565b6000600160009054906101000a900460ff1615612c49576040517f08c379a00000000000000000000000000000000000000000000000000000000081526004018080602001828103825260108152602001807f5061757361626c653a207061757365640000000000000000000000000000000081525060200191505060405180910390fd5b612c7a7f82fc59a2af283c7e52e3f7cf8d269383062c6603a1ab4300e32135abe128a476612c75613920565b612519565b612ccf576040517f08c379a000000000000000000000000000000000000000000000000000000000815260040180806020018281038252602c81526020018061575b602c913960400191505060405180910390fd5b8686600e6000612cdf600c6138f5565b81526020019081526020016000206000019190612cfd929190615258565b508484600e6000612d0e600c6138f5565b81526020019081526020016000206001019190612d2c929190615258565b508282600e6000612d3d600c6138f5565b81526020019081526020016000206002019190612d5b929190615258565b50612d66600c614109565b6000612d856001612d77600c6138f5565b61411f90919063ffffffff16565b90507f335347d3c0abbe88e13ee17ff9db9ff2aabea3e099f1ffd10807e9c7f9cf82ad818989898989896040518088815260200180602001806020018060200184810384528a8a82818152602001925080828437600081840152601f19601f8201169050808301925050508481038352888882818152602001925080828437600081840152601f19601f8201169050808301925050508481038252868682818152602001925080828437600081840152601f19601f8201169050808301925050509a505050505050505050505060405180910390a160019150509695505050505050565b6000600160009054906101000a900460ff1615612eee576040517f08c379a00000000000000000000000000000000000000000000000000000000081526004018080602001828103825260108152602001807f5061757361626c653a207061757365640000000000000000000000000000000081525060200191505060405180910390fd5b612f1f7f82fc59a2af283c7e52e3f7cf8d269383062c6603a1ab4300e32135abe128a476612f1a613920565b612519565b612f74576040517f08c379a000000000000000000000000000000000000000000000000000000000815260040180806020018281038252602c81526020018061575b602c913960400191505060405180910390fd5b87612f7f600c6138f5565b11612fd5576040517f08c379a00000000000000000000000000000000000000000000000000000000081526004018080602001828103825260268152602001806154416026913960400191505060405180910390fd5b8686600e60008b81526020019081526020016000206000019190612ffa929190615258565b508484600e60008b81526020019081526020016000206001019190613020929190615258565b508282600e60008b81526020019081526020016000206002019190613046929190615258565b507fcfea559888b71c63137ce2f6354ae40661672d1ea2d56b2db88cdd200ff42b73888888888888886040518088815260200180602001806020018060200184810384528a8a82818152602001925080828437600081840152601f19601f8201169050808301925050508481038352888882818152602001925080828437600081840152601f19601f8201169050808301925050508481038252868682818152602001925080828437600081840152601f19601f8201169050808301925050509a505050505050505050505060405180910390a160019050979650505050505050565b6000600160009054906101000a900460ff16156131ae576040517f08c379a00000000000000000000000000000000000000000000000000000000081526004018080602001828103825260108152602001807f5061757361626c653a207061757365640000000000000000000000000000000081525060200191505060405180910390fd5b836131b9600c6138f5565b1161320f576040517f08c379a00000000000000000000000000000000000000000000000000000000081526004018080602001828103825260268152602001806154416026913960400191505060405180910390fd5b60006011600086815260200190815260200160002060003373ffffffffffffffffffffffffffffffffffffffff1673ffffffffffffffffffffffffffffffffffffffff16815260200190815260200160002054146132b8576040517f08c379a000000000000000000000000000000000000000000000000000000000815260040180806020018281038252602681526020018061541b6026913960400191505060405180910390fd5b7f000000000000000000000000000000000000000000000000000000000000000073ffffffffffffffffffffffffffffffffffffffff1663ebfa62b985336040518363ffffffff1660e01b8152600401808381526020018273ffffffffffffffffffffffffffffffffffffffff1681526020019250505060206040518083038186803b15801561334757600080fd5b505afa15801561335b573d6000803e3d6000fd5b505050506040513d602081101561337157600080fd5b8101908080519060200190929190505050806134c957506134c87f000000000000000000000000000000000000000000000000000000000000000073ffffffffffffffffffffffffffffffffffffffff1663c2b40ae4866040518263ffffffff1660e01b81526004018082815260200191505060206040518083038186803b1580156133fc57600080fd5b505afa158015613410573d6000803e3d6000fd5b505050506040513d602081101561342657600080fd5b810190808051906020019092919050505033604051602001808273ffffffffffffffffffffffffffffffffffffffff1660601b815260140191505060405160208183030381529060405280519060200120888880806020026020016040519081016040528093929190818152602001838360200280828437600081840152601f19601f820116905080830192505050505050506141699092919063ffffffff16565b5b61351e576040517f08c379a00000000000000000000000000000000000000000000000000000000081526004018080602001828103825260268152602001806153f56026913960400191505060405180910390fd5b836010600061352d600d6138f5565b8152602001908152602001600020819055506135666001600f60008781526020019081526020016000205461421e90919063ffffffff16565b600f60008681526020019081526020016000208190555060016011600086815260200190815260200160002060003373ffffffffffffffffffffffffffffffffffffffff1673ffffffffffffffffffffffffffffffffffffffff168152602001908152602001600020819055506135de3384846142a6565b613650576040517f08c379a000000000000000000000000000000000000000000000000000000000815260040180806020018281038252601e8152602001807f4261646765466163746f72793a206261646765206e6f74206d696e746564000081525060200191505060405180910390fd5b7ffcdd666d85b3ffd083437c2d6d3fb35552e00683b0c6e248e30b534990f5a98e33858585604051808573ffffffffffffffffffffffffffffffffffffffff168152602001848152602001806020018281038252848482818152602001925080828437600081840152601f19601f8201169050808301925050509550505050505060405180910390a16001905095945050505050565b61370c60008084815260200190815260200160002060020154613707613920565b612519565b613761576040517f08c379a000000000000000000000000000000000000000000000000000000000815260040180806020018281038252603081526020018061555e6030913960400191505060405180910390fd5b61376b8282613bfe565b5050565b7f65d7a28e3265b37a6474929f336521b332c1681b933f6cb9f3376673440d862a81565b60006137a96000801b6137a4613920565b612519565b6137fe576040517f08c379a000000000000000000000000000000000000000000000000000000000815260040180806020018281038252602d815260200180615499602d913960400191505060405180910390fd5b6138287f82fc59a2af283c7e52e3f7cf8d269383062c6603a1ab4300e32135abe128a476836119bf565b60019050919050565b6000600760008473ffffffffffffffffffffffffffffffffffffffff1673ffffffffffffffffffffffffffffffffffffffff16815260200190815260200160002060008373ffffffffffffffffffffffffffffffffffffffff1673ffffffffffffffffffffffffffffffffffffffff16815260200190815260200160002060009054906101000a900460ff16905092915050565b60006138ed836000018373ffffffffffffffffffffffffffffffffffffffff1660001b614327565b905092915050565b600081600001549050919050565b600061391982600461439790919063ffffffff16565b9050919050565b600033905090565b816006600083815260200190815260200160002060006101000a81548173ffffffffffffffffffffffffffffffffffffffff021916908373ffffffffffffffffffffffffffffffffffffffff160217905550808273ffffffffffffffffffffffffffffffffffffffff1661399b836121cb565b73ffffffffffffffffffffffffffffffffffffffff167f8c5be1e5ebec7d5bd14f71427d1e84f3dd0314c0f7b2291e5b200ac8c7c3b92560405160405180910390a45050565b60006139ef826000016143b1565b9050919050565b6000613a0182613903565b613a56576040517f08c379a000000000000000000000000000000000000000000000000000000000815260040180806020018281038252602c815260200180615532602c913960400191505060405180910390fd5b6000613a61836121cb565b90508073ffffffffffffffffffffffffffffffffffffffff168473ffffffffffffffffffffffffffffffffffffffff161480613ad057508373ffffffffffffffffffffffffffffffffffffffff16613ab8846116a3565b73ffffffffffffffffffffffffffffffffffffffff16145b80613ae15750613ae08185613831565b5b91505092915050565b6000613b41576040517f08c379a00000000000000000000000000000000000000000000000000000000081526004018080602001828103825260258152602001806154e96025913960400191505060405180910390fd5b613b4c8383836143c2565b505050565b613b78816000808581526020019081526020016000206000016138c590919063ffffffff16565b15613be057613b85613920565b73ffffffffffffffffffffffffffffffffffffffff168173ffffffffffffffffffffffffffffffffffffffff16837f2f8788117e7eff1d82e926ec794901d17c78024a50270940304540a733656f0d60405160405180910390a45b5050565b6000613bf38360000183614605565b60001c905092915050565b613c258160008085815260200190815260200160002060000161468890919063ffffffff16565b15613c8d57613c32613920565b73ffffffffffffffffffffffffffffffffffffffff168173ffffffffffffffffffffffffffffffffffffffff16837ff6391f5c32d9c69d2a47ea670b442974b53935d1edc7fd64eb21e047a839171b60405160405180910390a45b5050565b600160009054906101000a900460ff16613d13576040517f08c379a00000000000000000000000000000000000000000000000000000000081526004018080602001828103825260148152602001807f5061757361626c653a206e6f742070617573656400000000000000000000000081525060200191505060405180910390fd5b6000600160006101000a81548160ff0219169083151502179055507f5db9ee0a495bf2e6ff9c91a7834c1ba4fdd244a5e8aa4e537bd38aeae4b073aa613d57613920565b604051808273ffffffffffffffffffffffffffffffffffffffff16815260200191505060405180910390a1565b600080600080613d9786600001866146b8565b915091508160001c8160001c9350935050509250929050565b80600b9080519060200190613dc69291906152d8565b5050565b6000613ddd846000018460001b84614751565b60001c90509392505050565b6000613df782600001614847565b9050919050565b600160009054906101000a900460ff1615613e81576040517f08c379a00000000000000000000000000000000000000000000000000000000081526004018080602001828103825260108152602001807f5061757361626c653a207061757365640000000000000000000000000000000081525060200191505060405180910390fd5b60018060006101000a81548160ff0219169083151502179055507f62e78cea01bee320cd4e420270b5ea74000d11b0c9f74754ebdbfc544b05a258613ec4613920565b604051808273ffffffffffffffffffffffffffffffffffffffff16815260200191505060405180910390a1565b6000613f008360000183614605565b60001c905092915050565b6000613f33836000018373ffffffffffffffffffffffffffffffffffffffff1660001b614858565b905092915050565b613f46848484613aea565b613f528484848461487b565b613fa7576040517f08c379a00000000000000000000000000000000000000000000000000000000081526004018080602001828103825260328152602001806154676032913960400191505060405180910390fd5b50505050565b60606000821415613ff5576040518060400160405280600181526020017f300000000000000000000000000000000000000000000000000000000000000081525090506140ef565b600082905060005b6000821461401f578080600101915050600a828161401757fe5b049150613ffd565b60608167ffffffffffffffff8111801561403857600080fd5b506040519080825280601f01601f19166020018201604052801561406b5781602001600182028036833780820191505090505b50905060006001830390508593505b600084146140e757600a848161408c57fe5b0660300160f81b828280600190039350815181106140a657fe5b60200101907effffffffffffffffffffffffffffffffffffffffffffffffffffffffffffff1916908160001a905350600a84816140df57fe5b04935061407a565b819450505050505b919050565b600061410282600001614847565b9050919050565b6001816000016000828254019250508190555050565b600061416183836040518060400160405280601e81526020017f536166654d6174683a207375627472616374696f6e206f766572666c6f770000815250614a94565b905092915050565b60008082905060005b855181101561421057600086828151811061418957fe5b602002602001015190508083116141d05782816040516020018083815260200182815260200192505050604051602081830303815290604052805190602001209250614202565b808360405160200180838152602001828152602001925050506040516020818303038152906040528051906020012092505b508080600101915050614172565b508381149150509392505050565b60008082840190508381101561429c576040517f08c379a000000000000000000000000000000000000000000000000000000000815260040180806020018281038252601b8152602001807f536166654d6174683a206164646974696f6e206f766572666c6f77000000000081525060200191505060405180910390fd5b8091505092915050565b60006142bb846142b6600d6138f5565b614b54565b6143126142c8600d6138f5565b84848080601f016020809104026020016040519081016040528093929190818152602001838380828437600081840152601f19601f82011690508083019250505050505050614d48565b61431c600d614109565b600190509392505050565b60006143338383614858565b61438c578260000182908060018154018082558091505060019003906000526020600020016000909190919091505582600001805490508360010160008481526020019081526020016000208190555060019050614391565b600090505b92915050565b60006143a9836000018360001b614dd2565b905092915050565b600081600001805490509050919050565b8273ffffffffffffffffffffffffffffffffffffffff166143e2826121cb565b73ffffffffffffffffffffffffffffffffffffffff161461444e576040517f08c379a00000000000000000000000000000000000000000000000000000000081526004018080602001828103825260298152602001806156e26029913960400191505060405180910390fd5b600073ffffffffffffffffffffffffffffffffffffffff168273ffffffffffffffffffffffffffffffffffffffff1614156144d4576040517f08c379a000000000000000000000000000000000000000000000000000000000815260040180806020018281038252602481526020018061550e6024913960400191505060405180910390fd5b6144df838383614df5565b6144ea600082613928565b61453b81600360008673ffffffffffffffffffffffffffffffffffffffff1673ffffffffffffffffffffffffffffffffffffffff168152602001908152602001600020614dfa90919063ffffffff16565b5061458d81600360008573ffffffffffffffffffffffffffffffffffffffff1673ffffffffffffffffffffffffffffffffffffffff168152602001908152602001600020614e1490919063ffffffff16565b506145a481836004614e2e9092919063ffffffff16565b50808273ffffffffffffffffffffffffffffffffffffffff168473ffffffffffffffffffffffffffffffffffffffff167fddf252ad1be2c89b69c2b068fc378daa952ba7f163c4a11628f55a4df523b3ef60405160405180910390a4505050565b600081836000018054905011614666576040517f08c379a00000000000000000000000000000000000000000000000000000000081526004018080602001828103825260228152602001806153766022913960400191505060405180910390fd5b82600001828154811061467557fe5b9060005260206000200154905092915050565b60006146b0836000018373ffffffffffffffffffffffffffffffffffffffff1660001b614e63565b905092915050565b6000808284600001805490501161471a576040517f08c379a00000000000000000000000000000000000000000000000000000000081526004018080602001828103825260228152602001806156196022913960400191505060405180910390fd5b600084600001848154811061472b57fe5b906000526020600020906002020190508060000154816001015492509250509250929050565b60008084600101600085815260200190815260200160002054905060008114158390614818576040517f08c379a00000000000000000000000000000000000000000000000000000000081526004018080602001828103825283818151815260200191508051906020019080838360005b838110156147dd5780820151818401526020810190506147c2565b50505050905090810190601f16801561480a5780820380516001836020036101000a031916815260200191505b509250505060405180910390fd5b5084600001600182038154811061482b57fe5b9060005260206000209060020201600101549150509392505050565b600081600001805490509050919050565b600080836001016000848152602001908152602001600020541415905092915050565b600061489c8473ffffffffffffffffffffffffffffffffffffffff16614f4b565b6148a95760019050614a8c565b6060614a1363150b7a0260e01b6148be613920565b888787604051602401808573ffffffffffffffffffffffffffffffffffffffff1681526020018473ffffffffffffffffffffffffffffffffffffffff16815260200183815260200180602001828103825283818151815260200191508051906020019080838360005b83811015614942578082015181840152602081019050614927565b50505050905090810190601f16801561496f5780820380516001836020036101000a031916815260200191505b5095505050505050604051602081830303815290604052907bffffffffffffffffffffffffffffffffffffffffffffffffffffffff19166020820180517bffffffffffffffffffffffffffffffffffffffffffffffffffffffff8381831617835250505050604051806060016040528060328152602001615467603291398773ffffffffffffffffffffffffffffffffffffffff16614f5e9092919063ffffffff16565b90506000818060200190516020811015614a2c57600080fd5b8101908080519060200190929190505050905063150b7a0260e01b7bffffffffffffffffffffffffffffffffffffffffffffffffffffffff1916817bffffffffffffffffffffffffffffffffffffffffffffffffffffffff191614925050505b949350505050565b6000838311158290614b41576040517f08c379a00000000000000000000000000000000000000000000000000000000081526004018080602001828103825283818151815260200191508051906020019080838360005b83811015614b06578082015181840152602081019050614aeb565b50505050905090810190601f168015614b335780820380516001836020036101000a031916815260200191505b509250505060405180910390fd5b5060008385039050809150509392505050565b600073ffffffffffffffffffffffffffffffffffffffff168273ffffffffffffffffffffffffffffffffffffffff161415614bf7576040517f08c379a00000000000000000000000000000000000000000000000000000000081526004018080602001828103825260208152602001807f4552433732313a206d696e7420746f20746865207a65726f206164647265737381525060200191505060405180910390fd5b614c0081613903565b15614c73576040517f08c379a000000000000000000000000000000000000000000000000000000000815260040180806020018281038252601c8152602001807f4552433732313a20746f6b656e20616c7265616479206d696e7465640000000081525060200191505060405180910390fd5b614c7f60008383614df5565b614cd081600360008573ffffffffffffffffffffffffffffffffffffffff1673ffffffffffffffffffffffffffffffffffffffff168152602001908152602001600020614e1490919063ffffffff16565b50614ce781836004614e2e9092919063ffffffff16565b50808273ffffffffffffffffffffffffffffffffffffffff16600073ffffffffffffffffffffffffffffffffffffffff167fddf252ad1be2c89b69c2b068fc378daa952ba7f163c4a11628f55a4df523b3ef60405160405180910390a45050565b614d5182613903565b614da6576040517f08c379a000000000000000000000000000000000000000000000000000000000815260040180806020018281038252602c815260200180615667602c913960400191505060405180910390fd5b80600a60008481526020019081526020016000209080519060200190614dcd9291906152d8565b505050565b600080836001016000848152602001908152602001600020541415905092915050565b505050565b6000614e0c836000018360001b614e63565b905092915050565b6000614e26836000018360001b614327565b905092915050565b6000614e5a846000018460001b8473ffffffffffffffffffffffffffffffffffffffff1660001b614f76565b90509392505050565b60008083600101600084815260200190815260200160002054905060008114614f3f5760006001820390506000600186600001805490500390506000866000018281548110614eae57fe5b9060005260206000200154905080876000018481548110614ecb57fe5b9060005260206000200181905550600183018760010160008381526020019081526020016000208190555086600001805480614f0357fe5b60019003818190600052602060002001600090559055866001016000878152602001908152602001600020600090556001945050505050614f45565b60009150505b92915050565b600080823b905060008111915050919050565b6060614f6d8484600085615052565b90509392505050565b600080846001016000858152602001908152602001600020549050600081141561501d5784600001604051806040016040528086815260200185815250908060018154018082558091505060019003906000526020600020906002020160009091909190915060008201518160000155602082015181600101555050846000018054905085600101600086815260200190815260200160002081905550600191505061504b565b8285600001600183038154811061503057fe5b90600052602060002090600202016001018190555060009150505b9392505050565b606061505d85614f4b565b6150cf576040517f08c379a000000000000000000000000000000000000000000000000000000000815260040180806020018281038252601d8152602001807f416464726573733a2063616c6c20746f206e6f6e2d636f6e747261637400000081525060200191505060405180910390fd5b600060608673ffffffffffffffffffffffffffffffffffffffff1685876040518082805190602001908083835b6020831061511f57805182526020820191506020810190506020830392506150fc565b6001836020036101000a03801982511681845116808217855250505050505090500191505060006040518083038185875af1925050503d8060008114615181576040519150601f19603f3d011682016040523d82523d6000602084013e615186565b606091505b5091509150811561519b578092505050615250565b6000815111156151ae5780518082602001fd5b836040517f08c379a00000000000000000000000000000000000000000000000000000000081526004018080602001828103825283818151815260200191508051906020019080838360005b838110156152155780820151818401526020810190506151fa565b50505050905090810190601f1680156152425780820380516001836020036101000a031916815260200191505b509250505060405180910390fd5b949350505050565b828054600181600116156101000203166002900490600052602060002090601f016020900481019282601f1061529957803560ff19168380011785556152c7565b828001600101855582156152c7579182015b828111156152c65782358255916020019190600101906152ab565b5b5090506152d49190615358565b5090565b828054600181600116156101000203166002900490600052602060002090601f016020900481019282601f1061531957805160ff1916838001178555615347565b82800160010185558215615347579182015b8281111561534657825182559160200191906001019061532b565b5b5090506153549190615358565b5090565b5b80821115615371576000816000905550600101615359565b509056fe456e756d657261626c655365743a20696e646578206f7574206f6620626f756e6473416363657373436f6e74726f6c3a2073656e646572206d75737420626520616e2061646d696e20746f206772616e744261646765466163746f72793a206d75737420686176652070617573657220726f6c6520746f20756e70617573654261646765466163746f72793a2063616c6c6572206973206e6f7420612072656465656d65724261646765466163746f72793a20626164676520616c726561647920616374697661746564214261646765466163746f72793a206e6f2074656d706c617465207769746820746861742069644552433732313a207472616e7366657220746f206e6f6e20455243373231526563656976657220696d706c656d656e7465724261646765466163746f72793a2063616c6c6572206973206e6f74207468652064656661756c742061646d696e4d616b65724261646765733a2063616c6c6572206973206e6f7420616e2061646d696e4261646765466163746f72793a206261646765207472616e736665722064697361626c65644552433732313a207472616e7366657220746f20746865207a65726f20616464726573734552433732313a206f70657261746f7220717565727920666f72206e6f6e6578697374656e7420746f6b656e416363657373436f6e74726f6c3a2073656e646572206d75737420626520616e2061646d696e20746f207265766f6b654552433732313a20617070726f76652063616c6c6572206973206e6f74206f776e6572206e6f7220617070726f76656420666f7220616c6c4552433732313a2062616c616e636520717565727920666f7220746865207a65726f20616464726573734552433732313a206f776e657220717565727920666f72206e6f6e6578697374656e7420746f6b656e456e756d657261626c654d61703a20696e646578206f7574206f6620626f756e64734552433732313a20617070726f76656420717565727920666f72206e6f6e6578697374656e7420746f6b656e4552433732314d657461646174613a2055524920736574206f66206e6f6e6578697374656e7420746f6b656e4261646765466163746f72793a206d75737420686176652070617573657220726f6c6520746f2070617573654261646765466163746f72793a206e6f20746f6b656e207769746820746861742069644552433732313a207472616e73666572206f6620746f6b656e2074686174206973206e6f74206f776e4552433732314d657461646174613a2055524920717565727920666f72206e6f6e6578697374656e7420746f6b656e4552433732313a20617070726f76616c20746f2063757272656e74206f776e65724261646765466163746f72793a2063616c6c6572206973206e6f7420612074656d706c617465206f776e65724552433732313a207472616e736665722063616c6c6572206973206e6f74206f776e6572206e6f7220617070726f766564416363657373436f6e74726f6c3a2063616e206f6e6c792072656e6f756e636520726f6c657320666f722073656c66a2646970667358221220181bb6bb1146ef1ddfa699b869f357e98a540e1eb625b6631e74a13d465fce8864736f6c634300060c003368747470733a2f2f6261646765732e6d616b657264616f2e636f6d2f746f6b656e2f",
  "immutableReferences": {
    "38": [
      {
        "length": 32,
        "start": 12986
      },
      {
        "length": 32,
        "start": 13197
      }
    ]
  },
  "source": "/// SPDX-License-Identifier: AGPL-3.0-or-later\npragma solidity 0.6.12;\n\n/// @title Non-transferable Badges for Maker Ecosystem Activity, CDIP 18, 29\n/// @author Nazzareno Massari @naszam\n/// @notice BadgeFactory to manage Templates and activate Non-transferable MakerBadges by redeemers\n/// @dev See https://github.com/makerdao/community/issues/537\n/// @dev See https://github.com/makerdao/community/issues/721\n/// @dev All function calls are currently implemented without side effects through TDD approach\n/// @dev OpenZeppelin Library is used for secure contract development\n\n/*\n       \n  \n   \n   \n        \n*/\n\n\n\nimport \"./BadgeRoles.sol\";\nimport \"@openzeppelin/contracts/utils/Counters.sol\";\nimport \"@openzeppelin/contracts/token/ERC721/ERC721.sol\";\nimport \"@openzeppelin/contracts/cryptography/MerkleProof.sol\";\n\ninterface MakerBadgesLike {\n    function verify(uint256 templateId, address guy) external view returns (bool);\n    function roots(uint256 templateId) external view returns (bytes32);\n}\n\ncontract BadgeFactory is BadgeRoles, ERC721 {\n\n    /// @dev Libraries\n    using SafeMath for uint256;\n    using Counters for Counters.Counter;\n    using MerkleProof for bytes32[];\n\n    MakerBadgesLike internal immutable maker;\n\n    Counters.Counter private _templateIdTracker;\n    Counters.Counter private _tokenIdTracker;\n\n    struct BadgeTemplate {\n        string name;\n        string description;\n        string image;\n    }\n\n    mapping (uint256 => BadgeTemplate) private templates;\n\n    /// @dev Supplies of each badge template\n    mapping(uint256 => uint256) private _templateQuantities;\n    mapping(uint256 => uint256) private _tokenTemplates;\n\n    mapping(uint256 => mapping (address => uint256)) public redeemed;\n\n    /// @dev Events\n    event NewTemplate(uint256 templateId, string name, string description, string image);\n    event TemplateUpdated(uint256 templateId, string name, string description, string image);\n    event BadgeActivated(address redeemer, uint256 templateId, string tokenURI);\n\n    constructor(address maker_)\n        public\n        ERC721(\"MakerBadges\", \"MAKER\")\n    {\n        _setBaseURI(\"https://badges.makerdao.com/token/\");\n        maker = MakerBadgesLike(maker_);\n    }\n\n    /// @notice Fallback function\n    /// @dev Added not payable to revert transactions not matching any other function which send value\n    fallback() external {\n        revert();\n    }\n\n    /// @notice Set the baseURI\n    /// @dev Update the baseURI specified in the constructor\n    /// @param baseURI New baseURI\n    /// @return True if the new baseURI is set\n    function setBaseURI(string calldata baseURI) external returns (bool) {\n        require(hasRole(ADMIN_ROLE, msg.sender), \"MakerBadges: caller is not an admin\");\n        _setBaseURI(baseURI);\n        return true;\n    }\n\n    /// @dev Templates\n\n    /// @notice Create a new template\n    /// @dev Access restricted to only Templaters\n    /// @param name The name of the new template\n    /// @param description A description of the new template\n    /// @param image A filename of the new template\n    /// @return True If the new Template is Created\n    function createTemplate(string calldata name, string calldata description, string calldata image)\n        external\n        whenNotPaused\n        returns (bool)\n    {\n        require(hasRole(TEMPLATER_ROLE, _msgSender()), \"BadgeFactory: caller is not a template owner\");\n        templates[_templateIdTracker.current()].name = name;\n        templates[_templateIdTracker.current()].description = description;\n        templates[_templateIdTracker.current()].image = image;\n\n        _templateIdTracker.increment();\n        uint256 _templateId = _templateIdTracker.current().sub(1);\n        emit NewTemplate(_templateId, name, description, image);\n        return true;\n    }\n\n    /// @notice Update a template\n    /// @dev Access restricted to only Templaters\n    /// @param templateId Template Id\n    /// @param name The name of the template\n    /// @param description The description of the template\n    /// @param image The filename of the template\n    /// @return True If the new Template is Updated\n    function updateTemplate(uint256 templateId, string calldata name, string calldata description, string calldata image)\n        external\n        whenNotPaused\n        returns (bool)\n    {\n        require(hasRole(TEMPLATER_ROLE, _msgSender()), \"BadgeFactory: caller is not a template owner\");\n        require(_templateIdTracker.current() > templateId, \"BadgeFactory: no template with that id\");\n        templates[templateId].name = name;\n        templates[templateId].description = description;\n        templates[templateId].image = image;\n        emit TemplateUpdated(templateId, name, description, image);\n        return true;\n    }\n\n    /// @notice Getter function for templates\n    /// @dev Check if templateId exists\n    /// @param templateId Template Id of the template to return\n    /// @return name description image Of the specified templateId\n    function getTemplate(uint256 templateId)\n        external\n        view\n        whenNotPaused\n        returns (string memory name, string memory description, string memory image)\n    {\n        require(_templateIdTracker.current() > templateId, \"BadgeFactory: no template with that id\");\n        return (templates[templateId].name, templates[templateId].description, templates[templateId].image);\n    }\n\n    /// @notice Getter function for templates count\n    /// @dev Return lenght of template array\n    /// @return count The current number of templates\n    function getTemplatesCount() external view whenNotPaused returns (uint256 count) {\n        return _templateIdTracker.current();\n    }\n\n    /// @dev Badges\n\n    /// @notice Activate Badge by redeemers\n    /// @dev Verify if the caller is a redeemer\n    /// @param proof Merkle Proof\n    /// @param templateId Template Id\n    /// @param tokenURI Token URI\n    /// @return True If the new Badge is Activated\n    function activateBadge(bytes32[] calldata proof, uint256 templateId, string calldata tokenURI)\n        external\n        whenNotPaused\n        returns (bool)\n    {\n        require(_templateIdTracker.current() > templateId, \"BadgeFactory: no template with that id\");\n        require(redeemed[templateId][msg.sender] == 0, \"BadgeFactory: badge already activated!\");\n        require(\n            maker.verify(templateId, msg.sender) || proof.verify(maker.roots(templateId), keccak256(abi.encodePacked(msg.sender))),\n            \"BadgeFactory: caller is not a redeemer\"\n        );\n\n        /// @dev Increase the quantities\n        _tokenTemplates[_tokenIdTracker.current()] = templateId;\n        _templateQuantities[templateId] = _templateQuantities[templateId].add(1);\n        redeemed[templateId][msg.sender] = 1;\n\n        require(_mintWithTokenURI(msg.sender, tokenURI), \"BadgeFactory: badge not minted\");\n\n        emit BadgeActivated(msg.sender, templateId, tokenURI);\n        return true;\n    }\n\n    /// @notice Getter function for templateId associated with the tokenId\n    /// @dev Check if the tokenId exists\n    /// @param tokenId Token Id of the Badge\n    /// @return Template Id associated with the tokenId\n    function getBadgeTemplate(uint256 tokenId) external view whenNotPaused returns (uint256) {\n        require(_exists(tokenId), \"BadgeFactory: no token with that id\");\n        return _tokenTemplates[tokenId];\n    }\n\n    /// @notice Getter function for number of badges associated with templateId\n    /// @dev Check if the template Id exists\n    /// @param templateId Template Id\n    /// @return Quantity of Badges associated with templateId\n    function getBadgeTemplateQuantity(uint256 templateId) external view whenNotPaused returns (uint256) {\n        require(_templateIdTracker.current() > templateId, \"BadgeFactory: no template with that id\");\n        return _templateQuantities[templateId];\n    }\n\n    /// @notice ERC721 _transfer() Disabled\n    /// @dev _transfer() has been overriden\n    /// @dev reverts on transferFrom() and safeTransferFrom()\n    function _transfer(address from, address to, uint256 tokenId) internal override {\n        require(false, \"BadgeFactory: badge transfer disabled\");\n        super._transfer(from, to, tokenId);\n    }\n\n    /// @notice Mint new token with tokenURI\n    /// @dev Use an auto-generated tokenId\n    /// @dev automatically concatenate baseURI with tokenURI via abi.encodePacked\n    /// @param to owner of the new token\n    /// @param tokenURI an <ipfs-hash>.json filename\n    /// @return True if the new token is minted\n    function _mintWithTokenURI(address to, string calldata tokenURI) private returns (bool) {\n        _mint(to, _tokenIdTracker.current());\n        _setTokenURI(_tokenIdTracker.current(), tokenURI);\n        _tokenIdTracker.increment();\n        return true;\n    }\n}\n",
  "sourcePath": "/home/sencha/maker-badges/contracts/BadgeFactory.sol",
  "compiler": {
    "name": "solc",
    "version": "0.6.12+commit.27d51765.Emscripten.clang"
  },
  "schemaVersion": "3.3.1",
  "updatedAt": "2020-10-31T14:37:33.851Z",
  "networkType": "ethereum",
  "devdoc": {
    "events": {
      "NewTemplate(uint256,string,string,string)": {
        "details": "Events"
      }
    },
    "kind": "dev",
    "methods": {
      "activateBadge(bytes32[],uint256,string)": {
        "details": "Verify if the caller is a redeemer",
        "params": {
          "proof": "Merkle Proof",
          "templateId": "Template Id",
          "tokenURI": "Token URI"
        },
        "returns": {
          "_0": "True If the new Badge is Activated"
        }
      },
      "addAdmin(address)": {
        "details": "Access restricted only to Default Admin",
        "params": {
          "account": "Address of the new Admin"
        },
        "returns": {
          "_0": "True if the account address is added as Admin"
        }
      },
      "addTemplater(address)": {
        "details": "Access restricted only to Default Admin",
        "params": {
          "guy": "Address of the new Templater"
        },
        "returns": {
          "_0": "True if the guy address is added as Templater"
        }
      },
      "approve(address,uint256)": {
        "details": "See {IERC721-approve}."
      },
      "balanceOf(address)": {
        "details": "See {IERC721-balanceOf}."
      },
      "baseURI()": {
        "details": "Returns the base URI set via {_setBaseURI}. This will be automatically added as a prefix in {tokenURI} to each token's URI, or to the token ID if no specific URI is set for that token ID."
      },
      "createTemplate(string,string,string)": {
        "details": "Access restricted to only Templaters",
        "params": {
          "description": "A description of the new template",
          "image": "A filename of the new template",
          "name": "The name of the new template"
        },
        "returns": {
          "_0": "True If the new Template is Created"
        }
      },
      "getApproved(uint256)": {
        "details": "See {IERC721-getApproved}."
      },
      "getBadgeTemplate(uint256)": {
        "details": "Check if the tokenId exists",
        "params": {
          "tokenId": "Token Id of the Badge"
        },
        "returns": {
          "_0": "Template Id associated with the tokenId"
        }
      },
      "getBadgeTemplateQuantity(uint256)": {
        "details": "Check if the template Id exists",
        "params": {
          "templateId": "Template Id"
        },
        "returns": {
          "_0": "Quantity of Badges associated with templateId"
        }
      },
      "getRoleAdmin(bytes32)": {
        "details": "Returns the admin role that controls `role`. See {grantRole} and {revokeRole}. To change a role's admin, use {_setRoleAdmin}."
      },
      "getRoleMember(bytes32,uint256)": {
        "details": "Returns one of the accounts that have `role`. `index` must be a value between 0 and {getRoleMemberCount}, non-inclusive. Role bearers are not sorted in any particular way, and their ordering may change at any point. WARNING: When using {getRoleMember} and {getRoleMemberCount}, make sure you perform all queries on the same block. See the following https://forum.openzeppelin.com/t/iterating-over-elements-on-enumerableset-in-openzeppelin-contracts/2296[forum post] for more information."
      },
      "getRoleMemberCount(bytes32)": {
        "details": "Returns the number of accounts that have `role`. Can be used together with {getRoleMember} to enumerate all bearers of a role."
      },
      "getTemplate(uint256)": {
        "details": "Check if templateId exists",
        "params": {
          "templateId": "Template Id of the template to return"
        },
        "returns": {
          "name": "description image Of the specified templateId"
        }
      },
      "getTemplatesCount()": {
        "details": "Return lenght of template array",
        "returns": {
          "count": "The current number of templates"
        }
      },
      "grantRole(bytes32,address)": {
        "details": "Grants `role` to `account`. If `account` had not been already granted `role`, emits a {RoleGranted} event. Requirements: - the caller must have ``role``'s admin role."
      },
      "hasRole(bytes32,address)": {
        "details": "Returns `true` if `account` has been granted `role`."
      },
      "isApprovedForAll(address,address)": {
        "details": "See {IERC721-isApprovedForAll}."
      },
      "name()": {
        "details": "See {IERC721Metadata-name}."
      },
      "ownerOf(uint256)": {
        "details": "See {IERC721-ownerOf}."
      },
      "pause()": {
        "details": "the caller must have the 'PAUSER_ROLE'"
      },
      "paused()": {
        "details": "Returns true if the contract is paused, and false otherwise."
      },
      "removeAdmin(address)": {
        "details": "Access restricted only to Default Admin",
        "params": {
          "account": "Address of the Admin"
        },
        "returns": {
          "_0": "True if the account address is removed as Admin"
        }
      },
      "removeTemplater(address)": {
        "details": "Access restricted only to Default Admin",
        "params": {
          "guy": "Address of the Templater"
        },
        "returns": {
          "_0": "True if the guy address is removed as Templater"
        }
      },
      "renounceRole(bytes32,address)": {
        "details": "Revokes `role` from the calling account. Roles are often managed via {grantRole} and {revokeRole}: this function's purpose is to provide a mechanism for accounts to lose their privileges if they are compromised (such as when a trusted device is misplaced). If the calling account had been granted `role`, emits a {RoleRevoked} event. Requirements: - the caller must be `account`."
      },
      "revokeRole(bytes32,address)": {
        "details": "Revokes `role` from `account`. If `account` had been granted `role`, emits a {RoleRevoked} event. Requirements: - the caller must have ``role``'s admin role."
      },
      "safeTransferFrom(address,address,uint256)": {
        "details": "See {IERC721-safeTransferFrom}."
      },
      "safeTransferFrom(address,address,uint256,bytes)": {
        "details": "See {IERC721-safeTransferFrom}."
      },
      "setApprovalForAll(address,bool)": {
        "details": "See {IERC721-setApprovalForAll}."
      },
      "setBaseURI(string)": {
        "details": "Update the baseURI specified in the constructor",
        "params": {
          "baseURI": "New baseURI"
        },
        "returns": {
          "_0": "True if the new baseURI is set"
        }
      },
      "supportsInterface(bytes4)": {
        "details": "See {IERC165-supportsInterface}. Time complexity O(1), guaranteed to always use less than 30 000 gas."
      },
      "symbol()": {
        "details": "See {IERC721Metadata-symbol}."
      },
      "tokenByIndex(uint256)": {
        "details": "See {IERC721Enumerable-tokenByIndex}."
      },
      "tokenOfOwnerByIndex(address,uint256)": {
        "details": "See {IERC721Enumerable-tokenOfOwnerByIndex}."
      },
      "tokenURI(uint256)": {
        "details": "See {IERC721Metadata-tokenURI}."
      },
      "totalSupply()": {
        "details": "See {IERC721Enumerable-totalSupply}."
      },
      "transferFrom(address,address,uint256)": {
        "details": "See {IERC721-transferFrom}."
      },
      "unpause()": {
        "details": "the caller must have the 'PAUSER_ROLE'"
      },
      "updateTemplate(uint256,string,string,string)": {
        "details": "Access restricted to only Templaters",
        "params": {
          "description": "The description of the template",
          "image": "The filename of the template",
          "name": "The name of the template",
          "templateId": "Template Id"
        },
        "returns": {
          "_0": "True If the new Template is Updated"
        }
      }
    },
    "stateVariables": {
      "_templateQuantities": {
        "details": "Supplies of each badge template"
      }
    },
    "version": 1
  },
  "userdoc": {
    "kind": "user",
    "methods": {
      "activateBadge(bytes32[],uint256,string)": {
        "notice": "Activate Badge by redeemers"
      },
      "addAdmin(address)": {
        "notice": "Add a new Admin"
      },
      "addTemplater(address)": {
        "notice": "Add a new Templater"
      },
      "createTemplate(string,string,string)": {
        "notice": "Create a new template"
      },
      "getBadgeTemplate(uint256)": {
        "notice": "Getter function for templateId associated with the tokenId"
      },
      "getBadgeTemplateQuantity(uint256)": {
        "notice": "Getter function for number of badges associated with templateId"
      },
      "getTemplate(uint256)": {
        "notice": "Getter function for templates"
      },
      "getTemplatesCount()": {
        "notice": "Getter function for templates count"
      },
      "pause()": {
        "notice": "Pause all the functions"
      },
      "removeAdmin(address)": {
        "notice": "Remove an Admin"
      },
      "removeTemplater(address)": {
        "notice": "Remove a Templater"
      },
      "setBaseURI(string)": {
        "notice": "Set the baseURI"
      },
      "unpause()": {
        "notice": "Unpause all the functions"
      },
      "updateTemplate(uint256,string,string,string)": {
        "notice": "Update a template"
      }
    },
    "version": 1
  }
}