{
  "contractName": "BadgeFactory",
  "abi": [
    {
      "inputs": [
        {
          "internalType": "address",
          "name": "forwarder_",
          "type": "address"
        },
        {
          "internalType": "address",
          "name": "maker_",
          "type": "address"
        }
      ],
      "stateMutability": "nonpayable",
      "type": "constructor"
    },
    {
      "anonymous": false,
      "inputs": [
        {
          "indexed": true,
          "internalType": "address",
          "name": "owner",
          "type": "address"
        },
        {
          "indexed": true,
          "internalType": "address",
          "name": "approved",
          "type": "address"
        },
        {
          "indexed": true,
          "internalType": "uint256",
          "name": "tokenId",
          "type": "uint256"
        }
      ],
      "name": "Approval",
      "type": "event"
    },
    {
      "anonymous": false,
      "inputs": [
        {
          "indexed": true,
          "internalType": "address",
          "name": "owner",
          "type": "address"
        },
        {
          "indexed": true,
          "internalType": "address",
          "name": "operator",
          "type": "address"
        },
        {
          "indexed": false,
          "internalType": "bool",
          "name": "approved",
          "type": "bool"
        }
      ],
      "name": "ApprovalForAll",
      "type": "event"
    },
    {
      "anonymous": false,
      "inputs": [
        {
          "indexed": false,
          "internalType": "address",
          "name": "redeemer",
          "type": "address"
        },
        {
          "indexed": false,
          "internalType": "uint256",
          "name": "templateId",
          "type": "uint256"
        },
        {
          "indexed": false,
          "internalType": "string",
          "name": "tokenURI",
          "type": "string"
        }
      ],
      "name": "BadgeActivated",
      "type": "event"
    },
    {
      "anonymous": false,
      "inputs": [
        {
          "indexed": false,
          "internalType": "uint256",
          "name": "templateId",
          "type": "uint256"
        },
        {
          "indexed": false,
          "internalType": "string",
          "name": "name",
          "type": "string"
        },
        {
          "indexed": false,
          "internalType": "string",
          "name": "description",
          "type": "string"
        },
        {
          "indexed": false,
          "internalType": "string",
          "name": "image",
          "type": "string"
        }
      ],
      "name": "NewTemplate",
      "type": "event"
    },
    {
      "anonymous": false,
      "inputs": [
        {
          "indexed": true,
          "internalType": "address",
          "name": "previousOwner",
          "type": "address"
        },
        {
          "indexed": true,
          "internalType": "address",
          "name": "newOwner",
          "type": "address"
        }
      ],
      "name": "OwnershipTransferred",
      "type": "event"
    },
    {
      "anonymous": false,
      "inputs": [
        {
          "indexed": false,
          "internalType": "address",
          "name": "account",
          "type": "address"
        }
      ],
      "name": "Paused",
      "type": "event"
    },
    {
      "anonymous": false,
      "inputs": [
        {
          "indexed": true,
          "internalType": "bytes32",
          "name": "role",
          "type": "bytes32"
        },
        {
          "indexed": true,
          "internalType": "bytes32",
          "name": "previousAdminRole",
          "type": "bytes32"
        },
        {
          "indexed": true,
          "internalType": "bytes32",
          "name": "newAdminRole",
          "type": "bytes32"
        }
      ],
      "name": "RoleAdminChanged",
      "type": "event"
    },
    {
      "anonymous": false,
      "inputs": [
        {
          "indexed": true,
          "internalType": "bytes32",
          "name": "role",
          "type": "bytes32"
        },
        {
          "indexed": true,
          "internalType": "address",
          "name": "account",
          "type": "address"
        },
        {
          "indexed": true,
          "internalType": "address",
          "name": "sender",
          "type": "address"
        }
      ],
      "name": "RoleGranted",
      "type": "event"
    },
    {
      "anonymous": false,
      "inputs": [
        {
          "indexed": true,
          "internalType": "bytes32",
          "name": "role",
          "type": "bytes32"
        },
        {
          "indexed": true,
          "internalType": "address",
          "name": "account",
          "type": "address"
        },
        {
          "indexed": true,
          "internalType": "address",
          "name": "sender",
          "type": "address"
        }
      ],
      "name": "RoleRevoked",
      "type": "event"
    },
    {
      "anonymous": false,
      "inputs": [
        {
          "indexed": false,
          "internalType": "uint256",
          "name": "templateId",
          "type": "uint256"
        },
        {
          "indexed": false,
          "internalType": "string",
          "name": "name",
          "type": "string"
        },
        {
          "indexed": false,
          "internalType": "string",
          "name": "description",
          "type": "string"
        },
        {
          "indexed": false,
          "internalType": "string",
          "name": "image",
          "type": "string"
        }
      ],
      "name": "TemplateUpdated",
      "type": "event"
    },
    {
      "anonymous": false,
      "inputs": [
        {
          "indexed": true,
          "internalType": "address",
          "name": "from",
          "type": "address"
        },
        {
          "indexed": true,
          "internalType": "address",
          "name": "to",
          "type": "address"
        },
        {
          "indexed": true,
          "internalType": "uint256",
          "name": "tokenId",
          "type": "uint256"
        }
      ],
      "name": "Transfer",
      "type": "event"
    },
    {
      "anonymous": false,
      "inputs": [
        {
          "indexed": false,
          "internalType": "address",
          "name": "account",
          "type": "address"
        }
      ],
      "name": "Unpaused",
      "type": "event"
    },
    {
      "stateMutability": "nonpayable",
      "type": "fallback"
    },
    {
      "inputs": [],
      "name": "DEFAULT_ADMIN_ROLE",
      "outputs": [
        {
          "internalType": "bytes32",
          "name": "",
          "type": "bytes32"
        }
      ],
      "stateMutability": "view",
      "type": "function",
      "constant": true
    },
    {
      "inputs": [],
      "name": "PAUSER_ROLE",
      "outputs": [
        {
          "internalType": "bytes32",
          "name": "",
          "type": "bytes32"
        }
      ],
      "stateMutability": "view",
      "type": "function",
      "constant": true
    },
    {
      "inputs": [],
      "name": "TEMPLATER_ROLE",
      "outputs": [
        {
          "internalType": "bytes32",
          "name": "",
          "type": "bytes32"
        }
      ],
      "stateMutability": "view",
      "type": "function",
      "constant": true
    },
    {
      "inputs": [
        {
          "internalType": "address",
          "name": "guy",
          "type": "address"
        }
      ],
      "name": "addTemplater",
      "outputs": [
        {
          "internalType": "bool",
          "name": "",
          "type": "bool"
        }
      ],
      "stateMutability": "nonpayable",
      "type": "function"
    },
    {
      "inputs": [
        {
          "internalType": "address",
          "name": "to",
          "type": "address"
        },
        {
          "internalType": "uint256",
          "name": "tokenId",
          "type": "uint256"
        }
      ],
      "name": "approve",
      "outputs": [],
      "stateMutability": "nonpayable",
      "type": "function"
    },
    {
      "inputs": [
        {
          "internalType": "address",
          "name": "owner",
          "type": "address"
        }
      ],
      "name": "balanceOf",
      "outputs": [
        {
          "internalType": "uint256",
          "name": "",
          "type": "uint256"
        }
      ],
      "stateMutability": "view",
      "type": "function",
      "constant": true
    },
    {
      "inputs": [],
      "name": "baseURI",
      "outputs": [
        {
          "internalType": "string",
          "name": "",
          "type": "string"
        }
      ],
      "stateMutability": "view",
      "type": "function",
      "constant": true
    },
    {
      "inputs": [
        {
          "internalType": "uint256",
          "name": "tokenId",
          "type": "uint256"
        }
      ],
      "name": "getApproved",
      "outputs": [
        {
          "internalType": "address",
          "name": "",
          "type": "address"
        }
      ],
      "stateMutability": "view",
      "type": "function",
      "constant": true
    },
    {
      "inputs": [
        {
          "internalType": "bytes32",
          "name": "role",
          "type": "bytes32"
        }
      ],
      "name": "getRoleAdmin",
      "outputs": [
        {
          "internalType": "bytes32",
          "name": "",
          "type": "bytes32"
        }
      ],
      "stateMutability": "view",
      "type": "function",
      "constant": true
    },
    {
      "inputs": [
        {
          "internalType": "bytes32",
          "name": "role",
          "type": "bytes32"
        },
        {
          "internalType": "uint256",
          "name": "index",
          "type": "uint256"
        }
      ],
      "name": "getRoleMember",
      "outputs": [
        {
          "internalType": "address",
          "name": "",
          "type": "address"
        }
      ],
      "stateMutability": "view",
      "type": "function",
      "constant": true
    },
    {
      "inputs": [
        {
          "internalType": "bytes32",
          "name": "role",
          "type": "bytes32"
        }
      ],
      "name": "getRoleMemberCount",
      "outputs": [
        {
          "internalType": "uint256",
          "name": "",
          "type": "uint256"
        }
      ],
      "stateMutability": "view",
      "type": "function",
      "constant": true
    },
    {
      "inputs": [],
      "name": "getTrustedForwarder",
      "outputs": [
        {
          "internalType": "address",
          "name": "",
          "type": "address"
        }
      ],
      "stateMutability": "view",
      "type": "function",
      "constant": true
    },
    {
      "inputs": [
        {
          "internalType": "bytes32",
          "name": "role",
          "type": "bytes32"
        },
        {
          "internalType": "address",
          "name": "account",
          "type": "address"
        }
      ],
      "name": "grantRole",
      "outputs": [],
      "stateMutability": "nonpayable",
      "type": "function"
    },
    {
      "inputs": [
        {
          "internalType": "bytes32",
          "name": "role",
          "type": "bytes32"
        },
        {
          "internalType": "address",
          "name": "account",
          "type": "address"
        }
      ],
      "name": "hasRole",
      "outputs": [
        {
          "internalType": "bool",
          "name": "",
          "type": "bool"
        }
      ],
      "stateMutability": "view",
      "type": "function",
      "constant": true
    },
    {
      "inputs": [
        {
          "internalType": "address",
          "name": "owner",
          "type": "address"
        },
        {
          "internalType": "address",
          "name": "operator",
          "type": "address"
        }
      ],
      "name": "isApprovedForAll",
      "outputs": [
        {
          "internalType": "bool",
          "name": "",
          "type": "bool"
        }
      ],
      "stateMutability": "view",
      "type": "function",
      "constant": true
    },
    {
      "inputs": [
        {
          "internalType": "address",
          "name": "forwarder",
          "type": "address"
        }
      ],
      "name": "isTrustedForwarder",
      "outputs": [
        {
          "internalType": "bool",
          "name": "",
          "type": "bool"
        }
      ],
      "stateMutability": "view",
      "type": "function",
      "constant": true
    },
    {
      "inputs": [],
      "name": "name",
      "outputs": [
        {
          "internalType": "string",
          "name": "",
          "type": "string"
        }
      ],
      "stateMutability": "view",
      "type": "function",
      "constant": true
    },
    {
      "inputs": [],
      "name": "owner",
      "outputs": [
        {
          "internalType": "address",
          "name": "",
          "type": "address"
        }
      ],
      "stateMutability": "view",
      "type": "function",
      "constant": true
    },
    {
      "inputs": [
        {
          "internalType": "uint256",
          "name": "tokenId",
          "type": "uint256"
        }
      ],
      "name": "ownerOf",
      "outputs": [
        {
          "internalType": "address",
          "name": "",
          "type": "address"
        }
      ],
      "stateMutability": "view",
      "type": "function",
      "constant": true
    },
    {
      "inputs": [],
      "name": "pause",
      "outputs": [],
      "stateMutability": "nonpayable",
      "type": "function"
    },
    {
      "inputs": [],
      "name": "paused",
      "outputs": [
        {
          "internalType": "bool",
          "name": "",
          "type": "bool"
        }
      ],
      "stateMutability": "view",
      "type": "function",
      "constant": true
    },
    {
      "inputs": [
        {
          "internalType": "uint256",
          "name": "",
          "type": "uint256"
        },
        {
          "internalType": "address",
          "name": "",
          "type": "address"
        }
      ],
      "name": "redeemed",
      "outputs": [
        {
          "internalType": "uint256",
          "name": "",
          "type": "uint256"
        }
      ],
      "stateMutability": "view",
      "type": "function",
      "constant": true
    },
    {
      "inputs": [
        {
          "internalType": "address",
          "name": "guy",
          "type": "address"
        }
      ],
      "name": "removeTemplater",
      "outputs": [
        {
          "internalType": "bool",
          "name": "",
          "type": "bool"
        }
      ],
      "stateMutability": "nonpayable",
      "type": "function"
    },
    {
      "inputs": [],
      "name": "renounceOwnership",
      "outputs": [],
      "stateMutability": "nonpayable",
      "type": "function"
    },
    {
      "inputs": [
        {
          "internalType": "bytes32",
          "name": "role",
          "type": "bytes32"
        },
        {
          "internalType": "address",
          "name": "account",
          "type": "address"
        }
      ],
      "name": "renounceRole",
      "outputs": [],
      "stateMutability": "nonpayable",
      "type": "function"
    },
    {
      "inputs": [
        {
          "internalType": "bytes32",
          "name": "role",
          "type": "bytes32"
        },
        {
          "internalType": "address",
          "name": "account",
          "type": "address"
        }
      ],
      "name": "revokeRole",
      "outputs": [],
      "stateMutability": "nonpayable",
      "type": "function"
    },
    {
      "inputs": [
        {
          "internalType": "address",
          "name": "from",
          "type": "address"
        },
        {
          "internalType": "address",
          "name": "to",
          "type": "address"
        },
        {
          "internalType": "uint256",
          "name": "tokenId",
          "type": "uint256"
        }
      ],
      "name": "safeTransferFrom",
      "outputs": [],
      "stateMutability": "nonpayable",
      "type": "function"
    },
    {
      "inputs": [
        {
          "internalType": "address",
          "name": "from",
          "type": "address"
        },
        {
          "internalType": "address",
          "name": "to",
          "type": "address"
        },
        {
          "internalType": "uint256",
          "name": "tokenId",
          "type": "uint256"
        },
        {
          "internalType": "bytes",
          "name": "_data",
          "type": "bytes"
        }
      ],
      "name": "safeTransferFrom",
      "outputs": [],
      "stateMutability": "nonpayable",
      "type": "function"
    },
    {
      "inputs": [
        {
          "internalType": "address",
          "name": "operator",
          "type": "address"
        },
        {
          "internalType": "bool",
          "name": "approved",
          "type": "bool"
        }
      ],
      "name": "setApprovalForAll",
      "outputs": [],
      "stateMutability": "nonpayable",
      "type": "function"
    },
    {
      "inputs": [
        {
          "internalType": "bytes4",
          "name": "interfaceId",
          "type": "bytes4"
        }
      ],
      "name": "supportsInterface",
      "outputs": [
        {
          "internalType": "bool",
          "name": "",
          "type": "bool"
        }
      ],
      "stateMutability": "view",
      "type": "function",
      "constant": true
    },
    {
      "inputs": [],
      "name": "symbol",
      "outputs": [
        {
          "internalType": "string",
          "name": "",
          "type": "string"
        }
      ],
      "stateMutability": "view",
      "type": "function",
      "constant": true
    },
    {
      "inputs": [
        {
          "internalType": "uint256",
          "name": "index",
          "type": "uint256"
        }
      ],
      "name": "tokenByIndex",
      "outputs": [
        {
          "internalType": "uint256",
          "name": "",
          "type": "uint256"
        }
      ],
      "stateMutability": "view",
      "type": "function",
      "constant": true
    },
    {
      "inputs": [
        {
          "internalType": "address",
          "name": "owner",
          "type": "address"
        },
        {
          "internalType": "uint256",
          "name": "index",
          "type": "uint256"
        }
      ],
      "name": "tokenOfOwnerByIndex",
      "outputs": [
        {
          "internalType": "uint256",
          "name": "",
          "type": "uint256"
        }
      ],
      "stateMutability": "view",
      "type": "function",
      "constant": true
    },
    {
      "inputs": [
        {
          "internalType": "uint256",
          "name": "tokenId",
          "type": "uint256"
        }
      ],
      "name": "tokenURI",
      "outputs": [
        {
          "internalType": "string",
          "name": "",
          "type": "string"
        }
      ],
      "stateMutability": "view",
      "type": "function",
      "constant": true
    },
    {
      "inputs": [],
      "name": "totalSupply",
      "outputs": [
        {
          "internalType": "uint256",
          "name": "",
          "type": "uint256"
        }
      ],
      "stateMutability": "view",
      "type": "function",
      "constant": true
    },
    {
      "inputs": [
        {
          "internalType": "address",
          "name": "from",
          "type": "address"
        },
        {
          "internalType": "address",
          "name": "to",
          "type": "address"
        },
        {
          "internalType": "uint256",
          "name": "tokenId",
          "type": "uint256"
        }
      ],
      "name": "transferFrom",
      "outputs": [],
      "stateMutability": "nonpayable",
      "type": "function"
    },
    {
      "inputs": [
        {
          "internalType": "address",
          "name": "newOwner",
          "type": "address"
        }
      ],
      "name": "transferOwnership",
      "outputs": [],
      "stateMutability": "nonpayable",
      "type": "function"
    },
    {
      "inputs": [],
      "name": "trustedForwarder",
      "outputs": [
        {
          "internalType": "address",
          "name": "",
          "type": "address"
        }
      ],
      "stateMutability": "view",
      "type": "function",
      "constant": true
    },
    {
      "inputs": [],
      "name": "unpause",
      "outputs": [],
      "stateMutability": "nonpayable",
      "type": "function"
    },
    {
      "inputs": [],
      "name": "versionRecipient",
      "outputs": [
        {
          "internalType": "string",
          "name": "",
          "type": "string"
        }
      ],
      "stateMutability": "view",
      "type": "function",
      "constant": true
    },
    {
      "inputs": [
        {
          "internalType": "string",
          "name": "baseURI",
          "type": "string"
        }
      ],
      "name": "setBaseURI",
      "outputs": [
        {
          "internalType": "bool",
          "name": "",
          "type": "bool"
        }
      ],
      "stateMutability": "nonpayable",
      "type": "function"
    },
    {
      "inputs": [
        {
          "internalType": "string",
          "name": "name",
          "type": "string"
        },
        {
          "internalType": "string",
          "name": "description",
          "type": "string"
        },
        {
          "internalType": "string",
          "name": "image",
          "type": "string"
        }
      ],
      "name": "createTemplate",
      "outputs": [
        {
          "internalType": "bool",
          "name": "",
          "type": "bool"
        }
      ],
      "stateMutability": "nonpayable",
      "type": "function"
    },
    {
      "inputs": [
        {
          "internalType": "uint256",
          "name": "templateId",
          "type": "uint256"
        },
        {
          "internalType": "string",
          "name": "name",
          "type": "string"
        },
        {
          "internalType": "string",
          "name": "description",
          "type": "string"
        },
        {
          "internalType": "string",
          "name": "image",
          "type": "string"
        }
      ],
      "name": "updateTemplate",
      "outputs": [
        {
          "internalType": "bool",
          "name": "",
          "type": "bool"
        }
      ],
      "stateMutability": "nonpayable",
      "type": "function"
    },
    {
      "inputs": [
        {
          "internalType": "uint256",
          "name": "templateId",
          "type": "uint256"
        }
      ],
      "name": "getTemplate",
      "outputs": [
        {
          "internalType": "string",
          "name": "name",
          "type": "string"
        },
        {
          "internalType": "string",
          "name": "description",
          "type": "string"
        },
        {
          "internalType": "string",
          "name": "image",
          "type": "string"
        }
      ],
      "stateMutability": "view",
      "type": "function",
      "constant": true
    },
    {
      "inputs": [],
      "name": "getTemplatesCount",
      "outputs": [
        {
          "internalType": "uint256",
          "name": "count",
          "type": "uint256"
        }
      ],
      "stateMutability": "view",
      "type": "function",
      "constant": true
    },
    {
      "inputs": [
        {
          "internalType": "bytes32[]",
          "name": "proof",
          "type": "bytes32[]"
        },
        {
          "internalType": "uint256",
          "name": "templateId",
          "type": "uint256"
        },
        {
          "internalType": "string",
          "name": "tokenURI",
          "type": "string"
        }
      ],
      "name": "activateBadge",
      "outputs": [
        {
          "internalType": "bool",
          "name": "",
          "type": "bool"
        }
      ],
      "stateMutability": "nonpayable",
      "type": "function"
    },
    {
      "inputs": [
        {
          "internalType": "uint256",
          "name": "tokenId",
          "type": "uint256"
        }
      ],
      "name": "getBadgeTemplate",
      "outputs": [
        {
          "internalType": "uint256",
          "name": "",
          "type": "uint256"
        }
      ],
      "stateMutability": "view",
      "type": "function",
      "constant": true
    },
    {
      "inputs": [
        {
          "internalType": "uint256",
          "name": "templateId",
          "type": "uint256"
        }
      ],
      "name": "getBadgeTemplateQuantity",
      "outputs": [
        {
          "internalType": "uint256",
          "name": "",
          "type": "uint256"
        }
      ],
      "stateMutability": "view",
      "type": "function",
      "constant": true
    }
  ],
  "bytecode": "0x60a06040523480156200001157600080fd5b506040516200668638038062006686833981810160405260408110156200003757600080fd5b8101908080519060200190929190805190602001909291905050506040518060400160405280600b81526020017f4d616b65724261646765730000000000000000000000000000000000000000008152506040518060400160405280600581526020017f4d414b4552000000000000000000000000000000000000000000000000000000815250836000620000d16200036f60201b60201c565b9050806000806101000a81548173ffffffffffffffffffffffffffffffffffffffff021916908373ffffffffffffffffffffffffffffffffffffffff1602179055508073ffffffffffffffffffffffffffffffffffffffff16600073ffffffffffffffffffffffffffffffffffffffff167f8be0079c531659141344cd1fd0a4f28419497f9722a3daafe3b4186f6b6457e060405160405180910390a3506000600260006101000a81548160ff021916908315150217905550620001ae6000801b620001a26200038b60201b60201c565b620003b460201b60201c565b620001ef7f82fc59a2af283c7e52e3f7cf8d269383062c6603a1ab4300e32135abe128a476620001e36200038b60201b60201c565b620003b460201b60201c565b620002307f65d7a28e3265b37a6474929f336521b332c1681b933f6cb9f3376673440d862a620002246200038b60201b60201c565b620003b460201b60201c565b80600260016101000a81548173ffffffffffffffffffffffffffffffffffffffff021916908373ffffffffffffffffffffffffffffffffffffffff160217905550506200028a6301ffc9a760e01b620003ca60201b60201c565b8160099080519060200190620002a29291906200070b565b5080600a9080519060200190620002bb9291906200070b565b50620002d46380ac58cd60e01b620003ca60201b60201c565b620002ec635b5e139f60e01b620003ca60201b60201c565b6200030463780e9d6360e01b620003ca60201b60201c565b5050620003306040518060600160405280602281526020016200666460229139620004d460201b60201c565b8073ffffffffffffffffffffffffffffffffffffffff1660808173ffffffffffffffffffffffffffffffffffffffff1660601b815250505050620007b1565b600062000386620004f060201b62003ead1760201c565b905090565b60008060009054906101000a900473ffffffffffffffffffffffffffffffffffffffff16905090565b620003c682826200053860201b60201c565b5050565b63ffffffff60e01b817bffffffffffffffffffffffffffffffffffffffffffffffffffffffff1916141562000467576040517f08c379a000000000000000000000000000000000000000000000000000000000815260040180806020018281038252601c8152602001807f4552433136353a20696e76616c696420696e746572666163652069640000000081525060200191505060405180910390fd5b600160036000837bffffffffffffffffffffffffffffffffffffffffffffffffffffffff19167bffffffffffffffffffffffffffffffffffffffffffffffffffffffff1916815260200190815260200160002060006101000a81548160ff02191690831515021790555050565b80600c9080519060200190620004ec9291906200070b565b5050565b600060186000369050101580156200051557506200051433620005dc60201b60201c565b5b156200052b57601436033560601c905062000534565b33905062000535565b5b90565b6200056781600160008581526020019081526020016000206000016200063660201b62003ee91790919060201c565b15620005d8576200057d6200036f60201b60201c565b73ffffffffffffffffffffffffffffffffffffffff168173ffffffffffffffffffffffffffffffffffffffff16837f2f8788117e7eff1d82e926ec794901d17c78024a50270940304540a733656f0d60405160405180910390a45b5050565b6000600260019054906101000a900473ffffffffffffffffffffffffffffffffffffffff1673ffffffffffffffffffffffffffffffffffffffff168273ffffffffffffffffffffffffffffffffffffffff16149050919050565b600062000666836000018373ffffffffffffffffffffffffffffffffffffffff1660001b6200066e60201b60201c565b905092915050565b6000620006828383620006e860201b60201c565b620006dd578260000182908060018154018082558091505060019003906000526020600020016000909190919091505582600001805490508360010160008481526020019081526020016000208190555060019050620006e2565b600090505b92915050565b600080836001016000848152602001908152602001600020541415905092915050565b828054600181600116156101000203166002900490600052602060002090601f016020900481019282601f106200074e57805160ff19168380011785556200077f565b828001600101855582156200077f579182015b828111156200077e57825182559160200191906001019062000761565b5b5090506200078e919062000792565b5090565b5b80821115620007ad57600081600090555060010162000793565b5090565b60805160601c615e90620007d4600039806135f352806136cd5250615e906000f3fe608060405234801561001057600080fd5b50600436106102a45760003560e01c80636cdd0a1611610167578063b88d4fde116100ce578063d4c10e4611610087578063d4c10e4614611347578063d547741f14611435578063e63ab1e914611483578063e6c0d714146114a1578063e985e9c5146114fb578063f2fde38b14611575576102a5565b8063b88d4fde14610ea9578063c87b56dd14610fae578063ca15c87314611055578063ccb4bcb614611097578063ce1b815f146111d0578063d214f40014611204576102a5565b80639010d07c116101205780639010d07c14610cd457806391d1485414610d3657806395d89b4114610d9a578063a217fddf14610e1d578063a22cb46514610e3b578063b5900eea14610e8b576102a5565b80636cdd0a1614610be257806370a0823114610c00578063715018a614610c585780637da0a87714610c625780638456cb5914610c965780638da5cb5b14610ca0576102a5565b80633f4ba83a1161020b57806355f804b3116101c457806355f804b31461099c578063572b6c0514610a2b5780635c975abb14610a855780635ddb084514610aa55780636352211e14610b075780636c0360eb14610b5f576102a5565b80633f4ba83a146107c357806342842e0e146107cd578063486ff0cd1461083b5780634ba360ba146108be5780634de46fd0146109185780634f6ccce71461095a576102a5565b806323b872dd1161025d57806323b872dd14610496578063248a9ca3146105045780632f2ff15d146105465780632f745c591461059457806331543cf4146105f657806336568abe14610775576102a5565b806301ffc9a7146102aa57806304523af11461030d57806306fdde031461034f578063081812fc146103d2578063095ea7b31461042a57806318160ddd14610478576102a5565b5b600080fd5b6102f5600480360360208110156102c057600080fd5b8101908080357bffffffffffffffffffffffffffffffffffffffffffffffffffffffff191690602001909291905050506115b9565b60405180821515815260200191505060405180910390f35b6103396004803603602081101561032357600080fd5b8101908080359060200190929190505050611621565b6040518082815260200191505060405180910390f35b610357611722565b6040518080602001828103825283818151815260200191508051906020019080838360005b8381101561039757808201518184015260208101905061037c565b50505050905090810190601f1680156103c45780820380516001836020036101000a031916815260200191505b509250505060405180910390f35b6103fe600480360360208110156103e857600080fd5b81019080803590602001909291905050506117c4565b604051808273ffffffffffffffffffffffffffffffffffffffff16815260200191505060405180910390f35b6104766004803603604081101561044057600080fd5b81019080803573ffffffffffffffffffffffffffffffffffffffff1690602001909291908035906020019092919050505061185f565b005b6104806119a3565b6040518082815260200191505060405180910390f35b610502600480360360608110156104ac57600080fd5b81019080803573ffffffffffffffffffffffffffffffffffffffff169060200190929190803573ffffffffffffffffffffffffffffffffffffffff169060200190929190803590602001909291905050506119b4565b005b6105306004803603602081101561051a57600080fd5b8101908080359060200190929190505050611a2a565b6040518082815260200191505060405180910390f35b6105926004803603604081101561055c57600080fd5b8101908080359060200190929190803573ffffffffffffffffffffffffffffffffffffffff169060200190929190505050611a4a565b005b6105e0600480360360408110156105aa57600080fd5b81019080803573ffffffffffffffffffffffffffffffffffffffff16906020019092919080359060200190929190505050611ad4565b6040518082815260200191505060405180910390f35b6106226004803603602081101561060c57600080fd5b8101908080359060200190929190505050611b2f565b60405180806020018060200180602001848103845287818151815260200191508051906020019080838360005b8381101561066a57808201518184015260208101905061064f565b50505050905090810190601f1680156106975780820380516001836020036101000a031916815260200191505b50848103835286818151815260200191508051906020019080838360005b838110156106d05780820151818401526020810190506106b5565b50505050905090810190601f1680156106fd5780820380516001836020036101000a031916815260200191505b50848103825285818151815260200191508051906020019080838360005b8381101561073657808201518184015260208101905061071b565b50505050905090810190601f1680156107635780820380516001836020036101000a031916815260200191505b50965050505050505060405180910390f35b6107c16004803603604081101561078b57600080fd5b8101908080359060200190929190803573ffffffffffffffffffffffffffffffffffffffff169060200190929190505050611e3b565b005b6107cb611ed4565b005b610839600480360360608110156107e357600080fd5b81019080803573ffffffffffffffffffffffffffffffffffffffff169060200190929190803573ffffffffffffffffffffffffffffffffffffffff16906020019092919080359060200190929190505050611f64565b005b610843611f84565b6040518080602001828103825283818151815260200191508051906020019080838360005b83811015610883578082015181840152602081019050610868565b50505050905090810190601f1680156108b05780820380516001836020036101000a031916815260200191505b509250505060405180910390f35b610900600480360360208110156108d457600080fd5b81019080803573ffffffffffffffffffffffffffffffffffffffff169060200190929190505050611fc1565b60405180821515815260200191505060405180910390f35b6109446004803603602081101561092e57600080fd5b81019080803590602001909291905050506120de565b6040518082815260200191505060405180910390f35b6109866004803603602081101561097057600080fd5b81019080803590602001909291905050506121dc565b6040518082815260200191505060405180910390f35b610a13600480360360208110156109b257600080fd5b81019080803590602001906401000000008111156109cf57600080fd5b8201836020820111156109e157600080fd5b80359060200191846001830284011164010000000083111715610a0357600080fd5b90919293919293905050506121ff565b60405180821515815260200191505060405180910390f35b610a6d60048036036020811015610a4157600080fd5b81019080803573ffffffffffffffffffffffffffffffffffffffff169060200190929190505050612320565b60405180821515815260200191505060405180910390f35b610a8d61237a565b60405180821515815260200191505060405180910390f35b610af160048036036040811015610abb57600080fd5b8101908080359060200190929190803573ffffffffffffffffffffffffffffffffffffffff169060200190929190505050612391565b6040518082815260200191505060405180910390f35b610b3360048036036020811015610b1d57600080fd5b81019080803590602001909291905050506123b6565b604051808273ffffffffffffffffffffffffffffffffffffffff16815260200191505060405180910390f35b610b676123ed565b6040518080602001828103825283818151815260200191508051906020019080838360005b83811015610ba7578082015181840152602081019050610b8c565b50505050905090810190601f168015610bd45780820380516001836020036101000a031916815260200191505b509250505060405180910390f35b610bea61248f565b6040518082815260200191505060405180910390f35b610c4260048036036020811015610c1657600080fd5b81019080803573ffffffffffffffffffffffffffffffffffffffff1690602001909291905050506124b3565b6040518082815260200191505060405180910390f35b610c60612588565b005b610c6a61270e565b604051808273ffffffffffffffffffffffffffffffffffffffff16815260200191505060405180910390f35b610c9e612734565b005b610ca86127c4565b604051808273ffffffffffffffffffffffffffffffffffffffff16815260200191505060405180910390f35b610d0a60048036036040811015610cea57600080fd5b8101908080359060200190929190803590602001909291905050506127ed565b604051808273ffffffffffffffffffffffffffffffffffffffff16815260200191505060405180910390f35b610d8260048036036040811015610d4c57600080fd5b8101908080359060200190929190803573ffffffffffffffffffffffffffffffffffffffff16906020019092919050505061281f565b60405180821515815260200191505060405180910390f35b610da2612851565b6040518080602001828103825283818151815260200191508051906020019080838360005b83811015610de2578082015181840152602081019050610dc7565b50505050905090810190601f168015610e0f5780820380516001836020036101000a031916815260200191505b509250505060405180910390f35b610e256128f3565b6040518082815260200191505060405180910390f35b610e8960048036036040811015610e5157600080fd5b81019080803573ffffffffffffffffffffffffffffffffffffffff1690602001909291908035151590602001909291905050506128fa565b005b610e93612ab0565b6040518082815260200191505060405180910390f35b610fac60048036036080811015610ebf57600080fd5b81019080803573ffffffffffffffffffffffffffffffffffffffff169060200190929190803573ffffffffffffffffffffffffffffffffffffffff1690602001909291908035906020019092919080359060200190640100000000811115610f2657600080fd5b820183602082011115610f3857600080fd5b80359060200191846001830284011164010000000083111715610f5a57600080fd5b91908080601f016020809104026020016040519081016040528093929190818152602001838380828437600081840152601f19601f820116905080830192505050505050509192919290505050612b44565b005b610fda60048036036020811015610fc457600080fd5b8101908080359060200190929190505050612bbc565b6040518080602001828103825283818151815260200191508051906020019080838360005b8381101561101a578082015181840152602081019050610fff565b50505050905090810190601f1680156110475780820380516001836020036101000a031916815260200191505b509250505060405180910390f35b6110816004803603602081101561106b57600080fd5b8101908080359060200190929190505050612ea5565b6040518082815260200191505060405180910390f35b6111b8600480360360608110156110ad57600080fd5b81019080803590602001906401000000008111156110ca57600080fd5b8201836020820111156110dc57600080fd5b803590602001918460018302840111640100000000831117156110fe57600080fd5b90919293919293908035906020019064010000000081111561111f57600080fd5b82018360208201111561113157600080fd5b8035906020019184600183028401116401000000008311171561115357600080fd5b90919293919293908035906020019064010000000081111561117457600080fd5b82018360208201111561118657600080fd5b803590602001918460018302840111640100000000831117156111a857600080fd5b9091929391929390505050612ecc565b60405180821515815260200191505060405180910390f35b6111d8613171565b604051808273ffffffffffffffffffffffffffffffffffffffff16815260200191505060405180910390f35b61132f6004803603608081101561121a57600080fd5b81019080803590602001909291908035906020019064010000000081111561124157600080fd5b82018360208201111561125357600080fd5b8035906020019184600183028401116401000000008311171561127557600080fd5b90919293919293908035906020019064010000000081111561129657600080fd5b8201836020820111156112a857600080fd5b803590602001918460018302840111640100000000831117156112ca57600080fd5b9091929391929390803590602001906401000000008111156112eb57600080fd5b8201836020820111156112fd57600080fd5b8035906020019184600183028401116401000000008311171561131f57600080fd5b909192939192939050505061319b565b60405180821515815260200191505060405180910390f35b61141d6004803603606081101561135d57600080fd5b810190808035906020019064010000000081111561137a57600080fd5b82018360208201111561138c57600080fd5b803590602001918460208302840111640100000000831117156113ae57600080fd5b909192939192939080359060200190929190803590602001906401000000008111156113d957600080fd5b8201836020820111156113eb57600080fd5b8035906020019184600183028401116401000000008311171561140d57600080fd5b909192939192939050505061345b565b60405180821515815260200191505060405180910390f35b6114816004803603604081101561144b57600080fd5b8101908080359060200190929190803573ffffffffffffffffffffffffffffffffffffffff169060200190929190505050613a42565b005b61148b613acc565b6040518082815260200191505060405180910390f35b6114e3600480360360208110156114b757600080fd5b81019080803573ffffffffffffffffffffffffffffffffffffffff169060200190929190505050613af0565b60405180821515815260200191505060405180910390f35b61155d6004803603604081101561151157600080fd5b81019080803573ffffffffffffffffffffffffffffffffffffffff169060200190929190803573ffffffffffffffffffffffffffffffffffffffff169060200190929190505050613c0e565b60405180821515815260200191505060405180910390f35b6115b76004803603602081101561158b57600080fd5b81019080803573ffffffffffffffffffffffffffffffffffffffff169060200190929190505050613ca2565b005b600060036000837bffffffffffffffffffffffffffffffffffffffffffffffffffffffff19167bffffffffffffffffffffffffffffffffffffffffffffffffffffffff1916815260200190815260200160002060009054906101000a900460ff169050919050565b6000600260009054906101000a900460ff16156116a6576040517f08c379a00000000000000000000000000000000000000000000000000000000081526004018080602001828103825260108152602001807f5061757361626c653a207061757365640000000000000000000000000000000081525060200191505060405180910390fd5b816116b1600d613f19565b11611707576040517f08c379a0000000000000000000000000000000000000000000000000000000008152600401808060200182810382526026815260200180615a6f6026913960400191505060405180910390fd5b60106000838152602001908152602001600020549050919050565b606060098054600181600116156101000203166002900480601f0160208091040260200160405190810160405280929190818152602001828054600181600116156101000203166002900480156117ba5780601f1061178f576101008083540402835291602001916117ba565b820191906000526020600020905b81548152906001019060200180831161179d57829003601f168201915b5050505050905090565b60006117cf82613f27565b611824576040517f08c379a000000000000000000000000000000000000000000000000000000000815260040180806020018281038252602c815260200180615c8b602c913960400191505060405180910390fd5b6007600083815260200190815260200160002060009054906101000a900473ffffffffffffffffffffffffffffffffffffffff169050919050565b600061186a826123b6565b90508073ffffffffffffffffffffffffffffffffffffffff168373ffffffffffffffffffffffffffffffffffffffff1614156118f1576040517f08c379a0000000000000000000000000000000000000000000000000000000008152600401808060200182810382526021815260200180615dae6021913960400191505060405180910390fd5b8073ffffffffffffffffffffffffffffffffffffffff16611910613f44565b73ffffffffffffffffffffffffffffffffffffffff16148061193f575061193e81611939613f44565b613c0e565b5b611994576040517f08c379a0000000000000000000000000000000000000000000000000000000008152600401808060200182810382526038815260200180615bb66038913960400191505060405180910390fd5b61199e8383613f53565b505050565b60006119af600561400c565b905090565b6119c56119bf613f44565b82614021565b611a1a576040517f08c379a0000000000000000000000000000000000000000000000000000000008152600401808060200182810382526031815260200180615dfb6031913960400191505060405180910390fd5b611a25838383614115565b505050565b600060016000838152602001908152602001600020600201549050919050565b611a716001600084815260200190815260200160002060020154611a6c613f44565b61281f565b611ac6576040517f08c379a000000000000000000000000000000000000000000000000000000000815260040180806020018281038252602f8152602001806159c6602f913960400191505060405180910390fd5b611ad0828261417c565b5050565b6000611b2782600460008673ffffffffffffffffffffffffffffffffffffffff1673ffffffffffffffffffffffffffffffffffffffff16815260200190815260200160002061421090919063ffffffff16565b905092915050565b6060806060600260009054906101000a900460ff1615611bb7576040517f08c379a00000000000000000000000000000000000000000000000000000000081526004018080602001828103825260108152602001807f5061757361626c653a207061757365640000000000000000000000000000000081525060200191505060405180910390fd5b83611bc2600d613f19565b11611c18576040517f08c379a0000000000000000000000000000000000000000000000000000000008152600401808060200182810382526026815260200180615a6f6026913960400191505060405180910390fd5b600f6000858152602001908152602001600020600001600f6000868152602001908152602001600020600101600f6000878152602001908152602001600020600201828054600181600116156101000203166002900480601f016020809104026020016040519081016040528092919081815260200182805460018160011615610100020316600290048015611cef5780601f10611cc457610100808354040283529160200191611cef565b820191906000526020600020905b815481529060010190602001808311611cd257829003601f168201915b50505050509250818054600181600116156101000203166002900480601f016020809104026020016040519081016040528092919081815260200182805460018160011615610100020316600290048015611d8b5780601f10611d6057610100808354040283529160200191611d8b565b820191906000526020600020905b815481529060010190602001808311611d6e57829003601f168201915b50505050509150808054600181600116156101000203166002900480601f016020809104026020016040519081016040528092919081815260200182805460018160011615610100020316600290048015611e275780601f10611dfc57610100808354040283529160200191611e27565b820191906000526020600020905b815481529060010190602001808311611e0a57829003601f168201915b505050505090509250925092509193909250565b611e43613f44565b73ffffffffffffffffffffffffffffffffffffffff168173ffffffffffffffffffffffffffffffffffffffff1614611ec6576040517f08c379a000000000000000000000000000000000000000000000000000000000815260040180806020018281038252602f815260200180615e2c602f913960400191505060405180910390fd5b611ed0828261422a565b5050565b611f057f65d7a28e3265b37a6474929f336521b332c1681b933f6cb9f3376673440d862a611f00613f44565b61281f565b611f5a576040517f08c379a000000000000000000000000000000000000000000000000000000000815260040180806020018281038252602e8152602001806159f5602e913960400191505060405180910390fd5b611f626142be565b565b611f7f83838360405180602001604052806000815250612b44565b505050565b60606040518060400160405280600581526020017f302e362e30000000000000000000000000000000000000000000000000000000815250905090565b6000611fd76000801b611fd2613f44565b61281f565b61202c576040517f08c379a0000000000000000000000000000000000000000000000000000000008152600401808060200182810382526024815260200180615aed6024913960400191505060405180910390fd5b6120567f82fc59a2af283c7e52e3f7cf8d269383062c6603a1ab4300e32135abe128a4768361281f565b6120ab576040517f08c379a0000000000000000000000000000000000000000000000000000000008152600401808060200182810382526024815260200180615d8a6024913960400191505060405180910390fd5b6120d57f82fc59a2af283c7e52e3f7cf8d269383062c6603a1ab4300e32135abe128a47683613a42565b60019050919050565b6000600260009054906101000a900460ff1615612163576040517f08c379a00000000000000000000000000000000000000000000000000000000081526004018080602001828103825260108152602001807f5061757361626c653a207061757365640000000000000000000000000000000081525060200191505060405180910390fd5b61216c82613f27565b6121c1576040517f08c379a0000000000000000000000000000000000000000000000000000000008152600401808060200182810382526023815260200180615d0f6023913960400191505060405180910390fd5b60116000838152602001908152602001600020549050919050565b6000806121f38360056143b190919063ffffffff16565b50905080915050919050565b6000612209613f44565b73ffffffffffffffffffffffffffffffffffffffff1660008054906101000a900473ffffffffffffffffffffffffffffffffffffffff1673ffffffffffffffffffffffffffffffffffffffff16146122c9576040517f08c379a00000000000000000000000000000000000000000000000000000000081526004018080602001828103825260208152602001807f4f776e61626c653a2063616c6c6572206973206e6f7420746865206f776e657281525060200191505060405180910390fd5b61231683838080601f016020809104026020016040519081016040528093929190818152602001838380828437600081840152601f19601f820116905080830192505050505050506143dd565b6001905092915050565b6000600260019054906101000a900473ffffffffffffffffffffffffffffffffffffffff1673ffffffffffffffffffffffffffffffffffffffff168273ffffffffffffffffffffffffffffffffffffffff16149050919050565b6000600260009054906101000a900460ff16905090565b6012602052816000526040600020602052806000526040600020600091509150505481565b60006123e682604051806060016040528060298152602001615c186029913960056143f79092919063ffffffff16565b9050919050565b6060600c8054600181600116156101000203166002900480601f0160208091040260200160405190810160405280929190818152602001828054600181600116156101000203166002900480156124855780601f1061245a57610100808354040283529160200191612485565b820191906000526020600020905b81548152906001019060200180831161246857829003601f168201915b5050505050905090565b7f82fc59a2af283c7e52e3f7cf8d269383062c6603a1ab4300e32135abe128a47681565b60008073ffffffffffffffffffffffffffffffffffffffff168273ffffffffffffffffffffffffffffffffffffffff16141561253a576040517f08c379a000000000000000000000000000000000000000000000000000000000815260040180806020018281038252602a815260200180615bee602a913960400191505060405180910390fd5b612581600460008473ffffffffffffffffffffffffffffffffffffffff1673ffffffffffffffffffffffffffffffffffffffff168152602001908152602001600020614416565b9050919050565b612590613f44565b73ffffffffffffffffffffffffffffffffffffffff1660008054906101000a900473ffffffffffffffffffffffffffffffffffffffff1673ffffffffffffffffffffffffffffffffffffffff1614612650576040517f08c379a00000000000000000000000000000000000000000000000000000000081526004018080602001828103825260208152602001807f4f776e61626c653a2063616c6c6572206973206e6f7420746865206f776e657281525060200191505060405180910390fd5b600073ffffffffffffffffffffffffffffffffffffffff1660008054906101000a900473ffffffffffffffffffffffffffffffffffffffff1673ffffffffffffffffffffffffffffffffffffffff167f8be0079c531659141344cd1fd0a4f28419497f9722a3daafe3b4186f6b6457e060405160405180910390a360008060006101000a81548173ffffffffffffffffffffffffffffffffffffffff021916908373ffffffffffffffffffffffffffffffffffffffff160217905550565b600260019054906101000a900473ffffffffffffffffffffffffffffffffffffffff1681565b6127657f65d7a28e3265b37a6474929f336521b332c1681b933f6cb9f3376673440d862a612760613f44565b61281f565b6127ba576040517f08c379a000000000000000000000000000000000000000000000000000000000815260040180806020018281038252602c815260200180615ce3602c913960400191505060405180910390fd5b6127c261442b565b565b60008060009054906101000a900473ffffffffffffffffffffffffffffffffffffffff16905090565b6000612817826001600086815260200190815260200160002060000161451f90919063ffffffff16565b905092915050565b6000612849826001600086815260200190815260200160002060000161453990919063ffffffff16565b905092915050565b6060600a8054600181600116156101000203166002900480601f0160208091040260200160405190810160405280929190818152602001828054600181600116156101000203166002900480156128e95780601f106128be576101008083540402835291602001916128e9565b820191906000526020600020905b8154815290600101906020018083116128cc57829003601f168201915b5050505050905090565b6000801b81565b612902613f44565b73ffffffffffffffffffffffffffffffffffffffff168273ffffffffffffffffffffffffffffffffffffffff1614156129a3576040517f08c379a00000000000000000000000000000000000000000000000000000000081526004018080602001828103825260198152602001807f4552433732313a20617070726f766520746f2063616c6c65720000000000000081525060200191505060405180910390fd5b80600860006129b0613f44565b73ffffffffffffffffffffffffffffffffffffffff1673ffffffffffffffffffffffffffffffffffffffff16815260200190815260200160002060008473ffffffffffffffffffffffffffffffffffffffff1673ffffffffffffffffffffffffffffffffffffffff16815260200190815260200160002060006101000a81548160ff0219169083151502179055508173ffffffffffffffffffffffffffffffffffffffff16612a5d613f44565b73ffffffffffffffffffffffffffffffffffffffff167f17307eab39ab6107e8899845ad3d59bd9653f200f220920489ca2b5937696c318360405180821515815260200191505060405180910390a35050565b6000600260009054906101000a900460ff1615612b35576040517f08c379a00000000000000000000000000000000000000000000000000000000081526004018080602001828103825260108152602001807f5061757361626c653a207061757365640000000000000000000000000000000081525060200191505060405180910390fd5b612b3f600d613f19565b905090565b612b55612b4f613f44565b83614021565b612baa576040517f08c379a0000000000000000000000000000000000000000000000000000000008152600401808060200182810382526031815260200180615dfb6031913960400191505060405180910390fd5b612bb684848484614569565b50505050565b6060612bc782613f27565b612c1c576040517f08c379a000000000000000000000000000000000000000000000000000000000815260040180806020018281038252602f815260200180615d5b602f913960400191505060405180910390fd5b6060600b60008481526020019081526020016000208054600181600116156101000203166002900480601f016020809104026020016040519081016040528092919081815260200182805460018160011615610100020316600290048015612cc55780601f10612c9a57610100808354040283529160200191612cc5565b820191906000526020600020905b815481529060010190602001808311612ca857829003601f168201915b505050505090506000600c8054600181600116156101000203166002900490501415612cf45780915050612ea0565b600081511115612dcd57600c816040516020018083805460018160011615610100020316600290048015612d5f5780601f10612d3d576101008083540402835291820191612d5f565b820191906000526020600020905b815481529060010190602001808311612d4b575b505082805190602001908083835b60208310612d905780518252602082019150602081019050602083039250612d6d565b6001836020036101000a03801982511681845116808217855250505050505090500192505050604051602081830303815290604052915050612ea0565b600c612dd8846145db565b6040516020018083805460018160011615610100020316600290048015612e365780601f10612e14576101008083540402835291820191612e36565b820191906000526020600020905b815481529060010190602001808311612e22575b505082805190602001908083835b60208310612e675780518252602082019150602081019050602083039250612e44565b6001836020036101000a038019825116818451168082178552505050505050905001925050506040516020818303038152906040529150505b919050565b6000612ec560016000848152602001908152602001600020600001614722565b9050919050565b6000612eff7f82fc59a2af283c7e52e3f7cf8d269383062c6603a1ab4300e32135abe128a476612efa613f44565b61281f565b612f54576040517f08c379a000000000000000000000000000000000000000000000000000000000815260040180806020018281038252602c815260200180615dcf602c913960400191505060405180910390fd5b600260009054906101000a900460ff1615612fd7576040517f08c379a00000000000000000000000000000000000000000000000000000000081526004018080602001828103825260108152602001807f5061757361626c653a207061757365640000000000000000000000000000000081525060200191505060405180910390fd5b8686600f6000612fe7600d613f19565b81526020019081526020016000206000019190613005929190615886565b508484600f6000613016600d613f19565b81526020019081526020016000206001019190613034929190615886565b508282600f6000613045600d613f19565b81526020019081526020016000206002019190613063929190615886565b5061306e600d614737565b600061308d600161307f600d613f19565b61474d90919063ffffffff16565b90507f335347d3c0abbe88e13ee17ff9db9ff2aabea3e099f1ffd10807e9c7f9cf82ad818989898989896040518088815260200180602001806020018060200184810384528a8a82818152602001925080828437600081840152601f19601f8201169050808301925050508481038352888882818152602001925080828437600081840152601f19601f8201169050808301925050508481038252868682818152602001925080828437600081840152601f19601f8201169050808301925050509a505050505050505050505060405180910390a160019150509695505050505050565b6000600260019054906101000a900473ffffffffffffffffffffffffffffffffffffffff16905090565b60006131ce7f82fc59a2af283c7e52e3f7cf8d269383062c6603a1ab4300e32135abe128a4766131c9613f44565b61281f565b613223576040517f08c379a000000000000000000000000000000000000000000000000000000000815260040180806020018281038252602c815260200180615dcf602c913960400191505060405180910390fd5b600260009054906101000a900460ff16156132a6576040517f08c379a00000000000000000000000000000000000000000000000000000000081526004018080602001828103825260108152602001807f5061757361626c653a207061757365640000000000000000000000000000000081525060200191505060405180910390fd5b876132b1600d613f19565b11613307576040517f08c379a0000000000000000000000000000000000000000000000000000000008152600401808060200182810382526026815260200180615a6f6026913960400191505060405180910390fd5b8686600f60008b8152602001908152602001600020600001919061332c929190615886565b508484600f60008b81526020019081526020016000206001019190613352929190615886565b508282600f60008b81526020019081526020016000206002019190613378929190615886565b507fcfea559888b71c63137ce2f6354ae40661672d1ea2d56b2db88cdd200ff42b73888888888888886040518088815260200180602001806020018060200184810384528a8a82818152602001925080828437600081840152601f19601f8201169050808301925050508481038352888882818152602001925080828437600081840152601f19601f8201169050808301925050508481038252868682818152602001925080828437600081840152601f19601f8201169050808301925050509a505050505050505050505060405180910390a160019050979650505050505050565b6000600260009054906101000a900460ff16156134e0576040517f08c379a00000000000000000000000000000000000000000000000000000000081526004018080602001828103825260108152602001807f5061757361626c653a207061757365640000000000000000000000000000000081525060200191505060405180910390fd5b836134eb600d613f19565b11613541576040517f08c379a0000000000000000000000000000000000000000000000000000000008152600401808060200182810382526026815260200180615a6f6026913960400191505060405180910390fd5b6000601260008681526020019081526020016000206000613560613f44565b73ffffffffffffffffffffffffffffffffffffffff1673ffffffffffffffffffffffffffffffffffffffff16815260200190815260200160002054146135f1576040517f08c379a0000000000000000000000000000000000000000000000000000000008152600401808060200182810382526026815260200180615a496026913960400191505060405180910390fd5b7f000000000000000000000000000000000000000000000000000000000000000073ffffffffffffffffffffffffffffffffffffffff1663ebfa62b985613636613f44565b6040518363ffffffff1660e01b8152600401808381526020018273ffffffffffffffffffffffffffffffffffffffff1681526020019250505060206040518083038186803b15801561368757600080fd5b505afa15801561369b573d6000803e3d6000fd5b505050506040513d60208110156136b157600080fd5b810190808051906020019092919050505080613810575061380f7f000000000000000000000000000000000000000000000000000000000000000073ffffffffffffffffffffffffffffffffffffffff1663c2b40ae4866040518263ffffffff1660e01b81526004018082815260200191505060206040518083038186803b15801561373c57600080fd5b505afa158015613750573d6000803e3d6000fd5b505050506040513d602081101561376657600080fd5b810190808051906020019092919050505061377f613f44565b604051602001808273ffffffffffffffffffffffffffffffffffffffff1660601b815260140191505060405160208183030381529060405280519060200120888880806020026020016040519081016040528093929190818152602001838360200280828437600081840152601f19601f820116905080830192505050505050506147979092919063ffffffff16565b5b613865576040517f08c379a0000000000000000000000000000000000000000000000000000000008152600401808060200182810382526026815260200180615a236026913960400191505060405180910390fd5b8360116000613874600e613f19565b8152602001908152602001600020819055506138ad6001601060008781526020019081526020016000205461484c90919063ffffffff16565b601060008681526020019081526020016000208190555060016012600086815260200190815260200160002060006138e3613f44565b73ffffffffffffffffffffffffffffffffffffffff1673ffffffffffffffffffffffffffffffffffffffff1681526020019081526020016000208190555061393361392c613f44565b84846148d4565b6139a5576040517f08c379a000000000000000000000000000000000000000000000000000000000815260040180806020018281038252601e8152602001807f4261646765466163746f72793a206261646765206e6f74206d696e746564000081525060200191505060405180910390fd5b7ffcdd666d85b3ffd083437c2d6d3fb35552e00683b0c6e248e30b534990f5a98e6139ce613f44565b858585604051808573ffffffffffffffffffffffffffffffffffffffff168152602001848152602001806020018281038252848482818152602001925080828437600081840152601f19601f8201169050808301925050509550505050505060405180910390a16001905095945050505050565b613a696001600084815260200190815260200160002060020154613a64613f44565b61281f565b613abe576040517f08c379a0000000000000000000000000000000000000000000000000000000008152600401808060200182810382526030815260200180615b866030913960400191505060405180910390fd5b613ac8828261422a565b5050565b7f65d7a28e3265b37a6474929f336521b332c1681b933f6cb9f3376673440d862a81565b6000613b066000801b613b01613f44565b61281f565b613b5b576040517f08c379a0000000000000000000000000000000000000000000000000000000008152600401808060200182810382526024815260200180615aed6024913960400191505060405180910390fd5b613b857f82fc59a2af283c7e52e3f7cf8d269383062c6603a1ab4300e32135abe128a4768361281f565b15613bdb576040517f08c379a0000000000000000000000000000000000000000000000000000000008152600401808060200182810382526028815260200180615c416028913960400191505060405180910390fd5b613c057f82fc59a2af283c7e52e3f7cf8d269383062c6603a1ab4300e32135abe128a47683611a4a565b60019050919050565b6000600860008473ffffffffffffffffffffffffffffffffffffffff1673ffffffffffffffffffffffffffffffffffffffff16815260200190815260200160002060008373ffffffffffffffffffffffffffffffffffffffff1673ffffffffffffffffffffffffffffffffffffffff16815260200190815260200160002060009054906101000a900460ff16905092915050565b613caa613f44565b73ffffffffffffffffffffffffffffffffffffffff1660008054906101000a900473ffffffffffffffffffffffffffffffffffffffff1673ffffffffffffffffffffffffffffffffffffffff1614613d6a576040517f08c379a00000000000000000000000000000000000000000000000000000000081526004018080602001828103825260208152602001807f4f776e61626c653a2063616c6c6572206973206e6f7420746865206f776e657281525060200191505060405180910390fd5b600073ffffffffffffffffffffffffffffffffffffffff168173ffffffffffffffffffffffffffffffffffffffff161415613df0576040517f08c379a0000000000000000000000000000000000000000000000000000000008152600401808060200182810382526026815260200180615ac76026913960400191505060405180910390fd5b8073ffffffffffffffffffffffffffffffffffffffff1660008054906101000a900473ffffffffffffffffffffffffffffffffffffffff1673ffffffffffffffffffffffffffffffffffffffff167f8be0079c531659141344cd1fd0a4f28419497f9722a3daafe3b4186f6b6457e060405160405180910390a3806000806101000a81548173ffffffffffffffffffffffffffffffffffffffff021916908373ffffffffffffffffffffffffffffffffffffffff16021790555050565b60006018600036905010158015613ec95750613ec833612320565b5b15613edd57601436033560601c9050613ee5565b339050613ee6565b5b90565b6000613f11836000018373ffffffffffffffffffffffffffffffffffffffff1660001b614955565b905092915050565b600081600001549050919050565b6000613f3d8260056149c590919063ffffffff16565b9050919050565b6000613f4e613ead565b905090565b816007600083815260200190815260200160002060006101000a81548173ffffffffffffffffffffffffffffffffffffffff021916908373ffffffffffffffffffffffffffffffffffffffff160217905550808273ffffffffffffffffffffffffffffffffffffffff16613fc6836123b6565b73ffffffffffffffffffffffffffffffffffffffff167f8c5be1e5ebec7d5bd14f71427d1e84f3dd0314c0f7b2291e5b200ac8c7c3b92560405160405180910390a45050565b600061401a826000016149df565b9050919050565b600061402c82613f27565b614081576040517f08c379a000000000000000000000000000000000000000000000000000000000815260040180806020018281038252602c815260200180615b5a602c913960400191505060405180910390fd5b600061408c836123b6565b90508073ffffffffffffffffffffffffffffffffffffffff168473ffffffffffffffffffffffffffffffffffffffff1614806140fb57508373ffffffffffffffffffffffffffffffffffffffff166140e3846117c4565b73ffffffffffffffffffffffffffffffffffffffff16145b8061410c575061410b8185613c0e565b5b91505092915050565b600061416c576040517f08c379a0000000000000000000000000000000000000000000000000000000008152600401808060200182810382526025815260200180615b116025913960400191505060405180910390fd5b6141778383836149f0565b505050565b6141a48160016000858152602001908152602001600020600001613ee990919063ffffffff16565b1561420c576141b1613f44565b73ffffffffffffffffffffffffffffffffffffffff168173ffffffffffffffffffffffffffffffffffffffff16837f2f8788117e7eff1d82e926ec794901d17c78024a50270940304540a733656f0d60405160405180910390a45b5050565b600061421f8360000183614c33565b60001c905092915050565b6142528160016000858152602001908152602001600020600001614cb690919063ffffffff16565b156142ba5761425f613f44565b73ffffffffffffffffffffffffffffffffffffffff168173ffffffffffffffffffffffffffffffffffffffff16837ff6391f5c32d9c69d2a47ea670b442974b53935d1edc7fd64eb21e047a839171b60405160405180910390a45b5050565b600260009054906101000a900460ff16614340576040517f08c379a00000000000000000000000000000000000000000000000000000000081526004018080602001828103825260148152602001807f5061757361626c653a206e6f742070617573656400000000000000000000000081525060200191505060405180910390fd5b6000600260006101000a81548160ff0219169083151502179055507f5db9ee0a495bf2e6ff9c91a7834c1ba4fdd244a5e8aa4e537bd38aeae4b073aa614384613f44565b604051808273ffffffffffffffffffffffffffffffffffffffff16815260200191505060405180910390a1565b6000806000806143c48660000186614ce6565b915091508160001c8160001c9350935050509250929050565b80600c90805190602001906143f3929190615906565b5050565b600061440a846000018460001b84614d7f565b60001c90509392505050565b600061442482600001614e75565b9050919050565b600260009054906101000a900460ff16156144ae576040517f08c379a00000000000000000000000000000000000000000000000000000000081526004018080602001828103825260108152602001807f5061757361626c653a207061757365640000000000000000000000000000000081525060200191505060405180910390fd5b6001600260006101000a81548160ff0219169083151502179055507f62e78cea01bee320cd4e420270b5ea74000d11b0c9f74754ebdbfc544b05a2586144f2613f44565b604051808273ffffffffffffffffffffffffffffffffffffffff16815260200191505060405180910390a1565b600061452e8360000183614c33565b60001c905092915050565b6000614561836000018373ffffffffffffffffffffffffffffffffffffffff1660001b614e86565b905092915050565b614574848484614115565b61458084848484614ea9565b6145d5576040517f08c379a0000000000000000000000000000000000000000000000000000000008152600401808060200182810382526032815260200180615a956032913960400191505060405180910390fd5b50505050565b60606000821415614623576040518060400160405280600181526020017f3000000000000000000000000000000000000000000000000000000000000000815250905061471d565b600082905060005b6000821461464d578080600101915050600a828161464557fe5b04915061462b565b60608167ffffffffffffffff8111801561466657600080fd5b506040519080825280601f01601f1916602001820160405280156146995781602001600182028036833780820191505090505b50905060006001830390508593505b6000841461471557600a84816146ba57fe5b0660300160f81b828280600190039350815181106146d457fe5b60200101907effffffffffffffffffffffffffffffffffffffffffffffffffffffffffffff1916908160001a905350600a848161470d57fe5b0493506146a8565b819450505050505b919050565b600061473082600001614e75565b9050919050565b6001816000016000828254019250508190555050565b600061478f83836040518060400160405280601e81526020017f536166654d6174683a207375627472616374696f6e206f766572666c6f7700008152506150c2565b905092915050565b60008082905060005b855181101561483e5760008682815181106147b757fe5b602002602001015190508083116147fe5782816040516020018083815260200182815260200192505050604051602081830303815290604052805190602001209250614830565b808360405160200180838152602001828152602001925050506040516020818303038152906040528051906020012092505b5080806001019150506147a0565b508381149150509392505050565b6000808284019050838110156148ca576040517f08c379a000000000000000000000000000000000000000000000000000000000815260040180806020018281038252601b8152602001807f536166654d6174683a206164646974696f6e206f766572666c6f77000000000081525060200191505060405180910390fd5b8091505092915050565b60006148e9846148e4600e613f19565b615182565b6149406148f6600e613f19565b84848080601f016020809104026020016040519081016040528093929190818152602001838380828437600081840152601f19601f82011690508083019250505050505050615376565b61494a600e614737565b600190509392505050565b60006149618383614e86565b6149ba5782600001829080600181540180825580915050600190039060005260206000200160009091909190915055826000018054905083600101600084815260200190815260200160002081905550600190506149bf565b600090505b92915050565b60006149d7836000018360001b615400565b905092915050565b600081600001805490509050919050565b8273ffffffffffffffffffffffffffffffffffffffff16614a10826123b6565b73ffffffffffffffffffffffffffffffffffffffff1614614a7c576040517f08c379a0000000000000000000000000000000000000000000000000000000008152600401808060200182810382526029815260200180615d326029913960400191505060405180910390fd5b600073ffffffffffffffffffffffffffffffffffffffff168273ffffffffffffffffffffffffffffffffffffffff161415614b02576040517f08c379a0000000000000000000000000000000000000000000000000000000008152600401808060200182810382526024815260200180615b366024913960400191505060405180910390fd5b614b0d838383615423565b614b18600082613f53565b614b6981600460008673ffffffffffffffffffffffffffffffffffffffff1673ffffffffffffffffffffffffffffffffffffffff16815260200190815260200160002061542890919063ffffffff16565b50614bbb81600460008573ffffffffffffffffffffffffffffffffffffffff1673ffffffffffffffffffffffffffffffffffffffff16815260200190815260200160002061544290919063ffffffff16565b50614bd28183600561545c9092919063ffffffff16565b50808273ffffffffffffffffffffffffffffffffffffffff168473ffffffffffffffffffffffffffffffffffffffff167fddf252ad1be2c89b69c2b068fc378daa952ba7f163c4a11628f55a4df523b3ef60405160405180910390a4505050565b600081836000018054905011614c94576040517f08c379a00000000000000000000000000000000000000000000000000000000081526004018080602001828103825260228152602001806159a46022913960400191505060405180910390fd5b826000018281548110614ca357fe5b9060005260206000200154905092915050565b6000614cde836000018373ffffffffffffffffffffffffffffffffffffffff1660001b615491565b905092915050565b60008082846000018054905011614d48576040517f08c379a0000000000000000000000000000000000000000000000000000000008152600401808060200182810382526022815260200180615c696022913960400191505060405180910390fd5b6000846000018481548110614d5957fe5b906000526020600020906002020190508060000154816001015492509250509250929050565b60008084600101600085815260200190815260200160002054905060008114158390614e46576040517f08c379a00000000000000000000000000000000000000000000000000000000081526004018080602001828103825283818151815260200191508051906020019080838360005b83811015614e0b578082015181840152602081019050614df0565b50505050905090810190601f168015614e385780820380516001836020036101000a031916815260200191505b509250505060405180910390fd5b50846000016001820381548110614e5957fe5b9060005260206000209060020201600101549150509392505050565b600081600001805490509050919050565b600080836001016000848152602001908152602001600020541415905092915050565b6000614eca8473ffffffffffffffffffffffffffffffffffffffff16615579565b614ed757600190506150ba565b606061504163150b7a0260e01b614eec613f44565b888787604051602401808573ffffffffffffffffffffffffffffffffffffffff1681526020018473ffffffffffffffffffffffffffffffffffffffff16815260200183815260200180602001828103825283818151815260200191508051906020019080838360005b83811015614f70578082015181840152602081019050614f55565b50505050905090810190601f168015614f9d5780820380516001836020036101000a031916815260200191505b5095505050505050604051602081830303815290604052907bffffffffffffffffffffffffffffffffffffffffffffffffffffffff19166020820180517bffffffffffffffffffffffffffffffffffffffffffffffffffffffff8381831617835250505050604051806060016040528060328152602001615a95603291398773ffffffffffffffffffffffffffffffffffffffff1661558c9092919063ffffffff16565b9050600081806020019051602081101561505a57600080fd5b8101908080519060200190929190505050905063150b7a0260e01b7bffffffffffffffffffffffffffffffffffffffffffffffffffffffff1916817bffffffffffffffffffffffffffffffffffffffffffffffffffffffff191614925050505b949350505050565b600083831115829061516f576040517f08c379a00000000000000000000000000000000000000000000000000000000081526004018080602001828103825283818151815260200191508051906020019080838360005b83811015615134578082015181840152602081019050615119565b50505050905090810190601f1680156151615780820380516001836020036101000a031916815260200191505b509250505060405180910390fd5b5060008385039050809150509392505050565b600073ffffffffffffffffffffffffffffffffffffffff168273ffffffffffffffffffffffffffffffffffffffff161415615225576040517f08c379a00000000000000000000000000000000000000000000000000000000081526004018080602001828103825260208152602001807f4552433732313a206d696e7420746f20746865207a65726f206164647265737381525060200191505060405180910390fd5b61522e81613f27565b156152a1576040517f08c379a000000000000000000000000000000000000000000000000000000000815260040180806020018281038252601c8152602001807f4552433732313a20746f6b656e20616c7265616479206d696e7465640000000081525060200191505060405180910390fd5b6152ad60008383615423565b6152fe81600460008573ffffffffffffffffffffffffffffffffffffffff1673ffffffffffffffffffffffffffffffffffffffff16815260200190815260200160002061544290919063ffffffff16565b506153158183600561545c9092919063ffffffff16565b50808273ffffffffffffffffffffffffffffffffffffffff16600073ffffffffffffffffffffffffffffffffffffffff167fddf252ad1be2c89b69c2b068fc378daa952ba7f163c4a11628f55a4df523b3ef60405160405180910390a45050565b61537f82613f27565b6153d4576040517f08c379a000000000000000000000000000000000000000000000000000000000815260040180806020018281038252602c815260200180615cb7602c913960400191505060405180910390fd5b80600b600084815260200190815260200160002090805190602001906153fb929190615906565b505050565b600080836001016000848152602001908152602001600020541415905092915050565b505050565b600061543a836000018360001b615491565b905092915050565b6000615454836000018360001b614955565b905092915050565b6000615488846000018460001b8473ffffffffffffffffffffffffffffffffffffffff1660001b6155a4565b90509392505050565b6000808360010160008481526020019081526020016000205490506000811461556d57600060018203905060006001866000018054905003905060008660000182815481106154dc57fe5b90600052602060002001549050808760000184815481106154f957fe5b906000526020600020018190555060018301876001016000838152602001908152602001600020819055508660000180548061553157fe5b60019003818190600052602060002001600090559055866001016000878152602001908152602001600020600090556001945050505050615573565b60009150505b92915050565b600080823b905060008111915050919050565b606061559b8484600085615680565b90509392505050565b600080846001016000858152602001908152602001600020549050600081141561564b57846000016040518060400160405280868152602001858152509080600181540180825580915050600190039060005260206000209060020201600090919091909150600082015181600001556020820151816001015550508460000180549050856001016000868152602001908152602001600020819055506001915050615679565b8285600001600183038154811061565e57fe5b90600052602060002090600202016001018190555060009150505b9392505050565b606061568b85615579565b6156fd576040517f08c379a000000000000000000000000000000000000000000000000000000000815260040180806020018281038252601d8152602001807f416464726573733a2063616c6c20746f206e6f6e2d636f6e747261637400000081525060200191505060405180910390fd5b600060608673ffffffffffffffffffffffffffffffffffffffff1685876040518082805190602001908083835b6020831061574d578051825260208201915060208101905060208303925061572a565b6001836020036101000a03801982511681845116808217855250505050505090500191505060006040518083038185875af1925050503d80600081146157af576040519150601f19603f3d011682016040523d82523d6000602084013e6157b4565b606091505b509150915081156157c957809250505061587e565b6000815111156157dc5780518082602001fd5b836040517f08c379a00000000000000000000000000000000000000000000000000000000081526004018080602001828103825283818151815260200191508051906020019080838360005b83811015615843578082015181840152602081019050615828565b50505050905090810190601f1680156158705780820380516001836020036101000a031916815260200191505b509250505060405180910390fd5b949350505050565b828054600181600116156101000203166002900490600052602060002090601f016020900481019282601f106158c757803560ff19168380011785556158f5565b828001600101855582156158f5579182015b828111156158f45782358255916020019190600101906158d9565b5b5090506159029190615986565b5090565b828054600181600116156101000203166002900490600052602060002090601f016020900481019282601f1061594757805160ff1916838001178555615975565b82800160010185558215615975579182015b82811115615974578251825591602001919060010190615959565b5b5090506159829190615986565b5090565b5b8082111561599f576000816000905550600101615987565b509056fe456e756d657261626c655365743a20696e646578206f7574206f6620626f756e6473416363657373436f6e74726f6c3a2073656e646572206d75737420626520616e2061646d696e20746f206772616e744261646765466163746f72793a206d75737420686176652070617573657220726f6c6520746f20756e70617573654261646765466163746f72793a2063616c6c6572206973206e6f7420612072656465656d65724261646765466163746f72793a20626164676520616c726561647920616374697661746564214261646765466163746f72793a206e6f2074656d706c617465207769746820746861742069644552433732313a207472616e7366657220746f206e6f6e20455243373231526563656976657220696d706c656d656e7465724f776e61626c653a206e6577206f776e657220697320746865207a65726f20616464726573734261646765466163746f72793a2063616c6c6572206973206e6f7420616e2061646d696e4261646765466163746f72793a206261646765207472616e736665722064697361626c65644552433732313a207472616e7366657220746f20746865207a65726f20616464726573734552433732313a206f70657261746f7220717565727920666f72206e6f6e6578697374656e7420746f6b656e416363657373436f6e74726f6c3a2073656e646572206d75737420626520616e2061646d696e20746f207265766f6b654552433732313a20617070726f76652063616c6c6572206973206e6f74206f776e6572206e6f7220617070726f76656420666f7220616c6c4552433732313a2062616c616e636520717565727920666f7220746865207a65726f20616464726573734552433732313a206f776e657220717565727920666f72206e6f6e6578697374656e7420746f6b656e4261646765466163746f72793a2067757920697320616c726561647920612074656d706c61746572456e756d657261626c654d61703a20696e646578206f7574206f6620626f756e64734552433732313a20617070726f76656420717565727920666f72206e6f6e6578697374656e7420746f6b656e4552433732314d657461646174613a2055524920736574206f66206e6f6e6578697374656e7420746f6b656e4261646765466163746f72793a206d75737420686176652070617573657220726f6c6520746f2070617573654261646765466163746f72793a206e6f20746f6b656e207769746820746861742069644552433732313a207472616e73666572206f6620746f6b656e2074686174206973206e6f74206f776e4552433732314d657461646174613a2055524920717565727920666f72206e6f6e6578697374656e7420746f6b656e4261646765466163746f72793a20677579206973206e6f7420612074656d706c617465724552433732313a20617070726f76616c20746f2063757272656e74206f776e65724261646765466163746f72793a2063616c6c6572206973206e6f7420612074656d706c617465206f776e65724552433732313a207472616e736665722063616c6c6572206973206e6f74206f776e6572206e6f7220617070726f766564416363657373436f6e74726f6c3a2063616e206f6e6c792072656e6f756e636520726f6c657320666f722073656c66a2646970667358221220c0b2ac1c04666000df715464111aff345f2c717ce0c775ebfabeae808b47c99e64736f6c634300060c003368747470733a2f2f6261646765732e6d616b657264616f2e636f6d2f746f6b656e2f",
  "immutableReferences": {
    "38": [
      {
        "length": 32,
        "start": 13811
      },
      {
        "length": 32,
        "start": 14029
      }
    ]
  },
  "source": "/// SPDX-License-Identifier: AGPL-3.0-only\npragma solidity 0.6.12;\n\n/// @title Non-transferable Badges for Maker Ecosystem Activity, CDIP 18, 29\n/// @author Nazzareno Massari @naszam\n/// @notice BadgeFactory to manage Templates and activate Non-transferable MakerBadges by redeemers\n/// @dev See https://github.com/makerdao/community/issues/537\n/// @dev See https://github.com/makerdao/community/issues/721\n/// @dev All function calls are currently implemented without side effects through TDD approach\n/// @dev OpenZeppelin Library is used for secure contract development\n\nimport \"./BadgeRoles.sol\";\nimport \"@openzeppelin/contracts/utils/Counters.sol\";\nimport \"@openzeppelin/contracts/token/ERC721/ERC721.sol\";\nimport \"@openzeppelin/contracts/cryptography/MerkleProof.sol\";\n\ninterface MakerBadgesLike {\n    function verify(uint256 templateId, address guy) external view returns (bool);\n    function roots(uint256 templateId) external view returns (bytes32);\n}\n\ncontract BadgeFactory is BadgeRoles, ERC721 {\n\n    /// @dev Libraries\n    using SafeMath for uint256;\n    using Counters for Counters.Counter;\n    using MerkleProof for bytes32[];\n\n    MakerBadgesLike internal immutable maker;\n\n    Counters.Counter private _templateIdTracker;\n    Counters.Counter private _tokenIdTracker;\n\n    struct BadgeTemplate {\n        string name;\n        string description;\n        string image;\n    }\n\n    mapping (uint256 => BadgeTemplate) private templates;\n\n    /// @dev Supplies of each badge template\n    mapping(uint256 => uint256) private _templateQuantities;\n    mapping(uint256 => uint256) private _tokenTemplates;\n\n    mapping(uint256 => mapping (address => uint256)) public redeemed;\n\n    /// @dev Events\n    event NewTemplate(uint256 templateId, string name, string description, string image);\n    event TemplateUpdated(uint256 templateId, string name, string description, string image);\n    event BadgeActivated(address redeemer, uint256 templateId, string tokenURI);\n\n    constructor(address forwarder_, address maker_)\n        public\n        ERC721(\"MakerBadges\", \"MAKER\")\n        BadgeRoles(forwarder_)\n    {\n        _setBaseURI(\"https://badges.makerdao.com/token/\");\n        maker = MakerBadgesLike(maker_);\n    }\n\n    /// @notice Fallback function\n    /// @dev Added not payable to revert transactions not matching any other function which send value\n    fallback() external {\n        revert();\n    }\n\n    /// @notice Set the baseURI\n    /// @dev Update the baseURI specified in the constructor\n    /// @param baseURI New baseURI\n    /// @return True if the new baseURI is set\n    function setBaseURI(string calldata baseURI) external onlyOwner returns (bool) {\n        _setBaseURI(baseURI);\n        return true;\n    }\n\n    /// @dev Templates\n\n    /// @notice Create a new template\n    /// @dev Access restricted to only Templaters\n    /// @param name The name of the new template\n    /// @param description A description of the new template\n    /// @param image A filename of the new template\n    /// @return True If the new Template is Created\n    function createTemplate(string calldata name, string calldata description, string calldata image)\n        external\n        onlyTemplater\n        whenNotPaused\n        returns (bool)\n    {\n        templates[_templateIdTracker.current()].name = name;\n        templates[_templateIdTracker.current()].description = description;\n        templates[_templateIdTracker.current()].image = image;\n\n        _templateIdTracker.increment();\n        uint256 _templateId = _templateIdTracker.current().sub(1);\n        emit NewTemplate(_templateId, name, description, image);\n        return true;\n    }\n\n    /// @notice Update a template\n    /// @dev Access restricted to only Templaters\n    /// @param templateId Template Id\n    /// @param name The name of the template\n    /// @param description The description of the template\n    /// @param image The filename of the template\n    /// @return True If the new Template is Updated\n    function updateTemplate(uint256 templateId, string calldata name, string calldata description, string calldata image)\n        external\n        onlyTemplater\n        whenNotPaused\n        returns (bool)\n    {\n        require(_templateIdTracker.current() > templateId, \"BadgeFactory: no template with that id\");\n        templates[templateId].name = name;\n        templates[templateId].description = description;\n        templates[templateId].image = image;\n        emit TemplateUpdated(templateId, name, description, image);\n        return true;\n    }\n\n    /// @notice Getter function for templates\n    /// @dev Check if templateId exists\n    /// @param templateId Template Id of the template to return\n    /// @return name description image Of the specified templateId\n    function getTemplate(uint256 templateId)\n        external\n        view\n        whenNotPaused\n        returns (string memory name, string memory description, string memory image)\n    {\n        require(_templateIdTracker.current() > templateId, \"BadgeFactory: no template with that id\");\n        return (templates[templateId].name, templates[templateId].description, templates[templateId].image);\n    }\n\n    /// @notice Getter function for templates count\n    /// @dev Return lenght of template array\n    /// @return count The current number of templates\n    function getTemplatesCount() external view whenNotPaused returns (uint256 count) {\n        return _templateIdTracker.current();\n    }\n\n    /// @dev Badges\n\n    /// @notice Activate Badge by redeemers\n    /// @dev Verify if the caller is a redeemer\n    /// @param proof Merkle Proof\n    /// @param templateId Template Id\n    /// @param tokenURI Token URI\n    /// @return True If the new Badge is Activated\n    function activateBadge(bytes32[] calldata proof, uint256 templateId, string calldata tokenURI)\n        external\n        whenNotPaused\n        returns (bool)\n    {\n        require(_templateIdTracker.current() > templateId, \"BadgeFactory: no template with that id\");\n        require(redeemed[templateId][_msgSender()] == 0, \"BadgeFactory: badge already activated!\");\n        require(\n            maker.verify(templateId, _msgSender()) || proof.verify(maker.roots(templateId), keccak256(abi.encodePacked(_msgSender()))),\n            \"BadgeFactory: caller is not a redeemer\"\n        );\n\n        /// @dev Increase the quantities\n        _tokenTemplates[_tokenIdTracker.current()] = templateId;\n        _templateQuantities[templateId] = _templateQuantities[templateId].add(1);\n        redeemed[templateId][_msgSender()] = 1;\n\n        require(_mintWithTokenURI(_msgSender(), tokenURI), \"BadgeFactory: badge not minted\");\n\n        emit BadgeActivated(_msgSender(), templateId, tokenURI);\n        return true;\n    }\n\n    /// @notice Getter function for templateId associated with the tokenId\n    /// @dev Check if the tokenId exists\n    /// @param tokenId Token Id of the Badge\n    /// @return Template Id associated with the tokenId\n    function getBadgeTemplate(uint256 tokenId) public view whenNotPaused returns (uint256) {\n        require(_exists(tokenId), \"BadgeFactory: no token with that id\");\n        return _tokenTemplates[tokenId];\n    }\n\n    /// @notice Getter function for number of badges associated with templateId\n    /// @dev Check if the template Id exists\n    /// @param templateId Template Id\n    /// @return Quantity of Badges associated with templateId\n    function getBadgeTemplateQuantity(uint256 templateId) external view whenNotPaused returns (uint256) {\n        require(_templateIdTracker.current() > templateId, \"BadgeFactory: no template with that id\");\n        return _templateQuantities[templateId];\n    }\n\n    /// @notice OpenGSN _msgSender()\n    /// @dev override _msgSender() in OZ Context.sol and BadgeRoles.sol\n    /// @return _msgSender() after relay call\n    function _msgSender() internal view override(Context, BadgeRoles) returns (address payable) {\n          return BaseRelayRecipient._msgSender();\n    }\n\n    /// @notice OpenGSN _msgData()\n    /// @dev override _msgData() in OZ Context.sol and BadgeRoles.sol\n    /// @return _msgData() after relay call\n    function _msgData() internal view override(Context, BadgeRoles) returns (bytes memory) {\n          return BaseRelayRecipient._msgData();\n    }\n\n    /// @notice ERC721 _transfer() Disabled\n    /// @dev _transfer() has been overriden\n    /// @dev reverts on transferFrom() and safeTransferFrom()\n    function _transfer(address from, address to, uint256 tokenId) internal override {\n        require(false, \"BadgeFactory: badge transfer disabled\");\n        super._transfer(from, to, tokenId);\n    }\n\n    /// @notice Mint new token with tokenURI\n    /// @dev Use an auto-generated tokenId\n    /// @dev automatically concatenate baseURI with tokenURI via abi.encodePacked\n    /// @param to owner of the new token\n    /// @param tokenURI an <ipfs-hash>.json filename\n    /// @return True if the new token is minted\n    function _mintWithTokenURI(address to, string calldata tokenURI) private returns (bool) {\n        _mint(to, _tokenIdTracker.current());\n        _setTokenURI(_tokenIdTracker.current(), tokenURI);\n        _tokenIdTracker.increment();\n        return true;\n    }\n}\n",
  "sourcePath": "/home/sencha/maker-badges/contracts/BadgeFactory.sol",
  "compiler": {
    "name": "solc",
    "version": "0.6.12+commit.27d51765.Emscripten.clang"
  },
  "schemaVersion": "3.2.5",
  "updatedAt": "2020-09-30T17:40:37.380Z",
  "networkType": "ethereum",
  "devdoc": {
    "events": {
      "NewTemplate(uint256,string,string,string)": {
        "details": "Events"
      }
    },
    "kind": "dev",
    "methods": {
      "activateBadge(bytes32[],uint256,string)": {
        "details": "Verify if the caller is a redeemer",
        "params": {
          "proof": "Merkle Proof",
          "templateId": "Template Id",
          "tokenURI": "Token URI"
        },
        "returns": {
          "_0": "True If the new Badge is Activated"
        }
      },
      "addTemplater(address)": {
        "details": "Access restricted only for Admins",
        "params": {
          "guy": "Address of the new Templater"
        },
        "returns": {
          "_0": "True if the guy address is added as Templater"
        }
      },
      "approve(address,uint256)": {
        "details": "See {IERC721-approve}."
      },
      "balanceOf(address)": {
        "details": "See {IERC721-balanceOf}."
      },
      "baseURI()": {
        "details": "Returns the base URI set via {_setBaseURI}. This will be automatically added as a prefix in {tokenURI} to each token's URI, or to the token ID if no specific URI is set for that token ID."
      },
      "createTemplate(string,string,string)": {
        "details": "Access restricted to only Templaters",
        "params": {
          "description": "A description of the new template",
          "image": "A filename of the new template",
          "name": "The name of the new template"
        },
        "returns": {
          "_0": "True If the new Template is Created"
        }
      },
      "getApproved(uint256)": {
        "details": "See {IERC721-getApproved}."
      },
      "getBadgeTemplate(uint256)": {
        "details": "Check if the tokenId exists",
        "params": {
          "tokenId": "Token Id of the Badge"
        },
        "returns": {
          "_0": "Template Id associated with the tokenId"
        }
      },
      "getBadgeTemplateQuantity(uint256)": {
        "details": "Check if the template Id exists",
        "params": {
          "templateId": "Template Id"
        },
        "returns": {
          "_0": "Quantity of Badges associated with templateId"
        }
      },
      "getRoleAdmin(bytes32)": {
        "details": "Returns the admin role that controls `role`. See {grantRole} and {revokeRole}. To change a role's admin, use {_setRoleAdmin}."
      },
      "getRoleMember(bytes32,uint256)": {
        "details": "Returns one of the accounts that have `role`. `index` must be a value between 0 and {getRoleMemberCount}, non-inclusive. Role bearers are not sorted in any particular way, and their ordering may change at any point. WARNING: When using {getRoleMember} and {getRoleMemberCount}, make sure you perform all queries on the same block. See the following https://forum.openzeppelin.com/t/iterating-over-elements-on-enumerableset-in-openzeppelin-contracts/2296[forum post] for more information."
      },
      "getRoleMemberCount(bytes32)": {
        "details": "Returns the number of accounts that have `role`. Can be used together with {getRoleMember} to enumerate all bearers of a role."
      },
      "getTemplate(uint256)": {
        "details": "Check if templateId exists",
        "params": {
          "templateId": "Template Id of the template to return"
        },
        "returns": {
          "name": "description image Of the specified templateId"
        }
      },
      "getTemplatesCount()": {
        "details": "Return lenght of template array",
        "returns": {
          "count": "The current number of templates"
        }
      },
      "grantRole(bytes32,address)": {
        "details": "Grants `role` to `account`. If `account` had not been already granted `role`, emits a {RoleGranted} event. Requirements: - the caller must have ``role``'s admin role."
      },
      "hasRole(bytes32,address)": {
        "details": "Returns `true` if `account` has been granted `role`."
      },
      "isApprovedForAll(address,address)": {
        "details": "See {IERC721-isApprovedForAll}."
      },
      "name()": {
        "details": "See {IERC721Metadata-name}."
      },
      "owner()": {
        "details": "Returns the address of the current owner."
      },
      "ownerOf(uint256)": {
        "details": "See {IERC721-ownerOf}."
      },
      "pause()": {
        "details": "the caller must have the 'PAUSER_ROLE'"
      },
      "paused()": {
        "details": "Returns true if the contract is paused, and false otherwise."
      },
      "removeTemplater(address)": {
        "details": "Access restricted only for Admins",
        "params": {
          "guy": "Address of the Templater"
        },
        "returns": {
          "_0": "True if the guy address is removed as Templater"
        }
      },
      "renounceOwnership()": {
        "details": "Leaves the contract without owner. It will not be possible to call `onlyOwner` functions anymore. Can only be called by the current owner. NOTE: Renouncing ownership will leave the contract without an owner, thereby removing any functionality that is only available to the owner."
      },
      "renounceRole(bytes32,address)": {
        "details": "Revokes `role` from the calling account. Roles are often managed via {grantRole} and {revokeRole}: this function's purpose is to provide a mechanism for accounts to lose their privileges if they are compromised (such as when a trusted device is misplaced). If the calling account had been granted `role`, emits a {RoleRevoked} event. Requirements: - the caller must be `account`."
      },
      "revokeRole(bytes32,address)": {
        "details": "Revokes `role` from `account`. If `account` had been granted `role`, emits a {RoleRevoked} event. Requirements: - the caller must have ``role``'s admin role."
      },
      "safeTransferFrom(address,address,uint256)": {
        "details": "See {IERC721-safeTransferFrom}."
      },
      "safeTransferFrom(address,address,uint256,bytes)": {
        "details": "See {IERC721-safeTransferFrom}."
      },
      "setApprovalForAll(address,bool)": {
        "details": "See {IERC721-setApprovalForAll}."
      },
      "setBaseURI(string)": {
        "details": "Update the baseURI specified in the constructor",
        "params": {
          "baseURI": "New baseURI"
        },
        "returns": {
          "_0": "True if the new baseURI is set"
        }
      },
      "supportsInterface(bytes4)": {
        "details": "See {IERC165-supportsInterface}. Time complexity O(1), guaranteed to always use less than 30 000 gas."
      },
      "symbol()": {
        "details": "See {IERC721Metadata-symbol}."
      },
      "tokenByIndex(uint256)": {
        "details": "See {IERC721Enumerable-tokenByIndex}."
      },
      "tokenOfOwnerByIndex(address,uint256)": {
        "details": "See {IERC721Enumerable-tokenOfOwnerByIndex}."
      },
      "tokenURI(uint256)": {
        "details": "See {IERC721Metadata-tokenURI}."
      },
      "totalSupply()": {
        "details": "See {IERC721Enumerable-totalSupply}."
      },
      "transferFrom(address,address,uint256)": {
        "details": "See {IERC721-transferFrom}."
      },
      "transferOwnership(address)": {
        "details": "Transfers ownership of the contract to a new account (`newOwner`). Can only be called by the current owner."
      },
      "unpause()": {
        "details": "the caller must have the 'PAUSER_ROLE'"
      },
      "updateTemplate(uint256,string,string,string)": {
        "details": "Access restricted to only Templaters",
        "params": {
          "description": "The description of the template",
          "image": "The filename of the template",
          "name": "The name of the template",
          "templateId": "Template Id"
        },
        "returns": {
          "_0": "True If the new Template is Updated"
        }
      }
    },
    "stateVariables": {
      "_templateQuantities": {
        "details": "Supplies of each badge template"
      }
    },
    "version": 1
  },
  "userdoc": {
    "kind": "user",
    "methods": {
      "activateBadge(bytes32[],uint256,string)": {
        "notice": "Activate Badge by redeemers"
      },
      "addTemplater(address)": {
        "notice": "Add a new Templater"
      },
      "createTemplate(string,string,string)": {
        "notice": "Create a new template"
      },
      "getBadgeTemplate(uint256)": {
        "notice": "Getter function for templateId associated with the tokenId"
      },
      "getBadgeTemplateQuantity(uint256)": {
        "notice": "Getter function for number of badges associated with templateId"
      },
      "getTemplate(uint256)": {
        "notice": "Getter function for templates"
      },
      "getTemplatesCount()": {
        "notice": "Getter function for templates count"
      },
      "getTrustedForwarder()": {
        "notice": "return the forwarder we trust to forward relayed transactions to us. the forwarder is required to verify the sender's signature, and verify the call is not a replay."
      },
      "isTrustedForwarder(address)": {
        "notice": "return if the forwarder is trusted to forward relayed transactions to us. the forwarder is required to verify the sender's signature, and verify the call is not a replay."
      },
      "pause()": {
        "notice": "Pause all the functions"
      },
      "removeTemplater(address)": {
        "notice": "Remove a Templater"
      },
      "setBaseURI(string)": {
        "notice": "Set the baseURI"
      },
      "unpause()": {
        "notice": "Unpause all the functions"
      },
      "updateTemplate(uint256,string,string,string)": {
        "notice": "Update a template"
      }
    },
    "version": 1
  }
}