{
  "contractName": "BadgeRoles",
  "abi": [
    {
      "inputs": [
        {
          "internalType": "address",
          "name": "forwarder_",
          "type": "address"
        }
      ],
      "stateMutability": "nonpayable",
      "type": "constructor"
    },
    {
      "anonymous": false,
      "inputs": [
        {
          "indexed": false,
          "internalType": "address",
          "name": "account",
          "type": "address"
        }
      ],
      "name": "Paused",
      "type": "event"
    },
    {
      "anonymous": false,
      "inputs": [
        {
          "indexed": true,
          "internalType": "bytes32",
          "name": "role",
          "type": "bytes32"
        },
        {
          "indexed": true,
          "internalType": "bytes32",
          "name": "previousAdminRole",
          "type": "bytes32"
        },
        {
          "indexed": true,
          "internalType": "bytes32",
          "name": "newAdminRole",
          "type": "bytes32"
        }
      ],
      "name": "RoleAdminChanged",
      "type": "event"
    },
    {
      "anonymous": false,
      "inputs": [
        {
          "indexed": true,
          "internalType": "bytes32",
          "name": "role",
          "type": "bytes32"
        },
        {
          "indexed": true,
          "internalType": "address",
          "name": "account",
          "type": "address"
        },
        {
          "indexed": true,
          "internalType": "address",
          "name": "sender",
          "type": "address"
        }
      ],
      "name": "RoleGranted",
      "type": "event"
    },
    {
      "anonymous": false,
      "inputs": [
        {
          "indexed": true,
          "internalType": "bytes32",
          "name": "role",
          "type": "bytes32"
        },
        {
          "indexed": true,
          "internalType": "address",
          "name": "account",
          "type": "address"
        },
        {
          "indexed": true,
          "internalType": "address",
          "name": "sender",
          "type": "address"
        }
      ],
      "name": "RoleRevoked",
      "type": "event"
    },
    {
      "anonymous": false,
      "inputs": [
        {
          "indexed": false,
          "internalType": "address",
          "name": "account",
          "type": "address"
        }
      ],
      "name": "Unpaused",
      "type": "event"
    },
    {
      "inputs": [],
      "name": "ADMIN_ROLE",
      "outputs": [
        {
          "internalType": "bytes32",
          "name": "",
          "type": "bytes32"
        }
      ],
      "stateMutability": "view",
      "type": "function"
    },
    {
      "inputs": [],
      "name": "DEFAULT_ADMIN_ROLE",
      "outputs": [
        {
          "internalType": "bytes32",
          "name": "",
          "type": "bytes32"
        }
      ],
      "stateMutability": "view",
      "type": "function"
    },
    {
      "inputs": [],
      "name": "PAUSER_ROLE",
      "outputs": [
        {
          "internalType": "bytes32",
          "name": "",
          "type": "bytes32"
        }
      ],
      "stateMutability": "view",
      "type": "function"
    },
    {
      "inputs": [],
      "name": "TEMPLATER_ROLE",
      "outputs": [
        {
          "internalType": "bytes32",
          "name": "",
          "type": "bytes32"
        }
      ],
      "stateMutability": "view",
      "type": "function"
    },
    {
      "inputs": [
        {
          "internalType": "bytes32",
          "name": "role",
          "type": "bytes32"
        }
      ],
      "name": "getRoleAdmin",
      "outputs": [
        {
          "internalType": "bytes32",
          "name": "",
          "type": "bytes32"
        }
      ],
      "stateMutability": "view",
      "type": "function"
    },
    {
      "inputs": [
        {
          "internalType": "bytes32",
          "name": "role",
          "type": "bytes32"
        },
        {
          "internalType": "uint256",
          "name": "index",
          "type": "uint256"
        }
      ],
      "name": "getRoleMember",
      "outputs": [
        {
          "internalType": "address",
          "name": "",
          "type": "address"
        }
      ],
      "stateMutability": "view",
      "type": "function"
    },
    {
      "inputs": [
        {
          "internalType": "bytes32",
          "name": "role",
          "type": "bytes32"
        }
      ],
      "name": "getRoleMemberCount",
      "outputs": [
        {
          "internalType": "uint256",
          "name": "",
          "type": "uint256"
        }
      ],
      "stateMutability": "view",
      "type": "function"
    },
    {
      "inputs": [
        {
          "internalType": "bytes32",
          "name": "role",
          "type": "bytes32"
        },
        {
          "internalType": "address",
          "name": "account",
          "type": "address"
        }
      ],
      "name": "grantRole",
      "outputs": [],
      "stateMutability": "nonpayable",
      "type": "function"
    },
    {
      "inputs": [
        {
          "internalType": "bytes32",
          "name": "role",
          "type": "bytes32"
        },
        {
          "internalType": "address",
          "name": "account",
          "type": "address"
        }
      ],
      "name": "hasRole",
      "outputs": [
        {
          "internalType": "bool",
          "name": "",
          "type": "bool"
        }
      ],
      "stateMutability": "view",
      "type": "function"
    },
    {
      "inputs": [
        {
          "internalType": "address",
          "name": "forwarder",
          "type": "address"
        }
      ],
      "name": "isTrustedForwarder",
      "outputs": [
        {
          "internalType": "bool",
          "name": "",
          "type": "bool"
        }
      ],
      "stateMutability": "view",
      "type": "function"
    },
    {
      "inputs": [],
      "name": "paused",
      "outputs": [
        {
          "internalType": "bool",
          "name": "",
          "type": "bool"
        }
      ],
      "stateMutability": "view",
      "type": "function"
    },
    {
      "inputs": [
        {
          "internalType": "bytes32",
          "name": "role",
          "type": "bytes32"
        },
        {
          "internalType": "address",
          "name": "account",
          "type": "address"
        }
      ],
      "name": "renounceRole",
      "outputs": [],
      "stateMutability": "nonpayable",
      "type": "function"
    },
    {
      "inputs": [
        {
          "internalType": "bytes32",
          "name": "role",
          "type": "bytes32"
        },
        {
          "internalType": "address",
          "name": "account",
          "type": "address"
        }
      ],
      "name": "revokeRole",
      "outputs": [],
      "stateMutability": "nonpayable",
      "type": "function"
    },
    {
      "inputs": [],
      "name": "trustedForwarder",
      "outputs": [
        {
          "internalType": "address",
          "name": "",
          "type": "address"
        }
      ],
      "stateMutability": "view",
      "type": "function"
    },
    {
      "inputs": [
        {
          "internalType": "address",
          "name": "account",
          "type": "address"
        }
      ],
      "name": "addAdmin",
      "outputs": [
        {
          "internalType": "bool",
          "name": "",
          "type": "bool"
        }
      ],
      "stateMutability": "nonpayable",
      "type": "function"
    },
    {
      "inputs": [
        {
          "internalType": "address",
          "name": "account",
          "type": "address"
        }
      ],
      "name": "removeAdmin",
      "outputs": [
        {
          "internalType": "bool",
          "name": "",
          "type": "bool"
        }
      ],
      "stateMutability": "nonpayable",
      "type": "function"
    },
    {
      "inputs": [
        {
          "internalType": "address",
          "name": "account",
          "type": "address"
        }
      ],
      "name": "addTemplater",
      "outputs": [
        {
          "internalType": "bool",
          "name": "",
          "type": "bool"
        }
      ],
      "stateMutability": "nonpayable",
      "type": "function"
    },
    {
      "inputs": [
        {
          "internalType": "address",
          "name": "account",
          "type": "address"
        }
      ],
      "name": "removeTemplater",
      "outputs": [
        {
          "internalType": "bool",
          "name": "",
          "type": "bool"
        }
      ],
      "stateMutability": "nonpayable",
      "type": "function"
    },
    {
      "inputs": [],
      "name": "pause",
      "outputs": [],
      "stateMutability": "nonpayable",
      "type": "function"
    },
    {
      "inputs": [],
      "name": "unpause",
      "outputs": [],
      "stateMutability": "nonpayable",
      "type": "function"
    },
    {
      "inputs": [],
      "name": "versionRecipient",
      "outputs": [
        {
          "internalType": "string",
          "name": "",
          "type": "string"
        }
      ],
      "stateMutability": "view",
      "type": "function"
    },
    {
      "inputs": [],
      "name": "getTrustedForwarder",
      "outputs": [
        {
          "internalType": "address",
          "name": "",
          "type": "address"
        }
      ],
      "stateMutability": "view",
      "type": "function"
    }
  ],
  "bytecode": "0x60806040523480156200001157600080fd5b5060405162001adb38038062001adb833981810160405260208110156200003757600080fd5b81019080805190602001909291905050506000600160006101000a81548160ff021916908315150217905550620000876000801b6200007b6200019160201b60201c565b620001ad60201b60201c565b620000c87fa49807205ce4d355092ef5a8a18f56e8913cf4a201fbe287825b095693c21775620000bc6200019160201b60201c565b620001ad60201b60201c565b620001097f82fc59a2af283c7e52e3f7cf8d269383062c6603a1ab4300e32135abe128a476620000fd6200019160201b60201c565b620001ad60201b60201c565b6200014a7f65d7a28e3265b37a6474929f336521b332c1681b933f6cb9f3376673440d862a6200013e6200019160201b60201c565b620001ad60201b60201c565b806001806101000a81548173ffffffffffffffffffffffffffffffffffffffff021916908373ffffffffffffffffffffffffffffffffffffffff16021790555050620003db565b6000620001a8620001c360201b62000f351760201c565b905090565b620001bf82826200020b60201b60201c565b5050565b60006018600036905010158015620001e85750620001e733620002ae60201b60201c565b5b15620001fe57601436033560601c905062000207565b33905062000208565b5b90565b62000239816000808581526020019081526020016000206000016200030660201b62000f711790919060201c565b15620002aa576200024f6200019160201b60201c565b73ffffffffffffffffffffffffffffffffffffffff168173ffffffffffffffffffffffffffffffffffffffff16837f2f8788117e7eff1d82e926ec794901d17c78024a50270940304540a733656f0d60405160405180910390a45b5050565b600060018054906101000a900473ffffffffffffffffffffffffffffffffffffffff1673ffffffffffffffffffffffffffffffffffffffff168273ffffffffffffffffffffffffffffffffffffffff16149050919050565b600062000336836000018373ffffffffffffffffffffffffffffffffffffffff1660001b6200033e60201b60201c565b905092915050565b6000620003528383620003b860201b60201c565b620003ad578260000182908060018154018082558091505060019003906000526020600020016000909190919091505582600001805490508360010160008481526020019081526020016000208190555060019050620003b2565b600090505b92915050565b600080836001016000848152602001908152602001600020541415905092915050565b6116f080620003eb6000396000f3fe608060405234801561001057600080fd5b50600436106101425760003560e01c806375b238fc116100b8578063a217fddf1161007c578063a217fddf1461057a578063ca15c87314610598578063ce1b815f146105da578063d547741f1461060e578063e63ab1e91461065c578063e6c0d7141461067a57610142565b806375b238fc146104585780637da0a877146104765780638456cb59146104aa5780639010d07c146104b457806391d148541461051657610142565b8063486ff0cd1161010a578063486ff0cd146102895780634ba360ba1461030c578063572b6c05146103665780635c975abb146103c05780636cdd0a16146103e057806370480275146103fe57610142565b80631785f53c14610147578063248a9ca3146101a15780632f2ff15d146101e357806336568abe146102315780633f4ba83a1461027f575b600080fd5b6101896004803603602081101561015d57600080fd5b81019080803573ffffffffffffffffffffffffffffffffffffffff1690602001909291905050506106d4565b60405180821515815260200191505060405180910390f35b6101cd600480360360208110156101b757600080fd5b8101908080359060200190929190505050610772565b6040518082815260200191505060405180910390f35b61022f600480360360408110156101f957600080fd5b8101908080359060200190929190803573ffffffffffffffffffffffffffffffffffffffff169060200190929190505050610791565b005b61027d6004803603604081101561024757600080fd5b8101908080359060200190929190803573ffffffffffffffffffffffffffffffffffffffff16906020019092919050505061081a565b005b6102876108b3565b005b610291610943565b6040518080602001828103825283818151815260200191508051906020019080838360005b838110156102d15780820151818401526020810190506102b6565b50505050905090810190601f1680156102fe5780820380516001836020036101000a031916815260200191505b509250505060405180910390f35b61034e6004803603602081101561032257600080fd5b81019080803573ffffffffffffffffffffffffffffffffffffffff169060200190929190505050610980565b60405180821515815260200191505060405180910390f35b6103a86004803603602081101561037c57600080fd5b81019080803573ffffffffffffffffffffffffffffffffffffffff169060200190929190505050610a1e565b60405180821515815260200191505060405180910390f35b6103c8610a76565b60405180821515815260200191505060405180910390f35b6103e8610a8d565b6040518082815260200191505060405180910390f35b6104406004803603602081101561041457600080fd5b81019080803573ffffffffffffffffffffffffffffffffffffffff169060200190929190505050610ab1565b60405180821515815260200191505060405180910390f35b610460610bd5565b6040518082815260200191505060405180910390f35b61047e610bf9565b604051808273ffffffffffffffffffffffffffffffffffffffff16815260200191505060405180910390f35b6104b2610c1d565b005b6104ea600480360360408110156104ca57600080fd5b810190808035906020019092919080359060200190929190505050610cad565b604051808273ffffffffffffffffffffffffffffffffffffffff16815260200191505060405180910390f35b6105626004803603604081101561052c57600080fd5b8101908080359060200190929190803573ffffffffffffffffffffffffffffffffffffffff169060200190929190505050610cde565b60405180821515815260200191505060405180910390f35b610582610d0f565b6040518082815260200191505060405180910390f35b6105c4600480360360208110156105ae57600080fd5b8101908080359060200190929190505050610d16565b6040518082815260200191505060405180910390f35b6105e2610d3c565b604051808273ffffffffffffffffffffffffffffffffffffffff16815260200191505060405180910390f35b61065a6004803603604081101561062457600080fd5b8101908080359060200190929190803573ffffffffffffffffffffffffffffffffffffffff169060200190929190505050610d64565b005b610664610ded565b6040518082815260200191505060405180910390f35b6106bc6004803603602081101561069057600080fd5b81019080803573ffffffffffffffffffffffffffffffffffffffff169060200190929190505050610e11565b60405180821515815260200191505060405180910390f35b60006106ea6000801b6106e5610fa1565b610cde565b61073f576040517f08c379a000000000000000000000000000000000000000000000000000000000815260040180806020018281038252602d8152602001806115da602d913960400191505060405180910390fd5b6107697fa49807205ce4d355092ef5a8a18f56e8913cf4a201fbe287825b095693c2177583610d64565b60019050919050565b6000806000838152602001908152602001600020600201549050919050565b6107b7600080848152602001908152602001600020600201546107b2610fa1565b610cde565b61080c576040517f08c379a000000000000000000000000000000000000000000000000000000000815260040180806020018281038252602f81526020018061157d602f913960400191505060405180910390fd5b6108168282610fb0565b5050565b610822610fa1565b73ffffffffffffffffffffffffffffffffffffffff168173ffffffffffffffffffffffffffffffffffffffff16146108a5576040517f08c379a000000000000000000000000000000000000000000000000000000000815260040180806020018281038252602f81526020018061168c602f913960400191505060405180910390fd5b6108af8282611043565b5050565b6108e47f65d7a28e3265b37a6474929f336521b332c1681b933f6cb9f3376673440d862a6108df610fa1565b610cde565b610939576040517f08c379a000000000000000000000000000000000000000000000000000000000815260040180806020018281038252602e8152602001806115ac602e913960400191505060405180910390fd5b6109416110d6565b565b60606040518060400160405280600581526020017f302e392e30000000000000000000000000000000000000000000000000000000815250905090565b60006109966000801b610991610fa1565b610cde565b6109eb576040517f08c379a000000000000000000000000000000000000000000000000000000000815260040180806020018281038252602d8152602001806115da602d913960400191505060405180910390fd5b610a157f82fc59a2af283c7e52e3f7cf8d269383062c6603a1ab4300e32135abe128a47683610d64565b60019050919050565b600060018054906101000a900473ffffffffffffffffffffffffffffffffffffffff1673ffffffffffffffffffffffffffffffffffffffff168273ffffffffffffffffffffffffffffffffffffffff16149050919050565b6000600160009054906101000a900460ff16905090565b7f82fc59a2af283c7e52e3f7cf8d269383062c6603a1ab4300e32135abe128a47681565b6000610ac76000801b610ac2610fa1565b610cde565b610b1c576040517f08c379a000000000000000000000000000000000000000000000000000000000815260040180806020018281038252602d8152602001806115da602d913960400191505060405180910390fd5b600073ffffffffffffffffffffffffffffffffffffffff168273ffffffffffffffffffffffffffffffffffffffff161415610ba2576040517f08c379a00000000000000000000000000000000000000000000000000000000081526004018080602001828103825260298152602001806116376029913960400191505060405180910390fd5b610bcc7fa49807205ce4d355092ef5a8a18f56e8913cf4a201fbe287825b095693c2177583610791565b60019050919050565b7fa49807205ce4d355092ef5a8a18f56e8913cf4a201fbe287825b095693c2177581565b60018054906101000a900473ffffffffffffffffffffffffffffffffffffffff1681565b610c4e7f65d7a28e3265b37a6474929f336521b332c1681b933f6cb9f3376673440d862a610c49610fa1565b610cde565b610ca3576040517f08c379a000000000000000000000000000000000000000000000000000000000815260040180806020018281038252602c815260200180611660602c913960400191505060405180910390fd5b610cab6111c9565b565b6000610cd6826000808681526020019081526020016000206000016112bc90919063ffffffff16565b905092915050565b6000610d07826000808681526020019081526020016000206000016112d690919063ffffffff16565b905092915050565b6000801b81565b6000610d35600080848152602001908152602001600020600001611306565b9050919050565b600060018054906101000a900473ffffffffffffffffffffffffffffffffffffffff16905090565b610d8a60008084815260200190815260200160002060020154610d85610fa1565b610cde565b610ddf576040517f08c379a00000000000000000000000000000000000000000000000000000000081526004018080602001828103825260308152602001806116076030913960400191505060405180910390fd5b610de98282611043565b5050565b7f65d7a28e3265b37a6474929f336521b332c1681b933f6cb9f3376673440d862a81565b6000610e276000801b610e22610fa1565b610cde565b610e7c576040517f08c379a000000000000000000000000000000000000000000000000000000000815260040180806020018281038252602d8152602001806115da602d913960400191505060405180910390fd5b600073ffffffffffffffffffffffffffffffffffffffff168273ffffffffffffffffffffffffffffffffffffffff161415610f02576040517f08c379a00000000000000000000000000000000000000000000000000000000081526004018080602001828103825260298152602001806116376029913960400191505060405180910390fd5b610f2c7f82fc59a2af283c7e52e3f7cf8d269383062c6603a1ab4300e32135abe128a47683610791565b60019050919050565b60006018600036905010158015610f515750610f5033610a1e565b5b15610f6557601436033560601c9050610f6d565b339050610f6e565b5b90565b6000610f99836000018373ffffffffffffffffffffffffffffffffffffffff1660001b61131b565b905092915050565b6000610fab610f35565b905090565b610fd781600080858152602001908152602001600020600001610f7190919063ffffffff16565b1561103f57610fe4610fa1565b73ffffffffffffffffffffffffffffffffffffffff168173ffffffffffffffffffffffffffffffffffffffff16837f2f8788117e7eff1d82e926ec794901d17c78024a50270940304540a733656f0d60405160405180910390a45b5050565b61106a8160008085815260200190815260200160002060000161138b90919063ffffffff16565b156110d257611077610fa1565b73ffffffffffffffffffffffffffffffffffffffff168173ffffffffffffffffffffffffffffffffffffffff16837ff6391f5c32d9c69d2a47ea670b442974b53935d1edc7fd64eb21e047a839171b60405160405180910390a45b5050565b600160009054906101000a900460ff16611158576040517f08c379a00000000000000000000000000000000000000000000000000000000081526004018080602001828103825260148152602001807f5061757361626c653a206e6f742070617573656400000000000000000000000081525060200191505060405180910390fd5b6000600160006101000a81548160ff0219169083151502179055507f5db9ee0a495bf2e6ff9c91a7834c1ba4fdd244a5e8aa4e537bd38aeae4b073aa61119c610fa1565b604051808273ffffffffffffffffffffffffffffffffffffffff16815260200191505060405180910390a1565b600160009054906101000a900460ff161561124c576040517f08c379a00000000000000000000000000000000000000000000000000000000081526004018080602001828103825260108152602001807f5061757361626c653a207061757365640000000000000000000000000000000081525060200191505060405180910390fd5b60018060006101000a81548160ff0219169083151502179055507f62e78cea01bee320cd4e420270b5ea74000d11b0c9f74754ebdbfc544b05a25861128f610fa1565b604051808273ffffffffffffffffffffffffffffffffffffffff16815260200191505060405180910390a1565b60006112cb83600001836113bb565b60001c905092915050565b60006112fe836000018373ffffffffffffffffffffffffffffffffffffffff1660001b61143e565b905092915050565b600061131482600001611461565b9050919050565b6000611327838361143e565b611380578260000182908060018154018082558091505060019003906000526020600020016000909190919091505582600001805490508360010160008481526020019081526020016000208190555060019050611385565b600090505b92915050565b60006113b3836000018373ffffffffffffffffffffffffffffffffffffffff1660001b611472565b905092915050565b60008183600001805490501161141c576040517f08c379a000000000000000000000000000000000000000000000000000000000815260040180806020018281038252602281526020018061155b6022913960400191505060405180910390fd5b82600001828154811061142b57fe5b9060005260206000200154905092915050565b600080836001016000848152602001908152602001600020541415905092915050565b600081600001805490509050919050565b6000808360010160008481526020019081526020016000205490506000811461154e57600060018203905060006001866000018054905003905060008660000182815481106114bd57fe5b90600052602060002001549050808760000184815481106114da57fe5b906000526020600020018190555060018301876001016000838152602001908152602001600020819055508660000180548061151257fe5b60019003818190600052602060002001600090559055866001016000878152602001908152602001600020600090556001945050505050611554565b60009150505b9291505056fe456e756d657261626c655365743a20696e646578206f7574206f6620626f756e6473416363657373436f6e74726f6c3a2073656e646572206d75737420626520616e2061646d696e20746f206772616e744261646765466163746f72793a206d75737420686176652070617573657220726f6c6520746f20756e70617573654261646765466163746f72793a2063616c6c6572206973206e6f74207468652064656661756c742061646d696e416363657373436f6e74726f6c3a2073656e646572206d75737420626520616e2061646d696e20746f207265766f6b654261646765466163746f72793a206163636f756e7420697320746865207a65726f20616464726573734261646765466163746f72793a206d75737420686176652070617573657220726f6c6520746f207061757365416363657373436f6e74726f6c3a2063616e206f6e6c792072656e6f756e636520726f6c657320666f722073656c66a264697066735822122067af69d9b232e1d9ff4f183d8938b4b71bf25e75f34da04db9f745526ebf0c0864736f6c634300060c0033",
  "immutableReferences": {},
  "source": "/// SPDX-License-Identifier: AGPL-3.0-or-later\npragma solidity 0.6.12;\n\n/// @title Non-transferable Badges for Maker Ecosystem Activity, CDIP 18, 29\n/// @author Nazzareno Massari @naszam\n/// @notice BadgeRoles Access Management for Default Admin, Templater and Pauser Role\n/// @dev See https://github.com/makerdao/community/issues/537\n/// @dev See https://github.com/makerdao/community/issues/721\n/// @dev All function calls are currently implemented without side effects through TDD approach\n/// @dev OpenZeppelin Library is used for secure contract development\n\nimport \"@openzeppelin/contracts/access/AccessControl.sol\";\nimport \"@openzeppelin/contracts/utils/Pausable.sol\";\nimport \"@opengsn/gsn/contracts/BaseRelayRecipient.sol\";\n\ncontract BadgeRoles is AccessControl, Pausable, BaseRelayRecipient {\n\n    /// @dev Roles\n    bytes32 public constant ADMIN_ROLE = keccak256(\"ADMIN_ROLE\");\n    bytes32 public constant TEMPLATER_ROLE = keccak256(\"TEMPLATER_ROLE\");\n    bytes32 public constant PAUSER_ROLE = keccak256(\"PAUSER_ROLE\");\n\n    constructor(address forwarder_) public {\n        _setupRole(DEFAULT_ADMIN_ROLE, _msgSender());\n\n        _setupRole(ADMIN_ROLE, _msgSender());\n        _setupRole(TEMPLATER_ROLE, _msgSender());\n        _setupRole(PAUSER_ROLE, _msgSender());\n\n        /// @dev Biconomy Trusted Forwarder\n        trustedForwarder = forwarder_;\n    }\n\n    /// @dev Functions\n\n    /// @notice Add a new Admin\n    /// @dev Access restricted only to Default Admin\n    /// @param account Address of the new Admin\n    /// @return True if account is added as Admin\n    function addAdmin(address account) external returns (bool) {\n        require(hasRole(DEFAULT_ADMIN_ROLE, _msgSender()), \"BadgeFactory: caller is not the default admin\");\n        require(account != address(0), \"BadgeFactory: account is the zero address\");\n        grantRole(ADMIN_ROLE, account);\n        return true;\n    }\n\n    /// @notice Remove an Admin\n    /// @dev Access restricted only to Default Admin\n    /// @param account Address of the Admin\n    /// @return True if account is removed as Admin\n    function removeAdmin(address account) external returns (bool) {\n        require(hasRole(DEFAULT_ADMIN_ROLE, _msgSender()), \"BadgeFactory: caller is not the default admin\");\n        revokeRole(ADMIN_ROLE, account);\n        return true;\n    }\n\n    /// @notice Add a new Templater\n    /// @dev Access restricted only to Default Admin\n    /// @param account Address of the new Templater\n    /// @return True if account is added as Templater\n    function addTemplater(address account) external returns (bool) {\n        require(hasRole(DEFAULT_ADMIN_ROLE, _msgSender()), \"BadgeFactory: caller is not the default admin\");\n        require(account != address(0), \"BadgeFactory: account is the zero address\");\n        grantRole(TEMPLATER_ROLE, account);\n        return true;\n    }\n\n    /// @notice Remove a Templater\n    /// @dev Access restricted only to Default Admin\n    /// @param account Address of the Templater\n    /// @return True if account is removed as Templater\n    function removeTemplater(address account) external returns (bool) {\n      require(hasRole(DEFAULT_ADMIN_ROLE, _msgSender()), \"BadgeFactory: caller is not the default admin\");\n      revokeRole(TEMPLATER_ROLE, account);\n      return true;\n    }\n\n    /// @notice Pause all the functions\n    /// @dev the caller must have the 'PAUSER_ROLE'\n    function pause() external {\n        require(hasRole(PAUSER_ROLE, _msgSender()), \"BadgeFactory: must have pauser role to pause\");\n        _pause();\n    }\n\n    /// @notice Unpause all the functions\n    /// @dev the caller must have the 'PAUSER_ROLE'\n    function unpause() external {\n        require(hasRole(PAUSER_ROLE, _msgSender()), \"BadgeFactory: must have pauser role to unpause\");\n        _unpause();\n    }\n\n    function versionRecipient() external virtual view override returns (string memory) {\n        return \"0.9.0\";\n    }\n\n    function getTrustedForwarder() external view returns (address) {\n        return trustedForwarder;\n    }\n\n    /// @notice OpenGSN _msgSender()\n    /// @dev override _msgSender() in OZ Context.sol and BaseRelayRecipient.sol\n    /// @return _msgSender() after relay call\n    function _msgSender() internal virtual view override(Context, BaseRelayRecipient) returns (address payable) {\n        return BaseRelayRecipient._msgSender();\n    }\n\n    /// @notice OpenGSN _msgData()\n    /// @dev override _msgData() in OZ Context.sol and BaseRelayRecipient.sol\n    /// @return _msgData() after relay call\n    function _msgData() internal virtual view override(Context, BaseRelayRecipient) returns (bytes memory) {\n        return BaseRelayRecipient._msgData();\n    }\n}\n",
  "sourcePath": "/home/sencha/maker-badges/contracts/BadgeRoles.sol",
  "compiler": {
    "name": "solc",
    "version": "0.6.12+commit.27d51765.Emscripten.clang"
  },
  "schemaVersion": "3.3.3",
  "updatedAt": "2021-02-05T16:41:15.774Z",
  "devdoc": {
    "kind": "dev",
    "methods": {
      "addAdmin(address)": {
        "details": "Access restricted only to Default Admin",
        "params": {
          "account": "Address of the new Admin"
        },
        "returns": {
          "_0": "True if account is added as Admin"
        }
      },
      "addTemplater(address)": {
        "details": "Access restricted only to Default Admin",
        "params": {
          "account": "Address of the new Templater"
        },
        "returns": {
          "_0": "True if account is added as Templater"
        }
      },
      "getRoleAdmin(bytes32)": {
        "details": "Returns the admin role that controls `role`. See {grantRole} and {revokeRole}. To change a role's admin, use {_setRoleAdmin}."
      },
      "getRoleMember(bytes32,uint256)": {
        "details": "Returns one of the accounts that have `role`. `index` must be a value between 0 and {getRoleMemberCount}, non-inclusive. Role bearers are not sorted in any particular way, and their ordering may change at any point. WARNING: When using {getRoleMember} and {getRoleMemberCount}, make sure you perform all queries on the same block. See the following https://forum.openzeppelin.com/t/iterating-over-elements-on-enumerableset-in-openzeppelin-contracts/2296[forum post] for more information."
      },
      "getRoleMemberCount(bytes32)": {
        "details": "Returns the number of accounts that have `role`. Can be used together with {getRoleMember} to enumerate all bearers of a role."
      },
      "grantRole(bytes32,address)": {
        "details": "Grants `role` to `account`. If `account` had not been already granted `role`, emits a {RoleGranted} event. Requirements: - the caller must have ``role``'s admin role."
      },
      "hasRole(bytes32,address)": {
        "details": "Returns `true` if `account` has been granted `role`."
      },
      "pause()": {
        "details": "the caller must have the 'PAUSER_ROLE'"
      },
      "paused()": {
        "details": "Returns true if the contract is paused, and false otherwise."
      },
      "removeAdmin(address)": {
        "details": "Access restricted only to Default Admin",
        "params": {
          "account": "Address of the Admin"
        },
        "returns": {
          "_0": "True if account is removed as Admin"
        }
      },
      "removeTemplater(address)": {
        "details": "Access restricted only to Default Admin",
        "params": {
          "account": "Address of the Templater"
        },
        "returns": {
          "_0": "True if account is removed as Templater"
        }
      },
      "renounceRole(bytes32,address)": {
        "details": "Revokes `role` from the calling account. Roles are often managed via {grantRole} and {revokeRole}: this function's purpose is to provide a mechanism for accounts to lose their privileges if they are compromised (such as when a trusted device is misplaced). If the calling account had been granted `role`, emits a {RoleRevoked} event. Requirements: - the caller must be `account`."
      },
      "revokeRole(bytes32,address)": {
        "details": "Revokes `role` from `account`. If `account` had been granted `role`, emits a {RoleRevoked} event. Requirements: - the caller must have ``role``'s admin role."
      },
      "unpause()": {
        "details": "the caller must have the 'PAUSER_ROLE'"
      }
    },
    "stateVariables": {
      "ADMIN_ROLE": {
        "details": "Roles"
      }
    },
    "version": 1
  },
  "userdoc": {
    "kind": "user",
    "methods": {
      "addAdmin(address)": {
        "notice": "Add a new Admin"
      },
      "addTemplater(address)": {
        "notice": "Add a new Templater"
      },
      "isTrustedForwarder(address)": {
        "notice": "return if the forwarder is trusted to forward relayed transactions to us. the forwarder is required to verify the sender's signature, and verify the call is not a replay."
      },
      "pause()": {
        "notice": "Pause all the functions"
      },
      "removeAdmin(address)": {
        "notice": "Remove an Admin"
      },
      "removeTemplater(address)": {
        "notice": "Remove a Templater"
      },
      "unpause()": {
        "notice": "Unpause all the functions"
      }
    },
    "version": 1
  }
}