{
  "contractName": "CryticTestBadgeRoles",
  "abi": [
    {
      "inputs": [
        {
          "internalType": "address",
          "name": "forwarder_",
          "type": "address"
        }
      ],
      "stateMutability": "nonpayable",
      "type": "constructor"
    },
    {
      "anonymous": false,
      "inputs": [
        {
          "indexed": false,
          "internalType": "address",
          "name": "account",
          "type": "address"
        }
      ],
      "name": "Paused",
      "type": "event"
    },
    {
      "anonymous": false,
      "inputs": [
        {
          "indexed": true,
          "internalType": "bytes32",
          "name": "role",
          "type": "bytes32"
        },
        {
          "indexed": true,
          "internalType": "bytes32",
          "name": "previousAdminRole",
          "type": "bytes32"
        },
        {
          "indexed": true,
          "internalType": "bytes32",
          "name": "newAdminRole",
          "type": "bytes32"
        }
      ],
      "name": "RoleAdminChanged",
      "type": "event"
    },
    {
      "anonymous": false,
      "inputs": [
        {
          "indexed": true,
          "internalType": "bytes32",
          "name": "role",
          "type": "bytes32"
        },
        {
          "indexed": true,
          "internalType": "address",
          "name": "account",
          "type": "address"
        },
        {
          "indexed": true,
          "internalType": "address",
          "name": "sender",
          "type": "address"
        }
      ],
      "name": "RoleGranted",
      "type": "event"
    },
    {
      "anonymous": false,
      "inputs": [
        {
          "indexed": true,
          "internalType": "bytes32",
          "name": "role",
          "type": "bytes32"
        },
        {
          "indexed": true,
          "internalType": "address",
          "name": "account",
          "type": "address"
        },
        {
          "indexed": true,
          "internalType": "address",
          "name": "sender",
          "type": "address"
        }
      ],
      "name": "RoleRevoked",
      "type": "event"
    },
    {
      "anonymous": false,
      "inputs": [
        {
          "indexed": false,
          "internalType": "address",
          "name": "account",
          "type": "address"
        }
      ],
      "name": "Unpaused",
      "type": "event"
    },
    {
      "inputs": [],
      "name": "ADMIN_ROLE",
      "outputs": [
        {
          "internalType": "bytes32",
          "name": "",
          "type": "bytes32"
        }
      ],
      "stateMutability": "view",
      "type": "function"
    },
    {
      "inputs": [],
      "name": "DEFAULT_ADMIN_ROLE",
      "outputs": [
        {
          "internalType": "bytes32",
          "name": "",
          "type": "bytes32"
        }
      ],
      "stateMutability": "view",
      "type": "function"
    },
    {
      "inputs": [],
      "name": "PAUSER_ROLE",
      "outputs": [
        {
          "internalType": "bytes32",
          "name": "",
          "type": "bytes32"
        }
      ],
      "stateMutability": "view",
      "type": "function"
    },
    {
      "inputs": [],
      "name": "TEMPLATER_ROLE",
      "outputs": [
        {
          "internalType": "bytes32",
          "name": "",
          "type": "bytes32"
        }
      ],
      "stateMutability": "view",
      "type": "function"
    },
    {
      "inputs": [
        {
          "internalType": "address",
          "name": "account",
          "type": "address"
        }
      ],
      "name": "addAdmin",
      "outputs": [
        {
          "internalType": "bool",
          "name": "",
          "type": "bool"
        }
      ],
      "stateMutability": "nonpayable",
      "type": "function"
    },
    {
      "inputs": [
        {
          "internalType": "address",
          "name": "account",
          "type": "address"
        }
      ],
      "name": "addTemplater",
      "outputs": [
        {
          "internalType": "bool",
          "name": "",
          "type": "bool"
        }
      ],
      "stateMutability": "nonpayable",
      "type": "function"
    },
    {
      "inputs": [
        {
          "internalType": "bytes32",
          "name": "role",
          "type": "bytes32"
        }
      ],
      "name": "getRoleAdmin",
      "outputs": [
        {
          "internalType": "bytes32",
          "name": "",
          "type": "bytes32"
        }
      ],
      "stateMutability": "view",
      "type": "function"
    },
    {
      "inputs": [
        {
          "internalType": "bytes32",
          "name": "role",
          "type": "bytes32"
        },
        {
          "internalType": "uint256",
          "name": "index",
          "type": "uint256"
        }
      ],
      "name": "getRoleMember",
      "outputs": [
        {
          "internalType": "address",
          "name": "",
          "type": "address"
        }
      ],
      "stateMutability": "view",
      "type": "function"
    },
    {
      "inputs": [
        {
          "internalType": "bytes32",
          "name": "role",
          "type": "bytes32"
        }
      ],
      "name": "getRoleMemberCount",
      "outputs": [
        {
          "internalType": "uint256",
          "name": "",
          "type": "uint256"
        }
      ],
      "stateMutability": "view",
      "type": "function"
    },
    {
      "inputs": [],
      "name": "getTrustedForwarder",
      "outputs": [
        {
          "internalType": "address",
          "name": "",
          "type": "address"
        }
      ],
      "stateMutability": "view",
      "type": "function"
    },
    {
      "inputs": [
        {
          "internalType": "bytes32",
          "name": "role",
          "type": "bytes32"
        },
        {
          "internalType": "address",
          "name": "account",
          "type": "address"
        }
      ],
      "name": "grantRole",
      "outputs": [],
      "stateMutability": "nonpayable",
      "type": "function"
    },
    {
      "inputs": [
        {
          "internalType": "bytes32",
          "name": "role",
          "type": "bytes32"
        },
        {
          "internalType": "address",
          "name": "account",
          "type": "address"
        }
      ],
      "name": "hasRole",
      "outputs": [
        {
          "internalType": "bool",
          "name": "",
          "type": "bool"
        }
      ],
      "stateMutability": "view",
      "type": "function"
    },
    {
      "inputs": [
        {
          "internalType": "address",
          "name": "forwarder",
          "type": "address"
        }
      ],
      "name": "isTrustedForwarder",
      "outputs": [
        {
          "internalType": "bool",
          "name": "",
          "type": "bool"
        }
      ],
      "stateMutability": "view",
      "type": "function"
    },
    {
      "inputs": [],
      "name": "pause",
      "outputs": [],
      "stateMutability": "nonpayable",
      "type": "function"
    },
    {
      "inputs": [],
      "name": "paused",
      "outputs": [
        {
          "internalType": "bool",
          "name": "",
          "type": "bool"
        }
      ],
      "stateMutability": "view",
      "type": "function"
    },
    {
      "inputs": [
        {
          "internalType": "address",
          "name": "account",
          "type": "address"
        }
      ],
      "name": "removeAdmin",
      "outputs": [
        {
          "internalType": "bool",
          "name": "",
          "type": "bool"
        }
      ],
      "stateMutability": "nonpayable",
      "type": "function"
    },
    {
      "inputs": [
        {
          "internalType": "address",
          "name": "account",
          "type": "address"
        }
      ],
      "name": "removeTemplater",
      "outputs": [
        {
          "internalType": "bool",
          "name": "",
          "type": "bool"
        }
      ],
      "stateMutability": "nonpayable",
      "type": "function"
    },
    {
      "inputs": [
        {
          "internalType": "bytes32",
          "name": "role",
          "type": "bytes32"
        },
        {
          "internalType": "address",
          "name": "account",
          "type": "address"
        }
      ],
      "name": "renounceRole",
      "outputs": [],
      "stateMutability": "nonpayable",
      "type": "function"
    },
    {
      "inputs": [
        {
          "internalType": "bytes32",
          "name": "role",
          "type": "bytes32"
        },
        {
          "internalType": "address",
          "name": "account",
          "type": "address"
        }
      ],
      "name": "revokeRole",
      "outputs": [],
      "stateMutability": "nonpayable",
      "type": "function"
    },
    {
      "inputs": [],
      "name": "trustedForwarder",
      "outputs": [
        {
          "internalType": "address",
          "name": "",
          "type": "address"
        }
      ],
      "stateMutability": "view",
      "type": "function"
    },
    {
      "inputs": [],
      "name": "unpause",
      "outputs": [],
      "stateMutability": "nonpayable",
      "type": "function"
    },
    {
      "inputs": [],
      "name": "versionRecipient",
      "outputs": [
        {
          "internalType": "string",
          "name": "",
          "type": "string"
        }
      ],
      "stateMutability": "view",
      "type": "function"
    },
    {
      "inputs": [],
      "name": "crytic_default_admin_constant",
      "outputs": [
        {
          "internalType": "bool",
          "name": "",
          "type": "bool"
        }
      ],
      "stateMutability": "view",
      "type": "function"
    },
    {
      "inputs": [],
      "name": "crytic_admin_constant",
      "outputs": [
        {
          "internalType": "bool",
          "name": "",
          "type": "bool"
        }
      ],
      "stateMutability": "view",
      "type": "function"
    },
    {
      "inputs": [],
      "name": "crytic_templater_constant",
      "outputs": [
        {
          "internalType": "bool",
          "name": "",
          "type": "bool"
        }
      ],
      "stateMutability": "view",
      "type": "function"
    },
    {
      "inputs": [],
      "name": "crytic_pauser_constant",
      "outputs": [
        {
          "internalType": "bool",
          "name": "",
          "type": "bool"
        }
      ],
      "stateMutability": "view",
      "type": "function"
    }
  ],
  "bytecode": "0x60806040523480156200001157600080fd5b5060405162001d1b38038062001d1b833981810160405260208110156200003757600080fd5b8101908080519060200190929190505050806000600160006101000a81548160ff021916908315150217905550620000886000801b6200007c6200024e60201b60201c565b6200026a60201b60201c565b620000c97fa49807205ce4d355092ef5a8a18f56e8913cf4a201fbe287825b095693c21775620000bd6200024e60201b60201c565b6200026a60201b60201c565b6200010a7f82fc59a2af283c7e52e3f7cf8d269383062c6603a1ab4300e32135abe128a476620000fe6200024e60201b60201c565b6200026a60201b60201c565b6200014b7f65d7a28e3265b37a6474929f336521b332c1681b933f6cb9f3376673440d862a6200013f6200024e60201b60201c565b6200026a60201b60201c565b806001806101000a81548173ffffffffffffffffffffffffffffffffffffffff021916908373ffffffffffffffffffffffffffffffffffffffff16021790555050620001a56000801b63414141416200026a60201b60201c565b620001db7fa49807205ce4d355092ef5a8a18f56e8913cf4a201fbe287825b095693c2177563414141416200026a60201b60201c565b620002117f82fc59a2af283c7e52e3f7cf8d269383062c6603a1ab4300e32135abe128a47663414141416200026a60201b60201c565b620002477f65d7a28e3265b37a6474929f336521b332c1681b933f6cb9f3376673440d862a63414141416200026a60201b60201c565b5062000498565b6000620002656200028060201b620010b81760201c565b905090565b6200027c8282620002c860201b60201c565b5050565b60006018600036905010158015620002a55750620002a4336200036b60201b60201c565b5b15620002bb57601436033560601c9050620002c4565b339050620002c5565b5b90565b620002f681600080858152602001908152602001600020600001620003c360201b620010f41790919060201c565b1562000367576200030c6200024e60201b60201c565b73ffffffffffffffffffffffffffffffffffffffff168173ffffffffffffffffffffffffffffffffffffffff16837f2f8788117e7eff1d82e926ec794901d17c78024a50270940304540a733656f0d60405160405180910390a45b5050565b600060018054906101000a900473ffffffffffffffffffffffffffffffffffffffff1673ffffffffffffffffffffffffffffffffffffffff168273ffffffffffffffffffffffffffffffffffffffff16149050919050565b6000620003f3836000018373ffffffffffffffffffffffffffffffffffffffff1660001b620003fb60201b60201c565b905092915050565b60006200040f83836200047560201b60201c565b6200046a5782600001829080600181540180825580915050600190039060005260206000200160009091909190915055826000018054905083600101600084815260200190815260200160002081905550600190506200046f565b600090505b92915050565b600080836001016000848152602001908152602001600020541415905092915050565b61187380620004a86000396000f3fe608060405234801561001057600080fd5b506004361061018e5760003560e01c806370480275116100de578063a217fddf11610097578063ce1b815f11610071578063ce1b815f146106a6578063d547741f146106da578063e63ab1e914610728578063e6c0d714146107465761018e565b8063a217fddf14610626578063c3efb95014610644578063ca15c873146106645761018e565b806370480275146104aa57806375b238fc146105045780637da0a877146105225780638456cb59146105565780639010d07c1461056057806391d14854146105c25761018e565b80633f4ba83a1161014b578063572b6c0511610125578063572b6c05146103f25780635c975abb1461044c5780635fc282931461046c5780636cdd0a161461048c5761018e565b80633f4ba83a1461030b578063486ff0cd146103155780634ba360ba146103985761018e565b80630cfa45f9146101935780631785f53c146101b357806323e85ea11461020d578063248a9ca31461022d5780632f2ff15d1461026f57806336568abe146102bd575b600080fd5b61019b6107a0565b60405180821515815260200191505060405180910390f35b6101f5600480360360208110156101c957600080fd5b81019080803573ffffffffffffffffffffffffffffffffffffffff1690602001909291905050506107d5565b60405180821515815260200191505060405180910390f35b610215610873565b60405180821515815260200191505060405180910390f35b6102596004803603602081101561024357600080fd5b810190808035906020019092919050505061088b565b6040518082815260200191505060405180910390f35b6102bb6004803603604081101561028557600080fd5b8101908080359060200190929190803573ffffffffffffffffffffffffffffffffffffffff1690602001909291905050506108aa565b005b610309600480360360408110156102d357600080fd5b8101908080359060200190929190803573ffffffffffffffffffffffffffffffffffffffff169060200190929190505050610933565b005b6103136109cc565b005b61031d610a5c565b6040518080602001828103825283818151815260200191508051906020019080838360005b8381101561035d578082015181840152602081019050610342565b50505050905090810190601f16801561038a5780820380516001836020036101000a031916815260200191505b509250505060405180910390f35b6103da600480360360208110156103ae57600080fd5b81019080803573ffffffffffffffffffffffffffffffffffffffff169060200190929190505050610a99565b60405180821515815260200191505060405180910390f35b6104346004803603602081101561040857600080fd5b81019080803573ffffffffffffffffffffffffffffffffffffffff169060200190929190505050610b37565b60405180821515815260200191505060405180910390f35b610454610b8f565b60405180821515815260200191505060405180910390f35b610474610ba6565b60405180821515815260200191505060405180910390f35b610494610bdb565b6040518082815260200191505060405180910390f35b6104ec600480360360208110156104c057600080fd5b81019080803573ffffffffffffffffffffffffffffffffffffffff169060200190929190505050610bff565b60405180821515815260200191505060405180910390f35b61050c610d23565b6040518082815260200191505060405180910390f35b61052a610d47565b604051808273ffffffffffffffffffffffffffffffffffffffff16815260200191505060405180910390f35b61055e610d6b565b005b6105966004803603604081101561057657600080fd5b810190808035906020019092919080359060200190929190505050610dfb565b604051808273ffffffffffffffffffffffffffffffffffffffff16815260200191505060405180910390f35b61060e600480360360408110156105d857600080fd5b8101908080359060200190929190803573ffffffffffffffffffffffffffffffffffffffff169060200190929190505050610e2c565b60405180821515815260200191505060405180910390f35b61062e610e5d565b6040518082815260200191505060405180910390f35b61064c610e64565b60405180821515815260200191505060405180910390f35b6106906004803603602081101561067a57600080fd5b8101908080359060200190929190505050610e99565b6040518082815260200191505060405180910390f35b6106ae610ebf565b604051808273ffffffffffffffffffffffffffffffffffffffff16815260200191505060405180910390f35b610726600480360360408110156106f057600080fd5b8101908080359060200190929190803573ffffffffffffffffffffffffffffffffffffffff169060200190929190505050610ee7565b005b610730610f70565b6040518082815260200191505060405180910390f35b6107886004803603602081101561075c57600080fd5b81019080803573ffffffffffffffffffffffffffffffffffffffff169060200190929190505050610f94565b60405180821515815260200191505060405180910390f35b60006107d07f82fc59a2af283c7e52e3f7cf8d269383062c6603a1ab4300e32135abe128a4766341414141610e2c565b905090565b60006107eb6000801b6107e6611124565b610e2c565b610840576040517f08c379a000000000000000000000000000000000000000000000000000000000815260040180806020018281038252602d81526020018061175d602d913960400191505060405180910390fd5b61086a7fa49807205ce4d355092ef5a8a18f56e8913cf4a201fbe287825b095693c2177583610ee7565b60019050919050565b60006108866000801b6341414141610e2c565b905090565b6000806000838152602001908152602001600020600201549050919050565b6108d0600080848152602001908152602001600020600201546108cb611124565b610e2c565b610925576040517f08c379a000000000000000000000000000000000000000000000000000000000815260040180806020018281038252602f815260200180611700602f913960400191505060405180910390fd5b61092f8282611133565b5050565b61093b611124565b73ffffffffffffffffffffffffffffffffffffffff168173ffffffffffffffffffffffffffffffffffffffff16146109be576040517f08c379a000000000000000000000000000000000000000000000000000000000815260040180806020018281038252602f81526020018061180f602f913960400191505060405180910390fd5b6109c882826111c6565b5050565b6109fd7f65d7a28e3265b37a6474929f336521b332c1681b933f6cb9f3376673440d862a6109f8611124565b610e2c565b610a52576040517f08c379a000000000000000000000000000000000000000000000000000000000815260040180806020018281038252602e81526020018061172f602e913960400191505060405180910390fd5b610a5a611259565b565b60606040518060400160405280600581526020017f302e392e30000000000000000000000000000000000000000000000000000000815250905090565b6000610aaf6000801b610aaa611124565b610e2c565b610b04576040517f08c379a000000000000000000000000000000000000000000000000000000000815260040180806020018281038252602d81526020018061175d602d913960400191505060405180910390fd5b610b2e7f82fc59a2af283c7e52e3f7cf8d269383062c6603a1ab4300e32135abe128a47683610ee7565b60019050919050565b600060018054906101000a900473ffffffffffffffffffffffffffffffffffffffff1673ffffffffffffffffffffffffffffffffffffffff168273ffffffffffffffffffffffffffffffffffffffff16149050919050565b6000600160009054906101000a900460ff16905090565b6000610bd67f65d7a28e3265b37a6474929f336521b332c1681b933f6cb9f3376673440d862a6341414141610e2c565b905090565b7f82fc59a2af283c7e52e3f7cf8d269383062c6603a1ab4300e32135abe128a47681565b6000610c156000801b610c10611124565b610e2c565b610c6a576040517f08c379a000000000000000000000000000000000000000000000000000000000815260040180806020018281038252602d81526020018061175d602d913960400191505060405180910390fd5b600073ffffffffffffffffffffffffffffffffffffffff168273ffffffffffffffffffffffffffffffffffffffff161415610cf0576040517f08c379a00000000000000000000000000000000000000000000000000000000081526004018080602001828103825260298152602001806117ba6029913960400191505060405180910390fd5b610d1a7fa49807205ce4d355092ef5a8a18f56e8913cf4a201fbe287825b095693c21775836108aa565b60019050919050565b7fa49807205ce4d355092ef5a8a18f56e8913cf4a201fbe287825b095693c2177581565b60018054906101000a900473ffffffffffffffffffffffffffffffffffffffff1681565b610d9c7f65d7a28e3265b37a6474929f336521b332c1681b933f6cb9f3376673440d862a610d97611124565b610e2c565b610df1576040517f08c379a000000000000000000000000000000000000000000000000000000000815260040180806020018281038252602c8152602001806117e3602c913960400191505060405180910390fd5b610df961134c565b565b6000610e248260008086815260200190815260200160002060000161143f90919063ffffffff16565b905092915050565b6000610e558260008086815260200190815260200160002060000161145990919063ffffffff16565b905092915050565b6000801b81565b6000610e947fa49807205ce4d355092ef5a8a18f56e8913cf4a201fbe287825b095693c217756341414141610e2c565b905090565b6000610eb8600080848152602001908152602001600020600001611489565b9050919050565b600060018054906101000a900473ffffffffffffffffffffffffffffffffffffffff16905090565b610f0d60008084815260200190815260200160002060020154610f08611124565b610e2c565b610f62576040517f08c379a000000000000000000000000000000000000000000000000000000000815260040180806020018281038252603081526020018061178a6030913960400191505060405180910390fd5b610f6c82826111c6565b5050565b7f65d7a28e3265b37a6474929f336521b332c1681b933f6cb9f3376673440d862a81565b6000610faa6000801b610fa5611124565b610e2c565b610fff576040517f08c379a000000000000000000000000000000000000000000000000000000000815260040180806020018281038252602d81526020018061175d602d913960400191505060405180910390fd5b600073ffffffffffffffffffffffffffffffffffffffff168273ffffffffffffffffffffffffffffffffffffffff161415611085576040517f08c379a00000000000000000000000000000000000000000000000000000000081526004018080602001828103825260298152602001806117ba6029913960400191505060405180910390fd5b6110af7f82fc59a2af283c7e52e3f7cf8d269383062c6603a1ab4300e32135abe128a476836108aa565b60019050919050565b600060186000369050101580156110d457506110d333610b37565b5b156110e857601436033560601c90506110f0565b3390506110f1565b5b90565b600061111c836000018373ffffffffffffffffffffffffffffffffffffffff1660001b61149e565b905092915050565b600061112e6110b8565b905090565b61115a816000808581526020019081526020016000206000016110f490919063ffffffff16565b156111c257611167611124565b73ffffffffffffffffffffffffffffffffffffffff168173ffffffffffffffffffffffffffffffffffffffff16837f2f8788117e7eff1d82e926ec794901d17c78024a50270940304540a733656f0d60405160405180910390a45b5050565b6111ed8160008085815260200190815260200160002060000161150e90919063ffffffff16565b15611255576111fa611124565b73ffffffffffffffffffffffffffffffffffffffff168173ffffffffffffffffffffffffffffffffffffffff16837ff6391f5c32d9c69d2a47ea670b442974b53935d1edc7fd64eb21e047a839171b60405160405180910390a45b5050565b600160009054906101000a900460ff166112db576040517f08c379a00000000000000000000000000000000000000000000000000000000081526004018080602001828103825260148152602001807f5061757361626c653a206e6f742070617573656400000000000000000000000081525060200191505060405180910390fd5b6000600160006101000a81548160ff0219169083151502179055507f5db9ee0a495bf2e6ff9c91a7834c1ba4fdd244a5e8aa4e537bd38aeae4b073aa61131f611124565b604051808273ffffffffffffffffffffffffffffffffffffffff16815260200191505060405180910390a1565b600160009054906101000a900460ff16156113cf576040517f08c379a00000000000000000000000000000000000000000000000000000000081526004018080602001828103825260108152602001807f5061757361626c653a207061757365640000000000000000000000000000000081525060200191505060405180910390fd5b60018060006101000a81548160ff0219169083151502179055507f62e78cea01bee320cd4e420270b5ea74000d11b0c9f74754ebdbfc544b05a258611412611124565b604051808273ffffffffffffffffffffffffffffffffffffffff16815260200191505060405180910390a1565b600061144e836000018361153e565b60001c905092915050565b6000611481836000018373ffffffffffffffffffffffffffffffffffffffff1660001b6115c1565b905092915050565b6000611497826000016115e4565b9050919050565b60006114aa83836115c1565b611503578260000182908060018154018082558091505060019003906000526020600020016000909190919091505582600001805490508360010160008481526020019081526020016000208190555060019050611508565b600090505b92915050565b6000611536836000018373ffffffffffffffffffffffffffffffffffffffff1660001b6115f5565b905092915050565b60008183600001805490501161159f576040517f08c379a00000000000000000000000000000000000000000000000000000000081526004018080602001828103825260228152602001806116de6022913960400191505060405180910390fd5b8260000182815481106115ae57fe5b9060005260206000200154905092915050565b600080836001016000848152602001908152602001600020541415905092915050565b600081600001805490509050919050565b600080836001016000848152602001908152602001600020549050600081146116d1576000600182039050600060018660000180549050039050600086600001828154811061164057fe5b906000526020600020015490508087600001848154811061165d57fe5b906000526020600020018190555060018301876001016000838152602001908152602001600020819055508660000180548061169557fe5b600190038181906000526020600020016000905590558660010160008781526020019081526020016000206000905560019450505050506116d7565b60009150505b9291505056fe456e756d657261626c655365743a20696e646578206f7574206f6620626f756e6473416363657373436f6e74726f6c3a2073656e646572206d75737420626520616e2061646d696e20746f206772616e744261646765466163746f72793a206d75737420686176652070617573657220726f6c6520746f20756e70617573654261646765466163746f72793a2063616c6c6572206973206e6f74207468652064656661756c742061646d696e416363657373436f6e74726f6c3a2073656e646572206d75737420626520616e2061646d696e20746f207265766f6b654261646765466163746f72793a206163636f756e7420697320746865207a65726f20616464726573734261646765466163746f72793a206d75737420686176652070617573657220726f6c6520746f207061757365416363657373436f6e74726f6c3a2063616e206f6e6c792072656e6f756e636520726f6c657320666f722073656c66a2646970667358221220f89e8a9bcef6a909cb2e20662cb480ca09327c1722c48ccffd16a7523a5aa57e64736f6c634300060c0033",
  "immutableReferences": {},
  "source": "// SPDX-License-Identifier: AGPL-3.0-or-later\n\npragma solidity 0.6.12;\n\nimport \"../BadgeRoles.sol\";\n\ncontract CryticInterface{\n    address constant internal crytic_owner = address(0x41414141);\n    //address constant internal crytic_user = address(0x42424242);\n    //address constant internal crytic_attacker = address(0x43434343);\n}\n\ncontract CryticTestBadgeRoles is CryticInterface, BadgeRoles {\n\n    constructor (address forwarder_)\n        public\n        BadgeRoles(forwarder_)\n    {\n      _setupRole(DEFAULT_ADMIN_ROLE, crytic_owner);\n      _setupRole(ADMIN_ROLE, crytic_owner);\n      _setupRole(TEMPLATER_ROLE, crytic_owner);\n      _setupRole(PAUSER_ROLE, crytic_owner);\n    }\n\n    function crytic_default_admin_constant() external view returns(bool){\n        return hasRole(DEFAULT_ADMIN_ROLE, crytic_owner);\n    }\n\n    function crytic_admin_constant() external view returns(bool){\n        return hasRole(ADMIN_ROLE, crytic_owner);\n    }\n\n    function crytic_templater_constant() external view returns(bool){\n        return hasRole(TEMPLATER_ROLE, crytic_owner);\n    }\n\n    function crytic_pauser_constant() external view returns(bool){\n        return hasRole(PAUSER_ROLE, crytic_owner);\n    }\n\n}\n",
  "sourcePath": "/home/sencha/maker-badges/contracts/crytic/cryticBadgeRoles.sol",
  "compiler": {
    "name": "solc",
    "version": "0.6.12+commit.27d51765.Emscripten.clang"
  },
  "schemaVersion": "3.3.3",
  "updatedAt": "2021-02-05T16:41:15.884Z",
  "devdoc": {
    "kind": "dev",
    "methods": {
      "addAdmin(address)": {
        "details": "Access restricted only to Default Admin",
        "params": {
          "account": "Address of the new Admin"
        },
        "returns": {
          "_0": "True if account is added as Admin"
        }
      },
      "addTemplater(address)": {
        "details": "Access restricted only to Default Admin",
        "params": {
          "account": "Address of the new Templater"
        },
        "returns": {
          "_0": "True if account is added as Templater"
        }
      },
      "getRoleAdmin(bytes32)": {
        "details": "Returns the admin role that controls `role`. See {grantRole} and {revokeRole}. To change a role's admin, use {_setRoleAdmin}."
      },
      "getRoleMember(bytes32,uint256)": {
        "details": "Returns one of the accounts that have `role`. `index` must be a value between 0 and {getRoleMemberCount}, non-inclusive. Role bearers are not sorted in any particular way, and their ordering may change at any point. WARNING: When using {getRoleMember} and {getRoleMemberCount}, make sure you perform all queries on the same block. See the following https://forum.openzeppelin.com/t/iterating-over-elements-on-enumerableset-in-openzeppelin-contracts/2296[forum post] for more information."
      },
      "getRoleMemberCount(bytes32)": {
        "details": "Returns the number of accounts that have `role`. Can be used together with {getRoleMember} to enumerate all bearers of a role."
      },
      "grantRole(bytes32,address)": {
        "details": "Grants `role` to `account`. If `account` had not been already granted `role`, emits a {RoleGranted} event. Requirements: - the caller must have ``role``'s admin role."
      },
      "hasRole(bytes32,address)": {
        "details": "Returns `true` if `account` has been granted `role`."
      },
      "pause()": {
        "details": "the caller must have the 'PAUSER_ROLE'"
      },
      "paused()": {
        "details": "Returns true if the contract is paused, and false otherwise."
      },
      "removeAdmin(address)": {
        "details": "Access restricted only to Default Admin",
        "params": {
          "account": "Address of the Admin"
        },
        "returns": {
          "_0": "True if account is removed as Admin"
        }
      },
      "removeTemplater(address)": {
        "details": "Access restricted only to Default Admin",
        "params": {
          "account": "Address of the Templater"
        },
        "returns": {
          "_0": "True if account is removed as Templater"
        }
      },
      "renounceRole(bytes32,address)": {
        "details": "Revokes `role` from the calling account. Roles are often managed via {grantRole} and {revokeRole}: this function's purpose is to provide a mechanism for accounts to lose their privileges if they are compromised (such as when a trusted device is misplaced). If the calling account had been granted `role`, emits a {RoleRevoked} event. Requirements: - the caller must be `account`."
      },
      "revokeRole(bytes32,address)": {
        "details": "Revokes `role` from `account`. If `account` had been granted `role`, emits a {RoleRevoked} event. Requirements: - the caller must have ``role``'s admin role."
      },
      "unpause()": {
        "details": "the caller must have the 'PAUSER_ROLE'"
      }
    },
    "version": 1
  },
  "userdoc": {
    "kind": "user",
    "methods": {
      "addAdmin(address)": {
        "notice": "Add a new Admin"
      },
      "addTemplater(address)": {
        "notice": "Add a new Templater"
      },
      "isTrustedForwarder(address)": {
        "notice": "return if the forwarder is trusted to forward relayed transactions to us. the forwarder is required to verify the sender's signature, and verify the call is not a replay."
      },
      "pause()": {
        "notice": "Pause all the functions"
      },
      "removeAdmin(address)": {
        "notice": "Remove an Admin"
      },
      "removeTemplater(address)": {
        "notice": "Remove a Templater"
      },
      "unpause()": {
        "notice": "Unpause all the functions"
      }
    },
    "version": 1
  }
}