{
  "contractName": "CryticTestBadgeRoles",
  "abi": [
    {
      "inputs": [],
      "stateMutability": "nonpayable",
      "type": "constructor"
    },
    {
      "anonymous": false,
      "inputs": [
        {
          "indexed": false,
          "internalType": "address",
          "name": "account",
          "type": "address"
        }
      ],
      "name": "Paused",
      "type": "event"
    },
    {
      "anonymous": false,
      "inputs": [
        {
          "indexed": true,
          "internalType": "bytes32",
          "name": "role",
          "type": "bytes32"
        },
        {
          "indexed": true,
          "internalType": "bytes32",
          "name": "previousAdminRole",
          "type": "bytes32"
        },
        {
          "indexed": true,
          "internalType": "bytes32",
          "name": "newAdminRole",
          "type": "bytes32"
        }
      ],
      "name": "RoleAdminChanged",
      "type": "event"
    },
    {
      "anonymous": false,
      "inputs": [
        {
          "indexed": true,
          "internalType": "bytes32",
          "name": "role",
          "type": "bytes32"
        },
        {
          "indexed": true,
          "internalType": "address",
          "name": "account",
          "type": "address"
        },
        {
          "indexed": true,
          "internalType": "address",
          "name": "sender",
          "type": "address"
        }
      ],
      "name": "RoleGranted",
      "type": "event"
    },
    {
      "anonymous": false,
      "inputs": [
        {
          "indexed": true,
          "internalType": "bytes32",
          "name": "role",
          "type": "bytes32"
        },
        {
          "indexed": true,
          "internalType": "address",
          "name": "account",
          "type": "address"
        },
        {
          "indexed": true,
          "internalType": "address",
          "name": "sender",
          "type": "address"
        }
      ],
      "name": "RoleRevoked",
      "type": "event"
    },
    {
      "anonymous": false,
      "inputs": [
        {
          "indexed": false,
          "internalType": "address",
          "name": "account",
          "type": "address"
        }
      ],
      "name": "Unpaused",
      "type": "event"
    },
    {
      "inputs": [],
      "name": "ADMIN_ROLE",
      "outputs": [
        {
          "internalType": "bytes32",
          "name": "",
          "type": "bytes32"
        }
      ],
      "stateMutability": "view",
      "type": "function"
    },
    {
      "inputs": [],
      "name": "DEFAULT_ADMIN_ROLE",
      "outputs": [
        {
          "internalType": "bytes32",
          "name": "",
          "type": "bytes32"
        }
      ],
      "stateMutability": "view",
      "type": "function"
    },
    {
      "inputs": [],
      "name": "PAUSER_ROLE",
      "outputs": [
        {
          "internalType": "bytes32",
          "name": "",
          "type": "bytes32"
        }
      ],
      "stateMutability": "view",
      "type": "function"
    },
    {
      "inputs": [],
      "name": "TEMPLATER_ROLE",
      "outputs": [
        {
          "internalType": "bytes32",
          "name": "",
          "type": "bytes32"
        }
      ],
      "stateMutability": "view",
      "type": "function"
    },
    {
      "inputs": [
        {
          "internalType": "address",
          "name": "account",
          "type": "address"
        }
      ],
      "name": "addAdmin",
      "outputs": [
        {
          "internalType": "bool",
          "name": "",
          "type": "bool"
        }
      ],
      "stateMutability": "nonpayable",
      "type": "function"
    },
    {
      "inputs": [
        {
          "internalType": "address",
          "name": "account",
          "type": "address"
        }
      ],
      "name": "addTemplater",
      "outputs": [
        {
          "internalType": "bool",
          "name": "",
          "type": "bool"
        }
      ],
      "stateMutability": "nonpayable",
      "type": "function"
    },
    {
      "inputs": [
        {
          "internalType": "bytes32",
          "name": "role",
          "type": "bytes32"
        }
      ],
      "name": "getRoleAdmin",
      "outputs": [
        {
          "internalType": "bytes32",
          "name": "",
          "type": "bytes32"
        }
      ],
      "stateMutability": "view",
      "type": "function"
    },
    {
      "inputs": [
        {
          "internalType": "bytes32",
          "name": "role",
          "type": "bytes32"
        },
        {
          "internalType": "uint256",
          "name": "index",
          "type": "uint256"
        }
      ],
      "name": "getRoleMember",
      "outputs": [
        {
          "internalType": "address",
          "name": "",
          "type": "address"
        }
      ],
      "stateMutability": "view",
      "type": "function"
    },
    {
      "inputs": [
        {
          "internalType": "bytes32",
          "name": "role",
          "type": "bytes32"
        }
      ],
      "name": "getRoleMemberCount",
      "outputs": [
        {
          "internalType": "uint256",
          "name": "",
          "type": "uint256"
        }
      ],
      "stateMutability": "view",
      "type": "function"
    },
    {
      "inputs": [
        {
          "internalType": "bytes32",
          "name": "role",
          "type": "bytes32"
        },
        {
          "internalType": "address",
          "name": "account",
          "type": "address"
        }
      ],
      "name": "grantRole",
      "outputs": [],
      "stateMutability": "nonpayable",
      "type": "function"
    },
    {
      "inputs": [
        {
          "internalType": "bytes32",
          "name": "role",
          "type": "bytes32"
        },
        {
          "internalType": "address",
          "name": "account",
          "type": "address"
        }
      ],
      "name": "hasRole",
      "outputs": [
        {
          "internalType": "bool",
          "name": "",
          "type": "bool"
        }
      ],
      "stateMutability": "view",
      "type": "function"
    },
    {
      "inputs": [],
      "name": "pause",
      "outputs": [],
      "stateMutability": "nonpayable",
      "type": "function"
    },
    {
      "inputs": [],
      "name": "paused",
      "outputs": [
        {
          "internalType": "bool",
          "name": "",
          "type": "bool"
        }
      ],
      "stateMutability": "view",
      "type": "function"
    },
    {
      "inputs": [
        {
          "internalType": "address",
          "name": "account",
          "type": "address"
        }
      ],
      "name": "removeAdmin",
      "outputs": [
        {
          "internalType": "bool",
          "name": "",
          "type": "bool"
        }
      ],
      "stateMutability": "nonpayable",
      "type": "function"
    },
    {
      "inputs": [
        {
          "internalType": "address",
          "name": "account",
          "type": "address"
        }
      ],
      "name": "removeTemplater",
      "outputs": [
        {
          "internalType": "bool",
          "name": "",
          "type": "bool"
        }
      ],
      "stateMutability": "nonpayable",
      "type": "function"
    },
    {
      "inputs": [
        {
          "internalType": "bytes32",
          "name": "role",
          "type": "bytes32"
        },
        {
          "internalType": "address",
          "name": "account",
          "type": "address"
        }
      ],
      "name": "renounceRole",
      "outputs": [],
      "stateMutability": "nonpayable",
      "type": "function"
    },
    {
      "inputs": [
        {
          "internalType": "bytes32",
          "name": "role",
          "type": "bytes32"
        },
        {
          "internalType": "address",
          "name": "account",
          "type": "address"
        }
      ],
      "name": "revokeRole",
      "outputs": [],
      "stateMutability": "nonpayable",
      "type": "function"
    },
    {
      "inputs": [],
      "name": "unpause",
      "outputs": [],
      "stateMutability": "nonpayable",
      "type": "function"
    },
    {
      "inputs": [],
      "name": "crytic_default_admin_constant",
      "outputs": [
        {
          "internalType": "bool",
          "name": "",
          "type": "bool"
        }
      ],
      "stateMutability": "view",
      "type": "function"
    },
    {
      "inputs": [],
      "name": "crytic_admin_constant",
      "outputs": [
        {
          "internalType": "bool",
          "name": "",
          "type": "bool"
        }
      ],
      "stateMutability": "view",
      "type": "function"
    },
    {
      "inputs": [],
      "name": "crytic_templater_constant",
      "outputs": [
        {
          "internalType": "bool",
          "name": "",
          "type": "bool"
        }
      ],
      "stateMutability": "view",
      "type": "function"
    },
    {
      "inputs": [],
      "name": "crytic_pauser_constant",
      "outputs": [
        {
          "internalType": "bool",
          "name": "",
          "type": "bool"
        }
      ],
      "stateMutability": "view",
      "type": "function"
    }
  ],
  "bytecode": "0x60806040523480156200001157600080fd5b506000600160006101000a81548160ff021916908315150217905550620000426000801b336200019960201b60201c565b620000747fa49807205ce4d355092ef5a8a18f56e8913cf4a201fbe287825b095693c21775336200019960201b60201c565b620000a67f82fc59a2af283c7e52e3f7cf8d269383062c6603a1ab4300e32135abe128a476336200019960201b60201c565b620000d87f65d7a28e3265b37a6474929f336521b332c1681b933f6cb9f3376673440d862a336200019960201b60201c565b620000f16000801b63414141416200019960201b60201c565b620001277fa49807205ce4d355092ef5a8a18f56e8913cf4a201fbe287825b095693c2177563414141416200019960201b60201c565b6200015d7f82fc59a2af283c7e52e3f7cf8d269383062c6603a1ab4300e32135abe128a47663414141416200019960201b60201c565b620001937f65d7a28e3265b37a6474929f336521b332c1681b933f6cb9f3376673440d862a63414141416200019960201b60201c565b6200032f565b620001ab8282620001af60201b60201c565b5050565b620001dd816000808581526020019081526020016000206000016200025260201b62000e1c1790919060201c565b156200024e57620001f36200028a60201b60201c565b73ffffffffffffffffffffffffffffffffffffffff168173ffffffffffffffffffffffffffffffffffffffff16837f2f8788117e7eff1d82e926ec794901d17c78024a50270940304540a733656f0d60405160405180910390a45b5050565b600062000282836000018373ffffffffffffffffffffffffffffffffffffffff1660001b6200029260201b60201c565b905092915050565b600033905090565b6000620002a683836200030c60201b60201c565b6200030157826000018290806001815401808255809150506001900390600052602060002001600090919091909150558260000180549050836001016000848152602001908152602001600020819055506001905062000306565b600090505b92915050565b600080836001016000848152602001908152602001600020541415905092915050565b611594806200033f6000396000f3fe608060405234801561001057600080fd5b50600436106101425760003560e01c806370480275116100b8578063a217fddf1161007c578063a217fddf146104c9578063c3efb950146104e7578063ca15c87314610507578063d547741f14610549578063e63ab1e914610597578063e6c0d714146105b557610142565b8063704802751461038157806375b238fc146103db5780638456cb59146103f95780639010d07c1461040357806391d148541461046557610142565b806336568abe1161010a57806336568abe146102715780633f4ba83a146102bf5780634ba360ba146102c95780635c975abb146103235780635fc28293146103435780636cdd0a161461036357610142565b80630cfa45f9146101475780631785f53c1461016757806323e85ea1146101c1578063248a9ca3146101e15780632f2ff15d14610223575b600080fd5b61014f61060f565b60405180821515815260200191505060405180910390f35b6101a96004803603602081101561017d57600080fd5b81019080803573ffffffffffffffffffffffffffffffffffffffff169060200190929190505050610644565b60405180821515815260200191505060405180910390f35b6101c96106db565b60405180821515815260200191505060405180910390f35b61020d600480360360208110156101f757600080fd5b81019080803590602001909291905050506106f3565b6040518082815260200191505060405180910390f35b61026f6004803603604081101561023957600080fd5b8101908080359060200190929190803573ffffffffffffffffffffffffffffffffffffffff169060200190929190505050610712565b005b6102bd6004803603604081101561028757600080fd5b8101908080359060200190929190803573ffffffffffffffffffffffffffffffffffffffff16906020019092919050505061079b565b005b6102c7610834565b005b61030b600480360360208110156102df57600080fd5b81019080803573ffffffffffffffffffffffffffffffffffffffff1690602001909291905050506108bd565b60405180821515815260200191505060405180910390f35b61032b610954565b60405180821515815260200191505060405180910390f35b61034b61096b565b60405180821515815260200191505060405180910390f35b61036b6109a0565b6040518082815260200191505060405180910390f35b6103c36004803603602081101561039757600080fd5b81019080803573ffffffffffffffffffffffffffffffffffffffff1690602001909291905050506109c4565b60405180821515815260200191505060405180910390f35b6103e3610ae1565b6040518082815260200191505060405180910390f35b610401610b05565b005b6104396004803603604081101561041957600080fd5b810190808035906020019092919080359060200190929190505050610b8e565b604051808273ffffffffffffffffffffffffffffffffffffffff16815260200191505060405180910390f35b6104b16004803603604081101561047b57600080fd5b8101908080359060200190929190803573ffffffffffffffffffffffffffffffffffffffff169060200190929190505050610bbf565b60405180821515815260200191505060405180910390f35b6104d1610bf0565b6040518082815260200191505060405180910390f35b6104ef610bf7565b60405180821515815260200191505060405180910390f35b6105336004803603602081101561051d57600080fd5b8101908080359060200190929190505050610c2c565b6040518082815260200191505060405180910390f35b6105956004803603604081101561055f57600080fd5b8101908080359060200190929190803573ffffffffffffffffffffffffffffffffffffffff169060200190929190505050610c52565b005b61059f610cdb565b6040518082815260200191505060405180910390f35b6105f7600480360360208110156105cb57600080fd5b81019080803573ffffffffffffffffffffffffffffffffffffffff169060200190929190505050610cff565b60405180821515815260200191505060405180910390f35b600061063f7f82fc59a2af283c7e52e3f7cf8d269383062c6603a1ab4300e32135abe128a4766341414141610bbf565b905090565b60006106536000801b33610bbf565b6106a8576040517f08c379a000000000000000000000000000000000000000000000000000000000815260040180806020018281038252602d81526020018061147e602d913960400191505060405180910390fd5b6106d27fa49807205ce4d355092ef5a8a18f56e8913cf4a201fbe287825b095693c2177583610c52565b60019050919050565b60006106ee6000801b6341414141610bbf565b905090565b6000806000838152602001908152602001600020600201549050919050565b61073860008084815260200190815260200160002060020154610733610e4c565b610bbf565b61078d576040517f08c379a000000000000000000000000000000000000000000000000000000000815260040180806020018281038252602f815260200180611421602f913960400191505060405180910390fd5b6107978282610e54565b5050565b6107a3610e4c565b73ffffffffffffffffffffffffffffffffffffffff168173ffffffffffffffffffffffffffffffffffffffff1614610826576040517f08c379a000000000000000000000000000000000000000000000000000000000815260040180806020018281038252602f815260200180611530602f913960400191505060405180910390fd5b6108308282610ee7565b5050565b61085e7f65d7a28e3265b37a6474929f336521b332c1681b933f6cb9f3376673440d862a33610bbf565b6108b3576040517f08c379a000000000000000000000000000000000000000000000000000000000815260040180806020018281038252602e815260200180611450602e913960400191505060405180910390fd5b6108bb610f7a565b565b60006108cc6000801b33610bbf565b610921576040517f08c379a000000000000000000000000000000000000000000000000000000000815260040180806020018281038252602d81526020018061147e602d913960400191505060405180910390fd5b61094b7f82fc59a2af283c7e52e3f7cf8d269383062c6603a1ab4300e32135abe128a47683610c52565b60019050919050565b6000600160009054906101000a900460ff16905090565b600061099b7f65d7a28e3265b37a6474929f336521b332c1681b933f6cb9f3376673440d862a6341414141610bbf565b905090565b7f82fc59a2af283c7e52e3f7cf8d269383062c6603a1ab4300e32135abe128a47681565b60006109d36000801b33610bbf565b610a28576040517f08c379a000000000000000000000000000000000000000000000000000000000815260040180806020018281038252602d81526020018061147e602d913960400191505060405180910390fd5b600073ffffffffffffffffffffffffffffffffffffffff168273ffffffffffffffffffffffffffffffffffffffff161415610aae576040517f08c379a00000000000000000000000000000000000000000000000000000000081526004018080602001828103825260298152602001806114db6029913960400191505060405180910390fd5b610ad87fa49807205ce4d355092ef5a8a18f56e8913cf4a201fbe287825b095693c2177583610712565b60019050919050565b7fa49807205ce4d355092ef5a8a18f56e8913cf4a201fbe287825b095693c2177581565b610b2f7f65d7a28e3265b37a6474929f336521b332c1681b933f6cb9f3376673440d862a33610bbf565b610b84576040517f08c379a000000000000000000000000000000000000000000000000000000000815260040180806020018281038252602c815260200180611504602c913960400191505060405180910390fd5b610b8c61106d565b565b6000610bb78260008086815260200190815260200160002060000161116090919063ffffffff16565b905092915050565b6000610be88260008086815260200190815260200160002060000161117a90919063ffffffff16565b905092915050565b6000801b81565b6000610c277fa49807205ce4d355092ef5a8a18f56e8913cf4a201fbe287825b095693c217756341414141610bbf565b905090565b6000610c4b6000808481526020019081526020016000206000016111aa565b9050919050565b610c7860008084815260200190815260200160002060020154610c73610e4c565b610bbf565b610ccd576040517f08c379a00000000000000000000000000000000000000000000000000000000081526004018080602001828103825260308152602001806114ab6030913960400191505060405180910390fd5b610cd78282610ee7565b5050565b7f65d7a28e3265b37a6474929f336521b332c1681b933f6cb9f3376673440d862a81565b6000610d0e6000801b33610bbf565b610d63576040517f08c379a000000000000000000000000000000000000000000000000000000000815260040180806020018281038252602d81526020018061147e602d913960400191505060405180910390fd5b600073ffffffffffffffffffffffffffffffffffffffff168273ffffffffffffffffffffffffffffffffffffffff161415610de9576040517f08c379a00000000000000000000000000000000000000000000000000000000081526004018080602001828103825260298152602001806114db6029913960400191505060405180910390fd5b610e137f82fc59a2af283c7e52e3f7cf8d269383062c6603a1ab4300e32135abe128a47683610712565b60019050919050565b6000610e44836000018373ffffffffffffffffffffffffffffffffffffffff1660001b6111bf565b905092915050565b600033905090565b610e7b81600080858152602001908152602001600020600001610e1c90919063ffffffff16565b15610ee357610e88610e4c565b73ffffffffffffffffffffffffffffffffffffffff168173ffffffffffffffffffffffffffffffffffffffff16837f2f8788117e7eff1d82e926ec794901d17c78024a50270940304540a733656f0d60405160405180910390a45b5050565b610f0e8160008085815260200190815260200160002060000161122f90919063ffffffff16565b15610f7657610f1b610e4c565b73ffffffffffffffffffffffffffffffffffffffff168173ffffffffffffffffffffffffffffffffffffffff16837ff6391f5c32d9c69d2a47ea670b442974b53935d1edc7fd64eb21e047a839171b60405160405180910390a45b5050565b600160009054906101000a900460ff16610ffc576040517f08c379a00000000000000000000000000000000000000000000000000000000081526004018080602001828103825260148152602001807f5061757361626c653a206e6f742070617573656400000000000000000000000081525060200191505060405180910390fd5b6000600160006101000a81548160ff0219169083151502179055507f5db9ee0a495bf2e6ff9c91a7834c1ba4fdd244a5e8aa4e537bd38aeae4b073aa611040610e4c565b604051808273ffffffffffffffffffffffffffffffffffffffff16815260200191505060405180910390a1565b600160009054906101000a900460ff16156110f0576040517f08c379a00000000000000000000000000000000000000000000000000000000081526004018080602001828103825260108152602001807f5061757361626c653a207061757365640000000000000000000000000000000081525060200191505060405180910390fd5b60018060006101000a81548160ff0219169083151502179055507f62e78cea01bee320cd4e420270b5ea74000d11b0c9f74754ebdbfc544b05a258611133610e4c565b604051808273ffffffffffffffffffffffffffffffffffffffff16815260200191505060405180910390a1565b600061116f836000018361125f565b60001c905092915050565b60006111a2836000018373ffffffffffffffffffffffffffffffffffffffff1660001b6112e2565b905092915050565b60006111b882600001611305565b9050919050565b60006111cb83836112e2565b611224578260000182908060018154018082558091505060019003906000526020600020016000909190919091505582600001805490508360010160008481526020019081526020016000208190555060019050611229565b600090505b92915050565b6000611257836000018373ffffffffffffffffffffffffffffffffffffffff1660001b611316565b905092915050565b6000818360000180549050116112c0576040517f08c379a00000000000000000000000000000000000000000000000000000000081526004018080602001828103825260228152602001806113ff6022913960400191505060405180910390fd5b8260000182815481106112cf57fe5b9060005260206000200154905092915050565b600080836001016000848152602001908152602001600020541415905092915050565b600081600001805490509050919050565b600080836001016000848152602001908152602001600020549050600081146113f2576000600182039050600060018660000180549050039050600086600001828154811061136157fe5b906000526020600020015490508087600001848154811061137e57fe5b90600052602060002001819055506001830187600101600083815260200190815260200160002081905550866000018054806113b657fe5b600190038181906000526020600020016000905590558660010160008781526020019081526020016000206000905560019450505050506113f8565b60009150505b9291505056fe456e756d657261626c655365743a20696e646578206f7574206f6620626f756e6473416363657373436f6e74726f6c3a2073656e646572206d75737420626520616e2061646d696e20746f206772616e744261646765466163746f72793a206d75737420686176652070617573657220726f6c6520746f20756e70617573654261646765466163746f72793a2063616c6c6572206973206e6f74207468652064656661756c742061646d696e416363657373436f6e74726f6c3a2073656e646572206d75737420626520616e2061646d696e20746f207265766f6b654261646765466163746f72793a206163636f756e7420697320746865207a65726f20616464726573734261646765466163746f72793a206d75737420686176652070617573657220726f6c6520746f207061757365416363657373436f6e74726f6c3a2063616e206f6e6c792072656e6f756e636520726f6c657320666f722073656c66a26469706673582212209532141e63e802ef3f99720634fa5cb437bdd57c6f501d85ec648c0dbd66610564736f6c634300060c0033",
  "immutableReferences": {},
  "source": "// SPDX-License-Identifier: AGPL-3.0-or-later\n\npragma solidity 0.6.12;\n\nimport \"../BadgeRoles.sol\";\n\ncontract CryticInterface{\n    address constant internal crytic_owner = address(0x41414141);\n    //address constant internal crytic_user = address(0x42424242);\n    //address constant internal crytic_attacker = address(0x43434343);\n}\n\ncontract CryticTestBadgeRoles is CryticInterface, BadgeRoles {\n\n    constructor ()\n        public\n    {\n      _setupRole(DEFAULT_ADMIN_ROLE, crytic_owner);\n      _setupRole(ADMIN_ROLE, crytic_owner);\n      _setupRole(TEMPLATER_ROLE, crytic_owner);\n      _setupRole(PAUSER_ROLE, crytic_owner);\n    }\n\n    function crytic_default_admin_constant() external view returns(bool){\n        return hasRole(DEFAULT_ADMIN_ROLE, crytic_owner);\n    }\n\n    function crytic_admin_constant() external view returns(bool){\n        return hasRole(ADMIN_ROLE, crytic_owner);\n    }\n\n    function crytic_templater_constant() external view returns(bool){\n        return hasRole(TEMPLATER_ROLE, crytic_owner);\n    }\n\n    function crytic_pauser_constant() external view returns(bool){\n        return hasRole(PAUSER_ROLE, crytic_owner);\n    }\n\n}\n",
  "sourcePath": "/home/sencha/maker-badges/contracts/crytic/cryticBadgeRoles.sol",
  "compiler": {
    "name": "solc",
    "version": "0.6.12+commit.27d51765.Emscripten.clang"
  },
  "schemaVersion": "3.3.2",
  "updatedAt": "2020-12-05T19:11:50.181Z",
  "devdoc": {
    "kind": "dev",
    "methods": {
      "addAdmin(address)": {
        "details": "Access restricted only to Default Admin",
        "params": {
          "account": "Address of the new Admin"
        },
        "returns": {
          "_0": "True if account is added as Admin"
        }
      },
      "addTemplater(address)": {
        "details": "Access restricted only to Default Admin",
        "params": {
          "account": "Address of the new Templater"
        },
        "returns": {
          "_0": "True if account is added as Templater"
        }
      },
      "getRoleAdmin(bytes32)": {
        "details": "Returns the admin role that controls `role`. See {grantRole} and {revokeRole}. To change a role's admin, use {_setRoleAdmin}."
      },
      "getRoleMember(bytes32,uint256)": {
        "details": "Returns one of the accounts that have `role`. `index` must be a value between 0 and {getRoleMemberCount}, non-inclusive. Role bearers are not sorted in any particular way, and their ordering may change at any point. WARNING: When using {getRoleMember} and {getRoleMemberCount}, make sure you perform all queries on the same block. See the following https://forum.openzeppelin.com/t/iterating-over-elements-on-enumerableset-in-openzeppelin-contracts/2296[forum post] for more information."
      },
      "getRoleMemberCount(bytes32)": {
        "details": "Returns the number of accounts that have `role`. Can be used together with {getRoleMember} to enumerate all bearers of a role."
      },
      "grantRole(bytes32,address)": {
        "details": "Grants `role` to `account`. If `account` had not been already granted `role`, emits a {RoleGranted} event. Requirements: - the caller must have ``role``'s admin role."
      },
      "hasRole(bytes32,address)": {
        "details": "Returns `true` if `account` has been granted `role`."
      },
      "pause()": {
        "details": "the caller must have the 'PAUSER_ROLE'"
      },
      "paused()": {
        "details": "Returns true if the contract is paused, and false otherwise."
      },
      "removeAdmin(address)": {
        "details": "Access restricted only to Default Admin",
        "params": {
          "account": "Address of the Admin"
        },
        "returns": {
          "_0": "True if account is removed as Admin"
        }
      },
      "removeTemplater(address)": {
        "details": "Access restricted only to Default Admin",
        "params": {
          "account": "Address of the Templater"
        },
        "returns": {
          "_0": "True if account is removed as Templater"
        }
      },
      "renounceRole(bytes32,address)": {
        "details": "Revokes `role` from the calling account. Roles are often managed via {grantRole} and {revokeRole}: this function's purpose is to provide a mechanism for accounts to lose their privileges if they are compromised (such as when a trusted device is misplaced). If the calling account had been granted `role`, emits a {RoleRevoked} event. Requirements: - the caller must be `account`."
      },
      "revokeRole(bytes32,address)": {
        "details": "Revokes `role` from `account`. If `account` had been granted `role`, emits a {RoleRevoked} event. Requirements: - the caller must have ``role``'s admin role."
      },
      "unpause()": {
        "details": "the caller must have the 'PAUSER_ROLE'"
      }
    },
    "version": 1
  },
  "userdoc": {
    "kind": "user",
    "methods": {
      "addAdmin(address)": {
        "notice": "Add a new Admin"
      },
      "addTemplater(address)": {
        "notice": "Add a new Templater"
      },
      "pause()": {
        "notice": "Pause all the functions"
      },
      "removeAdmin(address)": {
        "notice": "Remove an Admin"
      },
      "removeTemplater(address)": {
        "notice": "Remove a Templater"
      },
      "unpause()": {
        "notice": "Unpause all the functions"
      }
    },
    "version": 1
  }
}