{
  "contractName": "MakerBadges",
  "abi": [
    {
      "inputs": [
        {
          "internalType": "address",
          "name": "chai_",
          "type": "address"
        },
        {
          "internalType": "address",
          "name": "chief_",
          "type": "address"
        },
        {
          "internalType": "address",
          "name": "flipper_",
          "type": "address"
        }
      ],
      "stateMutability": "nonpayable",
      "type": "constructor"
    },
    {
      "anonymous": false,
      "inputs": [
        {
          "indexed": true,
          "internalType": "address",
          "name": "usr",
          "type": "address"
        }
      ],
      "name": "ChaiChecked",
      "type": "event"
    },
    {
      "anonymous": false,
      "inputs": [
        {
          "indexed": true,
          "internalType": "address",
          "name": "guy",
          "type": "address"
        }
      ],
      "name": "DSChiefChecked",
      "type": "event"
    },
    {
      "anonymous": false,
      "inputs": [
        {
          "indexed": true,
          "internalType": "address",
          "name": "guy",
          "type": "address"
        }
      ],
      "name": "FlipperChecked",
      "type": "event"
    },
    {
      "anonymous": false,
      "inputs": [
        {
          "indexed": false,
          "internalType": "address",
          "name": "account",
          "type": "address"
        }
      ],
      "name": "Paused",
      "type": "event"
    },
    {
      "anonymous": false,
      "inputs": [
        {
          "indexed": true,
          "internalType": "address",
          "name": "guy",
          "type": "address"
        }
      ],
      "name": "RobotChecked",
      "type": "event"
    },
    {
      "anonymous": false,
      "inputs": [
        {
          "indexed": true,
          "internalType": "bytes32",
          "name": "role",
          "type": "bytes32"
        },
        {
          "indexed": true,
          "internalType": "bytes32",
          "name": "previousAdminRole",
          "type": "bytes32"
        },
        {
          "indexed": true,
          "internalType": "bytes32",
          "name": "newAdminRole",
          "type": "bytes32"
        }
      ],
      "name": "RoleAdminChanged",
      "type": "event"
    },
    {
      "anonymous": false,
      "inputs": [
        {
          "indexed": true,
          "internalType": "bytes32",
          "name": "role",
          "type": "bytes32"
        },
        {
          "indexed": true,
          "internalType": "address",
          "name": "account",
          "type": "address"
        },
        {
          "indexed": true,
          "internalType": "address",
          "name": "sender",
          "type": "address"
        }
      ],
      "name": "RoleGranted",
      "type": "event"
    },
    {
      "anonymous": false,
      "inputs": [
        {
          "indexed": true,
          "internalType": "bytes32",
          "name": "role",
          "type": "bytes32"
        },
        {
          "indexed": true,
          "internalType": "address",
          "name": "account",
          "type": "address"
        },
        {
          "indexed": true,
          "internalType": "address",
          "name": "sender",
          "type": "address"
        }
      ],
      "name": "RoleRevoked",
      "type": "event"
    },
    {
      "anonymous": false,
      "inputs": [
        {
          "indexed": false,
          "internalType": "address",
          "name": "account",
          "type": "address"
        }
      ],
      "name": "Unpaused",
      "type": "event"
    },
    {
      "stateMutability": "nonpayable",
      "type": "fallback"
    },
    {
      "inputs": [],
      "name": "DEFAULT_ADMIN_ROLE",
      "outputs": [
        {
          "internalType": "bytes32",
          "name": "",
          "type": "bytes32"
        }
      ],
      "stateMutability": "view",
      "type": "function",
      "constant": true
    },
    {
      "inputs": [],
      "name": "PAUSER_ROLE",
      "outputs": [
        {
          "internalType": "bytes32",
          "name": "",
          "type": "bytes32"
        }
      ],
      "stateMutability": "view",
      "type": "function",
      "constant": true
    },
    {
      "inputs": [],
      "name": "chaiId",
      "outputs": [
        {
          "internalType": "uint256",
          "name": "",
          "type": "uint256"
        }
      ],
      "stateMutability": "view",
      "type": "function",
      "constant": true
    },
    {
      "inputs": [],
      "name": "chiefId",
      "outputs": [
        {
          "internalType": "uint256",
          "name": "",
          "type": "uint256"
        }
      ],
      "stateMutability": "view",
      "type": "function",
      "constant": true
    },
    {
      "inputs": [],
      "name": "flipperId",
      "outputs": [
        {
          "internalType": "uint256",
          "name": "",
          "type": "uint256"
        }
      ],
      "stateMutability": "view",
      "type": "function",
      "constant": true
    },
    {
      "inputs": [
        {
          "internalType": "bytes32",
          "name": "role",
          "type": "bytes32"
        }
      ],
      "name": "getRoleAdmin",
      "outputs": [
        {
          "internalType": "bytes32",
          "name": "",
          "type": "bytes32"
        }
      ],
      "stateMutability": "view",
      "type": "function",
      "constant": true
    },
    {
      "inputs": [
        {
          "internalType": "bytes32",
          "name": "role",
          "type": "bytes32"
        },
        {
          "internalType": "uint256",
          "name": "index",
          "type": "uint256"
        }
      ],
      "name": "getRoleMember",
      "outputs": [
        {
          "internalType": "address",
          "name": "",
          "type": "address"
        }
      ],
      "stateMutability": "view",
      "type": "function",
      "constant": true
    },
    {
      "inputs": [
        {
          "internalType": "bytes32",
          "name": "role",
          "type": "bytes32"
        }
      ],
      "name": "getRoleMemberCount",
      "outputs": [
        {
          "internalType": "uint256",
          "name": "",
          "type": "uint256"
        }
      ],
      "stateMutability": "view",
      "type": "function",
      "constant": true
    },
    {
      "inputs": [
        {
          "internalType": "bytes32",
          "name": "role",
          "type": "bytes32"
        },
        {
          "internalType": "address",
          "name": "account",
          "type": "address"
        }
      ],
      "name": "grantRole",
      "outputs": [],
      "stateMutability": "nonpayable",
      "type": "function"
    },
    {
      "inputs": [
        {
          "internalType": "bytes32",
          "name": "role",
          "type": "bytes32"
        },
        {
          "internalType": "address",
          "name": "account",
          "type": "address"
        }
      ],
      "name": "hasRole",
      "outputs": [
        {
          "internalType": "bool",
          "name": "",
          "type": "bool"
        }
      ],
      "stateMutability": "view",
      "type": "function",
      "constant": true
    },
    {
      "inputs": [],
      "name": "paused",
      "outputs": [
        {
          "internalType": "bool",
          "name": "",
          "type": "bool"
        }
      ],
      "stateMutability": "view",
      "type": "function",
      "constant": true
    },
    {
      "inputs": [
        {
          "internalType": "bytes32",
          "name": "role",
          "type": "bytes32"
        },
        {
          "internalType": "address",
          "name": "account",
          "type": "address"
        }
      ],
      "name": "renounceRole",
      "outputs": [],
      "stateMutability": "nonpayable",
      "type": "function"
    },
    {
      "inputs": [
        {
          "internalType": "bytes32",
          "name": "role",
          "type": "bytes32"
        },
        {
          "internalType": "address",
          "name": "account",
          "type": "address"
        }
      ],
      "name": "revokeRole",
      "outputs": [],
      "stateMutability": "nonpayable",
      "type": "function"
    },
    {
      "inputs": [],
      "name": "robotId",
      "outputs": [
        {
          "internalType": "uint256",
          "name": "",
          "type": "uint256"
        }
      ],
      "stateMutability": "view",
      "type": "function",
      "constant": true
    },
    {
      "inputs": [],
      "name": "chaiChallenge",
      "outputs": [],
      "stateMutability": "nonpayable",
      "type": "function"
    },
    {
      "inputs": [],
      "name": "chiefChallenge",
      "outputs": [],
      "stateMutability": "nonpayable",
      "type": "function"
    },
    {
      "inputs": [
        {
          "internalType": "address",
          "name": "_proxy",
          "type": "address"
        }
      ],
      "name": "robotChallenge",
      "outputs": [],
      "stateMutability": "nonpayable",
      "type": "function"
    },
    {
      "inputs": [
        {
          "internalType": "uint256",
          "name": "bidId",
          "type": "uint256"
        }
      ],
      "name": "flipperChallenge",
      "outputs": [],
      "stateMutability": "nonpayable",
      "type": "function"
    },
    {
      "inputs": [
        {
          "internalType": "uint256",
          "name": "templateId",
          "type": "uint256"
        },
        {
          "internalType": "address",
          "name": "guy",
          "type": "address"
        }
      ],
      "name": "verify",
      "outputs": [
        {
          "internalType": "bool",
          "name": "",
          "type": "bool"
        }
      ],
      "stateMutability": "view",
      "type": "function",
      "constant": true
    },
    {
      "inputs": [],
      "name": "pause",
      "outputs": [],
      "stateMutability": "nonpayable",
      "type": "function"
    },
    {
      "inputs": [],
      "name": "unpause",
      "outputs": [],
      "stateMutability": "nonpayable",
      "type": "function"
    }
  ],
  "bytecode": "0x60e06040523480156200001157600080fd5b50604051620028f6380380620028f68339818101604052810190620000379190620002f4565b6000600160006101000a81548160ff021916908315150217905550620000676000801b336200014760201b60201c565b620000997f65d7a28e3265b37a6474929f336521b332c1681b933f6cb9f3376673440d862a336200014760201b60201c565b8273ffffffffffffffffffffffffffffffffffffffff1660808173ffffffffffffffffffffffffffffffffffffffff1660601b815250508173ffffffffffffffffffffffffffffffffffffffff1660a08173ffffffffffffffffffffffffffffffffffffffff1660601b815250508073ffffffffffffffffffffffffffffffffffffffff1660c08173ffffffffffffffffffffffffffffffffffffffff1660601b8152505050505062000398565b6200015982826200015d60201b60201c565b5050565b6200018b816000808581526020019081526020016000206000016200020060201b620011741790919060201c565b15620001fc57620001a16200023860201b60201c565b73ffffffffffffffffffffffffffffffffffffffff168173ffffffffffffffffffffffffffffffffffffffff16837f2f8788117e7eff1d82e926ec794901d17c78024a50270940304540a733656f0d60405160405180910390a45b5050565b600062000230836000018373ffffffffffffffffffffffffffffffffffffffff1660001b6200024060201b60201c565b905092915050565b600033905090565b6000620002548383620002ba60201b60201c565b620002af578260000182908060018154018082558091505060019003906000526020600020016000909190919091505582600001805490508360010160008481526020019081526020016000208190555060019050620002b4565b600090505b92915050565b600080836001016000848152602001908152602001600020541415905092915050565b600081519050620002ee816200037e565b92915050565b6000806000606084860312156200030a57600080fd5b60006200031a86828701620002dd565b93505060206200032d86828701620002dd565b92505060406200034086828701620002dd565b9150509250925092565b600062000357826200035e565b9050919050565b600073ffffffffffffffffffffffffffffffffffffffff82169050919050565b62000389816200034a565b81146200039557600080fd5b50565b60805160601c60a05160601c60c05160601c612523620003d36000398061047a5250806108b55280610c45525080610fe552506125236000f3fe608060405234801561001057600080fd5b506004361061013b5760003560e01c80638e84f9c1116100b8578063ca15c8731161007c578063ca15c8731461032b578063ce90c4d41461035b578063d547741f14610379578063de2e644314610395578063e63ab1e91461039f578063ebfa62b9146103bd5761013c565b80638e84f9c1146102855780639010d07c1461028f578063904a2d12146102bf57806391d14854146102dd578063a217fddf1461030d5761013c565b80633f4ba83a116100ff5780633f4ba83a146102195780635c975abb1461022357806368d9fff4146102415780638456cb591461025f5780638de9494b146102695761013c565b80630831b44614610177578063248a9ca3146101955780632878fcb8146101c55780632f2ff15d146101e157806336568abe146101fd5761013c565b5b6040517f08c379a000000000000000000000000000000000000000000000000000000000815260040161016e9061217e565b60405180910390fd5b61017f6103ed565b60405161018c919061239e565b60405180910390f35b6101af60048036038101906101aa9190611859565b6103f2565b6040516101bc9190612163565b60405180910390f35b6101df60048036038101906101da919061194d565b610411565b005b6101fb60048036038101906101f691906118ab565b610627565b005b610217600480360381019061021291906118ab565b61069a565b005b61022161071d565b005b61022b610790565b6040516102389190612148565b60405180910390f35b6102496107a7565b604051610256919061239e565b60405180910390f35b6102676107ac565b005b610283600480360381019061027e9190611807565b61081f565b005b61028d610bef565b005b6102a960048036038101906102a491906118e7565b610dd7565b6040516102b69190612112565b60405180910390f35b6102c7610e08565b6040516102d4919061239e565b60405180910390f35b6102f760048036038101906102f291906118ab565b610e0d565b6040516103049190612148565b60405180910390f35b610315610e3e565b6040516103229190612163565b60405180910390f35b61034560048036038101906103409190611859565b610e45565b604051610352919061239e565b60405180910390f35b610363610e6b565b604051610370919061239e565b60405180910390f35b610393600480360381019061038e91906118ab565b610e70565b005b61039d610ee3565b005b6103a76110d1565b6040516103b49190612163565b60405180910390f35b6103d760048036038101906103d2919061199f565b6110f5565b6040516103e49190612148565b60405180910390f35b600281565b6000806000838152602001908152602001600020600201549050919050565b600160009054906101000a900460ff1615610461576040517f08c379a00000000000000000000000000000000000000000000000000000000081526004016104589061229e565b60405180910390fd5b3373ffffffffffffffffffffffffffffffffffffffff167f000000000000000000000000000000000000000000000000000000000000000073ffffffffffffffffffffffffffffffffffffffff16634423c5f1836040518263ffffffff1660e01b81526004016104d1919061239e565b6101006040518083038186803b1580156104ea57600080fd5b505afa1580156104fe573d6000803e3d6000fd5b505050506040513d601f19601f820116820180604052508101906105229190611923565b6040015173ffffffffffffffffffffffffffffffffffffffff161461057c576040517f08c379a00000000000000000000000000000000000000000000000000000000081526004016105739061233e565b60405180910390fd5b6105a233600260006003815260200190815260200160002061117490919063ffffffff16565b6105e1576040517f08c379a00000000000000000000000000000000000000000000000000000000081526004016105d8906122fe565b60405180910390fd5b3373ffffffffffffffffffffffffffffffffffffffff167f430bb0ab986389293d8f0855931d73d3e3bdc06890eb3e780550c98a7582a7ef60405160405180910390a250565b61064d600080848152602001908152602001600020600201546106486111a4565b610e0d565b61068c576040517f08c379a0000000000000000000000000000000000000000000000000000000008152600401610683906121de565b60405180910390fd5b61069682826111ac565b5050565b6106a26111a4565b73ffffffffffffffffffffffffffffffffffffffff168173ffffffffffffffffffffffffffffffffffffffff161461070f576040517f08c379a00000000000000000000000000000000000000000000000000000000081526004016107069061237e565b60405180910390fd5b610719828261123f565b5050565b6107477f65d7a28e3265b37a6474929f336521b332c1681b933f6cb9f3376673440d862a33610e0d565b610786576040517f08c379a000000000000000000000000000000000000000000000000000000000815260040161077d9061235e565b60405180910390fd5b61078e6112d2565b565b6000600160009054906101000a900460ff16905090565b600081565b6107d67f65d7a28e3265b37a6474929f336521b332c1681b933f6cb9f3376673440d862a33610e0d565b610815576040517f08c379a000000000000000000000000000000000000000000000000000000000815260040161080c9061231e565b60405180910390fd5b61081d61137c565b565b600160009054906101000a900460ff161561086f576040517f08c379a00000000000000000000000000000000000000000000000000000000081526004016108669061229e565b60405180910390fd5b806001806101000a81548173ffffffffffffffffffffffffffffffffffffffff021916908373ffffffffffffffffffffffffffffffffffffffff1602179055506000801b7f000000000000000000000000000000000000000000000000000000000000000073ffffffffffffffffffffffffffffffffffffffff1663d8bff5a5836040518263ffffffff1660e01b815260040161090c9190612112565b60206040518083038186803b15801561092457600080fd5b505afa158015610938573d6000803e3d6000fd5b505050506040513d601f19601f8201168201806040525081019061095c9190611882565b14158015610b0557503373ffffffffffffffffffffffffffffffffffffffff1660018054906101000a900473ffffffffffffffffffffffffffffffffffffffff1673ffffffffffffffffffffffffffffffffffffffff1663578e9dc56040518163ffffffff1660e01b815260040160206040518083038186803b1580156109e257600080fd5b505afa1580156109f6573d6000803e3d6000fd5b505050506040513d601f19601f82011682018060405250810190610a1a9190611830565b73ffffffffffffffffffffffffffffffffffffffff161480610b0457503373ffffffffffffffffffffffffffffffffffffffff1660018054906101000a900473ffffffffffffffffffffffffffffffffffffffff1673ffffffffffffffffffffffffffffffffffffffff1663dde9c2976040518163ffffffff1660e01b815260040160206040518083038186803b158015610ab457600080fd5b505afa158015610ac8573d6000803e3d6000fd5b505050506040513d601f19601f82011682018060405250810190610aec9190611830565b73ffffffffffffffffffffffffffffffffffffffff16145b5b610b44576040517f08c379a0000000000000000000000000000000000000000000000000000000008152600401610b3b906122de565b60405180910390fd5b610b6a33600260006002815260200190815260200160002061117490919063ffffffff16565b610ba9576040517f08c379a0000000000000000000000000000000000000000000000000000000008152600401610ba09061223e565b60405180910390fd5b3373ffffffffffffffffffffffffffffffffffffffff167f4772ddfdaff7b0ed2a6605a344f35479461c210c4e8501e43c353307f564aa1560405160405180910390a250565b600160009054906101000a900460ff1615610c3f576040517f08c379a0000000000000000000000000000000000000000000000000000000008152600401610c369061229e565b60405180910390fd5b6000801b7f000000000000000000000000000000000000000000000000000000000000000073ffffffffffffffffffffffffffffffffffffffff1663d8bff5a5336040518263ffffffff1660e01b8152600401610c9c919061212d565b60206040518083038186803b158015610cb457600080fd5b505afa158015610cc8573d6000803e3d6000fd5b505050506040513d601f19601f82011682018060405250810190610cec9190611882565b1415610d2d576040517f08c379a0000000000000000000000000000000000000000000000000000000008152600401610d249061225e565b60405180910390fd5b610d5333600260006001815260200190815260200160002061117490919063ffffffff16565b610d92576040517f08c379a0000000000000000000000000000000000000000000000000000000008152600401610d899061221e565b60405180910390fd5b3373ffffffffffffffffffffffffffffffffffffffff167f359eefdc83d4cbeabeed5ea68cd9213056f02a7317e55e1310612edc535d5ae960405160405180910390a2565b6000610e008260008086815260200190815260200160002060000161142690919063ffffffff16565b905092915050565b600381565b6000610e368260008086815260200190815260200160002060000161144090919063ffffffff16565b905092915050565b6000801b81565b6000610e64600080848152602001908152602001600020600001611470565b9050919050565b600181565b610e9660008084815260200190815260200160002060020154610e916111a4565b610e0d565b610ed5576040517f08c379a0000000000000000000000000000000000000000000000000000000008152600401610ecc9061227e565b60405180910390fd5b610edf828261123f565b5050565b600160009054906101000a900460ff1615610f33576040517f08c379a0000000000000000000000000000000000000000000000000000000008152600401610f2a9061229e565b60405180910390fd5b610f58336002600080815260200190815260200160002061117490919063ffffffff16565b610f97576040517f08c379a0000000000000000000000000000000000000000000000000000000008152600401610f8e906121be565b60405180910390fd5b3373ffffffffffffffffffffffffffffffffffffffff167f7ccf81bb4234eccfcbff066b2b06b185aa31121730c8dc49e5f3c5b5123ee65060405160405180910390a2670de0b6b3a76400007f000000000000000000000000000000000000000000000000000000000000000073ffffffffffffffffffffffffffffffffffffffff16636c25b346336040518263ffffffff1660e01b815260040161103c919061212d565b602060405180830381600087803b15801561105657600080fd5b505af115801561106a573d6000803e3d6000fd5b505050506040513d601f19601f8201168201806040525081019061108e9190611976565b10156110cf576040517f08c379a00000000000000000000000000000000000000000000000000000000081526004016110c6906122be565b60405180910390fd5b565b7f65d7a28e3265b37a6474929f336521b332c1681b933f6cb9f3376673440d862a81565b6000600160009054906101000a900460ff1615611147576040517f08c379a000000000000000000000000000000000000000000000000000000000815260040161113e9061229e565b60405180910390fd5b61116c826002600086815260200190815260200160002061144090919063ffffffff16565b905092915050565b600061119c836000018373ffffffffffffffffffffffffffffffffffffffff1660001b611485565b905092915050565b600033905090565b6111d38160008085815260200190815260200160002060000161117490919063ffffffff16565b1561123b576111e06111a4565b73ffffffffffffffffffffffffffffffffffffffff168173ffffffffffffffffffffffffffffffffffffffff16837f2f8788117e7eff1d82e926ec794901d17c78024a50270940304540a733656f0d60405160405180910390a45b5050565b611266816000808581526020019081526020016000206000016114f590919063ffffffff16565b156112ce576112736111a4565b73ffffffffffffffffffffffffffffffffffffffff168173ffffffffffffffffffffffffffffffffffffffff16837ff6391f5c32d9c69d2a47ea670b442974b53935d1edc7fd64eb21e047a839171b60405160405180910390a45b5050565b600160009054906101000a900460ff16611321576040517f08c379a0000000000000000000000000000000000000000000000000000000008152600401611318906121fe565b60405180910390fd5b6000600160006101000a81548160ff0219169083151502179055507f5db9ee0a495bf2e6ff9c91a7834c1ba4fdd244a5e8aa4e537bd38aeae4b073aa6113656111a4565b604051611372919061212d565b60405180910390a1565b600160009054906101000a900460ff16156113cc576040517f08c379a00000000000000000000000000000000000000000000000000000000081526004016113c39061229e565b60405180910390fd5b60018060006101000a81548160ff0219169083151502179055507f62e78cea01bee320cd4e420270b5ea74000d11b0c9f74754ebdbfc544b05a25861140f6111a4565b60405161141c919061212d565b60405180910390a1565b60006114358360000183611525565b60001c905092915050565b6000611468836000018373ffffffffffffffffffffffffffffffffffffffff1660001b611592565b905092915050565b600061147e826000016115b5565b9050919050565b60006114918383611592565b6114ea5782600001829080600181540180825580915050600190039060005260206000200160009091909190915055826000018054905083600101600084815260200190815260200160002081905550600190506114ef565b600090505b92915050565b600061151d836000018373ffffffffffffffffffffffffffffffffffffffff1660001b6115c6565b905092915050565b600081836000018054905011611570576040517f08c379a00000000000000000000000000000000000000000000000000000000081526004016115679061219e565b60405180910390fd5b82600001828154811061157f57fe5b9060005260206000200154905092915050565b600080836001016000848152602001908152602001600020541415905092915050565b600081600001805490509050919050565b600080836001016000848152602001908152602001600020549050600081146116a2576000600182039050600060018660000180549050039050600086600001828154811061161157fe5b906000526020600020015490508087600001848154811061162e57fe5b906000526020600020018190555060018301876001016000838152602001908152602001600020819055508660000180548061166657fe5b600190038181906000526020600020016000905590558660010160008781526020019081526020016000206000905560019450505050506116a8565b60009150505b92915050565b6000813590506116bd81612491565b92915050565b6000815190506116d281612491565b92915050565b6000813590506116e7816124a8565b92915050565b6000815190506116fc816124a8565b92915050565b6000610100828403121561171557600080fd5b6117206101006123b9565b90506000611730848285016117dd565b6000830152506020611744848285016117dd565b6020830152506040611758848285016116c3565b604083015250606061176c848285016117f2565b6060830152506080611780848285016117f2565b60808301525060a0611794848285016116c3565b60a08301525060c06117a8848285016116c3565b60c08301525060e06117bc848285016117dd565b60e08301525092915050565b6000813590506117d7816124bf565b92915050565b6000815190506117ec816124bf565b92915050565b600081519050611801816124d6565b92915050565b60006020828403121561181957600080fd5b6000611827848285016116ae565b91505092915050565b60006020828403121561184257600080fd5b6000611850848285016116c3565b91505092915050565b60006020828403121561186b57600080fd5b6000611879848285016116d8565b91505092915050565b60006020828403121561189457600080fd5b60006118a2848285016116ed565b91505092915050565b600080604083850312156118be57600080fd5b60006118cc858286016116d8565b92505060206118dd858286016116ae565b9150509250929050565b600080604083850312156118fa57600080fd5b6000611908858286016116d8565b9250506020611919858286016117c8565b9150509250929050565b6000610100828403121561193657600080fd5b600061194484828501611702565b91505092915050565b60006020828403121561195f57600080fd5b600061196d848285016117c8565b91505092915050565b60006020828403121561198857600080fd5b6000611996848285016117dd565b91505092915050565b600080604083850312156119b257600080fd5b60006119c0858286016117c8565b92505060206119d1858286016116ae565b9150509250929050565b6119e48161245b565b82525050565b6119f3816123f7565b82525050565b611a0281612409565b82525050565b611a1181612415565b82525050565b6000611a24602c836123e6565b91507f4d616b65724261646765733a2066756e6374696f6e206e6f74206d617463686960008301527f6e6720616e79206f7468657200000000000000000000000000000000000000006020830152604082019050919050565b6000611a8a6022836123e6565b91507f456e756d657261626c655365743a20696e646578206f7574206f6620626f756e60008301527f64730000000000000000000000000000000000000000000000000000000000006020830152604082019050919050565b6000611af0602c836123e6565b91507f4d616b65724261646765733a2063616c6c657220616c7265616479206368656360008301527f6b656420666f72206368616900000000000000000000000000000000000000006020830152604082019050919050565b6000611b56602f836123e6565b91507f416363657373436f6e74726f6c3a2073656e646572206d75737420626520616e60008301527f2061646d696e20746f206772616e7400000000000000000000000000000000006020830152604082019050919050565b6000611bbc6014836123e6565b91507f5061757361626c653a206e6f74207061757365640000000000000000000000006000830152602082019050919050565b6000611bfc602d836123e6565b91507f4d616b65724261646765733a2063616c6c657220616c7265616479206368656360008301527f6b656420666f72206368696566000000000000000000000000000000000000006020830152604082019050919050565b6000611c62602d836123e6565b91507f4d616b65724261646765733a2063616c6c657220616c7265616479206368656360008301527f6b656420666f7220726f626f74000000000000000000000000000000000000006020830152604082019050919050565b6000611cc86037836123e6565b91507f4d616b65724261646765733a2063616c6c6572206973206e6f7420766f74696e60008301527f6720696e20616e20657865637574697665207370656c6c0000000000000000006020830152604082019050919050565b6000611d2e6030836123e6565b91507f416363657373436f6e74726f6c3a2073656e646572206d75737420626520616e60008301527f2061646d696e20746f207265766f6b65000000000000000000000000000000006020830152604082019050919050565b6000611d946010836123e6565b91507f5061757361626c653a20706175736564000000000000000000000000000000006000830152602082019050919050565b6000611dd46041836123e6565b91507f4d616b65724261646765733a2063616c6c657220686173206e6f74206163637260008301527f7565642031206f72206d6f72652064616920696e746572657374206f6e20706f60208301527f74000000000000000000000000000000000000000000000000000000000000006040830152606082019050919050565b6000611e606041836123e6565b91507f4d616b65724261646765733a2063616c6c6572206973206e6f7420766f74696e60008301527f67207669612070726f787920696e20616e20657865637574697665207370656c60208301527f6c000000000000000000000000000000000000000000000000000000000000006040830152606082019050919050565b6000611eec602f836123e6565b91507f4d616b65724261646765733a2063616c6c657220616c7265616479206368656360008301527f6b656420666f7220666c697070657200000000000000000000000000000000006020830152604082019050919050565b6000611f52602b836123e6565b91507f4d616b65724261646765733a206d75737420686176652070617573657220726f60008301527f6c6520746f2070617573650000000000000000000000000000000000000000006020830152604082019050919050565b6000611fb86058836123e6565b91507f4d616b65724261646765733a2063616c6c6572206973206e6f7420746865206860008301527f6967682062696464657220696e207468652063757272656e742062696420696e60208301527f2045544820636f6c6c61746572616c2061756374696f6e7300000000000000006040830152606082019050919050565b6000612044602d836123e6565b91507f4d616b65724261646765733a206d75737420686176652070617573657220726f60008301527f6c6520746f20756e7061757365000000000000000000000000000000000000006020830152604082019050919050565b60006120aa602f836123e6565b91507f416363657373436f6e74726f6c3a2063616e206f6e6c792072656e6f756e636560008301527f20726f6c657320666f722073656c6600000000000000000000000000000000006020830152604082019050919050565b61210c8161243f565b82525050565b600060208201905061212760008301846119ea565b92915050565b600060208201905061214260008301846119db565b92915050565b600060208201905061215d60008301846119f9565b92915050565b60006020820190506121786000830184611a08565b92915050565b6000602082019050818103600083015261219781611a17565b9050919050565b600060208201905081810360008301526121b781611a7d565b9050919050565b600060208201905081810360008301526121d781611ae3565b9050919050565b600060208201905081810360008301526121f781611b49565b9050919050565b6000602082019050818103600083015261221781611baf565b9050919050565b6000602082019050818103600083015261223781611bef565b9050919050565b6000602082019050818103600083015261225781611c55565b9050919050565b6000602082019050818103600083015261227781611cbb565b9050919050565b6000602082019050818103600083015261229781611d21565b9050919050565b600060208201905081810360008301526122b781611d87565b9050919050565b600060208201905081810360008301526122d781611dc7565b9050919050565b600060208201905081810360008301526122f781611e53565b9050919050565b6000602082019050818103600083015261231781611edf565b9050919050565b6000602082019050818103600083015261233781611f45565b9050919050565b6000602082019050818103600083015261235781611fab565b9050919050565b6000602082019050818103600083015261237781612037565b9050919050565b600060208201905081810360008301526123978161209d565b9050919050565b60006020820190506123b36000830184612103565b92915050565b6000604051905081810181811067ffffffffffffffff821117156123dc57600080fd5b8060405250919050565b600082825260208201905092915050565b60006124028261241f565b9050919050565b60008115159050919050565b6000819050919050565b600073ffffffffffffffffffffffffffffffffffffffff82169050919050565b6000819050919050565b600065ffffffffffff82169050919050565b60006124668261246d565b9050919050565b60006124788261247f565b9050919050565b600061248a8261241f565b9050919050565b61249a816123f7565b81146124a557600080fd5b50565b6124b181612415565b81146124bc57600080fd5b50565b6124c88161243f565b81146124d357600080fd5b50565b6124df81612449565b81146124ea57600080fd5b5056fea26469706673582212201f2bf65ca9ae96a120221d5cd721c642f6055690cea427bd5345f5859020987064736f6c634300060c0033",
  "immutableReferences": {
    "846": [
      {
        "length": 32,
        "start": 4069
      }
    ],
    "848": [
      {
        "length": 32,
        "start": 2229
      },
      {
        "length": 32,
        "start": 3141
      }
    ],
    "850": [
      {
        "length": 32,
        "start": 1146
      }
    ]
  },
  "source": "/// SPDX-License-Identifier: AGPL-3.0-or-later\npragma solidity 0.6.12;\npragma experimental ABIEncoderV2;\n\n\n/// @title Non-transferable Badges for Maker Ecosystem Activity, CDIP 18, 29\n/// @author Nazzareno Massari @naszam\n/// @notice MakerBadges to check on-chain for activities on maker ecosystem and keep track of redeemers\n/// @dev See https://github.com/makerdao/community/issues/537\n/// @dev See https://github.com/makerdao/community/issues/721\n/// @dev All function calls are currently implemented without side effects through TDD approach\n/// @dev OpenZeppelin Library is used for secure contract development\n\n/*\n       \n  \n   \n   \n        \n*/\n\nimport \"@openzeppelin/contracts/access/AccessControl.sol\";\nimport \"@openzeppelin/contracts/utils/Pausable.sol\";\nimport \"@openzeppelin/contracts/utils/EnumerableSet.sol\";\n\ninterface ChaiLike {\n    function dai(address usr) external returns (uint256);\n}\n\ninterface DSChiefLike {\n    function votes(address) external view returns (bytes32);\n}\n\ninterface VoteProxyLike {\n    function cold() external view returns (address);\n    function hot() external view returns (address);\n}\n\ninterface FlipperLike {\n    struct Bid {\n        uint256 bid;\n        uint256 lot;\n        address guy;\n        uint48  tic;\n        uint48  end;\n        address usr;\n        address gal;\n        uint256 tab;\n    }\n\n    function bids(uint256) external view returns (Bid memory);\n}\n\ncontract MakerBadges is AccessControl, Pausable {\n\n    /// @dev Libraries\n    using EnumerableSet for EnumerableSet.AddressSet;\n\n    /// @dev Data\n    ChaiLike  internal immutable chai;\n    DSChiefLike internal immutable chief;\n    FlipperLike internal immutable flipper;\n    VoteProxyLike internal proxy;\n\n    bytes32 public constant PAUSER_ROLE = keccak256(\"PAUSER_ROLE\");\n\n    mapping(uint256 => EnumerableSet.AddressSet) private redeemers;\n\n    uint256 public constant chaiId = 0;\n    uint256 public constant chiefId = 1;\n    uint256 public constant robotId = 2;\n    uint256 public constant flipperId = 3;\n\n    /// @dev Events\n    event ChaiChecked(address indexed usr);\n    event DSChiefChecked(address indexed guy);\n    event RobotChecked(address indexed guy);\n    event FlipperChecked(address indexed guy);\n\n    constructor(address chai_, address chief_, address flipper_) public {\n        _setupRole(DEFAULT_ADMIN_ROLE, msg.sender);\n\n        _setupRole(PAUSER_ROLE, msg.sender);\n\n        /// @dev CHAI Address\n        chai = ChaiLike(chai_);\n\n        /// @dev MCD_ADM Address\n        chief = DSChiefLike(chief_);\n\n        /// @dev MCD_FLIP_ETH_A Address\n        flipper = FlipperLike(flipper_);\n    }\n\n    /// @notice Fallback function\n    /// @dev Added not payable to revert transactions not matching any other function which send value\n    fallback() external {\n        revert(\"MakerBadges: function not matching any other\");\n    }\n\n    /// @notice Chai Challenge\n    /// @dev Keeps track of the address of the caller if successful\n    function chaiChallenge() external whenNotPaused {\n        require(redeemers[chaiId].add(msg.sender), \"MakerBadges: caller already checked for chai\");\n        emit ChaiChecked(msg.sender);\n        require(chai.dai(msg.sender) >= 1 ether, \"MakerBadges: caller has not accrued 1 or more dai interest on pot\");\n    }\n\n\n    /// @notice DSChief Challenge\n    /// @dev Keeps track of the address of the caller if successful\n    function chiefChallenge() external whenNotPaused {\n        require(chief.votes(msg.sender) != 0x00,\"MakerBadges: caller is not voting in an executive spell\");\n        require(redeemers[chiefId].add(msg.sender), \"MakerBadges: caller already checked for chief\");\n        emit DSChiefChecked(msg.sender);\n    }\n\n    /// @notice Robot Challenge\n    /// @dev Keeps track of the address of the caller if successful\n    function robotChallenge(address _proxy) external whenNotPaused {\n        proxy = VoteProxyLike(_proxy);\n        require(\n            chief.votes(_proxy)!= 0x00 && (proxy.cold() == msg.sender || proxy.hot() == msg.sender),\n            \"MakerBadges: caller is not voting via proxy in an executive spell\"\n        );\n        require(redeemers[robotId].add(msg.sender), \"MakerBadges: caller already checked for robot\");\n        emit RobotChecked(msg.sender);\n    }\n\n\n    /// @notice Flipper Challenge\n    /// @dev Keeps track of the address of the caller if successful\n    /// @dev guy, high bidder\n    function flipperChallenge(uint256 bidId) external whenNotPaused {\n        require(\n            flipper.bids(bidId).guy == msg.sender,\n            \"MakerBadges: caller is not the high bidder in the current bid in ETH collateral auctions\"\n        );\n        require(redeemers[flipperId].add(msg.sender), \"MakerBadges: caller already checked for flipper\");\n        emit FlipperChecked(msg.sender);\n    }\n\n    /// @notice Check if guy is a redeemer\n    /// @dev Verify if the address of guy exists\n    /// @param guy Address to verify\n    /// @return True if guy is a redeemer\n    function verify(uint256 templateId, address guy) external view whenNotPaused returns (bool) {\n        return redeemers[templateId].contains(guy);\n    }\n\n    /// @notice Pause all the functions\n    /// @dev the caller must have the 'PAUSER_ROLE'\n    function pause() external {\n        require(hasRole(PAUSER_ROLE, msg.sender), \"MakerBadges: must have pauser role to pause\");\n        _pause();\n    }\n\n    /// @notice Unpause all the functions\n    /// @dev The caller must have the 'PAUSER_ROLE'\n    function unpause() external {\n        require(hasRole(PAUSER_ROLE, msg.sender), \"MakerBadges: must have pauser role to unpause\");\n        _unpause();\n    }\n}\n",
  "sourcePath": "/home/sencha/maker-badges/contracts/MakerBadges.sol",
  "compiler": {
    "name": "solc",
    "version": "0.6.12+commit.27d51765.Emscripten.clang"
  },
  "schemaVersion": "3.3.2",
  "updatedAt": "2020-12-05T19:14:09.972Z",
  "networkType": "ethereum",
  "devdoc": {
    "events": {
      "ChaiChecked(address)": {
        "details": "Events"
      }
    },
    "kind": "dev",
    "methods": {
      "chaiChallenge()": {
        "details": "Keeps track of the address of the caller if successful"
      },
      "chiefChallenge()": {
        "details": "Keeps track of the address of the caller if successful"
      },
      "flipperChallenge(uint256)": {
        "details": "Keeps track of the address of the caller if successfulguy, high bidder"
      },
      "getRoleAdmin(bytes32)": {
        "details": "Returns the admin role that controls `role`. See {grantRole} and {revokeRole}. To change a role's admin, use {_setRoleAdmin}."
      },
      "getRoleMember(bytes32,uint256)": {
        "details": "Returns one of the accounts that have `role`. `index` must be a value between 0 and {getRoleMemberCount}, non-inclusive. Role bearers are not sorted in any particular way, and their ordering may change at any point. WARNING: When using {getRoleMember} and {getRoleMemberCount}, make sure you perform all queries on the same block. See the following https://forum.openzeppelin.com/t/iterating-over-elements-on-enumerableset-in-openzeppelin-contracts/2296[forum post] for more information."
      },
      "getRoleMemberCount(bytes32)": {
        "details": "Returns the number of accounts that have `role`. Can be used together with {getRoleMember} to enumerate all bearers of a role."
      },
      "grantRole(bytes32,address)": {
        "details": "Grants `role` to `account`. If `account` had not been already granted `role`, emits a {RoleGranted} event. Requirements: - the caller must have ``role``'s admin role."
      },
      "hasRole(bytes32,address)": {
        "details": "Returns `true` if `account` has been granted `role`."
      },
      "pause()": {
        "details": "the caller must have the 'PAUSER_ROLE'"
      },
      "paused()": {
        "details": "Returns true if the contract is paused, and false otherwise."
      },
      "renounceRole(bytes32,address)": {
        "details": "Revokes `role` from the calling account. Roles are often managed via {grantRole} and {revokeRole}: this function's purpose is to provide a mechanism for accounts to lose their privileges if they are compromised (such as when a trusted device is misplaced). If the calling account had been granted `role`, emits a {RoleRevoked} event. Requirements: - the caller must be `account`."
      },
      "revokeRole(bytes32,address)": {
        "details": "Revokes `role` from `account`. If `account` had been granted `role`, emits a {RoleRevoked} event. Requirements: - the caller must have ``role``'s admin role."
      },
      "robotChallenge(address)": {
        "details": "Keeps track of the address of the caller if successful"
      },
      "unpause()": {
        "details": "The caller must have the 'PAUSER_ROLE'"
      },
      "verify(uint256,address)": {
        "details": "Verify if the address of guy exists",
        "params": {
          "guy": "Address to verify"
        },
        "returns": {
          "_0": "True if guy is a redeemer"
        }
      }
    },
    "stateVariables": {
      "chai": {
        "details": "Data"
      }
    },
    "version": 1
  },
  "userdoc": {
    "kind": "user",
    "methods": {
      "chaiChallenge()": {
        "notice": "Chai Challenge"
      },
      "chiefChallenge()": {
        "notice": "DSChief Challenge"
      },
      "flipperChallenge(uint256)": {
        "notice": "Flipper Challenge"
      },
      "pause()": {
        "notice": "Pause all the functions"
      },
      "robotChallenge(address)": {
        "notice": "Robot Challenge"
      },
      "unpause()": {
        "notice": "Unpause all the functions"
      },
      "verify(uint256,address)": {
        "notice": "Check if guy is a redeemer"
      }
    },
    "version": 1
  }
}