{
  "contractName": "MakerBadges",
  "abi": [
    {
      "inputs": [
        {
          "internalType": "address",
          "name": "forwarder_",
          "type": "address"
        },
        {
          "internalType": "address",
          "name": "chai_",
          "type": "address"
        },
        {
          "internalType": "address",
          "name": "chief_",
          "type": "address"
        },
        {
          "internalType": "address",
          "name": "flipper_",
          "type": "address"
        }
      ],
      "stateMutability": "nonpayable",
      "type": "constructor"
    },
    {
      "anonymous": false,
      "inputs": [
        {
          "indexed": true,
          "internalType": "address",
          "name": "usr",
          "type": "address"
        }
      ],
      "name": "ChaiChecked",
      "type": "event"
    },
    {
      "anonymous": false,
      "inputs": [
        {
          "indexed": true,
          "internalType": "address",
          "name": "guy",
          "type": "address"
        }
      ],
      "name": "DSChiefChecked",
      "type": "event"
    },
    {
      "anonymous": false,
      "inputs": [
        {
          "indexed": true,
          "internalType": "address",
          "name": "guy",
          "type": "address"
        }
      ],
      "name": "FlipperChecked",
      "type": "event"
    },
    {
      "anonymous": false,
      "inputs": [
        {
          "indexed": false,
          "internalType": "address",
          "name": "account",
          "type": "address"
        }
      ],
      "name": "Paused",
      "type": "event"
    },
    {
      "anonymous": false,
      "inputs": [
        {
          "indexed": true,
          "internalType": "address",
          "name": "guy",
          "type": "address"
        }
      ],
      "name": "RobotChecked",
      "type": "event"
    },
    {
      "anonymous": false,
      "inputs": [
        {
          "indexed": true,
          "internalType": "bytes32",
          "name": "role",
          "type": "bytes32"
        },
        {
          "indexed": true,
          "internalType": "bytes32",
          "name": "previousAdminRole",
          "type": "bytes32"
        },
        {
          "indexed": true,
          "internalType": "bytes32",
          "name": "newAdminRole",
          "type": "bytes32"
        }
      ],
      "name": "RoleAdminChanged",
      "type": "event"
    },
    {
      "anonymous": false,
      "inputs": [
        {
          "indexed": true,
          "internalType": "bytes32",
          "name": "role",
          "type": "bytes32"
        },
        {
          "indexed": true,
          "internalType": "address",
          "name": "account",
          "type": "address"
        },
        {
          "indexed": true,
          "internalType": "address",
          "name": "sender",
          "type": "address"
        }
      ],
      "name": "RoleGranted",
      "type": "event"
    },
    {
      "anonymous": false,
      "inputs": [
        {
          "indexed": true,
          "internalType": "bytes32",
          "name": "role",
          "type": "bytes32"
        },
        {
          "indexed": true,
          "internalType": "address",
          "name": "account",
          "type": "address"
        },
        {
          "indexed": true,
          "internalType": "address",
          "name": "sender",
          "type": "address"
        }
      ],
      "name": "RoleRevoked",
      "type": "event"
    },
    {
      "anonymous": false,
      "inputs": [
        {
          "indexed": false,
          "internalType": "address",
          "name": "account",
          "type": "address"
        }
      ],
      "name": "Unpaused",
      "type": "event"
    },
    {
      "stateMutability": "nonpayable",
      "type": "fallback"
    },
    {
      "inputs": [],
      "name": "DEFAULT_ADMIN_ROLE",
      "outputs": [
        {
          "internalType": "bytes32",
          "name": "",
          "type": "bytes32"
        }
      ],
      "stateMutability": "view",
      "type": "function",
      "constant": true
    },
    {
      "inputs": [],
      "name": "PAUSER_ROLE",
      "outputs": [
        {
          "internalType": "bytes32",
          "name": "",
          "type": "bytes32"
        }
      ],
      "stateMutability": "view",
      "type": "function",
      "constant": true
    },
    {
      "inputs": [],
      "name": "chaiId",
      "outputs": [
        {
          "internalType": "uint256",
          "name": "",
          "type": "uint256"
        }
      ],
      "stateMutability": "view",
      "type": "function",
      "constant": true
    },
    {
      "inputs": [],
      "name": "chiefId",
      "outputs": [
        {
          "internalType": "uint256",
          "name": "",
          "type": "uint256"
        }
      ],
      "stateMutability": "view",
      "type": "function",
      "constant": true
    },
    {
      "inputs": [],
      "name": "flipperId",
      "outputs": [
        {
          "internalType": "uint256",
          "name": "",
          "type": "uint256"
        }
      ],
      "stateMutability": "view",
      "type": "function",
      "constant": true
    },
    {
      "inputs": [
        {
          "internalType": "bytes32",
          "name": "role",
          "type": "bytes32"
        }
      ],
      "name": "getRoleAdmin",
      "outputs": [
        {
          "internalType": "bytes32",
          "name": "",
          "type": "bytes32"
        }
      ],
      "stateMutability": "view",
      "type": "function",
      "constant": true
    },
    {
      "inputs": [
        {
          "internalType": "bytes32",
          "name": "role",
          "type": "bytes32"
        },
        {
          "internalType": "uint256",
          "name": "index",
          "type": "uint256"
        }
      ],
      "name": "getRoleMember",
      "outputs": [
        {
          "internalType": "address",
          "name": "",
          "type": "address"
        }
      ],
      "stateMutability": "view",
      "type": "function",
      "constant": true
    },
    {
      "inputs": [
        {
          "internalType": "bytes32",
          "name": "role",
          "type": "bytes32"
        }
      ],
      "name": "getRoleMemberCount",
      "outputs": [
        {
          "internalType": "uint256",
          "name": "",
          "type": "uint256"
        }
      ],
      "stateMutability": "view",
      "type": "function",
      "constant": true
    },
    {
      "inputs": [
        {
          "internalType": "bytes32",
          "name": "role",
          "type": "bytes32"
        },
        {
          "internalType": "address",
          "name": "account",
          "type": "address"
        }
      ],
      "name": "grantRole",
      "outputs": [],
      "stateMutability": "nonpayable",
      "type": "function"
    },
    {
      "inputs": [
        {
          "internalType": "bytes32",
          "name": "role",
          "type": "bytes32"
        },
        {
          "internalType": "address",
          "name": "account",
          "type": "address"
        }
      ],
      "name": "hasRole",
      "outputs": [
        {
          "internalType": "bool",
          "name": "",
          "type": "bool"
        }
      ],
      "stateMutability": "view",
      "type": "function",
      "constant": true
    },
    {
      "inputs": [
        {
          "internalType": "address",
          "name": "forwarder",
          "type": "address"
        }
      ],
      "name": "isTrustedForwarder",
      "outputs": [
        {
          "internalType": "bool",
          "name": "",
          "type": "bool"
        }
      ],
      "stateMutability": "view",
      "type": "function",
      "constant": true
    },
    {
      "inputs": [],
      "name": "paused",
      "outputs": [
        {
          "internalType": "bool",
          "name": "",
          "type": "bool"
        }
      ],
      "stateMutability": "view",
      "type": "function",
      "constant": true
    },
    {
      "inputs": [
        {
          "internalType": "bytes32",
          "name": "role",
          "type": "bytes32"
        },
        {
          "internalType": "address",
          "name": "account",
          "type": "address"
        }
      ],
      "name": "renounceRole",
      "outputs": [],
      "stateMutability": "nonpayable",
      "type": "function"
    },
    {
      "inputs": [
        {
          "internalType": "bytes32",
          "name": "role",
          "type": "bytes32"
        },
        {
          "internalType": "address",
          "name": "account",
          "type": "address"
        }
      ],
      "name": "revokeRole",
      "outputs": [],
      "stateMutability": "nonpayable",
      "type": "function"
    },
    {
      "inputs": [],
      "name": "robotId",
      "outputs": [
        {
          "internalType": "uint256",
          "name": "",
          "type": "uint256"
        }
      ],
      "stateMutability": "view",
      "type": "function",
      "constant": true
    },
    {
      "inputs": [],
      "name": "trustedForwarder",
      "outputs": [
        {
          "internalType": "address",
          "name": "",
          "type": "address"
        }
      ],
      "stateMutability": "view",
      "type": "function",
      "constant": true
    },
    {
      "inputs": [],
      "name": "chaiChallenge",
      "outputs": [],
      "stateMutability": "nonpayable",
      "type": "function"
    },
    {
      "inputs": [],
      "name": "chiefChallenge",
      "outputs": [],
      "stateMutability": "nonpayable",
      "type": "function"
    },
    {
      "inputs": [
        {
          "internalType": "address",
          "name": "_proxy",
          "type": "address"
        }
      ],
      "name": "robotChallenge",
      "outputs": [],
      "stateMutability": "nonpayable",
      "type": "function"
    },
    {
      "inputs": [
        {
          "internalType": "uint256",
          "name": "bidId",
          "type": "uint256"
        }
      ],
      "name": "flipperChallenge",
      "outputs": [],
      "stateMutability": "nonpayable",
      "type": "function"
    },
    {
      "inputs": [
        {
          "internalType": "uint256",
          "name": "templateId",
          "type": "uint256"
        },
        {
          "internalType": "address",
          "name": "guy",
          "type": "address"
        }
      ],
      "name": "verify",
      "outputs": [
        {
          "internalType": "bool",
          "name": "",
          "type": "bool"
        }
      ],
      "stateMutability": "view",
      "type": "function",
      "constant": true
    },
    {
      "inputs": [],
      "name": "pause",
      "outputs": [],
      "stateMutability": "nonpayable",
      "type": "function"
    },
    {
      "inputs": [],
      "name": "unpause",
      "outputs": [],
      "stateMutability": "nonpayable",
      "type": "function"
    },
    {
      "inputs": [],
      "name": "versionRecipient",
      "outputs": [
        {
          "internalType": "string",
          "name": "",
          "type": "string"
        }
      ],
      "stateMutability": "view",
      "type": "function",
      "constant": true
    },
    {
      "inputs": [],
      "name": "getTrustedForwarder",
      "outputs": [
        {
          "internalType": "address",
          "name": "",
          "type": "address"
        }
      ],
      "stateMutability": "view",
      "type": "function",
      "constant": true
    }
  ],
  "bytecode": "0x60e06040523480156200001157600080fd5b5060405162002d2138038062002d21833981810160405281019062000037919062000407565b6000600160006101000a81548160ff021916908315150217905550620000766000801b6200006a620001a660201b60201c565b620001c260201b60201c565b620000b77f65d7a28e3265b37a6474929f336521b332c1681b933f6cb9f3376673440d862a620000ab620001a660201b60201c565b620001c260201b60201c565b8273ffffffffffffffffffffffffffffffffffffffff1660808173ffffffffffffffffffffffffffffffffffffffff1660601b815250508173ffffffffffffffffffffffffffffffffffffffff1660a08173ffffffffffffffffffffffffffffffffffffffff1660601b815250508073ffffffffffffffffffffffffffffffffffffffff1660c08173ffffffffffffffffffffffffffffffffffffffff1660601b81525050836001806101000a81548173ffffffffffffffffffffffffffffffffffffffff021916908373ffffffffffffffffffffffffffffffffffffffff16021790555050505050620004c1565b6000620001bd620001d860201b620013891760201c565b905090565b620001d482826200022060201b60201c565b5050565b60006018600036905010158015620001fd5750620001fc33620002c360201b60201c565b5b156200021357601436033560601c90506200021c565b3390506200021d565b5b90565b6200024e816000808581526020019081526020016000206000016200031b60201b620013c51790919060201c565b15620002bf5762000264620001a660201b60201c565b73ffffffffffffffffffffffffffffffffffffffff168173ffffffffffffffffffffffffffffffffffffffff16837f2f8788117e7eff1d82e926ec794901d17c78024a50270940304540a733656f0d60405160405180910390a45b5050565b600060018054906101000a900473ffffffffffffffffffffffffffffffffffffffff1673ffffffffffffffffffffffffffffffffffffffff168273ffffffffffffffffffffffffffffffffffffffff16149050919050565b60006200034b836000018373ffffffffffffffffffffffffffffffffffffffff1660001b6200035360201b60201c565b905092915050565b6000620003678383620003cd60201b60201c565b620003c2578260000182908060018154018082558091505060019003906000526020600020016000909190919091505582600001805490508360010160008481526020019081526020016000208190555060019050620003c7565b600090505b92915050565b600080836001016000848152602001908152602001600020541415905092915050565b6000815190506200040181620004a7565b92915050565b600080600080608085870312156200041e57600080fd5b60006200042e87828801620003f0565b94505060206200044187828801620003f0565b93505060406200045487828801620003f0565b92505060606200046787828801620003f0565b91505092959194509250565b6000620004808262000487565b9050919050565b600073ffffffffffffffffffffffffffffffffffffffff82169050919050565b620004b28162000473565b8114620004be57600080fd5b50565b60805160601c60a05160601c60c05160601c612825620004fc60003980610547525080610a585280610e085250806111f352506128256000f3fe608060405234801561001057600080fd5b50600436106101775760003560e01c80638de9494b116100de578063ca15c87311610097578063d547741f11610071578063d547741f1461043f578063de2e64431461045b578063e63ab1e914610465578063ebfa62b91461048357610178565b8063ca15c873146103d3578063ce1b815f14610403578063ce90c4d41461042157610178565b80638de9494b146103115780638e84f9c11461032d5780639010d07c14610337578063904a2d121461036757806391d1485414610385578063a217fddf146103b557610178565b8063486ff0cd11610130578063486ff0cd1461025f578063572b6c051461027d5780635c975abb146102ad57806368d9fff4146102cb5780637da0a877146102e95780638456cb591461030757610178565b80630831b446146101b3578063248a9ca3146101d15780632878fcb8146102015780632f2ff15d1461021d57806336568abe146102395780633f4ba83a1461025557610178565b5b6040517f08c379a00000000000000000000000000000000000000000000000000000000081526004016101aa90612431565b60405180910390fd5b6101bb6104b3565b6040516101c89190612651565b60405180910390f35b6101eb60048036038101906101e69190611ab1565b6104b8565b6040516101f891906123f4565b60405180910390f35b61021b60048036038101906102169190611ba5565b6104d7565b005b61023760048036038101906102329190611b03565b610702565b005b610253600480360381019061024e9190611b03565b610775565b005b61025d6107f8565b005b610267610872565b604051610274919061240f565b60405180910390f35b61029760048036038101906102929190611a5f565b6108af565b6040516102a491906123d9565b60405180910390f35b6102b5610907565b6040516102c291906123d9565b60405180910390f35b6102d361091e565b6040516102e09190612651565b60405180910390f35b6102f1610923565b6040516102fe91906123a3565b60405180910390f35b61030f610947565b005b61032b60048036038101906103269190611a5f565b6109c1565b005b610335610db2565b005b610351600480360381019061034c9190611b3f565b610faf565b60405161035e91906123a3565b60405180910390f35b61036f610fe0565b60405161037c9190612651565b60405180910390f35b61039f600480360381019061039a9190611b03565b610fe5565b6040516103ac91906123d9565b60405180910390f35b6103bd611016565b6040516103ca91906123f4565b60405180910390f35b6103ed60048036038101906103e89190611ab1565b61101d565b6040516103fa9190612651565b60405180910390f35b61040b611043565b60405161041891906123a3565b60405180910390f35b61042961106b565b6040516104369190612651565b60405180910390f35b61045960048036038101906104549190611b03565b611070565b005b6104636110e3565b005b61046d6112e6565b60405161047a91906123f4565b60405180910390f35b61049d60048036038101906104989190611bf7565b61130a565b6040516104aa91906123d9565b60405180910390f35b600281565b6000806000838152602001908152602001600020600201549050919050565b600160009054906101000a900460ff1615610527576040517f08c379a000000000000000000000000000000000000000000000000000000000815260040161051e90612551565b60405180910390fd5b61052f6113f5565b73ffffffffffffffffffffffffffffffffffffffff167f000000000000000000000000000000000000000000000000000000000000000073ffffffffffffffffffffffffffffffffffffffff16634423c5f1836040518263ffffffff1660e01b815260040161059e9190612651565b6101006040518083038186803b1580156105b757600080fd5b505afa1580156105cb573d6000803e3d6000fd5b505050506040513d601f19601f820116820180604052508101906105ef9190611b7b565b6040015173ffffffffffffffffffffffffffffffffffffffff1614610649576040517f08c379a0000000000000000000000000000000000000000000000000000000008152600401610640906125f1565b60405180910390fd5b6106766106546113f5565b60036000600381526020019081526020016000206113c590919063ffffffff16565b6106b5576040517f08c379a00000000000000000000000000000000000000000000000000000000081526004016106ac906125b1565b60405180910390fd5b6106bd6113f5565b73ffffffffffffffffffffffffffffffffffffffff167f430bb0ab986389293d8f0855931d73d3e3bdc06890eb3e780550c98a7582a7ef60405160405180910390a250565b610728600080848152602001908152602001600020600201546107236113f5565b610fe5565b610767576040517f08c379a000000000000000000000000000000000000000000000000000000000815260040161075e90612491565b60405180910390fd5b6107718282611404565b5050565b61077d6113f5565b73ffffffffffffffffffffffffffffffffffffffff168173ffffffffffffffffffffffffffffffffffffffff16146107ea576040517f08c379a00000000000000000000000000000000000000000000000000000000081526004016107e190612631565b60405180910390fd5b6107f48282611497565b5050565b6108297f65d7a28e3265b37a6474929f336521b332c1681b933f6cb9f3376673440d862a6108246113f5565b610fe5565b610868576040517f08c379a000000000000000000000000000000000000000000000000000000000815260040161085f90612611565b60405180910390fd5b61087061152a565b565b60606040518060400160405280600581526020017f302e392e30000000000000000000000000000000000000000000000000000000815250905090565b600060018054906101000a900473ffffffffffffffffffffffffffffffffffffffff1673ffffffffffffffffffffffffffffffffffffffff168273ffffffffffffffffffffffffffffffffffffffff16149050919050565b6000600160009054906101000a900460ff16905090565b600081565b60018054906101000a900473ffffffffffffffffffffffffffffffffffffffff1681565b6109787f65d7a28e3265b37a6474929f336521b332c1681b933f6cb9f3376673440d862a6109736113f5565b610fe5565b6109b7576040517f08c379a00000000000000000000000000000000000000000000000000000000081526004016109ae906125d1565b60405180910390fd5b6109bf6115d4565b565b600160009054906101000a900460ff1615610a11576040517f08c379a0000000000000000000000000000000000000000000000000000000008152600401610a0890612551565b60405180910390fd5b80600260006101000a81548173ffffffffffffffffffffffffffffffffffffffff021916908373ffffffffffffffffffffffffffffffffffffffff1602179055506000801b7f000000000000000000000000000000000000000000000000000000000000000073ffffffffffffffffffffffffffffffffffffffff1663d8bff5a5836040518263ffffffff1660e01b8152600401610aaf91906123a3565b60206040518083038186803b158015610ac757600080fd5b505afa158015610adb573d6000803e3d6000fd5b505050506040513d601f19601f82011682018060405250810190610aff9190611ada565b14158015610cba5750610b106113f5565b73ffffffffffffffffffffffffffffffffffffffff16600260009054906101000a900473ffffffffffffffffffffffffffffffffffffffff1673ffffffffffffffffffffffffffffffffffffffff1663578e9dc56040518163ffffffff1660e01b815260040160206040518083038186803b158015610b8e57600080fd5b505afa158015610ba2573d6000803e3d6000fd5b505050506040513d601f19601f82011682018060405250810190610bc69190611a88565b73ffffffffffffffffffffffffffffffffffffffff161480610cb95750610beb6113f5565b73ffffffffffffffffffffffffffffffffffffffff16600260009054906101000a900473ffffffffffffffffffffffffffffffffffffffff1673ffffffffffffffffffffffffffffffffffffffff1663dde9c2976040518163ffffffff1660e01b815260040160206040518083038186803b158015610c6957600080fd5b505afa158015610c7d573d6000803e3d6000fd5b505050506040513d601f19601f82011682018060405250810190610ca19190611a88565b73ffffffffffffffffffffffffffffffffffffffff16145b5b610cf9576040517f08c379a0000000000000000000000000000000000000000000000000000000008152600401610cf090612591565b60405180910390fd5b610d26610d046113f5565b60036000600281526020019081526020016000206113c590919063ffffffff16565b610d65576040517f08c379a0000000000000000000000000000000000000000000000000000000008152600401610d5c906124f1565b60405180910390fd5b610d6d6113f5565b73ffffffffffffffffffffffffffffffffffffffff167f4772ddfdaff7b0ed2a6605a344f35479461c210c4e8501e43c353307f564aa1560405160405180910390a250565b600160009054906101000a900460ff1615610e02576040517f08c379a0000000000000000000000000000000000000000000000000000000008152600401610df990612551565b60405180910390fd5b6000801b7f000000000000000000000000000000000000000000000000000000000000000073ffffffffffffffffffffffffffffffffffffffff1663d8bff5a5610e4a6113f5565b6040518263ffffffff1660e01b8152600401610e6691906123be565b60206040518083038186803b158015610e7e57600080fd5b505afa158015610e92573d6000803e3d6000fd5b505050506040513d601f19601f82011682018060405250810190610eb69190611ada565b1415610ef7576040517f08c379a0000000000000000000000000000000000000000000000000000000008152600401610eee90612511565b60405180910390fd5b610f24610f026113f5565b60036000600181526020019081526020016000206113c590919063ffffffff16565b610f63576040517f08c379a0000000000000000000000000000000000000000000000000000000008152600401610f5a906124d1565b60405180910390fd5b610f6b6113f5565b73ffffffffffffffffffffffffffffffffffffffff167f359eefdc83d4cbeabeed5ea68cd9213056f02a7317e55e1310612edc535d5ae960405160405180910390a2565b6000610fd88260008086815260200190815260200160002060000161167e90919063ffffffff16565b905092915050565b600381565b600061100e8260008086815260200190815260200160002060000161169890919063ffffffff16565b905092915050565b6000801b81565b600061103c6000808481526020019081526020016000206000016116c8565b9050919050565b600060018054906101000a900473ffffffffffffffffffffffffffffffffffffffff16905090565b600181565b611096600080848152602001908152602001600020600201546110916113f5565b610fe5565b6110d5576040517f08c379a00000000000000000000000000000000000000000000000000000000081526004016110cc90612531565b60405180910390fd5b6110df8282611497565b5050565b600160009054906101000a900460ff1615611133576040517f08c379a000000000000000000000000000000000000000000000000000000000815260040161112a90612551565b60405180910390fd5b61115f61113e6113f5565b600360008081526020019081526020016000206113c590919063ffffffff16565b61119e576040517f08c379a000000000000000000000000000000000000000000000000000000000815260040161119590612471565b60405180910390fd5b6111a66113f5565b73ffffffffffffffffffffffffffffffffffffffff167f7ccf81bb4234eccfcbff066b2b06b185aa31121730c8dc49e5f3c5b5123ee65060405160405180910390a2670de0b6b3a76400007f000000000000000000000000000000000000000000000000000000000000000073ffffffffffffffffffffffffffffffffffffffff16636c25b3466112356113f5565b6040518263ffffffff1660e01b815260040161125191906123be565b602060405180830381600087803b15801561126b57600080fd5b505af115801561127f573d6000803e3d6000fd5b505050506040513d601f19601f820116820180604052508101906112a39190611bce565b10156112e4576040517f08c379a00000000000000000000000000000000000000000000000000000000081526004016112db90612571565b60405180910390fd5b565b7f65d7a28e3265b37a6474929f336521b332c1681b933f6cb9f3376673440d862a81565b6000600160009054906101000a900460ff161561135c576040517f08c379a000000000000000000000000000000000000000000000000000000000815260040161135390612551565b60405180910390fd5b611381826003600086815260200190815260200160002061169890919063ffffffff16565b905092915050565b600060186000369050101580156113a557506113a4336108af565b5b156113b957601436033560601c90506113c1565b3390506113c2565b5b90565b60006113ed836000018373ffffffffffffffffffffffffffffffffffffffff1660001b6116dd565b905092915050565b60006113ff611389565b905090565b61142b816000808581526020019081526020016000206000016113c590919063ffffffff16565b15611493576114386113f5565b73ffffffffffffffffffffffffffffffffffffffff168173ffffffffffffffffffffffffffffffffffffffff16837f2f8788117e7eff1d82e926ec794901d17c78024a50270940304540a733656f0d60405160405180910390a45b5050565b6114be8160008085815260200190815260200160002060000161174d90919063ffffffff16565b15611526576114cb6113f5565b73ffffffffffffffffffffffffffffffffffffffff168173ffffffffffffffffffffffffffffffffffffffff16837ff6391f5c32d9c69d2a47ea670b442974b53935d1edc7fd64eb21e047a839171b60405160405180910390a45b5050565b600160009054906101000a900460ff16611579576040517f08c379a0000000000000000000000000000000000000000000000000000000008152600401611570906124b1565b60405180910390fd5b6000600160006101000a81548160ff0219169083151502179055507f5db9ee0a495bf2e6ff9c91a7834c1ba4fdd244a5e8aa4e537bd38aeae4b073aa6115bd6113f5565b6040516115ca91906123be565b60405180910390a1565b600160009054906101000a900460ff1615611624576040517f08c379a000000000000000000000000000000000000000000000000000000000815260040161161b90612551565b60405180910390fd5b60018060006101000a81548160ff0219169083151502179055507f62e78cea01bee320cd4e420270b5ea74000d11b0c9f74754ebdbfc544b05a2586116676113f5565b60405161167491906123be565b60405180910390a1565b600061168d836000018361177d565b60001c905092915050565b60006116c0836000018373ffffffffffffffffffffffffffffffffffffffff1660001b6117ea565b905092915050565b60006116d68260000161180d565b9050919050565b60006116e983836117ea565b611742578260000182908060018154018082558091505060019003906000526020600020016000909190919091505582600001805490508360010160008481526020019081526020016000208190555060019050611747565b600090505b92915050565b6000611775836000018373ffffffffffffffffffffffffffffffffffffffff1660001b61181e565b905092915050565b6000818360000180549050116117c8576040517f08c379a00000000000000000000000000000000000000000000000000000000081526004016117bf90612451565b60405180910390fd5b8260000182815481106117d757fe5b9060005260206000200154905092915050565b600080836001016000848152602001908152602001600020541415905092915050565b600081600001805490509050919050565b600080836001016000848152602001908152602001600020549050600081146118fa576000600182039050600060018660000180549050039050600086600001828154811061186957fe5b906000526020600020015490508087600001848154811061188657fe5b90600052602060002001819055506001830187600101600083815260200190815260200160002081905550866000018054806118be57fe5b60019003818190600052602060002001600090559055866001016000878152602001908152602001600020600090556001945050505050611900565b60009150505b92915050565b60008135905061191581612793565b92915050565b60008151905061192a81612793565b92915050565b60008135905061193f816127aa565b92915050565b600081519050611954816127aa565b92915050565b6000610100828403121561196d57600080fd5b61197861010061266c565b9050600061198884828501611a35565b600083015250602061199c84828501611a35565b60208301525060406119b08482850161191b565b60408301525060606119c484828501611a4a565b60608301525060806119d884828501611a4a565b60808301525060a06119ec8482850161191b565b60a08301525060c0611a008482850161191b565b60c08301525060e0611a1484828501611a35565b60e08301525092915050565b600081359050611a2f816127c1565b92915050565b600081519050611a44816127c1565b92915050565b600081519050611a59816127d8565b92915050565b600060208284031215611a7157600080fd5b6000611a7f84828501611906565b91505092915050565b600060208284031215611a9a57600080fd5b6000611aa88482850161191b565b91505092915050565b600060208284031215611ac357600080fd5b6000611ad184828501611930565b91505092915050565b600060208284031215611aec57600080fd5b6000611afa84828501611945565b91505092915050565b60008060408385031215611b1657600080fd5b6000611b2485828601611930565b9250506020611b3585828601611906565b9150509250929050565b60008060408385031215611b5257600080fd5b6000611b6085828601611930565b9250506020611b7185828601611a20565b9150509250929050565b60006101008284031215611b8e57600080fd5b6000611b9c8482850161195a565b91505092915050565b600060208284031215611bb757600080fd5b6000611bc584828501611a20565b91505092915050565b600060208284031215611be057600080fd5b6000611bee84828501611a35565b91505092915050565b60008060408385031215611c0a57600080fd5b6000611c1885828601611a20565b9250506020611c2985828601611906565b9150509250929050565b611c3c81612719565b82525050565b611c4b816126b5565b82525050565b611c5a816126c7565b82525050565b611c69816126d3565b82525050565b6000611c7a82612699565b611c8481856126a4565b9350611c9481856020860161274f565b611c9d81612782565b840191505092915050565b6000611cb5602c836126a4565b91507f4d616b65724261646765733a2066756e6374696f6e206e6f74206d617463686960008301527f6e6720616e79206f7468657200000000000000000000000000000000000000006020830152604082019050919050565b6000611d1b6022836126a4565b91507f456e756d657261626c655365743a20696e646578206f7574206f6620626f756e60008301527f64730000000000000000000000000000000000000000000000000000000000006020830152604082019050919050565b6000611d81602c836126a4565b91507f4d616b65724261646765733a2063616c6c657220616c7265616479206368656360008301527f6b656420666f72206368616900000000000000000000000000000000000000006020830152604082019050919050565b6000611de7602f836126a4565b91507f416363657373436f6e74726f6c3a2073656e646572206d75737420626520616e60008301527f2061646d696e20746f206772616e7400000000000000000000000000000000006020830152604082019050919050565b6000611e4d6014836126a4565b91507f5061757361626c653a206e6f74207061757365640000000000000000000000006000830152602082019050919050565b6000611e8d602d836126a4565b91507f4d616b65724261646765733a2063616c6c657220616c7265616479206368656360008301527f6b656420666f72206368696566000000000000000000000000000000000000006020830152604082019050919050565b6000611ef3602d836126a4565b91507f4d616b65724261646765733a2063616c6c657220616c7265616479206368656360008301527f6b656420666f7220726f626f74000000000000000000000000000000000000006020830152604082019050919050565b6000611f596037836126a4565b91507f4d616b65724261646765733a2063616c6c6572206973206e6f7420766f74696e60008301527f6720696e20616e20657865637574697665207370656c6c0000000000000000006020830152604082019050919050565b6000611fbf6030836126a4565b91507f416363657373436f6e74726f6c3a2073656e646572206d75737420626520616e60008301527f2061646d696e20746f207265766f6b65000000000000000000000000000000006020830152604082019050919050565b60006120256010836126a4565b91507f5061757361626c653a20706175736564000000000000000000000000000000006000830152602082019050919050565b60006120656041836126a4565b91507f4d616b65724261646765733a2063616c6c657220686173206e6f74206163637260008301527f7565642031206f72206d6f72652064616920696e746572657374206f6e20706f60208301527f74000000000000000000000000000000000000000000000000000000000000006040830152606082019050919050565b60006120f16041836126a4565b91507f4d616b65724261646765733a2063616c6c6572206973206e6f7420766f74696e60008301527f67207669612070726f787920696e20616e20657865637574697665207370656c60208301527f6c000000000000000000000000000000000000000000000000000000000000006040830152606082019050919050565b600061217d602f836126a4565b91507f4d616b65724261646765733a2063616c6c657220616c7265616479206368656360008301527f6b656420666f7220666c697070657200000000000000000000000000000000006020830152604082019050919050565b60006121e3602b836126a4565b91507f4d616b65724261646765733a206d75737420686176652070617573657220726f60008301527f6c6520746f2070617573650000000000000000000000000000000000000000006020830152604082019050919050565b60006122496058836126a4565b91507f4d616b65724261646765733a2063616c6c6572206973206e6f7420746865206860008301527f6967682062696464657220696e207468652063757272656e742062696420696e60208301527f2045544820636f6c6c61746572616c2061756374696f6e7300000000000000006040830152606082019050919050565b60006122d5602d836126a4565b91507f4d616b65724261646765733a206d75737420686176652070617573657220726f60008301527f6c6520746f20756e7061757365000000000000000000000000000000000000006020830152604082019050919050565b600061233b602f836126a4565b91507f416363657373436f6e74726f6c3a2063616e206f6e6c792072656e6f756e636560008301527f20726f6c657320666f722073656c6600000000000000000000000000000000006020830152604082019050919050565b61239d816126fd565b82525050565b60006020820190506123b86000830184611c42565b92915050565b60006020820190506123d36000830184611c33565b92915050565b60006020820190506123ee6000830184611c51565b92915050565b60006020820190506124096000830184611c60565b92915050565b600060208201905081810360008301526124298184611c6f565b905092915050565b6000602082019050818103600083015261244a81611ca8565b9050919050565b6000602082019050818103600083015261246a81611d0e565b9050919050565b6000602082019050818103600083015261248a81611d74565b9050919050565b600060208201905081810360008301526124aa81611dda565b9050919050565b600060208201905081810360008301526124ca81611e40565b9050919050565b600060208201905081810360008301526124ea81611e80565b9050919050565b6000602082019050818103600083015261250a81611ee6565b9050919050565b6000602082019050818103600083015261252a81611f4c565b9050919050565b6000602082019050818103600083015261254a81611fb2565b9050919050565b6000602082019050818103600083015261256a81612018565b9050919050565b6000602082019050818103600083015261258a81612058565b9050919050565b600060208201905081810360008301526125aa816120e4565b9050919050565b600060208201905081810360008301526125ca81612170565b9050919050565b600060208201905081810360008301526125ea816121d6565b9050919050565b6000602082019050818103600083015261260a8161223c565b9050919050565b6000602082019050818103600083015261262a816122c8565b9050919050565b6000602082019050818103600083015261264a8161232e565b9050919050565b60006020820190506126666000830184612394565b92915050565b6000604051905081810181811067ffffffffffffffff8211171561268f57600080fd5b8060405250919050565b600081519050919050565b600082825260208201905092915050565b60006126c0826126dd565b9050919050565b60008115159050919050565b6000819050919050565b600073ffffffffffffffffffffffffffffffffffffffff82169050919050565b6000819050919050565b600065ffffffffffff82169050919050565b60006127248261272b565b9050919050565b60006127368261273d565b9050919050565b6000612748826126dd565b9050919050565b60005b8381101561276d578082015181840152602081019050612752565b8381111561277c576000848401525b50505050565b6000601f19601f8301169050919050565b61279c816126b5565b81146127a757600080fd5b50565b6127b3816126d3565b81146127be57600080fd5b50565b6127ca816126fd565b81146127d557600080fd5b50565b6127e181612707565b81146127ec57600080fd5b5056fea26469706673582212206dc77304d9b94469038a8492e8ac8a79c43841286acd0c5f4a5e2ac9865f089664736f6c634300060c0033",
  "immutableReferences": {
    "874": [
      {
        "length": 32,
        "start": 4595
      }
    ],
    "876": [
      {
        "length": 32,
        "start": 2648
      },
      {
        "length": 32,
        "start": 3592
      }
    ],
    "878": [
      {
        "length": 32,
        "start": 1351
      }
    ]
  },
  "source": "/// SPDX-License-Identifier: AGPL-3.0-or-later\npragma solidity 0.6.12;\npragma experimental ABIEncoderV2;\n\n\n/// @title Non-transferable Badges for Maker Ecosystem Activity, CDIP 18, 29\n/// @author Nazzareno Massari @naszam\n/// @notice MakerBadges to check on-chain for activities on maker ecosystem and keep track of redeemers\n/// @dev See https://github.com/makerdao/community/issues/537\n/// @dev See https://github.com/makerdao/community/issues/721\n/// @dev All function calls are currently implemented without side effects through TDD approach\n/// @dev OpenZeppelin Library is used for secure contract development\n\n/*\n       \n  \n   \n   \n        \n*/\n\nimport \"@openzeppelin/contracts/access/AccessControl.sol\";\nimport \"@openzeppelin/contracts/utils/Pausable.sol\";\nimport \"@openzeppelin/contracts/utils/EnumerableSet.sol\";\nimport \"@opengsn/gsn/contracts/BaseRelayRecipient.sol\";\n\ninterface ChaiLike {\n    function dai(address usr) external returns (uint256);\n}\n\ninterface DSChiefLike {\n    function votes(address) external view returns (bytes32);\n}\n\ninterface VoteProxyLike {\n    function cold() external view returns (address);\n    function hot() external view returns (address);\n}\n\ninterface FlipperLike {\n    struct Bid {\n        uint256 bid;\n        uint256 lot;\n        address guy;\n        uint48  tic;\n        uint48  end;\n        address usr;\n        address gal;\n        uint256 tab;\n    }\n\n    function bids(uint256) external view returns (Bid memory);\n}\n\ncontract MakerBadges is AccessControl, Pausable, BaseRelayRecipient {\n\n    /// @dev Libraries\n    using EnumerableSet for EnumerableSet.AddressSet;\n\n    /// @dev Data\n    ChaiLike  internal immutable chai;\n    DSChiefLike internal immutable chief;\n    FlipperLike internal immutable flipper;\n    VoteProxyLike internal proxy;\n\n    bytes32 public constant PAUSER_ROLE = keccak256(\"PAUSER_ROLE\");\n\n    mapping(uint256 => EnumerableSet.AddressSet) private redeemers;\n\n    uint256 public constant chaiId = 0;\n    uint256 public constant chiefId = 1;\n    uint256 public constant robotId = 2;\n    uint256 public constant flipperId = 3;\n\n    /// @dev Events\n    event ChaiChecked(address indexed usr);\n    event DSChiefChecked(address indexed guy);\n    event RobotChecked(address indexed guy);\n    event FlipperChecked(address indexed guy);\n\n    constructor(address forwarder_, address chai_, address chief_, address flipper_) public {\n        _setupRole(DEFAULT_ADMIN_ROLE, _msgSender());\n\n        _setupRole(PAUSER_ROLE, _msgSender());\n\n        /// @dev CHAI Address\n        chai = ChaiLike(chai_);\n\n        /// @dev MCD_ADM Address\n        chief = DSChiefLike(chief_);\n\n        /// @dev MCD_FLIP_ETH_A Address\n        flipper = FlipperLike(flipper_);\n\n        /// @dev Biconomy Trusted Forwarder\n        trustedForwarder = forwarder_;\n    }\n\n    /// @notice Fallback function\n    /// @dev Added not payable to revert transactions not matching any other function which send value\n    fallback() external {\n        revert(\"MakerBadges: function not matching any other\");\n    }\n\n    /// @notice Chai Challenge\n    /// @dev Keeps track of the address of the caller if successful\n    function chaiChallenge() external whenNotPaused {\n        require(redeemers[chaiId].add(_msgSender()), \"MakerBadges: caller already checked for chai\");\n        emit ChaiChecked(_msgSender());\n        require(chai.dai(_msgSender()) >= 1 ether, \"MakerBadges: caller has not accrued 1 or more dai interest on pot\");\n    }\n\n\n    /// @notice DSChief Challenge\n    /// @dev Keeps track of the address of the caller if successful\n    function chiefChallenge() external whenNotPaused {\n        require(chief.votes(_msgSender()) != 0x00,\"MakerBadges: caller is not voting in an executive spell\");\n        require(redeemers[chiefId].add(_msgSender()), \"MakerBadges: caller already checked for chief\");\n        emit DSChiefChecked(_msgSender());\n    }\n\n    /// @notice Robot Challenge\n    /// @dev Keeps track of the address of the caller if successful\n    function robotChallenge(address _proxy) external whenNotPaused {\n        proxy = VoteProxyLike(_proxy);\n        require(\n            chief.votes(_proxy)!= 0x00 && (proxy.cold() == _msgSender() || proxy.hot() == _msgSender()),\n            \"MakerBadges: caller is not voting via proxy in an executive spell\"\n        );\n        require(redeemers[robotId].add(_msgSender()), \"MakerBadges: caller already checked for robot\");\n        emit RobotChecked(_msgSender());\n    }\n\n\n    /// @notice Flipper Challenge\n    /// @dev Keeps track of the address of the caller if successful\n    /// @dev guy, high bidder\n    function flipperChallenge(uint256 bidId) external whenNotPaused {\n        require(\n            flipper.bids(bidId).guy == _msgSender(),\n            \"MakerBadges: caller is not the high bidder in the current bid in ETH collateral auctions\"\n        );\n        require(redeemers[flipperId].add(_msgSender()), \"MakerBadges: caller already checked for flipper\");\n        emit FlipperChecked(_msgSender());\n    }\n\n    /// @notice Check if guy is a redeemer\n    /// @dev Verify if the address of guy exists\n    /// @param guy Address to verify\n    /// @return True if guy is a redeemer\n    function verify(uint256 templateId, address guy) external view whenNotPaused returns (bool) {\n        return redeemers[templateId].contains(guy);\n    }\n\n    /// @notice Pause all the functions\n    /// @dev the caller must have the 'PAUSER_ROLE'\n    function pause() external {\n        require(hasRole(PAUSER_ROLE, _msgSender()), \"MakerBadges: must have pauser role to pause\");\n        _pause();\n    }\n\n    /// @notice Unpause all the functions\n    /// @dev The caller must have the 'PAUSER_ROLE'\n    function unpause() external {\n        require(hasRole(PAUSER_ROLE, _msgSender()), \"MakerBadges: must have pauser role to unpause\");\n        _unpause();\n    }\n\n    function versionRecipient() external virtual view override returns (string memory) {\n        return \"0.9.0\";\n    }\n\n    function getTrustedForwarder() external view returns (address) {\n        return trustedForwarder;\n    }\n\n    /// @notice OpenGSN _msgSender()\n    /// @dev override _msgSender() in OZ Context.sol and BaseRelayRecipient.sol\n    /// @return _msgSender() after relay call\n    function _msgSender() internal view override(Context, BaseRelayRecipient) returns (address payable) {\n        return BaseRelayRecipient._msgSender();\n    }\n\n    /// @notice OpenGSN _msgData()\n    /// @dev override _msgData() in OZ Context.sol and BaseRelayRecipient.sol\n    /// @return _msgData() after relay call\n    function _msgData() internal view override(Context, BaseRelayRecipient) returns (bytes memory) {\n        return BaseRelayRecipient._msgData();\n    }\n}\n",
  "sourcePath": "/home/sencha/maker-badges/contracts/MakerBadges.sol",
  "compiler": {
    "name": "solc",
    "version": "0.6.12+commit.27d51765.Emscripten.clang"
  },
  "schemaVersion": "3.3.3",
  "updatedAt": "2021-02-05T16:43:33.288Z",
  "networkType": "ethereum",
  "devdoc": {
    "events": {
      "ChaiChecked(address)": {
        "details": "Events"
      }
    },
    "kind": "dev",
    "methods": {
      "chaiChallenge()": {
        "details": "Keeps track of the address of the caller if successful"
      },
      "chiefChallenge()": {
        "details": "Keeps track of the address of the caller if successful"
      },
      "flipperChallenge(uint256)": {
        "details": "Keeps track of the address of the caller if successfulguy, high bidder"
      },
      "getRoleAdmin(bytes32)": {
        "details": "Returns the admin role that controls `role`. See {grantRole} and {revokeRole}. To change a role's admin, use {_setRoleAdmin}."
      },
      "getRoleMember(bytes32,uint256)": {
        "details": "Returns one of the accounts that have `role`. `index` must be a value between 0 and {getRoleMemberCount}, non-inclusive. Role bearers are not sorted in any particular way, and their ordering may change at any point. WARNING: When using {getRoleMember} and {getRoleMemberCount}, make sure you perform all queries on the same block. See the following https://forum.openzeppelin.com/t/iterating-over-elements-on-enumerableset-in-openzeppelin-contracts/2296[forum post] for more information."
      },
      "getRoleMemberCount(bytes32)": {
        "details": "Returns the number of accounts that have `role`. Can be used together with {getRoleMember} to enumerate all bearers of a role."
      },
      "grantRole(bytes32,address)": {
        "details": "Grants `role` to `account`. If `account` had not been already granted `role`, emits a {RoleGranted} event. Requirements: - the caller must have ``role``'s admin role."
      },
      "hasRole(bytes32,address)": {
        "details": "Returns `true` if `account` has been granted `role`."
      },
      "pause()": {
        "details": "the caller must have the 'PAUSER_ROLE'"
      },
      "paused()": {
        "details": "Returns true if the contract is paused, and false otherwise."
      },
      "renounceRole(bytes32,address)": {
        "details": "Revokes `role` from the calling account. Roles are often managed via {grantRole} and {revokeRole}: this function's purpose is to provide a mechanism for accounts to lose their privileges if they are compromised (such as when a trusted device is misplaced). If the calling account had been granted `role`, emits a {RoleRevoked} event. Requirements: - the caller must be `account`."
      },
      "revokeRole(bytes32,address)": {
        "details": "Revokes `role` from `account`. If `account` had been granted `role`, emits a {RoleRevoked} event. Requirements: - the caller must have ``role``'s admin role."
      },
      "robotChallenge(address)": {
        "details": "Keeps track of the address of the caller if successful"
      },
      "unpause()": {
        "details": "The caller must have the 'PAUSER_ROLE'"
      },
      "verify(uint256,address)": {
        "details": "Verify if the address of guy exists",
        "params": {
          "guy": "Address to verify"
        },
        "returns": {
          "_0": "True if guy is a redeemer"
        }
      }
    },
    "stateVariables": {
      "chai": {
        "details": "Data"
      }
    },
    "version": 1
  },
  "userdoc": {
    "kind": "user",
    "methods": {
      "chaiChallenge()": {
        "notice": "Chai Challenge"
      },
      "chiefChallenge()": {
        "notice": "DSChief Challenge"
      },
      "flipperChallenge(uint256)": {
        "notice": "Flipper Challenge"
      },
      "isTrustedForwarder(address)": {
        "notice": "return if the forwarder is trusted to forward relayed transactions to us. the forwarder is required to verify the sender's signature, and verify the call is not a replay."
      },
      "pause()": {
        "notice": "Pause all the functions"
      },
      "robotChallenge(address)": {
        "notice": "Robot Challenge"
      },
      "unpause()": {
        "notice": "Unpause all the functions"
      },
      "verify(uint256,address)": {
        "notice": "Check if guy is a redeemer"
      }
    },
    "version": 1
  }
}