{
  "contractName": "MakerBadges",
  "abi": [
    {
      "inputs": [
        {
          "internalType": "address",
          "name": "chai_",
          "type": "address"
        },
        {
          "internalType": "address",
          "name": "chief_",
          "type": "address"
        },
        {
          "internalType": "address",
          "name": "flipper_",
          "type": "address"
        }
      ],
      "stateMutability": "nonpayable",
      "type": "constructor"
    },
    {
      "anonymous": false,
      "inputs": [
        {
          "indexed": false,
          "internalType": "address",
          "name": "usr",
          "type": "address"
        }
      ],
      "name": "ChaiChecked",
      "type": "event"
    },
    {
      "anonymous": false,
      "inputs": [
        {
          "indexed": false,
          "internalType": "address",
          "name": "guy",
          "type": "address"
        }
      ],
      "name": "DSChiefChecked",
      "type": "event"
    },
    {
      "anonymous": false,
      "inputs": [
        {
          "indexed": false,
          "internalType": "address",
          "name": "guy",
          "type": "address"
        }
      ],
      "name": "FlipperChecked",
      "type": "event"
    },
    {
      "anonymous": false,
      "inputs": [
        {
          "indexed": false,
          "internalType": "address",
          "name": "account",
          "type": "address"
        }
      ],
      "name": "Paused",
      "type": "event"
    },
    {
      "anonymous": false,
      "inputs": [
        {
          "indexed": false,
          "internalType": "address",
          "name": "guy",
          "type": "address"
        }
      ],
      "name": "RobotChecked",
      "type": "event"
    },
    {
      "anonymous": false,
      "inputs": [
        {
          "indexed": true,
          "internalType": "bytes32",
          "name": "role",
          "type": "bytes32"
        },
        {
          "indexed": true,
          "internalType": "bytes32",
          "name": "previousAdminRole",
          "type": "bytes32"
        },
        {
          "indexed": true,
          "internalType": "bytes32",
          "name": "newAdminRole",
          "type": "bytes32"
        }
      ],
      "name": "RoleAdminChanged",
      "type": "event"
    },
    {
      "anonymous": false,
      "inputs": [
        {
          "indexed": true,
          "internalType": "bytes32",
          "name": "role",
          "type": "bytes32"
        },
        {
          "indexed": true,
          "internalType": "address",
          "name": "account",
          "type": "address"
        },
        {
          "indexed": true,
          "internalType": "address",
          "name": "sender",
          "type": "address"
        }
      ],
      "name": "RoleGranted",
      "type": "event"
    },
    {
      "anonymous": false,
      "inputs": [
        {
          "indexed": true,
          "internalType": "bytes32",
          "name": "role",
          "type": "bytes32"
        },
        {
          "indexed": true,
          "internalType": "address",
          "name": "account",
          "type": "address"
        },
        {
          "indexed": true,
          "internalType": "address",
          "name": "sender",
          "type": "address"
        }
      ],
      "name": "RoleRevoked",
      "type": "event"
    },
    {
      "anonymous": false,
      "inputs": [
        {
          "indexed": false,
          "internalType": "address",
          "name": "account",
          "type": "address"
        }
      ],
      "name": "Unpaused",
      "type": "event"
    },
    {
      "stateMutability": "nonpayable",
      "type": "fallback"
    },
    {
      "inputs": [],
      "name": "ADMIN_ROLE",
      "outputs": [
        {
          "internalType": "bytes32",
          "name": "",
          "type": "bytes32"
        }
      ],
      "stateMutability": "view",
      "type": "function",
      "constant": true
    },
    {
      "inputs": [],
      "name": "DEFAULT_ADMIN_ROLE",
      "outputs": [
        {
          "internalType": "bytes32",
          "name": "",
          "type": "bytes32"
        }
      ],
      "stateMutability": "view",
      "type": "function",
      "constant": true
    },
    {
      "inputs": [],
      "name": "PAUSER_ROLE",
      "outputs": [
        {
          "internalType": "bytes32",
          "name": "",
          "type": "bytes32"
        }
      ],
      "stateMutability": "view",
      "type": "function",
      "constant": true
    },
    {
      "inputs": [
        {
          "internalType": "bytes32",
          "name": "role",
          "type": "bytes32"
        }
      ],
      "name": "getRoleAdmin",
      "outputs": [
        {
          "internalType": "bytes32",
          "name": "",
          "type": "bytes32"
        }
      ],
      "stateMutability": "view",
      "type": "function",
      "constant": true
    },
    {
      "inputs": [
        {
          "internalType": "bytes32",
          "name": "role",
          "type": "bytes32"
        },
        {
          "internalType": "uint256",
          "name": "index",
          "type": "uint256"
        }
      ],
      "name": "getRoleMember",
      "outputs": [
        {
          "internalType": "address",
          "name": "",
          "type": "address"
        }
      ],
      "stateMutability": "view",
      "type": "function",
      "constant": true
    },
    {
      "inputs": [
        {
          "internalType": "bytes32",
          "name": "role",
          "type": "bytes32"
        }
      ],
      "name": "getRoleMemberCount",
      "outputs": [
        {
          "internalType": "uint256",
          "name": "",
          "type": "uint256"
        }
      ],
      "stateMutability": "view",
      "type": "function",
      "constant": true
    },
    {
      "inputs": [
        {
          "internalType": "bytes32",
          "name": "role",
          "type": "bytes32"
        },
        {
          "internalType": "address",
          "name": "account",
          "type": "address"
        }
      ],
      "name": "grantRole",
      "outputs": [],
      "stateMutability": "nonpayable",
      "type": "function"
    },
    {
      "inputs": [
        {
          "internalType": "bytes32",
          "name": "role",
          "type": "bytes32"
        },
        {
          "internalType": "address",
          "name": "account",
          "type": "address"
        }
      ],
      "name": "hasRole",
      "outputs": [
        {
          "internalType": "bool",
          "name": "",
          "type": "bool"
        }
      ],
      "stateMutability": "view",
      "type": "function",
      "constant": true
    },
    {
      "inputs": [],
      "name": "paused",
      "outputs": [
        {
          "internalType": "bool",
          "name": "",
          "type": "bool"
        }
      ],
      "stateMutability": "view",
      "type": "function",
      "constant": true
    },
    {
      "inputs": [
        {
          "internalType": "bytes32",
          "name": "role",
          "type": "bytes32"
        },
        {
          "internalType": "address",
          "name": "account",
          "type": "address"
        }
      ],
      "name": "renounceRole",
      "outputs": [],
      "stateMutability": "nonpayable",
      "type": "function"
    },
    {
      "inputs": [
        {
          "internalType": "bytes32",
          "name": "role",
          "type": "bytes32"
        },
        {
          "internalType": "address",
          "name": "account",
          "type": "address"
        }
      ],
      "name": "revokeRole",
      "outputs": [],
      "stateMutability": "nonpayable",
      "type": "function"
    },
    {
      "inputs": [
        {
          "internalType": "uint256",
          "name": "",
          "type": "uint256"
        }
      ],
      "name": "roots",
      "outputs": [
        {
          "internalType": "bytes32",
          "name": "",
          "type": "bytes32"
        }
      ],
      "stateMutability": "view",
      "type": "function",
      "constant": true
    },
    {
      "inputs": [
        {
          "internalType": "bytes32[]",
          "name": "_roots",
          "type": "bytes32[]"
        }
      ],
      "name": "setRootHashes",
      "outputs": [
        {
          "internalType": "bool",
          "name": "",
          "type": "bool"
        }
      ],
      "stateMutability": "nonpayable",
      "type": "function"
    },
    {
      "inputs": [
        {
          "internalType": "uint256",
          "name": "templateId",
          "type": "uint256"
        }
      ],
      "name": "chaiChallenge",
      "outputs": [
        {
          "internalType": "bool",
          "name": "",
          "type": "bool"
        }
      ],
      "stateMutability": "nonpayable",
      "type": "function"
    },
    {
      "inputs": [
        {
          "internalType": "uint256",
          "name": "templateId",
          "type": "uint256"
        }
      ],
      "name": "chiefChallenge",
      "outputs": [
        {
          "internalType": "bool",
          "name": "",
          "type": "bool"
        }
      ],
      "stateMutability": "nonpayable",
      "type": "function"
    },
    {
      "inputs": [
        {
          "internalType": "uint256",
          "name": "templateId",
          "type": "uint256"
        },
        {
          "internalType": "address",
          "name": "_proxy",
          "type": "address"
        }
      ],
      "name": "robotChallenge",
      "outputs": [
        {
          "internalType": "bool",
          "name": "",
          "type": "bool"
        }
      ],
      "stateMutability": "nonpayable",
      "type": "function"
    },
    {
      "inputs": [
        {
          "internalType": "uint256",
          "name": "templateId",
          "type": "uint256"
        },
        {
          "internalType": "uint256",
          "name": "bidId",
          "type": "uint256"
        }
      ],
      "name": "flipperChallenge",
      "outputs": [
        {
          "internalType": "bool",
          "name": "",
          "type": "bool"
        }
      ],
      "stateMutability": "nonpayable",
      "type": "function"
    },
    {
      "inputs": [
        {
          "internalType": "uint256",
          "name": "templateId",
          "type": "uint256"
        },
        {
          "internalType": "address",
          "name": "guy",
          "type": "address"
        }
      ],
      "name": "verify",
      "outputs": [
        {
          "internalType": "bool",
          "name": "",
          "type": "bool"
        }
      ],
      "stateMutability": "view",
      "type": "function",
      "constant": true
    },
    {
      "inputs": [
        {
          "internalType": "address",
          "name": "account",
          "type": "address"
        }
      ],
      "name": "addAdmin",
      "outputs": [
        {
          "internalType": "bool",
          "name": "",
          "type": "bool"
        }
      ],
      "stateMutability": "nonpayable",
      "type": "function"
    },
    {
      "inputs": [
        {
          "internalType": "address",
          "name": "account",
          "type": "address"
        }
      ],
      "name": "removeAdmin",
      "outputs": [
        {
          "internalType": "bool",
          "name": "",
          "type": "bool"
        }
      ],
      "stateMutability": "nonpayable",
      "type": "function"
    },
    {
      "inputs": [],
      "name": "pause",
      "outputs": [],
      "stateMutability": "nonpayable",
      "type": "function"
    },
    {
      "inputs": [],
      "name": "unpause",
      "outputs": [],
      "stateMutability": "nonpayable",
      "type": "function"
    }
  ],
  "bytecode": "0x60e06040523480156200001157600080fd5b5060405162002b4538038062002b45833981810160405281019062000037919062000326565b6000600160006101000a81548160ff021916908315150217905550620000676000801b336200017960201b60201c565b620000997fa49807205ce4d355092ef5a8a18f56e8913cf4a201fbe287825b095693c21775336200017960201b60201c565b620000cb7f65d7a28e3265b37a6474929f336521b332c1681b933f6cb9f3376673440d862a336200017960201b60201c565b8273ffffffffffffffffffffffffffffffffffffffff1660808173ffffffffffffffffffffffffffffffffffffffff1660601b815250508173ffffffffffffffffffffffffffffffffffffffff1660a08173ffffffffffffffffffffffffffffffffffffffff1660601b815250508073ffffffffffffffffffffffffffffffffffffffff1660c08173ffffffffffffffffffffffffffffffffffffffff1660601b81525050505050620003ca565b6200018b82826200018f60201b60201c565b5050565b620001bd816000808581526020019081526020016000206000016200023260201b620013ee1790919060201c565b156200022e57620001d36200026a60201b60201c565b73ffffffffffffffffffffffffffffffffffffffff168173ffffffffffffffffffffffffffffffffffffffff16837f2f8788117e7eff1d82e926ec794901d17c78024a50270940304540a733656f0d60405160405180910390a45b5050565b600062000262836000018373ffffffffffffffffffffffffffffffffffffffff1660001b6200027260201b60201c565b905092915050565b600033905090565b6000620002868383620002ec60201b60201c565b620002e1578260000182908060018154018082558091505060019003906000526020600020016000909190919091505582600001805490508360010160008481526020019081526020016000208190555060019050620002e6565b600090505b92915050565b600080836001016000848152602001908152602001600020541415905092915050565b6000815190506200032081620003b0565b92915050565b6000806000606084860312156200033c57600080fd5b60006200034c868287016200030f565b93505060206200035f868287016200030f565b925050604062000372868287016200030f565b9150509250925092565b6000620003898262000390565b9050919050565b600073ffffffffffffffffffffffffffffffffffffffff82169050919050565b620003bb816200037c565b8114620003c757600080fd5b50565b60805160601c60a05160601c60c05160601c6127406200040560003980610e4052508061073d528061126e525080610b5152506127406000f3fe608060405234801561001057600080fd5b50600436106101465760003560e01c80639010d07c116100b8578063c2b40ae41161007c578063c2b40ae4146103a2578063ca15c873146103d2578063d547741f14610402578063e63ab1e91461041e578063ebfa62b91461043c578063f36618a61461046c57610147565b80639010d07c146102c457806391d14854146102f45780639c1c94fd14610324578063a217fddf14610354578063aca577031461037257610147565b806340089c141161010a57806340089c14146101ee57806352a34fad1461021e5780635c975abb1461024e578063704802751461026c57806375b238fc1461029c5780638456cb59146102ba57610147565b80631785f53c1461014c578063248a9ca31461017c5780632f2ff15d146101ac57806336568abe146101c85780633f4ba83a146101e457610147565b5b600080fd5b61016660048036038101906101619190611b35565b61049c565b60405161017391906123c5565b60405180910390f35b61019660048036038101906101919190611bcc565b61051d565b6040516101a391906123e0565b60405180910390f35b6101c660048036038101906101c19190611c1e565b61053c565b005b6101e260048036038101906101dd9190611c1e565b6105af565b005b6101ec610632565b005b61020860048036038101906102039190611d12565b6106a5565b60405161021591906123c5565b60405180910390f35b61023860048036038101906102339190611cc0565b610a65565b60405161024591906123c5565b60405180910390f35b610256610c44565b60405161026391906123c5565b60405180910390f35b61028660048036038101906102819190611b35565b610c5b565b60405161029391906123c5565b60405180910390f35b6102a4610cdc565b6040516102b191906123e0565b60405180910390f35b6102c2610d00565b005b6102de60048036038101906102d99190611c5a565b610d73565b6040516102eb919061238f565b60405180910390f35b61030e60048036038101906103099190611c1e565b610da4565b60405161031b91906123c5565b60405180910390f35b61033e60048036038101906103399190611d4e565b610dd5565b60405161034b91906123c5565b60405180910390f35b61035c610fdb565b60405161036991906123e0565b60405180910390f35b61038c60048036038101906103879190611b87565b610fe2565b60405161039991906123c5565b60405180910390f35b6103bc60048036038101906103b79190611cc0565b6110b9565b6040516103c991906123e0565b60405180910390f35b6103ec60048036038101906103e79190611bcc565b6110da565b6040516103f991906125bb565b60405180910390f35b61041c60048036038101906104179190611c1e565b611100565b005b610426611173565b60405161043391906123e0565b60405180910390f35b61045660048036038101906104519190611d12565b611197565b60405161046391906123c5565b60405180910390f35b61048660048036038101906104819190611cc0565b611216565b60405161049391906123c5565b60405180910390f35b60006104ab6000801b33610da4565b6104ea576040517f08c379a00000000000000000000000000000000000000000000000000000000081526004016104e19061253b565b60405180910390fd5b6105147fa49807205ce4d355092ef5a8a18f56e8913cf4a201fbe287825b095693c2177583611100565b60019050919050565b6000806000838152602001908152602001600020600201549050919050565b6105626000808481526020019081526020016000206002015461055d61141e565b610da4565b6105a1576040517f08c379a00000000000000000000000000000000000000000000000000000000081526004016105989061241b565b60405180910390fd5b6105ab8282611426565b5050565b6105b761141e565b73ffffffffffffffffffffffffffffffffffffffff168173ffffffffffffffffffffffffffffffffffffffff1614610624576040517f08c379a000000000000000000000000000000000000000000000000000000000815260040161061b9061259b565b60405180910390fd5b61062e82826114b9565b5050565b61065c7f65d7a28e3265b37a6474929f336521b332c1681b933f6cb9f3376673440d862a33610da4565b61069b576040517f08c379a00000000000000000000000000000000000000000000000000000000081526004016106929061257b565b60405180910390fd5b6106a361154c565b565b6000600160009054906101000a900460ff16156106f7576040517f08c379a00000000000000000000000000000000000000000000000000000000081526004016106ee906124bb565b60405180910390fd5b816001806101000a81548173ffffffffffffffffffffffffffffffffffffffff021916908373ffffffffffffffffffffffffffffffffffffffff1602179055506000801b7f000000000000000000000000000000000000000000000000000000000000000073ffffffffffffffffffffffffffffffffffffffff1663d8bff5a5846040518263ffffffff1660e01b8152600401610794919061238f565b60206040518083038186803b1580156107ac57600080fd5b505afa1580156107c0573d6000803e3d6000fd5b505050506040513d601f19601f820116820180604052508101906107e49190611bf5565b1415801561098d57503373ffffffffffffffffffffffffffffffffffffffff1660018054906101000a900473ffffffffffffffffffffffffffffffffffffffff1673ffffffffffffffffffffffffffffffffffffffff1663578e9dc56040518163ffffffff1660e01b815260040160206040518083038186803b15801561086a57600080fd5b505afa15801561087e573d6000803e3d6000fd5b505050506040513d601f19601f820116820180604052508101906108a29190611b5e565b73ffffffffffffffffffffffffffffffffffffffff16148061098c57503373ffffffffffffffffffffffffffffffffffffffff1660018054906101000a900473ffffffffffffffffffffffffffffffffffffffff1673ffffffffffffffffffffffffffffffffffffffff1663dde9c2976040518163ffffffff1660e01b815260040160206040518083038186803b15801561093c57600080fd5b505afa158015610950573d6000803e3d6000fd5b505050506040513d601f19601f820116820180604052508101906109749190611b5e565b73ffffffffffffffffffffffffffffffffffffffff16145b5b6109cc576040517f08c379a00000000000000000000000000000000000000000000000000000000081526004016109c3906124fb565b60405180910390fd5b6109f133600360008681526020019081526020016000206115f690919063ffffffff16565b610a2457610a1a33600360008681526020019081526020016000206113ee90919063ffffffff16565b610a2357600080fd5b5b7f4772ddfdaff7b0ed2a6605a344f35479461c210c4e8501e43c353307f564aa1533604051610a5391906123aa565b60405180910390a16001905092915050565b6000600160009054906101000a900460ff1615610ab7576040517f08c379a0000000000000000000000000000000000000000000000000000000008152600401610aae906124bb565b60405180910390fd5b610adc33600360008581526020019081526020016000206115f690919063ffffffff16565b610b0f57610b0533600360008581526020019081526020016000206113ee90919063ffffffff16565b610b0e57600080fd5b5b7f7ccf81bb4234eccfcbff066b2b06b185aa31121730c8dc49e5f3c5b5123ee65033604051610b3e91906123aa565b60405180910390a1670de0b6b3a76400007f000000000000000000000000000000000000000000000000000000000000000073ffffffffffffffffffffffffffffffffffffffff16636c25b346336040518263ffffffff1660e01b8152600401610ba891906123aa565b602060405180830381600087803b158015610bc257600080fd5b505af1158015610bd6573d6000803e3d6000fd5b505050506040513d601f19601f82011682018060405250810190610bfa9190611ce9565b1015610c3b576040517f08c379a0000000000000000000000000000000000000000000000000000000008152600401610c32906124db565b60405180910390fd5b60019050919050565b6000600160009054906101000a900460ff16905090565b6000610c6a6000801b33610da4565b610ca9576040517f08c379a0000000000000000000000000000000000000000000000000000000008152600401610ca09061253b565b60405180910390fd5b610cd37fa49807205ce4d355092ef5a8a18f56e8913cf4a201fbe287825b095693c217758361053c565b60019050919050565b7fa49807205ce4d355092ef5a8a18f56e8913cf4a201fbe287825b095693c2177581565b610d2a7f65d7a28e3265b37a6474929f336521b332c1681b933f6cb9f3376673440d862a33610da4565b610d69576040517f08c379a0000000000000000000000000000000000000000000000000000000008152600401610d609061251b565b60405180910390fd5b610d71611626565b565b6000610d9c826000808681526020019081526020016000206000016116d090919063ffffffff16565b905092915050565b6000610dcd826000808681526020019081526020016000206000016115f690919063ffffffff16565b905092915050565b6000600160009054906101000a900460ff1615610e27576040517f08c379a0000000000000000000000000000000000000000000000000000000008152600401610e1e906124bb565b60405180910390fd5b3373ffffffffffffffffffffffffffffffffffffffff167f000000000000000000000000000000000000000000000000000000000000000073ffffffffffffffffffffffffffffffffffffffff16634423c5f1846040518263ffffffff1660e01b8152600401610e9791906125bb565b6101006040518083038186803b158015610eb057600080fd5b505afa158015610ec4573d6000803e3d6000fd5b505050506040513d601f19601f82011682018060405250810190610ee89190611c96565b6040015173ffffffffffffffffffffffffffffffffffffffff1614610f42576040517f08c379a0000000000000000000000000000000000000000000000000000000008152600401610f399061255b565b60405180910390fd5b610f6733600360008681526020019081526020016000206115f690919063ffffffff16565b610f9a57610f9033600360008681526020019081526020016000206113ee90919063ffffffff16565b610f9957600080fd5b5b7f430bb0ab986389293d8f0855931d73d3e3bdc06890eb3e780550c98a7582a7ef33604051610fc991906123aa565b60405180910390a16001905092915050565b6000801b81565b6000600160009054906101000a900460ff1615611034576040517f08c379a000000000000000000000000000000000000000000000000000000000815260040161102b906124bb565b60405180910390fd5b61105e7fa49807205ce4d355092ef5a8a18f56e8913cf4a201fbe287825b095693c2177533610da4565b61109d576040517f08c379a00000000000000000000000000000000000000000000000000000000081526004016110949061245b565b60405180910390fd5b8282600291906110ae929190611928565b506001905092915050565b600281815481106110c657fe5b906000526020600020016000915090505481565b60006110f96000808481526020019081526020016000206000016116ea565b9050919050565b6111266000808481526020019081526020016000206002015461112161141e565b610da4565b611165576040517f08c379a000000000000000000000000000000000000000000000000000000000815260040161115c9061249b565b60405180910390fd5b61116f82826114b9565b5050565b7f65d7a28e3265b37a6474929f336521b332c1681b933f6cb9f3376673440d862a81565b6000600160009054906101000a900460ff16156111e9576040517f08c379a00000000000000000000000000000000000000000000000000000000081526004016111e0906124bb565b60405180910390fd5b61120e82600360008681526020019081526020016000206115f690919063ffffffff16565b905092915050565b6000600160009054906101000a900460ff1615611268576040517f08c379a000000000000000000000000000000000000000000000000000000000815260040161125f906124bb565b60405180910390fd5b6000801b7f000000000000000000000000000000000000000000000000000000000000000073ffffffffffffffffffffffffffffffffffffffff1663d8bff5a5336040518263ffffffff1660e01b81526004016112c591906123aa565b60206040518083038186803b1580156112dd57600080fd5b505afa1580156112f1573d6000803e3d6000fd5b505050506040513d601f19601f820116820180604052508101906113159190611bf5565b1415611356576040517f08c379a000000000000000000000000000000000000000000000000000000000815260040161134d9061247b565b60405180910390fd5b61137b33600360008581526020019081526020016000206115f690919063ffffffff16565b6113ae576113a433600360008581526020019081526020016000206113ee90919063ffffffff16565b6113ad57600080fd5b5b7f359eefdc83d4cbeabeed5ea68cd9213056f02a7317e55e1310612edc535d5ae9336040516113dd91906123aa565b60405180910390a160019050919050565b6000611416836000018373ffffffffffffffffffffffffffffffffffffffff1660001b6116ff565b905092915050565b600033905090565b61144d816000808581526020019081526020016000206000016113ee90919063ffffffff16565b156114b55761145a61141e565b73ffffffffffffffffffffffffffffffffffffffff168173ffffffffffffffffffffffffffffffffffffffff16837f2f8788117e7eff1d82e926ec794901d17c78024a50270940304540a733656f0d60405160405180910390a45b5050565b6114e08160008085815260200190815260200160002060000161176f90919063ffffffff16565b15611548576114ed61141e565b73ffffffffffffffffffffffffffffffffffffffff168173ffffffffffffffffffffffffffffffffffffffff16837ff6391f5c32d9c69d2a47ea670b442974b53935d1edc7fd64eb21e047a839171b60405160405180910390a45b5050565b600160009054906101000a900460ff1661159b576040517f08c379a00000000000000000000000000000000000000000000000000000000081526004016115929061243b565b60405180910390fd5b6000600160006101000a81548160ff0219169083151502179055507f5db9ee0a495bf2e6ff9c91a7834c1ba4fdd244a5e8aa4e537bd38aeae4b073aa6115df61141e565b6040516115ec91906123aa565b60405180910390a1565b600061161e836000018373ffffffffffffffffffffffffffffffffffffffff1660001b61179f565b905092915050565b600160009054906101000a900460ff1615611676576040517f08c379a000000000000000000000000000000000000000000000000000000000815260040161166d906124bb565b60405180910390fd5b60018060006101000a81548160ff0219169083151502179055507f62e78cea01bee320cd4e420270b5ea74000d11b0c9f74754ebdbfc544b05a2586116b961141e565b6040516116c691906123aa565b60405180910390a1565b60006116df83600001836117c2565b60001c905092915050565b60006116f88260000161182f565b9050919050565b600061170b838361179f565b611764578260000182908060018154018082558091505060019003906000526020600020016000909190919091505582600001805490508360010160008481526020019081526020016000208190555060019050611769565b600090505b92915050565b6000611797836000018373ffffffffffffffffffffffffffffffffffffffff1660001b611840565b905092915050565b600080836001016000848152602001908152602001600020541415905092915050565b60008183600001805490501161180d576040517f08c379a0000000000000000000000000000000000000000000000000000000008152600401611804906123fb565b60405180910390fd5b82600001828154811061181c57fe5b9060005260206000200154905092915050565b600081600001805490509050919050565b6000808360010160008481526020019081526020016000205490506000811461191c576000600182039050600060018660000180549050039050600086600001828154811061188b57fe5b90600052602060002001549050808760000184815481106118a857fe5b90600052602060002001819055506001830187600101600083815260200190815260200160002081905550866000018054806118e057fe5b60019003818190600052602060002001600090559055866001016000878152602001908152602001600020600090556001945050505050611922565b60009150505b92915050565b828054828255906000526020600020908101928215611964579160200282015b82811115611963578235825591602001919060010190611948565b5b5090506119719190611975565b5090565b5b8082111561198e576000816000905550600101611976565b5090565b6000813590506119a1816126ae565b92915050565b6000815190506119b6816126ae565b92915050565b60008083601f8401126119ce57600080fd5b8235905067ffffffffffffffff8111156119e757600080fd5b6020830191508360208202830111156119ff57600080fd5b9250929050565b600081359050611a15816126c5565b92915050565b600081519050611a2a816126c5565b92915050565b60006101008284031215611a4357600080fd5b611a4e6101006125d6565b90506000611a5e84828501611b0b565b6000830152506020611a7284828501611b0b565b6020830152506040611a86848285016119a7565b6040830152506060611a9a84828501611b20565b6060830152506080611aae84828501611b20565b60808301525060a0611ac2848285016119a7565b60a08301525060c0611ad6848285016119a7565b60c08301525060e0611aea84828501611b0b565b60e08301525092915050565b600081359050611b05816126dc565b92915050565b600081519050611b1a816126dc565b92915050565b600081519050611b2f816126f3565b92915050565b600060208284031215611b4757600080fd5b6000611b5584828501611992565b91505092915050565b600060208284031215611b7057600080fd5b6000611b7e848285016119a7565b91505092915050565b60008060208385031215611b9a57600080fd5b600083013567ffffffffffffffff811115611bb457600080fd5b611bc0858286016119bc565b92509250509250929050565b600060208284031215611bde57600080fd5b6000611bec84828501611a06565b91505092915050565b600060208284031215611c0757600080fd5b6000611c1584828501611a1b565b91505092915050565b60008060408385031215611c3157600080fd5b6000611c3f85828601611a06565b9250506020611c5085828601611992565b9150509250929050565b60008060408385031215611c6d57600080fd5b6000611c7b85828601611a06565b9250506020611c8c85828601611af6565b9150509250929050565b60006101008284031215611ca957600080fd5b6000611cb784828501611a30565b91505092915050565b600060208284031215611cd257600080fd5b6000611ce084828501611af6565b91505092915050565b600060208284031215611cfb57600080fd5b6000611d0984828501611b0b565b91505092915050565b60008060408385031215611d2557600080fd5b6000611d3385828601611af6565b9250506020611d4485828601611992565b9150509250929050565b60008060408385031215611d6157600080fd5b6000611d6f85828601611af6565b9250506020611d8085828601611af6565b9150509250929050565b611d9381612678565b82525050565b611da281612614565b82525050565b611db181612626565b82525050565b611dc081612632565b82525050565b6000611dd3602283612603565b91507f456e756d657261626c655365743a20696e646578206f7574206f6620626f756e60008301527f64730000000000000000000000000000000000000000000000000000000000006020830152604082019050919050565b6000611e39602f83612603565b91507f416363657373436f6e74726f6c3a2073656e646572206d75737420626520616e60008301527f2061646d696e20746f206772616e7400000000000000000000000000000000006020830152604082019050919050565b6000611e9f601483612603565b91507f5061757361626c653a206e6f74207061757365640000000000000000000000006000830152602082019050919050565b6000611edf602383612603565b91507f4d616b65724261646765733a2063616c6c6572206973206e6f7420616e20616460008301527f6d696e00000000000000000000000000000000000000000000000000000000006020830152604082019050919050565b6000611f45603783612603565b91507f4d616b65724261646765733a2063616c6c6572206973206e6f7420766f74696e60008301527f6720696e20616e20657865637574697665207370656c6c0000000000000000006020830152604082019050919050565b6000611fab603083612603565b91507f416363657373436f6e74726f6c3a2073656e646572206d75737420626520616e60008301527f2061646d696e20746f207265766f6b65000000000000000000000000000000006020830152604082019050919050565b6000612011601083612603565b91507f5061757361626c653a20706175736564000000000000000000000000000000006000830152602082019050919050565b6000612051604183612603565b91507f4d616b65724261646765733a2063616c6c657220686173206e6f74206163637260008301527f7565642031206f72206d6f72652064616920696e746572657374206f6e20706f60208301527f74000000000000000000000000000000000000000000000000000000000000006040830152606082019050919050565b60006120dd604183612603565b91507f4d616b65724261646765733a2063616c6c6572206973206e6f7420766f74696e60008301527f67207669612070726f787920696e20616e20657865637574697665207370656c60208301527f6c000000000000000000000000000000000000000000000000000000000000006040830152606082019050919050565b6000612169602b83612603565b91507f4d616b65724261646765733a206d75737420686176652070617573657220726f60008301527f6c6520746f2070617573650000000000000000000000000000000000000000006020830152604082019050919050565b60006121cf602c83612603565b91507f4d616b65724261646765733a2063616c6c6572206973206e6f7420746865206460008301527f656661756c742061646d696e00000000000000000000000000000000000000006020830152604082019050919050565b6000612235605883612603565b91507f4d616b65724261646765733a2063616c6c6572206973206e6f7420746865206860008301527f6967682062696464657220696e207468652063757272656e742062696420696e60208301527f2045544820636f6c6c61746572616c2061756374696f6e7300000000000000006040830152606082019050919050565b60006122c1602d83612603565b91507f4d616b65724261646765733a206d75737420686176652070617573657220726f60008301527f6c6520746f20756e7061757365000000000000000000000000000000000000006020830152604082019050919050565b6000612327602f83612603565b91507f416363657373436f6e74726f6c3a2063616e206f6e6c792072656e6f756e636560008301527f20726f6c657320666f722073656c6600000000000000000000000000000000006020830152604082019050919050565b6123898161265c565b82525050565b60006020820190506123a46000830184611d99565b92915050565b60006020820190506123bf6000830184611d8a565b92915050565b60006020820190506123da6000830184611da8565b92915050565b60006020820190506123f56000830184611db7565b92915050565b6000602082019050818103600083015261241481611dc6565b9050919050565b6000602082019050818103600083015261243481611e2c565b9050919050565b6000602082019050818103600083015261245481611e92565b9050919050565b6000602082019050818103600083015261247481611ed2565b9050919050565b6000602082019050818103600083015261249481611f38565b9050919050565b600060208201905081810360008301526124b481611f9e565b9050919050565b600060208201905081810360008301526124d481612004565b9050919050565b600060208201905081810360008301526124f481612044565b9050919050565b60006020820190508181036000830152612514816120d0565b9050919050565b600060208201905081810360008301526125348161215c565b9050919050565b60006020820190508181036000830152612554816121c2565b9050919050565b6000602082019050818103600083015261257481612228565b9050919050565b60006020820190508181036000830152612594816122b4565b9050919050565b600060208201905081810360008301526125b48161231a565b9050919050565b60006020820190506125d06000830184612380565b92915050565b6000604051905081810181811067ffffffffffffffff821117156125f957600080fd5b8060405250919050565b600082825260208201905092915050565b600061261f8261263c565b9050919050565b60008115159050919050565b6000819050919050565b600073ffffffffffffffffffffffffffffffffffffffff82169050919050565b6000819050919050565b600065ffffffffffff82169050919050565b60006126838261268a565b9050919050565b60006126958261269c565b9050919050565b60006126a78261263c565b9050919050565b6126b781612614565b81146126c257600080fd5b50565b6126ce81612632565b81146126d957600080fd5b50565b6126e58161265c565b81146126f057600080fd5b50565b6126fc81612666565b811461270757600080fd5b5056fea26469706673582212204214f084450a84468c8ff343c3377ef66fa0c775346283b8443adf01515c5f2d64736f6c634300060c0033",
  "immutableReferences": {
    "810": [
      {
        "length": 32,
        "start": 2897
      }
    ],
    "812": [
      {
        "length": 32,
        "start": 1853
      },
      {
        "length": 32,
        "start": 4718
      }
    ],
    "814": [
      {
        "length": 32,
        "start": 3648
      }
    ]
  },
  "source": "/// SPDX-License-Identifier: AGPL-3.0-or-later\npragma solidity 0.6.12;\npragma experimental ABIEncoderV2;\n\n\n/// @title Non-transferable Badges for Maker Ecosystem Activity, CDIP 18, 29\n/// @author Nazzareno Massari @naszam\n/// @notice MakerBadges to check on-chain for activities on maker ecosystem and keep track of redeemers\n/// @dev See https://github.com/makerdao/community/issues/537\n/// @dev See https://github.com/makerdao/community/issues/721\n/// @dev All function calls are currently implemented without side effects through TDD approach\n/// @dev OpenZeppelin Library is used for secure contract development\n\n/*\n       \n  \n   \n   \n                             \n*/\n\nimport \"@openzeppelin/contracts/access/AccessControl.sol\";\nimport \"@openzeppelin/contracts/utils/Pausable.sol\";\nimport \"@openzeppelin/contracts/math/SafeMath.sol\";\nimport \"@openzeppelin/contracts/utils/EnumerableSet.sol\";\n\ninterface ChaiLike {\n    function dai(address usr) external returns (uint256);\n}\n\ninterface DSChiefLike {\n    function votes(address) external view returns (bytes32);\n}\n\ninterface FlipperLike {\n    struct Bid {\n        uint256 bid;\n        uint256 lot;\n        address guy;\n        uint48  tic;\n        uint48  end;\n        address usr;\n        address gal;\n        uint256 tab;\n    }\n\n    function bids(uint256) external view returns (Bid memory);\n}\n\ninterface VoteProxyLike {\n    function cold() external view returns (address);\n    function hot() external view returns (address);\n}\n\ncontract MakerBadges is AccessControl, Pausable {\n\n    /// @dev Libraries\n    using SafeMath for uint256;\n    using EnumerableSet for EnumerableSet.AddressSet;\n\n    /// @dev Data\n    ChaiLike  internal immutable chai;\n    DSChiefLike internal immutable chief;\n    FlipperLike internal immutable flipper;\n    VoteProxyLike internal proxy;\n\n    bytes32 public constant ADMIN_ROLE = keccak256(\"ADMIN_ROLE\");\n    bytes32 public constant PAUSER_ROLE = keccak256(\"PAUSER_ROLE\");\n\n    bytes32[] public roots;\n\n    mapping(uint256 => EnumerableSet.AddressSet) private redeemers;\n\n    /// @dev Events\n    event ChaiChecked(address usr);\n    event DSChiefChecked(address guy);\n    event RobotChecked(address guy);\n    event FlipperChecked(address guy);\n\n    constructor(address chai_, address chief_, address flipper_) public {\n        _setupRole(DEFAULT_ADMIN_ROLE, msg.sender);\n\n        _setupRole(ADMIN_ROLE, msg.sender);\n        _setupRole(PAUSER_ROLE, msg.sender);\n\n        /// @dev CHAI Address\n        chai = ChaiLike(chai_);\n\n        /// @dev MCD_ADM Address\n        chief = DSChiefLike(chief_);\n\n        /// @dev MCD_FLIP_ETH_A Address\n        flipper = FlipperLike(flipper_);\n    }\n\n    /// @notice Fallback function\n    /// @dev Added not payable to revert transactions not matching any other function which send value\n    fallback() external {\n        revert();\n    }\n\n    /// @notice Set Merkle Tree Root Hashes array\n    /// @dev Called by owner to update roots for different address batches by templateId\n    /// @param _roots Root hashes of the Merkle Trees by templateId\n    /// @return True if successfully updated\n    function setRootHashes(bytes32[] calldata _roots) external whenNotPaused returns (bool) {\n        require(hasRole(ADMIN_ROLE, msg.sender), \"MakerBadges: caller is not an admin\");\n        roots = _roots;\n        return true;\n    }\n\n    /// @notice Chai Challenge\n    /// @dev Keeps track of the address of the caller if successful\n    /// @return True if the caller successfully checked for activity on Chai\n    function chaiChallenge(uint256 templateId) external whenNotPaused returns (bool) {\n        if (!redeemers[templateId].contains(msg.sender)) {\n            require(redeemers[templateId].add(msg.sender));\n        }\n        emit ChaiChecked(msg.sender);\n        require(chai.dai(msg.sender) >= 1 ether, \"MakerBadges: caller has not accrued 1 or more dai interest on pot\");\n        return true;\n    }\n\n\n    /// @notice DSChief Challenge\n    /// @dev Keeps track of the address of the caller if successful\n    /// @return True if the caller successfully checked for activity on DSChief\n    function chiefChallenge(uint256 templateId) external whenNotPaused returns (bool) {\n        require(chief.votes(msg.sender) != 0x00,\"MakerBadges: caller is not voting in an executive spell\");\n        if (!redeemers[templateId].contains(msg.sender)) {\n            require(redeemers[templateId].add(msg.sender));\n        }\n        emit DSChiefChecked(msg.sender);\n        return true;\n    }\n\n    /// @notice Robot Challenge\n    /// @dev Keeps track of the address of the caller if successful\n    /// @return True if the caller successfully checked for activity via vote proxy on DSChief\n    function robotChallenge(uint256 templateId, address _proxy) external whenNotPaused returns (bool) {\n        proxy = VoteProxyLike(_proxy);\n        require(\n            chief.votes(_proxy)!= 0x00 && (proxy.cold() == msg.sender || proxy.hot() == msg.sender),\n            \"MakerBadges: caller is not voting via proxy in an executive spell\"\n        );\n        if (!redeemers[templateId].contains(msg.sender)) {\n            require(redeemers[templateId].add(msg.sender));\n        }\n        emit RobotChecked(msg.sender);\n        return true;\n    }\n\n\n    /// @notice Flipper Challenge\n    /// @dev Keeps track of the address of the caller if successful\n    /// @dev guy, high bidder\n    /// @return True if the caller successfully checked for activity on Flipper\n    function flipperChallenge(uint256 templateId, uint256 bidId) external whenNotPaused returns (bool) {\n        require(\n            flipper.bids(bidId).guy == msg.sender,\n            \"MakerBadges: caller is not the high bidder in the current bid in ETH collateral auctions\"\n        );\n        if (!redeemers[templateId].contains(msg.sender)) {\n            require(redeemers[templateId].add(msg.sender));\n        }\n        emit FlipperChecked(msg.sender);\n        return true;\n    }\n\n    /// @notice Check if guy is a redeemer\n    /// @dev Verify if the address of guy exists\n    /// @param guy Address to verify\n    /// @return True if guy is a redeemer\n    function verify(uint256 templateId, address guy) external view whenNotPaused returns (bool) {\n        return redeemers[templateId].contains(guy);\n    }\n\n    /// @notice Add a new Admin\n    /// @dev Access restricted only for Default Admin\n    /// @param account Address of the new Admin\n    /// @return True if the account address is added as Admin\n    function addAdmin(address account) external returns (bool) {\n        require(hasRole(DEFAULT_ADMIN_ROLE, msg.sender), \"MakerBadges: caller is not the default admin\");\n        grantRole(ADMIN_ROLE, account);\n        return true;\n    }\n\n    /// @notice Remove an Admin\n    /// @dev Access restricted only for Default Admin\n    /// @param account Address of the Admin\n    /// @return True if the account address is removed as Admin\n    function removeAdmin(address account) external returns (bool) {\n        require(hasRole(DEFAULT_ADMIN_ROLE, msg.sender), \"MakerBadges: caller is not the default admin\");\n        revokeRole(ADMIN_ROLE, account);\n        return true;\n    }\n\n    /// @notice Pause all the functions\n    /// @dev the caller must have the 'PAUSER_ROLE'\n    function pause() external {\n        require(hasRole(PAUSER_ROLE, msg.sender), \"MakerBadges: must have pauser role to pause\");\n        _pause();\n    }\n\n    /// @notice Unpause all the functions\n    /// @dev The caller must have the 'PAUSER_ROLE'\n    function unpause() external {\n        require(hasRole(PAUSER_ROLE, msg.sender), \"MakerBadges: must have pauser role to unpause\");\n        _unpause();\n    }\n}\n",
  "sourcePath": "/home/sencha/maker-badges/contracts/MakerBadges.sol",
  "compiler": {
    "name": "solc",
    "version": "0.6.12+commit.27d51765.Emscripten.clang"
  },
  "schemaVersion": "3.3.1",
  "updatedAt": "2020-10-31T14:37:33.836Z",
  "networkType": "ethereum",
  "devdoc": {
    "events": {
      "ChaiChecked(address)": {
        "details": "Events"
      }
    },
    "kind": "dev",
    "methods": {
      "addAdmin(address)": {
        "details": "Access restricted only for Default Admin",
        "params": {
          "account": "Address of the new Admin"
        },
        "returns": {
          "_0": "True if the account address is added as Admin"
        }
      },
      "chaiChallenge(uint256)": {
        "details": "Keeps track of the address of the caller if successful",
        "returns": {
          "_0": "True if the caller successfully checked for activity on Chai"
        }
      },
      "chiefChallenge(uint256)": {
        "details": "Keeps track of the address of the caller if successful",
        "returns": {
          "_0": "True if the caller successfully checked for activity on DSChief"
        }
      },
      "flipperChallenge(uint256,uint256)": {
        "details": "Keeps track of the address of the caller if successfulguy, high bidder",
        "returns": {
          "_0": "True if the caller successfully checked for activity on Flipper"
        }
      },
      "getRoleAdmin(bytes32)": {
        "details": "Returns the admin role that controls `role`. See {grantRole} and {revokeRole}. To change a role's admin, use {_setRoleAdmin}."
      },
      "getRoleMember(bytes32,uint256)": {
        "details": "Returns one of the accounts that have `role`. `index` must be a value between 0 and {getRoleMemberCount}, non-inclusive. Role bearers are not sorted in any particular way, and their ordering may change at any point. WARNING: When using {getRoleMember} and {getRoleMemberCount}, make sure you perform all queries on the same block. See the following https://forum.openzeppelin.com/t/iterating-over-elements-on-enumerableset-in-openzeppelin-contracts/2296[forum post] for more information."
      },
      "getRoleMemberCount(bytes32)": {
        "details": "Returns the number of accounts that have `role`. Can be used together with {getRoleMember} to enumerate all bearers of a role."
      },
      "grantRole(bytes32,address)": {
        "details": "Grants `role` to `account`. If `account` had not been already granted `role`, emits a {RoleGranted} event. Requirements: - the caller must have ``role``'s admin role."
      },
      "hasRole(bytes32,address)": {
        "details": "Returns `true` if `account` has been granted `role`."
      },
      "pause()": {
        "details": "the caller must have the 'PAUSER_ROLE'"
      },
      "paused()": {
        "details": "Returns true if the contract is paused, and false otherwise."
      },
      "removeAdmin(address)": {
        "details": "Access restricted only for Default Admin",
        "params": {
          "account": "Address of the Admin"
        },
        "returns": {
          "_0": "True if the account address is removed as Admin"
        }
      },
      "renounceRole(bytes32,address)": {
        "details": "Revokes `role` from the calling account. Roles are often managed via {grantRole} and {revokeRole}: this function's purpose is to provide a mechanism for accounts to lose their privileges if they are compromised (such as when a trusted device is misplaced). If the calling account had been granted `role`, emits a {RoleRevoked} event. Requirements: - the caller must be `account`."
      },
      "revokeRole(bytes32,address)": {
        "details": "Revokes `role` from `account`. If `account` had been granted `role`, emits a {RoleRevoked} event. Requirements: - the caller must have ``role``'s admin role."
      },
      "robotChallenge(uint256,address)": {
        "details": "Keeps track of the address of the caller if successful",
        "returns": {
          "_0": "True if the caller successfully checked for activity via vote proxy on DSChief"
        }
      },
      "setRootHashes(bytes32[])": {
        "details": "Called by owner to update roots for different address batches by templateId",
        "params": {
          "_roots": "Root hashes of the Merkle Trees by templateId"
        },
        "returns": {
          "_0": "True if successfully updated"
        }
      },
      "unpause()": {
        "details": "The caller must have the 'PAUSER_ROLE'"
      },
      "verify(uint256,address)": {
        "details": "Verify if the address of guy exists",
        "params": {
          "guy": "Address to verify"
        },
        "returns": {
          "_0": "True if guy is a redeemer"
        }
      }
    },
    "stateVariables": {
      "chai": {
        "details": "Data"
      }
    },
    "version": 1
  },
  "userdoc": {
    "kind": "user",
    "methods": {
      "addAdmin(address)": {
        "notice": "Add a new Admin"
      },
      "chaiChallenge(uint256)": {
        "notice": "Chai Challenge"
      },
      "chiefChallenge(uint256)": {
        "notice": "DSChief Challenge"
      },
      "flipperChallenge(uint256,uint256)": {
        "notice": "Flipper Challenge"
      },
      "pause()": {
        "notice": "Pause all the functions"
      },
      "removeAdmin(address)": {
        "notice": "Remove an Admin"
      },
      "robotChallenge(uint256,address)": {
        "notice": "Robot Challenge"
      },
      "setRootHashes(bytes32[])": {
        "notice": "Set Merkle Tree Root Hashes array"
      },
      "unpause()": {
        "notice": "Unpause all the functions"
      },
      "verify(uint256,address)": {
        "notice": "Check if guy is a redeemer"
      }
    },
    "version": 1
  }
}