{
  "contractName": "MakerBadges",
  "abi": [
    {
      "inputs": [
        {
          "internalType": "address",
          "name": "pot_",
          "type": "address"
        },
        {
          "internalType": "address",
          "name": "chief_",
          "type": "address"
        },
        {
          "internalType": "address",
          "name": "flipper_",
          "type": "address"
        }
      ],
      "stateMutability": "nonpayable",
      "type": "constructor"
    },
    {
      "anonymous": false,
      "inputs": [
        {
          "indexed": false,
          "internalType": "address",
          "name": "guy",
          "type": "address"
        }
      ],
      "name": "DSChiefChecked",
      "type": "event"
    },
    {
      "anonymous": false,
      "inputs": [
        {
          "indexed": false,
          "internalType": "address",
          "name": "guy",
          "type": "address"
        }
      ],
      "name": "FlipperChecked",
      "type": "event"
    },
    {
      "anonymous": false,
      "inputs": [
        {
          "indexed": true,
          "internalType": "address",
          "name": "previousOwner",
          "type": "address"
        },
        {
          "indexed": true,
          "internalType": "address",
          "name": "newOwner",
          "type": "address"
        }
      ],
      "name": "OwnershipTransferred",
      "type": "event"
    },
    {
      "anonymous": false,
      "inputs": [
        {
          "indexed": false,
          "internalType": "address",
          "name": "account",
          "type": "address"
        }
      ],
      "name": "Paused",
      "type": "event"
    },
    {
      "anonymous": false,
      "inputs": [
        {
          "indexed": false,
          "internalType": "address",
          "name": "guy",
          "type": "address"
        }
      ],
      "name": "PotChecked",
      "type": "event"
    },
    {
      "anonymous": false,
      "inputs": [
        {
          "indexed": true,
          "internalType": "bytes32",
          "name": "role",
          "type": "bytes32"
        },
        {
          "indexed": true,
          "internalType": "bytes32",
          "name": "previousAdminRole",
          "type": "bytes32"
        },
        {
          "indexed": true,
          "internalType": "bytes32",
          "name": "newAdminRole",
          "type": "bytes32"
        }
      ],
      "name": "RoleAdminChanged",
      "type": "event"
    },
    {
      "anonymous": false,
      "inputs": [
        {
          "indexed": true,
          "internalType": "bytes32",
          "name": "role",
          "type": "bytes32"
        },
        {
          "indexed": true,
          "internalType": "address",
          "name": "account",
          "type": "address"
        },
        {
          "indexed": true,
          "internalType": "address",
          "name": "sender",
          "type": "address"
        }
      ],
      "name": "RoleGranted",
      "type": "event"
    },
    {
      "anonymous": false,
      "inputs": [
        {
          "indexed": true,
          "internalType": "bytes32",
          "name": "role",
          "type": "bytes32"
        },
        {
          "indexed": true,
          "internalType": "address",
          "name": "account",
          "type": "address"
        },
        {
          "indexed": true,
          "internalType": "address",
          "name": "sender",
          "type": "address"
        }
      ],
      "name": "RoleRevoked",
      "type": "event"
    },
    {
      "anonymous": false,
      "inputs": [
        {
          "indexed": false,
          "internalType": "address",
          "name": "account",
          "type": "address"
        }
      ],
      "name": "Unpaused",
      "type": "event"
    },
    {
      "stateMutability": "nonpayable",
      "type": "fallback"
    },
    {
      "inputs": [],
      "name": "ADMIN_ROLE",
      "outputs": [
        {
          "internalType": "bytes32",
          "name": "",
          "type": "bytes32"
        }
      ],
      "stateMutability": "view",
      "type": "function",
      "constant": true
    },
    {
      "inputs": [],
      "name": "DEFAULT_ADMIN_ROLE",
      "outputs": [
        {
          "internalType": "bytes32",
          "name": "",
          "type": "bytes32"
        }
      ],
      "stateMutability": "view",
      "type": "function",
      "constant": true
    },
    {
      "inputs": [],
      "name": "PAUSER_ROLE",
      "outputs": [
        {
          "internalType": "bytes32",
          "name": "",
          "type": "bytes32"
        }
      ],
      "stateMutability": "view",
      "type": "function",
      "constant": true
    },
    {
      "inputs": [
        {
          "internalType": "bytes32",
          "name": "role",
          "type": "bytes32"
        }
      ],
      "name": "getRoleAdmin",
      "outputs": [
        {
          "internalType": "bytes32",
          "name": "",
          "type": "bytes32"
        }
      ],
      "stateMutability": "view",
      "type": "function",
      "constant": true
    },
    {
      "inputs": [
        {
          "internalType": "bytes32",
          "name": "role",
          "type": "bytes32"
        },
        {
          "internalType": "uint256",
          "name": "index",
          "type": "uint256"
        }
      ],
      "name": "getRoleMember",
      "outputs": [
        {
          "internalType": "address",
          "name": "",
          "type": "address"
        }
      ],
      "stateMutability": "view",
      "type": "function",
      "constant": true
    },
    {
      "inputs": [
        {
          "internalType": "bytes32",
          "name": "role",
          "type": "bytes32"
        }
      ],
      "name": "getRoleMemberCount",
      "outputs": [
        {
          "internalType": "uint256",
          "name": "",
          "type": "uint256"
        }
      ],
      "stateMutability": "view",
      "type": "function",
      "constant": true
    },
    {
      "inputs": [
        {
          "internalType": "bytes32",
          "name": "role",
          "type": "bytes32"
        },
        {
          "internalType": "address",
          "name": "account",
          "type": "address"
        }
      ],
      "name": "grantRole",
      "outputs": [],
      "stateMutability": "nonpayable",
      "type": "function"
    },
    {
      "inputs": [
        {
          "internalType": "bytes32",
          "name": "role",
          "type": "bytes32"
        },
        {
          "internalType": "address",
          "name": "account",
          "type": "address"
        }
      ],
      "name": "hasRole",
      "outputs": [
        {
          "internalType": "bool",
          "name": "",
          "type": "bool"
        }
      ],
      "stateMutability": "view",
      "type": "function",
      "constant": true
    },
    {
      "inputs": [],
      "name": "owner",
      "outputs": [
        {
          "internalType": "address",
          "name": "",
          "type": "address"
        }
      ],
      "stateMutability": "view",
      "type": "function",
      "constant": true
    },
    {
      "inputs": [],
      "name": "paused",
      "outputs": [
        {
          "internalType": "bool",
          "name": "",
          "type": "bool"
        }
      ],
      "stateMutability": "view",
      "type": "function",
      "constant": true
    },
    {
      "inputs": [],
      "name": "renounceOwnership",
      "outputs": [],
      "stateMutability": "nonpayable",
      "type": "function"
    },
    {
      "inputs": [
        {
          "internalType": "bytes32",
          "name": "role",
          "type": "bytes32"
        },
        {
          "internalType": "address",
          "name": "account",
          "type": "address"
        }
      ],
      "name": "renounceRole",
      "outputs": [],
      "stateMutability": "nonpayable",
      "type": "function"
    },
    {
      "inputs": [
        {
          "internalType": "bytes32",
          "name": "role",
          "type": "bytes32"
        },
        {
          "internalType": "address",
          "name": "account",
          "type": "address"
        }
      ],
      "name": "revokeRole",
      "outputs": [],
      "stateMutability": "nonpayable",
      "type": "function"
    },
    {
      "inputs": [
        {
          "internalType": "uint256",
          "name": "",
          "type": "uint256"
        }
      ],
      "name": "roots",
      "outputs": [
        {
          "internalType": "bytes32",
          "name": "",
          "type": "bytes32"
        }
      ],
      "stateMutability": "view",
      "type": "function",
      "constant": true
    },
    {
      "inputs": [
        {
          "internalType": "address",
          "name": "newOwner",
          "type": "address"
        }
      ],
      "name": "transferOwnership",
      "outputs": [],
      "stateMutability": "nonpayable",
      "type": "function"
    },
    {
      "inputs": [
        {
          "internalType": "bytes32[]",
          "name": "rootHashes",
          "type": "bytes32[]"
        }
      ],
      "name": "setRootHashes",
      "outputs": [
        {
          "internalType": "bool",
          "name": "",
          "type": "bool"
        }
      ],
      "stateMutability": "nonpayable",
      "type": "function"
    },
    {
      "inputs": [
        {
          "internalType": "uint256",
          "name": "templateId",
          "type": "uint256"
        }
      ],
      "name": "potChallenge",
      "outputs": [
        {
          "internalType": "bool",
          "name": "",
          "type": "bool"
        }
      ],
      "stateMutability": "nonpayable",
      "type": "function"
    },
    {
      "inputs": [
        {
          "internalType": "uint256",
          "name": "templateId",
          "type": "uint256"
        }
      ],
      "name": "chiefChallenge",
      "outputs": [
        {
          "internalType": "bool",
          "name": "",
          "type": "bool"
        }
      ],
      "stateMutability": "nonpayable",
      "type": "function"
    },
    {
      "inputs": [
        {
          "internalType": "uint256",
          "name": "templateId",
          "type": "uint256"
        },
        {
          "internalType": "uint256",
          "name": "bidId",
          "type": "uint256"
        }
      ],
      "name": "flipperChallenge",
      "outputs": [
        {
          "internalType": "bool",
          "name": "",
          "type": "bool"
        }
      ],
      "stateMutability": "nonpayable",
      "type": "function"
    },
    {
      "inputs": [
        {
          "internalType": "uint256",
          "name": "templateId",
          "type": "uint256"
        },
        {
          "internalType": "address",
          "name": "guy",
          "type": "address"
        }
      ],
      "name": "verify",
      "outputs": [
        {
          "internalType": "bool",
          "name": "",
          "type": "bool"
        }
      ],
      "stateMutability": "view",
      "type": "function",
      "constant": true
    },
    {
      "inputs": [],
      "name": "pause",
      "outputs": [],
      "stateMutability": "nonpayable",
      "type": "function"
    },
    {
      "inputs": [],
      "name": "unpause",
      "outputs": [],
      "stateMutability": "nonpayable",
      "type": "function"
    }
  ],
  "bytecode": "0x60e06040523480156200001157600080fd5b5060405162002ec738038062002ec7833981810160405281019062000037919062000417565b6000620000496200024060201b60201c565b9050806000806101000a81548173ffffffffffffffffffffffffffffffffffffffff021916908373ffffffffffffffffffffffffffffffffffffffff1602179055508073ffffffffffffffffffffffffffffffffffffffff16600073ffffffffffffffffffffffffffffffffffffffff167f8be0079c531659141344cd1fd0a4f28419497f9722a3daafe3b4186f6b6457e060405160405180910390a3506000600260006101000a81548160ff021916908315150217905550620001266000801b6200011a6200024860201b60201c565b6200027160201b60201c565b6200015c604051620001389062000508565b6040518091039020620001506200024860201b60201c565b6200027160201b60201c565b620001926040516200016e90620004f1565b6040518091039020620001866200024860201b60201c565b6200027160201b60201c565b8273ffffffffffffffffffffffffffffffffffffffff1660808173ffffffffffffffffffffffffffffffffffffffff1660601b815250508173ffffffffffffffffffffffffffffffffffffffff1660a08173ffffffffffffffffffffffffffffffffffffffff1660601b815250508073ffffffffffffffffffffffffffffffffffffffff1660c08173ffffffffffffffffffffffffffffffffffffffff1660601b8152505050505062000578565b600033905090565b60008060009054906101000a900473ffffffffffffffffffffffffffffffffffffffff16905090565b6200028382826200028760201b60201c565b5050565b620002b681600160008581526020019081526020016000206000016200032b60201b620011451790919060201c565b156200032757620002cc6200024060201b60201c565b73ffffffffffffffffffffffffffffffffffffffff168173ffffffffffffffffffffffffffffffffffffffff16837f2f8788117e7eff1d82e926ec794901d17c78024a50270940304540a733656f0d60405160405180910390a45b5050565b60006200035b836000018373ffffffffffffffffffffffffffffffffffffffff1660001b6200036360201b60201c565b905092915050565b6000620003778383620003dd60201b60201c565b620003d2578260000182908060018154018082558091505060019003906000526020600020016000909190919091505582600001805490508360010160008481526020019081526020016000208190555060019050620003d7565b600090505b92915050565b600080836001016000848152602001908152602001600020541415905092915050565b60008151905062000411816200055e565b92915050565b6000806000606084860312156200042d57600080fd5b60006200043d8682870162000400565b9350506020620004508682870162000400565b9250506040620004638682870162000400565b9150509250925092565b60006200047c600b836200051f565b91507f5041555345525f524f4c450000000000000000000000000000000000000000006000830152600b82019050919050565b6000620004be600a836200051f565b91507f41444d494e5f524f4c45000000000000000000000000000000000000000000006000830152600a82019050919050565b6000620004fe826200046d565b9150819050919050565b60006200051582620004af565b9150819050919050565b600081905092915050565b600062000537826200053e565b9050919050565b600073ffffffffffffffffffffffffffffffffffffffff82169050919050565b62000569816200052a565b81146200057557600080fd5b50565b60805160601c60a05160601c60c05160601c61290a620005bd600039806108ae525080610fc552508061149a528061154752806115eb528061168e525061290a6000f3fe608060405234801561001057600080fd5b50600436106101465760003560e01c80639c1c94fd116100b8578063ca15c8731161007c578063ca15c8731461036a578063d547741f1461039a578063e63ab1e9146103b6578063ebfa62b9146103d4578063f2fde38b14610404578063f36618a61461042057610147565b80639c1c94fd1461028c578063a217fddf146102bc578063aca57703146102da578063baf2868b1461030a578063c2b40ae41461033a57610147565b8063715018a61161010a578063715018a6146101dc57806375b238fc146101e65780638456cb59146102045780638da5cb5b1461020e5780639010d07c1461022c57806391d148541461025c57610147565b8063248a9ca31461014c5780632f2ff15d1461017c57806336568abe146101985780633f4ba83a146101b45780635c975abb146101be57610147565b5b600080fd5b61016660048036038101906101619190611cf3565b610450565b604051610173919061257f565b60405180910390f35b61019660048036038101906101919190611d45565b610470565b005b6101b260048036038101906101ad9190611d45565b6104e4565b005b6101bc610567565b005b6101c66105cd565b6040516101d39190612564565b60405180910390f35b6101e46105e4565b005b6101ee610739565b6040516101fb919061257f565b60405180910390f35b61020c610750565b005b6102166107b6565b604051610223919061252e565b60405180910390f35b61024660048036038101906102419190611d81565b6107df565b604051610253919061252e565b60405180910390f35b61027660048036038101906102719190611d45565b610811565b6040516102839190612564565b60405180910390f35b6102a660048036038101906102a19190611e75565b610843565b6040516102b39190612564565b60405180910390f35b6102c4610a49565b6040516102d1919061257f565b60405180910390f35b6102f460048036038101906102ef9190611cae565b610a50565b6040516103019190612564565b60405180910390f35b610324600480360381019061031f9190611de7565b610b1a565b6040516103319190612564565b60405180910390f35b610354600480360381019061034f9190611de7565b610c57565b604051610361919061257f565b60405180910390f35b610384600480360381019061037f9190611cf3565b610c78565b604051610391919061277a565b60405180910390f35b6103b460048036038101906103af9190611d45565b610c9f565b005b6103be610d13565b6040516103cb919061257f565b60405180910390f35b6103ee60048036038101906103e99190611e39565b610d2a565b6040516103fb9190612564565b60405180910390f35b61041e60048036038101906104199190611c85565b610da9565b005b61043a60048036038101906104359190611de7565b610f6d565b6040516104479190612564565b60405180910390f35b600060016000838152602001908152602001600020600201549050919050565b6104976001600084815260200190815260200160002060020154610492611175565b610811565b6104d6576040517f08c379a00000000000000000000000000000000000000000000000000000000081526004016104cd906125ba565b60405180910390fd5b6104e0828261117d565b5050565b6104ec611175565b73ffffffffffffffffffffffffffffffffffffffff168173ffffffffffffffffffffffffffffffffffffffff1614610559576040517f08c379a00000000000000000000000000000000000000000000000000000000081526004016105509061275a565b60405180910390fd5b6105638282611211565b5050565b61058460405161057690612504565b604051809103902033610811565b6105c3576040517f08c379a00000000000000000000000000000000000000000000000000000000081526004016105ba9061271a565b60405180910390fd5b6105cb6112a5565b565b6000600260009054906101000a900460ff16905090565b6105ec611175565b73ffffffffffffffffffffffffffffffffffffffff166000809054906101000a900473ffffffffffffffffffffffffffffffffffffffff1673ffffffffffffffffffffffffffffffffffffffff161461067a576040517f08c379a0000000000000000000000000000000000000000000000000000000008152600401610671906126ba565b60405180910390fd5b600073ffffffffffffffffffffffffffffffffffffffff166000809054906101000a900473ffffffffffffffffffffffffffffffffffffffff1673ffffffffffffffffffffffffffffffffffffffff167f8be0079c531659141344cd1fd0a4f28419497f9722a3daafe3b4186f6b6457e060405160405180910390a360008060006101000a81548173ffffffffffffffffffffffffffffffffffffffff021916908373ffffffffffffffffffffffffffffffffffffffff160217905550565b60405161074590612519565b604051809103902081565b61076d60405161075f90612504565b604051809103902033610811565b6107ac576040517f08c379a00000000000000000000000000000000000000000000000000000000081526004016107a3906126fa565b60405180910390fd5b6107b461134f565b565b60008060009054906101000a900473ffffffffffffffffffffffffffffffffffffffff16905090565b600061080982600160008681526020019081526020016000206000016113fa90919063ffffffff16565b905092915050565b600061083b826001600086815260200190815260200160002060000161141490919063ffffffff16565b905092915050565b6000600260009054906101000a900460ff1615610895576040517f08c379a000000000000000000000000000000000000000000000000000000000815260040161088c9061265a565b60405180910390fd5b3373ffffffffffffffffffffffffffffffffffffffff167f000000000000000000000000000000000000000000000000000000000000000073ffffffffffffffffffffffffffffffffffffffff16634423c5f1846040518263ffffffff1660e01b8152600401610905919061277a565b6101006040518083038186803b15801561091e57600080fd5b505afa158015610932573d6000803e3d6000fd5b505050506040513d601f19601f820116820180604052508101906109569190611dbd565b6040015173ffffffffffffffffffffffffffffffffffffffff16146109b0576040517f08c379a00000000000000000000000000000000000000000000000000000000081526004016109a79061273a565b60405180910390fd5b6109d5336004600086815260200190815260200160002061141490919063ffffffff16565b610a08576109fe336004600086815260200190815260200160002061114590919063ffffffff16565b610a0757600080fd5b5b7f430bb0ab986389293d8f0855931d73d3e3bdc06890eb3e780550c98a7582a7ef33604051610a379190612549565b60405180910390a16001905092915050565b6000801b81565b6000610a6f604051610a6190612519565b604051809103902033610811565b610aae576040517f08c379a0000000000000000000000000000000000000000000000000000000008152600401610aa5906126da565b60405180910390fd5b600260009054906101000a900460ff1615610afe576040517f08c379a0000000000000000000000000000000000000000000000000000000008152600401610af59061265a565b60405180910390fd5b828260039190610b0f929190611a70565b506001905092915050565b6000600260009054906101000a900460ff1615610b6c576040517f08c379a0000000000000000000000000000000000000000000000000000000008152600401610b639061265a565b60405180910390fd5b670de0b6b3a7640000610b7e33611444565b1015610bbf576040517f08c379a0000000000000000000000000000000000000000000000000000000008152600401610bb69061269a565b60405180910390fd5b610be4336004600085815260200190815260200160002061141490919063ffffffff16565b610c1757610c0d336004600085815260200190815260200160002061114590919063ffffffff16565b610c1657600080fd5b5b7fc53e300da4fe7bad9553037bb567acec8109a294de1f832291c2d814dfc262c433604051610c469190612549565b60405180910390a160019050919050565b60038181548110610c6457fe5b906000526020600020016000915090505481565b6000610c9860016000848152602001908152602001600020600001611740565b9050919050565b610cc66001600084815260200190815260200160002060020154610cc1611175565b610811565b610d05576040517f08c379a0000000000000000000000000000000000000000000000000000000008152600401610cfc9061261a565b60405180910390fd5b610d0f8282611211565b5050565b604051610d1f90612504565b604051809103902081565b6000600260009054906101000a900460ff1615610d7c576040517f08c379a0000000000000000000000000000000000000000000000000000000008152600401610d739061265a565b60405180910390fd5b610da1826004600086815260200190815260200160002061141490919063ffffffff16565b905092915050565b610db1611175565b73ffffffffffffffffffffffffffffffffffffffff166000809054906101000a900473ffffffffffffffffffffffffffffffffffffffff1673ffffffffffffffffffffffffffffffffffffffff1614610e3f576040517f08c379a0000000000000000000000000000000000000000000000000000000008152600401610e36906126ba565b60405180910390fd5b600073ffffffffffffffffffffffffffffffffffffffff168173ffffffffffffffffffffffffffffffffffffffff161415610eaf576040517f08c379a0000000000000000000000000000000000000000000000000000000008152600401610ea6906125fa565b60405180910390fd5b8073ffffffffffffffffffffffffffffffffffffffff166000809054906101000a900473ffffffffffffffffffffffffffffffffffffffff1673ffffffffffffffffffffffffffffffffffffffff167f8be0079c531659141344cd1fd0a4f28419497f9722a3daafe3b4186f6b6457e060405160405180910390a3806000806101000a81548173ffffffffffffffffffffffffffffffffffffffff021916908373ffffffffffffffffffffffffffffffffffffffff16021790555050565b6000600260009054906101000a900460ff1615610fbf576040517f08c379a0000000000000000000000000000000000000000000000000000000008152600401610fb69061265a565b60405180910390fd5b6000801b7f000000000000000000000000000000000000000000000000000000000000000073ffffffffffffffffffffffffffffffffffffffff1663d8bff5a5336040518263ffffffff1660e01b815260040161101c9190612549565b60206040518083038186803b15801561103457600080fd5b505afa158015611048573d6000803e3d6000fd5b505050506040513d601f19601f8201168201806040525081019061106c9190611d1c565b14156110ad576040517f08c379a00000000000000000000000000000000000000000000000000000000081526004016110a49061263a565b60405180910390fd5b6110d2336004600085815260200190815260200160002061141490919063ffffffff16565b611105576110fb336004600085815260200190815260200160002061114590919063ffffffff16565b61110457600080fd5b5b7f359eefdc83d4cbeabeed5ea68cd9213056f02a7317e55e1310612edc535d5ae9336040516111349190612549565b60405180910390a160019050919050565b600061116d836000018373ffffffffffffffffffffffffffffffffffffffff1660001b611755565b905092915050565b600033905090565b6111a5816001600085815260200190815260200160002060000161114590919063ffffffff16565b1561120d576111b2611175565b73ffffffffffffffffffffffffffffffffffffffff168173ffffffffffffffffffffffffffffffffffffffff16837f2f8788117e7eff1d82e926ec794901d17c78024a50270940304540a733656f0d60405160405180910390a45b5050565b61123981600160008581526020019081526020016000206000016117c590919063ffffffff16565b156112a157611246611175565b73ffffffffffffffffffffffffffffffffffffffff168173ffffffffffffffffffffffffffffffffffffffff16837ff6391f5c32d9c69d2a47ea670b442974b53935d1edc7fd64eb21e047a839171b60405160405180910390a45b5050565b600260009054906101000a900460ff166112f4576040517f08c379a00000000000000000000000000000000000000000000000000000000081526004016112eb906125da565b60405180910390fd5b6000600260006101000a81548160ff0219169083151502179055507f5db9ee0a495bf2e6ff9c91a7834c1ba4fdd244a5e8aa4e537bd38aeae4b073aa611338611175565b6040516113459190612549565b60405180910390a1565b600260009054906101000a900460ff161561139f576040517f08c379a00000000000000000000000000000000000000000000000000000000081526004016113969061265a565b60405180910390fd5b6001600260006101000a81548160ff0219169083151502179055507f62e78cea01bee320cd4e420270b5ea74000d11b0c9f74754ebdbfc544b05a2586113e3611175565b6040516113f09190612549565b60405180910390a1565b600061140983600001836117f5565b60001c905092915050565b600061143c836000018373ffffffffffffffffffffffffffffffffffffffff1660001b611862565b905092915050565b6000600260009054906101000a900460ff1615611496576040517f08c379a000000000000000000000000000000000000000000000000000000000815260040161148d9061265a565b60405180910390fd5b60007f000000000000000000000000000000000000000000000000000000000000000073ffffffffffffffffffffffffffffffffffffffff16630bebac86846040518263ffffffff1660e01b81526004016114f1919061252e565b60206040518083038186803b15801561150957600080fd5b505afa15801561151d573d6000803e3d6000fd5b505050506040513d601f19601f820116820180604052508101906115419190611e10565b905060007f000000000000000000000000000000000000000000000000000000000000000073ffffffffffffffffffffffffffffffffffffffff166320aba08b6040518163ffffffff1660e01b815260040160206040518083038186803b1580156115ab57600080fd5b505afa1580156115bf573d6000803e3d6000fd5b505050506040513d601f19601f820116820180604052508101906115e39190611e10565b421161168c577f000000000000000000000000000000000000000000000000000000000000000073ffffffffffffffffffffffffffffffffffffffff1663c92aecc46040518163ffffffff1660e01b815260040160206040518083038186803b15801561164f57600080fd5b505afa158015611663573d6000803e3d6000fd5b505050506040513d601f19601f820116820180604052508101906116879190611e10565b61172b565b7f000000000000000000000000000000000000000000000000000000000000000073ffffffffffffffffffffffffffffffffffffffff16639f678cca6040518163ffffffff1660e01b815260040160206040518083038186803b1580156116f257600080fd5b505afa158015611706573d6000803e3d6000fd5b505050506040513d601f19601f8201168201806040525081019061172a9190611e10565b5b90506117378282611885565b92505050919050565b600061174e82600001611907565b9050919050565b60006117618383611862565b6117ba5782600001829080600181540180825580915050600190039060005260206000200160009091909190915055826000018054905083600101600084815260200190815260200160002081905550600190506117bf565b600090505b92915050565b60006117ed836000018373ffffffffffffffffffffffffffffffffffffffff1660001b611918565b905092915050565b600081836000018054905011611840576040517f08c379a00000000000000000000000000000000000000000000000000000000081526004016118379061259a565b60405180910390fd5b82600001828154811061184f57fe5b9060005260206000200154905092915050565b600080836001016000848152602001908152602001600020541415905092915050565b6000600260009054906101000a900460ff16156118d7576040517f08c379a00000000000000000000000000000000000000000000000000000000081526004016118ce9061265a565b60405180910390fd5b6b033b2e3c9fd0803ce80000006118f78385611a0090919063ffffffff16565b816118fe57fe5b04905092915050565b600081600001805490509050919050565b600080836001016000848152602001908152602001600020549050600081146119f4576000600182039050600060018660000180549050039050600086600001828154811061196357fe5b906000526020600020015490508087600001848154811061198057fe5b90600052602060002001819055506001830187600101600083815260200190815260200160002081905550866000018054806119b857fe5b600190038181906000526020600020016000905590558660010160008781526020019081526020016000206000905560019450505050506119fa565b60009150505b92915050565b600080831415611a135760009050611a6a565b6000828402905082848281611a2457fe5b0414611a65576040517f08c379a0000000000000000000000000000000000000000000000000000000008152600401611a5c9061267a565b60405180910390fd5b809150505b92915050565b828054828255906000526020600020908101928215611aac579160200282015b82811115611aab578235825591602001919060010190611a90565b5b509050611ab99190611abd565b5090565b611adf91905b80821115611adb576000816000905550600101611ac3565b5090565b90565b600081359050611af181612878565b92915050565b600081519050611b0681612878565b92915050565b60008083601f840112611b1e57600080fd5b8235905067ffffffffffffffff811115611b3757600080fd5b602083019150836020820283011115611b4f57600080fd5b9250929050565b600081359050611b658161288f565b92915050565b600081519050611b7a8161288f565b92915050565b60006101008284031215611b9357600080fd5b611b9e610100612795565b90506000611bae84828501611c5b565b6000830152506020611bc284828501611c5b565b6020830152506040611bd684828501611af7565b6040830152506060611bea84828501611c70565b6060830152506080611bfe84828501611c70565b60808301525060a0611c1284828501611af7565b60a08301525060c0611c2684828501611af7565b60c08301525060e0611c3a84828501611c5b565b60e08301525092915050565b600081359050611c55816128a6565b92915050565b600081519050611c6a816128a6565b92915050565b600081519050611c7f816128bd565b92915050565b600060208284031215611c9757600080fd5b6000611ca584828501611ae2565b91505092915050565b60008060208385031215611cc157600080fd5b600083013567ffffffffffffffff811115611cdb57600080fd5b611ce785828601611b0c565b92509250509250929050565b600060208284031215611d0557600080fd5b6000611d1384828501611b56565b91505092915050565b600060208284031215611d2e57600080fd5b6000611d3c84828501611b6b565b91505092915050565b60008060408385031215611d5857600080fd5b6000611d6685828601611b56565b9250506020611d7785828601611ae2565b9150509250929050565b60008060408385031215611d9457600080fd5b6000611da285828601611b56565b9250506020611db385828601611c46565b9150509250929050565b60006101008284031215611dd057600080fd5b6000611dde84828501611b80565b91505092915050565b600060208284031215611df957600080fd5b6000611e0784828501611c46565b91505092915050565b600060208284031215611e2257600080fd5b6000611e3084828501611c5b565b91505092915050565b60008060408385031215611e4c57600080fd5b6000611e5a85828601611c46565b9250506020611e6b85828601611ae2565b9150509250929050565b60008060408385031215611e8857600080fd5b6000611e9685828601611c46565b9250506020611ea785828601611c46565b9150509250929050565b611eba81612842565b82525050565b611ec9816127de565b82525050565b611ed8816127f0565b82525050565b611ee7816127fc565b82525050565b6000611efa6022836127c2565b91507f456e756d657261626c655365743a20696e646578206f7574206f6620626f756e60008301527f64730000000000000000000000000000000000000000000000000000000000006020830152604082019050919050565b6000611f60602f836127c2565b91507f416363657373436f6e74726f6c3a2073656e646572206d75737420626520616e60008301527f2061646d696e20746f206772616e7400000000000000000000000000000000006020830152604082019050919050565b6000611fc66014836127c2565b91507f5061757361626c653a206e6f74207061757365640000000000000000000000006000830152602082019050919050565b60006120066026836127c2565b91507f4f776e61626c653a206e6577206f776e657220697320746865207a65726f206160008301527f64647265737300000000000000000000000000000000000000000000000000006020830152604082019050919050565b600061206c6030836127c2565b91507f416363657373436f6e74726f6c3a2073656e646572206d75737420626520616e60008301527f2061646d696e20746f207265766f6b65000000000000000000000000000000006020830152604082019050919050565b60006120d2602a836127c2565b91507f43616c6c6572206973206e6f7420766f74696e6720696e20616e20457865637560008301527f74697665205370656c6c000000000000000000000000000000000000000000006020830152604082019050919050565b6000612138600b836127d3565b91507f5041555345525f524f4c450000000000000000000000000000000000000000006000830152600b82019050919050565b60006121786010836127c2565b91507f5061757361626c653a20706175736564000000000000000000000000000000006000830152602082019050919050565b60006121b86021836127c2565b91507f536166654d6174683a206d756c7469706c69636174696f6e206f766572666c6f60008301527f77000000000000000000000000000000000000000000000000000000000000006020830152604082019050919050565b600061221e6034836127c2565b91507f43616c6c657220686173206e6f7420616363727565642031206f72206d6f726560008301527f2044616920696e746572657374206f6e20506f740000000000000000000000006020830152604082019050919050565b60006122846020836127c2565b91507f4f776e61626c653a2063616c6c6572206973206e6f7420746865206f776e65726000830152602082019050919050565b60006122c4600a836127d3565b91507f41444d494e5f524f4c45000000000000000000000000000000000000000000006000830152600a82019050919050565b60006123046016836127c2565b91507f43616c6c6572206973206e6f7420616e2061646d696e000000000000000000006000830152602082019050919050565b6000612344602b836127c2565b91507f4d616b65724261646765733a206d75737420686176652070617573657220726f60008301527f6c6520746f2070617573650000000000000000000000000000000000000000006020830152604082019050919050565b60006123aa602d836127c2565b91507f4d616b65724261646765733a206d75737420686176652070617573657220726f60008301527f6c6520746f20756e7061757365000000000000000000000000000000000000006020830152604082019050919050565b60006124106047836127c2565b91507f43616c6c6572206973206e6f742074686520686967682062696464657220696e60008301527f207468652063757272656e742042696420696e20436f6c6c61746572616c204160208301527f756374696f6e73000000000000000000000000000000000000000000000000006040830152606082019050919050565b600061249c602f836127c2565b91507f416363657373436f6e74726f6c3a2063616e206f6e6c792072656e6f756e636560008301527f20726f6c657320666f722073656c6600000000000000000000000000000000006020830152604082019050919050565b6124fe81612826565b82525050565b600061250f8261212b565b9150819050919050565b6000612524826122b7565b9150819050919050565b60006020820190506125436000830184611ec0565b92915050565b600060208201905061255e6000830184611eb1565b92915050565b60006020820190506125796000830184611ecf565b92915050565b60006020820190506125946000830184611ede565b92915050565b600060208201905081810360008301526125b381611eed565b9050919050565b600060208201905081810360008301526125d381611f53565b9050919050565b600060208201905081810360008301526125f381611fb9565b9050919050565b6000602082019050818103600083015261261381611ff9565b9050919050565b600060208201905081810360008301526126338161205f565b9050919050565b60006020820190508181036000830152612653816120c5565b9050919050565b600060208201905081810360008301526126738161216b565b9050919050565b60006020820190508181036000830152612693816121ab565b9050919050565b600060208201905081810360008301526126b381612211565b9050919050565b600060208201905081810360008301526126d381612277565b9050919050565b600060208201905081810360008301526126f3816122f7565b9050919050565b6000602082019050818103600083015261271381612337565b9050919050565b600060208201905081810360008301526127338161239d565b9050919050565b6000602082019050818103600083015261275381612403565b9050919050565b600060208201905081810360008301526127738161248f565b9050919050565b600060208201905061278f60008301846124f5565b92915050565b6000604051905081810181811067ffffffffffffffff821117156127b857600080fd5b8060405250919050565b600082825260208201905092915050565b600081905092915050565b60006127e982612806565b9050919050565b60008115159050919050565b6000819050919050565b600073ffffffffffffffffffffffffffffffffffffffff82169050919050565b6000819050919050565b600065ffffffffffff82169050919050565b600061284d82612854565b9050919050565b600061285f82612866565b9050919050565b600061287182612806565b9050919050565b612881816127de565b811461288c57600080fd5b50565b612898816127fc565b81146128a357600080fd5b50565b6128af81612826565b81146128ba57600080fd5b50565b6128c681612830565b81146128d157600080fd5b5056fea26469706673582212206f23ab304c101c028026de619ed8013008a59174061fbd0aa0cae313ab4be54564736f6c634300060b0033",
  "immutableReferences": {
    "742": [
      {
        "length": 32,
        "start": 5274
      },
      {
        "length": 32,
        "start": 5447
      },
      {
        "length": 32,
        "start": 5611
      },
      {
        "length": 32,
        "start": 5774
      }
    ],
    "744": [
      {
        "length": 32,
        "start": 4037
      }
    ],
    "746": [
      {
        "length": 32,
        "start": 2222
      }
    ]
  },
  "source": "/// SPDX-License-Identifier: GPL-3.0\npragma solidity 0.6.11;\npragma experimental ABIEncoderV2;\n\n\n/// @title Non-transferable Badges for Maker Ecosystem Activity, CDIP 18\n/// @author Nazzareno Massari @naszam\n/// @notice MakerBadges to check for activities on maker ecosystem and keep track of redeemers\n/// @dev See https://github.com/makerdao/community/issues/537\n/// @dev All function calls are currently implemented without side effects through TDD approach\n/// @dev OpenZeppelin library is used for secure contract development\n\nimport \"@openzeppelin/contracts/access/Ownable.sol\";\nimport \"@openzeppelin/contracts/access/AccessControl.sol\";\nimport \"@openzeppelin/contracts/utils/Pausable.sol\";\nimport \"@openzeppelin/contracts/math/SafeMath.sol\";\nimport \"@openzeppelin/contracts/utils/EnumerableSet.sol\";\n\ninterface PotLike {\n\n    function pie(address guy) external view returns (uint256);\n    function chi() external view returns (uint256);\n    function rho() external view returns (uint256);\n    function drip() external view returns (uint256);\n\n}\n\ninterface DSChiefLike {\n  function votes(address) external view returns (bytes32);\n}\n\ninterface  FlipperLike {\n  struct Bid {\n    uint256 bid;\n    uint256 lot;\n    address guy;\n    uint48  tic;\n    uint48  end;\n    address usr;\n    address gal;\n    uint256 tab;\n}\n  function bids(uint256) external view returns (Bid memory);\n}\n\ncontract MakerBadges is Ownable, AccessControl, Pausable {\n\n  /// @dev Libraries\n  using SafeMath for uint256;\n  using EnumerableSet for EnumerableSet.AddressSet;\n\n  bytes32 public constant ADMIN_ROLE = keccak256(\"ADMIN_ROLE\");\n  bytes32 public constant PAUSER_ROLE = keccak256(\"PAUSER_ROLE\");\n\n  bytes32[] public roots;\n\n  mapping (uint256 => EnumerableSet.AddressSet) private redeemers;\n\n  /// @dev Events\n  event PotChecked(address guy);\n  event DSChiefChecked(address guy);\n  event FlipperChecked(address guy);\n\n  /// @dev Data\n  PotLike  internal immutable pot;\n  DSChiefLike internal immutable chief;\n  FlipperLike internal immutable flipper;\n\n  /// @dev Math\n  uint256 constant RAY = 10 ** 27;\n\n  function rmul(uint256 x, uint256 y) internal view whenNotPaused returns (uint256 z) {\n          /// @dev always rounds down\n          z = x.mul(y) / RAY;\n  }\n\n  constructor(address pot_, address chief_, address flipper_) public {\n        _setupRole(DEFAULT_ADMIN_ROLE, owner());\n\n        _setupRole(ADMIN_ROLE, owner());\n        _setupRole(PAUSER_ROLE, owner());\n\n        /// @dev MCD_POT Address\n        pot = PotLike(pot_);\n\n        /// @dev MCD_ADM Address\n        chief = DSChiefLike(chief_);\n\n        /// @dev MCD_FLIP_ETH_A Address\n        flipper = FlipperLike(flipper_);\n\n  }\n\n  /// @notice Fallback function\n  /// @dev Added not payable to revert transactions not matching any other function which send value\n  fallback() external {\n    revert();\n  }\n\n  /// @dev Modifiers\n  modifier onlyAdmin() {\n      require(hasRole(ADMIN_ROLE, msg.sender), \"Caller is not an admin\");\n      _;\n    }\n\n\n  /// @notice Set Merkle Tree Root Hashes array\n  /// @dev Called by owner to update roots for different address batches by templateId\n  /// @param rootHashes Root hashes of the Merkle Trees by templateId\n  /// @return True if successfully updated\n  function setRootHashes(bytes32[] calldata rootHashes) external onlyAdmin whenNotPaused returns (bool) {\n    roots = rootHashes;\n    return true;\n  }\n\n  /// @notice Return the accrued interest of guy on Pot\n  /// @dev Based on Chai dai() function\n  /// @param guy Address to check\n  /// @return wad Accrued interest of guy\n  function _dai(address guy) private view whenNotPaused returns (uint256 wad) {\n    uint256 slice = pot.pie(guy);\n    uint256 chi = (now > pot.rho()) ? pot.drip() : pot.chi();\n    wad = rmul(slice, chi);\n  }\n\n  /// @notice Pot Challenge\n  /// @dev Keeps track of the address of the caller if successful\n  /// @return True if the caller successfully checked for activity on Pot\n  function potChallenge(uint256 templateId) external whenNotPaused returns (bool) {\n    require(_dai(msg.sender) >= 1 ether, \"Caller has not accrued 1 or more Dai interest on Pot\");\n    if (!redeemers[templateId].contains(msg.sender)) {\n    require(redeemers[templateId].add(msg.sender));\n    }\n    emit PotChecked(msg.sender);\n    return true;\n  }\n\n  /// @notice DSChief Challenge\n  /// @dev Keeps track of the address of the caller if successful\n  /// @return True if the caller successfully checked for activity on DSChief\n  function chiefChallenge(uint256 templateId) external whenNotPaused returns (bool) {\n    require(chief.votes(msg.sender) != 0x00, \"Caller is not voting in an Executive Spell\");\n    if (!redeemers[templateId].contains(msg.sender)) {\n    require(redeemers[templateId].add(msg.sender));\n    }\n    emit DSChiefChecked(msg.sender);\n    return true;\n  }\n\n  /// @notice Flipper Challenge\n  /// @dev Keeps track of the address of the caller if successful\n  /// @dev guy, high bidder\n  /// @return True if the caller successfully checked for activity on Flipper\n  function flipperChallenge(uint256 templateId, uint256 bidId) external whenNotPaused returns (bool) {\n    require(flipper.bids(bidId).guy == msg.sender, \"Caller is not the high bidder in the current Bid in Collateral Auctions\");\n    if (!redeemers[templateId].contains(msg.sender)) {\n    require(redeemers[templateId].add(msg.sender));\n    }\n    emit FlipperChecked(msg.sender);\n    return true;\n  }\n\n  /// @notice Check if guy is a redeemer\n  /// @dev Verify if the address of guy exists\n  /// @param guy Address to verify\n  /// @return True if guy is a redeemer\n  function verify(uint256 templateId, address guy) external view whenNotPaused returns (bool) {\n    return redeemers[templateId].contains(guy);\n  }\n\n  /// @notice Pause all the functions\n  /// @dev the caller must have the 'PAUSER_ROLE'\n  function pause() external {\n    require(hasRole(PAUSER_ROLE, msg.sender), \"MakerBadges: must have pauser role to pause\");\n    _pause();\n  }\n\n  /// @notice Unpause all the functions\n  /// @dev the caller must have the 'PAUSER_ROLE'\n  function unpause() external {\n        require(hasRole(PAUSER_ROLE, msg.sender), \"MakerBadges: must have pauser role to unpause\");\n        _unpause();\n    }\n\n}\n",
  "sourcePath": "/home/sencha/maker-badges/contracts/MakerBadges.sol",
  "compiler": {
    "name": "solc",
    "version": "0.6.11+commit.5ef660b1.Emscripten.clang"
  },
  "schemaVersion": "3.2.2",
  "updatedAt": "2020-07-20T16:57:08.788Z",
  "networkType": "ethereum",
  "devdoc": {
    "events": {
      "PotChecked(address)": {
        "details": "Events"
      }
    },
    "kind": "dev",
    "methods": {
      "chiefChallenge(uint256)": {
        "details": "Keeps track of the address of the caller if successful",
        "returns": {
          "_0": "True if the caller successfully checked for activity on DSChief"
        }
      },
      "flipperChallenge(uint256,uint256)": {
        "details": "Keeps track of the address of the caller if successfulguy, high bidder",
        "returns": {
          "_0": "True if the caller successfully checked for activity on Flipper"
        }
      },
      "getRoleAdmin(bytes32)": {
        "details": "Returns the admin role that controls `role`. See {grantRole} and {revokeRole}. To change a role's admin, use {_setRoleAdmin}."
      },
      "getRoleMember(bytes32,uint256)": {
        "details": "Returns one of the accounts that have `role`. `index` must be a value between 0 and {getRoleMemberCount}, non-inclusive. Role bearers are not sorted in any particular way, and their ordering may change at any point. WARNING: When using {getRoleMember} and {getRoleMemberCount}, make sure you perform all queries on the same block. See the following https://forum.openzeppelin.com/t/iterating-over-elements-on-enumerableset-in-openzeppelin-contracts/2296[forum post] for more information."
      },
      "getRoleMemberCount(bytes32)": {
        "details": "Returns the number of accounts that have `role`. Can be used together with {getRoleMember} to enumerate all bearers of a role."
      },
      "grantRole(bytes32,address)": {
        "details": "Grants `role` to `account`. If `account` had not been already granted `role`, emits a {RoleGranted} event. Requirements: - the caller must have ``role``'s admin role."
      },
      "hasRole(bytes32,address)": {
        "details": "Returns `true` if `account` has been granted `role`."
      },
      "owner()": {
        "details": "Returns the address of the current owner."
      },
      "pause()": {
        "details": "the caller must have the 'PAUSER_ROLE'"
      },
      "paused()": {
        "details": "Returns true if the contract is paused, and false otherwise."
      },
      "potChallenge(uint256)": {
        "details": "Keeps track of the address of the caller if successful",
        "returns": {
          "_0": "True if the caller successfully checked for activity on Pot"
        }
      },
      "renounceOwnership()": {
        "details": "Leaves the contract without owner. It will not be possible to call `onlyOwner` functions anymore. Can only be called by the current owner. NOTE: Renouncing ownership will leave the contract without an owner, thereby removing any functionality that is only available to the owner."
      },
      "renounceRole(bytes32,address)": {
        "details": "Revokes `role` from the calling account. Roles are often managed via {grantRole} and {revokeRole}: this function's purpose is to provide a mechanism for accounts to lose their privileges if they are compromised (such as when a trusted device is misplaced). If the calling account had been granted `role`, emits a {RoleRevoked} event. Requirements: - the caller must be `account`."
      },
      "revokeRole(bytes32,address)": {
        "details": "Revokes `role` from `account`. If `account` had been granted `role`, emits a {RoleRevoked} event. Requirements: - the caller must have ``role``'s admin role."
      },
      "setRootHashes(bytes32[])": {
        "details": "Called by owner to update roots for different address batches by templateId",
        "params": {
          "rootHashes": "Root hashes of the Merkle Trees by templateId"
        },
        "returns": {
          "_0": "True if successfully updated"
        }
      },
      "transferOwnership(address)": {
        "details": "Transfers ownership of the contract to a new account (`newOwner`). Can only be called by the current owner."
      },
      "unpause()": {
        "details": "the caller must have the 'PAUSER_ROLE'"
      },
      "verify(uint256,address)": {
        "details": "Verify if the address of guy exists",
        "params": {
          "guy": "Address to verify"
        },
        "returns": {
          "_0": "True if guy is a redeemer"
        }
      }
    },
    "stateVariables": {
      "RAY": {
        "details": "Math"
      },
      "pot": {
        "details": "Data"
      }
    },
    "version": 1
  },
  "userdoc": {
    "kind": "user",
    "methods": {
      "chiefChallenge(uint256)": {
        "notice": "DSChief Challenge"
      },
      "flipperChallenge(uint256,uint256)": {
        "notice": "Flipper Challenge"
      },
      "pause()": {
        "notice": "Pause all the functions"
      },
      "potChallenge(uint256)": {
        "notice": "Pot Challenge"
      },
      "setRootHashes(bytes32[])": {
        "notice": "Set Merkle Tree Root Hashes array"
      },
      "unpause()": {
        "notice": "Unpause all the functions"
      },
      "verify(uint256,address)": {
        "notice": "Check if guy is a redeemer"
      }
    },
    "version": 1
  }
}