{
  "contractName": "MakerBadges",
  "abi": [
    {
      "inputs": [
        {
          "internalType": "address",
          "name": "forwarder_",
          "type": "address"
        },
        {
          "internalType": "address",
          "name": "chai_",
          "type": "address"
        },
        {
          "internalType": "address",
          "name": "chief_",
          "type": "address"
        },
        {
          "internalType": "address",
          "name": "flipper_",
          "type": "address"
        }
      ],
      "stateMutability": "nonpayable",
      "type": "constructor"
    },
    {
      "anonymous": false,
      "inputs": [
        {
          "indexed": false,
          "internalType": "address",
          "name": "usr",
          "type": "address"
        }
      ],
      "name": "ChaiChecked",
      "type": "event"
    },
    {
      "anonymous": false,
      "inputs": [
        {
          "indexed": false,
          "internalType": "address",
          "name": "guy",
          "type": "address"
        }
      ],
      "name": "DSChiefChecked",
      "type": "event"
    },
    {
      "anonymous": false,
      "inputs": [
        {
          "indexed": false,
          "internalType": "address",
          "name": "guy",
          "type": "address"
        }
      ],
      "name": "FlipperChecked",
      "type": "event"
    },
    {
      "anonymous": false,
      "inputs": [
        {
          "indexed": true,
          "internalType": "address",
          "name": "previousOwner",
          "type": "address"
        },
        {
          "indexed": true,
          "internalType": "address",
          "name": "newOwner",
          "type": "address"
        }
      ],
      "name": "OwnershipTransferred",
      "type": "event"
    },
    {
      "anonymous": false,
      "inputs": [
        {
          "indexed": false,
          "internalType": "address",
          "name": "account",
          "type": "address"
        }
      ],
      "name": "Paused",
      "type": "event"
    },
    {
      "anonymous": false,
      "inputs": [
        {
          "indexed": true,
          "internalType": "bytes32",
          "name": "role",
          "type": "bytes32"
        },
        {
          "indexed": true,
          "internalType": "bytes32",
          "name": "previousAdminRole",
          "type": "bytes32"
        },
        {
          "indexed": true,
          "internalType": "bytes32",
          "name": "newAdminRole",
          "type": "bytes32"
        }
      ],
      "name": "RoleAdminChanged",
      "type": "event"
    },
    {
      "anonymous": false,
      "inputs": [
        {
          "indexed": true,
          "internalType": "bytes32",
          "name": "role",
          "type": "bytes32"
        },
        {
          "indexed": true,
          "internalType": "address",
          "name": "account",
          "type": "address"
        },
        {
          "indexed": true,
          "internalType": "address",
          "name": "sender",
          "type": "address"
        }
      ],
      "name": "RoleGranted",
      "type": "event"
    },
    {
      "anonymous": false,
      "inputs": [
        {
          "indexed": true,
          "internalType": "bytes32",
          "name": "role",
          "type": "bytes32"
        },
        {
          "indexed": true,
          "internalType": "address",
          "name": "account",
          "type": "address"
        },
        {
          "indexed": true,
          "internalType": "address",
          "name": "sender",
          "type": "address"
        }
      ],
      "name": "RoleRevoked",
      "type": "event"
    },
    {
      "anonymous": false,
      "inputs": [
        {
          "indexed": false,
          "internalType": "address",
          "name": "account",
          "type": "address"
        }
      ],
      "name": "Unpaused",
      "type": "event"
    },
    {
      "stateMutability": "nonpayable",
      "type": "fallback"
    },
    {
      "inputs": [],
      "name": "ADMIN_ROLE",
      "outputs": [
        {
          "internalType": "bytes32",
          "name": "",
          "type": "bytes32"
        }
      ],
      "stateMutability": "view",
      "type": "function",
      "constant": true
    },
    {
      "inputs": [],
      "name": "DEFAULT_ADMIN_ROLE",
      "outputs": [
        {
          "internalType": "bytes32",
          "name": "",
          "type": "bytes32"
        }
      ],
      "stateMutability": "view",
      "type": "function",
      "constant": true
    },
    {
      "inputs": [],
      "name": "PAUSER_ROLE",
      "outputs": [
        {
          "internalType": "bytes32",
          "name": "",
          "type": "bytes32"
        }
      ],
      "stateMutability": "view",
      "type": "function",
      "constant": true
    },
    {
      "inputs": [
        {
          "internalType": "bytes32",
          "name": "role",
          "type": "bytes32"
        }
      ],
      "name": "getRoleAdmin",
      "outputs": [
        {
          "internalType": "bytes32",
          "name": "",
          "type": "bytes32"
        }
      ],
      "stateMutability": "view",
      "type": "function",
      "constant": true
    },
    {
      "inputs": [
        {
          "internalType": "bytes32",
          "name": "role",
          "type": "bytes32"
        },
        {
          "internalType": "uint256",
          "name": "index",
          "type": "uint256"
        }
      ],
      "name": "getRoleMember",
      "outputs": [
        {
          "internalType": "address",
          "name": "",
          "type": "address"
        }
      ],
      "stateMutability": "view",
      "type": "function",
      "constant": true
    },
    {
      "inputs": [
        {
          "internalType": "bytes32",
          "name": "role",
          "type": "bytes32"
        }
      ],
      "name": "getRoleMemberCount",
      "outputs": [
        {
          "internalType": "uint256",
          "name": "",
          "type": "uint256"
        }
      ],
      "stateMutability": "view",
      "type": "function",
      "constant": true
    },
    {
      "inputs": [
        {
          "internalType": "bytes32",
          "name": "role",
          "type": "bytes32"
        },
        {
          "internalType": "address",
          "name": "account",
          "type": "address"
        }
      ],
      "name": "grantRole",
      "outputs": [],
      "stateMutability": "nonpayable",
      "type": "function"
    },
    {
      "inputs": [
        {
          "internalType": "bytes32",
          "name": "role",
          "type": "bytes32"
        },
        {
          "internalType": "address",
          "name": "account",
          "type": "address"
        }
      ],
      "name": "hasRole",
      "outputs": [
        {
          "internalType": "bool",
          "name": "",
          "type": "bool"
        }
      ],
      "stateMutability": "view",
      "type": "function",
      "constant": true
    },
    {
      "inputs": [
        {
          "internalType": "address",
          "name": "forwarder",
          "type": "address"
        }
      ],
      "name": "isTrustedForwarder",
      "outputs": [
        {
          "internalType": "bool",
          "name": "",
          "type": "bool"
        }
      ],
      "stateMutability": "view",
      "type": "function",
      "constant": true
    },
    {
      "inputs": [],
      "name": "owner",
      "outputs": [
        {
          "internalType": "address",
          "name": "",
          "type": "address"
        }
      ],
      "stateMutability": "view",
      "type": "function",
      "constant": true
    },
    {
      "inputs": [],
      "name": "paused",
      "outputs": [
        {
          "internalType": "bool",
          "name": "",
          "type": "bool"
        }
      ],
      "stateMutability": "view",
      "type": "function",
      "constant": true
    },
    {
      "inputs": [],
      "name": "renounceOwnership",
      "outputs": [],
      "stateMutability": "nonpayable",
      "type": "function"
    },
    {
      "inputs": [
        {
          "internalType": "bytes32",
          "name": "role",
          "type": "bytes32"
        },
        {
          "internalType": "address",
          "name": "account",
          "type": "address"
        }
      ],
      "name": "renounceRole",
      "outputs": [],
      "stateMutability": "nonpayable",
      "type": "function"
    },
    {
      "inputs": [
        {
          "internalType": "bytes32",
          "name": "role",
          "type": "bytes32"
        },
        {
          "internalType": "address",
          "name": "account",
          "type": "address"
        }
      ],
      "name": "revokeRole",
      "outputs": [],
      "stateMutability": "nonpayable",
      "type": "function"
    },
    {
      "inputs": [
        {
          "internalType": "uint256",
          "name": "",
          "type": "uint256"
        }
      ],
      "name": "roots",
      "outputs": [
        {
          "internalType": "bytes32",
          "name": "",
          "type": "bytes32"
        }
      ],
      "stateMutability": "view",
      "type": "function",
      "constant": true
    },
    {
      "inputs": [
        {
          "internalType": "address",
          "name": "newOwner",
          "type": "address"
        }
      ],
      "name": "transferOwnership",
      "outputs": [],
      "stateMutability": "nonpayable",
      "type": "function"
    },
    {
      "inputs": [],
      "name": "trustedForwarder",
      "outputs": [
        {
          "internalType": "address",
          "name": "",
          "type": "address"
        }
      ],
      "stateMutability": "view",
      "type": "function",
      "constant": true
    },
    {
      "inputs": [
        {
          "internalType": "bytes32[]",
          "name": "rootHashes",
          "type": "bytes32[]"
        }
      ],
      "name": "setRootHashes",
      "outputs": [
        {
          "internalType": "bool",
          "name": "",
          "type": "bool"
        }
      ],
      "stateMutability": "nonpayable",
      "type": "function"
    },
    {
      "inputs": [
        {
          "internalType": "uint256",
          "name": "templateId",
          "type": "uint256"
        }
      ],
      "name": "chaiChallenge",
      "outputs": [
        {
          "internalType": "bool",
          "name": "",
          "type": "bool"
        }
      ],
      "stateMutability": "nonpayable",
      "type": "function"
    },
    {
      "inputs": [
        {
          "internalType": "uint256",
          "name": "templateId",
          "type": "uint256"
        }
      ],
      "name": "chiefChallenge",
      "outputs": [
        {
          "internalType": "bool",
          "name": "",
          "type": "bool"
        }
      ],
      "stateMutability": "nonpayable",
      "type": "function"
    },
    {
      "inputs": [
        {
          "internalType": "uint256",
          "name": "templateId",
          "type": "uint256"
        },
        {
          "internalType": "uint256",
          "name": "bidId",
          "type": "uint256"
        }
      ],
      "name": "flipperChallenge",
      "outputs": [
        {
          "internalType": "bool",
          "name": "",
          "type": "bool"
        }
      ],
      "stateMutability": "nonpayable",
      "type": "function"
    },
    {
      "inputs": [
        {
          "internalType": "uint256",
          "name": "templateId",
          "type": "uint256"
        },
        {
          "internalType": "address",
          "name": "guy",
          "type": "address"
        }
      ],
      "name": "verify",
      "outputs": [
        {
          "internalType": "bool",
          "name": "",
          "type": "bool"
        }
      ],
      "stateMutability": "view",
      "type": "function",
      "constant": true
    },
    {
      "inputs": [
        {
          "internalType": "address",
          "name": "account",
          "type": "address"
        }
      ],
      "name": "addAdmin",
      "outputs": [
        {
          "internalType": "bool",
          "name": "",
          "type": "bool"
        }
      ],
      "stateMutability": "nonpayable",
      "type": "function"
    },
    {
      "inputs": [
        {
          "internalType": "address",
          "name": "account",
          "type": "address"
        }
      ],
      "name": "removeAdmin",
      "outputs": [
        {
          "internalType": "bool",
          "name": "",
          "type": "bool"
        }
      ],
      "stateMutability": "nonpayable",
      "type": "function"
    },
    {
      "inputs": [],
      "name": "pause",
      "outputs": [],
      "stateMutability": "nonpayable",
      "type": "function"
    },
    {
      "inputs": [],
      "name": "unpause",
      "outputs": [],
      "stateMutability": "nonpayable",
      "type": "function"
    },
    {
      "inputs": [],
      "name": "versionRecipient",
      "outputs": [
        {
          "internalType": "string",
          "name": "",
          "type": "string"
        }
      ],
      "stateMutability": "view",
      "type": "function",
      "constant": true
    },
    {
      "inputs": [],
      "name": "getTrustedForwarder",
      "outputs": [
        {
          "internalType": "address",
          "name": "",
          "type": "address"
        }
      ],
      "stateMutability": "view",
      "type": "function",
      "constant": true
    }
  ],
  "bytecode": "0x60e06040523480156200001157600080fd5b506040516200323738038062003237833981810160405281019062000037919062000525565b6000620000496200029860201b60201c565b9050806000806101000a81548173ffffffffffffffffffffffffffffffffffffffff021916908373ffffffffffffffffffffffffffffffffffffffff1602179055508073ffffffffffffffffffffffffffffffffffffffff16600073ffffffffffffffffffffffffffffffffffffffff167f8be0079c531659141344cd1fd0a4f28419497f9722a3daafe3b4186f6b6457e060405160405180910390a3506000600260006101000a81548160ff021916908315150217905550620001266000801b6200011a620002b460201b60201c565b620002dd60201b60201c565b620001677fa49807205ce4d355092ef5a8a18f56e8913cf4a201fbe287825b095693c217756200015b620002b460201b60201c565b620002dd60201b60201c565b620001a87f65d7a28e3265b37a6474929f336521b332c1681b933f6cb9f3376673440d862a6200019c620002b460201b60201c565b620002dd60201b60201c565b83600260016101000a81548173ffffffffffffffffffffffffffffffffffffffff021916908373ffffffffffffffffffffffffffffffffffffffff1602179055508273ffffffffffffffffffffffffffffffffffffffff1660808173ffffffffffffffffffffffffffffffffffffffff1660601b815250508173ffffffffffffffffffffffffffffffffffffffff1660a08173ffffffffffffffffffffffffffffffffffffffff1660601b815250508073ffffffffffffffffffffffffffffffffffffffff1660c08173ffffffffffffffffffffffffffffffffffffffff1660601b8152505050505050620005df565b6000620002af620002f360201b620016c31760201c565b905090565b60008060009054906101000a900473ffffffffffffffffffffffffffffffffffffffff16905090565b620002ef82826200033b60201b60201c565b5050565b600060186000369050101580156200031857506200031733620003df60201b60201c565b5b156200032e57601436033560601c905062000337565b33905062000338565b5b90565b6200036a81600160008581526020019081526020016000206000016200043960201b620016ff1790919060201c565b15620003db57620003806200029860201b60201c565b73ffffffffffffffffffffffffffffffffffffffff168173ffffffffffffffffffffffffffffffffffffffff16837f2f8788117e7eff1d82e926ec794901d17c78024a50270940304540a733656f0d60405160405180910390a45b5050565b6000600260019054906101000a900473ffffffffffffffffffffffffffffffffffffffff1673ffffffffffffffffffffffffffffffffffffffff168273ffffffffffffffffffffffffffffffffffffffff16149050919050565b600062000469836000018373ffffffffffffffffffffffffffffffffffffffff1660001b6200047160201b60201c565b905092915050565b6000620004858383620004eb60201b60201c565b620004e0578260000182908060018154018082558091505060019003906000526020600020016000909190919091505582600001805490508360010160008481526020019081526020016000208190555060019050620004e5565b600090505b92915050565b600080836001016000848152602001908152602001600020541415905092915050565b6000815190506200051f81620005c5565b92915050565b600080600080608085870312156200053c57600080fd5b60006200054c878288016200050e565b94505060206200055f878288016200050e565b935050604062000572878288016200050e565b925050606062000585878288016200050e565b91505092959194509250565b60006200059e82620005a5565b9050919050565b600073ffffffffffffffffffffffffffffffffffffffff82169050919050565b620005d08162000591565b8114620005dc57600080fd5b50565b60805160601c60a05160601c60c05160601c612c226200061560003980610eef5250806115275250806108d85250612c226000f3fe608060405234801561001057600080fd5b50600436106101c85760003560e01c80638da5cb5b116100f9578063ca15c87311610097578063e63ab1e911610071578063e63ab1e914610522578063ebfa62b914610540578063f2fde38b14610570578063f36618a61461058c576101c9565b8063ca15c873146104b8578063ce1b815f146104e8578063d547741f14610506576101c9565b80639c1c94fd116100d35780639c1c94fd1461040a578063a217fddf1461043a578063aca5770314610458578063c2b40ae414610488576101c9565b80638da5cb5b1461038c5780639010d07c146103aa57806391d14854146103da576101c9565b8063572b6c0511610166578063715018a611610140578063715018a61461033c57806375b238fc146103465780637da0a877146103645780638456cb5914610382576101c9565b8063572b6c05146102be5780635c975abb146102ee578063704802751461030c576101c9565b806336568abe116101a257806336568abe1461024a5780633f4ba83a14610266578063486ff0cd1461027057806352a34fad1461028e576101c9565b80631785f53c146101ce578063248a9ca3146101fe5780632f2ff15d1461022e576101c9565b5b600080fd5b6101e860048036038101906101e39190611e50565b6105bc565b6040516101f591906127d6565b60405180910390f35b61021860048036038101906102139190611ebe565b6106ad565b60405161022591906127f1565b60405180910390f35b61024860048036038101906102439190611f10565b6106cd565b005b610264600480360381019061025f9190611f10565b610741565b005b61026e6107c4565b005b61027861083e565b604051610285919061280c565b60405180910390f35b6102a860048036038101906102a39190611fb2565b61087b565b6040516102b591906127d6565b60405180910390f35b6102d860048036038101906102d39190611e50565b610a76565b6040516102e591906127d6565b60405180910390f35b6102f6610ad0565b60405161030391906127d6565b60405180910390f35b61032660048036038101906103219190611e50565b610ae7565b60405161033391906127d6565b60405180910390f35b610344610bd9565b005b61034e610d2c565b60405161035b91906127f1565b60405180910390f35b61036c610d50565b60405161037991906127a0565b60405180910390f35b61038a610d76565b005b610394610df0565b6040516103a191906127a0565b60405180910390f35b6103c460048036038101906103bf9190611f4c565b610e19565b6040516103d191906127a0565b60405180910390f35b6103f460048036038101906103ef9190611f10565b610e4b565b60405161040191906127d6565b60405180910390f35b610424600480360381019061041f9190612040565b610e7d565b60405161043191906127d6565b60405180910390f35b61044261109f565b60405161044f91906127f1565b60405180910390f35b610472600480360381019061046d9190611e79565b6110a6565b60405161047f91906127d6565b60405180910390f35b6104a2600480360381019061049d9190611fb2565b611184565b6040516104af91906127f1565b60405180910390f35b6104d260048036038101906104cd9190611ebe565b6111a5565b6040516104df9190612a4e565b60405180910390f35b6104f06111cc565b6040516104fd91906127a0565b60405180910390f35b610520600480360381019061051b9190611f10565b6111f6565b005b61052a61126a565b60405161053791906127f1565b60405180910390f35b61055a60048036038101906105559190612004565b61128e565b60405161056791906127d6565b60405180910390f35b61058a60048036038101906105859190611e50565b61130d565b005b6105a660048036038101906105a19190611fb2565b6114cf565b6040516105b391906127d6565b60405180910390f35b60006105d26000801b6105cd61172f565b610e4b565b610611576040517f08c379a0000000000000000000000000000000000000000000000000000000008152600401610608906129ce565b60405180910390fd5b61063b7fa49807205ce4d355092ef5a8a18f56e8913cf4a201fbe287825b095693c2177583610e4b565b61067a576040517f08c379a00000000000000000000000000000000000000000000000000000000081526004016106719061298e565b60405180910390fd5b6106a47fa49807205ce4d355092ef5a8a18f56e8913cf4a201fbe287825b095693c21775836111f6565b60019050919050565b600060016000838152602001908152602001600020600201549050919050565b6106f460016000848152602001908152602001600020600201546106ef61172f565b610e4b565b610733576040517f08c379a000000000000000000000000000000000000000000000000000000000815260040161072a9061284e565b60405180910390fd5b61073d828261173e565b5050565b61074961172f565b73ffffffffffffffffffffffffffffffffffffffff168173ffffffffffffffffffffffffffffffffffffffff16146107b6576040517f08c379a00000000000000000000000000000000000000000000000000000000081526004016107ad90612a2e565b60405180910390fd5b6107c082826117d2565b5050565b6107f57f65d7a28e3265b37a6474929f336521b332c1681b933f6cb9f3376673440d862a6107f061172f565b610e4b565b610834576040517f08c379a000000000000000000000000000000000000000000000000000000000815260040161082b90612a0e565b60405180910390fd5b61083c611866565b565b60606040518060400160405280600581526020017f302e362e30000000000000000000000000000000000000000000000000000000815250905090565b6000600260009054906101000a900460ff16156108cd576040517f08c379a00000000000000000000000000000000000000000000000000000000081526004016108c49061292e565b60405180910390fd5b670de0b6b3a76400007f000000000000000000000000000000000000000000000000000000000000000073ffffffffffffffffffffffffffffffffffffffff16636c25b34661091a61172f565b6040518263ffffffff1660e01b815260040161093691906127bb565b602060405180830381600087803b15801561095057600080fd5b505af1158015610964573d6000803e3d6000fd5b505050506040513d601f19601f820116820180604052508101906109889190611fdb565b10156109c9576040517f08c379a00000000000000000000000000000000000000000000000000000000081526004016109c09061294e565b60405180910390fd5b6109f56109d461172f565b6004600085815260200190815260200160002061191090919063ffffffff16565b610a2f57610a25610a0461172f565b600460008581526020019081526020016000206116ff90919063ffffffff16565b610a2e57600080fd5b5b7f7ccf81bb4234eccfcbff066b2b06b185aa31121730c8dc49e5f3c5b5123ee650610a5861172f565b604051610a6591906127bb565b60405180910390a160019050919050565b6000600260019054906101000a900473ffffffffffffffffffffffffffffffffffffffff1673ffffffffffffffffffffffffffffffffffffffff168273ffffffffffffffffffffffffffffffffffffffff16149050919050565b6000600260009054906101000a900460ff16905090565b6000610afd6000801b610af861172f565b610e4b565b610b3c576040517f08c379a0000000000000000000000000000000000000000000000000000000008152600401610b33906129ce565b60405180910390fd5b610b667fa49807205ce4d355092ef5a8a18f56e8913cf4a201fbe287825b095693c2177583610e4b565b15610ba6576040517f08c379a0000000000000000000000000000000000000000000000000000000008152600401610b9d906128ee565b60405180910390fd5b610bd07fa49807205ce4d355092ef5a8a18f56e8913cf4a201fbe287825b095693c21775836106cd565b60019050919050565b610be161172f565b73ffffffffffffffffffffffffffffffffffffffff1660008054906101000a900473ffffffffffffffffffffffffffffffffffffffff1673ffffffffffffffffffffffffffffffffffffffff1614610c6e576040517f08c379a0000000000000000000000000000000000000000000000000000000008152600401610c659061296e565b60405180910390fd5b600073ffffffffffffffffffffffffffffffffffffffff1660008054906101000a900473ffffffffffffffffffffffffffffffffffffffff1673ffffffffffffffffffffffffffffffffffffffff167f8be0079c531659141344cd1fd0a4f28419497f9722a3daafe3b4186f6b6457e060405160405180910390a360008060006101000a81548173ffffffffffffffffffffffffffffffffffffffff021916908373ffffffffffffffffffffffffffffffffffffffff160217905550565b7fa49807205ce4d355092ef5a8a18f56e8913cf4a201fbe287825b095693c2177581565b600260019054906101000a900473ffffffffffffffffffffffffffffffffffffffff1681565b610da77f65d7a28e3265b37a6474929f336521b332c1681b933f6cb9f3376673440d862a610da261172f565b610e4b565b610de6576040517f08c379a0000000000000000000000000000000000000000000000000000000008152600401610ddd906129ae565b60405180910390fd5b610dee611940565b565b60008060009054906101000a900473ffffffffffffffffffffffffffffffffffffffff16905090565b6000610e4382600160008681526020019081526020016000206000016119eb90919063ffffffff16565b905092915050565b6000610e75826001600086815260200190815260200160002060000161191090919063ffffffff16565b905092915050565b6000600260009054906101000a900460ff1615610ecf576040517f08c379a0000000000000000000000000000000000000000000000000000000008152600401610ec69061292e565b60405180910390fd5b610ed761172f565b73ffffffffffffffffffffffffffffffffffffffff167f000000000000000000000000000000000000000000000000000000000000000073ffffffffffffffffffffffffffffffffffffffff16634423c5f1846040518263ffffffff1660e01b8152600401610f469190612a4e565b6101006040518083038186803b158015610f5f57600080fd5b505afa158015610f73573d6000803e3d6000fd5b505050506040513d601f19601f82011682018060405250810190610f979190611f88565b6040015173ffffffffffffffffffffffffffffffffffffffff1614610ff1576040517f08c379a0000000000000000000000000000000000000000000000000000000008152600401610fe8906129ee565b60405180910390fd5b61101d610ffc61172f565b6004600086815260200190815260200160002061191090919063ffffffff16565b6110575761104d61102c61172f565b600460008681526020019081526020016000206116ff90919063ffffffff16565b61105657600080fd5b5b7f430bb0ab986389293d8f0855931d73d3e3bdc06890eb3e780550c98a7582a7ef61108061172f565b60405161108d91906127bb565b60405180910390a16001905092915050565b6000801b81565b60006110d97fa49807205ce4d355092ef5a8a18f56e8913cf4a201fbe287825b095693c217756110d461172f565b610e4b565b611118576040517f08c379a000000000000000000000000000000000000000000000000000000000815260040161110f906128ae565b60405180910390fd5b600260009054906101000a900460ff1615611168576040517f08c379a000000000000000000000000000000000000000000000000000000000815260040161115f9061292e565b60405180910390fd5b828260039190611179929190611c43565b506001905092915050565b6003818154811061119157fe5b906000526020600020016000915090505481565b60006111c560016000848152602001908152602001600020600001611a05565b9050919050565b6000600260019054906101000a900473ffffffffffffffffffffffffffffffffffffffff16905090565b61121d600160008481526020019081526020016000206002015461121861172f565b610e4b565b61125c576040517f08c379a00000000000000000000000000000000000000000000000000000000081526004016112539061290e565b60405180910390fd5b61126682826117d2565b5050565b7f65d7a28e3265b37a6474929f336521b332c1681b933f6cb9f3376673440d862a81565b6000600260009054906101000a900460ff16156112e0576040517f08c379a00000000000000000000000000000000000000000000000000000000081526004016112d79061292e565b60405180910390fd5b611305826004600086815260200190815260200160002061191090919063ffffffff16565b905092915050565b61131561172f565b73ffffffffffffffffffffffffffffffffffffffff1660008054906101000a900473ffffffffffffffffffffffffffffffffffffffff1673ffffffffffffffffffffffffffffffffffffffff16146113a2576040517f08c379a00000000000000000000000000000000000000000000000000000000081526004016113999061296e565b60405180910390fd5b600073ffffffffffffffffffffffffffffffffffffffff168173ffffffffffffffffffffffffffffffffffffffff161415611412576040517f08c379a00000000000000000000000000000000000000000000000000000000081526004016114099061288e565b60405180910390fd5b8073ffffffffffffffffffffffffffffffffffffffff1660008054906101000a900473ffffffffffffffffffffffffffffffffffffffff1673ffffffffffffffffffffffffffffffffffffffff167f8be0079c531659141344cd1fd0a4f28419497f9722a3daafe3b4186f6b6457e060405160405180910390a3806000806101000a81548173ffffffffffffffffffffffffffffffffffffffff021916908373ffffffffffffffffffffffffffffffffffffffff16021790555050565b6000600260009054906101000a900460ff1615611521576040517f08c379a00000000000000000000000000000000000000000000000000000000081526004016115189061292e565b60405180910390fd5b6000801b7f000000000000000000000000000000000000000000000000000000000000000073ffffffffffffffffffffffffffffffffffffffff1663d8bff5a561156961172f565b6040518263ffffffff1660e01b815260040161158591906127bb565b60206040518083038186803b15801561159d57600080fd5b505afa1580156115b1573d6000803e3d6000fd5b505050506040513d601f19601f820116820180604052508101906115d59190611ee7565b1415611616576040517f08c379a000000000000000000000000000000000000000000000000000000000815260040161160d906128ce565b60405180910390fd5b61164261162161172f565b6004600085815260200190815260200160002061191090919063ffffffff16565b61167c5761167261165161172f565b600460008581526020019081526020016000206116ff90919063ffffffff16565b61167b57600080fd5b5b7f359eefdc83d4cbeabeed5ea68cd9213056f02a7317e55e1310612edc535d5ae96116a561172f565b6040516116b291906127bb565b60405180910390a160019050919050565b600060186000369050101580156116df57506116de33610a76565b5b156116f357601436033560601c90506116fb565b3390506116fc565b5b90565b6000611727836000018373ffffffffffffffffffffffffffffffffffffffff1660001b611a1a565b905092915050565b60006117396116c3565b905090565b61176681600160008581526020019081526020016000206000016116ff90919063ffffffff16565b156117ce5761177361172f565b73ffffffffffffffffffffffffffffffffffffffff168173ffffffffffffffffffffffffffffffffffffffff16837f2f8788117e7eff1d82e926ec794901d17c78024a50270940304540a733656f0d60405160405180910390a45b5050565b6117fa8160016000858152602001908152602001600020600001611a8a90919063ffffffff16565b156118625761180761172f565b73ffffffffffffffffffffffffffffffffffffffff168173ffffffffffffffffffffffffffffffffffffffff16837ff6391f5c32d9c69d2a47ea670b442974b53935d1edc7fd64eb21e047a839171b60405160405180910390a45b5050565b600260009054906101000a900460ff166118b5576040517f08c379a00000000000000000000000000000000000000000000000000000000081526004016118ac9061286e565b60405180910390fd5b6000600260006101000a81548160ff0219169083151502179055507f5db9ee0a495bf2e6ff9c91a7834c1ba4fdd244a5e8aa4e537bd38aeae4b073aa6118f961172f565b60405161190691906127bb565b60405180910390a1565b6000611938836000018373ffffffffffffffffffffffffffffffffffffffff1660001b611aba565b905092915050565b600260009054906101000a900460ff1615611990576040517f08c379a00000000000000000000000000000000000000000000000000000000081526004016119879061292e565b60405180910390fd5b6001600260006101000a81548160ff0219169083151502179055507f62e78cea01bee320cd4e420270b5ea74000d11b0c9f74754ebdbfc544b05a2586119d461172f565b6040516119e191906127bb565b60405180910390a1565b60006119fa8360000183611add565b60001c905092915050565b6000611a1382600001611b4a565b9050919050565b6000611a268383611aba565b611a7f578260000182908060018154018082558091505060019003906000526020600020016000909190919091505582600001805490508360010160008481526020019081526020016000208190555060019050611a84565b600090505b92915050565b6000611ab2836000018373ffffffffffffffffffffffffffffffffffffffff1660001b611b5b565b905092915050565b600080836001016000848152602001908152602001600020541415905092915050565b600081836000018054905011611b28576040517f08c379a0000000000000000000000000000000000000000000000000000000008152600401611b1f9061282e565b60405180910390fd5b826000018281548110611b3757fe5b9060005260206000200154905092915050565b600081600001805490509050919050565b60008083600101600084815260200190815260200160002054905060008114611c375760006001820390506000600186600001805490500390506000866000018281548110611ba657fe5b9060005260206000200154905080876000018481548110611bc357fe5b9060005260206000200181905550600183018760010160008381526020019081526020016000208190555086600001805480611bfb57fe5b60019003818190600052602060002001600090559055866001016000878152602001908152602001600020600090556001945050505050611c3d565b60009150505b92915050565b828054828255906000526020600020908101928215611c7f579160200282015b82811115611c7e578235825591602001919060010190611c63565b5b509050611c8c9190611c90565b5090565b5b80821115611ca9576000816000905550600101611c91565b5090565b600081359050611cbc81612b90565b92915050565b600081519050611cd181612b90565b92915050565b60008083601f840112611ce957600080fd5b8235905067ffffffffffffffff811115611d0257600080fd5b602083019150836020820283011115611d1a57600080fd5b9250929050565b600081359050611d3081612ba7565b92915050565b600081519050611d4581612ba7565b92915050565b60006101008284031215611d5e57600080fd5b611d69610100612a69565b90506000611d7984828501611e26565b6000830152506020611d8d84828501611e26565b6020830152506040611da184828501611cc2565b6040830152506060611db584828501611e3b565b6060830152506080611dc984828501611e3b565b60808301525060a0611ddd84828501611cc2565b60a08301525060c0611df184828501611cc2565b60c08301525060e0611e0584828501611e26565b60e08301525092915050565b600081359050611e2081612bbe565b92915050565b600081519050611e3581612bbe565b92915050565b600081519050611e4a81612bd5565b92915050565b600060208284031215611e6257600080fd5b6000611e7084828501611cad565b91505092915050565b60008060208385031215611e8c57600080fd5b600083013567ffffffffffffffff811115611ea657600080fd5b611eb285828601611cd7565b92509250509250929050565b600060208284031215611ed057600080fd5b6000611ede84828501611d21565b91505092915050565b600060208284031215611ef957600080fd5b6000611f0784828501611d36565b91505092915050565b60008060408385031215611f2357600080fd5b6000611f3185828601611d21565b9250506020611f4285828601611cad565b9150509250929050565b60008060408385031215611f5f57600080fd5b6000611f6d85828601611d21565b9250506020611f7e85828601611e11565b9150509250929050565b60006101008284031215611f9b57600080fd5b6000611fa984828501611d4b565b91505092915050565b600060208284031215611fc457600080fd5b6000611fd284828501611e11565b91505092915050565b600060208284031215611fed57600080fd5b6000611ffb84828501611e26565b91505092915050565b6000806040838503121561201757600080fd5b600061202585828601611e11565b925050602061203685828601611cad565b9150509250929050565b6000806040838503121561205357600080fd5b600061206185828601611e11565b925050602061207285828601611e11565b9150509250929050565b61208581612b16565b82525050565b61209481612ab2565b82525050565b6120a381612ac4565b82525050565b6120b281612ad0565b82525050565b60006120c382612a96565b6120cd8185612aa1565b93506120dd818560208601612b4c565b6120e681612b7f565b840191505092915050565b60006120fe602283612aa1565b91507f456e756d657261626c655365743a20696e646578206f7574206f6620626f756e60008301527f64730000000000000000000000000000000000000000000000000000000000006020830152604082019050919050565b6000612164602f83612aa1565b91507f416363657373436f6e74726f6c3a2073656e646572206d75737420626520616e60008301527f2061646d696e20746f206772616e7400000000000000000000000000000000006020830152604082019050919050565b60006121ca601483612aa1565b91507f5061757361626c653a206e6f74207061757365640000000000000000000000006000830152602082019050919050565b600061220a602683612aa1565b91507f4f776e61626c653a206e6577206f776e657220697320746865207a65726f206160008301527f64647265737300000000000000000000000000000000000000000000000000006020830152604082019050919050565b6000612270602383612aa1565b91507f4d616b65724261646765733a2063616c6c6572206973206e6f7420616e20616460008301527f6d696e00000000000000000000000000000000000000000000000000000000006020830152604082019050919050565b60006122d6603783612aa1565b91507f4d616b65724261646765733a2063616c6c6572206973206e6f7420766f74696e60008301527f6720696e20616e20657865637574697665207370656c6c0000000000000000006020830152604082019050919050565b600061233c602883612aa1565b91507f4d616b65724261646765733a206163636f756e7420697320616c72656164792060008301527f616e2061646d696e0000000000000000000000000000000000000000000000006020830152604082019050919050565b60006123a2603083612aa1565b91507f416363657373436f6e74726f6c3a2073656e646572206d75737420626520616e60008301527f2061646d696e20746f207265766f6b65000000000000000000000000000000006020830152604082019050919050565b6000612408601083612aa1565b91507f5061757361626c653a20706175736564000000000000000000000000000000006000830152602082019050919050565b6000612448604183612aa1565b91507f4d616b65724261646765733a2063616c6c657220686173206e6f74206163637260008301527f7565642031206f72206d6f72652064616920696e746572657374206f6e20706f60208301527f74000000000000000000000000000000000000000000000000000000000000006040830152606082019050919050565b60006124d4602083612aa1565b91507f4f776e61626c653a2063616c6c6572206973206e6f7420746865206f776e65726000830152602082019050919050565b6000612514602483612aa1565b91507f4d616b65724261646765733a206163636f756e74206973206e6f7420616e206160008301527f646d696e000000000000000000000000000000000000000000000000000000006020830152604082019050919050565b600061257a602b83612aa1565b91507f4d616b65724261646765733a206d75737420686176652070617573657220726f60008301527f6c6520746f2070617573650000000000000000000000000000000000000000006020830152604082019050919050565b60006125e0602c83612aa1565b91507f4d616b65724261646765733a2063616c6c6572206973206e6f7420746865206460008301527f656661756c742061646d696e00000000000000000000000000000000000000006020830152604082019050919050565b6000612646605883612aa1565b91507f4d616b65724261646765733a2063616c6c6572206973206e6f7420746865206860008301527f6967682062696464657220696e207468652063757272656e742062696420696e60208301527f2045544820636f6c6c61746572616c2061756374696f6e7300000000000000006040830152606082019050919050565b60006126d2602d83612aa1565b91507f4d616b65724261646765733a206d75737420686176652070617573657220726f60008301527f6c6520746f20756e7061757365000000000000000000000000000000000000006020830152604082019050919050565b6000612738602f83612aa1565b91507f416363657373436f6e74726f6c3a2063616e206f6e6c792072656e6f756e636560008301527f20726f6c657320666f722073656c6600000000000000000000000000000000006020830152604082019050919050565b61279a81612afa565b82525050565b60006020820190506127b5600083018461208b565b92915050565b60006020820190506127d0600083018461207c565b92915050565b60006020820190506127eb600083018461209a565b92915050565b600060208201905061280660008301846120a9565b92915050565b6000602082019050818103600083015261282681846120b8565b905092915050565b60006020820190508181036000830152612847816120f1565b9050919050565b6000602082019050818103600083015261286781612157565b9050919050565b60006020820190508181036000830152612887816121bd565b9050919050565b600060208201905081810360008301526128a7816121fd565b9050919050565b600060208201905081810360008301526128c781612263565b9050919050565b600060208201905081810360008301526128e7816122c9565b9050919050565b600060208201905081810360008301526129078161232f565b9050919050565b6000602082019050818103600083015261292781612395565b9050919050565b60006020820190508181036000830152612947816123fb565b9050919050565b600060208201905081810360008301526129678161243b565b9050919050565b60006020820190508181036000830152612987816124c7565b9050919050565b600060208201905081810360008301526129a781612507565b9050919050565b600060208201905081810360008301526129c78161256d565b9050919050565b600060208201905081810360008301526129e7816125d3565b9050919050565b60006020820190508181036000830152612a0781612639565b9050919050565b60006020820190508181036000830152612a27816126c5565b9050919050565b60006020820190508181036000830152612a478161272b565b9050919050565b6000602082019050612a636000830184612791565b92915050565b6000604051905081810181811067ffffffffffffffff82111715612a8c57600080fd5b8060405250919050565b600081519050919050565b600082825260208201905092915050565b6000612abd82612ada565b9050919050565b60008115159050919050565b6000819050919050565b600073ffffffffffffffffffffffffffffffffffffffff82169050919050565b6000819050919050565b600065ffffffffffff82169050919050565b6000612b2182612b28565b9050919050565b6000612b3382612b3a565b9050919050565b6000612b4582612ada565b9050919050565b60005b83811015612b6a578082015181840152602081019050612b4f565b83811115612b79576000848401525b50505050565b6000601f19601f8301169050919050565b612b9981612ab2565b8114612ba457600080fd5b50565b612bb081612ad0565b8114612bbb57600080fd5b50565b612bc781612afa565b8114612bd257600080fd5b50565b612bde81612b04565b8114612be957600080fd5b5056fea2646970667358221220b810152007308f58a8425130ecf79b1dafb12d65530b698a26276b6bfe90884264736f6c634300060c0033",
  "immutableReferences": {
    "1011": [
      {
        "length": 32,
        "start": 2264
      }
    ],
    "1013": [
      {
        "length": 32,
        "start": 5415
      }
    ],
    "1015": [
      {
        "length": 32,
        "start": 3823
      }
    ]
  },
  "source": "/// SPDX-License-Identifier: AGPL-3.0-only\npragma solidity 0.6.12;\npragma experimental ABIEncoderV2;\n\n\n/// @title Non-transferable Badges for Maker Ecosystem Activity, CDIP 18, 29\n/// @author Nazzareno Massari @naszam\n/// @notice MakerBadges to check on-chain for activities on maker ecosystem and keep track of redeemers\n/// @dev See https://github.com/makerdao/community/issues/537\n/// @dev See https://github.com/makerdao/community/issues/721\n/// @dev All function calls are currently implemented without side effects through TDD approach\n/// @dev OpenZeppelin Library is used for secure contract development\n\nimport \"@openzeppelin/contracts/access/Ownable.sol\";\nimport \"@openzeppelin/contracts/access/AccessControl.sol\";\nimport \"@openzeppelin/contracts/utils/Pausable.sol\";\nimport \"@openzeppelin/contracts/math/SafeMath.sol\";\nimport \"@openzeppelin/contracts/utils/EnumerableSet.sol\";\nimport \"@opengsn/gsn/contracts/BaseRelayRecipient.sol\";\nimport \"@opengsn/gsn/contracts/interfaces/IKnowForwarderAddress.sol\";\n\ninterface ChaiLike {\n    function dai(address usr) external returns (uint256);\n}\n\ninterface DSChiefLike {\n    function votes(address) external view returns (bytes32);\n}\n\ninterface FlipperLike {\n    struct Bid {\n        uint256 bid;\n        uint256 lot;\n        address guy;\n        uint48  tic;\n        uint48  end;\n        address usr;\n        address gal;\n        uint256 tab;\n    }\n\n    function bids(uint256) external view returns (Bid memory);\n}\n\ncontract MakerBadges is Ownable, AccessControl, Pausable, BaseRelayRecipient, IKnowForwarderAddress {\n\n    /// @dev Libraries\n    using SafeMath for uint256;\n    using EnumerableSet for EnumerableSet.AddressSet;\n\n    /// @dev Data\n    ChaiLike  internal immutable chai;\n    DSChiefLike internal immutable chief;\n    FlipperLike internal immutable flipper;\n\n    bytes32 public constant ADMIN_ROLE = keccak256(\"ADMIN_ROLE\");\n    bytes32 public constant PAUSER_ROLE = keccak256(\"PAUSER_ROLE\");\n\n    bytes32[] public roots;\n\n    mapping(uint256 => EnumerableSet.AddressSet) private redeemers;\n\n    /// @dev Events\n    event ChaiChecked(address usr);\n    event DSChiefChecked(address guy);\n    event FlipperChecked(address guy);\n\n    constructor(address forwarder_, address chai_, address chief_, address flipper_) public {\n        _setupRole(DEFAULT_ADMIN_ROLE, owner());\n\n        _setupRole(ADMIN_ROLE, owner());\n        _setupRole(PAUSER_ROLE, owner());\n\n        /// @dev OpenGSN Trusted Forwarder\n        trustedForwarder = forwarder_;\n\n        /// @dev CHAI Address\n        chai = ChaiLike(chai_);\n\n        /// @dev MCD_ADM Address\n        chief = DSChiefLike(chief_);\n\n        /// @dev MCD_FLIP_ETH_A Address\n        flipper = FlipperLike(flipper_);\n    }\n\n    /// @notice Fallback function\n    /// @dev Added not payable to revert transactions not matching any other function which send value\n    fallback() external {\n        revert();\n    }\n\n    /// @dev Modifiers\n    modifier onlyAdmin() {\n        require(hasRole(ADMIN_ROLE, _msgSender()), \"MakerBadges: caller is not an admin\");\n        _;\n    }\n\n    /// @notice Set Merkle Tree Root Hashes array\n    /// @dev Called by owner to update roots for different address batches by templateId\n    /// @param rootHashes Root hashes of the Merkle Trees by templateId\n    /// @return True if successfully updated\n    function setRootHashes(bytes32[] calldata rootHashes) external onlyAdmin whenNotPaused returns (bool) {\n        roots = rootHashes;\n        return true;\n    }\n\n    /// @notice Chai Challenge\n    /// @dev Keeps track of the address of the caller if successful\n    /// @return True if the caller successfully checked for activity on Chai\n    function chaiChallenge(uint256 templateId) external whenNotPaused returns (bool) {\n        require(chai.dai(_msgSender()) >= 1 ether, \"MakerBadges: caller has not accrued 1 or more dai interest on pot\");\n        if (!redeemers[templateId].contains(_msgSender())) {\n            require(redeemers[templateId].add(_msgSender()));\n        }\n        emit ChaiChecked(_msgSender());\n        return true;\n    }\n\n\n    /// @notice DSChief Challenge\n    /// @dev Keeps track of the address of the caller if successful\n    /// @return True if the caller successfully checked for activity on DSChief\n    function chiefChallenge(uint256 templateId) external whenNotPaused returns (bool) {\n        require(chief.votes(_msgSender()) != 0x00, \"MakerBadges: caller is not voting in an executive spell\");\n        if (!redeemers[templateId].contains(_msgSender())) {\n            require(redeemers[templateId].add(_msgSender()));\n        }\n        emit DSChiefChecked(_msgSender());\n        return true;\n    }\n\n    /// @notice Flipper Challenge\n    /// @dev Keeps track of the address of the caller if successful\n    /// @dev guy, high bidder\n    /// @return True if the caller successfully checked for activity on Flipper\n    function flipperChallenge(uint256 templateId, uint256 bidId) external whenNotPaused returns (bool) {\n        require(\n            flipper.bids(bidId).guy == _msgSender(),\n            \"MakerBadges: caller is not the high bidder in the current bid in ETH collateral auctions\"\n        );\n        if (!redeemers[templateId].contains(_msgSender())) {\n            require(redeemers[templateId].add(_msgSender()));\n        }\n        emit FlipperChecked(_msgSender());\n        return true;\n    }\n\n    /// @notice Check if guy is a redeemer\n    /// @dev Verify if the address of guy exists\n    /// @param guy Address to verify\n    /// @return True if guy is a redeemer\n    function verify(uint256 templateId, address guy) external view whenNotPaused returns (bool) {\n        return redeemers[templateId].contains(guy);\n    }\n\n    /// @notice Add a new Admin\n    /// @dev Access restricted only for Default Admin\n    /// @param account Address of the new Admin\n    /// @return True if the account address is added as Admin\n    function addAdmin(address account) external returns (bool) {\n        require(hasRole(DEFAULT_ADMIN_ROLE, _msgSender()), \"MakerBadges: caller is not the default admin\");\n        require(!hasRole(ADMIN_ROLE, account), \"MakerBadges: account is already an admin\");\n        grantRole(ADMIN_ROLE, account);\n        return true;\n    }\n\n    /// @notice Remove an Admin\n    /// @dev Access restricted only for Default Admin\n    /// @param account Address of the Admin\n    /// @return True if the account address is removed as Admin\n    function removeAdmin(address account) external returns (bool) {\n        require(hasRole(DEFAULT_ADMIN_ROLE, _msgSender()), \"MakerBadges: caller is not the default admin\");\n        require(hasRole(ADMIN_ROLE, account), \"MakerBadges: account is not an admin\");\n        revokeRole(ADMIN_ROLE, account);\n        return true;\n    }\n\n    /// @notice Pause all the functions\n    /// @dev the caller must have the 'PAUSER_ROLE'\n    function pause() external {\n        require(hasRole(PAUSER_ROLE, _msgSender()), \"MakerBadges: must have pauser role to pause\");\n        _pause();\n    }\n\n    /// @notice Unpause all the functions\n    /// @dev The caller must have the 'PAUSER_ROLE'\n    function unpause() external {\n        require(hasRole(PAUSER_ROLE, _msgSender()), \"MakerBadges: must have pauser role to unpause\");\n        _unpause();\n    }\n\n    function versionRecipient() external virtual view override returns (string memory) {\n        return \"0.6.0\";\n    }\n\n    function getTrustedForwarder() public view override returns (address) {\n        return trustedForwarder;\n    }\n\n    /// @notice OpenGSN _msgSender()\n    /// @dev override _msgSender() in OZ Context.sol and BaseRelayRecipient.sol\n    /// @return _msgSender() after relay call\n    function _msgSender() internal view override(Context, BaseRelayRecipient) returns (address payable) {\n          return BaseRelayRecipient._msgSender();\n    }\n\n    /// @notice OpenGSN _msgData()\n    /// @dev override _msgData() in OZ Context.sol and BaseRelayRecipient.sol\n    /// @return _msgData() after relay call\n    function _msgData() internal view override(Context, BaseRelayRecipient) returns (bytes memory) {\n          return BaseRelayRecipient._msgData();\n    }\n}\n",
  "sourcePath": "/home/sencha/maker-badges/contracts/MakerBadges.sol",
  "compiler": {
    "name": "solc",
    "version": "0.6.12+commit.27d51765.Emscripten.clang"
  },
  "schemaVersion": "3.2.5",
  "updatedAt": "2020-09-30T17:40:37.369Z",
  "networkType": "ethereum",
  "devdoc": {
    "events": {
      "ChaiChecked(address)": {
        "details": "Events"
      }
    },
    "kind": "dev",
    "methods": {
      "addAdmin(address)": {
        "details": "Access restricted only for Default Admin",
        "params": {
          "account": "Address of the new Admin"
        },
        "returns": {
          "_0": "True if the account address is added as Admin"
        }
      },
      "chaiChallenge(uint256)": {
        "details": "Keeps track of the address of the caller if successful",
        "returns": {
          "_0": "True if the caller successfully checked for activity on Chai"
        }
      },
      "chiefChallenge(uint256)": {
        "details": "Keeps track of the address of the caller if successful",
        "returns": {
          "_0": "True if the caller successfully checked for activity on DSChief"
        }
      },
      "flipperChallenge(uint256,uint256)": {
        "details": "Keeps track of the address of the caller if successfulguy, high bidder",
        "returns": {
          "_0": "True if the caller successfully checked for activity on Flipper"
        }
      },
      "getRoleAdmin(bytes32)": {
        "details": "Returns the admin role that controls `role`. See {grantRole} and {revokeRole}. To change a role's admin, use {_setRoleAdmin}."
      },
      "getRoleMember(bytes32,uint256)": {
        "details": "Returns one of the accounts that have `role`. `index` must be a value between 0 and {getRoleMemberCount}, non-inclusive. Role bearers are not sorted in any particular way, and their ordering may change at any point. WARNING: When using {getRoleMember} and {getRoleMemberCount}, make sure you perform all queries on the same block. See the following https://forum.openzeppelin.com/t/iterating-over-elements-on-enumerableset-in-openzeppelin-contracts/2296[forum post] for more information."
      },
      "getRoleMemberCount(bytes32)": {
        "details": "Returns the number of accounts that have `role`. Can be used together with {getRoleMember} to enumerate all bearers of a role."
      },
      "grantRole(bytes32,address)": {
        "details": "Grants `role` to `account`. If `account` had not been already granted `role`, emits a {RoleGranted} event. Requirements: - the caller must have ``role``'s admin role."
      },
      "hasRole(bytes32,address)": {
        "details": "Returns `true` if `account` has been granted `role`."
      },
      "owner()": {
        "details": "Returns the address of the current owner."
      },
      "pause()": {
        "details": "the caller must have the 'PAUSER_ROLE'"
      },
      "paused()": {
        "details": "Returns true if the contract is paused, and false otherwise."
      },
      "removeAdmin(address)": {
        "details": "Access restricted only for Default Admin",
        "params": {
          "account": "Address of the Admin"
        },
        "returns": {
          "_0": "True if the account address is removed as Admin"
        }
      },
      "renounceOwnership()": {
        "details": "Leaves the contract without owner. It will not be possible to call `onlyOwner` functions anymore. Can only be called by the current owner. NOTE: Renouncing ownership will leave the contract without an owner, thereby removing any functionality that is only available to the owner."
      },
      "renounceRole(bytes32,address)": {
        "details": "Revokes `role` from the calling account. Roles are often managed via {grantRole} and {revokeRole}: this function's purpose is to provide a mechanism for accounts to lose their privileges if they are compromised (such as when a trusted device is misplaced). If the calling account had been granted `role`, emits a {RoleRevoked} event. Requirements: - the caller must be `account`."
      },
      "revokeRole(bytes32,address)": {
        "details": "Revokes `role` from `account`. If `account` had been granted `role`, emits a {RoleRevoked} event. Requirements: - the caller must have ``role``'s admin role."
      },
      "setRootHashes(bytes32[])": {
        "details": "Called by owner to update roots for different address batches by templateId",
        "params": {
          "rootHashes": "Root hashes of the Merkle Trees by templateId"
        },
        "returns": {
          "_0": "True if successfully updated"
        }
      },
      "transferOwnership(address)": {
        "details": "Transfers ownership of the contract to a new account (`newOwner`). Can only be called by the current owner."
      },
      "unpause()": {
        "details": "The caller must have the 'PAUSER_ROLE'"
      },
      "verify(uint256,address)": {
        "details": "Verify if the address of guy exists",
        "params": {
          "guy": "Address to verify"
        },
        "returns": {
          "_0": "True if guy is a redeemer"
        }
      }
    },
    "stateVariables": {
      "chai": {
        "details": "Data"
      }
    },
    "version": 1
  },
  "userdoc": {
    "kind": "user",
    "methods": {
      "addAdmin(address)": {
        "notice": "Add a new Admin"
      },
      "chaiChallenge(uint256)": {
        "notice": "Chai Challenge"
      },
      "chiefChallenge(uint256)": {
        "notice": "DSChief Challenge"
      },
      "flipperChallenge(uint256,uint256)": {
        "notice": "Flipper Challenge"
      },
      "getTrustedForwarder()": {
        "notice": "return the forwarder we trust to forward relayed transactions to us. the forwarder is required to verify the sender's signature, and verify the call is not a replay."
      },
      "isTrustedForwarder(address)": {
        "notice": "return if the forwarder is trusted to forward relayed transactions to us. the forwarder is required to verify the sender's signature, and verify the call is not a replay."
      },
      "pause()": {
        "notice": "Pause all the functions"
      },
      "removeAdmin(address)": {
        "notice": "Remove an Admin"
      },
      "setRootHashes(bytes32[])": {
        "notice": "Set Merkle Tree Root Hashes array"
      },
      "unpause()": {
        "notice": "Unpause all the functions"
      },
      "verify(uint256,address)": {
        "notice": "Check if guy is a redeemer"
      }
    },
    "version": 1
  }
}